{
	"customContracts/OwnerMultiSigWallet.sol": {
		"OwnerMultiSigWallet": {
			"abi": [
				{
					"inputs": [
						{
							"internalType": "address[]",
							"name": "_owners",
							"type": "address[]"
						},
						{
							"internalType": "uint256",
							"name": "_numConfirmationsRequired",
							"type": "uint256"
						}
					],
					"stateMutability": "nonpayable",
					"type": "constructor"
				},
				{
					"anonymous": false,
					"inputs": [
						{
							"indexed": true,
							"internalType": "address",
							"name": "owner",
							"type": "address"
						},
						{
							"indexed": true,
							"internalType": "uint256",
							"name": "txIndex",
							"type": "uint256"
						}
					],
					"name": "ConfirmTransaction",
					"type": "event"
				},
				{
					"anonymous": false,
					"inputs": [
						{
							"indexed": true,
							"internalType": "address",
							"name": "sender",
							"type": "address"
						},
						{
							"indexed": false,
							"internalType": "uint256",
							"name": "amount",
							"type": "uint256"
						},
						{
							"indexed": false,
							"internalType": "uint256",
							"name": "balance",
							"type": "uint256"
						}
					],
					"name": "Deposit",
					"type": "event"
				},
				{
					"anonymous": false,
					"inputs": [
						{
							"indexed": true,
							"internalType": "address",
							"name": "owner",
							"type": "address"
						},
						{
							"indexed": true,
							"internalType": "uint256",
							"name": "txIndex",
							"type": "uint256"
						}
					],
					"name": "ExecuteTransaction",
					"type": "event"
				},
				{
					"anonymous": false,
					"inputs": [
						{
							"indexed": true,
							"internalType": "address",
							"name": "owner",
							"type": "address"
						},
						{
							"indexed": true,
							"internalType": "uint256",
							"name": "txIndex",
							"type": "uint256"
						}
					],
					"name": "RevokeConfirmation",
					"type": "event"
				},
				{
					"anonymous": false,
					"inputs": [
						{
							"indexed": true,
							"internalType": "address",
							"name": "owner",
							"type": "address"
						},
						{
							"indexed": true,
							"internalType": "uint256",
							"name": "txIndex",
							"type": "uint256"
						},
						{
							"indexed": true,
							"internalType": "address",
							"name": "to",
							"type": "address"
						},
						{
							"indexed": false,
							"internalType": "uint256",
							"name": "value",
							"type": "uint256"
						},
						{
							"indexed": false,
							"internalType": "bytes",
							"name": "data",
							"type": "bytes"
						}
					],
					"name": "SubmitTransaction",
					"type": "event"
				},
				{
					"inputs": [
						{
							"internalType": "address",
							"name": "",
							"type": "address"
						}
					],
					"name": "aggressReplaceMap",
					"outputs": [
						{
							"internalType": "bool",
							"name": "",
							"type": "bool"
						}
					],
					"stateMutability": "view",
					"type": "function"
				},
				{
					"inputs": [],
					"name": "agreeReplaceNewOwner",
					"outputs": [],
					"stateMutability": "nonpayable",
					"type": "function"
				},
				{
					"inputs": [],
					"name": "agreeTicketNum",
					"outputs": [
						{
							"internalType": "uint8",
							"name": "",
							"type": "uint8"
						}
					],
					"stateMutability": "view",
					"type": "function"
				},
				{
					"inputs": [],
					"name": "candidateOwner",
					"outputs": [
						{
							"internalType": "address",
							"name": "",
							"type": "address"
						}
					],
					"stateMutability": "view",
					"type": "function"
				},
				{
					"inputs": [
						{
							"internalType": "uint256",
							"name": "_txIndex",
							"type": "uint256"
						}
					],
					"name": "confirmTransaction",
					"outputs": [],
					"stateMutability": "nonpayable",
					"type": "function"
				},
				{
					"inputs": [],
					"name": "getOwners",
					"outputs": [
						{
							"internalType": "address[]",
							"name": "",
							"type": "address[]"
						}
					],
					"stateMutability": "view",
					"type": "function"
				},
				{
					"inputs": [
						{
							"internalType": "uint256",
							"name": "_txIndex",
							"type": "uint256"
						}
					],
					"name": "getTransaction",
					"outputs": [
						{
							"internalType": "address",
							"name": "to",
							"type": "address"
						},
						{
							"internalType": "uint256",
							"name": "value",
							"type": "uint256"
						},
						{
							"internalType": "bytes",
							"name": "data",
							"type": "bytes"
						},
						{
							"internalType": "bool",
							"name": "executed",
							"type": "bool"
						},
						{
							"internalType": "uint256",
							"name": "numConfirmations",
							"type": "uint256"
						}
					],
					"stateMutability": "view",
					"type": "function"
				},
				{
					"inputs": [],
					"name": "getTransactionCount",
					"outputs": [
						{
							"internalType": "uint256",
							"name": "",
							"type": "uint256"
						}
					],
					"stateMutability": "view",
					"type": "function"
				},
				{
					"inputs": [
						{
							"internalType": "address",
							"name": "_newOwner",
							"type": "address"
						},
						{
							"internalType": "address",
							"name": "_replaceeOwner",
							"type": "address"
						}
					],
					"name": "inputCandidateOwner",
					"outputs": [],
					"stateMutability": "nonpayable",
					"type": "function"
				},
				{
					"inputs": [],
					"name": "invokeCandidateOwner",
					"outputs": [],
					"stateMutability": "nonpayable",
					"type": "function"
				},
				{
					"inputs": [
						{
							"internalType": "uint256",
							"name": "",
							"type": "uint256"
						},
						{
							"internalType": "address",
							"name": "",
							"type": "address"
						}
					],
					"name": "isConfirmed",
					"outputs": [
						{
							"internalType": "bool",
							"name": "",
							"type": "bool"
						}
					],
					"stateMutability": "view",
					"type": "function"
				},
				{
					"inputs": [
						{
							"internalType": "address",
							"name": "",
							"type": "address"
						}
					],
					"name": "isOwner",
					"outputs": [
						{
							"internalType": "bool",
							"name": "",
							"type": "bool"
						}
					],
					"stateMutability": "view",
					"type": "function"
				},
				{
					"inputs": [],
					"name": "numConfirmationsRequired",
					"outputs": [
						{
							"internalType": "uint256",
							"name": "",
							"type": "uint256"
						}
					],
					"stateMutability": "view",
					"type": "function"
				},
				{
					"inputs": [
						{
							"internalType": "uint256",
							"name": "",
							"type": "uint256"
						}
					],
					"name": "owners",
					"outputs": [
						{
							"internalType": "address",
							"name": "",
							"type": "address"
						}
					],
					"stateMutability": "view",
					"type": "function"
				},
				{
					"inputs": [],
					"name": "replaceeOwner",
					"outputs": [
						{
							"internalType": "address",
							"name": "",
							"type": "address"
						}
					],
					"stateMutability": "view",
					"type": "function"
				},
				{
					"inputs": [],
					"name": "resetReplaceVote",
					"outputs": [],
					"stateMutability": "nonpayable",
					"type": "function"
				},
				{
					"inputs": [
						{
							"internalType": "uint256",
							"name": "_txIndex",
							"type": "uint256"
						}
					],
					"name": "revokeConfirmation",
					"outputs": [],
					"stateMutability": "nonpayable",
					"type": "function"
				},
				{
					"inputs": [
						{
							"internalType": "uint256",
							"name": "",
							"type": "uint256"
						}
					],
					"name": "transactions",
					"outputs": [
						{
							"internalType": "address",
							"name": "to",
							"type": "address"
						},
						{
							"internalType": "uint256",
							"name": "value",
							"type": "uint256"
						},
						{
							"internalType": "bytes",
							"name": "data",
							"type": "bytes"
						},
						{
							"internalType": "bool",
							"name": "executed",
							"type": "bool"
						},
						{
							"internalType": "uint256",
							"name": "numConfirmations",
							"type": "uint256"
						},
						{
							"internalType": "uint256",
							"name": "txIndex",
							"type": "uint256"
						}
					],
					"stateMutability": "view",
					"type": "function"
				},
				{
					"stateMutability": "payable",
					"type": "receive"
				}
			],
			"devdoc": {
				"events": {
					"ConfirmTransaction(address,uint256)": {
						"details": "记录确认交易日志",
						"params": {
							"owner": "合约所有者提出的确认票",
							"txIndex": "交易序号"
						}
					},
					"Deposit(address,uint256,uint256)": {
						"details": "接收外部账户转账记录",
						"params": {
							"amount": "交易金额",
							"balance": "转账后合约账户的金额",
							"sender": "转账的外部账户地址"
						}
					},
					"ExecuteTransaction(address,uint256)": {
						"details": "记录执行交易日志",
						"params": {
							"owner": "发起交易执行的合约所有者地址",
							"txIndex": "合约的索引"
						}
					},
					"RevokeConfirmation(address,uint256)": {
						"details": "记录撤销交易日志",
						"params": {
							"owner": "合约所有者反悔撤销投票",
							"txIndex": "交易序号"
						}
					},
					"SubmitTransaction(address,uint256,address,uint256,bytes)": {
						"details": "记录提交的交易日志",
						"params": {
							"data": "交易传递的二进制数据",
							"owner": "交易的提交者",
							"to": "交易的目的地址",
							"txIndex": "交易的序号",
							"value": "交易的金额"
						}
					}
				},
				"kind": "dev",
				"methods": {
					"agreeReplaceNewOwner()": {
						"details": "所有合约拥有者进行投票，全票投过生效 "
					},
					"confirmTransaction(uint256)": {
						"details": "合约所有者中的一个，对其他合约所有者发起的交易投赞成",
						"params": {
							"_txIndex": "交易的索引"
						}
					},
					"getOwners()": {
						"details": "返回合约拥有者"
					},
					"getTransaction(uint256)": {
						"details": "返回某个交易信息",
						"params": {
							"_txIndex": "交易索引"
						}
					},
					"getTransactionCount()": {
						"details": "返回交易数量"
					},
					"inputCandidateOwner(address,address)": {
						"details": "输入候选owneer， 等待所有合约拥有者同意，则可以替换掉_replaceeOwner",
						"params": {
							"_newOwner": "新的合约拥有者",
							"_replaceeOwner": "即将被替换的合约拥有者"
						}
					},
					"invokeCandidateOwner()": {
						"details": "启用新owner替换老owner "
					},
					"resetReplaceVote()": {
						"details": "重置替换选举 "
					},
					"revokeConfirmation(uint256)": {
						"details": "合约所有者中的一个，撤销交易",
						"params": {
							"_txIndex": "交易的索引"
						}
					}
				},
				"version": 1
			},
			"evm": {
				"assembly": "    /* \"customContracts/OwnerMultiSigWallet.sol\":124:7998  contract OwnerMultiSigWallet is EventDefine {... */\n  mstore(0x40, 0x80)\n    /* \"customContracts/OwnerMultiSigWallet.sol\":1697:1698  0 */\n  0x00\n    /* \"customContracts/OwnerMultiSigWallet.sol\":1667:1698  uint8 public agreeTicketNum = 0 */\n  0x08\n  exp(0x0100, 0x00)\n  dup2\n  sload\n  dup2\n  0xff\n  mul\n  not\n  and\n  swap1\n  dup4\n  0xff\n  and\n  mul\n  or\n  swap1\n  sstore\n  pop\n    /* \"customContracts/OwnerMultiSigWallet.sol\":3422:4047  constructor(address[] memory _owners, uint _numConfirmationsRequired){... */\n  callvalue\n  dup1\n  iszero\n  tag_1\n  jumpi\n  0x00\n  dup1\n  revert\ntag_1:\n  pop\n  mload(0x40)\n  sub(codesize, bytecodeSize)\n  dup1\n  bytecodeSize\n  dup4\n  codecopy\n  dup2\n  dup2\n  add\n  0x40\n  mstore\n  dup2\n  add\n  swap1\n  tag_2\n  swap2\n  swap1\n  tag_3\n  jump\t// in\ntag_2:\n    /* \"customContracts/OwnerMultiSigWallet.sol\":3527:3528  0 */\n  0x00\n    /* \"customContracts/OwnerMultiSigWallet.sol\":3510:3517  _owners */\n  dup3\n    /* \"customContracts/OwnerMultiSigWallet.sol\":3510:3524  _owners.length */\n  mload\n    /* \"customContracts/OwnerMultiSigWallet.sol\":3510:3528  _owners.length > 0 */\n  gt\n    /* \"customContracts/OwnerMultiSigWallet.sol\":3502:3547  require(_owners.length > 0, \"owner required\") */\n  tag_6\n  jumpi\n  mload(0x40)\n  0x08c379a000000000000000000000000000000000000000000000000000000000\n  dup2\n  mstore\n  0x04\n  add\n  tag_7\n  swap1\n  tag_8\n  jump\t// in\ntag_7:\n  mload(0x40)\n  dup1\n  swap2\n  sub\n  swap1\n  revert\ntag_6:\n    /* \"customContracts/OwnerMultiSigWallet.sol\":3594:3595  0 */\n  0x00\n    /* \"customContracts/OwnerMultiSigWallet.sol\":3566:3591  _numConfirmationsRequired */\n  dup2\n    /* \"customContracts/OwnerMultiSigWallet.sol\":3566:3595  _numConfirmationsRequired > 0 */\n  gt\n    /* \"customContracts/OwnerMultiSigWallet.sol\":3566:3642  _numConfirmationsRequired > 0 && _numConfirmationsRequired <= _owners.length */\n  dup1\n  iszero\n  tag_9\n  jumpi\n  pop\n    /* \"customContracts/OwnerMultiSigWallet.sol\":3628:3635  _owners */\n  dup2\n    /* \"customContracts/OwnerMultiSigWallet.sol\":3628:3642  _owners.length */\n  mload\n    /* \"customContracts/OwnerMultiSigWallet.sol\":3599:3624  _numConfirmationsRequired */\n  dup2\n    /* \"customContracts/OwnerMultiSigWallet.sol\":3599:3642  _numConfirmationsRequired <= _owners.length */\n  gt\n  iszero\n    /* \"customContracts/OwnerMultiSigWallet.sol\":3566:3642  _numConfirmationsRequired > 0 && _numConfirmationsRequired <= _owners.length */\ntag_9:\n    /* \"customContracts/OwnerMultiSigWallet.sol\":3558:3686  require(_numConfirmationsRequired > 0 && _numConfirmationsRequired <= _owners.length, \"invalid number of requred confirmations\") */\n  tag_10\n  jumpi\n  mload(0x40)\n  0x08c379a000000000000000000000000000000000000000000000000000000000\n  dup2\n  mstore\n  0x04\n  add\n  tag_11\n  swap1\n  tag_12\n  jump\t// in\ntag_11:\n  mload(0x40)\n  dup1\n  swap2\n  sub\n  swap1\n  revert\ntag_10:\n    /* \"customContracts/OwnerMultiSigWallet.sol\":3702:3708  uint i */\n  0x00\n    /* \"customContracts/OwnerMultiSigWallet.sol\":3697:3977  for (uint i = 0; i < _owners.length; i++) {... */\ntag_13:\n    /* \"customContracts/OwnerMultiSigWallet.sol\":3718:3725  _owners */\n  dup3\n    /* \"customContracts/OwnerMultiSigWallet.sol\":3718:3732  _owners.length */\n  mload\n    /* \"customContracts/OwnerMultiSigWallet.sol\":3714:3715  i */\n  dup2\n    /* \"customContracts/OwnerMultiSigWallet.sol\":3714:3732  i < _owners.length */\n  lt\n    /* \"customContracts/OwnerMultiSigWallet.sol\":3697:3977  for (uint i = 0; i < _owners.length; i++) {... */\n  iszero\n  tag_14\n  jumpi\n    /* \"customContracts/OwnerMultiSigWallet.sol\":3754:3767  address owner */\n  0x00\n    /* \"customContracts/OwnerMultiSigWallet.sol\":3770:3777  _owners */\n  dup4\n    /* \"customContracts/OwnerMultiSigWallet.sol\":3778:3779  i */\n  dup3\n    /* \"customContracts/OwnerMultiSigWallet.sol\":3770:3780  _owners[i] */\n  dup2\n  mload\n  dup2\n  lt\n  tag_16\n  jumpi\n  tag_17\n  tag_18\n  jump\t// in\ntag_17:\ntag_16:\n  0x20\n  mul\n  0x20\n  add\n  add\n  mload\n    /* \"customContracts/OwnerMultiSigWallet.sol\":3754:3780  address owner = _owners[i] */\n  swap1\n  pop\n    /* \"customContracts/OwnerMultiSigWallet.sol\":3820:3821  0 */\n  0x00\n    /* \"customContracts/OwnerMultiSigWallet.sol\":3803:3822  owner != address(0) */\n  0xffffffffffffffffffffffffffffffffffffffff\n  and\n    /* \"customContracts/OwnerMultiSigWallet.sol\":3803:3808  owner */\n  dup2\n    /* \"customContracts/OwnerMultiSigWallet.sol\":3803:3822  owner != address(0) */\n  0xffffffffffffffffffffffffffffffffffffffff\n  and\n  sub\n    /* \"customContracts/OwnerMultiSigWallet.sol\":3795:3840  require(owner != address(0), \"invalid owner\") */\n  tag_19\n  jumpi\n  mload(0x40)\n  0x08c379a000000000000000000000000000000000000000000000000000000000\n  dup2\n  mstore\n  0x04\n  add\n  tag_20\n  swap1\n  tag_21\n  jump\t// in\ntag_20:\n  mload(0x40)\n  dup1\n  swap2\n  sub\n  swap1\n  revert\ntag_19:\n    /* \"customContracts/OwnerMultiSigWallet.sol\":3864:3871  isOwner */\n  0x01\n    /* \"customContracts/OwnerMultiSigWallet.sol\":3864:3878  isOwner[owner] */\n  0x00\n    /* \"customContracts/OwnerMultiSigWallet.sol\":3872:3877  owner */\n  dup3\n    /* \"customContracts/OwnerMultiSigWallet.sol\":3864:3878  isOwner[owner] */\n  0xffffffffffffffffffffffffffffffffffffffff\n  and\n  0xffffffffffffffffffffffffffffffffffffffff\n  and\n  dup2\n  mstore\n  0x20\n  add\n  swap1\n  dup2\n  mstore\n  0x20\n  add\n  0x00\n  keccak256\n  0x00\n  swap1\n  sload\n  swap1\n  0x0100\n  exp\n  swap1\n  div\n  0xff\n  and\n    /* \"customContracts/OwnerMultiSigWallet.sol\":3863:3878  !isOwner[owner] */\n  iszero\n    /* \"customContracts/OwnerMultiSigWallet.sol\":3855:3896  require(!isOwner[owner], \"owner existed\") */\n  tag_22\n  jumpi\n  mload(0x40)\n  0x08c379a000000000000000000000000000000000000000000000000000000000\n  dup2\n  mstore\n  0x04\n  add\n  tag_23\n  swap1\n  tag_24\n  jump\t// in\ntag_23:\n  mload(0x40)\n  dup1\n  swap2\n  sub\n  swap1\n  revert\ntag_22:\n    /* \"customContracts/OwnerMultiSigWallet.sol\":3928:3932  true */\n  0x01\n    /* \"customContracts/OwnerMultiSigWallet.sol\":3911:3918  isOwner */\n  dup1\n    /* \"customContracts/OwnerMultiSigWallet.sol\":3911:3925  isOwner[owner] */\n  0x00\n    /* \"customContracts/OwnerMultiSigWallet.sol\":3919:3924  owner */\n  dup4\n    /* \"customContracts/OwnerMultiSigWallet.sol\":3911:3925  isOwner[owner] */\n  0xffffffffffffffffffffffffffffffffffffffff\n  and\n  0xffffffffffffffffffffffffffffffffffffffff\n  and\n  dup2\n  mstore\n  0x20\n  add\n  swap1\n  dup2\n  mstore\n  0x20\n  add\n  0x00\n  keccak256\n  0x00\n    /* \"customContracts/OwnerMultiSigWallet.sol\":3911:3932  isOwner[owner] = true */\n  0x0100\n  exp\n  dup2\n  sload\n  dup2\n  0xff\n  mul\n  not\n  and\n  swap1\n  dup4\n  iszero\n  iszero\n  mul\n  or\n  swap1\n  sstore\n  pop\n    /* \"customContracts/OwnerMultiSigWallet.sol\":3947:3953  owners */\n  0x00\n    /* \"customContracts/OwnerMultiSigWallet.sol\":3959:3964  owner */\n  dup2\n    /* \"customContracts/OwnerMultiSigWallet.sol\":3947:3965  owners.push(owner) */\n  swap1\n  dup1\n  0x01\n  dup2\n  sload\n  add\n  dup1\n  dup3\n  sstore\n  dup1\n  swap2\n  pop\n  pop\n  0x01\n  swap1\n  sub\n  swap1\n  0x00\n  mstore\n  keccak256(0x00, 0x20)\n  add\n  0x00\n  swap1\n  swap2\n  swap1\n  swap2\n  swap1\n  swap2\n  0x0100\n  exp\n  dup2\n  sload\n  dup2\n  0xffffffffffffffffffffffffffffffffffffffff\n  mul\n  not\n  and\n  swap1\n  dup4\n  0xffffffffffffffffffffffffffffffffffffffff\n  and\n  mul\n  or\n  swap1\n  sstore\n  pop\n    /* \"customContracts/OwnerMultiSigWallet.sol\":3739:3977  {... */\n  pop\n    /* \"customContracts/OwnerMultiSigWallet.sol\":3734:3737  i++ */\n  dup1\n  dup1\n  0x01\n  add\n  swap2\n  pop\n  pop\n    /* \"customContracts/OwnerMultiSigWallet.sol\":3697:3977  for (uint i = 0; i < _owners.length; i++) {... */\n  jump(tag_13)\ntag_14:\n  pop\n    /* \"customContracts/OwnerMultiSigWallet.sol\":4014:4039  _numConfirmationsRequired */\n  dup1\n    /* \"customContracts/OwnerMultiSigWallet.sol\":3987:4011  numConfirmationsRequired */\n  0x02\n    /* \"customContracts/OwnerMultiSigWallet.sol\":3987:4039  numConfirmationsRequired = _numConfirmationsRequired */\n  dup2\n  swap1\n  sstore\n  pop\n    /* \"customContracts/OwnerMultiSigWallet.sol\":3422:4047  constructor(address[] memory _owners, uint _numConfirmationsRequired){... */\n  pop\n  pop\n    /* \"customContracts/OwnerMultiSigWallet.sol\":124:7998  contract OwnerMultiSigWallet is EventDefine {... */\n  jump(tag_26)\n    /* \"#utility.yul\":7:82   */\ntag_27:\n    /* \"#utility.yul\":40:46   */\n  0x00\n    /* \"#utility.yul\":73:75   */\n  0x40\n    /* \"#utility.yul\":67:76   */\n  mload\n    /* \"#utility.yul\":57:76   */\n  swap1\n  pop\n    /* \"#utility.yul\":7:82   */\n  swap1\n  jump\t// out\n    /* \"#utility.yul\":88:205   */\ntag_28:\n    /* \"#utility.yul\":197:198   */\n  0x00\n    /* \"#utility.yul\":194:195   */\n  dup1\n    /* \"#utility.yul\":187:199   */\n  revert\n    /* \"#utility.yul\":211:328   */\ntag_29:\n    /* \"#utility.yul\":320:321   */\n  0x00\n    /* \"#utility.yul\":317:318   */\n  dup1\n    /* \"#utility.yul\":310:322   */\n  revert\n    /* \"#utility.yul\":334:451   */\ntag_30:\n    /* \"#utility.yul\":443:444   */\n  0x00\n    /* \"#utility.yul\":440:441   */\n  dup1\n    /* \"#utility.yul\":433:445   */\n  revert\n    /* \"#utility.yul\":457:559   */\ntag_31:\n    /* \"#utility.yul\":498:504   */\n  0x00\n    /* \"#utility.yul\":549:551   */\n  0x1f\n    /* \"#utility.yul\":545:552   */\n  not\n    /* \"#utility.yul\":540:542   */\n  0x1f\n    /* \"#utility.yul\":533:538   */\n  dup4\n    /* \"#utility.yul\":529:543   */\n  add\n    /* \"#utility.yul\":525:553   */\n  and\n    /* \"#utility.yul\":515:553   */\n  swap1\n  pop\n    /* \"#utility.yul\":457:559   */\n  swap2\n  swap1\n  pop\n  jump\t// out\n    /* \"#utility.yul\":565:745   */\ntag_32:\n    /* \"#utility.yul\":613:690   */\n  0x4e487b7100000000000000000000000000000000000000000000000000000000\n    /* \"#utility.yul\":610:611   */\n  0x00\n    /* \"#utility.yul\":603:691   */\n  mstore\n    /* \"#utility.yul\":710:714   */\n  0x41\n    /* \"#utility.yul\":707:708   */\n  0x04\n    /* \"#utility.yul\":700:715   */\n  mstore\n    /* \"#utility.yul\":734:738   */\n  0x24\n    /* \"#utility.yul\":731:732   */\n  0x00\n    /* \"#utility.yul\":724:739   */\n  revert\n    /* \"#utility.yul\":751:1032   */\ntag_33:\n    /* \"#utility.yul\":834:861   */\n  tag_63\n    /* \"#utility.yul\":856:860   */\n  dup3\n    /* \"#utility.yul\":834:861   */\n  tag_31\n  jump\t// in\ntag_63:\n    /* \"#utility.yul\":826:832   */\n  dup2\n    /* \"#utility.yul\":822:862   */\n  add\n    /* \"#utility.yul\":964:970   */\n  dup2\n    /* \"#utility.yul\":952:962   */\n  dup2\n    /* \"#utility.yul\":949:971   */\n  lt\n    /* \"#utility.yul\":928:946   */\n  0xffffffffffffffff\n    /* \"#utility.yul\":916:926   */\n  dup3\n    /* \"#utility.yul\":913:947   */\n  gt\n    /* \"#utility.yul\":910:972   */\n  or\n    /* \"#utility.yul\":907:995   */\n  iszero\n  tag_64\n  jumpi\n    /* \"#utility.yul\":975:993   */\n  tag_65\n  tag_32\n  jump\t// in\ntag_65:\n    /* \"#utility.yul\":907:995   */\ntag_64:\n    /* \"#utility.yul\":1015:1025   */\n  dup1\n    /* \"#utility.yul\":1011:1013   */\n  0x40\n    /* \"#utility.yul\":1004:1026   */\n  mstore\n    /* \"#utility.yul\":794:1032   */\n  pop\n    /* \"#utility.yul\":751:1032   */\n  pop\n  pop\n  jump\t// out\n    /* \"#utility.yul\":1038:1167   */\ntag_34:\n    /* \"#utility.yul\":1072:1078   */\n  0x00\n    /* \"#utility.yul\":1099:1119   */\n  tag_67\n  tag_27\n  jump\t// in\ntag_67:\n    /* \"#utility.yul\":1089:1119   */\n  swap1\n  pop\n    /* \"#utility.yul\":1128:1161   */\n  tag_68\n    /* \"#utility.yul\":1156:1160   */\n  dup3\n    /* \"#utility.yul\":1148:1154   */\n  dup3\n    /* \"#utility.yul\":1128:1161   */\n  tag_33\n  jump\t// in\ntag_68:\n    /* \"#utility.yul\":1038:1167   */\n  swap2\n  swap1\n  pop\n  jump\t// out\n    /* \"#utility.yul\":1173:1484   */\ntag_35:\n    /* \"#utility.yul\":1250:1254   */\n  0x00\n    /* \"#utility.yul\":1340:1358   */\n  0xffffffffffffffff\n    /* \"#utility.yul\":1332:1338   */\n  dup3\n    /* \"#utility.yul\":1329:1359   */\n  gt\n    /* \"#utility.yul\":1326:1382   */\n  iszero\n  tag_70\n  jumpi\n    /* \"#utility.yul\":1362:1380   */\n  tag_71\n  tag_32\n  jump\t// in\ntag_71:\n    /* \"#utility.yul\":1326:1382   */\ntag_70:\n    /* \"#utility.yul\":1412:1416   */\n  0x20\n    /* \"#utility.yul\":1404:1410   */\n  dup3\n    /* \"#utility.yul\":1400:1417   */\n  mul\n    /* \"#utility.yul\":1392:1417   */\n  swap1\n  pop\n    /* \"#utility.yul\":1472:1476   */\n  0x20\n    /* \"#utility.yul\":1466:1470   */\n  dup2\n    /* \"#utility.yul\":1462:1477   */\n  add\n    /* \"#utility.yul\":1454:1477   */\n  swap1\n  pop\n    /* \"#utility.yul\":1173:1484   */\n  swap2\n  swap1\n  pop\n  jump\t// out\n    /* \"#utility.yul\":1490:1607   */\ntag_36:\n    /* \"#utility.yul\":1599:1600   */\n  0x00\n    /* \"#utility.yul\":1596:1597   */\n  dup1\n    /* \"#utility.yul\":1589:1601   */\n  revert\n    /* \"#utility.yul\":1613:1739   */\ntag_37:\n    /* \"#utility.yul\":1650:1657   */\n  0x00\n    /* \"#utility.yul\":1690:1732   */\n  0xffffffffffffffffffffffffffffffffffffffff\n    /* \"#utility.yul\":1683:1688   */\n  dup3\n    /* \"#utility.yul\":1679:1733   */\n  and\n    /* \"#utility.yul\":1668:1733   */\n  swap1\n  pop\n    /* \"#utility.yul\":1613:1739   */\n  swap2\n  swap1\n  pop\n  jump\t// out\n    /* \"#utility.yul\":1745:1841   */\ntag_38:\n    /* \"#utility.yul\":1782:1789   */\n  0x00\n    /* \"#utility.yul\":1811:1835   */\n  tag_75\n    /* \"#utility.yul\":1829:1834   */\n  dup3\n    /* \"#utility.yul\":1811:1835   */\n  tag_37\n  jump\t// in\ntag_75:\n    /* \"#utility.yul\":1800:1835   */\n  swap1\n  pop\n    /* \"#utility.yul\":1745:1841   */\n  swap2\n  swap1\n  pop\n  jump\t// out\n    /* \"#utility.yul\":1847:1969   */\ntag_39:\n    /* \"#utility.yul\":1920:1944   */\n  tag_77\n    /* \"#utility.yul\":1938:1943   */\n  dup2\n    /* \"#utility.yul\":1920:1944   */\n  tag_38\n  jump\t// in\ntag_77:\n    /* \"#utility.yul\":1913:1918   */\n  dup2\n    /* \"#utility.yul\":1910:1945   */\n  eq\n    /* \"#utility.yul\":1900:1963   */\n  tag_78\n  jumpi\n    /* \"#utility.yul\":1959:1960   */\n  0x00\n    /* \"#utility.yul\":1956:1957   */\n  dup1\n    /* \"#utility.yul\":1949:1961   */\n  revert\n    /* \"#utility.yul\":1900:1963   */\ntag_78:\n    /* \"#utility.yul\":1847:1969   */\n  pop\n  jump\t// out\n    /* \"#utility.yul\":1975:2118   */\ntag_40:\n    /* \"#utility.yul\":2032:2037   */\n  0x00\n    /* \"#utility.yul\":2063:2069   */\n  dup2\n    /* \"#utility.yul\":2057:2070   */\n  mload\n    /* \"#utility.yul\":2048:2070   */\n  swap1\n  pop\n    /* \"#utility.yul\":2079:2112   */\n  tag_80\n    /* \"#utility.yul\":2106:2111   */\n  dup2\n    /* \"#utility.yul\":2079:2112   */\n  tag_39\n  jump\t// in\ntag_80:\n    /* \"#utility.yul\":1975:2118   */\n  swap3\n  swap2\n  pop\n  pop\n  jump\t// out\n    /* \"#utility.yul\":2141:2873   */\ntag_41:\n    /* \"#utility.yul\":2248:2253   */\n  0x00\n    /* \"#utility.yul\":2273:2354   */\n  tag_82\n    /* \"#utility.yul\":2289:2353   */\n  tag_83\n    /* \"#utility.yul\":2346:2352   */\n  dup5\n    /* \"#utility.yul\":2289:2353   */\n  tag_35\n  jump\t// in\ntag_83:\n    /* \"#utility.yul\":2273:2354   */\n  tag_34\n  jump\t// in\ntag_82:\n    /* \"#utility.yul\":2264:2354   */\n  swap1\n  pop\n    /* \"#utility.yul\":2374:2379   */\n  dup1\n    /* \"#utility.yul\":2403:2409   */\n  dup4\n    /* \"#utility.yul\":2396:2401   */\n  dup3\n    /* \"#utility.yul\":2389:2410   */\n  mstore\n    /* \"#utility.yul\":2437:2441   */\n  0x20\n    /* \"#utility.yul\":2430:2435   */\n  dup3\n    /* \"#utility.yul\":2426:2442   */\n  add\n    /* \"#utility.yul\":2419:2442   */\n  swap1\n  pop\n    /* \"#utility.yul\":2490:2494   */\n  0x20\n    /* \"#utility.yul\":2482:2488   */\n  dup5\n    /* \"#utility.yul\":2478:2495   */\n  mul\n    /* \"#utility.yul\":2470:2476   */\n  dup4\n    /* \"#utility.yul\":2466:2496   */\n  add\n    /* \"#utility.yul\":2519:2522   */\n  dup6\n    /* \"#utility.yul\":2511:2517   */\n  dup2\n    /* \"#utility.yul\":2508:2523   */\n  gt\n    /* \"#utility.yul\":2505:2627   */\n  iszero\n  tag_84\n  jumpi\n    /* \"#utility.yul\":2538:2617   */\n  tag_85\n  tag_36\n  jump\t// in\ntag_85:\n    /* \"#utility.yul\":2505:2627   */\ntag_84:\n    /* \"#utility.yul\":2653:2659   */\n  dup4\n    /* \"#utility.yul\":2636:2867   */\ntag_86:\n    /* \"#utility.yul\":2670:2676   */\n  dup2\n    /* \"#utility.yul\":2665:2668   */\n  dup2\n    /* \"#utility.yul\":2662:2677   */\n  lt\n    /* \"#utility.yul\":2636:2867   */\n  iszero\n  tag_88\n  jumpi\n    /* \"#utility.yul\":2745:2748   */\n  dup1\n    /* \"#utility.yul\":2774:2822   */\n  tag_89\n    /* \"#utility.yul\":2818:2821   */\n  dup9\n    /* \"#utility.yul\":2806:2816   */\n  dup3\n    /* \"#utility.yul\":2774:2822   */\n  tag_40\n  jump\t// in\ntag_89:\n    /* \"#utility.yul\":2769:2772   */\n  dup5\n    /* \"#utility.yul\":2762:2823   */\n  mstore\n    /* \"#utility.yul\":2852:2856   */\n  0x20\n    /* \"#utility.yul\":2847:2850   */\n  dup5\n    /* \"#utility.yul\":2843:2857   */\n  add\n    /* \"#utility.yul\":2836:2857   */\n  swap4\n  pop\n    /* \"#utility.yul\":2712:2867   */\n  pop\n    /* \"#utility.yul\":2696:2700   */\n  0x20\n    /* \"#utility.yul\":2691:2694   */\n  dup2\n    /* \"#utility.yul\":2687:2701   */\n  add\n    /* \"#utility.yul\":2680:2701   */\n  swap1\n  pop\n    /* \"#utility.yul\":2636:2867   */\n  jump(tag_86)\ntag_88:\n    /* \"#utility.yul\":2640:2661   */\n  pop\n    /* \"#utility.yul\":2254:2873   */\n  pop\n  pop\n    /* \"#utility.yul\":2141:2873   */\n  swap4\n  swap3\n  pop\n  pop\n  pop\n  jump\t// out\n    /* \"#utility.yul\":2896:3281   */\ntag_42:\n    /* \"#utility.yul\":2978:2983   */\n  0x00\n    /* \"#utility.yul\":3027:3030   */\n  dup3\n    /* \"#utility.yul\":3020:3024   */\n  0x1f\n    /* \"#utility.yul\":3012:3018   */\n  dup4\n    /* \"#utility.yul\":3008:3025   */\n  add\n    /* \"#utility.yul\":3004:3031   */\n  slt\n    /* \"#utility.yul\":2994:3116   */\n  tag_91\n  jumpi\n    /* \"#utility.yul\":3035:3114   */\n  tag_92\n  tag_30\n  jump\t// in\ntag_92:\n    /* \"#utility.yul\":2994:3116   */\ntag_91:\n    /* \"#utility.yul\":3145:3151   */\n  dup2\n    /* \"#utility.yul\":3139:3152   */\n  mload\n    /* \"#utility.yul\":3170:3275   */\n  tag_93\n    /* \"#utility.yul\":3271:3274   */\n  dup5\n    /* \"#utility.yul\":3263:3269   */\n  dup3\n    /* \"#utility.yul\":3256:3260   */\n  0x20\n    /* \"#utility.yul\":3248:3254   */\n  dup7\n    /* \"#utility.yul\":3244:3261   */\n  add\n    /* \"#utility.yul\":3170:3275   */\n  tag_41\n  jump\t// in\ntag_93:\n    /* \"#utility.yul\":3161:3275   */\n  swap2\n  pop\n    /* \"#utility.yul\":2984:3281   */\n  pop\n    /* \"#utility.yul\":2896:3281   */\n  swap3\n  swap2\n  pop\n  pop\n  jump\t// out\n    /* \"#utility.yul\":3287:3364   */\ntag_43:\n    /* \"#utility.yul\":3324:3331   */\n  0x00\n    /* \"#utility.yul\":3353:3358   */\n  dup2\n    /* \"#utility.yul\":3342:3358   */\n  swap1\n  pop\n    /* \"#utility.yul\":3287:3364   */\n  swap2\n  swap1\n  pop\n  jump\t// out\n    /* \"#utility.yul\":3370:3492   */\ntag_44:\n    /* \"#utility.yul\":3443:3467   */\n  tag_96\n    /* \"#utility.yul\":3461:3466   */\n  dup2\n    /* \"#utility.yul\":3443:3467   */\n  tag_43\n  jump\t// in\ntag_96:\n    /* \"#utility.yul\":3436:3441   */\n  dup2\n    /* \"#utility.yul\":3433:3468   */\n  eq\n    /* \"#utility.yul\":3423:3486   */\n  tag_97\n  jumpi\n    /* \"#utility.yul\":3482:3483   */\n  0x00\n    /* \"#utility.yul\":3479:3480   */\n  dup1\n    /* \"#utility.yul\":3472:3484   */\n  revert\n    /* \"#utility.yul\":3423:3486   */\ntag_97:\n    /* \"#utility.yul\":3370:3492   */\n  pop\n  jump\t// out\n    /* \"#utility.yul\":3498:3641   */\ntag_45:\n    /* \"#utility.yul\":3555:3560   */\n  0x00\n    /* \"#utility.yul\":3586:3592   */\n  dup2\n    /* \"#utility.yul\":3580:3593   */\n  mload\n    /* \"#utility.yul\":3571:3593   */\n  swap1\n  pop\n    /* \"#utility.yul\":3602:3635   */\n  tag_99\n    /* \"#utility.yul\":3629:3634   */\n  dup2\n    /* \"#utility.yul\":3602:3635   */\n  tag_44\n  jump\t// in\ntag_99:\n    /* \"#utility.yul\":3498:3641   */\n  swap3\n  swap2\n  pop\n  pop\n  jump\t// out\n    /* \"#utility.yul\":3647:4357   */\ntag_3:\n    /* \"#utility.yul\":3751:3757   */\n  0x00\n    /* \"#utility.yul\":3759:3765   */\n  dup1\n    /* \"#utility.yul\":3808:3810   */\n  0x40\n    /* \"#utility.yul\":3796:3805   */\n  dup4\n    /* \"#utility.yul\":3787:3794   */\n  dup6\n    /* \"#utility.yul\":3783:3806   */\n  sub\n    /* \"#utility.yul\":3779:3811   */\n  slt\n    /* \"#utility.yul\":3776:3895   */\n  iszero\n  tag_101\n  jumpi\n    /* \"#utility.yul\":3814:3893   */\n  tag_102\n  tag_28\n  jump\t// in\ntag_102:\n    /* \"#utility.yul\":3776:3895   */\ntag_101:\n    /* \"#utility.yul\":3955:3956   */\n  0x00\n    /* \"#utility.yul\":3944:3953   */\n  dup4\n    /* \"#utility.yul\":3940:3957   */\n  add\n    /* \"#utility.yul\":3934:3958   */\n  mload\n    /* \"#utility.yul\":3985:4003   */\n  0xffffffffffffffff\n    /* \"#utility.yul\":3977:3983   */\n  dup2\n    /* \"#utility.yul\":3974:4004   */\n  gt\n    /* \"#utility.yul\":3971:4088   */\n  iszero\n  tag_103\n  jumpi\n    /* \"#utility.yul\":4007:4086   */\n  tag_104\n  tag_29\n  jump\t// in\ntag_104:\n    /* \"#utility.yul\":3971:4088   */\ntag_103:\n    /* \"#utility.yul\":4112:4201   */\n  tag_105\n    /* \"#utility.yul\":4193:4200   */\n  dup6\n    /* \"#utility.yul\":4184:4190   */\n  dup3\n    /* \"#utility.yul\":4173:4182   */\n  dup7\n    /* \"#utility.yul\":4169:4191   */\n  add\n    /* \"#utility.yul\":4112:4201   */\n  tag_42\n  jump\t// in\ntag_105:\n    /* \"#utility.yul\":4102:4201   */\n  swap3\n  pop\n    /* \"#utility.yul\":3905:4211   */\n  pop\n    /* \"#utility.yul\":4250:4252   */\n  0x20\n    /* \"#utility.yul\":4276:4340   */\n  tag_106\n    /* \"#utility.yul\":4332:4339   */\n  dup6\n    /* \"#utility.yul\":4323:4329   */\n  dup3\n    /* \"#utility.yul\":4312:4321   */\n  dup7\n    /* \"#utility.yul\":4308:4330   */\n  add\n    /* \"#utility.yul\":4276:4340   */\n  tag_45\n  jump\t// in\ntag_106:\n    /* \"#utility.yul\":4266:4340   */\n  swap2\n  pop\n    /* \"#utility.yul\":4221:4350   */\n  pop\n    /* \"#utility.yul\":3647:4357   */\n  swap3\n  pop\n  swap3\n  swap1\n  pop\n  jump\t// out\n    /* \"#utility.yul\":4363:4532   */\ntag_46:\n    /* \"#utility.yul\":4447:4458   */\n  0x00\n    /* \"#utility.yul\":4481:4487   */\n  dup3\n    /* \"#utility.yul\":4476:4479   */\n  dup3\n    /* \"#utility.yul\":4469:4488   */\n  mstore\n    /* \"#utility.yul\":4521:4525   */\n  0x20\n    /* \"#utility.yul\":4516:4519   */\n  dup3\n    /* \"#utility.yul\":4512:4526   */\n  add\n    /* \"#utility.yul\":4497:4526   */\n  swap1\n  pop\n    /* \"#utility.yul\":4363:4532   */\n  swap3\n  swap2\n  pop\n  pop\n  jump\t// out\n    /* \"#utility.yul\":4538:4702   */\ntag_47:\n    /* \"#utility.yul\":4678:4694   */\n  0x6f776e6572207265717569726564000000000000000000000000000000000000\n    /* \"#utility.yul\":4674:4675   */\n  0x00\n    /* \"#utility.yul\":4666:4672   */\n  dup3\n    /* \"#utility.yul\":4662:4676   */\n  add\n    /* \"#utility.yul\":4655:4695   */\n  mstore\n    /* \"#utility.yul\":4538:4702   */\n  pop\n  jump\t// out\n    /* \"#utility.yul\":4708:5074   */\ntag_48:\n    /* \"#utility.yul\":4850:4853   */\n  0x00\n    /* \"#utility.yul\":4871:4938   */\n  tag_110\n    /* \"#utility.yul\":4935:4937   */\n  0x0e\n    /* \"#utility.yul\":4930:4933   */\n  dup4\n    /* \"#utility.yul\":4871:4938   */\n  tag_46\n  jump\t// in\ntag_110:\n    /* \"#utility.yul\":4864:4938   */\n  swap2\n  pop\n    /* \"#utility.yul\":4947:5040   */\n  tag_111\n    /* \"#utility.yul\":5036:5039   */\n  dup3\n    /* \"#utility.yul\":4947:5040   */\n  tag_47\n  jump\t// in\ntag_111:\n    /* \"#utility.yul\":5065:5067   */\n  0x20\n    /* \"#utility.yul\":5060:5063   */\n  dup3\n    /* \"#utility.yul\":5056:5068   */\n  add\n    /* \"#utility.yul\":5049:5068   */\n  swap1\n  pop\n    /* \"#utility.yul\":4708:5074   */\n  swap2\n  swap1\n  pop\n  jump\t// out\n    /* \"#utility.yul\":5080:5499   */\ntag_8:\n    /* \"#utility.yul\":5246:5250   */\n  0x00\n    /* \"#utility.yul\":5284:5286   */\n  0x20\n    /* \"#utility.yul\":5273:5282   */\n  dup3\n    /* \"#utility.yul\":5269:5287   */\n  add\n    /* \"#utility.yul\":5261:5287   */\n  swap1\n  pop\n    /* \"#utility.yul\":5333:5342   */\n  dup2\n    /* \"#utility.yul\":5327:5331   */\n  dup2\n    /* \"#utility.yul\":5323:5343   */\n  sub\n    /* \"#utility.yul\":5319:5320   */\n  0x00\n    /* \"#utility.yul\":5308:5317   */\n  dup4\n    /* \"#utility.yul\":5304:5321   */\n  add\n    /* \"#utility.yul\":5297:5344   */\n  mstore\n    /* \"#utility.yul\":5361:5492   */\n  tag_113\n    /* \"#utility.yul\":5487:5491   */\n  dup2\n    /* \"#utility.yul\":5361:5492   */\n  tag_48\n  jump\t// in\ntag_113:\n    /* \"#utility.yul\":5353:5492   */\n  swap1\n  pop\n    /* \"#utility.yul\":5080:5499   */\n  swap2\n  swap1\n  pop\n  jump\t// out\n    /* \"#utility.yul\":5505:5731   */\ntag_49:\n    /* \"#utility.yul\":5645:5679   */\n  0x696e76616c6964206e756d626572206f66207265717572656420636f6e666972\n    /* \"#utility.yul\":5641:5642   */\n  0x00\n    /* \"#utility.yul\":5633:5639   */\n  dup3\n    /* \"#utility.yul\":5629:5643   */\n  add\n    /* \"#utility.yul\":5622:5680   */\n  mstore\n    /* \"#utility.yul\":5714:5723   */\n  0x6d6174696f6e7300000000000000000000000000000000000000000000000000\n    /* \"#utility.yul\":5709:5711   */\n  0x20\n    /* \"#utility.yul\":5701:5707   */\n  dup3\n    /* \"#utility.yul\":5697:5712   */\n  add\n    /* \"#utility.yul\":5690:5724   */\n  mstore\n    /* \"#utility.yul\":5505:5731   */\n  pop\n  jump\t// out\n    /* \"#utility.yul\":5737:6103   */\ntag_50:\n    /* \"#utility.yul\":5879:5882   */\n  0x00\n    /* \"#utility.yul\":5900:5967   */\n  tag_116\n    /* \"#utility.yul\":5964:5966   */\n  0x27\n    /* \"#utility.yul\":5959:5962   */\n  dup4\n    /* \"#utility.yul\":5900:5967   */\n  tag_46\n  jump\t// in\ntag_116:\n    /* \"#utility.yul\":5893:5967   */\n  swap2\n  pop\n    /* \"#utility.yul\":5976:6069   */\n  tag_117\n    /* \"#utility.yul\":6065:6068   */\n  dup3\n    /* \"#utility.yul\":5976:6069   */\n  tag_49\n  jump\t// in\ntag_117:\n    /* \"#utility.yul\":6094:6096   */\n  0x40\n    /* \"#utility.yul\":6089:6092   */\n  dup3\n    /* \"#utility.yul\":6085:6097   */\n  add\n    /* \"#utility.yul\":6078:6097   */\n  swap1\n  pop\n    /* \"#utility.yul\":5737:6103   */\n  swap2\n  swap1\n  pop\n  jump\t// out\n    /* \"#utility.yul\":6109:6528   */\ntag_12:\n    /* \"#utility.yul\":6275:6279   */\n  0x00\n    /* \"#utility.yul\":6313:6315   */\n  0x20\n    /* \"#utility.yul\":6302:6311   */\n  dup3\n    /* \"#utility.yul\":6298:6316   */\n  add\n    /* \"#utility.yul\":6290:6316   */\n  swap1\n  pop\n    /* \"#utility.yul\":6362:6371   */\n  dup2\n    /* \"#utility.yul\":6356:6360   */\n  dup2\n    /* \"#utility.yul\":6352:6372   */\n  sub\n    /* \"#utility.yul\":6348:6349   */\n  0x00\n    /* \"#utility.yul\":6337:6346   */\n  dup4\n    /* \"#utility.yul\":6333:6350   */\n  add\n    /* \"#utility.yul\":6326:6373   */\n  mstore\n    /* \"#utility.yul\":6390:6521   */\n  tag_119\n    /* \"#utility.yul\":6516:6520   */\n  dup2\n    /* \"#utility.yul\":6390:6521   */\n  tag_50\n  jump\t// in\ntag_119:\n    /* \"#utility.yul\":6382:6521   */\n  swap1\n  pop\n    /* \"#utility.yul\":6109:6528   */\n  swap2\n  swap1\n  pop\n  jump\t// out\n    /* \"#utility.yul\":6534:6714   */\ntag_18:\n    /* \"#utility.yul\":6582:6659   */\n  0x4e487b7100000000000000000000000000000000000000000000000000000000\n    /* \"#utility.yul\":6579:6580   */\n  0x00\n    /* \"#utility.yul\":6572:6660   */\n  mstore\n    /* \"#utility.yul\":6679:6683   */\n  0x32\n    /* \"#utility.yul\":6676:6677   */\n  0x04\n    /* \"#utility.yul\":6669:6684   */\n  mstore\n    /* \"#utility.yul\":6703:6707   */\n  0x24\n    /* \"#utility.yul\":6700:6701   */\n  0x00\n    /* \"#utility.yul\":6693:6708   */\n  revert\n    /* \"#utility.yul\":6720:6883   */\ntag_51:\n    /* \"#utility.yul\":6860:6875   */\n  0x696e76616c6964206f776e657200000000000000000000000000000000000000\n    /* \"#utility.yul\":6856:6857   */\n  0x00\n    /* \"#utility.yul\":6848:6854   */\n  dup3\n    /* \"#utility.yul\":6844:6858   */\n  add\n    /* \"#utility.yul\":6837:6876   */\n  mstore\n    /* \"#utility.yul\":6720:6883   */\n  pop\n  jump\t// out\n    /* \"#utility.yul\":6889:7255   */\ntag_52:\n    /* \"#utility.yul\":7031:7034   */\n  0x00\n    /* \"#utility.yul\":7052:7119   */\n  tag_123\n    /* \"#utility.yul\":7116:7118   */\n  0x0d\n    /* \"#utility.yul\":7111:7114   */\n  dup4\n    /* \"#utility.yul\":7052:7119   */\n  tag_46\n  jump\t// in\ntag_123:\n    /* \"#utility.yul\":7045:7119   */\n  swap2\n  pop\n    /* \"#utility.yul\":7128:7221   */\n  tag_124\n    /* \"#utility.yul\":7217:7220   */\n  dup3\n    /* \"#utility.yul\":7128:7221   */\n  tag_51\n  jump\t// in\ntag_124:\n    /* \"#utility.yul\":7246:7248   */\n  0x20\n    /* \"#utility.yul\":7241:7244   */\n  dup3\n    /* \"#utility.yul\":7237:7249   */\n  add\n    /* \"#utility.yul\":7230:7249   */\n  swap1\n  pop\n    /* \"#utility.yul\":6889:7255   */\n  swap2\n  swap1\n  pop\n  jump\t// out\n    /* \"#utility.yul\":7261:7680   */\ntag_21:\n    /* \"#utility.yul\":7427:7431   */\n  0x00\n    /* \"#utility.yul\":7465:7467   */\n  0x20\n    /* \"#utility.yul\":7454:7463   */\n  dup3\n    /* \"#utility.yul\":7450:7468   */\n  add\n    /* \"#utility.yul\":7442:7468   */\n  swap1\n  pop\n    /* \"#utility.yul\":7514:7523   */\n  dup2\n    /* \"#utility.yul\":7508:7512   */\n  dup2\n    /* \"#utility.yul\":7504:7524   */\n  sub\n    /* \"#utility.yul\":7500:7501   */\n  0x00\n    /* \"#utility.yul\":7489:7498   */\n  dup4\n    /* \"#utility.yul\":7485:7502   */\n  add\n    /* \"#utility.yul\":7478:7525   */\n  mstore\n    /* \"#utility.yul\":7542:7673   */\n  tag_126\n    /* \"#utility.yul\":7668:7672   */\n  dup2\n    /* \"#utility.yul\":7542:7673   */\n  tag_52\n  jump\t// in\ntag_126:\n    /* \"#utility.yul\":7534:7673   */\n  swap1\n  pop\n    /* \"#utility.yul\":7261:7680   */\n  swap2\n  swap1\n  pop\n  jump\t// out\n    /* \"#utility.yul\":7686:7849   */\ntag_53:\n    /* \"#utility.yul\":7826:7841   */\n  0x6f776e6572206578697374656400000000000000000000000000000000000000\n    /* \"#utility.yul\":7822:7823   */\n  0x00\n    /* \"#utility.yul\":7814:7820   */\n  dup3\n    /* \"#utility.yul\":7810:7824   */\n  add\n    /* \"#utility.yul\":7803:7842   */\n  mstore\n    /* \"#utility.yul\":7686:7849   */\n  pop\n  jump\t// out\n    /* \"#utility.yul\":7855:8221   */\ntag_54:\n    /* \"#utility.yul\":7997:8000   */\n  0x00\n    /* \"#utility.yul\":8018:8085   */\n  tag_129\n    /* \"#utility.yul\":8082:8084   */\n  0x0d\n    /* \"#utility.yul\":8077:8080   */\n  dup4\n    /* \"#utility.yul\":8018:8085   */\n  tag_46\n  jump\t// in\ntag_129:\n    /* \"#utility.yul\":8011:8085   */\n  swap2\n  pop\n    /* \"#utility.yul\":8094:8187   */\n  tag_130\n    /* \"#utility.yul\":8183:8186   */\n  dup3\n    /* \"#utility.yul\":8094:8187   */\n  tag_53\n  jump\t// in\ntag_130:\n    /* \"#utility.yul\":8212:8214   */\n  0x20\n    /* \"#utility.yul\":8207:8210   */\n  dup3\n    /* \"#utility.yul\":8203:8215   */\n  add\n    /* \"#utility.yul\":8196:8215   */\n  swap1\n  pop\n    /* \"#utility.yul\":7855:8221   */\n  swap2\n  swap1\n  pop\n  jump\t// out\n    /* \"#utility.yul\":8227:8646   */\ntag_24:\n    /* \"#utility.yul\":8393:8397   */\n  0x00\n    /* \"#utility.yul\":8431:8433   */\n  0x20\n    /* \"#utility.yul\":8420:8429   */\n  dup3\n    /* \"#utility.yul\":8416:8434   */\n  add\n    /* \"#utility.yul\":8408:8434   */\n  swap1\n  pop\n    /* \"#utility.yul\":8480:8489   */\n  dup2\n    /* \"#utility.yul\":8474:8478   */\n  dup2\n    /* \"#utility.yul\":8470:8490   */\n  sub\n    /* \"#utility.yul\":8466:8467   */\n  0x00\n    /* \"#utility.yul\":8455:8464   */\n  dup4\n    /* \"#utility.yul\":8451:8468   */\n  add\n    /* \"#utility.yul\":8444:8491   */\n  mstore\n    /* \"#utility.yul\":8508:8639   */\n  tag_132\n    /* \"#utility.yul\":8634:8638   */\n  dup2\n    /* \"#utility.yul\":8508:8639   */\n  tag_54\n  jump\t// in\ntag_132:\n    /* \"#utility.yul\":8500:8639   */\n  swap1\n  pop\n    /* \"#utility.yul\":8227:8646   */\n  swap2\n  swap1\n  pop\n  jump\t// out\n    /* \"customContracts/OwnerMultiSigWallet.sol\":124:7998  contract OwnerMultiSigWallet is EventDefine {... */\ntag_26:\n  dataSize(sub_0)\n  dup1\n  dataOffset(sub_0)\n  0x00\n  codecopy\n  0x00\n  return\nstop\n\nsub_0: assembly {\n        /* \"customContracts/OwnerMultiSigWallet.sol\":124:7998  contract OwnerMultiSigWallet is EventDefine {... */\n      mstore(0x40, 0x80)\n      jumpi(tag_1, lt(calldatasize, 0x04))\n      shr(0xe0, calldataload(0x00))\n      dup1\n      0x9ace38c2\n      gt\n      tag_21\n      jumpi\n      dup1\n      0xc105ea2b\n      gt\n      tag_22\n      jumpi\n      dup1\n      0xc105ea2b\n      eq\n      tag_16\n      jumpi\n      dup1\n      0xc6754505\n      eq\n      tag_17\n      jumpi\n      dup1\n      0xd0549b85\n      eq\n      tag_18\n      jumpi\n      dup1\n      0xe1e86ed6\n      eq\n      tag_19\n      jumpi\n      dup1\n      0xe7a4b23f\n      eq\n      tag_20\n      jumpi\n      jump(tag_2)\n    tag_22:\n      dup1\n      0x9ace38c2\n      eq\n      tag_12\n      jumpi\n      dup1\n      0xa0e67e2b\n      eq\n      tag_13\n      jumpi\n      dup1\n      0xa72df9b2\n      eq\n      tag_14\n      jumpi\n      dup1\n      0xc01a8c84\n      eq\n      tag_15\n      jumpi\n      jump(tag_2)\n    tag_21:\n      dup1\n      0x2f54bf6e\n      gt\n      tag_23\n      jumpi\n      dup1\n      0x2f54bf6e\n      eq\n      tag_7\n      jumpi\n      dup1\n      0x33ea3dc8\n      eq\n      tag_8\n      jumpi\n      dup1\n      0x385eccfc\n      eq\n      tag_9\n      jumpi\n      dup1\n      0x4e081dc4\n      eq\n      tag_10\n      jumpi\n      dup1\n      0x80f59a65\n      eq\n      tag_11\n      jumpi\n      jump(tag_2)\n    tag_23:\n      dup1\n      0x025e7c27\n      eq\n      tag_3\n      jumpi\n      dup1\n      0x20ea8d86\n      eq\n      tag_4\n      jumpi\n      dup1\n      0x29cbaa5c\n      eq\n      tag_5\n      jumpi\n      dup1\n      0x2e7700f0\n      eq\n      tag_6\n      jumpi\n      jump(tag_2)\n    tag_1:\n      jumpi(tag_2, calldatasize)\n        /* \"customContracts/OwnerMultiSigWallet.sol\":4148:4158  msg.sender */\n      caller\n        /* \"customContracts/OwnerMultiSigWallet.sol\":4140:4193  Deposit(msg.sender, msg.value, address(this).balance) */\n      0xffffffffffffffffffffffffffffffffffffffff\n      and\n      0x90890809c654f11d6e72a28fa60149770a0d11ec6c92319d6ceb2bb0a4ea1a15\n        /* \"customContracts/OwnerMultiSigWallet.sol\":4160:4169  msg.value */\n      callvalue\n        /* \"customContracts/OwnerMultiSigWallet.sol\":4171:4192  address(this).balance */\n      selfbalance\n        /* \"customContracts/OwnerMultiSigWallet.sol\":4140:4193  Deposit(msg.sender, msg.value, address(this).balance) */\n      mload(0x40)\n      tag_26\n      swap3\n      swap2\n      swap1\n      tag_27\n      jump\t// in\n    tag_26:\n      mload(0x40)\n      dup1\n      swap2\n      sub\n      swap1\n      log2\n        /* \"customContracts/OwnerMultiSigWallet.sol\":124:7998  contract OwnerMultiSigWallet is EventDefine {... */\n      stop\n    tag_2:\n      0x00\n      dup1\n      revert\n        /* \"customContracts/OwnerMultiSigWallet.sol\":547:570  address[] public owners */\n    tag_3:\n      callvalue\n      dup1\n      iszero\n      tag_28\n      jumpi\n      0x00\n      dup1\n      revert\n    tag_28:\n      pop\n      tag_29\n      0x04\n      dup1\n      calldatasize\n      sub\n      dup2\n      add\n      swap1\n      tag_30\n      swap2\n      swap1\n      tag_31\n      jump\t// in\n    tag_30:\n      tag_32\n      jump\t// in\n    tag_29:\n      mload(0x40)\n      tag_33\n      swap2\n      swap1\n      tag_34\n      jump\t// in\n    tag_33:\n      mload(0x40)\n      dup1\n      swap2\n      sub\n      swap1\n      return\n        /* \"customContracts/OwnerMultiSigWallet.sol\":4837:5238  function revokeConfirmation(uint _txIndex) public onlyOwner txExists(_txIndex) notExecuted(_txIndex) {... */\n    tag_4:\n      callvalue\n      dup1\n      iszero\n      tag_35\n      jumpi\n      0x00\n      dup1\n      revert\n    tag_35:\n      pop\n      tag_36\n      0x04\n      dup1\n      calldatasize\n      sub\n      dup2\n      add\n      swap1\n      tag_37\n      swap2\n      swap1\n      tag_31\n      jump\t// in\n    tag_37:\n      tag_38\n      jump\t// in\n    tag_36:\n      stop\n        /* \"customContracts/OwnerMultiSigWallet.sol\":6901:7086  function agreeReplaceNewOwner() public onlyOwner {... */\n    tag_5:\n      callvalue\n      dup1\n      iszero\n      tag_39\n      jumpi\n      0x00\n      dup1\n      revert\n    tag_39:\n      pop\n      tag_40\n      tag_41\n      jump\t// in\n    tag_40:\n      stop\n        /* \"customContracts/OwnerMultiSigWallet.sol\":5447:5550  function getTransactionCount() public view returns (uint) {... */\n    tag_6:\n      callvalue\n      dup1\n      iszero\n      tag_42\n      jumpi\n      0x00\n      dup1\n      revert\n    tag_42:\n      pop\n      tag_43\n      tag_44\n      jump\t// in\n    tag_43:\n      mload(0x40)\n      tag_45\n      swap2\n      swap1\n      tag_46\n      jump\t// in\n    tag_45:\n      mload(0x40)\n      dup1\n      swap2\n      sub\n      swap1\n      return\n        /* \"customContracts/OwnerMultiSigWallet.sol\":656:695  mapping(address => bool) public isOwner */\n    tag_7:\n      callvalue\n      dup1\n      iszero\n      tag_47\n      jumpi\n      0x00\n      dup1\n      revert\n    tag_47:\n      pop\n      tag_48\n      0x04\n      dup1\n      calldatasize\n      sub\n      dup2\n      add\n      swap1\n      tag_49\n      swap2\n      swap1\n      tag_50\n      jump\t// in\n    tag_49:\n      tag_51\n      jump\t// in\n    tag_48:\n      mload(0x40)\n      tag_52\n      swap2\n      swap1\n      tag_53\n      jump\t// in\n    tag_52:\n      mload(0x40)\n      dup1\n      swap2\n      sub\n      swap1\n      return\n        /* \"customContracts/OwnerMultiSigWallet.sol\":5652:6193  function getTransaction(uint _txIndex) public view returns (... */\n    tag_8:\n      callvalue\n      dup1\n      iszero\n      tag_54\n      jumpi\n      0x00\n      dup1\n      revert\n    tag_54:\n      pop\n      tag_55\n      0x04\n      dup1\n      calldatasize\n      sub\n      dup2\n      add\n      swap1\n      tag_56\n      swap2\n      swap1\n      tag_31\n      jump\t// in\n    tag_56:\n      tag_57\n      jump\t// in\n    tag_55:\n      mload(0x40)\n      tag_58\n      swap6\n      swap5\n      swap4\n      swap3\n      swap2\n      swap1\n      tag_59\n      jump\t// in\n    tag_58:\n      mload(0x40)\n      dup1\n      swap2\n      sub\n      swap1\n      return\n        /* \"customContracts/OwnerMultiSigWallet.sol\":7153:7348  function resetReplaceVote() public onlyOwner {... */\n    tag_9:\n      callvalue\n      dup1\n      iszero\n      tag_60\n      jumpi\n      0x00\n      dup1\n      revert\n    tag_60:\n      pop\n      tag_61\n      tag_62\n      jump\t// in\n    tag_61:\n      stop\n        /* \"customContracts/OwnerMultiSigWallet.sol\":6437:6798  function inputCandidateOwner(address _newOwner, address _replaceeOwner) public onlyOwner {... */\n    tag_10:\n      callvalue\n      dup1\n      iszero\n      tag_63\n      jumpi\n      0x00\n      dup1\n      revert\n    tag_63:\n      pop\n      tag_64\n      0x04\n      dup1\n      calldatasize\n      sub\n      dup2\n      add\n      swap1\n      tag_65\n      swap2\n      swap1\n      tag_66\n      jump\t// in\n    tag_65:\n      tag_67\n      jump\t// in\n    tag_64:\n      stop\n        /* \"customContracts/OwnerMultiSigWallet.sol\":1265:1323  mapping(uint => mapping(address=>bool)) public isConfirmed */\n    tag_11:\n      callvalue\n      dup1\n      iszero\n      tag_68\n      jumpi\n      0x00\n      dup1\n      revert\n    tag_68:\n      pop\n      tag_69\n      0x04\n      dup1\n      calldatasize\n      sub\n      dup2\n      add\n      swap1\n      tag_70\n      swap2\n      swap1\n      tag_71\n      jump\t// in\n    tag_70:\n      tag_72\n      jump\t// in\n    tag_69:\n      mload(0x40)\n      tag_73\n      swap2\n      swap1\n      tag_53\n      jump\t// in\n    tag_73:\n      mload(0x40)\n      dup1\n      swap2\n      sub\n      swap1\n      return\n        /* \"customContracts/OwnerMultiSigWallet.sol\":1332:1365  Transaction[] public transactions */\n    tag_12:\n      callvalue\n      dup1\n      iszero\n      tag_74\n      jumpi\n      0x00\n      dup1\n      revert\n    tag_74:\n      pop\n      tag_75\n      0x04\n      dup1\n      calldatasize\n      sub\n      dup2\n      add\n      swap1\n      tag_76\n      swap2\n      swap1\n      tag_31\n      jump\t// in\n    tag_76:\n      tag_77\n      jump\t// in\n    tag_75:\n      mload(0x40)\n      tag_78\n      swap7\n      swap6\n      swap5\n      swap4\n      swap3\n      swap2\n      swap1\n      tag_79\n      jump\t// in\n    tag_78:\n      mload(0x40)\n      dup1\n      swap2\n      sub\n      swap1\n      return\n        /* \"customContracts/OwnerMultiSigWallet.sol\":5299:5390  function getOwners() public view returns(address[] memory) {... */\n    tag_13:\n      callvalue\n      dup1\n      iszero\n      tag_80\n      jumpi\n      0x00\n      dup1\n      revert\n    tag_80:\n      pop\n      tag_81\n      tag_82\n      jump\t// in\n    tag_81:\n      mload(0x40)\n      tag_83\n      swap2\n      swap1\n      tag_84\n      jump\t// in\n    tag_83:\n      mload(0x40)\n      dup1\n      swap2\n      sub\n      swap1\n      return\n        /* \"customContracts/OwnerMultiSigWallet.sol\":1667:1698  uint8 public agreeTicketNum = 0 */\n    tag_14:\n      callvalue\n      dup1\n      iszero\n      tag_85\n      jumpi\n      0x00\n      dup1\n      revert\n    tag_85:\n      pop\n      tag_86\n      tag_87\n      jump\t// in\n    tag_86:\n      mload(0x40)\n      tag_88\n      swap2\n      swap1\n      tag_89\n      jump\t// in\n    tag_88:\n      mload(0x40)\n      dup1\n      swap2\n      sub\n      swap1\n      return\n        /* \"customContracts/OwnerMultiSigWallet.sol\":4361:4711  function confirmTransaction(uint _txIndex) public onlyOwner txExists(_txIndex) notExecuted(_txIndex) notConfirmed(_txIndex) {... */\n    tag_15:\n      callvalue\n      dup1\n      iszero\n      tag_90\n      jumpi\n      0x00\n      dup1\n      revert\n    tag_90:\n      pop\n      tag_91\n      0x04\n      dup1\n      calldatasize\n      sub\n      dup2\n      add\n      swap1\n      tag_92\n      swap2\n      swap1\n      tag_31\n      jump\t// in\n    tag_92:\n      tag_93\n      jump\t// in\n    tag_91:\n      stop\n        /* \"customContracts/OwnerMultiSigWallet.sol\":1442:1471  address public candidateOwner */\n    tag_16:\n      callvalue\n      dup1\n      iszero\n      tag_94\n      jumpi\n      0x00\n      dup1\n      revert\n    tag_94:\n      pop\n      tag_95\n      tag_96\n      jump\t// in\n    tag_95:\n      mload(0x40)\n      tag_97\n      swap2\n      swap1\n      tag_34\n      jump\t// in\n    tag_97:\n      mload(0x40)\n      dup1\n      swap2\n      sub\n      swap1\n      return\n        /* \"customContracts/OwnerMultiSigWallet.sol\":1523:1551  address public replaceeOwner */\n    tag_17:\n      callvalue\n      dup1\n      iszero\n      tag_98\n      jumpi\n      0x00\n      dup1\n      revert\n    tag_98:\n      pop\n      tag_99\n      tag_100\n      jump\t// in\n    tag_99:\n      mload(0x40)\n      tag_101\n      swap2\n      swap1\n      tag_34\n      jump\t// in\n    tag_101:\n      mload(0x40)\n      dup1\n      swap2\n      sub\n      swap1\n      return\n        /* \"customContracts/OwnerMultiSigWallet.sol\":795:831  uint public numConfirmationsRequired */\n    tag_18:\n      callvalue\n      dup1\n      iszero\n      tag_102\n      jumpi\n      0x00\n      dup1\n      revert\n    tag_102:\n      pop\n      tag_103\n      tag_104\n      jump\t// in\n    tag_103:\n      mload(0x40)\n      tag_105\n      swap2\n      swap1\n      tag_46\n      jump\t// in\n    tag_105:\n      mload(0x40)\n      dup1\n      swap2\n      sub\n      swap1\n      return\n        /* \"customContracts/OwnerMultiSigWallet.sol\":7425:7993  function invokeCandidateOwner() public onlyOwner {... */\n    tag_19:\n      callvalue\n      dup1\n      iszero\n      tag_106\n      jumpi\n      0x00\n      dup1\n      revert\n    tag_106:\n      pop\n      tag_107\n      tag_108\n      jump\t// in\n    tag_107:\n      stop\n        /* \"customContracts/OwnerMultiSigWallet.sol\":1611:1660  mapping(address => bool) public aggressReplaceMap */\n    tag_20:\n      callvalue\n      dup1\n      iszero\n      tag_109\n      jumpi\n      0x00\n      dup1\n      revert\n    tag_109:\n      pop\n      tag_110\n      0x04\n      dup1\n      calldatasize\n      sub\n      dup2\n      add\n      swap1\n      tag_111\n      swap2\n      swap1\n      tag_50\n      jump\t// in\n    tag_111:\n      tag_112\n      jump\t// in\n    tag_110:\n      mload(0x40)\n      tag_113\n      swap2\n      swap1\n      tag_53\n      jump\t// in\n    tag_113:\n      mload(0x40)\n      dup1\n      swap2\n      sub\n      swap1\n      return\n        /* \"customContracts/OwnerMultiSigWallet.sol\":547:570  address[] public owners */\n    tag_32:\n      0x00\n      dup2\n      dup2\n      sload\n      dup2\n      lt\n      tag_114\n      jumpi\n      0x00\n      dup1\n      revert\n    tag_114:\n      swap1\n      0x00\n      mstore\n      keccak256(0x00, 0x20)\n      add\n      0x00\n      swap2\n      pop\n      sload\n      swap1\n      0x0100\n      exp\n      swap1\n      div\n      0xffffffffffffffffffffffffffffffffffffffff\n      and\n      dup2\n      jump\t// out\n        /* \"customContracts/OwnerMultiSigWallet.sol\":4837:5238  function revokeConfirmation(uint _txIndex) public onlyOwner txExists(_txIndex) notExecuted(_txIndex) {... */\n    tag_38:\n        /* \"customContracts/OwnerMultiSigWallet.sol\":2118:2125  isOwner */\n      0x01\n        /* \"customContracts/OwnerMultiSigWallet.sol\":2118:2137  isOwner[msg.sender] */\n      0x00\n        /* \"customContracts/OwnerMultiSigWallet.sol\":2126:2136  msg.sender */\n      caller\n        /* \"customContracts/OwnerMultiSigWallet.sol\":2118:2137  isOwner[msg.sender] */\n      0xffffffffffffffffffffffffffffffffffffffff\n      and\n      0xffffffffffffffffffffffffffffffffffffffff\n      and\n      dup2\n      mstore\n      0x20\n      add\n      swap1\n      dup2\n      mstore\n      0x20\n      add\n      0x00\n      keccak256\n      0x00\n      swap1\n      sload\n      swap1\n      0x0100\n      exp\n      swap1\n      div\n      0xff\n      and\n        /* \"customContracts/OwnerMultiSigWallet.sol\":2110:2151  require(isOwner[msg.sender], \"not owner\") */\n      tag_117\n      jumpi\n      mload(0x40)\n      0x08c379a000000000000000000000000000000000000000000000000000000000\n      dup2\n      mstore\n      0x04\n      add\n      tag_118\n      swap1\n      tag_119\n      jump\t// in\n    tag_118:\n      mload(0x40)\n      dup1\n      swap2\n      sub\n      swap1\n      revert\n    tag_117:\n        /* \"customContracts/OwnerMultiSigWallet.sol\":4906:4914  _txIndex */\n      dup1\n        /* \"customContracts/OwnerMultiSigWallet.sol\":2326:2338  transactions */\n      0x04\n        /* \"customContracts/OwnerMultiSigWallet.sol\":2326:2345  transactions.length */\n      dup1\n      sload\n      swap1\n      pop\n        /* \"customContracts/OwnerMultiSigWallet.sol\":2315:2323  _txIndex */\n      dup2\n        /* \"customContracts/OwnerMultiSigWallet.sol\":2315:2345  _txIndex < transactions.length */\n      lt\n        /* \"customContracts/OwnerMultiSigWallet.sol\":2307:2367  require(_txIndex < transactions.length, \"tx does not exist\") */\n      tag_121\n      jumpi\n      mload(0x40)\n      0x08c379a000000000000000000000000000000000000000000000000000000000\n      dup2\n      mstore\n      0x04\n      add\n      tag_122\n      swap1\n      tag_123\n      jump\t// in\n    tag_122:\n      mload(0x40)\n      dup1\n      swap2\n      sub\n      swap1\n      revert\n    tag_121:\n        /* \"customContracts/OwnerMultiSigWallet.sol\":4928:4936  _txIndex */\n      dup2\n        /* \"customContracts/OwnerMultiSigWallet.sol\":2543:2555  transactions */\n      0x04\n        /* \"customContracts/OwnerMultiSigWallet.sol\":2556:2564  _txIndex */\n      dup2\n        /* \"customContracts/OwnerMultiSigWallet.sol\":2543:2565  transactions[_txIndex] */\n      dup2\n      sload\n      dup2\n      lt\n      tag_125\n      jumpi\n      tag_126\n      tag_127\n      jump\t// in\n    tag_126:\n    tag_125:\n      swap1\n      0x00\n      mstore\n      keccak256(0x00, 0x20)\n      swap1\n      0x06\n      mul\n      add\n        /* \"customContracts/OwnerMultiSigWallet.sol\":2543:2574  transactions[_txIndex].executed */\n      0x03\n      add\n      0x00\n      swap1\n      sload\n      swap1\n      0x0100\n      exp\n      swap1\n      div\n      0xff\n      and\n        /* \"customContracts/OwnerMultiSigWallet.sol\":2542:2574  !transactions[_txIndex].executed */\n      iszero\n        /* \"customContracts/OwnerMultiSigWallet.sol\":2534:2598  require(!transactions[_txIndex].executed, \"tx already executed\") */\n      tag_129\n      jumpi\n      mload(0x40)\n      0x08c379a000000000000000000000000000000000000000000000000000000000\n      dup2\n      mstore\n      0x04\n      add\n      tag_130\n      swap1\n      tag_131\n      jump\t// in\n    tag_130:\n      mload(0x40)\n      dup1\n      swap2\n      sub\n      swap1\n      revert\n    tag_129:\n        /* \"customContracts/OwnerMultiSigWallet.sol\":4949:4980  Transaction storage transaction */\n      0x00\n        /* \"customContracts/OwnerMultiSigWallet.sol\":4983:4995  transactions */\n      0x04\n        /* \"customContracts/OwnerMultiSigWallet.sol\":4996:5004  _txIndex */\n      dup5\n        /* \"customContracts/OwnerMultiSigWallet.sol\":4983:5005  transactions[_txIndex] */\n      dup2\n      sload\n      dup2\n      lt\n      tag_133\n      jumpi\n      tag_134\n      tag_127\n      jump\t// in\n    tag_134:\n    tag_133:\n      swap1\n      0x00\n      mstore\n      keccak256(0x00, 0x20)\n      swap1\n      0x06\n      mul\n      add\n        /* \"customContracts/OwnerMultiSigWallet.sol\":4949:5005  Transaction storage transaction = transactions[_txIndex] */\n      swap1\n      pop\n        /* \"customContracts/OwnerMultiSigWallet.sol\":5024:5035  isConfirmed */\n      0x03\n        /* \"customContracts/OwnerMultiSigWallet.sol\":5024:5045  isConfirmed[_txIndex] */\n      0x00\n        /* \"customContracts/OwnerMultiSigWallet.sol\":5036:5044  _txIndex */\n      dup6\n        /* \"customContracts/OwnerMultiSigWallet.sol\":5024:5045  isConfirmed[_txIndex] */\n      dup2\n      mstore\n      0x20\n      add\n      swap1\n      dup2\n      mstore\n      0x20\n      add\n      0x00\n      keccak256\n        /* \"customContracts/OwnerMultiSigWallet.sol\":5024:5057  isConfirmed[_txIndex][msg.sender] */\n      0x00\n        /* \"customContracts/OwnerMultiSigWallet.sol\":5046:5056  msg.sender */\n      caller\n        /* \"customContracts/OwnerMultiSigWallet.sol\":5024:5057  isConfirmed[_txIndex][msg.sender] */\n      0xffffffffffffffffffffffffffffffffffffffff\n      and\n      0xffffffffffffffffffffffffffffffffffffffff\n      and\n      dup2\n      mstore\n      0x20\n      add\n      swap1\n      dup2\n      mstore\n      0x20\n      add\n      0x00\n      keccak256\n      0x00\n      swap1\n      sload\n      swap1\n      0x0100\n      exp\n      swap1\n      div\n      0xff\n      and\n        /* \"customContracts/OwnerMultiSigWallet.sol\":5016:5078  require(isConfirmed[_txIndex][msg.sender], \"tx not confirmed\") */\n      tag_136\n      jumpi\n      mload(0x40)\n      0x08c379a000000000000000000000000000000000000000000000000000000000\n      dup2\n      mstore\n      0x04\n      add\n      tag_137\n      swap1\n      tag_138\n      jump\t// in\n    tag_137:\n      mload(0x40)\n      dup1\n      swap2\n      sub\n      swap1\n      revert\n    tag_136:\n        /* \"customContracts/OwnerMultiSigWallet.sol\":5121:5122  1 */\n      0x01\n        /* \"customContracts/OwnerMultiSigWallet.sol\":5089:5100  transaction */\n      dup2\n        /* \"customContracts/OwnerMultiSigWallet.sol\":5089:5117  transaction.numConfirmations */\n      0x04\n      add\n      0x00\n        /* \"customContracts/OwnerMultiSigWallet.sol\":5089:5122  transaction.numConfirmations -= 1 */\n      dup3\n      dup3\n      sload\n      tag_139\n      swap2\n      swap1\n      tag_140\n      jump\t// in\n    tag_139:\n      swap3\n      pop\n      pop\n      dup2\n      swap1\n      sstore\n      pop\n        /* \"customContracts/OwnerMultiSigWallet.sol\":5169:5174  false */\n      0x00\n        /* \"customContracts/OwnerMultiSigWallet.sol\":5133:5144  isConfirmed */\n      0x03\n        /* \"customContracts/OwnerMultiSigWallet.sol\":5133:5154  isConfirmed[_txIndex] */\n      0x00\n        /* \"customContracts/OwnerMultiSigWallet.sol\":5145:5153  _txIndex */\n      dup7\n        /* \"customContracts/OwnerMultiSigWallet.sol\":5133:5154  isConfirmed[_txIndex] */\n      dup2\n      mstore\n      0x20\n      add\n      swap1\n      dup2\n      mstore\n      0x20\n      add\n      0x00\n      keccak256\n        /* \"customContracts/OwnerMultiSigWallet.sol\":5133:5166  isConfirmed[_txIndex][msg.sender] */\n      0x00\n        /* \"customContracts/OwnerMultiSigWallet.sol\":5155:5165  msg.sender */\n      caller\n        /* \"customContracts/OwnerMultiSigWallet.sol\":5133:5166  isConfirmed[_txIndex][msg.sender] */\n      0xffffffffffffffffffffffffffffffffffffffff\n      and\n      0xffffffffffffffffffffffffffffffffffffffff\n      and\n      dup2\n      mstore\n      0x20\n      add\n      swap1\n      dup2\n      mstore\n      0x20\n      add\n      0x00\n      keccak256\n      0x00\n        /* \"customContracts/OwnerMultiSigWallet.sol\":5133:5174  isConfirmed[_txIndex][msg.sender] = false */\n      0x0100\n      exp\n      dup2\n      sload\n      dup2\n      0xff\n      mul\n      not\n      and\n      swap1\n      dup4\n      iszero\n      iszero\n      mul\n      or\n      swap1\n      sstore\n      pop\n        /* \"customContracts/OwnerMultiSigWallet.sol\":5221:5229  _txIndex */\n      dup4\n        /* \"customContracts/OwnerMultiSigWallet.sol\":5209:5219  msg.sender */\n      caller\n        /* \"customContracts/OwnerMultiSigWallet.sol\":5190:5230  RevokeConfirmation(msg.sender, _txIndex) */\n      0xffffffffffffffffffffffffffffffffffffffff\n      and\n      0xf0dca620e2e81f7841d07bcc105e1704fb01475b278a9d4c236e1c62945edd55\n      mload(0x40)\n      mload(0x40)\n      dup1\n      swap2\n      sub\n      swap1\n      log3\n        /* \"customContracts/OwnerMultiSigWallet.sol\":4938:5238  {... */\n      pop\n        /* \"customContracts/OwnerMultiSigWallet.sol\":2378:2379  _ */\n      pop\n        /* \"customContracts/OwnerMultiSigWallet.sol\":2162:2163  _ */\n      pop\n        /* \"customContracts/OwnerMultiSigWallet.sol\":4837:5238  function revokeConfirmation(uint _txIndex) public onlyOwner txExists(_txIndex) notExecuted(_txIndex) {... */\n      pop\n      jump\t// out\n        /* \"customContracts/OwnerMultiSigWallet.sol\":6901:7086  function agreeReplaceNewOwner() public onlyOwner {... */\n    tag_41:\n        /* \"customContracts/OwnerMultiSigWallet.sol\":2118:2125  isOwner */\n      0x01\n        /* \"customContracts/OwnerMultiSigWallet.sol\":2118:2137  isOwner[msg.sender] */\n      0x00\n        /* \"customContracts/OwnerMultiSigWallet.sol\":2126:2136  msg.sender */\n      caller\n        /* \"customContracts/OwnerMultiSigWallet.sol\":2118:2137  isOwner[msg.sender] */\n      0xffffffffffffffffffffffffffffffffffffffff\n      and\n      0xffffffffffffffffffffffffffffffffffffffff\n      and\n      dup2\n      mstore\n      0x20\n      add\n      swap1\n      dup2\n      mstore\n      0x20\n      add\n      0x00\n      keccak256\n      0x00\n      swap1\n      sload\n      swap1\n      0x0100\n      exp\n      swap1\n      div\n      0xff\n      and\n        /* \"customContracts/OwnerMultiSigWallet.sol\":2110:2151  require(isOwner[msg.sender], \"not owner\") */\n      tag_142\n      jumpi\n      mload(0x40)\n      0x08c379a000000000000000000000000000000000000000000000000000000000\n      dup2\n      mstore\n      0x04\n      add\n      tag_143\n      swap1\n      tag_119\n      jump\t// in\n    tag_143:\n      mload(0x40)\n      dup1\n      swap2\n      sub\n      swap1\n      revert\n    tag_142:\n        /* \"customContracts/OwnerMultiSigWallet.sol\":6970:6987  aggressReplaceMap */\n      0x07\n        /* \"customContracts/OwnerMultiSigWallet.sol\":6970:6999  aggressReplaceMap[msg.sender] */\n      0x00\n        /* \"customContracts/OwnerMultiSigWallet.sol\":6988:6998  msg.sender */\n      caller\n        /* \"customContracts/OwnerMultiSigWallet.sol\":6970:6999  aggressReplaceMap[msg.sender] */\n      0xffffffffffffffffffffffffffffffffffffffff\n      and\n      0xffffffffffffffffffffffffffffffffffffffff\n      and\n      dup2\n      mstore\n      0x20\n      add\n      swap1\n      dup2\n      mstore\n      0x20\n      add\n      0x00\n      keccak256\n      0x00\n      swap1\n      sload\n      swap1\n      0x0100\n      exp\n      swap1\n      div\n      0xff\n      and\n        /* \"customContracts/OwnerMultiSigWallet.sol\":6969:6999  !aggressReplaceMap[msg.sender] */\n      iszero\n        /* \"customContracts/OwnerMultiSigWallet.sol\":6961:7004  require(!aggressReplaceMap[msg.sender], \"\") */\n      tag_145\n      jumpi\n      mload(0x40)\n      0x08c379a000000000000000000000000000000000000000000000000000000000\n      dup2\n      mstore\n      0x04\n      add\n      tag_146\n      swap1\n      tag_147\n      jump\t// in\n    tag_146:\n      mload(0x40)\n      dup1\n      swap2\n      sub\n      swap1\n      revert\n    tag_145:\n        /* \"customContracts/OwnerMultiSigWallet.sol\":7047:7051  true */\n      0x01\n        /* \"customContracts/OwnerMultiSigWallet.sol\":7015:7032  aggressReplaceMap */\n      0x07\n        /* \"customContracts/OwnerMultiSigWallet.sol\":7015:7044  aggressReplaceMap[msg.sender] */\n      0x00\n        /* \"customContracts/OwnerMultiSigWallet.sol\":7033:7043  msg.sender */\n      caller\n        /* \"customContracts/OwnerMultiSigWallet.sol\":7015:7044  aggressReplaceMap[msg.sender] */\n      0xffffffffffffffffffffffffffffffffffffffff\n      and\n      0xffffffffffffffffffffffffffffffffffffffff\n      and\n      dup2\n      mstore\n      0x20\n      add\n      swap1\n      dup2\n      mstore\n      0x20\n      add\n      0x00\n      keccak256\n      0x00\n        /* \"customContracts/OwnerMultiSigWallet.sol\":7015:7051  aggressReplaceMap[msg.sender] = true */\n      0x0100\n      exp\n      dup2\n      sload\n      dup2\n      0xff\n      mul\n      not\n      and\n      swap1\n      dup4\n      iszero\n      iszero\n      mul\n      or\n      swap1\n      sstore\n      pop\n        /* \"customContracts/OwnerMultiSigWallet.sol\":7062:7076  agreeTicketNum */\n      0x08\n      0x00\n        /* \"customContracts/OwnerMultiSigWallet.sol\":7062:7078  agreeTicketNum++ */\n      dup2\n      dup2\n      swap1\n      sload\n      swap1\n      0x0100\n      exp\n      swap1\n      div\n      0xff\n      and\n      dup1\n      swap3\n      swap2\n      swap1\n      tag_148\n      swap1\n      tag_149\n      jump\t// in\n    tag_148:\n      swap2\n      swap1\n      0x0100\n      exp\n      dup2\n      sload\n      dup2\n      0xff\n      mul\n      not\n      and\n      swap1\n      dup4\n      0xff\n      and\n      mul\n      or\n      swap1\n      sstore\n      pop\n      pop\n        /* \"customContracts/OwnerMultiSigWallet.sol\":6901:7086  function agreeReplaceNewOwner() public onlyOwner {... */\n      jump\t// out\n        /* \"customContracts/OwnerMultiSigWallet.sol\":5447:5550  function getTransactionCount() public view returns (uint) {... */\n    tag_44:\n        /* \"customContracts/OwnerMultiSigWallet.sol\":5499:5503  uint */\n      0x00\n        /* \"customContracts/OwnerMultiSigWallet.sol\":5523:5535  transactions */\n      0x04\n        /* \"customContracts/OwnerMultiSigWallet.sol\":5523:5542  transactions.length */\n      dup1\n      sload\n      swap1\n      pop\n        /* \"customContracts/OwnerMultiSigWallet.sol\":5516:5542  return transactions.length */\n      swap1\n      pop\n        /* \"customContracts/OwnerMultiSigWallet.sol\":5447:5550  function getTransactionCount() public view returns (uint) {... */\n      swap1\n      jump\t// out\n        /* \"customContracts/OwnerMultiSigWallet.sol\":656:695  mapping(address => bool) public isOwner */\n    tag_51:\n      mstore(0x20, 0x01)\n      dup1\n      0x00\n      mstore\n      keccak256(0x00, 0x40)\n      0x00\n      swap2\n      pop\n      sload\n      swap1\n      0x0100\n      exp\n      swap1\n      div\n      0xff\n      and\n      dup2\n      jump\t// out\n        /* \"customContracts/OwnerMultiSigWallet.sol\":5652:6193  function getTransaction(uint _txIndex) public view returns (... */\n    tag_57:\n        /* \"customContracts/OwnerMultiSigWallet.sol\":5722:5732  address to */\n      0x00\n        /* \"customContracts/OwnerMultiSigWallet.sol\":5743:5753  uint value */\n      dup1\n        /* \"customContracts/OwnerMultiSigWallet.sol\":5764:5781  bytes memory data */\n      0x60\n        /* \"customContracts/OwnerMultiSigWallet.sol\":5792:5805  bool executed */\n      0x00\n        /* \"customContracts/OwnerMultiSigWallet.sol\":5816:5837  uint numConfirmations */\n      dup1\n        /* \"customContracts/OwnerMultiSigWallet.sol\":5875:5887  transactions */\n      0x04\n        /* \"customContracts/OwnerMultiSigWallet.sol\":5875:5894  transactions.length */\n      dup1\n      sload\n      swap1\n      pop\n        /* \"customContracts/OwnerMultiSigWallet.sol\":5864:5872  _txIndex */\n      dup7\n        /* \"customContracts/OwnerMultiSigWallet.sol\":5864:5894  _txIndex < transactions.length */\n      lt\n        /* \"customContracts/OwnerMultiSigWallet.sol\":5856:5917  require(_txIndex < transactions.length, \"index out of bound\") */\n      tag_152\n      jumpi\n      mload(0x40)\n      0x08c379a000000000000000000000000000000000000000000000000000000000\n      dup2\n      mstore\n      0x04\n      add\n      tag_153\n      swap1\n      tag_154\n      jump\t// in\n    tag_153:\n      mload(0x40)\n      dup1\n      swap2\n      sub\n      swap1\n      revert\n    tag_152:\n        /* \"customContracts/OwnerMultiSigWallet.sol\":5928:5959  Transaction storage transaction */\n      0x00\n        /* \"customContracts/OwnerMultiSigWallet.sol\":5962:5974  transactions */\n      0x04\n        /* \"customContracts/OwnerMultiSigWallet.sol\":5975:5983  _txIndex */\n      dup8\n        /* \"customContracts/OwnerMultiSigWallet.sol\":5962:5984  transactions[_txIndex] */\n      dup2\n      sload\n      dup2\n      lt\n      tag_155\n      jumpi\n      tag_156\n      tag_127\n      jump\t// in\n    tag_156:\n    tag_155:\n      swap1\n      0x00\n      mstore\n      keccak256(0x00, 0x20)\n      swap1\n      0x06\n      mul\n      add\n        /* \"customContracts/OwnerMultiSigWallet.sol\":5928:5984  Transaction storage transaction = transactions[_txIndex] */\n      swap1\n      pop\n        /* \"customContracts/OwnerMultiSigWallet.sol\":6017:6028  transaction */\n      dup1\n        /* \"customContracts/OwnerMultiSigWallet.sol\":6017:6031  transaction.to */\n      0x00\n      add\n      0x00\n      swap1\n      sload\n      swap1\n      0x0100\n      exp\n      swap1\n      div\n      0xffffffffffffffffffffffffffffffffffffffff\n      and\n        /* \"customContracts/OwnerMultiSigWallet.sol\":6046:6057  transaction */\n      dup2\n        /* \"customContracts/OwnerMultiSigWallet.sol\":6046:6063  transaction.value */\n      0x01\n      add\n      sload\n        /* \"customContracts/OwnerMultiSigWallet.sol\":6078:6089  transaction */\n      dup3\n        /* \"customContracts/OwnerMultiSigWallet.sol\":6078:6094  transaction.data */\n      0x02\n      add\n        /* \"customContracts/OwnerMultiSigWallet.sol\":6109:6120  transaction */\n      dup4\n        /* \"customContracts/OwnerMultiSigWallet.sol\":6109:6129  transaction.executed */\n      0x03\n      add\n      0x00\n      swap1\n      sload\n      swap1\n      0x0100\n      exp\n      swap1\n      div\n      0xff\n      and\n        /* \"customContracts/OwnerMultiSigWallet.sol\":6144:6155  transaction */\n      dup5\n        /* \"customContracts/OwnerMultiSigWallet.sol\":6144:6172  transaction.numConfirmations */\n      0x04\n      add\n      sload\n        /* \"customContracts/OwnerMultiSigWallet.sol\":5995:6183  return (... */\n      dup3\n      dup1\n      sload\n      tag_158\n      swap1\n      tag_159\n      jump\t// in\n    tag_158:\n      dup1\n      0x1f\n      add\n      0x20\n      dup1\n      swap2\n      div\n      mul\n      0x20\n      add\n      mload(0x40)\n      swap1\n      dup2\n      add\n      0x40\n      mstore\n      dup1\n      swap3\n      swap2\n      swap1\n      dup2\n      dup2\n      mstore\n      0x20\n      add\n      dup3\n      dup1\n      sload\n      tag_160\n      swap1\n      tag_159\n      jump\t// in\n    tag_160:\n      dup1\n      iszero\n      tag_161\n      jumpi\n      dup1\n      0x1f\n      lt\n      tag_162\n      jumpi\n      0x0100\n      dup1\n      dup4\n      sload\n      div\n      mul\n      dup4\n      mstore\n      swap2\n      0x20\n      add\n      swap2\n      jump(tag_161)\n    tag_162:\n      dup3\n      add\n      swap2\n      swap1\n      0x00\n      mstore\n      keccak256(0x00, 0x20)\n      swap1\n    tag_163:\n      dup2\n      sload\n      dup2\n      mstore\n      swap1\n      0x01\n      add\n      swap1\n      0x20\n      add\n      dup1\n      dup4\n      gt\n      tag_163\n      jumpi\n      dup3\n      swap1\n      sub\n      0x1f\n      and\n      dup3\n      add\n      swap2\n    tag_161:\n      pop\n      pop\n      pop\n      pop\n      pop\n      swap3\n      pop\n      swap6\n      pop\n      swap6\n      pop\n      swap6\n      pop\n      swap6\n      pop\n      swap6\n      pop\n      pop\n        /* \"customContracts/OwnerMultiSigWallet.sol\":5652:6193  function getTransaction(uint _txIndex) public view returns (... */\n      swap2\n      swap4\n      swap6\n      swap1\n      swap3\n      swap5\n      pop\n      jump\t// out\n        /* \"customContracts/OwnerMultiSigWallet.sol\":7153:7348  function resetReplaceVote() public onlyOwner {... */\n    tag_62:\n        /* \"customContracts/OwnerMultiSigWallet.sol\":2118:2125  isOwner */\n      0x01\n        /* \"customContracts/OwnerMultiSigWallet.sol\":2118:2137  isOwner[msg.sender] */\n      0x00\n        /* \"customContracts/OwnerMultiSigWallet.sol\":2126:2136  msg.sender */\n      caller\n        /* \"customContracts/OwnerMultiSigWallet.sol\":2118:2137  isOwner[msg.sender] */\n      0xffffffffffffffffffffffffffffffffffffffff\n      and\n      0xffffffffffffffffffffffffffffffffffffffff\n      and\n      dup2\n      mstore\n      0x20\n      add\n      swap1\n      dup2\n      mstore\n      0x20\n      add\n      0x00\n      keccak256\n      0x00\n      swap1\n      sload\n      swap1\n      0x0100\n      exp\n      swap1\n      div\n      0xff\n      and\n        /* \"customContracts/OwnerMultiSigWallet.sol\":2110:2151  require(isOwner[msg.sender], \"not owner\") */\n      tag_165\n      jumpi\n      mload(0x40)\n      0x08c379a000000000000000000000000000000000000000000000000000000000\n      dup2\n      mstore\n      0x04\n      add\n      tag_166\n      swap1\n      tag_119\n      jump\t// in\n    tag_166:\n      mload(0x40)\n      dup1\n      swap2\n      sub\n      swap1\n      revert\n    tag_165:\n        /* \"customContracts/OwnerMultiSigWallet.sol\":7225:7226  0 */\n      0x00\n        /* \"customContracts/OwnerMultiSigWallet.sol\":7208:7222  agreeTicketNum */\n      0x08\n      0x00\n        /* \"customContracts/OwnerMultiSigWallet.sol\":7208:7226  agreeTicketNum = 0 */\n      0x0100\n      exp\n      dup2\n      sload\n      dup2\n      0xff\n      mul\n      not\n      and\n      swap1\n      dup4\n      0xff\n      and\n      mul\n      or\n      swap1\n      sstore\n      pop\n        /* \"customContracts/OwnerMultiSigWallet.sol\":7242:7248  uint i */\n      0x00\n        /* \"customContracts/OwnerMultiSigWallet.sol\":7237:7341  for (uint i = 0; i < owners.length; i++) {... */\n    tag_168:\n        /* \"customContracts/OwnerMultiSigWallet.sol\":7258:7264  owners */\n      0x00\n        /* \"customContracts/OwnerMultiSigWallet.sol\":7258:7271  owners.length */\n      dup1\n      sload\n      swap1\n      pop\n        /* \"customContracts/OwnerMultiSigWallet.sol\":7254:7255  i */\n      dup2\n        /* \"customContracts/OwnerMultiSigWallet.sol\":7254:7271  i < owners.length */\n      lt\n        /* \"customContracts/OwnerMultiSigWallet.sol\":7237:7341  for (uint i = 0; i < owners.length; i++) {... */\n      iszero\n      tag_169\n      jumpi\n        /* \"customContracts/OwnerMultiSigWallet.sol\":7324:7329  false */\n      0x00\n        /* \"customContracts/OwnerMultiSigWallet.sol\":7293:7310  aggressReplaceMap */\n      0x07\n        /* \"customContracts/OwnerMultiSigWallet.sol\":7293:7321  aggressReplaceMap[owners[i]] */\n      0x00\n        /* \"customContracts/OwnerMultiSigWallet.sol\":7311:7317  owners */\n      dup1\n        /* \"customContracts/OwnerMultiSigWallet.sol\":7318:7319  i */\n      dup5\n        /* \"customContracts/OwnerMultiSigWallet.sol\":7311:7320  owners[i] */\n      dup2\n      sload\n      dup2\n      lt\n      tag_171\n      jumpi\n      tag_172\n      tag_127\n      jump\t// in\n    tag_172:\n    tag_171:\n      swap1\n      0x00\n      mstore\n      keccak256(0x00, 0x20)\n      add\n      0x00\n      swap1\n      sload\n      swap1\n      0x0100\n      exp\n      swap1\n      div\n      0xffffffffffffffffffffffffffffffffffffffff\n      and\n        /* \"customContracts/OwnerMultiSigWallet.sol\":7293:7321  aggressReplaceMap[owners[i]] */\n      0xffffffffffffffffffffffffffffffffffffffff\n      and\n      0xffffffffffffffffffffffffffffffffffffffff\n      and\n      dup2\n      mstore\n      0x20\n      add\n      swap1\n      dup2\n      mstore\n      0x20\n      add\n      0x00\n      keccak256\n      0x00\n        /* \"customContracts/OwnerMultiSigWallet.sol\":7293:7329  aggressReplaceMap[owners[i]] = false */\n      0x0100\n      exp\n      dup2\n      sload\n      dup2\n      0xff\n      mul\n      not\n      and\n      swap1\n      dup4\n      iszero\n      iszero\n      mul\n      or\n      swap1\n      sstore\n      pop\n        /* \"customContracts/OwnerMultiSigWallet.sol\":7273:7276  i++ */\n      dup1\n      dup1\n      0x01\n      add\n      swap2\n      pop\n      pop\n        /* \"customContracts/OwnerMultiSigWallet.sol\":7237:7341  for (uint i = 0; i < owners.length; i++) {... */\n      jump(tag_168)\n    tag_169:\n      pop\n        /* \"customContracts/OwnerMultiSigWallet.sol\":7153:7348  function resetReplaceVote() public onlyOwner {... */\n      jump\t// out\n        /* \"customContracts/OwnerMultiSigWallet.sol\":6437:6798  function inputCandidateOwner(address _newOwner, address _replaceeOwner) public onlyOwner {... */\n    tag_67:\n        /* \"customContracts/OwnerMultiSigWallet.sol\":2118:2125  isOwner */\n      0x01\n        /* \"customContracts/OwnerMultiSigWallet.sol\":2118:2137  isOwner[msg.sender] */\n      0x00\n        /* \"customContracts/OwnerMultiSigWallet.sol\":2126:2136  msg.sender */\n      caller\n        /* \"customContracts/OwnerMultiSigWallet.sol\":2118:2137  isOwner[msg.sender] */\n      0xffffffffffffffffffffffffffffffffffffffff\n      and\n      0xffffffffffffffffffffffffffffffffffffffff\n      and\n      dup2\n      mstore\n      0x20\n      add\n      swap1\n      dup2\n      mstore\n      0x20\n      add\n      0x00\n      keccak256\n      0x00\n      swap1\n      sload\n      swap1\n      0x0100\n      exp\n      swap1\n      div\n      0xff\n      and\n        /* \"customContracts/OwnerMultiSigWallet.sol\":2110:2151  require(isOwner[msg.sender], \"not owner\") */\n      tag_175\n      jumpi\n      mload(0x40)\n      0x08c379a000000000000000000000000000000000000000000000000000000000\n      dup2\n      mstore\n      0x04\n      add\n      tag_176\n      swap1\n      tag_119\n      jump\t// in\n    tag_176:\n      mload(0x40)\n      dup1\n      swap2\n      sub\n      swap1\n      revert\n    tag_175:\n        /* \"customContracts/OwnerMultiSigWallet.sol\":6567:6568  0 */\n      0x00\n        /* \"customContracts/OwnerMultiSigWallet.sol\":6546:6569  _newOwner != address(0) */\n      0xffffffffffffffffffffffffffffffffffffffff\n      and\n        /* \"customContracts/OwnerMultiSigWallet.sol\":6546:6555  _newOwner */\n      dup3\n        /* \"customContracts/OwnerMultiSigWallet.sol\":6546:6569  _newOwner != address(0) */\n      0xffffffffffffffffffffffffffffffffffffffff\n      and\n      eq\n      iszero\n        /* \"customContracts/OwnerMultiSigWallet.sol\":6546:6601  _newOwner != address(0) || _replaceeOwner != address(0) */\n      dup1\n      tag_178\n      jumpi\n      pop\n        /* \"customContracts/OwnerMultiSigWallet.sol\":6599:6600  0 */\n      0x00\n        /* \"customContracts/OwnerMultiSigWallet.sol\":6573:6601  _replaceeOwner != address(0) */\n      0xffffffffffffffffffffffffffffffffffffffff\n      and\n        /* \"customContracts/OwnerMultiSigWallet.sol\":6573:6587  _replaceeOwner */\n      dup2\n        /* \"customContracts/OwnerMultiSigWallet.sol\":6573:6601  _replaceeOwner != address(0) */\n      0xffffffffffffffffffffffffffffffffffffffff\n      and\n      eq\n      iszero\n        /* \"customContracts/OwnerMultiSigWallet.sol\":6546:6601  _newOwner != address(0) || _replaceeOwner != address(0) */\n    tag_178:\n        /* \"customContracts/OwnerMultiSigWallet.sol\":6538:6639  require(_newOwner != address(0) || _replaceeOwner != address(0), \"invalid newOwner or replaceeOwner\") */\n      tag_179\n      jumpi\n      mload(0x40)\n      0x08c379a000000000000000000000000000000000000000000000000000000000\n      dup2\n      mstore\n      0x04\n      add\n      tag_180\n      swap1\n      tag_181\n      jump\t// in\n    tag_180:\n      mload(0x40)\n      dup1\n      swap2\n      sub\n      swap1\n      revert\n    tag_179:\n        /* \"customContracts/OwnerMultiSigWallet.sol\":6659:6666  isOwner */\n      0x01\n        /* \"customContracts/OwnerMultiSigWallet.sol\":6659:6678  isOwner[msg.sender] */\n      0x00\n        /* \"customContracts/OwnerMultiSigWallet.sol\":6667:6677  msg.sender */\n      caller\n        /* \"customContracts/OwnerMultiSigWallet.sol\":6659:6678  isOwner[msg.sender] */\n      0xffffffffffffffffffffffffffffffffffffffff\n      and\n      0xffffffffffffffffffffffffffffffffffffffff\n      and\n      dup2\n      mstore\n      0x20\n      add\n      swap1\n      dup2\n      mstore\n      0x20\n      add\n      0x00\n      keccak256\n      0x00\n      swap1\n      sload\n      swap1\n      0x0100\n      exp\n      swap1\n      div\n      0xff\n      and\n        /* \"customContracts/OwnerMultiSigWallet.sol\":6651:6710  require(isOwner[msg.sender], \"replaceeOwner is not ownner\") */\n      tag_182\n      jumpi\n      mload(0x40)\n      0x08c379a000000000000000000000000000000000000000000000000000000000\n      dup2\n      mstore\n      0x04\n      add\n      tag_183\n      swap1\n      tag_184\n      jump\t// in\n    tag_183:\n      mload(0x40)\n      dup1\n      swap2\n      sub\n      swap1\n      revert\n    tag_182:\n        /* \"customContracts/OwnerMultiSigWallet.sol\":6739:6748  _newOwner */\n      dup2\n        /* \"customContracts/OwnerMultiSigWallet.sol\":6722:6736  candidateOwner */\n      0x05\n      0x00\n        /* \"customContracts/OwnerMultiSigWallet.sol\":6722:6748  candidateOwner = _newOwner */\n      0x0100\n      exp\n      dup2\n      sload\n      dup2\n      0xffffffffffffffffffffffffffffffffffffffff\n      mul\n      not\n      and\n      swap1\n      dup4\n      0xffffffffffffffffffffffffffffffffffffffff\n      and\n      mul\n      or\n      swap1\n      sstore\n      pop\n        /* \"customContracts/OwnerMultiSigWallet.sol\":6776:6790  _replaceeOwner */\n      dup1\n        /* \"customContracts/OwnerMultiSigWallet.sol\":6760:6773  replaceeOwner */\n      0x06\n      0x00\n        /* \"customContracts/OwnerMultiSigWallet.sol\":6760:6790  replaceeOwner = _replaceeOwner */\n      0x0100\n      exp\n      dup2\n      sload\n      dup2\n      0xffffffffffffffffffffffffffffffffffffffff\n      mul\n      not\n      and\n      swap1\n      dup4\n      0xffffffffffffffffffffffffffffffffffffffff\n      and\n      mul\n      or\n      swap1\n      sstore\n      pop\n        /* \"customContracts/OwnerMultiSigWallet.sol\":6437:6798  function inputCandidateOwner(address _newOwner, address _replaceeOwner) public onlyOwner {... */\n      pop\n      pop\n      jump\t// out\n        /* \"customContracts/OwnerMultiSigWallet.sol\":1265:1323  mapping(uint => mapping(address=>bool)) public isConfirmed */\n    tag_72:\n      mstore(0x20, 0x03)\n      dup2\n      0x00\n      mstore\n      mstore(0x20, keccak256(0x00, 0x40))\n      dup1\n      0x00\n      mstore\n      keccak256(0x00, 0x40)\n      0x00\n      swap2\n      pop\n      swap2\n      pop\n      swap1\n      sload\n      swap1\n      0x0100\n      exp\n      swap1\n      div\n      0xff\n      and\n      dup2\n      jump\t// out\n        /* \"customContracts/OwnerMultiSigWallet.sol\":1332:1365  Transaction[] public transactions */\n    tag_77:\n      0x04\n      dup2\n      dup2\n      sload\n      dup2\n      lt\n      tag_185\n      jumpi\n      0x00\n      dup1\n      revert\n    tag_185:\n      swap1\n      0x00\n      mstore\n      keccak256(0x00, 0x20)\n      swap1\n      0x06\n      mul\n      add\n      0x00\n      swap2\n      pop\n      swap1\n      pop\n      dup1\n      0x00\n      add\n      0x00\n      swap1\n      sload\n      swap1\n      0x0100\n      exp\n      swap1\n      div\n      0xffffffffffffffffffffffffffffffffffffffff\n      and\n      swap1\n      dup1\n      0x01\n      add\n      sload\n      swap1\n      dup1\n      0x02\n      add\n      dup1\n      sload\n      tag_187\n      swap1\n      tag_159\n      jump\t// in\n    tag_187:\n      dup1\n      0x1f\n      add\n      0x20\n      dup1\n      swap2\n      div\n      mul\n      0x20\n      add\n      mload(0x40)\n      swap1\n      dup2\n      add\n      0x40\n      mstore\n      dup1\n      swap3\n      swap2\n      swap1\n      dup2\n      dup2\n      mstore\n      0x20\n      add\n      dup3\n      dup1\n      sload\n      tag_188\n      swap1\n      tag_159\n      jump\t// in\n    tag_188:\n      dup1\n      iszero\n      tag_189\n      jumpi\n      dup1\n      0x1f\n      lt\n      tag_190\n      jumpi\n      0x0100\n      dup1\n      dup4\n      sload\n      div\n      mul\n      dup4\n      mstore\n      swap2\n      0x20\n      add\n      swap2\n      jump(tag_189)\n    tag_190:\n      dup3\n      add\n      swap2\n      swap1\n      0x00\n      mstore\n      keccak256(0x00, 0x20)\n      swap1\n    tag_191:\n      dup2\n      sload\n      dup2\n      mstore\n      swap1\n      0x01\n      add\n      swap1\n      0x20\n      add\n      dup1\n      dup4\n      gt\n      tag_191\n      jumpi\n      dup3\n      swap1\n      sub\n      0x1f\n      and\n      dup3\n      add\n      swap2\n    tag_189:\n      pop\n      pop\n      pop\n      pop\n      pop\n      swap1\n      dup1\n      0x03\n      add\n      0x00\n      swap1\n      sload\n      swap1\n      0x0100\n      exp\n      swap1\n      div\n      0xff\n      and\n      swap1\n      dup1\n      0x04\n      add\n      sload\n      swap1\n      dup1\n      0x05\n      add\n      sload\n      swap1\n      pop\n      dup7\n      jump\t// out\n        /* \"customContracts/OwnerMultiSigWallet.sol\":5299:5390  function getOwners() public view returns(address[] memory) {... */\n    tag_82:\n        /* \"customContracts/OwnerMultiSigWallet.sol\":5340:5356  address[] memory */\n      0x60\n        /* \"customContracts/OwnerMultiSigWallet.sol\":5376:5382  owners */\n      0x00\n        /* \"customContracts/OwnerMultiSigWallet.sol\":5369:5382  return owners */\n      dup1\n      sload\n      dup1\n      0x20\n      mul\n      0x20\n      add\n      mload(0x40)\n      swap1\n      dup2\n      add\n      0x40\n      mstore\n      dup1\n      swap3\n      swap2\n      swap1\n      dup2\n      dup2\n      mstore\n      0x20\n      add\n      dup3\n      dup1\n      sload\n      dup1\n      iszero\n      tag_193\n      jumpi\n      0x20\n      mul\n      dup3\n      add\n      swap2\n      swap1\n      0x00\n      mstore\n      keccak256(0x00, 0x20)\n      swap1\n    tag_194:\n      dup2\n      0x00\n      swap1\n      sload\n      swap1\n      0x0100\n      exp\n      swap1\n      div\n      0xffffffffffffffffffffffffffffffffffffffff\n      and\n      0xffffffffffffffffffffffffffffffffffffffff\n      and\n      dup2\n      mstore\n      0x20\n      add\n      swap1\n      0x01\n      add\n      swap1\n      dup1\n      dup4\n      gt\n      tag_194\n      jumpi\n    tag_193:\n      pop\n      pop\n      pop\n      pop\n      pop\n      swap1\n      pop\n        /* \"customContracts/OwnerMultiSigWallet.sol\":5299:5390  function getOwners() public view returns(address[] memory) {... */\n      swap1\n      jump\t// out\n        /* \"customContracts/OwnerMultiSigWallet.sol\":1667:1698  uint8 public agreeTicketNum = 0 */\n    tag_87:\n      0x08\n      0x00\n      swap1\n      sload\n      swap1\n      0x0100\n      exp\n      swap1\n      div\n      0xff\n      and\n      dup2\n      jump\t// out\n        /* \"customContracts/OwnerMultiSigWallet.sol\":4361:4711  function confirmTransaction(uint _txIndex) public onlyOwner txExists(_txIndex) notExecuted(_txIndex) notConfirmed(_txIndex) {... */\n    tag_93:\n        /* \"customContracts/OwnerMultiSigWallet.sol\":2118:2125  isOwner */\n      0x01\n        /* \"customContracts/OwnerMultiSigWallet.sol\":2118:2137  isOwner[msg.sender] */\n      0x00\n        /* \"customContracts/OwnerMultiSigWallet.sol\":2126:2136  msg.sender */\n      caller\n        /* \"customContracts/OwnerMultiSigWallet.sol\":2118:2137  isOwner[msg.sender] */\n      0xffffffffffffffffffffffffffffffffffffffff\n      and\n      0xffffffffffffffffffffffffffffffffffffffff\n      and\n      dup2\n      mstore\n      0x20\n      add\n      swap1\n      dup2\n      mstore\n      0x20\n      add\n      0x00\n      keccak256\n      0x00\n      swap1\n      sload\n      swap1\n      0x0100\n      exp\n      swap1\n      div\n      0xff\n      and\n        /* \"customContracts/OwnerMultiSigWallet.sol\":2110:2151  require(isOwner[msg.sender], \"not owner\") */\n      tag_196\n      jumpi\n      mload(0x40)\n      0x08c379a000000000000000000000000000000000000000000000000000000000\n      dup2\n      mstore\n      0x04\n      add\n      tag_197\n      swap1\n      tag_119\n      jump\t// in\n    tag_197:\n      mload(0x40)\n      dup1\n      swap2\n      sub\n      swap1\n      revert\n    tag_196:\n        /* \"customContracts/OwnerMultiSigWallet.sol\":4430:4438  _txIndex */\n      dup1\n        /* \"customContracts/OwnerMultiSigWallet.sol\":2326:2338  transactions */\n      0x04\n        /* \"customContracts/OwnerMultiSigWallet.sol\":2326:2345  transactions.length */\n      dup1\n      sload\n      swap1\n      pop\n        /* \"customContracts/OwnerMultiSigWallet.sol\":2315:2323  _txIndex */\n      dup2\n        /* \"customContracts/OwnerMultiSigWallet.sol\":2315:2345  _txIndex < transactions.length */\n      lt\n        /* \"customContracts/OwnerMultiSigWallet.sol\":2307:2367  require(_txIndex < transactions.length, \"tx does not exist\") */\n      tag_199\n      jumpi\n      mload(0x40)\n      0x08c379a000000000000000000000000000000000000000000000000000000000\n      dup2\n      mstore\n      0x04\n      add\n      tag_200\n      swap1\n      tag_123\n      jump\t// in\n    tag_200:\n      mload(0x40)\n      dup1\n      swap2\n      sub\n      swap1\n      revert\n    tag_199:\n        /* \"customContracts/OwnerMultiSigWallet.sol\":4452:4460  _txIndex */\n      dup2\n        /* \"customContracts/OwnerMultiSigWallet.sol\":2543:2555  transactions */\n      0x04\n        /* \"customContracts/OwnerMultiSigWallet.sol\":2556:2564  _txIndex */\n      dup2\n        /* \"customContracts/OwnerMultiSigWallet.sol\":2543:2565  transactions[_txIndex] */\n      dup2\n      sload\n      dup2\n      lt\n      tag_202\n      jumpi\n      tag_203\n      tag_127\n      jump\t// in\n    tag_203:\n    tag_202:\n      swap1\n      0x00\n      mstore\n      keccak256(0x00, 0x20)\n      swap1\n      0x06\n      mul\n      add\n        /* \"customContracts/OwnerMultiSigWallet.sol\":2543:2574  transactions[_txIndex].executed */\n      0x03\n      add\n      0x00\n      swap1\n      sload\n      swap1\n      0x0100\n      exp\n      swap1\n      div\n      0xff\n      and\n        /* \"customContracts/OwnerMultiSigWallet.sol\":2542:2574  !transactions[_txIndex].executed */\n      iszero\n        /* \"customContracts/OwnerMultiSigWallet.sol\":2534:2598  require(!transactions[_txIndex].executed, \"tx already executed\") */\n      tag_205\n      jumpi\n      mload(0x40)\n      0x08c379a000000000000000000000000000000000000000000000000000000000\n      dup2\n      mstore\n      0x04\n      add\n      tag_206\n      swap1\n      tag_131\n      jump\t// in\n    tag_206:\n      mload(0x40)\n      dup1\n      swap2\n      sub\n      swap1\n      revert\n    tag_205:\n        /* \"customContracts/OwnerMultiSigWallet.sol\":4475:4483  _txIndex */\n      dup3\n        /* \"customContracts/OwnerMultiSigWallet.sol\":2777:2788  isConfirmed */\n      0x03\n        /* \"customContracts/OwnerMultiSigWallet.sol\":2777:2798  isConfirmed[_txIndex] */\n      0x00\n        /* \"customContracts/OwnerMultiSigWallet.sol\":2789:2797  _txIndex */\n      dup3\n        /* \"customContracts/OwnerMultiSigWallet.sol\":2777:2798  isConfirmed[_txIndex] */\n      dup2\n      mstore\n      0x20\n      add\n      swap1\n      dup2\n      mstore\n      0x20\n      add\n      0x00\n      keccak256\n        /* \"customContracts/OwnerMultiSigWallet.sol\":2777:2810  isConfirmed[_txIndex][msg.sender] */\n      0x00\n        /* \"customContracts/OwnerMultiSigWallet.sol\":2799:2809  msg.sender */\n      caller\n        /* \"customContracts/OwnerMultiSigWallet.sol\":2777:2810  isConfirmed[_txIndex][msg.sender] */\n      0xffffffffffffffffffffffffffffffffffffffff\n      and\n      0xffffffffffffffffffffffffffffffffffffffff\n      and\n      dup2\n      mstore\n      0x20\n      add\n      swap1\n      dup2\n      mstore\n      0x20\n      add\n      0x00\n      keccak256\n      0x00\n      swap1\n      sload\n      swap1\n      0x0100\n      exp\n      swap1\n      div\n      0xff\n      and\n        /* \"customContracts/OwnerMultiSigWallet.sol\":2776:2810  !isConfirmed[_txIndex][msg.sender] */\n      iszero\n        /* \"customContracts/OwnerMultiSigWallet.sol\":2768:2835  require(!isConfirmed[_txIndex][msg.sender], \"tx already confirmed\") */\n      tag_208\n      jumpi\n      mload(0x40)\n      0x08c379a000000000000000000000000000000000000000000000000000000000\n      dup2\n      mstore\n      0x04\n      add\n      tag_209\n      swap1\n      tag_210\n      jump\t// in\n    tag_209:\n      mload(0x40)\n      dup1\n      swap2\n      sub\n      swap1\n      revert\n    tag_208:\n        /* \"customContracts/OwnerMultiSigWallet.sol\":4496:4527  Transaction storage transaction */\n      0x00\n        /* \"customContracts/OwnerMultiSigWallet.sol\":4530:4542  transactions */\n      0x04\n        /* \"customContracts/OwnerMultiSigWallet.sol\":4543:4551  _txIndex */\n      dup6\n        /* \"customContracts/OwnerMultiSigWallet.sol\":4530:4552  transactions[_txIndex] */\n      dup2\n      sload\n      dup2\n      lt\n      tag_212\n      jumpi\n      tag_213\n      tag_127\n      jump\t// in\n    tag_213:\n    tag_212:\n      swap1\n      0x00\n      mstore\n      keccak256(0x00, 0x20)\n      swap1\n      0x06\n      mul\n      add\n        /* \"customContracts/OwnerMultiSigWallet.sol\":4496:4552  Transaction storage transaction = transactions[_txIndex] */\n      swap1\n      pop\n        /* \"customContracts/OwnerMultiSigWallet.sol\":4595:4596  1 */\n      0x01\n        /* \"customContracts/OwnerMultiSigWallet.sol\":4563:4574  transaction */\n      dup2\n        /* \"customContracts/OwnerMultiSigWallet.sol\":4563:4591  transaction.numConfirmations */\n      0x04\n      add\n      0x00\n        /* \"customContracts/OwnerMultiSigWallet.sol\":4563:4596  transaction.numConfirmations += 1 */\n      dup3\n      dup3\n      sload\n      tag_215\n      swap2\n      swap1\n      tag_216\n      jump\t// in\n    tag_215:\n      swap3\n      pop\n      pop\n      dup2\n      swap1\n      sstore\n      pop\n        /* \"customContracts/OwnerMultiSigWallet.sol\":4643:4647  true */\n      0x01\n        /* \"customContracts/OwnerMultiSigWallet.sol\":4607:4618  isConfirmed */\n      0x03\n        /* \"customContracts/OwnerMultiSigWallet.sol\":4607:4628  isConfirmed[_txIndex] */\n      0x00\n        /* \"customContracts/OwnerMultiSigWallet.sol\":4619:4627  _txIndex */\n      dup8\n        /* \"customContracts/OwnerMultiSigWallet.sol\":4607:4628  isConfirmed[_txIndex] */\n      dup2\n      mstore\n      0x20\n      add\n      swap1\n      dup2\n      mstore\n      0x20\n      add\n      0x00\n      keccak256\n        /* \"customContracts/OwnerMultiSigWallet.sol\":4607:4640  isConfirmed[_txIndex][msg.sender] */\n      0x00\n        /* \"customContracts/OwnerMultiSigWallet.sol\":4629:4639  msg.sender */\n      caller\n        /* \"customContracts/OwnerMultiSigWallet.sol\":4607:4640  isConfirmed[_txIndex][msg.sender] */\n      0xffffffffffffffffffffffffffffffffffffffff\n      and\n      0xffffffffffffffffffffffffffffffffffffffff\n      and\n      dup2\n      mstore\n      0x20\n      add\n      swap1\n      dup2\n      mstore\n      0x20\n      add\n      0x00\n      keccak256\n      0x00\n        /* \"customContracts/OwnerMultiSigWallet.sol\":4607:4647  isConfirmed[_txIndex][msg.sender] = true */\n      0x0100\n      exp\n      dup2\n      sload\n      dup2\n      0xff\n      mul\n      not\n      and\n      swap1\n      dup4\n      iszero\n      iszero\n      mul\n      or\n      swap1\n      sstore\n      pop\n        /* \"customContracts/OwnerMultiSigWallet.sol\":4694:4702  _txIndex */\n      dup5\n        /* \"customContracts/OwnerMultiSigWallet.sol\":4682:4692  msg.sender */\n      caller\n        /* \"customContracts/OwnerMultiSigWallet.sol\":4663:4703  ConfirmTransaction(msg.sender, _txIndex) */\n      0xffffffffffffffffffffffffffffffffffffffff\n      and\n      0x5cbe105e36805f7820e291f799d5794ff948af2a5f664e580382defb63390041\n      mload(0x40)\n      mload(0x40)\n      dup1\n      swap2\n      sub\n      swap1\n      log3\n        /* \"customContracts/OwnerMultiSigWallet.sol\":4485:4711  {... */\n      pop\n        /* \"customContracts/OwnerMultiSigWallet.sol\":2609:2610  _ */\n      pop\n        /* \"customContracts/OwnerMultiSigWallet.sol\":2378:2379  _ */\n      pop\n        /* \"customContracts/OwnerMultiSigWallet.sol\":2162:2163  _ */\n      pop\n        /* \"customContracts/OwnerMultiSigWallet.sol\":4361:4711  function confirmTransaction(uint _txIndex) public onlyOwner txExists(_txIndex) notExecuted(_txIndex) notConfirmed(_txIndex) {... */\n      pop\n      jump\t// out\n        /* \"customContracts/OwnerMultiSigWallet.sol\":1442:1471  address public candidateOwner */\n    tag_96:\n      0x05\n      0x00\n      swap1\n      sload\n      swap1\n      0x0100\n      exp\n      swap1\n      div\n      0xffffffffffffffffffffffffffffffffffffffff\n      and\n      dup2\n      jump\t// out\n        /* \"customContracts/OwnerMultiSigWallet.sol\":1523:1551  address public replaceeOwner */\n    tag_100:\n      0x06\n      0x00\n      swap1\n      sload\n      swap1\n      0x0100\n      exp\n      swap1\n      div\n      0xffffffffffffffffffffffffffffffffffffffff\n      and\n      dup2\n      jump\t// out\n        /* \"customContracts/OwnerMultiSigWallet.sol\":795:831  uint public numConfirmationsRequired */\n    tag_104:\n      sload(0x02)\n      dup2\n      jump\t// out\n        /* \"customContracts/OwnerMultiSigWallet.sol\":7425:7993  function invokeCandidateOwner() public onlyOwner {... */\n    tag_108:\n        /* \"customContracts/OwnerMultiSigWallet.sol\":2118:2125  isOwner */\n      0x01\n        /* \"customContracts/OwnerMultiSigWallet.sol\":2118:2137  isOwner[msg.sender] */\n      0x00\n        /* \"customContracts/OwnerMultiSigWallet.sol\":2126:2136  msg.sender */\n      caller\n        /* \"customContracts/OwnerMultiSigWallet.sol\":2118:2137  isOwner[msg.sender] */\n      0xffffffffffffffffffffffffffffffffffffffff\n      and\n      0xffffffffffffffffffffffffffffffffffffffff\n      and\n      dup2\n      mstore\n      0x20\n      add\n      swap1\n      dup2\n      mstore\n      0x20\n      add\n      0x00\n      keccak256\n      0x00\n      swap1\n      sload\n      swap1\n      0x0100\n      exp\n      swap1\n      div\n      0xff\n      and\n        /* \"customContracts/OwnerMultiSigWallet.sol\":2110:2151  require(isOwner[msg.sender], \"not owner\") */\n      tag_218\n      jumpi\n      mload(0x40)\n      0x08c379a000000000000000000000000000000000000000000000000000000000\n      dup2\n      mstore\n      0x04\n      add\n      tag_219\n      swap1\n      tag_119\n      jump\t// in\n    tag_219:\n      mload(0x40)\n      dup1\n      swap2\n      sub\n      swap1\n      revert\n    tag_218:\n        /* \"customContracts/OwnerMultiSigWallet.sol\":7519:7520  0 */\n      0x00\n        /* \"customContracts/OwnerMultiSigWallet.sol\":7493:7521  candidateOwner != address(0) */\n      0xffffffffffffffffffffffffffffffffffffffff\n      and\n        /* \"customContracts/OwnerMultiSigWallet.sol\":7493:7507  candidateOwner */\n      0x05\n      0x00\n      swap1\n      sload\n      swap1\n      0x0100\n      exp\n      swap1\n      div\n      0xffffffffffffffffffffffffffffffffffffffff\n      and\n        /* \"customContracts/OwnerMultiSigWallet.sol\":7493:7521  candidateOwner != address(0) */\n      0xffffffffffffffffffffffffffffffffffffffff\n      and\n      eq\n      iszero\n        /* \"customContracts/OwnerMultiSigWallet.sol\":7493:7552  candidateOwner != address(0) && replaceeOwner != address(0) */\n      dup1\n      iszero\n      tag_221\n      jumpi\n      pop\n        /* \"customContracts/OwnerMultiSigWallet.sol\":7550:7551  0 */\n      0x00\n        /* \"customContracts/OwnerMultiSigWallet.sol\":7525:7552  replaceeOwner != address(0) */\n      0xffffffffffffffffffffffffffffffffffffffff\n      and\n        /* \"customContracts/OwnerMultiSigWallet.sol\":7525:7538  replaceeOwner */\n      0x06\n      0x00\n      swap1\n      sload\n      swap1\n      0x0100\n      exp\n      swap1\n      div\n      0xffffffffffffffffffffffffffffffffffffffff\n      and\n        /* \"customContracts/OwnerMultiSigWallet.sol\":7525:7552  replaceeOwner != address(0) */\n      0xffffffffffffffffffffffffffffffffffffffff\n      and\n      eq\n      iszero\n        /* \"customContracts/OwnerMultiSigWallet.sol\":7493:7552  candidateOwner != address(0) && replaceeOwner != address(0) */\n    tag_221:\n        /* \"customContracts/OwnerMultiSigWallet.sol\":7485:7602  require(candidateOwner != address(0) && replaceeOwner != address(0), \"please input candidateOwner and replaceeOwner\") */\n      tag_222\n      jumpi\n      mload(0x40)\n      0x08c379a000000000000000000000000000000000000000000000000000000000\n      dup2\n      mstore\n      0x04\n      add\n      tag_223\n      swap1\n      tag_224\n      jump\t// in\n    tag_223:\n      mload(0x40)\n      dup1\n      swap2\n      sub\n      swap1\n      revert\n    tag_222:\n        /* \"customContracts/OwnerMultiSigWallet.sol\":7613:7634  uint oldOwnerPosition */\n      0x00\n        /* \"customContracts/OwnerMultiSigWallet.sol\":7649:7660  bool findIt */\n      dup1\n        /* \"customContracts/OwnerMultiSigWallet.sol\":7684:7690  uint i */\n      0x00\n        /* \"customContracts/OwnerMultiSigWallet.sol\":7679:7889  for (uint i = 0; i < owners.length; i++) {... */\n    tag_225:\n        /* \"customContracts/OwnerMultiSigWallet.sol\":7700:7706  owners */\n      0x00\n        /* \"customContracts/OwnerMultiSigWallet.sol\":7700:7713  owners.length */\n      dup1\n      sload\n      swap1\n      pop\n        /* \"customContracts/OwnerMultiSigWallet.sol\":7696:7697  i */\n      dup2\n        /* \"customContracts/OwnerMultiSigWallet.sol\":7696:7713  i < owners.length */\n      lt\n        /* \"customContracts/OwnerMultiSigWallet.sol\":7679:7889  for (uint i = 0; i < owners.length; i++) {... */\n      iszero\n      tag_226\n      jumpi\n        /* \"customContracts/OwnerMultiSigWallet.sol\":7752:7765  replaceeOwner */\n      0x06\n      0x00\n      swap1\n      sload\n      swap1\n      0x0100\n      exp\n      swap1\n      div\n      0xffffffffffffffffffffffffffffffffffffffff\n      and\n        /* \"customContracts/OwnerMultiSigWallet.sol\":7739:7765  owners[i] == replaceeOwner */\n      0xffffffffffffffffffffffffffffffffffffffff\n      and\n        /* \"customContracts/OwnerMultiSigWallet.sol\":7739:7745  owners */\n      0x00\n        /* \"customContracts/OwnerMultiSigWallet.sol\":7746:7747  i */\n      dup3\n        /* \"customContracts/OwnerMultiSigWallet.sol\":7739:7748  owners[i] */\n      dup2\n      sload\n      dup2\n      lt\n      tag_228\n      jumpi\n      tag_229\n      tag_127\n      jump\t// in\n    tag_229:\n    tag_228:\n      swap1\n      0x00\n      mstore\n      keccak256(0x00, 0x20)\n      add\n      0x00\n      swap1\n      sload\n      swap1\n      0x0100\n      exp\n      swap1\n      div\n      0xffffffffffffffffffffffffffffffffffffffff\n      and\n        /* \"customContracts/OwnerMultiSigWallet.sol\":7739:7765  owners[i] == replaceeOwner */\n      0xffffffffffffffffffffffffffffffffffffffff\n      and\n      sub\n        /* \"customContracts/OwnerMultiSigWallet.sol\":7735:7878  if (owners[i] == replaceeOwner) {... */\n      tag_231\n      jumpi\n        /* \"customContracts/OwnerMultiSigWallet.sol\":7805:7806  i */\n      dup1\n        /* \"customContracts/OwnerMultiSigWallet.sol\":7786:7806  oldOwnerPosition = i */\n      swap3\n      pop\n        /* \"customContracts/OwnerMultiSigWallet.sol\":7834:7838  true */\n      0x01\n        /* \"customContracts/OwnerMultiSigWallet.sol\":7825:7838  findIt = true */\n      swap2\n      pop\n        /* \"customContracts/OwnerMultiSigWallet.sol\":7857:7862  break */\n      jump(tag_226)\n        /* \"customContracts/OwnerMultiSigWallet.sol\":7735:7878  if (owners[i] == replaceeOwner) {... */\n    tag_231:\n        /* \"customContracts/OwnerMultiSigWallet.sol\":7715:7718  i++ */\n      dup1\n      dup1\n      0x01\n      add\n      swap2\n      pop\n      pop\n        /* \"customContracts/OwnerMultiSigWallet.sol\":7679:7889  for (uint i = 0; i < owners.length; i++) {... */\n      jump(tag_225)\n    tag_226:\n      pop\n        /* \"customContracts/OwnerMultiSigWallet.sol\":7906:7912  findIt */\n      dup1\n        /* \"customContracts/OwnerMultiSigWallet.sol\":7898:7934  require(findIt, \"don't match owner\") */\n      tag_232\n      jumpi\n      mload(0x40)\n      0x08c379a000000000000000000000000000000000000000000000000000000000\n      dup2\n      mstore\n      0x04\n      add\n      tag_233\n      swap1\n      tag_234\n      jump\t// in\n    tag_233:\n      mload(0x40)\n      dup1\n      swap2\n      sub\n      swap1\n      revert\n    tag_232:\n        /* \"customContracts/OwnerMultiSigWallet.sol\":7971:7985  candidateOwner */\n      0x05\n      0x00\n      swap1\n      sload\n      swap1\n      0x0100\n      exp\n      swap1\n      div\n      0xffffffffffffffffffffffffffffffffffffffff\n      and\n        /* \"customContracts/OwnerMultiSigWallet.sol\":7944:7950  owners */\n      0x00\n        /* \"customContracts/OwnerMultiSigWallet.sol\":7951:7967  oldOwnerPosition */\n      dup4\n        /* \"customContracts/OwnerMultiSigWallet.sol\":7944:7968  owners[oldOwnerPosition] */\n      dup2\n      sload\n      dup2\n      lt\n      tag_235\n      jumpi\n      tag_236\n      tag_127\n      jump\t// in\n    tag_236:\n    tag_235:\n      swap1\n      0x00\n      mstore\n      keccak256(0x00, 0x20)\n      add\n      0x00\n        /* \"customContracts/OwnerMultiSigWallet.sol\":7944:7985  owners[oldOwnerPosition] = candidateOwner */\n      0x0100\n      exp\n      dup2\n      sload\n      dup2\n      0xffffffffffffffffffffffffffffffffffffffff\n      mul\n      not\n      and\n      swap1\n      dup4\n      0xffffffffffffffffffffffffffffffffffffffff\n      and\n      mul\n      or\n      swap1\n      sstore\n      pop\n        /* \"customContracts/OwnerMultiSigWallet.sol\":7474:7993  {... */\n      pop\n      pop\n        /* \"customContracts/OwnerMultiSigWallet.sol\":7425:7993  function invokeCandidateOwner() public onlyOwner {... */\n      jump\t// out\n        /* \"customContracts/OwnerMultiSigWallet.sol\":1611:1660  mapping(address => bool) public aggressReplaceMap */\n    tag_112:\n      mstore(0x20, 0x07)\n      dup1\n      0x00\n      mstore\n      keccak256(0x00, 0x40)\n      0x00\n      swap2\n      pop\n      sload\n      swap1\n      0x0100\n      exp\n      swap1\n      div\n      0xff\n      and\n      dup2\n      jump\t// out\n        /* \"#utility.yul\":7:84   */\n    tag_238:\n        /* \"#utility.yul\":44:51   */\n      0x00\n        /* \"#utility.yul\":73:78   */\n      dup2\n        /* \"#utility.yul\":62:78   */\n      swap1\n      pop\n        /* \"#utility.yul\":7:84   */\n      swap2\n      swap1\n      pop\n      jump\t// out\n        /* \"#utility.yul\":90:208   */\n    tag_239:\n        /* \"#utility.yul\":177:201   */\n      tag_294\n        /* \"#utility.yul\":195:200   */\n      dup2\n        /* \"#utility.yul\":177:201   */\n      tag_238\n      jump\t// in\n    tag_294:\n        /* \"#utility.yul\":172:175   */\n      dup3\n        /* \"#utility.yul\":165:202   */\n      mstore\n        /* \"#utility.yul\":90:208   */\n      pop\n      pop\n      jump\t// out\n        /* \"#utility.yul\":214:546   */\n    tag_27:\n        /* \"#utility.yul\":335:339   */\n      0x00\n        /* \"#utility.yul\":373:375   */\n      0x40\n        /* \"#utility.yul\":362:371   */\n      dup3\n        /* \"#utility.yul\":358:376   */\n      add\n        /* \"#utility.yul\":350:376   */\n      swap1\n      pop\n        /* \"#utility.yul\":386:457   */\n      tag_296\n        /* \"#utility.yul\":454:455   */\n      0x00\n        /* \"#utility.yul\":443:452   */\n      dup4\n        /* \"#utility.yul\":439:456   */\n      add\n        /* \"#utility.yul\":430:436   */\n      dup6\n        /* \"#utility.yul\":386:457   */\n      tag_239\n      jump\t// in\n    tag_296:\n        /* \"#utility.yul\":467:539   */\n      tag_297\n        /* \"#utility.yul\":535:537   */\n      0x20\n        /* \"#utility.yul\":524:533   */\n      dup4\n        /* \"#utility.yul\":520:538   */\n      add\n        /* \"#utility.yul\":511:517   */\n      dup5\n        /* \"#utility.yul\":467:539   */\n      tag_239\n      jump\t// in\n    tag_297:\n        /* \"#utility.yul\":214:546   */\n      swap4\n      swap3\n      pop\n      pop\n      pop\n      jump\t// out\n        /* \"#utility.yul\":633:750   */\n    tag_241:\n        /* \"#utility.yul\":742:743   */\n      0x00\n        /* \"#utility.yul\":739:740   */\n      dup1\n        /* \"#utility.yul\":732:744   */\n      revert\n        /* \"#utility.yul\":879:1001   */\n    tag_243:\n        /* \"#utility.yul\":952:976   */\n      tag_302\n        /* \"#utility.yul\":970:975   */\n      dup2\n        /* \"#utility.yul\":952:976   */\n      tag_238\n      jump\t// in\n    tag_302:\n        /* \"#utility.yul\":945:950   */\n      dup2\n        /* \"#utility.yul\":942:977   */\n      eq\n        /* \"#utility.yul\":932:995   */\n      tag_303\n      jumpi\n        /* \"#utility.yul\":991:992   */\n      0x00\n        /* \"#utility.yul\":988:989   */\n      dup1\n        /* \"#utility.yul\":981:993   */\n      revert\n        /* \"#utility.yul\":932:995   */\n    tag_303:\n        /* \"#utility.yul\":879:1001   */\n      pop\n      jump\t// out\n        /* \"#utility.yul\":1007:1146   */\n    tag_244:\n        /* \"#utility.yul\":1053:1058   */\n      0x00\n        /* \"#utility.yul\":1091:1097   */\n      dup2\n        /* \"#utility.yul\":1078:1098   */\n      calldataload\n        /* \"#utility.yul\":1069:1098   */\n      swap1\n      pop\n        /* \"#utility.yul\":1107:1140   */\n      tag_305\n        /* \"#utility.yul\":1134:1139   */\n      dup2\n        /* \"#utility.yul\":1107:1140   */\n      tag_243\n      jump\t// in\n    tag_305:\n        /* \"#utility.yul\":1007:1146   */\n      swap3\n      swap2\n      pop\n      pop\n      jump\t// out\n        /* \"#utility.yul\":1152:1481   */\n    tag_31:\n        /* \"#utility.yul\":1211:1217   */\n      0x00\n        /* \"#utility.yul\":1260:1262   */\n      0x20\n        /* \"#utility.yul\":1248:1257   */\n      dup3\n        /* \"#utility.yul\":1239:1246   */\n      dup5\n        /* \"#utility.yul\":1235:1258   */\n      sub\n        /* \"#utility.yul\":1231:1263   */\n      slt\n        /* \"#utility.yul\":1228:1347   */\n      iszero\n      tag_307\n      jumpi\n        /* \"#utility.yul\":1266:1345   */\n      tag_308\n      tag_241\n      jump\t// in\n    tag_308:\n        /* \"#utility.yul\":1228:1347   */\n    tag_307:\n        /* \"#utility.yul\":1386:1387   */\n      0x00\n        /* \"#utility.yul\":1411:1464   */\n      tag_309\n        /* \"#utility.yul\":1456:1463   */\n      dup5\n        /* \"#utility.yul\":1447:1453   */\n      dup3\n        /* \"#utility.yul\":1436:1445   */\n      dup6\n        /* \"#utility.yul\":1432:1454   */\n      add\n        /* \"#utility.yul\":1411:1464   */\n      tag_244\n      jump\t// in\n    tag_309:\n        /* \"#utility.yul\":1401:1464   */\n      swap2\n      pop\n        /* \"#utility.yul\":1357:1474   */\n      pop\n        /* \"#utility.yul\":1152:1481   */\n      swap3\n      swap2\n      pop\n      pop\n      jump\t// out\n        /* \"#utility.yul\":1487:1613   */\n    tag_245:\n        /* \"#utility.yul\":1524:1531   */\n      0x00\n        /* \"#utility.yul\":1564:1606   */\n      0xffffffffffffffffffffffffffffffffffffffff\n        /* \"#utility.yul\":1557:1562   */\n      dup3\n        /* \"#utility.yul\":1553:1607   */\n      and\n        /* \"#utility.yul\":1542:1607   */\n      swap1\n      pop\n        /* \"#utility.yul\":1487:1613   */\n      swap2\n      swap1\n      pop\n      jump\t// out\n        /* \"#utility.yul\":1619:1715   */\n    tag_246:\n        /* \"#utility.yul\":1656:1663   */\n      0x00\n        /* \"#utility.yul\":1685:1709   */\n      tag_312\n        /* \"#utility.yul\":1703:1708   */\n      dup3\n        /* \"#utility.yul\":1685:1709   */\n      tag_245\n      jump\t// in\n    tag_312:\n        /* \"#utility.yul\":1674:1709   */\n      swap1\n      pop\n        /* \"#utility.yul\":1619:1715   */\n      swap2\n      swap1\n      pop\n      jump\t// out\n        /* \"#utility.yul\":1721:1839   */\n    tag_247:\n        /* \"#utility.yul\":1808:1832   */\n      tag_314\n        /* \"#utility.yul\":1826:1831   */\n      dup2\n        /* \"#utility.yul\":1808:1832   */\n      tag_246\n      jump\t// in\n    tag_314:\n        /* \"#utility.yul\":1803:1806   */\n      dup3\n        /* \"#utility.yul\":1796:1833   */\n      mstore\n        /* \"#utility.yul\":1721:1839   */\n      pop\n      pop\n      jump\t// out\n        /* \"#utility.yul\":1845:2067   */\n    tag_34:\n        /* \"#utility.yul\":1938:1942   */\n      0x00\n        /* \"#utility.yul\":1976:1978   */\n      0x20\n        /* \"#utility.yul\":1965:1974   */\n      dup3\n        /* \"#utility.yul\":1961:1979   */\n      add\n        /* \"#utility.yul\":1953:1979   */\n      swap1\n      pop\n        /* \"#utility.yul\":1989:2060   */\n      tag_316\n        /* \"#utility.yul\":2057:2058   */\n      0x00\n        /* \"#utility.yul\":2046:2055   */\n      dup4\n        /* \"#utility.yul\":2042:2059   */\n      add\n        /* \"#utility.yul\":2033:2039   */\n      dup5\n        /* \"#utility.yul\":1989:2060   */\n      tag_247\n      jump\t// in\n    tag_316:\n        /* \"#utility.yul\":1845:2067   */\n      swap3\n      swap2\n      pop\n      pop\n      jump\t// out\n        /* \"#utility.yul\":2073:2295   */\n    tag_46:\n        /* \"#utility.yul\":2166:2170   */\n      0x00\n        /* \"#utility.yul\":2204:2206   */\n      0x20\n        /* \"#utility.yul\":2193:2202   */\n      dup3\n        /* \"#utility.yul\":2189:2207   */\n      add\n        /* \"#utility.yul\":2181:2207   */\n      swap1\n      pop\n        /* \"#utility.yul\":2217:2288   */\n      tag_318\n        /* \"#utility.yul\":2285:2286   */\n      0x00\n        /* \"#utility.yul\":2274:2283   */\n      dup4\n        /* \"#utility.yul\":2270:2287   */\n      add\n        /* \"#utility.yul\":2261:2267   */\n      dup5\n        /* \"#utility.yul\":2217:2288   */\n      tag_239\n      jump\t// in\n    tag_318:\n        /* \"#utility.yul\":2073:2295   */\n      swap3\n      swap2\n      pop\n      pop\n      jump\t// out\n        /* \"#utility.yul\":2301:2423   */\n    tag_248:\n        /* \"#utility.yul\":2374:2398   */\n      tag_320\n        /* \"#utility.yul\":2392:2397   */\n      dup2\n        /* \"#utility.yul\":2374:2398   */\n      tag_246\n      jump\t// in\n    tag_320:\n        /* \"#utility.yul\":2367:2372   */\n      dup2\n        /* \"#utility.yul\":2364:2399   */\n      eq\n        /* \"#utility.yul\":2354:2417   */\n      tag_321\n      jumpi\n        /* \"#utility.yul\":2413:2414   */\n      0x00\n        /* \"#utility.yul\":2410:2411   */\n      dup1\n        /* \"#utility.yul\":2403:2415   */\n      revert\n        /* \"#utility.yul\":2354:2417   */\n    tag_321:\n        /* \"#utility.yul\":2301:2423   */\n      pop\n      jump\t// out\n        /* \"#utility.yul\":2429:2568   */\n    tag_249:\n        /* \"#utility.yul\":2475:2480   */\n      0x00\n        /* \"#utility.yul\":2513:2519   */\n      dup2\n        /* \"#utility.yul\":2500:2520   */\n      calldataload\n        /* \"#utility.yul\":2491:2520   */\n      swap1\n      pop\n        /* \"#utility.yul\":2529:2562   */\n      tag_323\n        /* \"#utility.yul\":2556:2561   */\n      dup2\n        /* \"#utility.yul\":2529:2562   */\n      tag_248\n      jump\t// in\n    tag_323:\n        /* \"#utility.yul\":2429:2568   */\n      swap3\n      swap2\n      pop\n      pop\n      jump\t// out\n        /* \"#utility.yul\":2574:2903   */\n    tag_50:\n        /* \"#utility.yul\":2633:2639   */\n      0x00\n        /* \"#utility.yul\":2682:2684   */\n      0x20\n        /* \"#utility.yul\":2670:2679   */\n      dup3\n        /* \"#utility.yul\":2661:2668   */\n      dup5\n        /* \"#utility.yul\":2657:2680   */\n      sub\n        /* \"#utility.yul\":2653:2685   */\n      slt\n        /* \"#utility.yul\":2650:2769   */\n      iszero\n      tag_325\n      jumpi\n        /* \"#utility.yul\":2688:2767   */\n      tag_326\n      tag_241\n      jump\t// in\n    tag_326:\n        /* \"#utility.yul\":2650:2769   */\n    tag_325:\n        /* \"#utility.yul\":2808:2809   */\n      0x00\n        /* \"#utility.yul\":2833:2886   */\n      tag_327\n        /* \"#utility.yul\":2878:2885   */\n      dup5\n        /* \"#utility.yul\":2869:2875   */\n      dup3\n        /* \"#utility.yul\":2858:2867   */\n      dup6\n        /* \"#utility.yul\":2854:2876   */\n      add\n        /* \"#utility.yul\":2833:2886   */\n      tag_249\n      jump\t// in\n    tag_327:\n        /* \"#utility.yul\":2823:2886   */\n      swap2\n      pop\n        /* \"#utility.yul\":2779:2896   */\n      pop\n        /* \"#utility.yul\":2574:2903   */\n      swap3\n      swap2\n      pop\n      pop\n      jump\t// out\n        /* \"#utility.yul\":2909:2999   */\n    tag_250:\n        /* \"#utility.yul\":2943:2950   */\n      0x00\n        /* \"#utility.yul\":2986:2991   */\n      dup2\n        /* \"#utility.yul\":2979:2992   */\n      iszero\n        /* \"#utility.yul\":2972:2993   */\n      iszero\n        /* \"#utility.yul\":2961:2993   */\n      swap1\n      pop\n        /* \"#utility.yul\":2909:2999   */\n      swap2\n      swap1\n      pop\n      jump\t// out\n        /* \"#utility.yul\":3005:3114   */\n    tag_251:\n        /* \"#utility.yul\":3086:3107   */\n      tag_330\n        /* \"#utility.yul\":3101:3106   */\n      dup2\n        /* \"#utility.yul\":3086:3107   */\n      tag_250\n      jump\t// in\n    tag_330:\n        /* \"#utility.yul\":3081:3084   */\n      dup3\n        /* \"#utility.yul\":3074:3108   */\n      mstore\n        /* \"#utility.yul\":3005:3114   */\n      pop\n      pop\n      jump\t// out\n        /* \"#utility.yul\":3120:3330   */\n    tag_53:\n        /* \"#utility.yul\":3207:3211   */\n      0x00\n        /* \"#utility.yul\":3245:3247   */\n      0x20\n        /* \"#utility.yul\":3234:3243   */\n      dup3\n        /* \"#utility.yul\":3230:3248   */\n      add\n        /* \"#utility.yul\":3222:3248   */\n      swap1\n      pop\n        /* \"#utility.yul\":3258:3323   */\n      tag_332\n        /* \"#utility.yul\":3320:3321   */\n      0x00\n        /* \"#utility.yul\":3309:3318   */\n      dup4\n        /* \"#utility.yul\":3305:3322   */\n      add\n        /* \"#utility.yul\":3296:3302   */\n      dup5\n        /* \"#utility.yul\":3258:3323   */\n      tag_251\n      jump\t// in\n    tag_332:\n        /* \"#utility.yul\":3120:3330   */\n      swap3\n      swap2\n      pop\n      pop\n      jump\t// out\n        /* \"#utility.yul\":3336:3434   */\n    tag_252:\n        /* \"#utility.yul\":3387:3393   */\n      0x00\n        /* \"#utility.yul\":3421:3426   */\n      dup2\n        /* \"#utility.yul\":3415:3427   */\n      mload\n        /* \"#utility.yul\":3405:3427   */\n      swap1\n      pop\n        /* \"#utility.yul\":3336:3434   */\n      swap2\n      swap1\n      pop\n      jump\t// out\n        /* \"#utility.yul\":3440:3608   */\n    tag_253:\n        /* \"#utility.yul\":3523:3534   */\n      0x00\n        /* \"#utility.yul\":3557:3563   */\n      dup3\n        /* \"#utility.yul\":3552:3555   */\n      dup3\n        /* \"#utility.yul\":3545:3564   */\n      mstore\n        /* \"#utility.yul\":3597:3601   */\n      0x20\n        /* \"#utility.yul\":3592:3595   */\n      dup3\n        /* \"#utility.yul\":3588:3602   */\n      add\n        /* \"#utility.yul\":3573:3602   */\n      swap1\n      pop\n        /* \"#utility.yul\":3440:3608   */\n      swap3\n      swap2\n      pop\n      pop\n      jump\t// out\n        /* \"#utility.yul\":3614:3860   */\n    tag_254:\n        /* \"#utility.yul\":3695:3696   */\n      0x00\n        /* \"#utility.yul\":3705:3818   */\n    tag_336:\n        /* \"#utility.yul\":3719:3725   */\n      dup4\n        /* \"#utility.yul\":3716:3717   */\n      dup2\n        /* \"#utility.yul\":3713:3726   */\n      lt\n        /* \"#utility.yul\":3705:3818   */\n      iszero\n      tag_338\n      jumpi\n        /* \"#utility.yul\":3804:3805   */\n      dup1\n        /* \"#utility.yul\":3799:3802   */\n      dup3\n        /* \"#utility.yul\":3795:3806   */\n      add\n        /* \"#utility.yul\":3789:3807   */\n      mload\n        /* \"#utility.yul\":3785:3786   */\n      dup2\n        /* \"#utility.yul\":3780:3783   */\n      dup5\n        /* \"#utility.yul\":3776:3787   */\n      add\n        /* \"#utility.yul\":3769:3808   */\n      mstore\n        /* \"#utility.yul\":3741:3743   */\n      0x20\n        /* \"#utility.yul\":3738:3739   */\n      dup2\n        /* \"#utility.yul\":3734:3744   */\n      add\n        /* \"#utility.yul\":3729:3744   */\n      swap1\n      pop\n        /* \"#utility.yul\":3705:3818   */\n      jump(tag_336)\n    tag_338:\n        /* \"#utility.yul\":3852:3853   */\n      0x00\n        /* \"#utility.yul\":3843:3849   */\n      dup5\n        /* \"#utility.yul\":3838:3841   */\n      dup5\n        /* \"#utility.yul\":3834:3850   */\n      add\n        /* \"#utility.yul\":3827:3854   */\n      mstore\n        /* \"#utility.yul\":3676:3860   */\n      pop\n        /* \"#utility.yul\":3614:3860   */\n      pop\n      pop\n      pop\n      jump\t// out\n        /* \"#utility.yul\":3866:3968   */\n    tag_255:\n        /* \"#utility.yul\":3907:3913   */\n      0x00\n        /* \"#utility.yul\":3958:3960   */\n      0x1f\n        /* \"#utility.yul\":3954:3961   */\n      not\n        /* \"#utility.yul\":3949:3951   */\n      0x1f\n        /* \"#utility.yul\":3942:3947   */\n      dup4\n        /* \"#utility.yul\":3938:3952   */\n      add\n        /* \"#utility.yul\":3934:3962   */\n      and\n        /* \"#utility.yul\":3924:3962   */\n      swap1\n      pop\n        /* \"#utility.yul\":3866:3968   */\n      swap2\n      swap1\n      pop\n      jump\t// out\n        /* \"#utility.yul\":3974:4347   */\n    tag_256:\n        /* \"#utility.yul\":4060:4063   */\n      0x00\n        /* \"#utility.yul\":4088:4126   */\n      tag_341\n        /* \"#utility.yul\":4120:4125   */\n      dup3\n        /* \"#utility.yul\":4088:4126   */\n      tag_252\n      jump\t// in\n    tag_341:\n        /* \"#utility.yul\":4142:4212   */\n      tag_342\n        /* \"#utility.yul\":4205:4211   */\n      dup2\n        /* \"#utility.yul\":4200:4203   */\n      dup6\n        /* \"#utility.yul\":4142:4212   */\n      tag_253\n      jump\t// in\n    tag_342:\n        /* \"#utility.yul\":4135:4212   */\n      swap4\n      pop\n        /* \"#utility.yul\":4221:4286   */\n      tag_343\n        /* \"#utility.yul\":4279:4285   */\n      dup2\n        /* \"#utility.yul\":4274:4277   */\n      dup6\n        /* \"#utility.yul\":4267:4271   */\n      0x20\n        /* \"#utility.yul\":4260:4265   */\n      dup7\n        /* \"#utility.yul\":4256:4272   */\n      add\n        /* \"#utility.yul\":4221:4286   */\n      tag_254\n      jump\t// in\n    tag_343:\n        /* \"#utility.yul\":4311:4340   */\n      tag_344\n        /* \"#utility.yul\":4333:4339   */\n      dup2\n        /* \"#utility.yul\":4311:4340   */\n      tag_255\n      jump\t// in\n    tag_344:\n        /* \"#utility.yul\":4306:4309   */\n      dup5\n        /* \"#utility.yul\":4302:4341   */\n      add\n        /* \"#utility.yul\":4295:4341   */\n      swap2\n      pop\n        /* \"#utility.yul\":4064:4347   */\n      pop\n        /* \"#utility.yul\":3974:4347   */\n      swap3\n      swap2\n      pop\n      pop\n      jump\t// out\n        /* \"#utility.yul\":4353:5092   */\n    tag_59:\n        /* \"#utility.yul\":4570:4574   */\n      0x00\n        /* \"#utility.yul\":4608:4611   */\n      0xa0\n        /* \"#utility.yul\":4597:4606   */\n      dup3\n        /* \"#utility.yul\":4593:4612   */\n      add\n        /* \"#utility.yul\":4585:4612   */\n      swap1\n      pop\n        /* \"#utility.yul\":4622:4693   */\n      tag_346\n        /* \"#utility.yul\":4690:4691   */\n      0x00\n        /* \"#utility.yul\":4679:4688   */\n      dup4\n        /* \"#utility.yul\":4675:4692   */\n      add\n        /* \"#utility.yul\":4666:4672   */\n      dup9\n        /* \"#utility.yul\":4622:4693   */\n      tag_247\n      jump\t// in\n    tag_346:\n        /* \"#utility.yul\":4703:4775   */\n      tag_347\n        /* \"#utility.yul\":4771:4773   */\n      0x20\n        /* \"#utility.yul\":4760:4769   */\n      dup4\n        /* \"#utility.yul\":4756:4774   */\n      add\n        /* \"#utility.yul\":4747:4753   */\n      dup8\n        /* \"#utility.yul\":4703:4775   */\n      tag_239\n      jump\t// in\n    tag_347:\n        /* \"#utility.yul\":4822:4831   */\n      dup2\n        /* \"#utility.yul\":4816:4820   */\n      dup2\n        /* \"#utility.yul\":4812:4832   */\n      sub\n        /* \"#utility.yul\":4807:4809   */\n      0x40\n        /* \"#utility.yul\":4796:4805   */\n      dup4\n        /* \"#utility.yul\":4792:4810   */\n      add\n        /* \"#utility.yul\":4785:4833   */\n      mstore\n        /* \"#utility.yul\":4850:4926   */\n      tag_348\n        /* \"#utility.yul\":4921:4925   */\n      dup2\n        /* \"#utility.yul\":4912:4918   */\n      dup7\n        /* \"#utility.yul\":4850:4926   */\n      tag_256\n      jump\t// in\n    tag_348:\n        /* \"#utility.yul\":4842:4926   */\n      swap1\n      pop\n        /* \"#utility.yul\":4936:5002   */\n      tag_349\n        /* \"#utility.yul\":4998:5000   */\n      0x60\n        /* \"#utility.yul\":4987:4996   */\n      dup4\n        /* \"#utility.yul\":4983:5001   */\n      add\n        /* \"#utility.yul\":4974:4980   */\n      dup6\n        /* \"#utility.yul\":4936:5002   */\n      tag_251\n      jump\t// in\n    tag_349:\n        /* \"#utility.yul\":5012:5085   */\n      tag_350\n        /* \"#utility.yul\":5080:5083   */\n      0x80\n        /* \"#utility.yul\":5069:5078   */\n      dup4\n        /* \"#utility.yul\":5065:5084   */\n      add\n        /* \"#utility.yul\":5056:5062   */\n      dup5\n        /* \"#utility.yul\":5012:5085   */\n      tag_239\n      jump\t// in\n    tag_350:\n        /* \"#utility.yul\":4353:5092   */\n      swap7\n      swap6\n      pop\n      pop\n      pop\n      pop\n      pop\n      pop\n      jump\t// out\n        /* \"#utility.yul\":5098:5572   */\n    tag_66:\n        /* \"#utility.yul\":5166:5172   */\n      0x00\n        /* \"#utility.yul\":5174:5180   */\n      dup1\n        /* \"#utility.yul\":5223:5225   */\n      0x40\n        /* \"#utility.yul\":5211:5220   */\n      dup4\n        /* \"#utility.yul\":5202:5209   */\n      dup6\n        /* \"#utility.yul\":5198:5221   */\n      sub\n        /* \"#utility.yul\":5194:5226   */\n      slt\n        /* \"#utility.yul\":5191:5310   */\n      iszero\n      tag_352\n      jumpi\n        /* \"#utility.yul\":5229:5308   */\n      tag_353\n      tag_241\n      jump\t// in\n    tag_353:\n        /* \"#utility.yul\":5191:5310   */\n    tag_352:\n        /* \"#utility.yul\":5349:5350   */\n      0x00\n        /* \"#utility.yul\":5374:5427   */\n      tag_354\n        /* \"#utility.yul\":5419:5426   */\n      dup6\n        /* \"#utility.yul\":5410:5416   */\n      dup3\n        /* \"#utility.yul\":5399:5408   */\n      dup7\n        /* \"#utility.yul\":5395:5417   */\n      add\n        /* \"#utility.yul\":5374:5427   */\n      tag_249\n      jump\t// in\n    tag_354:\n        /* \"#utility.yul\":5364:5427   */\n      swap3\n      pop\n        /* \"#utility.yul\":5320:5437   */\n      pop\n        /* \"#utility.yul\":5476:5478   */\n      0x20\n        /* \"#utility.yul\":5502:5555   */\n      tag_355\n        /* \"#utility.yul\":5547:5554   */\n      dup6\n        /* \"#utility.yul\":5538:5544   */\n      dup3\n        /* \"#utility.yul\":5527:5536   */\n      dup7\n        /* \"#utility.yul\":5523:5545   */\n      add\n        /* \"#utility.yul\":5502:5555   */\n      tag_249\n      jump\t// in\n    tag_355:\n        /* \"#utility.yul\":5492:5555   */\n      swap2\n      pop\n        /* \"#utility.yul\":5447:5565   */\n      pop\n        /* \"#utility.yul\":5098:5572   */\n      swap3\n      pop\n      swap3\n      swap1\n      pop\n      jump\t// out\n        /* \"#utility.yul\":5578:6052   */\n    tag_71:\n        /* \"#utility.yul\":5646:5652   */\n      0x00\n        /* \"#utility.yul\":5654:5660   */\n      dup1\n        /* \"#utility.yul\":5703:5705   */\n      0x40\n        /* \"#utility.yul\":5691:5700   */\n      dup4\n        /* \"#utility.yul\":5682:5689   */\n      dup6\n        /* \"#utility.yul\":5678:5701   */\n      sub\n        /* \"#utility.yul\":5674:5706   */\n      slt\n        /* \"#utility.yul\":5671:5790   */\n      iszero\n      tag_357\n      jumpi\n        /* \"#utility.yul\":5709:5788   */\n      tag_358\n      tag_241\n      jump\t// in\n    tag_358:\n        /* \"#utility.yul\":5671:5790   */\n    tag_357:\n        /* \"#utility.yul\":5829:5830   */\n      0x00\n        /* \"#utility.yul\":5854:5907   */\n      tag_359\n        /* \"#utility.yul\":5899:5906   */\n      dup6\n        /* \"#utility.yul\":5890:5896   */\n      dup3\n        /* \"#utility.yul\":5879:5888   */\n      dup7\n        /* \"#utility.yul\":5875:5897   */\n      add\n        /* \"#utility.yul\":5854:5907   */\n      tag_244\n      jump\t// in\n    tag_359:\n        /* \"#utility.yul\":5844:5907   */\n      swap3\n      pop\n        /* \"#utility.yul\":5800:5917   */\n      pop\n        /* \"#utility.yul\":5956:5958   */\n      0x20\n        /* \"#utility.yul\":5982:6035   */\n      tag_360\n        /* \"#utility.yul\":6027:6034   */\n      dup6\n        /* \"#utility.yul\":6018:6024   */\n      dup3\n        /* \"#utility.yul\":6007:6016   */\n      dup7\n        /* \"#utility.yul\":6003:6025   */\n      add\n        /* \"#utility.yul\":5982:6035   */\n      tag_249\n      jump\t// in\n    tag_360:\n        /* \"#utility.yul\":5972:6035   */\n      swap2\n      pop\n        /* \"#utility.yul\":5927:6045   */\n      pop\n        /* \"#utility.yul\":5578:6052   */\n      swap3\n      pop\n      swap3\n      swap1\n      pop\n      jump\t// out\n        /* \"#utility.yul\":6058:6908   */\n    tag_79:\n        /* \"#utility.yul\":6303:6307   */\n      0x00\n        /* \"#utility.yul\":6341:6344   */\n      0xc0\n        /* \"#utility.yul\":6330:6339   */\n      dup3\n        /* \"#utility.yul\":6326:6345   */\n      add\n        /* \"#utility.yul\":6318:6345   */\n      swap1\n      pop\n        /* \"#utility.yul\":6355:6426   */\n      tag_362\n        /* \"#utility.yul\":6423:6424   */\n      0x00\n        /* \"#utility.yul\":6412:6421   */\n      dup4\n        /* \"#utility.yul\":6408:6425   */\n      add\n        /* \"#utility.yul\":6399:6405   */\n      dup10\n        /* \"#utility.yul\":6355:6426   */\n      tag_247\n      jump\t// in\n    tag_362:\n        /* \"#utility.yul\":6436:6508   */\n      tag_363\n        /* \"#utility.yul\":6504:6506   */\n      0x20\n        /* \"#utility.yul\":6493:6502   */\n      dup4\n        /* \"#utility.yul\":6489:6507   */\n      add\n        /* \"#utility.yul\":6480:6486   */\n      dup9\n        /* \"#utility.yul\":6436:6508   */\n      tag_239\n      jump\t// in\n    tag_363:\n        /* \"#utility.yul\":6555:6564   */\n      dup2\n        /* \"#utility.yul\":6549:6553   */\n      dup2\n        /* \"#utility.yul\":6545:6565   */\n      sub\n        /* \"#utility.yul\":6540:6542   */\n      0x40\n        /* \"#utility.yul\":6529:6538   */\n      dup4\n        /* \"#utility.yul\":6525:6543   */\n      add\n        /* \"#utility.yul\":6518:6566   */\n      mstore\n        /* \"#utility.yul\":6583:6659   */\n      tag_364\n        /* \"#utility.yul\":6654:6658   */\n      dup2\n        /* \"#utility.yul\":6645:6651   */\n      dup8\n        /* \"#utility.yul\":6583:6659   */\n      tag_256\n      jump\t// in\n    tag_364:\n        /* \"#utility.yul\":6575:6659   */\n      swap1\n      pop\n        /* \"#utility.yul\":6669:6735   */\n      tag_365\n        /* \"#utility.yul\":6731:6733   */\n      0x60\n        /* \"#utility.yul\":6720:6729   */\n      dup4\n        /* \"#utility.yul\":6716:6734   */\n      add\n        /* \"#utility.yul\":6707:6713   */\n      dup7\n        /* \"#utility.yul\":6669:6735   */\n      tag_251\n      jump\t// in\n    tag_365:\n        /* \"#utility.yul\":6745:6818   */\n      tag_366\n        /* \"#utility.yul\":6813:6816   */\n      0x80\n        /* \"#utility.yul\":6802:6811   */\n      dup4\n        /* \"#utility.yul\":6798:6817   */\n      add\n        /* \"#utility.yul\":6789:6795   */\n      dup6\n        /* \"#utility.yul\":6745:6818   */\n      tag_239\n      jump\t// in\n    tag_366:\n        /* \"#utility.yul\":6828:6901   */\n      tag_367\n        /* \"#utility.yul\":6896:6899   */\n      0xa0\n        /* \"#utility.yul\":6885:6894   */\n      dup4\n        /* \"#utility.yul\":6881:6900   */\n      add\n        /* \"#utility.yul\":6872:6878   */\n      dup5\n        /* \"#utility.yul\":6828:6901   */\n      tag_239\n      jump\t// in\n    tag_367:\n        /* \"#utility.yul\":6058:6908   */\n      swap8\n      swap7\n      pop\n      pop\n      pop\n      pop\n      pop\n      pop\n      pop\n      jump\t// out\n        /* \"#utility.yul\":6914:7028   */\n    tag_257:\n        /* \"#utility.yul\":6981:6987   */\n      0x00\n        /* \"#utility.yul\":7015:7020   */\n      dup2\n        /* \"#utility.yul\":7009:7021   */\n      mload\n        /* \"#utility.yul\":6999:7021   */\n      swap1\n      pop\n        /* \"#utility.yul\":6914:7028   */\n      swap2\n      swap1\n      pop\n      jump\t// out\n        /* \"#utility.yul\":7034:7218   */\n    tag_258:\n        /* \"#utility.yul\":7133:7144   */\n      0x00\n        /* \"#utility.yul\":7167:7173   */\n      dup3\n        /* \"#utility.yul\":7162:7165   */\n      dup3\n        /* \"#utility.yul\":7155:7174   */\n      mstore\n        /* \"#utility.yul\":7207:7211   */\n      0x20\n        /* \"#utility.yul\":7202:7205   */\n      dup3\n        /* \"#utility.yul\":7198:7212   */\n      add\n        /* \"#utility.yul\":7183:7212   */\n      swap1\n      pop\n        /* \"#utility.yul\":7034:7218   */\n      swap3\n      swap2\n      pop\n      pop\n      jump\t// out\n        /* \"#utility.yul\":7224:7356   */\n    tag_259:\n        /* \"#utility.yul\":7291:7295   */\n      0x00\n        /* \"#utility.yul\":7314:7317   */\n      dup2\n        /* \"#utility.yul\":7306:7317   */\n      swap1\n      pop\n        /* \"#utility.yul\":7344:7348   */\n      0x20\n        /* \"#utility.yul\":7339:7342   */\n      dup3\n        /* \"#utility.yul\":7335:7349   */\n      add\n        /* \"#utility.yul\":7327:7349   */\n      swap1\n      pop\n        /* \"#utility.yul\":7224:7356   */\n      swap2\n      swap1\n      pop\n      jump\t// out\n        /* \"#utility.yul\":7362:7470   */\n    tag_260:\n        /* \"#utility.yul\":7439:7463   */\n      tag_372\n        /* \"#utility.yul\":7457:7462   */\n      dup2\n        /* \"#utility.yul\":7439:7463   */\n      tag_246\n      jump\t// in\n    tag_372:\n        /* \"#utility.yul\":7434:7437   */\n      dup3\n        /* \"#utility.yul\":7427:7464   */\n      mstore\n        /* \"#utility.yul\":7362:7470   */\n      pop\n      pop\n      jump\t// out\n        /* \"#utility.yul\":7476:7655   */\n    tag_261:\n        /* \"#utility.yul\":7545:7555   */\n      0x00\n        /* \"#utility.yul\":7566:7612   */\n      tag_374\n        /* \"#utility.yul\":7608:7611   */\n      dup4\n        /* \"#utility.yul\":7600:7606   */\n      dup4\n        /* \"#utility.yul\":7566:7612   */\n      tag_260\n      jump\t// in\n    tag_374:\n        /* \"#utility.yul\":7644:7648   */\n      0x20\n        /* \"#utility.yul\":7639:7642   */\n      dup4\n        /* \"#utility.yul\":7635:7649   */\n      add\n        /* \"#utility.yul\":7621:7649   */\n      swap1\n      pop\n        /* \"#utility.yul\":7476:7655   */\n      swap3\n      swap2\n      pop\n      pop\n      jump\t// out\n        /* \"#utility.yul\":7661:7774   */\n    tag_262:\n        /* \"#utility.yul\":7731:7735   */\n      0x00\n        /* \"#utility.yul\":7763:7767   */\n      0x20\n        /* \"#utility.yul\":7758:7761   */\n      dup3\n        /* \"#utility.yul\":7754:7768   */\n      add\n        /* \"#utility.yul\":7746:7768   */\n      swap1\n      pop\n        /* \"#utility.yul\":7661:7774   */\n      swap2\n      swap1\n      pop\n      jump\t// out\n        /* \"#utility.yul\":7810:8542   */\n    tag_263:\n        /* \"#utility.yul\":7929:7932   */\n      0x00\n        /* \"#utility.yul\":7958:8012   */\n      tag_377\n        /* \"#utility.yul\":8006:8011   */\n      dup3\n        /* \"#utility.yul\":7958:8012   */\n      tag_257\n      jump\t// in\n    tag_377:\n        /* \"#utility.yul\":8028:8114   */\n      tag_378\n        /* \"#utility.yul\":8107:8113   */\n      dup2\n        /* \"#utility.yul\":8102:8105   */\n      dup6\n        /* \"#utility.yul\":8028:8114   */\n      tag_258\n      jump\t// in\n    tag_378:\n        /* \"#utility.yul\":8021:8114   */\n      swap4\n      pop\n        /* \"#utility.yul\":8138:8194   */\n      tag_379\n        /* \"#utility.yul\":8188:8193   */\n      dup4\n        /* \"#utility.yul\":8138:8194   */\n      tag_259\n      jump\t// in\n    tag_379:\n        /* \"#utility.yul\":8217:8224   */\n      dup1\n        /* \"#utility.yul\":8248:8249   */\n      0x00\n        /* \"#utility.yul\":8233:8517   */\n    tag_380:\n        /* \"#utility.yul\":8258:8264   */\n      dup4\n        /* \"#utility.yul\":8255:8256   */\n      dup2\n        /* \"#utility.yul\":8252:8265   */\n      lt\n        /* \"#utility.yul\":8233:8517   */\n      iszero\n      tag_382\n      jumpi\n        /* \"#utility.yul\":8334:8340   */\n      dup2\n        /* \"#utility.yul\":8328:8341   */\n      mload\n        /* \"#utility.yul\":8361:8424   */\n      tag_383\n        /* \"#utility.yul\":8420:8423   */\n      dup9\n        /* \"#utility.yul\":8405:8418   */\n      dup3\n        /* \"#utility.yul\":8361:8424   */\n      tag_261\n      jump\t// in\n    tag_383:\n        /* \"#utility.yul\":8354:8424   */\n      swap8\n      pop\n        /* \"#utility.yul\":8447:8507   */\n      tag_384\n        /* \"#utility.yul\":8500:8506   */\n      dup4\n        /* \"#utility.yul\":8447:8507   */\n      tag_262\n      jump\t// in\n    tag_384:\n        /* \"#utility.yul\":8437:8507   */\n      swap3\n      pop\n        /* \"#utility.yul\":8293:8517   */\n      pop\n        /* \"#utility.yul\":8280:8281   */\n      0x01\n        /* \"#utility.yul\":8277:8278   */\n      dup2\n        /* \"#utility.yul\":8273:8282   */\n      add\n        /* \"#utility.yul\":8268:8282   */\n      swap1\n      pop\n        /* \"#utility.yul\":8233:8517   */\n      jump(tag_380)\n    tag_382:\n        /* \"#utility.yul\":8237:8251   */\n      pop\n        /* \"#utility.yul\":8533:8536   */\n      dup6\n        /* \"#utility.yul\":8526:8536   */\n      swap4\n      pop\n        /* \"#utility.yul\":7934:8542   */\n      pop\n      pop\n      pop\n        /* \"#utility.yul\":7810:8542   */\n      swap3\n      swap2\n      pop\n      pop\n      jump\t// out\n        /* \"#utility.yul\":8548:8921   */\n    tag_84:\n        /* \"#utility.yul\":8691:8695   */\n      0x00\n        /* \"#utility.yul\":8729:8731   */\n      0x20\n        /* \"#utility.yul\":8718:8727   */\n      dup3\n        /* \"#utility.yul\":8714:8732   */\n      add\n        /* \"#utility.yul\":8706:8732   */\n      swap1\n      pop\n        /* \"#utility.yul\":8778:8787   */\n      dup2\n        /* \"#utility.yul\":8772:8776   */\n      dup2\n        /* \"#utility.yul\":8768:8788   */\n      sub\n        /* \"#utility.yul\":8764:8765   */\n      0x00\n        /* \"#utility.yul\":8753:8762   */\n      dup4\n        /* \"#utility.yul\":8749:8766   */\n      add\n        /* \"#utility.yul\":8742:8789   */\n      mstore\n        /* \"#utility.yul\":8806:8914   */\n      tag_386\n        /* \"#utility.yul\":8909:8913   */\n      dup2\n        /* \"#utility.yul\":8900:8906   */\n      dup5\n        /* \"#utility.yul\":8806:8914   */\n      tag_263\n      jump\t// in\n    tag_386:\n        /* \"#utility.yul\":8798:8914   */\n      swap1\n      pop\n        /* \"#utility.yul\":8548:8921   */\n      swap3\n      swap2\n      pop\n      pop\n      jump\t// out\n        /* \"#utility.yul\":8927:9013   */\n    tag_264:\n        /* \"#utility.yul\":8962:8969   */\n      0x00\n        /* \"#utility.yul\":9002:9006   */\n      0xff\n        /* \"#utility.yul\":8995:9000   */\n      dup3\n        /* \"#utility.yul\":8991:9007   */\n      and\n        /* \"#utility.yul\":8980:9007   */\n      swap1\n      pop\n        /* \"#utility.yul\":8927:9013   */\n      swap2\n      swap1\n      pop\n      jump\t// out\n        /* \"#utility.yul\":9019:9131   */\n    tag_265:\n        /* \"#utility.yul\":9102:9124   */\n      tag_389\n        /* \"#utility.yul\":9118:9123   */\n      dup2\n        /* \"#utility.yul\":9102:9124   */\n      tag_264\n      jump\t// in\n    tag_389:\n        /* \"#utility.yul\":9097:9100   */\n      dup3\n        /* \"#utility.yul\":9090:9125   */\n      mstore\n        /* \"#utility.yul\":9019:9131   */\n      pop\n      pop\n      jump\t// out\n        /* \"#utility.yul\":9137:9351   */\n    tag_89:\n        /* \"#utility.yul\":9226:9230   */\n      0x00\n        /* \"#utility.yul\":9264:9266   */\n      0x20\n        /* \"#utility.yul\":9253:9262   */\n      dup3\n        /* \"#utility.yul\":9249:9267   */\n      add\n        /* \"#utility.yul\":9241:9267   */\n      swap1\n      pop\n        /* \"#utility.yul\":9277:9344   */\n      tag_391\n        /* \"#utility.yul\":9341:9342   */\n      0x00\n        /* \"#utility.yul\":9330:9339   */\n      dup4\n        /* \"#utility.yul\":9326:9343   */\n      add\n        /* \"#utility.yul\":9317:9323   */\n      dup5\n        /* \"#utility.yul\":9277:9344   */\n      tag_265\n      jump\t// in\n    tag_391:\n        /* \"#utility.yul\":9137:9351   */\n      swap3\n      swap2\n      pop\n      pop\n      jump\t// out\n        /* \"#utility.yul\":9357:9526   */\n    tag_266:\n        /* \"#utility.yul\":9441:9452   */\n      0x00\n        /* \"#utility.yul\":9475:9481   */\n      dup3\n        /* \"#utility.yul\":9470:9473   */\n      dup3\n        /* \"#utility.yul\":9463:9482   */\n      mstore\n        /* \"#utility.yul\":9515:9519   */\n      0x20\n        /* \"#utility.yul\":9510:9513   */\n      dup3\n        /* \"#utility.yul\":9506:9520   */\n      add\n        /* \"#utility.yul\":9491:9520   */\n      swap1\n      pop\n        /* \"#utility.yul\":9357:9526   */\n      swap3\n      swap2\n      pop\n      pop\n      jump\t// out\n        /* \"#utility.yul\":9532:9691   */\n    tag_267:\n        /* \"#utility.yul\":9672:9683   */\n      0x6e6f74206f776e65720000000000000000000000000000000000000000000000\n        /* \"#utility.yul\":9668:9669   */\n      0x00\n        /* \"#utility.yul\":9660:9666   */\n      dup3\n        /* \"#utility.yul\":9656:9670   */\n      add\n        /* \"#utility.yul\":9649:9684   */\n      mstore\n        /* \"#utility.yul\":9532:9691   */\n      pop\n      jump\t// out\n        /* \"#utility.yul\":9697:10062   */\n    tag_268:\n        /* \"#utility.yul\":9839:9842   */\n      0x00\n        /* \"#utility.yul\":9860:9926   */\n      tag_395\n        /* \"#utility.yul\":9924:9925   */\n      0x09\n        /* \"#utility.yul\":9919:9922   */\n      dup4\n        /* \"#utility.yul\":9860:9926   */\n      tag_266\n      jump\t// in\n    tag_395:\n        /* \"#utility.yul\":9853:9926   */\n      swap2\n      pop\n        /* \"#utility.yul\":9935:10028   */\n      tag_396\n        /* \"#utility.yul\":10024:10027   */\n      dup3\n        /* \"#utility.yul\":9935:10028   */\n      tag_267\n      jump\t// in\n    tag_396:\n        /* \"#utility.yul\":10053:10055   */\n      0x20\n        /* \"#utility.yul\":10048:10051   */\n      dup3\n        /* \"#utility.yul\":10044:10056   */\n      add\n        /* \"#utility.yul\":10037:10056   */\n      swap1\n      pop\n        /* \"#utility.yul\":9697:10062   */\n      swap2\n      swap1\n      pop\n      jump\t// out\n        /* \"#utility.yul\":10068:10487   */\n    tag_119:\n        /* \"#utility.yul\":10234:10238   */\n      0x00\n        /* \"#utility.yul\":10272:10274   */\n      0x20\n        /* \"#utility.yul\":10261:10270   */\n      dup3\n        /* \"#utility.yul\":10257:10275   */\n      add\n        /* \"#utility.yul\":10249:10275   */\n      swap1\n      pop\n        /* \"#utility.yul\":10321:10330   */\n      dup2\n        /* \"#utility.yul\":10315:10319   */\n      dup2\n        /* \"#utility.yul\":10311:10331   */\n      sub\n        /* \"#utility.yul\":10307:10308   */\n      0x00\n        /* \"#utility.yul\":10296:10305   */\n      dup4\n        /* \"#utility.yul\":10292:10309   */\n      add\n        /* \"#utility.yul\":10285:10332   */\n      mstore\n        /* \"#utility.yul\":10349:10480   */\n      tag_398\n        /* \"#utility.yul\":10475:10479   */\n      dup2\n        /* \"#utility.yul\":10349:10480   */\n      tag_268\n      jump\t// in\n    tag_398:\n        /* \"#utility.yul\":10341:10480   */\n      swap1\n      pop\n        /* \"#utility.yul\":10068:10487   */\n      swap2\n      swap1\n      pop\n      jump\t// out\n        /* \"#utility.yul\":10493:10660   */\n    tag_269:\n        /* \"#utility.yul\":10633:10652   */\n      0x747820646f6573206e6f74206578697374000000000000000000000000000000\n        /* \"#utility.yul\":10629:10630   */\n      0x00\n        /* \"#utility.yul\":10621:10627   */\n      dup3\n        /* \"#utility.yul\":10617:10631   */\n      add\n        /* \"#utility.yul\":10610:10653   */\n      mstore\n        /* \"#utility.yul\":10493:10660   */\n      pop\n      jump\t// out\n        /* \"#utility.yul\":10666:11032   */\n    tag_270:\n        /* \"#utility.yul\":10808:10811   */\n      0x00\n        /* \"#utility.yul\":10829:10896   */\n      tag_401\n        /* \"#utility.yul\":10893:10895   */\n      0x11\n        /* \"#utility.yul\":10888:10891   */\n      dup4\n        /* \"#utility.yul\":10829:10896   */\n      tag_266\n      jump\t// in\n    tag_401:\n        /* \"#utility.yul\":10822:10896   */\n      swap2\n      pop\n        /* \"#utility.yul\":10905:10998   */\n      tag_402\n        /* \"#utility.yul\":10994:10997   */\n      dup3\n        /* \"#utility.yul\":10905:10998   */\n      tag_269\n      jump\t// in\n    tag_402:\n        /* \"#utility.yul\":11023:11025   */\n      0x20\n        /* \"#utility.yul\":11018:11021   */\n      dup3\n        /* \"#utility.yul\":11014:11026   */\n      add\n        /* \"#utility.yul\":11007:11026   */\n      swap1\n      pop\n        /* \"#utility.yul\":10666:11032   */\n      swap2\n      swap1\n      pop\n      jump\t// out\n        /* \"#utility.yul\":11038:11457   */\n    tag_123:\n        /* \"#utility.yul\":11204:11208   */\n      0x00\n        /* \"#utility.yul\":11242:11244   */\n      0x20\n        /* \"#utility.yul\":11231:11240   */\n      dup3\n        /* \"#utility.yul\":11227:11245   */\n      add\n        /* \"#utility.yul\":11219:11245   */\n      swap1\n      pop\n        /* \"#utility.yul\":11291:11300   */\n      dup2\n        /* \"#utility.yul\":11285:11289   */\n      dup2\n        /* \"#utility.yul\":11281:11301   */\n      sub\n        /* \"#utility.yul\":11277:11278   */\n      0x00\n        /* \"#utility.yul\":11266:11275   */\n      dup4\n        /* \"#utility.yul\":11262:11279   */\n      add\n        /* \"#utility.yul\":11255:11302   */\n      mstore\n        /* \"#utility.yul\":11319:11450   */\n      tag_404\n        /* \"#utility.yul\":11445:11449   */\n      dup2\n        /* \"#utility.yul\":11319:11450   */\n      tag_270\n      jump\t// in\n    tag_404:\n        /* \"#utility.yul\":11311:11450   */\n      swap1\n      pop\n        /* \"#utility.yul\":11038:11457   */\n      swap2\n      swap1\n      pop\n      jump\t// out\n        /* \"#utility.yul\":11463:11643   */\n    tag_127:\n        /* \"#utility.yul\":11511:11588   */\n      0x4e487b7100000000000000000000000000000000000000000000000000000000\n        /* \"#utility.yul\":11508:11509   */\n      0x00\n        /* \"#utility.yul\":11501:11589   */\n      mstore\n        /* \"#utility.yul\":11608:11612   */\n      0x32\n        /* \"#utility.yul\":11605:11606   */\n      0x04\n        /* \"#utility.yul\":11598:11613   */\n      mstore\n        /* \"#utility.yul\":11632:11636   */\n      0x24\n        /* \"#utility.yul\":11629:11630   */\n      0x00\n        /* \"#utility.yul\":11622:11637   */\n      revert\n        /* \"#utility.yul\":11649:11818   */\n    tag_271:\n        /* \"#utility.yul\":11789:11810   */\n      0x747820616c726561647920657865637574656400000000000000000000000000\n        /* \"#utility.yul\":11785:11786   */\n      0x00\n        /* \"#utility.yul\":11777:11783   */\n      dup3\n        /* \"#utility.yul\":11773:11787   */\n      add\n        /* \"#utility.yul\":11766:11811   */\n      mstore\n        /* \"#utility.yul\":11649:11818   */\n      pop\n      jump\t// out\n        /* \"#utility.yul\":11824:12190   */\n    tag_272:\n        /* \"#utility.yul\":11966:11969   */\n      0x00\n        /* \"#utility.yul\":11987:12054   */\n      tag_408\n        /* \"#utility.yul\":12051:12053   */\n      0x13\n        /* \"#utility.yul\":12046:12049   */\n      dup4\n        /* \"#utility.yul\":11987:12054   */\n      tag_266\n      jump\t// in\n    tag_408:\n        /* \"#utility.yul\":11980:12054   */\n      swap2\n      pop\n        /* \"#utility.yul\":12063:12156   */\n      tag_409\n        /* \"#utility.yul\":12152:12155   */\n      dup3\n        /* \"#utility.yul\":12063:12156   */\n      tag_271\n      jump\t// in\n    tag_409:\n        /* \"#utility.yul\":12181:12183   */\n      0x20\n        /* \"#utility.yul\":12176:12179   */\n      dup3\n        /* \"#utility.yul\":12172:12184   */\n      add\n        /* \"#utility.yul\":12165:12184   */\n      swap1\n      pop\n        /* \"#utility.yul\":11824:12190   */\n      swap2\n      swap1\n      pop\n      jump\t// out\n        /* \"#utility.yul\":12196:12615   */\n    tag_131:\n        /* \"#utility.yul\":12362:12366   */\n      0x00\n        /* \"#utility.yul\":12400:12402   */\n      0x20\n        /* \"#utility.yul\":12389:12398   */\n      dup3\n        /* \"#utility.yul\":12385:12403   */\n      add\n        /* \"#utility.yul\":12377:12403   */\n      swap1\n      pop\n        /* \"#utility.yul\":12449:12458   */\n      dup2\n        /* \"#utility.yul\":12443:12447   */\n      dup2\n        /* \"#utility.yul\":12439:12459   */\n      sub\n        /* \"#utility.yul\":12435:12436   */\n      0x00\n        /* \"#utility.yul\":12424:12433   */\n      dup4\n        /* \"#utility.yul\":12420:12437   */\n      add\n        /* \"#utility.yul\":12413:12460   */\n      mstore\n        /* \"#utility.yul\":12477:12608   */\n      tag_411\n        /* \"#utility.yul\":12603:12607   */\n      dup2\n        /* \"#utility.yul\":12477:12608   */\n      tag_272\n      jump\t// in\n    tag_411:\n        /* \"#utility.yul\":12469:12608   */\n      swap1\n      pop\n        /* \"#utility.yul\":12196:12615   */\n      swap2\n      swap1\n      pop\n      jump\t// out\n        /* \"#utility.yul\":12621:12787   */\n    tag_273:\n        /* \"#utility.yul\":12761:12779   */\n      0x7478206e6f7420636f6e6669726d656400000000000000000000000000000000\n        /* \"#utility.yul\":12757:12758   */\n      0x00\n        /* \"#utility.yul\":12749:12755   */\n      dup3\n        /* \"#utility.yul\":12745:12759   */\n      add\n        /* \"#utility.yul\":12738:12780   */\n      mstore\n        /* \"#utility.yul\":12621:12787   */\n      pop\n      jump\t// out\n        /* \"#utility.yul\":12793:13159   */\n    tag_274:\n        /* \"#utility.yul\":12935:12938   */\n      0x00\n        /* \"#utility.yul\":12956:13023   */\n      tag_414\n        /* \"#utility.yul\":13020:13022   */\n      0x10\n        /* \"#utility.yul\":13015:13018   */\n      dup4\n        /* \"#utility.yul\":12956:13023   */\n      tag_266\n      jump\t// in\n    tag_414:\n        /* \"#utility.yul\":12949:13023   */\n      swap2\n      pop\n        /* \"#utility.yul\":13032:13125   */\n      tag_415\n        /* \"#utility.yul\":13121:13124   */\n      dup3\n        /* \"#utility.yul\":13032:13125   */\n      tag_273\n      jump\t// in\n    tag_415:\n        /* \"#utility.yul\":13150:13152   */\n      0x20\n        /* \"#utility.yul\":13145:13148   */\n      dup3\n        /* \"#utility.yul\":13141:13153   */\n      add\n        /* \"#utility.yul\":13134:13153   */\n      swap1\n      pop\n        /* \"#utility.yul\":12793:13159   */\n      swap2\n      swap1\n      pop\n      jump\t// out\n        /* \"#utility.yul\":13165:13584   */\n    tag_138:\n        /* \"#utility.yul\":13331:13335   */\n      0x00\n        /* \"#utility.yul\":13369:13371   */\n      0x20\n        /* \"#utility.yul\":13358:13367   */\n      dup3\n        /* \"#utility.yul\":13354:13372   */\n      add\n        /* \"#utility.yul\":13346:13372   */\n      swap1\n      pop\n        /* \"#utility.yul\":13418:13427   */\n      dup2\n        /* \"#utility.yul\":13412:13416   */\n      dup2\n        /* \"#utility.yul\":13408:13428   */\n      sub\n        /* \"#utility.yul\":13404:13405   */\n      0x00\n        /* \"#utility.yul\":13393:13402   */\n      dup4\n        /* \"#utility.yul\":13389:13406   */\n      add\n        /* \"#utility.yul\":13382:13429   */\n      mstore\n        /* \"#utility.yul\":13446:13577   */\n      tag_417\n        /* \"#utility.yul\":13572:13576   */\n      dup2\n        /* \"#utility.yul\":13446:13577   */\n      tag_274\n      jump\t// in\n    tag_417:\n        /* \"#utility.yul\":13438:13577   */\n      swap1\n      pop\n        /* \"#utility.yul\":13165:13584   */\n      swap2\n      swap1\n      pop\n      jump\t// out\n        /* \"#utility.yul\":13590:13770   */\n    tag_275:\n        /* \"#utility.yul\":13638:13715   */\n      0x4e487b7100000000000000000000000000000000000000000000000000000000\n        /* \"#utility.yul\":13635:13636   */\n      0x00\n        /* \"#utility.yul\":13628:13716   */\n      mstore\n        /* \"#utility.yul\":13735:13739   */\n      0x11\n        /* \"#utility.yul\":13732:13733   */\n      0x04\n        /* \"#utility.yul\":13725:13740   */\n      mstore\n        /* \"#utility.yul\":13759:13763   */\n      0x24\n        /* \"#utility.yul\":13756:13757   */\n      0x00\n        /* \"#utility.yul\":13749:13764   */\n      revert\n        /* \"#utility.yul\":13776:13970   */\n    tag_140:\n        /* \"#utility.yul\":13816:13820   */\n      0x00\n        /* \"#utility.yul\":13836:13856   */\n      tag_420\n        /* \"#utility.yul\":13854:13855   */\n      dup3\n        /* \"#utility.yul\":13836:13856   */\n      tag_238\n      jump\t// in\n    tag_420:\n        /* \"#utility.yul\":13831:13856   */\n      swap2\n      pop\n        /* \"#utility.yul\":13870:13890   */\n      tag_421\n        /* \"#utility.yul\":13888:13889   */\n      dup4\n        /* \"#utility.yul\":13870:13890   */\n      tag_238\n      jump\t// in\n    tag_421:\n        /* \"#utility.yul\":13865:13890   */\n      swap3\n      pop\n        /* \"#utility.yul\":13914:13915   */\n      dup3\n        /* \"#utility.yul\":13911:13912   */\n      dup3\n        /* \"#utility.yul\":13907:13916   */\n      sub\n        /* \"#utility.yul\":13899:13916   */\n      swap1\n      pop\n        /* \"#utility.yul\":13938:13939   */\n      dup2\n        /* \"#utility.yul\":13932:13936   */\n      dup2\n        /* \"#utility.yul\":13929:13940   */\n      gt\n        /* \"#utility.yul\":13926:13963   */\n      iszero\n      tag_422\n      jumpi\n        /* \"#utility.yul\":13943:13961   */\n      tag_423\n      tag_275\n      jump\t// in\n    tag_423:\n        /* \"#utility.yul\":13926:13963   */\n    tag_422:\n        /* \"#utility.yul\":13776:13970   */\n      swap3\n      swap2\n      pop\n      pop\n      jump\t// out\n        /* \"#utility.yul\":13976:14090   */\n    tag_276:\n      pop\n      jump\t// out\n        /* \"#utility.yul\":14096:14460   */\n    tag_277:\n        /* \"#utility.yul\":14238:14241   */\n      0x00\n        /* \"#utility.yul\":14259:14325   */\n      tag_426\n        /* \"#utility.yul\":14323:14324   */\n      0x00\n        /* \"#utility.yul\":14318:14321   */\n      dup4\n        /* \"#utility.yul\":14259:14325   */\n      tag_266\n      jump\t// in\n    tag_426:\n        /* \"#utility.yul\":14252:14325   */\n      swap2\n      pop\n        /* \"#utility.yul\":14334:14427   */\n      tag_427\n        /* \"#utility.yul\":14423:14426   */\n      dup3\n        /* \"#utility.yul\":14334:14427   */\n      tag_276\n      jump\t// in\n    tag_427:\n        /* \"#utility.yul\":14452:14453   */\n      0x00\n        /* \"#utility.yul\":14447:14450   */\n      dup3\n        /* \"#utility.yul\":14443:14454   */\n      add\n        /* \"#utility.yul\":14436:14454   */\n      swap1\n      pop\n        /* \"#utility.yul\":14096:14460   */\n      swap2\n      swap1\n      pop\n      jump\t// out\n        /* \"#utility.yul\":14466:14885   */\n    tag_147:\n        /* \"#utility.yul\":14632:14636   */\n      0x00\n        /* \"#utility.yul\":14670:14672   */\n      0x20\n        /* \"#utility.yul\":14659:14668   */\n      dup3\n        /* \"#utility.yul\":14655:14673   */\n      add\n        /* \"#utility.yul\":14647:14673   */\n      swap1\n      pop\n        /* \"#utility.yul\":14719:14728   */\n      dup2\n        /* \"#utility.yul\":14713:14717   */\n      dup2\n        /* \"#utility.yul\":14709:14729   */\n      sub\n        /* \"#utility.yul\":14705:14706   */\n      0x00\n        /* \"#utility.yul\":14694:14703   */\n      dup4\n        /* \"#utility.yul\":14690:14707   */\n      add\n        /* \"#utility.yul\":14683:14730   */\n      mstore\n        /* \"#utility.yul\":14747:14878   */\n      tag_429\n        /* \"#utility.yul\":14873:14877   */\n      dup2\n        /* \"#utility.yul\":14747:14878   */\n      tag_277\n      jump\t// in\n    tag_429:\n        /* \"#utility.yul\":14739:14878   */\n      swap1\n      pop\n        /* \"#utility.yul\":14466:14885   */\n      swap2\n      swap1\n      pop\n      jump\t// out\n        /* \"#utility.yul\":14891:15058   */\n    tag_149:\n        /* \"#utility.yul\":14928:14931   */\n      0x00\n        /* \"#utility.yul\":14951:14973   */\n      tag_431\n        /* \"#utility.yul\":14967:14972   */\n      dup3\n        /* \"#utility.yul\":14951:14973   */\n      tag_264\n      jump\t// in\n    tag_431:\n        /* \"#utility.yul\":14942:14973   */\n      swap2\n      pop\n        /* \"#utility.yul\":14995:14999   */\n      0xff\n        /* \"#utility.yul\":14988:14993   */\n      dup3\n        /* \"#utility.yul\":14985:15000   */\n      sub\n        /* \"#utility.yul\":14982:15023   */\n      tag_432\n      jumpi\n        /* \"#utility.yul\":15003:15021   */\n      tag_433\n      tag_275\n      jump\t// in\n    tag_433:\n        /* \"#utility.yul\":14982:15023   */\n    tag_432:\n        /* \"#utility.yul\":15050:15051   */\n      0x01\n        /* \"#utility.yul\":15043:15048   */\n      dup3\n        /* \"#utility.yul\":15039:15052   */\n      add\n        /* \"#utility.yul\":15032:15052   */\n      swap1\n      pop\n        /* \"#utility.yul\":14891:15058   */\n      swap2\n      swap1\n      pop\n      jump\t// out\n        /* \"#utility.yul\":15064:15232   */\n    tag_278:\n        /* \"#utility.yul\":15204:15224   */\n      0x696e646578206f7574206f6620626f756e640000000000000000000000000000\n        /* \"#utility.yul\":15200:15201   */\n      0x00\n        /* \"#utility.yul\":15192:15198   */\n      dup3\n        /* \"#utility.yul\":15188:15202   */\n      add\n        /* \"#utility.yul\":15181:15225   */\n      mstore\n        /* \"#utility.yul\":15064:15232   */\n      pop\n      jump\t// out\n        /* \"#utility.yul\":15238:15604   */\n    tag_279:\n        /* \"#utility.yul\":15380:15383   */\n      0x00\n        /* \"#utility.yul\":15401:15468   */\n      tag_436\n        /* \"#utility.yul\":15465:15467   */\n      0x12\n        /* \"#utility.yul\":15460:15463   */\n      dup4\n        /* \"#utility.yul\":15401:15468   */\n      tag_266\n      jump\t// in\n    tag_436:\n        /* \"#utility.yul\":15394:15468   */\n      swap2\n      pop\n        /* \"#utility.yul\":15477:15570   */\n      tag_437\n        /* \"#utility.yul\":15566:15569   */\n      dup3\n        /* \"#utility.yul\":15477:15570   */\n      tag_278\n      jump\t// in\n    tag_437:\n        /* \"#utility.yul\":15595:15597   */\n      0x20\n        /* \"#utility.yul\":15590:15593   */\n      dup3\n        /* \"#utility.yul\":15586:15598   */\n      add\n        /* \"#utility.yul\":15579:15598   */\n      swap1\n      pop\n        /* \"#utility.yul\":15238:15604   */\n      swap2\n      swap1\n      pop\n      jump\t// out\n        /* \"#utility.yul\":15610:16029   */\n    tag_154:\n        /* \"#utility.yul\":15776:15780   */\n      0x00\n        /* \"#utility.yul\":15814:15816   */\n      0x20\n        /* \"#utility.yul\":15803:15812   */\n      dup3\n        /* \"#utility.yul\":15799:15817   */\n      add\n        /* \"#utility.yul\":15791:15817   */\n      swap1\n      pop\n        /* \"#utility.yul\":15863:15872   */\n      dup2\n        /* \"#utility.yul\":15857:15861   */\n      dup2\n        /* \"#utility.yul\":15853:15873   */\n      sub\n        /* \"#utility.yul\":15849:15850   */\n      0x00\n        /* \"#utility.yul\":15838:15847   */\n      dup4\n        /* \"#utility.yul\":15834:15851   */\n      add\n        /* \"#utility.yul\":15827:15874   */\n      mstore\n        /* \"#utility.yul\":15891:16022   */\n      tag_439\n        /* \"#utility.yul\":16017:16021   */\n      dup2\n        /* \"#utility.yul\":15891:16022   */\n      tag_279\n      jump\t// in\n    tag_439:\n        /* \"#utility.yul\":15883:16022   */\n      swap1\n      pop\n        /* \"#utility.yul\":15610:16029   */\n      swap2\n      swap1\n      pop\n      jump\t// out\n        /* \"#utility.yul\":16035:16215   */\n    tag_280:\n        /* \"#utility.yul\":16083:16160   */\n      0x4e487b7100000000000000000000000000000000000000000000000000000000\n        /* \"#utility.yul\":16080:16081   */\n      0x00\n        /* \"#utility.yul\":16073:16161   */\n      mstore\n        /* \"#utility.yul\":16180:16184   */\n      0x22\n        /* \"#utility.yul\":16177:16178   */\n      0x04\n        /* \"#utility.yul\":16170:16185   */\n      mstore\n        /* \"#utility.yul\":16204:16208   */\n      0x24\n        /* \"#utility.yul\":16201:16202   */\n      0x00\n        /* \"#utility.yul\":16194:16209   */\n      revert\n        /* \"#utility.yul\":16221:16541   */\n    tag_159:\n        /* \"#utility.yul\":16265:16271   */\n      0x00\n        /* \"#utility.yul\":16302:16303   */\n      0x02\n        /* \"#utility.yul\":16296:16300   */\n      dup3\n        /* \"#utility.yul\":16292:16304   */\n      div\n        /* \"#utility.yul\":16282:16304   */\n      swap1\n      pop\n        /* \"#utility.yul\":16349:16350   */\n      0x01\n        /* \"#utility.yul\":16343:16347   */\n      dup3\n        /* \"#utility.yul\":16339:16351   */\n      and\n        /* \"#utility.yul\":16370:16388   */\n      dup1\n        /* \"#utility.yul\":16360:16441   */\n      tag_442\n      jumpi\n        /* \"#utility.yul\":16426:16430   */\n      0x7f\n        /* \"#utility.yul\":16418:16424   */\n      dup3\n        /* \"#utility.yul\":16414:16431   */\n      and\n        /* \"#utility.yul\":16404:16431   */\n      swap2\n      pop\n        /* \"#utility.yul\":16360:16441   */\n    tag_442:\n        /* \"#utility.yul\":16488:16490   */\n      0x20\n        /* \"#utility.yul\":16480:16486   */\n      dup3\n        /* \"#utility.yul\":16477:16491   */\n      lt\n        /* \"#utility.yul\":16457:16475   */\n      dup2\n        /* \"#utility.yul\":16454:16492   */\n      sub\n        /* \"#utility.yul\":16451:16535   */\n      tag_443\n      jumpi\n        /* \"#utility.yul\":16507:16525   */\n      tag_444\n      tag_280\n      jump\t// in\n    tag_444:\n        /* \"#utility.yul\":16451:16535   */\n    tag_443:\n        /* \"#utility.yul\":16272:16541   */\n      pop\n        /* \"#utility.yul\":16221:16541   */\n      swap2\n      swap1\n      pop\n      jump\t// out\n        /* \"#utility.yul\":16547:16767   */\n    tag_281:\n        /* \"#utility.yul\":16687:16721   */\n      0x696e76616c6964206e65774f776e6572206f72207265706c616365654f776e65\n        /* \"#utility.yul\":16683:16684   */\n      0x00\n        /* \"#utility.yul\":16675:16681   */\n      dup3\n        /* \"#utility.yul\":16671:16685   */\n      add\n        /* \"#utility.yul\":16664:16722   */\n      mstore\n        /* \"#utility.yul\":16756:16759   */\n      0x7200000000000000000000000000000000000000000000000000000000000000\n        /* \"#utility.yul\":16751:16753   */\n      0x20\n        /* \"#utility.yul\":16743:16749   */\n      dup3\n        /* \"#utility.yul\":16739:16754   */\n      add\n        /* \"#utility.yul\":16732:16760   */\n      mstore\n        /* \"#utility.yul\":16547:16767   */\n      pop\n      jump\t// out\n        /* \"#utility.yul\":16773:17139   */\n    tag_282:\n        /* \"#utility.yul\":16915:16918   */\n      0x00\n        /* \"#utility.yul\":16936:17003   */\n      tag_447\n        /* \"#utility.yul\":17000:17002   */\n      0x21\n        /* \"#utility.yul\":16995:16998   */\n      dup4\n        /* \"#utility.yul\":16936:17003   */\n      tag_266\n      jump\t// in\n    tag_447:\n        /* \"#utility.yul\":16929:17003   */\n      swap2\n      pop\n        /* \"#utility.yul\":17012:17105   */\n      tag_448\n        /* \"#utility.yul\":17101:17104   */\n      dup3\n        /* \"#utility.yul\":17012:17105   */\n      tag_281\n      jump\t// in\n    tag_448:\n        /* \"#utility.yul\":17130:17132   */\n      0x40\n        /* \"#utility.yul\":17125:17128   */\n      dup3\n        /* \"#utility.yul\":17121:17133   */\n      add\n        /* \"#utility.yul\":17114:17133   */\n      swap1\n      pop\n        /* \"#utility.yul\":16773:17139   */\n      swap2\n      swap1\n      pop\n      jump\t// out\n        /* \"#utility.yul\":17145:17564   */\n    tag_181:\n        /* \"#utility.yul\":17311:17315   */\n      0x00\n        /* \"#utility.yul\":17349:17351   */\n      0x20\n        /* \"#utility.yul\":17338:17347   */\n      dup3\n        /* \"#utility.yul\":17334:17352   */\n      add\n        /* \"#utility.yul\":17326:17352   */\n      swap1\n      pop\n        /* \"#utility.yul\":17398:17407   */\n      dup2\n        /* \"#utility.yul\":17392:17396   */\n      dup2\n        /* \"#utility.yul\":17388:17408   */\n      sub\n        /* \"#utility.yul\":17384:17385   */\n      0x00\n        /* \"#utility.yul\":17373:17382   */\n      dup4\n        /* \"#utility.yul\":17369:17386   */\n      add\n        /* \"#utility.yul\":17362:17409   */\n      mstore\n        /* \"#utility.yul\":17426:17557   */\n      tag_450\n        /* \"#utility.yul\":17552:17556   */\n      dup2\n        /* \"#utility.yul\":17426:17557   */\n      tag_282\n      jump\t// in\n    tag_450:\n        /* \"#utility.yul\":17418:17557   */\n      swap1\n      pop\n        /* \"#utility.yul\":17145:17564   */\n      swap2\n      swap1\n      pop\n      jump\t// out\n        /* \"#utility.yul\":17570:17747   */\n    tag_283:\n        /* \"#utility.yul\":17710:17739   */\n      0x7265706c616365654f776e6572206973206e6f74206f776e6e65720000000000\n        /* \"#utility.yul\":17706:17707   */\n      0x00\n        /* \"#utility.yul\":17698:17704   */\n      dup3\n        /* \"#utility.yul\":17694:17708   */\n      add\n        /* \"#utility.yul\":17687:17740   */\n      mstore\n        /* \"#utility.yul\":17570:17747   */\n      pop\n      jump\t// out\n        /* \"#utility.yul\":17753:18119   */\n    tag_284:\n        /* \"#utility.yul\":17895:17898   */\n      0x00\n        /* \"#utility.yul\":17916:17983   */\n      tag_453\n        /* \"#utility.yul\":17980:17982   */\n      0x1b\n        /* \"#utility.yul\":17975:17978   */\n      dup4\n        /* \"#utility.yul\":17916:17983   */\n      tag_266\n      jump\t// in\n    tag_453:\n        /* \"#utility.yul\":17909:17983   */\n      swap2\n      pop\n        /* \"#utility.yul\":17992:18085   */\n      tag_454\n        /* \"#utility.yul\":18081:18084   */\n      dup3\n        /* \"#utility.yul\":17992:18085   */\n      tag_283\n      jump\t// in\n    tag_454:\n        /* \"#utility.yul\":18110:18112   */\n      0x20\n        /* \"#utility.yul\":18105:18108   */\n      dup3\n        /* \"#utility.yul\":18101:18113   */\n      add\n        /* \"#utility.yul\":18094:18113   */\n      swap1\n      pop\n        /* \"#utility.yul\":17753:18119   */\n      swap2\n      swap1\n      pop\n      jump\t// out\n        /* \"#utility.yul\":18125:18544   */\n    tag_184:\n        /* \"#utility.yul\":18291:18295   */\n      0x00\n        /* \"#utility.yul\":18329:18331   */\n      0x20\n        /* \"#utility.yul\":18318:18327   */\n      dup3\n        /* \"#utility.yul\":18314:18332   */\n      add\n        /* \"#utility.yul\":18306:18332   */\n      swap1\n      pop\n        /* \"#utility.yul\":18378:18387   */\n      dup2\n        /* \"#utility.yul\":18372:18376   */\n      dup2\n        /* \"#utility.yul\":18368:18388   */\n      sub\n        /* \"#utility.yul\":18364:18365   */\n      0x00\n        /* \"#utility.yul\":18353:18362   */\n      dup4\n        /* \"#utility.yul\":18349:18366   */\n      add\n        /* \"#utility.yul\":18342:18389   */\n      mstore\n        /* \"#utility.yul\":18406:18537   */\n      tag_456\n        /* \"#utility.yul\":18532:18536   */\n      dup2\n        /* \"#utility.yul\":18406:18537   */\n      tag_284\n      jump\t// in\n    tag_456:\n        /* \"#utility.yul\":18398:18537   */\n      swap1\n      pop\n        /* \"#utility.yul\":18125:18544   */\n      swap2\n      swap1\n      pop\n      jump\t// out\n        /* \"#utility.yul\":18550:18720   */\n    tag_285:\n        /* \"#utility.yul\":18690:18712   */\n      0x747820616c726561647920636f6e6669726d6564000000000000000000000000\n        /* \"#utility.yul\":18686:18687   */\n      0x00\n        /* \"#utility.yul\":18678:18684   */\n      dup3\n        /* \"#utility.yul\":18674:18688   */\n      add\n        /* \"#utility.yul\":18667:18713   */\n      mstore\n        /* \"#utility.yul\":18550:18720   */\n      pop\n      jump\t// out\n        /* \"#utility.yul\":18726:19092   */\n    tag_286:\n        /* \"#utility.yul\":18868:18871   */\n      0x00\n        /* \"#utility.yul\":18889:18956   */\n      tag_459\n        /* \"#utility.yul\":18953:18955   */\n      0x14\n        /* \"#utility.yul\":18948:18951   */\n      dup4\n        /* \"#utility.yul\":18889:18956   */\n      tag_266\n      jump\t// in\n    tag_459:\n        /* \"#utility.yul\":18882:18956   */\n      swap2\n      pop\n        /* \"#utility.yul\":18965:19058   */\n      tag_460\n        /* \"#utility.yul\":19054:19057   */\n      dup3\n        /* \"#utility.yul\":18965:19058   */\n      tag_285\n      jump\t// in\n    tag_460:\n        /* \"#utility.yul\":19083:19085   */\n      0x20\n        /* \"#utility.yul\":19078:19081   */\n      dup3\n        /* \"#utility.yul\":19074:19086   */\n      add\n        /* \"#utility.yul\":19067:19086   */\n      swap1\n      pop\n        /* \"#utility.yul\":18726:19092   */\n      swap2\n      swap1\n      pop\n      jump\t// out\n        /* \"#utility.yul\":19098:19517   */\n    tag_210:\n        /* \"#utility.yul\":19264:19268   */\n      0x00\n        /* \"#utility.yul\":19302:19304   */\n      0x20\n        /* \"#utility.yul\":19291:19300   */\n      dup3\n        /* \"#utility.yul\":19287:19305   */\n      add\n        /* \"#utility.yul\":19279:19305   */\n      swap1\n      pop\n        /* \"#utility.yul\":19351:19360   */\n      dup2\n        /* \"#utility.yul\":19345:19349   */\n      dup2\n        /* \"#utility.yul\":19341:19361   */\n      sub\n        /* \"#utility.yul\":19337:19338   */\n      0x00\n        /* \"#utility.yul\":19326:19335   */\n      dup4\n        /* \"#utility.yul\":19322:19339   */\n      add\n        /* \"#utility.yul\":19315:19362   */\n      mstore\n        /* \"#utility.yul\":19379:19510   */\n      tag_462\n        /* \"#utility.yul\":19505:19509   */\n      dup2\n        /* \"#utility.yul\":19379:19510   */\n      tag_286\n      jump\t// in\n    tag_462:\n        /* \"#utility.yul\":19371:19510   */\n      swap1\n      pop\n        /* \"#utility.yul\":19098:19517   */\n      swap2\n      swap1\n      pop\n      jump\t// out\n        /* \"#utility.yul\":19523:19714   */\n    tag_216:\n        /* \"#utility.yul\":19563:19566   */\n      0x00\n        /* \"#utility.yul\":19582:19602   */\n      tag_464\n        /* \"#utility.yul\":19600:19601   */\n      dup3\n        /* \"#utility.yul\":19582:19602   */\n      tag_238\n      jump\t// in\n    tag_464:\n        /* \"#utility.yul\":19577:19602   */\n      swap2\n      pop\n        /* \"#utility.yul\":19616:19636   */\n      tag_465\n        /* \"#utility.yul\":19634:19635   */\n      dup4\n        /* \"#utility.yul\":19616:19636   */\n      tag_238\n      jump\t// in\n    tag_465:\n        /* \"#utility.yul\":19611:19636   */\n      swap3\n      pop\n        /* \"#utility.yul\":19659:19660   */\n      dup3\n        /* \"#utility.yul\":19656:19657   */\n      dup3\n        /* \"#utility.yul\":19652:19661   */\n      add\n        /* \"#utility.yul\":19645:19661   */\n      swap1\n      pop\n        /* \"#utility.yul\":19680:19683   */\n      dup1\n        /* \"#utility.yul\":19677:19678   */\n      dup3\n        /* \"#utility.yul\":19674:19684   */\n      gt\n        /* \"#utility.yul\":19671:19707   */\n      iszero\n      tag_466\n      jumpi\n        /* \"#utility.yul\":19687:19705   */\n      tag_467\n      tag_275\n      jump\t// in\n    tag_467:\n        /* \"#utility.yul\":19671:19707   */\n    tag_466:\n        /* \"#utility.yul\":19523:19714   */\n      swap3\n      swap2\n      pop\n      pop\n      jump\t// out\n        /* \"#utility.yul\":19720:19952   */\n    tag_287:\n        /* \"#utility.yul\":19860:19894   */\n      0x706c6561736520696e7075742063616e6469646174654f776e657220616e6420\n        /* \"#utility.yul\":19856:19857   */\n      0x00\n        /* \"#utility.yul\":19848:19854   */\n      dup3\n        /* \"#utility.yul\":19844:19858   */\n      add\n        /* \"#utility.yul\":19837:19895   */\n      mstore\n        /* \"#utility.yul\":19929:19944   */\n      0x7265706c616365654f776e657200000000000000000000000000000000000000\n        /* \"#utility.yul\":19924:19926   */\n      0x20\n        /* \"#utility.yul\":19916:19922   */\n      dup3\n        /* \"#utility.yul\":19912:19927   */\n      add\n        /* \"#utility.yul\":19905:19945   */\n      mstore\n        /* \"#utility.yul\":19720:19952   */\n      pop\n      jump\t// out\n        /* \"#utility.yul\":19958:20324   */\n    tag_288:\n        /* \"#utility.yul\":20100:20103   */\n      0x00\n        /* \"#utility.yul\":20121:20188   */\n      tag_470\n        /* \"#utility.yul\":20185:20187   */\n      0x2d\n        /* \"#utility.yul\":20180:20183   */\n      dup4\n        /* \"#utility.yul\":20121:20188   */\n      tag_266\n      jump\t// in\n    tag_470:\n        /* \"#utility.yul\":20114:20188   */\n      swap2\n      pop\n        /* \"#utility.yul\":20197:20290   */\n      tag_471\n        /* \"#utility.yul\":20286:20289   */\n      dup3\n        /* \"#utility.yul\":20197:20290   */\n      tag_287\n      jump\t// in\n    tag_471:\n        /* \"#utility.yul\":20315:20317   */\n      0x40\n        /* \"#utility.yul\":20310:20313   */\n      dup3\n        /* \"#utility.yul\":20306:20318   */\n      add\n        /* \"#utility.yul\":20299:20318   */\n      swap1\n      pop\n        /* \"#utility.yul\":19958:20324   */\n      swap2\n      swap1\n      pop\n      jump\t// out\n        /* \"#utility.yul\":20330:20749   */\n    tag_224:\n        /* \"#utility.yul\":20496:20500   */\n      0x00\n        /* \"#utility.yul\":20534:20536   */\n      0x20\n        /* \"#utility.yul\":20523:20532   */\n      dup3\n        /* \"#utility.yul\":20519:20537   */\n      add\n        /* \"#utility.yul\":20511:20537   */\n      swap1\n      pop\n        /* \"#utility.yul\":20583:20592   */\n      dup2\n        /* \"#utility.yul\":20577:20581   */\n      dup2\n        /* \"#utility.yul\":20573:20593   */\n      sub\n        /* \"#utility.yul\":20569:20570   */\n      0x00\n        /* \"#utility.yul\":20558:20567   */\n      dup4\n        /* \"#utility.yul\":20554:20571   */\n      add\n        /* \"#utility.yul\":20547:20594   */\n      mstore\n        /* \"#utility.yul\":20611:20742   */\n      tag_473\n        /* \"#utility.yul\":20737:20741   */\n      dup2\n        /* \"#utility.yul\":20611:20742   */\n      tag_288\n      jump\t// in\n    tag_473:\n        /* \"#utility.yul\":20603:20742   */\n      swap1\n      pop\n        /* \"#utility.yul\":20330:20749   */\n      swap2\n      swap1\n      pop\n      jump\t// out\n        /* \"#utility.yul\":20755:20922   */\n    tag_289:\n        /* \"#utility.yul\":20895:20914   */\n      0x646f6e2774206d61746368206f776e6572000000000000000000000000000000\n        /* \"#utility.yul\":20891:20892   */\n      0x00\n        /* \"#utility.yul\":20883:20889   */\n      dup3\n        /* \"#utility.yul\":20879:20893   */\n      add\n        /* \"#utility.yul\":20872:20915   */\n      mstore\n        /* \"#utility.yul\":20755:20922   */\n      pop\n      jump\t// out\n        /* \"#utility.yul\":20928:21294   */\n    tag_290:\n        /* \"#utility.yul\":21070:21073   */\n      0x00\n        /* \"#utility.yul\":21091:21158   */\n      tag_476\n        /* \"#utility.yul\":21155:21157   */\n      0x11\n        /* \"#utility.yul\":21150:21153   */\n      dup4\n        /* \"#utility.yul\":21091:21158   */\n      tag_266\n      jump\t// in\n    tag_476:\n        /* \"#utility.yul\":21084:21158   */\n      swap2\n      pop\n        /* \"#utility.yul\":21167:21260   */\n      tag_477\n        /* \"#utility.yul\":21256:21259   */\n      dup3\n        /* \"#utility.yul\":21167:21260   */\n      tag_289\n      jump\t// in\n    tag_477:\n        /* \"#utility.yul\":21285:21287   */\n      0x20\n        /* \"#utility.yul\":21280:21283   */\n      dup3\n        /* \"#utility.yul\":21276:21288   */\n      add\n        /* \"#utility.yul\":21269:21288   */\n      swap1\n      pop\n        /* \"#utility.yul\":20928:21294   */\n      swap2\n      swap1\n      pop\n      jump\t// out\n        /* \"#utility.yul\":21300:21719   */\n    tag_234:\n        /* \"#utility.yul\":21466:21470   */\n      0x00\n        /* \"#utility.yul\":21504:21506   */\n      0x20\n        /* \"#utility.yul\":21493:21502   */\n      dup3\n        /* \"#utility.yul\":21489:21507   */\n      add\n        /* \"#utility.yul\":21481:21507   */\n      swap1\n      pop\n        /* \"#utility.yul\":21553:21562   */\n      dup2\n        /* \"#utility.yul\":21547:21551   */\n      dup2\n        /* \"#utility.yul\":21543:21563   */\n      sub\n        /* \"#utility.yul\":21539:21540   */\n      0x00\n        /* \"#utility.yul\":21528:21537   */\n      dup4\n        /* \"#utility.yul\":21524:21541   */\n      add\n        /* \"#utility.yul\":21517:21564   */\n      mstore\n        /* \"#utility.yul\":21581:21712   */\n      tag_479\n        /* \"#utility.yul\":21707:21711   */\n      dup2\n        /* \"#utility.yul\":21581:21712   */\n      tag_290\n      jump\t// in\n    tag_479:\n        /* \"#utility.yul\":21573:21712   */\n      swap1\n      pop\n        /* \"#utility.yul\":21300:21719   */\n      swap2\n      swap1\n      pop\n      jump\t// out\n\n    auxdata: 0xa2646970667358221220839ceff7823ea561693b7a62d9772a25d42910851d7385bf5cae743a34e0357b64736f6c63430008160033\n}\n",
				"bytecode": {
					"linkReferences": {},
					"object": "60806040525f60085f6101000a81548160ff021916908360ff1602179055503480156200002a575f80fd5b506040516200281f3803806200281f8339818101604052810190620000509190620004fc565b5f82511162000096576040517f08c379a00000000000000000000000000000000000000000000000000000000081526004016200008d90620005be565b60405180910390fd5b5f81118015620000a7575081518111155b620000e9576040517f08c379a0000000000000000000000000000000000000000000000000000000008152600401620000e09062000652565b60405180910390fd5b5f5b8251811015620002d6575f8382815181106200010c576200010b62000672565b5b602002602001015190505f73ffffffffffffffffffffffffffffffffffffffff168173ffffffffffffffffffffffffffffffffffffffff160362000187576040517f08c379a00000000000000000000000000000000000000000000000000000000081526004016200017e90620006ed565b60405180910390fd5b60015f8273ffffffffffffffffffffffffffffffffffffffff1673ffffffffffffffffffffffffffffffffffffffff1681526020019081526020015f205f9054906101000a900460ff161562000214576040517f08c379a00000000000000000000000000000000000000000000000000000000081526004016200020b906200075b565b60405180910390fd5b6001805f8373ffffffffffffffffffffffffffffffffffffffff1673ffffffffffffffffffffffffffffffffffffffff1681526020019081526020015f205f6101000a81548160ff0219169083151502179055505f81908060018154018082558091505060019003905f5260205f20015f9091909190916101000a81548173ffffffffffffffffffffffffffffffffffffffff021916908373ffffffffffffffffffffffffffffffffffffffff160217905550508080600101915050620000eb565b508060028190555050506200077b565b5f604051905090565b5f80fd5b5f80fd5b5f80fd5b5f601f19601f8301169050919050565b7f4e487b71000000000000000000000000000000000000000000000000000000005f52604160045260245ffd5b6200034382620002fb565b810181811067ffffffffffffffff821117156200036557620003646200030b565b5b80604052505050565b5f62000379620002e6565b905062000387828262000338565b919050565b5f67ffffffffffffffff821115620003a957620003a86200030b565b5b602082029050602081019050919050565b5f80fd5b5f73ffffffffffffffffffffffffffffffffffffffff82169050919050565b5f620003e982620003be565b9050919050565b620003fb81620003dd565b811462000406575f80fd5b50565b5f815190506200041981620003f0565b92915050565b5f620004356200042f846200038c565b6200036e565b905080838252602082019050602084028301858111156200045b576200045a620003ba565b5b835b8181101562000488578062000473888262000409565b8452602084019350506020810190506200045d565b5050509392505050565b5f82601f830112620004a957620004a8620002f7565b5b8151620004bb8482602086016200041f565b91505092915050565b5f819050919050565b620004d881620004c4565b8114620004e3575f80fd5b50565b5f81519050620004f681620004cd565b92915050565b5f8060408385031215620005155762000514620002ef565b5b5f83015167ffffffffffffffff811115620005355762000534620002f3565b5b620005438582860162000492565b92505060206200055685828601620004e6565b9150509250929050565b5f82825260208201905092915050565b7f6f776e65722072657175697265640000000000000000000000000000000000005f82015250565b5f620005a6600e8362000560565b9150620005b38262000570565b602082019050919050565b5f6020820190508181035f830152620005d78162000598565b9050919050565b7f696e76616c6964206e756d626572206f66207265717572656420636f6e6669725f8201527f6d6174696f6e7300000000000000000000000000000000000000000000000000602082015250565b5f6200063a60278362000560565b91506200064782620005de565b604082019050919050565b5f6020820190508181035f8301526200066b816200062c565b9050919050565b7f4e487b71000000000000000000000000000000000000000000000000000000005f52603260045260245ffd5b7f696e76616c6964206f776e6572000000000000000000000000000000000000005f82015250565b5f620006d5600d8362000560565b9150620006e2826200069f565b602082019050919050565b5f6020820190508181035f8301526200070681620006c7565b9050919050565b7f6f776e65722065786973746564000000000000000000000000000000000000005f82015250565b5f62000743600d8362000560565b915062000750826200070d565b602082019050919050565b5f6020820190508181035f830152620007748162000735565b9050919050565b61209680620007895f395ff3fe60806040526004361061010c575f3560e01c80639ace38c211610094578063c105ea2b11610063578063c105ea2b146103be578063c6754505146103e8578063d0549b8514610412578063e1e86ed61461043c578063e7a4b23f1461045257610163565b80639ace38c214610301578063a0e67e2b14610342578063a72df9b21461036c578063c01a8c841461039657610163565b80632f54bf6e116100db5780632f54bf6e1461020b57806333ea3dc814610247578063385eccfc146102875780634e081dc41461029d57806380f59a65146102c557610163565b8063025e7c271461016757806320ea8d86146101a357806329cbaa5c146101cb5780632e7700f0146101e157610163565b36610163573373ffffffffffffffffffffffffffffffffffffffff167f90890809c654f11d6e72a28fa60149770a0d11ec6c92319d6ceb2bb0a4ea1a153447604051610159929190611626565b60405180910390a2005b5f80fd5b348015610172575f80fd5b5061018d6004803603810190610188919061167b565b61048e565b60405161019a91906116e5565b60405180910390f35b3480156101ae575f80fd5b506101c960048036038101906101c4919061167b565b6104c8565b005b3480156101d6575f80fd5b506101df61078d565b005b3480156101ec575f80fd5b506101f561092e565b60405161020291906116fe565b60405180910390f35b348015610216575f80fd5b50610231600480360381019061022c9190611741565b61093a565b60405161023e9190611786565b60405180910390f35b348015610252575f80fd5b5061026d6004803603810190610268919061167b565b610957565b60405161027e959493929190611829565b60405180910390f35b348015610292575f80fd5b5061029b610aa7565b005b3480156102a8575f80fd5b506102c360048036038101906102be9190611881565b610bf6565b005b3480156102d0575f80fd5b506102eb60048036038101906102e691906118bf565b610e32565b6040516102f89190611786565b60405180910390f35b34801561030c575f80fd5b506103276004803603810190610322919061167b565b610e5c565b604051610339969594939291906118fd565b60405180910390f35b34801561034d575f80fd5b50610356610f54565b6040516103639190611a1a565b60405180910390f35b348015610377575f80fd5b50610380610fde565b60405161038d9190611a55565b60405180910390f35b3480156103a1575f80fd5b506103bc60048036038101906103b7919061167b565b610ff0565b005b3480156103c9575f80fd5b506103d26112b9565b6040516103df91906116e5565b60405180910390f35b3480156103f3575f80fd5b506103fc6112de565b60405161040991906116e5565b60405180910390f35b34801561041d575f80fd5b50610426611303565b60405161043391906116fe565b60405180910390f35b348015610447575f80fd5b50610450611309565b005b34801561045d575f80fd5b5061047860048036038101906104739190611741565b6115f1565b6040516104859190611786565b60405180910390f35b5f818154811061049c575f80fd5b905f5260205f20015f915054906101000a900473ffffffffffffffffffffffffffffffffffffffff1681565b60015f3373ffffffffffffffffffffffffffffffffffffffff1673ffffffffffffffffffffffffffffffffffffffff1681526020019081526020015f205f9054906101000a900460ff16610551576040517f08c379a000000000000000000000000000000000000000000000000000000000815260040161054890611ac8565b60405180910390fd5b806004805490508110610599576040517f08c379a000000000000000000000000000000000000000000000000000000000815260040161059090611b30565b60405180910390fd5b81600481815481106105ae576105ad611b4e565b5b905f5260205f2090600602016003015f9054906101000a900460ff161561060a576040517f08c379a000000000000000000000000000000000000000000000000000000000815260040161060190611bc5565b60405180910390fd5b5f6004848154811061061f5761061e611b4e565b5b905f5260205f209060060201905060035f8581526020019081526020015f205f3373ffffffffffffffffffffffffffffffffffffffff1673ffffffffffffffffffffffffffffffffffffffff1681526020019081526020015f205f9054906101000a900460ff166106c5576040517f08c379a00000000000000000000000000000000000000000000000000000000081526004016106bc90611c2d565b60405180910390fd5b6001816004015f8282546106d99190611c78565b925050819055505f60035f8681526020019081526020015f205f3373ffffffffffffffffffffffffffffffffffffffff1673ffffffffffffffffffffffffffffffffffffffff1681526020019081526020015f205f6101000a81548160ff021916908315150217905550833373ffffffffffffffffffffffffffffffffffffffff167ff0dca620e2e81f7841d07bcc105e1704fb01475b278a9d4c236e1c62945edd5560405160405180910390a350505050565b60015f3373ffffffffffffffffffffffffffffffffffffffff1673ffffffffffffffffffffffffffffffffffffffff1681526020019081526020015f205f9054906101000a900460ff16610816576040517f08c379a000000000000000000000000000000000000000000000000000000000815260040161080d90611ac8565b60405180910390fd5b60075f3373ffffffffffffffffffffffffffffffffffffffff1673ffffffffffffffffffffffffffffffffffffffff1681526020019081526020015f205f9054906101000a900460ff16156108a0576040517f08c379a000000000000000000000000000000000000000000000000000000000815260040161089790611cce565b60405180910390fd5b600160075f3373ffffffffffffffffffffffffffffffffffffffff1673ffffffffffffffffffffffffffffffffffffffff1681526020019081526020015f205f6101000a81548160ff02191690831515021790555060085f81819054906101000a900460ff168092919061091390611cec565b91906101000a81548160ff021916908360ff16021790555050565b5f600480549050905090565b6001602052805f5260405f205f915054906101000a900460ff1681565b5f8060605f8060048054905086106109a4576040517f08c379a000000000000000000000000000000000000000000000000000000000815260040161099b90611d5e565b60405180910390fd5b5f600487815481106109b9576109b8611b4e565b5b905f5260205f2090600602019050805f015f9054906101000a900473ffffffffffffffffffffffffffffffffffffffff16816001015482600201836003015f9054906101000a900460ff168460040154828054610a1590611da9565b80601f0160208091040260200160405190810160405280929190818152602001828054610a4190611da9565b8015610a8c5780601f10610a6357610100808354040283529160200191610a8c565b820191905f5260205f20905b815481529060010190602001808311610a6f57829003601f168201915b50505050509250955095509550955095505091939590929450565b60015f3373ffffffffffffffffffffffffffffffffffffffff1673ffffffffffffffffffffffffffffffffffffffff1681526020019081526020015f205f9054906101000a900460ff16610b30576040517f08c379a0000000000000000000000000000000000000000000000000000000008152600401610b2790611ac8565b60405180910390fd5b5f60085f6101000a81548160ff021916908360ff1602179055505f5b5f80549050811015610bf3575f60075f808481548110610b6f57610b6e611b4e565b5b905f5260205f20015f9054906101000a900473ffffffffffffffffffffffffffffffffffffffff1673ffffffffffffffffffffffffffffffffffffffff1673ffffffffffffffffffffffffffffffffffffffff1681526020019081526020015f205f6101000a81548160ff0219169083151502179055508080600101915050610b4c565b50565b60015f3373ffffffffffffffffffffffffffffffffffffffff1673ffffffffffffffffffffffffffffffffffffffff1681526020019081526020015f205f9054906101000a900460ff16610c7f576040517f08c379a0000000000000000000000000000000000000000000000000000000008152600401610c7690611ac8565b60405180910390fd5b5f73ffffffffffffffffffffffffffffffffffffffff168273ffffffffffffffffffffffffffffffffffffffff16141580610ce657505f73ffffffffffffffffffffffffffffffffffffffff168173ffffffffffffffffffffffffffffffffffffffff1614155b610d25576040517f08c379a0000000000000000000000000000000000000000000000000000000008152600401610d1c90611e49565b60405180910390fd5b60015f3373ffffffffffffffffffffffffffffffffffffffff1673ffffffffffffffffffffffffffffffffffffffff1681526020019081526020015f205f9054906101000a900460ff16610dae576040517f08c379a0000000000000000000000000000000000000000000000000000000008152600401610da590611eb1565b60405180910390fd5b8160055f6101000a81548173ffffffffffffffffffffffffffffffffffffffff021916908373ffffffffffffffffffffffffffffffffffffffff1602179055508060065f6101000a81548173ffffffffffffffffffffffffffffffffffffffff021916908373ffffffffffffffffffffffffffffffffffffffff1602179055505050565b6003602052815f5260405f20602052805f5260405f205f915091509054906101000a900460ff1681565b60048181548110610e6b575f80fd5b905f5260205f2090600602015f91509050805f015f9054906101000a900473ffffffffffffffffffffffffffffffffffffffff1690806001015490806002018054610eb590611da9565b80601f0160208091040260200160405190810160405280929190818152602001828054610ee190611da9565b8015610f2c5780601f10610f0357610100808354040283529160200191610f2c565b820191905f5260205f20905b815481529060010190602001808311610f0f57829003601f168201915b505050505090806003015f9054906101000a900460ff16908060040154908060050154905086565b60605f805480602002602001604051908101604052809291908181526020018280548015610fd457602002820191905f5260205f20905b815f9054906101000a900473ffffffffffffffffffffffffffffffffffffffff1673ffffffffffffffffffffffffffffffffffffffff1681526020019060010190808311610f8b575b5050505050905090565b60085f9054906101000a900460ff1681565b60015f3373ffffffffffffffffffffffffffffffffffffffff1673ffffffffffffffffffffffffffffffffffffffff1681526020019081526020015f205f9054906101000a900460ff16611079576040517f08c379a000000000000000000000000000000000000000000000000000000000815260040161107090611ac8565b60405180910390fd5b8060048054905081106110c1576040517f08c379a00000000000000000000000000000000000000000000000000000000081526004016110b890611b30565b60405180910390fd5b81600481815481106110d6576110d5611b4e565b5b905f5260205f2090600602016003015f9054906101000a900460ff1615611132576040517f08c379a000000000000000000000000000000000000000000000000000000000815260040161112990611bc5565b60405180910390fd5b8260035f8281526020019081526020015f205f3373ffffffffffffffffffffffffffffffffffffffff1673ffffffffffffffffffffffffffffffffffffffff1681526020019081526020015f205f9054906101000a900460ff16156111cc576040517f08c379a00000000000000000000000000000000000000000000000000000000081526004016111c390611f19565b60405180910390fd5b5f600485815481106111e1576111e0611b4e565b5b905f5260205f20906006020190506001816004015f8282546112039190611f37565b92505081905550600160035f8781526020019081526020015f205f3373ffffffffffffffffffffffffffffffffffffffff1673ffffffffffffffffffffffffffffffffffffffff1681526020019081526020015f205f6101000a81548160ff021916908315150217905550843373ffffffffffffffffffffffffffffffffffffffff167f5cbe105e36805f7820e291f799d5794ff948af2a5f664e580382defb6339004160405160405180910390a35050505050565b60055f9054906101000a900473ffffffffffffffffffffffffffffffffffffffff1681565b60065f9054906101000a900473ffffffffffffffffffffffffffffffffffffffff1681565b60025481565b60015f3373ffffffffffffffffffffffffffffffffffffffff1673ffffffffffffffffffffffffffffffffffffffff1681526020019081526020015f205f9054906101000a900460ff16611392576040517f08c379a000000000000000000000000000000000000000000000000000000000815260040161138990611ac8565b60405180910390fd5b5f73ffffffffffffffffffffffffffffffffffffffff1660055f9054906101000a900473ffffffffffffffffffffffffffffffffffffffff1673ffffffffffffffffffffffffffffffffffffffff161415801561143c57505f73ffffffffffffffffffffffffffffffffffffffff1660065f9054906101000a900473ffffffffffffffffffffffffffffffffffffffff1673ffffffffffffffffffffffffffffffffffffffff1614155b61147b576040517f08c379a000000000000000000000000000000000000000000000000000000000815260040161147290611fda565b60405180910390fd5b5f805f5b5f805490508110156115325760065f9054906101000a900473ffffffffffffffffffffffffffffffffffffffff1673ffffffffffffffffffffffffffffffffffffffff165f82815481106114d6576114d5611b4e565b5b905f5260205f20015f9054906101000a900473ffffffffffffffffffffffffffffffffffffffff1673ffffffffffffffffffffffffffffffffffffffff16036115255780925060019150611532565b808060010191505061147f565b5080611573576040517f08c379a000000000000000000000000000000000000000000000000000000000815260040161156a90612042565b60405180910390fd5b60055f9054906101000a900473ffffffffffffffffffffffffffffffffffffffff165f83815481106115a8576115a7611b4e565b5b905f5260205f20015f6101000a81548173ffffffffffffffffffffffffffffffffffffffff021916908373ffffffffffffffffffffffffffffffffffffffff1602179055505050565b6007602052805f5260405f205f915054906101000a900460ff1681565b5f819050919050565b6116208161160e565b82525050565b5f6040820190506116395f830185611617565b6116466020830184611617565b9392505050565b5f80fd5b61165a8161160e565b8114611664575f80fd5b50565b5f8135905061167581611651565b92915050565b5f602082840312156116905761168f61164d565b5b5f61169d84828501611667565b91505092915050565b5f73ffffffffffffffffffffffffffffffffffffffff82169050919050565b5f6116cf826116a6565b9050919050565b6116df816116c5565b82525050565b5f6020820190506116f85f8301846116d6565b92915050565b5f6020820190506117115f830184611617565b92915050565b611720816116c5565b811461172a575f80fd5b50565b5f8135905061173b81611717565b92915050565b5f602082840312156117565761175561164d565b5b5f6117638482850161172d565b91505092915050565b5f8115159050919050565b6117808161176c565b82525050565b5f6020820190506117995f830184611777565b92915050565b5f81519050919050565b5f82825260208201905092915050565b5f5b838110156117d65780820151818401526020810190506117bb565b5f8484015250505050565b5f601f19601f8301169050919050565b5f6117fb8261179f565b61180581856117a9565b93506118158185602086016117b9565b61181e816117e1565b840191505092915050565b5f60a08201905061183c5f8301886116d6565b6118496020830187611617565b818103604083015261185b81866117f1565b905061186a6060830185611777565b6118776080830184611617565b9695505050505050565b5f80604083850312156118975761189661164d565b5b5f6118a48582860161172d565b92505060206118b58582860161172d565b9150509250929050565b5f80604083850312156118d5576118d461164d565b5b5f6118e285828601611667565b92505060206118f38582860161172d565b9150509250929050565b5f60c0820190506119105f8301896116d6565b61191d6020830188611617565b818103604083015261192f81876117f1565b905061193e6060830186611777565b61194b6080830185611617565b61195860a0830184611617565b979650505050505050565b5f81519050919050565b5f82825260208201905092915050565b5f819050602082019050919050565b611995816116c5565b82525050565b5f6119a6838361198c565b60208301905092915050565b5f602082019050919050565b5f6119c882611963565b6119d2818561196d565b93506119dd8361197d565b805f5b83811015611a0d5781516119f4888261199b565b97506119ff836119b2565b9250506001810190506119e0565b5085935050505092915050565b5f6020820190508181035f830152611a3281846119be565b905092915050565b5f60ff82169050919050565b611a4f81611a3a565b82525050565b5f602082019050611a685f830184611a46565b92915050565b5f82825260208201905092915050565b7f6e6f74206f776e657200000000000000000000000000000000000000000000005f82015250565b5f611ab2600983611a6e565b9150611abd82611a7e565b602082019050919050565b5f6020820190508181035f830152611adf81611aa6565b9050919050565b7f747820646f6573206e6f742065786973740000000000000000000000000000005f82015250565b5f611b1a601183611a6e565b9150611b2582611ae6565b602082019050919050565b5f6020820190508181035f830152611b4781611b0e565b9050919050565b7f4e487b71000000000000000000000000000000000000000000000000000000005f52603260045260245ffd5b7f747820616c7265616479206578656375746564000000000000000000000000005f82015250565b5f611baf601383611a6e565b9150611bba82611b7b565b602082019050919050565b5f6020820190508181035f830152611bdc81611ba3565b9050919050565b7f7478206e6f7420636f6e6669726d6564000000000000000000000000000000005f82015250565b5f611c17601083611a6e565b9150611c2282611be3565b602082019050919050565b5f6020820190508181035f830152611c4481611c0b565b9050919050565b7f4e487b71000000000000000000000000000000000000000000000000000000005f52601160045260245ffd5b5f611c828261160e565b9150611c8d8361160e565b9250828203905081811115611ca557611ca4611c4b565b5b92915050565b50565b5f611cb95f83611a6e565b9150611cc482611cab565b5f82019050919050565b5f6020820190508181035f830152611ce581611cae565b9050919050565b5f611cf682611a3a565b915060ff8203611d0957611d08611c4b565b5b600182019050919050565b7f696e646578206f7574206f6620626f756e6400000000000000000000000000005f82015250565b5f611d48601283611a6e565b9150611d5382611d14565b602082019050919050565b5f6020820190508181035f830152611d7581611d3c565b9050919050565b7f4e487b71000000000000000000000000000000000000000000000000000000005f52602260045260245ffd5b5f6002820490506001821680611dc057607f821691505b602082108103611dd357611dd2611d7c565b5b50919050565b7f696e76616c6964206e65774f776e6572206f72207265706c616365654f776e655f8201527f7200000000000000000000000000000000000000000000000000000000000000602082015250565b5f611e33602183611a6e565b9150611e3e82611dd9565b604082019050919050565b5f6020820190508181035f830152611e6081611e27565b9050919050565b7f7265706c616365654f776e6572206973206e6f74206f776e6e657200000000005f82015250565b5f611e9b601b83611a6e565b9150611ea682611e67565b602082019050919050565b5f6020820190508181035f830152611ec881611e8f565b9050919050565b7f747820616c726561647920636f6e6669726d65640000000000000000000000005f82015250565b5f611f03601483611a6e565b9150611f0e82611ecf565b602082019050919050565b5f6020820190508181035f830152611f3081611ef7565b9050919050565b5f611f418261160e565b9150611f4c8361160e565b9250828201905080821115611f6457611f63611c4b565b5b92915050565b7f706c6561736520696e7075742063616e6469646174654f776e657220616e64205f8201527f7265706c616365654f776e657200000000000000000000000000000000000000602082015250565b5f611fc4602d83611a6e565b9150611fcf82611f6a565b604082019050919050565b5f6020820190508181035f830152611ff181611fb8565b9050919050565b7f646f6e2774206d61746368206f776e65720000000000000000000000000000005f82015250565b5f61202c601183611a6e565b915061203782611ff8565b602082019050919050565b5f6020820190508181035f83015261205981612020565b905091905056fea2646970667358221220839ceff7823ea561693b7a62d9772a25d42910851d7385bf5cae743a34e0357b64736f6c63430008160033",
					"opcodes": "PUSH1 0x80 PUSH1 0x40 MSTORE PUSH0 PUSH1 0x8 PUSH0 PUSH2 0x100 EXP DUP2 SLOAD DUP2 PUSH1 0xFF MUL NOT AND SWAP1 DUP4 PUSH1 0xFF AND MUL OR SWAP1 SSTORE POP CALLVALUE DUP1 ISZERO PUSH3 0x2A JUMPI PUSH0 DUP1 REVERT JUMPDEST POP PUSH1 0x40 MLOAD PUSH3 0x281F CODESIZE SUB DUP1 PUSH3 0x281F DUP4 CODECOPY DUP2 DUP2 ADD PUSH1 0x40 MSTORE DUP2 ADD SWAP1 PUSH3 0x50 SWAP2 SWAP1 PUSH3 0x4FC JUMP JUMPDEST PUSH0 DUP3 MLOAD GT PUSH3 0x96 JUMPI PUSH1 0x40 MLOAD PUSH32 0x8C379A000000000000000000000000000000000000000000000000000000000 DUP2 MSTORE PUSH1 0x4 ADD PUSH3 0x8D SWAP1 PUSH3 0x5BE JUMP JUMPDEST PUSH1 0x40 MLOAD DUP1 SWAP2 SUB SWAP1 REVERT JUMPDEST PUSH0 DUP2 GT DUP1 ISZERO PUSH3 0xA7 JUMPI POP DUP2 MLOAD DUP2 GT ISZERO JUMPDEST PUSH3 0xE9 JUMPI PUSH1 0x40 MLOAD PUSH32 0x8C379A000000000000000000000000000000000000000000000000000000000 DUP2 MSTORE PUSH1 0x4 ADD PUSH3 0xE0 SWAP1 PUSH3 0x652 JUMP JUMPDEST PUSH1 0x40 MLOAD DUP1 SWAP2 SUB SWAP1 REVERT JUMPDEST PUSH0 JUMPDEST DUP3 MLOAD DUP2 LT ISZERO PUSH3 0x2D6 JUMPI PUSH0 DUP4 DUP3 DUP2 MLOAD DUP2 LT PUSH3 0x10C JUMPI PUSH3 0x10B PUSH3 0x672 JUMP JUMPDEST JUMPDEST PUSH1 0x20 MUL PUSH1 0x20 ADD ADD MLOAD SWAP1 POP PUSH0 PUSH20 0xFFFFFFFFFFFFFFFFFFFFFFFFFFFFFFFFFFFFFFFF AND DUP2 PUSH20 0xFFFFFFFFFFFFFFFFFFFFFFFFFFFFFFFFFFFFFFFF AND SUB PUSH3 0x187 JUMPI PUSH1 0x40 MLOAD PUSH32 0x8C379A000000000000000000000000000000000000000000000000000000000 DUP2 MSTORE PUSH1 0x4 ADD PUSH3 0x17E SWAP1 PUSH3 0x6ED JUMP JUMPDEST PUSH1 0x40 MLOAD DUP1 SWAP2 SUB SWAP1 REVERT JUMPDEST PUSH1 0x1 PUSH0 DUP3 PUSH20 0xFFFFFFFFFFFFFFFFFFFFFFFFFFFFFFFFFFFFFFFF AND PUSH20 0xFFFFFFFFFFFFFFFFFFFFFFFFFFFFFFFFFFFFFFFF AND DUP2 MSTORE PUSH1 0x20 ADD SWAP1 DUP2 MSTORE PUSH1 0x20 ADD PUSH0 KECCAK256 PUSH0 SWAP1 SLOAD SWAP1 PUSH2 0x100 EXP SWAP1 DIV PUSH1 0xFF AND ISZERO PUSH3 0x214 JUMPI PUSH1 0x40 MLOAD PUSH32 0x8C379A000000000000000000000000000000000000000000000000000000000 DUP2 MSTORE PUSH1 0x4 ADD PUSH3 0x20B SWAP1 PUSH3 0x75B JUMP JUMPDEST PUSH1 0x40 MLOAD DUP1 SWAP2 SUB SWAP1 REVERT JUMPDEST PUSH1 0x1 DUP1 PUSH0 DUP4 PUSH20 0xFFFFFFFFFFFFFFFFFFFFFFFFFFFFFFFFFFFFFFFF AND PUSH20 0xFFFFFFFFFFFFFFFFFFFFFFFFFFFFFFFFFFFFFFFF AND DUP2 MSTORE PUSH1 0x20 ADD SWAP1 DUP2 MSTORE PUSH1 0x20 ADD PUSH0 KECCAK256 PUSH0 PUSH2 0x100 EXP DUP2 SLOAD DUP2 PUSH1 0xFF MUL NOT AND SWAP1 DUP4 ISZERO ISZERO MUL OR SWAP1 SSTORE POP PUSH0 DUP2 SWAP1 DUP1 PUSH1 0x1 DUP2 SLOAD ADD DUP1 DUP3 SSTORE DUP1 SWAP2 POP POP PUSH1 0x1 SWAP1 SUB SWAP1 PUSH0 MSTORE PUSH1 0x20 PUSH0 KECCAK256 ADD PUSH0 SWAP1 SWAP2 SWAP1 SWAP2 SWAP1 SWAP2 PUSH2 0x100 EXP DUP2 SLOAD DUP2 PUSH20 0xFFFFFFFFFFFFFFFFFFFFFFFFFFFFFFFFFFFFFFFF MUL NOT AND SWAP1 DUP4 PUSH20 0xFFFFFFFFFFFFFFFFFFFFFFFFFFFFFFFFFFFFFFFF AND MUL OR SWAP1 SSTORE POP POP DUP1 DUP1 PUSH1 0x1 ADD SWAP2 POP POP PUSH3 0xEB JUMP JUMPDEST POP DUP1 PUSH1 0x2 DUP2 SWAP1 SSTORE POP POP POP PUSH3 0x77B JUMP JUMPDEST PUSH0 PUSH1 0x40 MLOAD SWAP1 POP SWAP1 JUMP JUMPDEST PUSH0 DUP1 REVERT JUMPDEST PUSH0 DUP1 REVERT JUMPDEST PUSH0 DUP1 REVERT JUMPDEST PUSH0 PUSH1 0x1F NOT PUSH1 0x1F DUP4 ADD AND SWAP1 POP SWAP2 SWAP1 POP JUMP JUMPDEST PUSH32 0x4E487B7100000000000000000000000000000000000000000000000000000000 PUSH0 MSTORE PUSH1 0x41 PUSH1 0x4 MSTORE PUSH1 0x24 PUSH0 REVERT JUMPDEST PUSH3 0x343 DUP3 PUSH3 0x2FB JUMP JUMPDEST DUP2 ADD DUP2 DUP2 LT PUSH8 0xFFFFFFFFFFFFFFFF DUP3 GT OR ISZERO PUSH3 0x365 JUMPI PUSH3 0x364 PUSH3 0x30B JUMP JUMPDEST JUMPDEST DUP1 PUSH1 0x40 MSTORE POP POP POP JUMP JUMPDEST PUSH0 PUSH3 0x379 PUSH3 0x2E6 JUMP JUMPDEST SWAP1 POP PUSH3 0x387 DUP3 DUP3 PUSH3 0x338 JUMP JUMPDEST SWAP2 SWAP1 POP JUMP JUMPDEST PUSH0 PUSH8 0xFFFFFFFFFFFFFFFF DUP3 GT ISZERO PUSH3 0x3A9 JUMPI PUSH3 0x3A8 PUSH3 0x30B JUMP JUMPDEST JUMPDEST PUSH1 0x20 DUP3 MUL SWAP1 POP PUSH1 0x20 DUP2 ADD SWAP1 POP SWAP2 SWAP1 POP JUMP JUMPDEST PUSH0 DUP1 REVERT JUMPDEST PUSH0 PUSH20 0xFFFFFFFFFFFFFFFFFFFFFFFFFFFFFFFFFFFFFFFF DUP3 AND SWAP1 POP SWAP2 SWAP1 POP JUMP JUMPDEST PUSH0 PUSH3 0x3E9 DUP3 PUSH3 0x3BE JUMP JUMPDEST SWAP1 POP SWAP2 SWAP1 POP JUMP JUMPDEST PUSH3 0x3FB DUP2 PUSH3 0x3DD JUMP JUMPDEST DUP2 EQ PUSH3 0x406 JUMPI PUSH0 DUP1 REVERT JUMPDEST POP JUMP JUMPDEST PUSH0 DUP2 MLOAD SWAP1 POP PUSH3 0x419 DUP2 PUSH3 0x3F0 JUMP JUMPDEST SWAP3 SWAP2 POP POP JUMP JUMPDEST PUSH0 PUSH3 0x435 PUSH3 0x42F DUP5 PUSH3 0x38C JUMP JUMPDEST PUSH3 0x36E JUMP JUMPDEST SWAP1 POP DUP1 DUP4 DUP3 MSTORE PUSH1 0x20 DUP3 ADD SWAP1 POP PUSH1 0x20 DUP5 MUL DUP4 ADD DUP6 DUP2 GT ISZERO PUSH3 0x45B JUMPI PUSH3 0x45A PUSH3 0x3BA JUMP JUMPDEST JUMPDEST DUP4 JUMPDEST DUP2 DUP2 LT ISZERO PUSH3 0x488 JUMPI DUP1 PUSH3 0x473 DUP9 DUP3 PUSH3 0x409 JUMP JUMPDEST DUP5 MSTORE PUSH1 0x20 DUP5 ADD SWAP4 POP POP PUSH1 0x20 DUP2 ADD SWAP1 POP PUSH3 0x45D JUMP JUMPDEST POP POP POP SWAP4 SWAP3 POP POP POP JUMP JUMPDEST PUSH0 DUP3 PUSH1 0x1F DUP4 ADD SLT PUSH3 0x4A9 JUMPI PUSH3 0x4A8 PUSH3 0x2F7 JUMP JUMPDEST JUMPDEST DUP2 MLOAD PUSH3 0x4BB DUP5 DUP3 PUSH1 0x20 DUP7 ADD PUSH3 0x41F JUMP JUMPDEST SWAP2 POP POP SWAP3 SWAP2 POP POP JUMP JUMPDEST PUSH0 DUP2 SWAP1 POP SWAP2 SWAP1 POP JUMP JUMPDEST PUSH3 0x4D8 DUP2 PUSH3 0x4C4 JUMP JUMPDEST DUP2 EQ PUSH3 0x4E3 JUMPI PUSH0 DUP1 REVERT JUMPDEST POP JUMP JUMPDEST PUSH0 DUP2 MLOAD SWAP1 POP PUSH3 0x4F6 DUP2 PUSH3 0x4CD JUMP JUMPDEST SWAP3 SWAP2 POP POP JUMP JUMPDEST PUSH0 DUP1 PUSH1 0x40 DUP4 DUP6 SUB SLT ISZERO PUSH3 0x515 JUMPI PUSH3 0x514 PUSH3 0x2EF JUMP JUMPDEST JUMPDEST PUSH0 DUP4 ADD MLOAD PUSH8 0xFFFFFFFFFFFFFFFF DUP2 GT ISZERO PUSH3 0x535 JUMPI PUSH3 0x534 PUSH3 0x2F3 JUMP JUMPDEST JUMPDEST PUSH3 0x543 DUP6 DUP3 DUP7 ADD PUSH3 0x492 JUMP JUMPDEST SWAP3 POP POP PUSH1 0x20 PUSH3 0x556 DUP6 DUP3 DUP7 ADD PUSH3 0x4E6 JUMP JUMPDEST SWAP2 POP POP SWAP3 POP SWAP3 SWAP1 POP JUMP JUMPDEST PUSH0 DUP3 DUP3 MSTORE PUSH1 0x20 DUP3 ADD SWAP1 POP SWAP3 SWAP2 POP POP JUMP JUMPDEST PUSH32 0x6F776E6572207265717569726564000000000000000000000000000000000000 PUSH0 DUP3 ADD MSTORE POP JUMP JUMPDEST PUSH0 PUSH3 0x5A6 PUSH1 0xE DUP4 PUSH3 0x560 JUMP JUMPDEST SWAP2 POP PUSH3 0x5B3 DUP3 PUSH3 0x570 JUMP JUMPDEST PUSH1 0x20 DUP3 ADD SWAP1 POP SWAP2 SWAP1 POP JUMP JUMPDEST PUSH0 PUSH1 0x20 DUP3 ADD SWAP1 POP DUP2 DUP2 SUB PUSH0 DUP4 ADD MSTORE PUSH3 0x5D7 DUP2 PUSH3 0x598 JUMP JUMPDEST SWAP1 POP SWAP2 SWAP1 POP JUMP JUMPDEST PUSH32 0x696E76616C6964206E756D626572206F66207265717572656420636F6E666972 PUSH0 DUP3 ADD MSTORE PUSH32 0x6D6174696F6E7300000000000000000000000000000000000000000000000000 PUSH1 0x20 DUP3 ADD MSTORE POP JUMP JUMPDEST PUSH0 PUSH3 0x63A PUSH1 0x27 DUP4 PUSH3 0x560 JUMP JUMPDEST SWAP2 POP PUSH3 0x647 DUP3 PUSH3 0x5DE JUMP JUMPDEST PUSH1 0x40 DUP3 ADD SWAP1 POP SWAP2 SWAP1 POP JUMP JUMPDEST PUSH0 PUSH1 0x20 DUP3 ADD SWAP1 POP DUP2 DUP2 SUB PUSH0 DUP4 ADD MSTORE PUSH3 0x66B DUP2 PUSH3 0x62C JUMP JUMPDEST SWAP1 POP SWAP2 SWAP1 POP JUMP JUMPDEST PUSH32 0x4E487B7100000000000000000000000000000000000000000000000000000000 PUSH0 MSTORE PUSH1 0x32 PUSH1 0x4 MSTORE PUSH1 0x24 PUSH0 REVERT JUMPDEST PUSH32 0x696E76616C6964206F776E657200000000000000000000000000000000000000 PUSH0 DUP3 ADD MSTORE POP JUMP JUMPDEST PUSH0 PUSH3 0x6D5 PUSH1 0xD DUP4 PUSH3 0x560 JUMP JUMPDEST SWAP2 POP PUSH3 0x6E2 DUP3 PUSH3 0x69F JUMP JUMPDEST PUSH1 0x20 DUP3 ADD SWAP1 POP SWAP2 SWAP1 POP JUMP JUMPDEST PUSH0 PUSH1 0x20 DUP3 ADD SWAP1 POP DUP2 DUP2 SUB PUSH0 DUP4 ADD MSTORE PUSH3 0x706 DUP2 PUSH3 0x6C7 JUMP JUMPDEST SWAP1 POP SWAP2 SWAP1 POP JUMP JUMPDEST PUSH32 0x6F776E6572206578697374656400000000000000000000000000000000000000 PUSH0 DUP3 ADD MSTORE POP JUMP JUMPDEST PUSH0 PUSH3 0x743 PUSH1 0xD DUP4 PUSH3 0x560 JUMP JUMPDEST SWAP2 POP PUSH3 0x750 DUP3 PUSH3 0x70D JUMP JUMPDEST PUSH1 0x20 DUP3 ADD SWAP1 POP SWAP2 SWAP1 POP JUMP JUMPDEST PUSH0 PUSH1 0x20 DUP3 ADD SWAP1 POP DUP2 DUP2 SUB PUSH0 DUP4 ADD MSTORE PUSH3 0x774 DUP2 PUSH3 0x735 JUMP JUMPDEST SWAP1 POP SWAP2 SWAP1 POP JUMP JUMPDEST PUSH2 0x2096 DUP1 PUSH3 0x789 PUSH0 CODECOPY PUSH0 RETURN INVALID PUSH1 0x80 PUSH1 0x40 MSTORE PUSH1 0x4 CALLDATASIZE LT PUSH2 0x10C JUMPI PUSH0 CALLDATALOAD PUSH1 0xE0 SHR DUP1 PUSH4 0x9ACE38C2 GT PUSH2 0x94 JUMPI DUP1 PUSH4 0xC105EA2B GT PUSH2 0x63 JUMPI DUP1 PUSH4 0xC105EA2B EQ PUSH2 0x3BE JUMPI DUP1 PUSH4 0xC6754505 EQ PUSH2 0x3E8 JUMPI DUP1 PUSH4 0xD0549B85 EQ PUSH2 0x412 JUMPI DUP1 PUSH4 0xE1E86ED6 EQ PUSH2 0x43C JUMPI DUP1 PUSH4 0xE7A4B23F EQ PUSH2 0x452 JUMPI PUSH2 0x163 JUMP JUMPDEST DUP1 PUSH4 0x9ACE38C2 EQ PUSH2 0x301 JUMPI DUP1 PUSH4 0xA0E67E2B EQ PUSH2 0x342 JUMPI DUP1 PUSH4 0xA72DF9B2 EQ PUSH2 0x36C JUMPI DUP1 PUSH4 0xC01A8C84 EQ PUSH2 0x396 JUMPI PUSH2 0x163 JUMP JUMPDEST DUP1 PUSH4 0x2F54BF6E GT PUSH2 0xDB JUMPI DUP1 PUSH4 0x2F54BF6E EQ PUSH2 0x20B JUMPI DUP1 PUSH4 0x33EA3DC8 EQ PUSH2 0x247 JUMPI DUP1 PUSH4 0x385ECCFC EQ PUSH2 0x287 JUMPI DUP1 PUSH4 0x4E081DC4 EQ PUSH2 0x29D JUMPI DUP1 PUSH4 0x80F59A65 EQ PUSH2 0x2C5 JUMPI PUSH2 0x163 JUMP JUMPDEST DUP1 PUSH4 0x25E7C27 EQ PUSH2 0x167 JUMPI DUP1 PUSH4 0x20EA8D86 EQ PUSH2 0x1A3 JUMPI DUP1 PUSH4 0x29CBAA5C EQ PUSH2 0x1CB JUMPI DUP1 PUSH4 0x2E7700F0 EQ PUSH2 0x1E1 JUMPI PUSH2 0x163 JUMP JUMPDEST CALLDATASIZE PUSH2 0x163 JUMPI CALLER PUSH20 0xFFFFFFFFFFFFFFFFFFFFFFFFFFFFFFFFFFFFFFFF AND PUSH32 0x90890809C654F11D6E72A28FA60149770A0D11EC6C92319D6CEB2BB0A4EA1A15 CALLVALUE SELFBALANCE PUSH1 0x40 MLOAD PUSH2 0x159 SWAP3 SWAP2 SWAP1 PUSH2 0x1626 JUMP JUMPDEST PUSH1 0x40 MLOAD DUP1 SWAP2 SUB SWAP1 LOG2 STOP JUMPDEST PUSH0 DUP1 REVERT JUMPDEST CALLVALUE DUP1 ISZERO PUSH2 0x172 JUMPI PUSH0 DUP1 REVERT JUMPDEST POP PUSH2 0x18D PUSH1 0x4 DUP1 CALLDATASIZE SUB DUP2 ADD SWAP1 PUSH2 0x188 SWAP2 SWAP1 PUSH2 0x167B JUMP JUMPDEST PUSH2 0x48E JUMP JUMPDEST PUSH1 0x40 MLOAD PUSH2 0x19A SWAP2 SWAP1 PUSH2 0x16E5 JUMP JUMPDEST PUSH1 0x40 MLOAD DUP1 SWAP2 SUB SWAP1 RETURN JUMPDEST CALLVALUE DUP1 ISZERO PUSH2 0x1AE JUMPI PUSH0 DUP1 REVERT JUMPDEST POP PUSH2 0x1C9 PUSH1 0x4 DUP1 CALLDATASIZE SUB DUP2 ADD SWAP1 PUSH2 0x1C4 SWAP2 SWAP1 PUSH2 0x167B JUMP JUMPDEST PUSH2 0x4C8 JUMP JUMPDEST STOP JUMPDEST CALLVALUE DUP1 ISZERO PUSH2 0x1D6 JUMPI PUSH0 DUP1 REVERT JUMPDEST POP PUSH2 0x1DF PUSH2 0x78D JUMP JUMPDEST STOP JUMPDEST CALLVALUE DUP1 ISZERO PUSH2 0x1EC JUMPI PUSH0 DUP1 REVERT JUMPDEST POP PUSH2 0x1F5 PUSH2 0x92E JUMP JUMPDEST PUSH1 0x40 MLOAD PUSH2 0x202 SWAP2 SWAP1 PUSH2 0x16FE JUMP JUMPDEST PUSH1 0x40 MLOAD DUP1 SWAP2 SUB SWAP1 RETURN JUMPDEST CALLVALUE DUP1 ISZERO PUSH2 0x216 JUMPI PUSH0 DUP1 REVERT JUMPDEST POP PUSH2 0x231 PUSH1 0x4 DUP1 CALLDATASIZE SUB DUP2 ADD SWAP1 PUSH2 0x22C SWAP2 SWAP1 PUSH2 0x1741 JUMP JUMPDEST PUSH2 0x93A JUMP JUMPDEST PUSH1 0x40 MLOAD PUSH2 0x23E SWAP2 SWAP1 PUSH2 0x1786 JUMP JUMPDEST PUSH1 0x40 MLOAD DUP1 SWAP2 SUB SWAP1 RETURN JUMPDEST CALLVALUE DUP1 ISZERO PUSH2 0x252 JUMPI PUSH0 DUP1 REVERT JUMPDEST POP PUSH2 0x26D PUSH1 0x4 DUP1 CALLDATASIZE SUB DUP2 ADD SWAP1 PUSH2 0x268 SWAP2 SWAP1 PUSH2 0x167B JUMP JUMPDEST PUSH2 0x957 JUMP JUMPDEST PUSH1 0x40 MLOAD PUSH2 0x27E SWAP6 SWAP5 SWAP4 SWAP3 SWAP2 SWAP1 PUSH2 0x1829 JUMP JUMPDEST PUSH1 0x40 MLOAD DUP1 SWAP2 SUB SWAP1 RETURN JUMPDEST CALLVALUE DUP1 ISZERO PUSH2 0x292 JUMPI PUSH0 DUP1 REVERT JUMPDEST POP PUSH2 0x29B PUSH2 0xAA7 JUMP JUMPDEST STOP JUMPDEST CALLVALUE DUP1 ISZERO PUSH2 0x2A8 JUMPI PUSH0 DUP1 REVERT JUMPDEST POP PUSH2 0x2C3 PUSH1 0x4 DUP1 CALLDATASIZE SUB DUP2 ADD SWAP1 PUSH2 0x2BE SWAP2 SWAP1 PUSH2 0x1881 JUMP JUMPDEST PUSH2 0xBF6 JUMP JUMPDEST STOP JUMPDEST CALLVALUE DUP1 ISZERO PUSH2 0x2D0 JUMPI PUSH0 DUP1 REVERT JUMPDEST POP PUSH2 0x2EB PUSH1 0x4 DUP1 CALLDATASIZE SUB DUP2 ADD SWAP1 PUSH2 0x2E6 SWAP2 SWAP1 PUSH2 0x18BF JUMP JUMPDEST PUSH2 0xE32 JUMP JUMPDEST PUSH1 0x40 MLOAD PUSH2 0x2F8 SWAP2 SWAP1 PUSH2 0x1786 JUMP JUMPDEST PUSH1 0x40 MLOAD DUP1 SWAP2 SUB SWAP1 RETURN JUMPDEST CALLVALUE DUP1 ISZERO PUSH2 0x30C JUMPI PUSH0 DUP1 REVERT JUMPDEST POP PUSH2 0x327 PUSH1 0x4 DUP1 CALLDATASIZE SUB DUP2 ADD SWAP1 PUSH2 0x322 SWAP2 SWAP1 PUSH2 0x167B JUMP JUMPDEST PUSH2 0xE5C JUMP JUMPDEST PUSH1 0x40 MLOAD PUSH2 0x339 SWAP7 SWAP6 SWAP5 SWAP4 SWAP3 SWAP2 SWAP1 PUSH2 0x18FD JUMP JUMPDEST PUSH1 0x40 MLOAD DUP1 SWAP2 SUB SWAP1 RETURN JUMPDEST CALLVALUE DUP1 ISZERO PUSH2 0x34D JUMPI PUSH0 DUP1 REVERT JUMPDEST POP PUSH2 0x356 PUSH2 0xF54 JUMP JUMPDEST PUSH1 0x40 MLOAD PUSH2 0x363 SWAP2 SWAP1 PUSH2 0x1A1A JUMP JUMPDEST PUSH1 0x40 MLOAD DUP1 SWAP2 SUB SWAP1 RETURN JUMPDEST CALLVALUE DUP1 ISZERO PUSH2 0x377 JUMPI PUSH0 DUP1 REVERT JUMPDEST POP PUSH2 0x380 PUSH2 0xFDE JUMP JUMPDEST PUSH1 0x40 MLOAD PUSH2 0x38D SWAP2 SWAP1 PUSH2 0x1A55 JUMP JUMPDEST PUSH1 0x40 MLOAD DUP1 SWAP2 SUB SWAP1 RETURN JUMPDEST CALLVALUE DUP1 ISZERO PUSH2 0x3A1 JUMPI PUSH0 DUP1 REVERT JUMPDEST POP PUSH2 0x3BC PUSH1 0x4 DUP1 CALLDATASIZE SUB DUP2 ADD SWAP1 PUSH2 0x3B7 SWAP2 SWAP1 PUSH2 0x167B JUMP JUMPDEST PUSH2 0xFF0 JUMP JUMPDEST STOP JUMPDEST CALLVALUE DUP1 ISZERO PUSH2 0x3C9 JUMPI PUSH0 DUP1 REVERT JUMPDEST POP PUSH2 0x3D2 PUSH2 0x12B9 JUMP JUMPDEST PUSH1 0x40 MLOAD PUSH2 0x3DF SWAP2 SWAP1 PUSH2 0x16E5 JUMP JUMPDEST PUSH1 0x40 MLOAD DUP1 SWAP2 SUB SWAP1 RETURN JUMPDEST CALLVALUE DUP1 ISZERO PUSH2 0x3F3 JUMPI PUSH0 DUP1 REVERT JUMPDEST POP PUSH2 0x3FC PUSH2 0x12DE JUMP JUMPDEST PUSH1 0x40 MLOAD PUSH2 0x409 SWAP2 SWAP1 PUSH2 0x16E5 JUMP JUMPDEST PUSH1 0x40 MLOAD DUP1 SWAP2 SUB SWAP1 RETURN JUMPDEST CALLVALUE DUP1 ISZERO PUSH2 0x41D JUMPI PUSH0 DUP1 REVERT JUMPDEST POP PUSH2 0x426 PUSH2 0x1303 JUMP JUMPDEST PUSH1 0x40 MLOAD PUSH2 0x433 SWAP2 SWAP1 PUSH2 0x16FE JUMP JUMPDEST PUSH1 0x40 MLOAD DUP1 SWAP2 SUB SWAP1 RETURN JUMPDEST CALLVALUE DUP1 ISZERO PUSH2 0x447 JUMPI PUSH0 DUP1 REVERT JUMPDEST POP PUSH2 0x450 PUSH2 0x1309 JUMP JUMPDEST STOP JUMPDEST CALLVALUE DUP1 ISZERO PUSH2 0x45D JUMPI PUSH0 DUP1 REVERT JUMPDEST POP PUSH2 0x478 PUSH1 0x4 DUP1 CALLDATASIZE SUB DUP2 ADD SWAP1 PUSH2 0x473 SWAP2 SWAP1 PUSH2 0x1741 JUMP JUMPDEST PUSH2 0x15F1 JUMP JUMPDEST PUSH1 0x40 MLOAD PUSH2 0x485 SWAP2 SWAP1 PUSH2 0x1786 JUMP JUMPDEST PUSH1 0x40 MLOAD DUP1 SWAP2 SUB SWAP1 RETURN JUMPDEST PUSH0 DUP2 DUP2 SLOAD DUP2 LT PUSH2 0x49C JUMPI PUSH0 DUP1 REVERT JUMPDEST SWAP1 PUSH0 MSTORE PUSH1 0x20 PUSH0 KECCAK256 ADD PUSH0 SWAP2 POP SLOAD SWAP1 PUSH2 0x100 EXP SWAP1 DIV PUSH20 0xFFFFFFFFFFFFFFFFFFFFFFFFFFFFFFFFFFFFFFFF AND DUP2 JUMP JUMPDEST PUSH1 0x1 PUSH0 CALLER PUSH20 0xFFFFFFFFFFFFFFFFFFFFFFFFFFFFFFFFFFFFFFFF AND PUSH20 0xFFFFFFFFFFFFFFFFFFFFFFFFFFFFFFFFFFFFFFFF AND DUP2 MSTORE PUSH1 0x20 ADD SWAP1 DUP2 MSTORE PUSH1 0x20 ADD PUSH0 KECCAK256 PUSH0 SWAP1 SLOAD SWAP1 PUSH2 0x100 EXP SWAP1 DIV PUSH1 0xFF AND PUSH2 0x551 JUMPI PUSH1 0x40 MLOAD PUSH32 0x8C379A000000000000000000000000000000000000000000000000000000000 DUP2 MSTORE PUSH1 0x4 ADD PUSH2 0x548 SWAP1 PUSH2 0x1AC8 JUMP JUMPDEST PUSH1 0x40 MLOAD DUP1 SWAP2 SUB SWAP1 REVERT JUMPDEST DUP1 PUSH1 0x4 DUP1 SLOAD SWAP1 POP DUP2 LT PUSH2 0x599 JUMPI PUSH1 0x40 MLOAD PUSH32 0x8C379A000000000000000000000000000000000000000000000000000000000 DUP2 MSTORE PUSH1 0x4 ADD PUSH2 0x590 SWAP1 PUSH2 0x1B30 JUMP JUMPDEST PUSH1 0x40 MLOAD DUP1 SWAP2 SUB SWAP1 REVERT JUMPDEST DUP2 PUSH1 0x4 DUP2 DUP2 SLOAD DUP2 LT PUSH2 0x5AE JUMPI PUSH2 0x5AD PUSH2 0x1B4E JUMP JUMPDEST JUMPDEST SWAP1 PUSH0 MSTORE PUSH1 0x20 PUSH0 KECCAK256 SWAP1 PUSH1 0x6 MUL ADD PUSH1 0x3 ADD PUSH0 SWAP1 SLOAD SWAP1 PUSH2 0x100 EXP SWAP1 DIV PUSH1 0xFF AND ISZERO PUSH2 0x60A JUMPI PUSH1 0x40 MLOAD PUSH32 0x8C379A000000000000000000000000000000000000000000000000000000000 DUP2 MSTORE PUSH1 0x4 ADD PUSH2 0x601 SWAP1 PUSH2 0x1BC5 JUMP JUMPDEST PUSH1 0x40 MLOAD DUP1 SWAP2 SUB SWAP1 REVERT JUMPDEST PUSH0 PUSH1 0x4 DUP5 DUP2 SLOAD DUP2 LT PUSH2 0x61F JUMPI PUSH2 0x61E PUSH2 0x1B4E JUMP JUMPDEST JUMPDEST SWAP1 PUSH0 MSTORE PUSH1 0x20 PUSH0 KECCAK256 SWAP1 PUSH1 0x6 MUL ADD SWAP1 POP PUSH1 0x3 PUSH0 DUP6 DUP2 MSTORE PUSH1 0x20 ADD SWAP1 DUP2 MSTORE PUSH1 0x20 ADD PUSH0 KECCAK256 PUSH0 CALLER PUSH20 0xFFFFFFFFFFFFFFFFFFFFFFFFFFFFFFFFFFFFFFFF AND PUSH20 0xFFFFFFFFFFFFFFFFFFFFFFFFFFFFFFFFFFFFFFFF AND DUP2 MSTORE PUSH1 0x20 ADD SWAP1 DUP2 MSTORE PUSH1 0x20 ADD PUSH0 KECCAK256 PUSH0 SWAP1 SLOAD SWAP1 PUSH2 0x100 EXP SWAP1 DIV PUSH1 0xFF AND PUSH2 0x6C5 JUMPI PUSH1 0x40 MLOAD PUSH32 0x8C379A000000000000000000000000000000000000000000000000000000000 DUP2 MSTORE PUSH1 0x4 ADD PUSH2 0x6BC SWAP1 PUSH2 0x1C2D JUMP JUMPDEST PUSH1 0x40 MLOAD DUP1 SWAP2 SUB SWAP1 REVERT JUMPDEST PUSH1 0x1 DUP2 PUSH1 0x4 ADD PUSH0 DUP3 DUP3 SLOAD PUSH2 0x6D9 SWAP2 SWAP1 PUSH2 0x1C78 JUMP JUMPDEST SWAP3 POP POP DUP2 SWAP1 SSTORE POP PUSH0 PUSH1 0x3 PUSH0 DUP7 DUP2 MSTORE PUSH1 0x20 ADD SWAP1 DUP2 MSTORE PUSH1 0x20 ADD PUSH0 KECCAK256 PUSH0 CALLER PUSH20 0xFFFFFFFFFFFFFFFFFFFFFFFFFFFFFFFFFFFFFFFF AND PUSH20 0xFFFFFFFFFFFFFFFFFFFFFFFFFFFFFFFFFFFFFFFF AND DUP2 MSTORE PUSH1 0x20 ADD SWAP1 DUP2 MSTORE PUSH1 0x20 ADD PUSH0 KECCAK256 PUSH0 PUSH2 0x100 EXP DUP2 SLOAD DUP2 PUSH1 0xFF MUL NOT AND SWAP1 DUP4 ISZERO ISZERO MUL OR SWAP1 SSTORE POP DUP4 CALLER PUSH20 0xFFFFFFFFFFFFFFFFFFFFFFFFFFFFFFFFFFFFFFFF AND PUSH32 0xF0DCA620E2E81F7841D07BCC105E1704FB01475B278A9D4C236E1C62945EDD55 PUSH1 0x40 MLOAD PUSH1 0x40 MLOAD DUP1 SWAP2 SUB SWAP1 LOG3 POP POP POP POP JUMP JUMPDEST PUSH1 0x1 PUSH0 CALLER PUSH20 0xFFFFFFFFFFFFFFFFFFFFFFFFFFFFFFFFFFFFFFFF AND PUSH20 0xFFFFFFFFFFFFFFFFFFFFFFFFFFFFFFFFFFFFFFFF AND DUP2 MSTORE PUSH1 0x20 ADD SWAP1 DUP2 MSTORE PUSH1 0x20 ADD PUSH0 KECCAK256 PUSH0 SWAP1 SLOAD SWAP1 PUSH2 0x100 EXP SWAP1 DIV PUSH1 0xFF AND PUSH2 0x816 JUMPI PUSH1 0x40 MLOAD PUSH32 0x8C379A000000000000000000000000000000000000000000000000000000000 DUP2 MSTORE PUSH1 0x4 ADD PUSH2 0x80D SWAP1 PUSH2 0x1AC8 JUMP JUMPDEST PUSH1 0x40 MLOAD DUP1 SWAP2 SUB SWAP1 REVERT JUMPDEST PUSH1 0x7 PUSH0 CALLER PUSH20 0xFFFFFFFFFFFFFFFFFFFFFFFFFFFFFFFFFFFFFFFF AND PUSH20 0xFFFFFFFFFFFFFFFFFFFFFFFFFFFFFFFFFFFFFFFF AND DUP2 MSTORE PUSH1 0x20 ADD SWAP1 DUP2 MSTORE PUSH1 0x20 ADD PUSH0 KECCAK256 PUSH0 SWAP1 SLOAD SWAP1 PUSH2 0x100 EXP SWAP1 DIV PUSH1 0xFF AND ISZERO PUSH2 0x8A0 JUMPI PUSH1 0x40 MLOAD PUSH32 0x8C379A000000000000000000000000000000000000000000000000000000000 DUP2 MSTORE PUSH1 0x4 ADD PUSH2 0x897 SWAP1 PUSH2 0x1CCE JUMP JUMPDEST PUSH1 0x40 MLOAD DUP1 SWAP2 SUB SWAP1 REVERT JUMPDEST PUSH1 0x1 PUSH1 0x7 PUSH0 CALLER PUSH20 0xFFFFFFFFFFFFFFFFFFFFFFFFFFFFFFFFFFFFFFFF AND PUSH20 0xFFFFFFFFFFFFFFFFFFFFFFFFFFFFFFFFFFFFFFFF AND DUP2 MSTORE PUSH1 0x20 ADD SWAP1 DUP2 MSTORE PUSH1 0x20 ADD PUSH0 KECCAK256 PUSH0 PUSH2 0x100 EXP DUP2 SLOAD DUP2 PUSH1 0xFF MUL NOT AND SWAP1 DUP4 ISZERO ISZERO MUL OR SWAP1 SSTORE POP PUSH1 0x8 PUSH0 DUP2 DUP2 SWAP1 SLOAD SWAP1 PUSH2 0x100 EXP SWAP1 DIV PUSH1 0xFF AND DUP1 SWAP3 SWAP2 SWAP1 PUSH2 0x913 SWAP1 PUSH2 0x1CEC JUMP JUMPDEST SWAP2 SWAP1 PUSH2 0x100 EXP DUP2 SLOAD DUP2 PUSH1 0xFF MUL NOT AND SWAP1 DUP4 PUSH1 0xFF AND MUL OR SWAP1 SSTORE POP POP JUMP JUMPDEST PUSH0 PUSH1 0x4 DUP1 SLOAD SWAP1 POP SWAP1 POP SWAP1 JUMP JUMPDEST PUSH1 0x1 PUSH1 0x20 MSTORE DUP1 PUSH0 MSTORE PUSH1 0x40 PUSH0 KECCAK256 PUSH0 SWAP2 POP SLOAD SWAP1 PUSH2 0x100 EXP SWAP1 DIV PUSH1 0xFF AND DUP2 JUMP JUMPDEST PUSH0 DUP1 PUSH1 0x60 PUSH0 DUP1 PUSH1 0x4 DUP1 SLOAD SWAP1 POP DUP7 LT PUSH2 0x9A4 JUMPI PUSH1 0x40 MLOAD PUSH32 0x8C379A000000000000000000000000000000000000000000000000000000000 DUP2 MSTORE PUSH1 0x4 ADD PUSH2 0x99B SWAP1 PUSH2 0x1D5E JUMP JUMPDEST PUSH1 0x40 MLOAD DUP1 SWAP2 SUB SWAP1 REVERT JUMPDEST PUSH0 PUSH1 0x4 DUP8 DUP2 SLOAD DUP2 LT PUSH2 0x9B9 JUMPI PUSH2 0x9B8 PUSH2 0x1B4E JUMP JUMPDEST JUMPDEST SWAP1 PUSH0 MSTORE PUSH1 0x20 PUSH0 KECCAK256 SWAP1 PUSH1 0x6 MUL ADD SWAP1 POP DUP1 PUSH0 ADD PUSH0 SWAP1 SLOAD SWAP1 PUSH2 0x100 EXP SWAP1 DIV PUSH20 0xFFFFFFFFFFFFFFFFFFFFFFFFFFFFFFFFFFFFFFFF AND DUP2 PUSH1 0x1 ADD SLOAD DUP3 PUSH1 0x2 ADD DUP4 PUSH1 0x3 ADD PUSH0 SWAP1 SLOAD SWAP1 PUSH2 0x100 EXP SWAP1 DIV PUSH1 0xFF AND DUP5 PUSH1 0x4 ADD SLOAD DUP3 DUP1 SLOAD PUSH2 0xA15 SWAP1 PUSH2 0x1DA9 JUMP JUMPDEST DUP1 PUSH1 0x1F ADD PUSH1 0x20 DUP1 SWAP2 DIV MUL PUSH1 0x20 ADD PUSH1 0x40 MLOAD SWAP1 DUP2 ADD PUSH1 0x40 MSTORE DUP1 SWAP3 SWAP2 SWAP1 DUP2 DUP2 MSTORE PUSH1 0x20 ADD DUP3 DUP1 SLOAD PUSH2 0xA41 SWAP1 PUSH2 0x1DA9 JUMP JUMPDEST DUP1 ISZERO PUSH2 0xA8C JUMPI DUP1 PUSH1 0x1F LT PUSH2 0xA63 JUMPI PUSH2 0x100 DUP1 DUP4 SLOAD DIV MUL DUP4 MSTORE SWAP2 PUSH1 0x20 ADD SWAP2 PUSH2 0xA8C JUMP JUMPDEST DUP3 ADD SWAP2 SWAP1 PUSH0 MSTORE PUSH1 0x20 PUSH0 KECCAK256 SWAP1 JUMPDEST DUP2 SLOAD DUP2 MSTORE SWAP1 PUSH1 0x1 ADD SWAP1 PUSH1 0x20 ADD DUP1 DUP4 GT PUSH2 0xA6F JUMPI DUP3 SWAP1 SUB PUSH1 0x1F AND DUP3 ADD SWAP2 JUMPDEST POP POP POP POP POP SWAP3 POP SWAP6 POP SWAP6 POP SWAP6 POP SWAP6 POP SWAP6 POP POP SWAP2 SWAP4 SWAP6 SWAP1 SWAP3 SWAP5 POP JUMP JUMPDEST PUSH1 0x1 PUSH0 CALLER PUSH20 0xFFFFFFFFFFFFFFFFFFFFFFFFFFFFFFFFFFFFFFFF AND PUSH20 0xFFFFFFFFFFFFFFFFFFFFFFFFFFFFFFFFFFFFFFFF AND DUP2 MSTORE PUSH1 0x20 ADD SWAP1 DUP2 MSTORE PUSH1 0x20 ADD PUSH0 KECCAK256 PUSH0 SWAP1 SLOAD SWAP1 PUSH2 0x100 EXP SWAP1 DIV PUSH1 0xFF AND PUSH2 0xB30 JUMPI PUSH1 0x40 MLOAD PUSH32 0x8C379A000000000000000000000000000000000000000000000000000000000 DUP2 MSTORE PUSH1 0x4 ADD PUSH2 0xB27 SWAP1 PUSH2 0x1AC8 JUMP JUMPDEST PUSH1 0x40 MLOAD DUP1 SWAP2 SUB SWAP1 REVERT JUMPDEST PUSH0 PUSH1 0x8 PUSH0 PUSH2 0x100 EXP DUP2 SLOAD DUP2 PUSH1 0xFF MUL NOT AND SWAP1 DUP4 PUSH1 0xFF AND MUL OR SWAP1 SSTORE POP PUSH0 JUMPDEST PUSH0 DUP1 SLOAD SWAP1 POP DUP2 LT ISZERO PUSH2 0xBF3 JUMPI PUSH0 PUSH1 0x7 PUSH0 DUP1 DUP5 DUP2 SLOAD DUP2 LT PUSH2 0xB6F JUMPI PUSH2 0xB6E PUSH2 0x1B4E JUMP JUMPDEST JUMPDEST SWAP1 PUSH0 MSTORE PUSH1 0x20 PUSH0 KECCAK256 ADD PUSH0 SWAP1 SLOAD SWAP1 PUSH2 0x100 EXP SWAP1 DIV PUSH20 0xFFFFFFFFFFFFFFFFFFFFFFFFFFFFFFFFFFFFFFFF AND PUSH20 0xFFFFFFFFFFFFFFFFFFFFFFFFFFFFFFFFFFFFFFFF AND PUSH20 0xFFFFFFFFFFFFFFFFFFFFFFFFFFFFFFFFFFFFFFFF AND DUP2 MSTORE PUSH1 0x20 ADD SWAP1 DUP2 MSTORE PUSH1 0x20 ADD PUSH0 KECCAK256 PUSH0 PUSH2 0x100 EXP DUP2 SLOAD DUP2 PUSH1 0xFF MUL NOT AND SWAP1 DUP4 ISZERO ISZERO MUL OR SWAP1 SSTORE POP DUP1 DUP1 PUSH1 0x1 ADD SWAP2 POP POP PUSH2 0xB4C JUMP JUMPDEST POP JUMP JUMPDEST PUSH1 0x1 PUSH0 CALLER PUSH20 0xFFFFFFFFFFFFFFFFFFFFFFFFFFFFFFFFFFFFFFFF AND PUSH20 0xFFFFFFFFFFFFFFFFFFFFFFFFFFFFFFFFFFFFFFFF AND DUP2 MSTORE PUSH1 0x20 ADD SWAP1 DUP2 MSTORE PUSH1 0x20 ADD PUSH0 KECCAK256 PUSH0 SWAP1 SLOAD SWAP1 PUSH2 0x100 EXP SWAP1 DIV PUSH1 0xFF AND PUSH2 0xC7F JUMPI PUSH1 0x40 MLOAD PUSH32 0x8C379A000000000000000000000000000000000000000000000000000000000 DUP2 MSTORE PUSH1 0x4 ADD PUSH2 0xC76 SWAP1 PUSH2 0x1AC8 JUMP JUMPDEST PUSH1 0x40 MLOAD DUP1 SWAP2 SUB SWAP1 REVERT JUMPDEST PUSH0 PUSH20 0xFFFFFFFFFFFFFFFFFFFFFFFFFFFFFFFFFFFFFFFF AND DUP3 PUSH20 0xFFFFFFFFFFFFFFFFFFFFFFFFFFFFFFFFFFFFFFFF AND EQ ISZERO DUP1 PUSH2 0xCE6 JUMPI POP PUSH0 PUSH20 0xFFFFFFFFFFFFFFFFFFFFFFFFFFFFFFFFFFFFFFFF AND DUP2 PUSH20 0xFFFFFFFFFFFFFFFFFFFFFFFFFFFFFFFFFFFFFFFF AND EQ ISZERO JUMPDEST PUSH2 0xD25 JUMPI PUSH1 0x40 MLOAD PUSH32 0x8C379A000000000000000000000000000000000000000000000000000000000 DUP2 MSTORE PUSH1 0x4 ADD PUSH2 0xD1C SWAP1 PUSH2 0x1E49 JUMP JUMPDEST PUSH1 0x40 MLOAD DUP1 SWAP2 SUB SWAP1 REVERT JUMPDEST PUSH1 0x1 PUSH0 CALLER PUSH20 0xFFFFFFFFFFFFFFFFFFFFFFFFFFFFFFFFFFFFFFFF AND PUSH20 0xFFFFFFFFFFFFFFFFFFFFFFFFFFFFFFFFFFFFFFFF AND DUP2 MSTORE PUSH1 0x20 ADD SWAP1 DUP2 MSTORE PUSH1 0x20 ADD PUSH0 KECCAK256 PUSH0 SWAP1 SLOAD SWAP1 PUSH2 0x100 EXP SWAP1 DIV PUSH1 0xFF AND PUSH2 0xDAE JUMPI PUSH1 0x40 MLOAD PUSH32 0x8C379A000000000000000000000000000000000000000000000000000000000 DUP2 MSTORE PUSH1 0x4 ADD PUSH2 0xDA5 SWAP1 PUSH2 0x1EB1 JUMP JUMPDEST PUSH1 0x40 MLOAD DUP1 SWAP2 SUB SWAP1 REVERT JUMPDEST DUP2 PUSH1 0x5 PUSH0 PUSH2 0x100 EXP DUP2 SLOAD DUP2 PUSH20 0xFFFFFFFFFFFFFFFFFFFFFFFFFFFFFFFFFFFFFFFF MUL NOT AND SWAP1 DUP4 PUSH20 0xFFFFFFFFFFFFFFFFFFFFFFFFFFFFFFFFFFFFFFFF AND MUL OR SWAP1 SSTORE POP DUP1 PUSH1 0x6 PUSH0 PUSH2 0x100 EXP DUP2 SLOAD DUP2 PUSH20 0xFFFFFFFFFFFFFFFFFFFFFFFFFFFFFFFFFFFFFFFF MUL NOT AND SWAP1 DUP4 PUSH20 0xFFFFFFFFFFFFFFFFFFFFFFFFFFFFFFFFFFFFFFFF AND MUL OR SWAP1 SSTORE POP POP POP JUMP JUMPDEST PUSH1 0x3 PUSH1 0x20 MSTORE DUP2 PUSH0 MSTORE PUSH1 0x40 PUSH0 KECCAK256 PUSH1 0x20 MSTORE DUP1 PUSH0 MSTORE PUSH1 0x40 PUSH0 KECCAK256 PUSH0 SWAP2 POP SWAP2 POP SWAP1 SLOAD SWAP1 PUSH2 0x100 EXP SWAP1 DIV PUSH1 0xFF AND DUP2 JUMP JUMPDEST PUSH1 0x4 DUP2 DUP2 SLOAD DUP2 LT PUSH2 0xE6B JUMPI PUSH0 DUP1 REVERT JUMPDEST SWAP1 PUSH0 MSTORE PUSH1 0x20 PUSH0 KECCAK256 SWAP1 PUSH1 0x6 MUL ADD PUSH0 SWAP2 POP SWAP1 POP DUP1 PUSH0 ADD PUSH0 SWAP1 SLOAD SWAP1 PUSH2 0x100 EXP SWAP1 DIV PUSH20 0xFFFFFFFFFFFFFFFFFFFFFFFFFFFFFFFFFFFFFFFF AND SWAP1 DUP1 PUSH1 0x1 ADD SLOAD SWAP1 DUP1 PUSH1 0x2 ADD DUP1 SLOAD PUSH2 0xEB5 SWAP1 PUSH2 0x1DA9 JUMP JUMPDEST DUP1 PUSH1 0x1F ADD PUSH1 0x20 DUP1 SWAP2 DIV MUL PUSH1 0x20 ADD PUSH1 0x40 MLOAD SWAP1 DUP2 ADD PUSH1 0x40 MSTORE DUP1 SWAP3 SWAP2 SWAP1 DUP2 DUP2 MSTORE PUSH1 0x20 ADD DUP3 DUP1 SLOAD PUSH2 0xEE1 SWAP1 PUSH2 0x1DA9 JUMP JUMPDEST DUP1 ISZERO PUSH2 0xF2C JUMPI DUP1 PUSH1 0x1F LT PUSH2 0xF03 JUMPI PUSH2 0x100 DUP1 DUP4 SLOAD DIV MUL DUP4 MSTORE SWAP2 PUSH1 0x20 ADD SWAP2 PUSH2 0xF2C JUMP JUMPDEST DUP3 ADD SWAP2 SWAP1 PUSH0 MSTORE PUSH1 0x20 PUSH0 KECCAK256 SWAP1 JUMPDEST DUP2 SLOAD DUP2 MSTORE SWAP1 PUSH1 0x1 ADD SWAP1 PUSH1 0x20 ADD DUP1 DUP4 GT PUSH2 0xF0F JUMPI DUP3 SWAP1 SUB PUSH1 0x1F AND DUP3 ADD SWAP2 JUMPDEST POP POP POP POP POP SWAP1 DUP1 PUSH1 0x3 ADD PUSH0 SWAP1 SLOAD SWAP1 PUSH2 0x100 EXP SWAP1 DIV PUSH1 0xFF AND SWAP1 DUP1 PUSH1 0x4 ADD SLOAD SWAP1 DUP1 PUSH1 0x5 ADD SLOAD SWAP1 POP DUP7 JUMP JUMPDEST PUSH1 0x60 PUSH0 DUP1 SLOAD DUP1 PUSH1 0x20 MUL PUSH1 0x20 ADD PUSH1 0x40 MLOAD SWAP1 DUP2 ADD PUSH1 0x40 MSTORE DUP1 SWAP3 SWAP2 SWAP1 DUP2 DUP2 MSTORE PUSH1 0x20 ADD DUP3 DUP1 SLOAD DUP1 ISZERO PUSH2 0xFD4 JUMPI PUSH1 0x20 MUL DUP3 ADD SWAP2 SWAP1 PUSH0 MSTORE PUSH1 0x20 PUSH0 KECCAK256 SWAP1 JUMPDEST DUP2 PUSH0 SWAP1 SLOAD SWAP1 PUSH2 0x100 EXP SWAP1 DIV PUSH20 0xFFFFFFFFFFFFFFFFFFFFFFFFFFFFFFFFFFFFFFFF AND PUSH20 0xFFFFFFFFFFFFFFFFFFFFFFFFFFFFFFFFFFFFFFFF AND DUP2 MSTORE PUSH1 0x20 ADD SWAP1 PUSH1 0x1 ADD SWAP1 DUP1 DUP4 GT PUSH2 0xF8B JUMPI JUMPDEST POP POP POP POP POP SWAP1 POP SWAP1 JUMP JUMPDEST PUSH1 0x8 PUSH0 SWAP1 SLOAD SWAP1 PUSH2 0x100 EXP SWAP1 DIV PUSH1 0xFF AND DUP2 JUMP JUMPDEST PUSH1 0x1 PUSH0 CALLER PUSH20 0xFFFFFFFFFFFFFFFFFFFFFFFFFFFFFFFFFFFFFFFF AND PUSH20 0xFFFFFFFFFFFFFFFFFFFFFFFFFFFFFFFFFFFFFFFF AND DUP2 MSTORE PUSH1 0x20 ADD SWAP1 DUP2 MSTORE PUSH1 0x20 ADD PUSH0 KECCAK256 PUSH0 SWAP1 SLOAD SWAP1 PUSH2 0x100 EXP SWAP1 DIV PUSH1 0xFF AND PUSH2 0x1079 JUMPI PUSH1 0x40 MLOAD PUSH32 0x8C379A000000000000000000000000000000000000000000000000000000000 DUP2 MSTORE PUSH1 0x4 ADD PUSH2 0x1070 SWAP1 PUSH2 0x1AC8 JUMP JUMPDEST PUSH1 0x40 MLOAD DUP1 SWAP2 SUB SWAP1 REVERT JUMPDEST DUP1 PUSH1 0x4 DUP1 SLOAD SWAP1 POP DUP2 LT PUSH2 0x10C1 JUMPI PUSH1 0x40 MLOAD PUSH32 0x8C379A000000000000000000000000000000000000000000000000000000000 DUP2 MSTORE PUSH1 0x4 ADD PUSH2 0x10B8 SWAP1 PUSH2 0x1B30 JUMP JUMPDEST PUSH1 0x40 MLOAD DUP1 SWAP2 SUB SWAP1 REVERT JUMPDEST DUP2 PUSH1 0x4 DUP2 DUP2 SLOAD DUP2 LT PUSH2 0x10D6 JUMPI PUSH2 0x10D5 PUSH2 0x1B4E JUMP JUMPDEST JUMPDEST SWAP1 PUSH0 MSTORE PUSH1 0x20 PUSH0 KECCAK256 SWAP1 PUSH1 0x6 MUL ADD PUSH1 0x3 ADD PUSH0 SWAP1 SLOAD SWAP1 PUSH2 0x100 EXP SWAP1 DIV PUSH1 0xFF AND ISZERO PUSH2 0x1132 JUMPI PUSH1 0x40 MLOAD PUSH32 0x8C379A000000000000000000000000000000000000000000000000000000000 DUP2 MSTORE PUSH1 0x4 ADD PUSH2 0x1129 SWAP1 PUSH2 0x1BC5 JUMP JUMPDEST PUSH1 0x40 MLOAD DUP1 SWAP2 SUB SWAP1 REVERT JUMPDEST DUP3 PUSH1 0x3 PUSH0 DUP3 DUP2 MSTORE PUSH1 0x20 ADD SWAP1 DUP2 MSTORE PUSH1 0x20 ADD PUSH0 KECCAK256 PUSH0 CALLER PUSH20 0xFFFFFFFFFFFFFFFFFFFFFFFFFFFFFFFFFFFFFFFF AND PUSH20 0xFFFFFFFFFFFFFFFFFFFFFFFFFFFFFFFFFFFFFFFF AND DUP2 MSTORE PUSH1 0x20 ADD SWAP1 DUP2 MSTORE PUSH1 0x20 ADD PUSH0 KECCAK256 PUSH0 SWAP1 SLOAD SWAP1 PUSH2 0x100 EXP SWAP1 DIV PUSH1 0xFF AND ISZERO PUSH2 0x11CC JUMPI PUSH1 0x40 MLOAD PUSH32 0x8C379A000000000000000000000000000000000000000000000000000000000 DUP2 MSTORE PUSH1 0x4 ADD PUSH2 0x11C3 SWAP1 PUSH2 0x1F19 JUMP JUMPDEST PUSH1 0x40 MLOAD DUP1 SWAP2 SUB SWAP1 REVERT JUMPDEST PUSH0 PUSH1 0x4 DUP6 DUP2 SLOAD DUP2 LT PUSH2 0x11E1 JUMPI PUSH2 0x11E0 PUSH2 0x1B4E JUMP JUMPDEST JUMPDEST SWAP1 PUSH0 MSTORE PUSH1 0x20 PUSH0 KECCAK256 SWAP1 PUSH1 0x6 MUL ADD SWAP1 POP PUSH1 0x1 DUP2 PUSH1 0x4 ADD PUSH0 DUP3 DUP3 SLOAD PUSH2 0x1203 SWAP2 SWAP1 PUSH2 0x1F37 JUMP JUMPDEST SWAP3 POP POP DUP2 SWAP1 SSTORE POP PUSH1 0x1 PUSH1 0x3 PUSH0 DUP8 DUP2 MSTORE PUSH1 0x20 ADD SWAP1 DUP2 MSTORE PUSH1 0x20 ADD PUSH0 KECCAK256 PUSH0 CALLER PUSH20 0xFFFFFFFFFFFFFFFFFFFFFFFFFFFFFFFFFFFFFFFF AND PUSH20 0xFFFFFFFFFFFFFFFFFFFFFFFFFFFFFFFFFFFFFFFF AND DUP2 MSTORE PUSH1 0x20 ADD SWAP1 DUP2 MSTORE PUSH1 0x20 ADD PUSH0 KECCAK256 PUSH0 PUSH2 0x100 EXP DUP2 SLOAD DUP2 PUSH1 0xFF MUL NOT AND SWAP1 DUP4 ISZERO ISZERO MUL OR SWAP1 SSTORE POP DUP5 CALLER PUSH20 0xFFFFFFFFFFFFFFFFFFFFFFFFFFFFFFFFFFFFFFFF AND PUSH32 0x5CBE105E36805F7820E291F799D5794FF948AF2A5F664E580382DEFB63390041 PUSH1 0x40 MLOAD PUSH1 0x40 MLOAD DUP1 SWAP2 SUB SWAP1 LOG3 POP POP POP POP POP JUMP JUMPDEST PUSH1 0x5 PUSH0 SWAP1 SLOAD SWAP1 PUSH2 0x100 EXP SWAP1 DIV PUSH20 0xFFFFFFFFFFFFFFFFFFFFFFFFFFFFFFFFFFFFFFFF AND DUP2 JUMP JUMPDEST PUSH1 0x6 PUSH0 SWAP1 SLOAD SWAP1 PUSH2 0x100 EXP SWAP1 DIV PUSH20 0xFFFFFFFFFFFFFFFFFFFFFFFFFFFFFFFFFFFFFFFF AND DUP2 JUMP JUMPDEST PUSH1 0x2 SLOAD DUP2 JUMP JUMPDEST PUSH1 0x1 PUSH0 CALLER PUSH20 0xFFFFFFFFFFFFFFFFFFFFFFFFFFFFFFFFFFFFFFFF AND PUSH20 0xFFFFFFFFFFFFFFFFFFFFFFFFFFFFFFFFFFFFFFFF AND DUP2 MSTORE PUSH1 0x20 ADD SWAP1 DUP2 MSTORE PUSH1 0x20 ADD PUSH0 KECCAK256 PUSH0 SWAP1 SLOAD SWAP1 PUSH2 0x100 EXP SWAP1 DIV PUSH1 0xFF AND PUSH2 0x1392 JUMPI PUSH1 0x40 MLOAD PUSH32 0x8C379A000000000000000000000000000000000000000000000000000000000 DUP2 MSTORE PUSH1 0x4 ADD PUSH2 0x1389 SWAP1 PUSH2 0x1AC8 JUMP JUMPDEST PUSH1 0x40 MLOAD DUP1 SWAP2 SUB SWAP1 REVERT JUMPDEST PUSH0 PUSH20 0xFFFFFFFFFFFFFFFFFFFFFFFFFFFFFFFFFFFFFFFF AND PUSH1 0x5 PUSH0 SWAP1 SLOAD SWAP1 PUSH2 0x100 EXP SWAP1 DIV PUSH20 0xFFFFFFFFFFFFFFFFFFFFFFFFFFFFFFFFFFFFFFFF AND PUSH20 0xFFFFFFFFFFFFFFFFFFFFFFFFFFFFFFFFFFFFFFFF AND EQ ISZERO DUP1 ISZERO PUSH2 0x143C JUMPI POP PUSH0 PUSH20 0xFFFFFFFFFFFFFFFFFFFFFFFFFFFFFFFFFFFFFFFF AND PUSH1 0x6 PUSH0 SWAP1 SLOAD SWAP1 PUSH2 0x100 EXP SWAP1 DIV PUSH20 0xFFFFFFFFFFFFFFFFFFFFFFFFFFFFFFFFFFFFFFFF AND PUSH20 0xFFFFFFFFFFFFFFFFFFFFFFFFFFFFFFFFFFFFFFFF AND EQ ISZERO JUMPDEST PUSH2 0x147B JUMPI PUSH1 0x40 MLOAD PUSH32 0x8C379A000000000000000000000000000000000000000000000000000000000 DUP2 MSTORE PUSH1 0x4 ADD PUSH2 0x1472 SWAP1 PUSH2 0x1FDA JUMP JUMPDEST PUSH1 0x40 MLOAD DUP1 SWAP2 SUB SWAP1 REVERT JUMPDEST PUSH0 DUP1 PUSH0 JUMPDEST PUSH0 DUP1 SLOAD SWAP1 POP DUP2 LT ISZERO PUSH2 0x1532 JUMPI PUSH1 0x6 PUSH0 SWAP1 SLOAD SWAP1 PUSH2 0x100 EXP SWAP1 DIV PUSH20 0xFFFFFFFFFFFFFFFFFFFFFFFFFFFFFFFFFFFFFFFF AND PUSH20 0xFFFFFFFFFFFFFFFFFFFFFFFFFFFFFFFFFFFFFFFF AND PUSH0 DUP3 DUP2 SLOAD DUP2 LT PUSH2 0x14D6 JUMPI PUSH2 0x14D5 PUSH2 0x1B4E JUMP JUMPDEST JUMPDEST SWAP1 PUSH0 MSTORE PUSH1 0x20 PUSH0 KECCAK256 ADD PUSH0 SWAP1 SLOAD SWAP1 PUSH2 0x100 EXP SWAP1 DIV PUSH20 0xFFFFFFFFFFFFFFFFFFFFFFFFFFFFFFFFFFFFFFFF AND PUSH20 0xFFFFFFFFFFFFFFFFFFFFFFFFFFFFFFFFFFFFFFFF AND SUB PUSH2 0x1525 JUMPI DUP1 SWAP3 POP PUSH1 0x1 SWAP2 POP PUSH2 0x1532 JUMP JUMPDEST DUP1 DUP1 PUSH1 0x1 ADD SWAP2 POP POP PUSH2 0x147F JUMP JUMPDEST POP DUP1 PUSH2 0x1573 JUMPI PUSH1 0x40 MLOAD PUSH32 0x8C379A000000000000000000000000000000000000000000000000000000000 DUP2 MSTORE PUSH1 0x4 ADD PUSH2 0x156A SWAP1 PUSH2 0x2042 JUMP JUMPDEST PUSH1 0x40 MLOAD DUP1 SWAP2 SUB SWAP1 REVERT JUMPDEST PUSH1 0x5 PUSH0 SWAP1 SLOAD SWAP1 PUSH2 0x100 EXP SWAP1 DIV PUSH20 0xFFFFFFFFFFFFFFFFFFFFFFFFFFFFFFFFFFFFFFFF AND PUSH0 DUP4 DUP2 SLOAD DUP2 LT PUSH2 0x15A8 JUMPI PUSH2 0x15A7 PUSH2 0x1B4E JUMP JUMPDEST JUMPDEST SWAP1 PUSH0 MSTORE PUSH1 0x20 PUSH0 KECCAK256 ADD PUSH0 PUSH2 0x100 EXP DUP2 SLOAD DUP2 PUSH20 0xFFFFFFFFFFFFFFFFFFFFFFFFFFFFFFFFFFFFFFFF MUL NOT AND SWAP1 DUP4 PUSH20 0xFFFFFFFFFFFFFFFFFFFFFFFFFFFFFFFFFFFFFFFF AND MUL OR SWAP1 SSTORE POP POP POP JUMP JUMPDEST PUSH1 0x7 PUSH1 0x20 MSTORE DUP1 PUSH0 MSTORE PUSH1 0x40 PUSH0 KECCAK256 PUSH0 SWAP2 POP SLOAD SWAP1 PUSH2 0x100 EXP SWAP1 DIV PUSH1 0xFF AND DUP2 JUMP JUMPDEST PUSH0 DUP2 SWAP1 POP SWAP2 SWAP1 POP JUMP JUMPDEST PUSH2 0x1620 DUP2 PUSH2 0x160E JUMP JUMPDEST DUP3 MSTORE POP POP JUMP JUMPDEST PUSH0 PUSH1 0x40 DUP3 ADD SWAP1 POP PUSH2 0x1639 PUSH0 DUP4 ADD DUP6 PUSH2 0x1617 JUMP JUMPDEST PUSH2 0x1646 PUSH1 0x20 DUP4 ADD DUP5 PUSH2 0x1617 JUMP JUMPDEST SWAP4 SWAP3 POP POP POP JUMP JUMPDEST PUSH0 DUP1 REVERT JUMPDEST PUSH2 0x165A DUP2 PUSH2 0x160E JUMP JUMPDEST DUP2 EQ PUSH2 0x1664 JUMPI PUSH0 DUP1 REVERT JUMPDEST POP JUMP JUMPDEST PUSH0 DUP2 CALLDATALOAD SWAP1 POP PUSH2 0x1675 DUP2 PUSH2 0x1651 JUMP JUMPDEST SWAP3 SWAP2 POP POP JUMP JUMPDEST PUSH0 PUSH1 0x20 DUP3 DUP5 SUB SLT ISZERO PUSH2 0x1690 JUMPI PUSH2 0x168F PUSH2 0x164D JUMP JUMPDEST JUMPDEST PUSH0 PUSH2 0x169D DUP5 DUP3 DUP6 ADD PUSH2 0x1667 JUMP JUMPDEST SWAP2 POP POP SWAP3 SWAP2 POP POP JUMP JUMPDEST PUSH0 PUSH20 0xFFFFFFFFFFFFFFFFFFFFFFFFFFFFFFFFFFFFFFFF DUP3 AND SWAP1 POP SWAP2 SWAP1 POP JUMP JUMPDEST PUSH0 PUSH2 0x16CF DUP3 PUSH2 0x16A6 JUMP JUMPDEST SWAP1 POP SWAP2 SWAP1 POP JUMP JUMPDEST PUSH2 0x16DF DUP2 PUSH2 0x16C5 JUMP JUMPDEST DUP3 MSTORE POP POP JUMP JUMPDEST PUSH0 PUSH1 0x20 DUP3 ADD SWAP1 POP PUSH2 0x16F8 PUSH0 DUP4 ADD DUP5 PUSH2 0x16D6 JUMP JUMPDEST SWAP3 SWAP2 POP POP JUMP JUMPDEST PUSH0 PUSH1 0x20 DUP3 ADD SWAP1 POP PUSH2 0x1711 PUSH0 DUP4 ADD DUP5 PUSH2 0x1617 JUMP JUMPDEST SWAP3 SWAP2 POP POP JUMP JUMPDEST PUSH2 0x1720 DUP2 PUSH2 0x16C5 JUMP JUMPDEST DUP2 EQ PUSH2 0x172A JUMPI PUSH0 DUP1 REVERT JUMPDEST POP JUMP JUMPDEST PUSH0 DUP2 CALLDATALOAD SWAP1 POP PUSH2 0x173B DUP2 PUSH2 0x1717 JUMP JUMPDEST SWAP3 SWAP2 POP POP JUMP JUMPDEST PUSH0 PUSH1 0x20 DUP3 DUP5 SUB SLT ISZERO PUSH2 0x1756 JUMPI PUSH2 0x1755 PUSH2 0x164D JUMP JUMPDEST JUMPDEST PUSH0 PUSH2 0x1763 DUP5 DUP3 DUP6 ADD PUSH2 0x172D JUMP JUMPDEST SWAP2 POP POP SWAP3 SWAP2 POP POP JUMP JUMPDEST PUSH0 DUP2 ISZERO ISZERO SWAP1 POP SWAP2 SWAP1 POP JUMP JUMPDEST PUSH2 0x1780 DUP2 PUSH2 0x176C JUMP JUMPDEST DUP3 MSTORE POP POP JUMP JUMPDEST PUSH0 PUSH1 0x20 DUP3 ADD SWAP1 POP PUSH2 0x1799 PUSH0 DUP4 ADD DUP5 PUSH2 0x1777 JUMP JUMPDEST SWAP3 SWAP2 POP POP JUMP JUMPDEST PUSH0 DUP2 MLOAD SWAP1 POP SWAP2 SWAP1 POP JUMP JUMPDEST PUSH0 DUP3 DUP3 MSTORE PUSH1 0x20 DUP3 ADD SWAP1 POP SWAP3 SWAP2 POP POP JUMP JUMPDEST PUSH0 JUMPDEST DUP4 DUP2 LT ISZERO PUSH2 0x17D6 JUMPI DUP1 DUP3 ADD MLOAD DUP2 DUP5 ADD MSTORE PUSH1 0x20 DUP2 ADD SWAP1 POP PUSH2 0x17BB JUMP JUMPDEST PUSH0 DUP5 DUP5 ADD MSTORE POP POP POP POP JUMP JUMPDEST PUSH0 PUSH1 0x1F NOT PUSH1 0x1F DUP4 ADD AND SWAP1 POP SWAP2 SWAP1 POP JUMP JUMPDEST PUSH0 PUSH2 0x17FB DUP3 PUSH2 0x179F JUMP JUMPDEST PUSH2 0x1805 DUP2 DUP6 PUSH2 0x17A9 JUMP JUMPDEST SWAP4 POP PUSH2 0x1815 DUP2 DUP6 PUSH1 0x20 DUP7 ADD PUSH2 0x17B9 JUMP JUMPDEST PUSH2 0x181E DUP2 PUSH2 0x17E1 JUMP JUMPDEST DUP5 ADD SWAP2 POP POP SWAP3 SWAP2 POP POP JUMP JUMPDEST PUSH0 PUSH1 0xA0 DUP3 ADD SWAP1 POP PUSH2 0x183C PUSH0 DUP4 ADD DUP9 PUSH2 0x16D6 JUMP JUMPDEST PUSH2 0x1849 PUSH1 0x20 DUP4 ADD DUP8 PUSH2 0x1617 JUMP JUMPDEST DUP2 DUP2 SUB PUSH1 0x40 DUP4 ADD MSTORE PUSH2 0x185B DUP2 DUP7 PUSH2 0x17F1 JUMP JUMPDEST SWAP1 POP PUSH2 0x186A PUSH1 0x60 DUP4 ADD DUP6 PUSH2 0x1777 JUMP JUMPDEST PUSH2 0x1877 PUSH1 0x80 DUP4 ADD DUP5 PUSH2 0x1617 JUMP JUMPDEST SWAP7 SWAP6 POP POP POP POP POP POP JUMP JUMPDEST PUSH0 DUP1 PUSH1 0x40 DUP4 DUP6 SUB SLT ISZERO PUSH2 0x1897 JUMPI PUSH2 0x1896 PUSH2 0x164D JUMP JUMPDEST JUMPDEST PUSH0 PUSH2 0x18A4 DUP6 DUP3 DUP7 ADD PUSH2 0x172D JUMP JUMPDEST SWAP3 POP POP PUSH1 0x20 PUSH2 0x18B5 DUP6 DUP3 DUP7 ADD PUSH2 0x172D JUMP JUMPDEST SWAP2 POP POP SWAP3 POP SWAP3 SWAP1 POP JUMP JUMPDEST PUSH0 DUP1 PUSH1 0x40 DUP4 DUP6 SUB SLT ISZERO PUSH2 0x18D5 JUMPI PUSH2 0x18D4 PUSH2 0x164D JUMP JUMPDEST JUMPDEST PUSH0 PUSH2 0x18E2 DUP6 DUP3 DUP7 ADD PUSH2 0x1667 JUMP JUMPDEST SWAP3 POP POP PUSH1 0x20 PUSH2 0x18F3 DUP6 DUP3 DUP7 ADD PUSH2 0x172D JUMP JUMPDEST SWAP2 POP POP SWAP3 POP SWAP3 SWAP1 POP JUMP JUMPDEST PUSH0 PUSH1 0xC0 DUP3 ADD SWAP1 POP PUSH2 0x1910 PUSH0 DUP4 ADD DUP10 PUSH2 0x16D6 JUMP JUMPDEST PUSH2 0x191D PUSH1 0x20 DUP4 ADD DUP9 PUSH2 0x1617 JUMP JUMPDEST DUP2 DUP2 SUB PUSH1 0x40 DUP4 ADD MSTORE PUSH2 0x192F DUP2 DUP8 PUSH2 0x17F1 JUMP JUMPDEST SWAP1 POP PUSH2 0x193E PUSH1 0x60 DUP4 ADD DUP7 PUSH2 0x1777 JUMP JUMPDEST PUSH2 0x194B PUSH1 0x80 DUP4 ADD DUP6 PUSH2 0x1617 JUMP JUMPDEST PUSH2 0x1958 PUSH1 0xA0 DUP4 ADD DUP5 PUSH2 0x1617 JUMP JUMPDEST SWAP8 SWAP7 POP POP POP POP POP POP POP JUMP JUMPDEST PUSH0 DUP2 MLOAD SWAP1 POP SWAP2 SWAP1 POP JUMP JUMPDEST PUSH0 DUP3 DUP3 MSTORE PUSH1 0x20 DUP3 ADD SWAP1 POP SWAP3 SWAP2 POP POP JUMP JUMPDEST PUSH0 DUP2 SWAP1 POP PUSH1 0x20 DUP3 ADD SWAP1 POP SWAP2 SWAP1 POP JUMP JUMPDEST PUSH2 0x1995 DUP2 PUSH2 0x16C5 JUMP JUMPDEST DUP3 MSTORE POP POP JUMP JUMPDEST PUSH0 PUSH2 0x19A6 DUP4 DUP4 PUSH2 0x198C JUMP JUMPDEST PUSH1 0x20 DUP4 ADD SWAP1 POP SWAP3 SWAP2 POP POP JUMP JUMPDEST PUSH0 PUSH1 0x20 DUP3 ADD SWAP1 POP SWAP2 SWAP1 POP JUMP JUMPDEST PUSH0 PUSH2 0x19C8 DUP3 PUSH2 0x1963 JUMP JUMPDEST PUSH2 0x19D2 DUP2 DUP6 PUSH2 0x196D JUMP JUMPDEST SWAP4 POP PUSH2 0x19DD DUP4 PUSH2 0x197D JUMP JUMPDEST DUP1 PUSH0 JUMPDEST DUP4 DUP2 LT ISZERO PUSH2 0x1A0D JUMPI DUP2 MLOAD PUSH2 0x19F4 DUP9 DUP3 PUSH2 0x199B JUMP JUMPDEST SWAP8 POP PUSH2 0x19FF DUP4 PUSH2 0x19B2 JUMP JUMPDEST SWAP3 POP POP PUSH1 0x1 DUP2 ADD SWAP1 POP PUSH2 0x19E0 JUMP JUMPDEST POP DUP6 SWAP4 POP POP POP POP SWAP3 SWAP2 POP POP JUMP JUMPDEST PUSH0 PUSH1 0x20 DUP3 ADD SWAP1 POP DUP2 DUP2 SUB PUSH0 DUP4 ADD MSTORE PUSH2 0x1A32 DUP2 DUP5 PUSH2 0x19BE JUMP JUMPDEST SWAP1 POP SWAP3 SWAP2 POP POP JUMP JUMPDEST PUSH0 PUSH1 0xFF DUP3 AND SWAP1 POP SWAP2 SWAP1 POP JUMP JUMPDEST PUSH2 0x1A4F DUP2 PUSH2 0x1A3A JUMP JUMPDEST DUP3 MSTORE POP POP JUMP JUMPDEST PUSH0 PUSH1 0x20 DUP3 ADD SWAP1 POP PUSH2 0x1A68 PUSH0 DUP4 ADD DUP5 PUSH2 0x1A46 JUMP JUMPDEST SWAP3 SWAP2 POP POP JUMP JUMPDEST PUSH0 DUP3 DUP3 MSTORE PUSH1 0x20 DUP3 ADD SWAP1 POP SWAP3 SWAP2 POP POP JUMP JUMPDEST PUSH32 0x6E6F74206F776E65720000000000000000000000000000000000000000000000 PUSH0 DUP3 ADD MSTORE POP JUMP JUMPDEST PUSH0 PUSH2 0x1AB2 PUSH1 0x9 DUP4 PUSH2 0x1A6E JUMP JUMPDEST SWAP2 POP PUSH2 0x1ABD DUP3 PUSH2 0x1A7E JUMP JUMPDEST PUSH1 0x20 DUP3 ADD SWAP1 POP SWAP2 SWAP1 POP JUMP JUMPDEST PUSH0 PUSH1 0x20 DUP3 ADD SWAP1 POP DUP2 DUP2 SUB PUSH0 DUP4 ADD MSTORE PUSH2 0x1ADF DUP2 PUSH2 0x1AA6 JUMP JUMPDEST SWAP1 POP SWAP2 SWAP1 POP JUMP JUMPDEST PUSH32 0x747820646F6573206E6F74206578697374000000000000000000000000000000 PUSH0 DUP3 ADD MSTORE POP JUMP JUMPDEST PUSH0 PUSH2 0x1B1A PUSH1 0x11 DUP4 PUSH2 0x1A6E JUMP JUMPDEST SWAP2 POP PUSH2 0x1B25 DUP3 PUSH2 0x1AE6 JUMP JUMPDEST PUSH1 0x20 DUP3 ADD SWAP1 POP SWAP2 SWAP1 POP JUMP JUMPDEST PUSH0 PUSH1 0x20 DUP3 ADD SWAP1 POP DUP2 DUP2 SUB PUSH0 DUP4 ADD MSTORE PUSH2 0x1B47 DUP2 PUSH2 0x1B0E JUMP JUMPDEST SWAP1 POP SWAP2 SWAP1 POP JUMP JUMPDEST PUSH32 0x4E487B7100000000000000000000000000000000000000000000000000000000 PUSH0 MSTORE PUSH1 0x32 PUSH1 0x4 MSTORE PUSH1 0x24 PUSH0 REVERT JUMPDEST PUSH32 0x747820616C726561647920657865637574656400000000000000000000000000 PUSH0 DUP3 ADD MSTORE POP JUMP JUMPDEST PUSH0 PUSH2 0x1BAF PUSH1 0x13 DUP4 PUSH2 0x1A6E JUMP JUMPDEST SWAP2 POP PUSH2 0x1BBA DUP3 PUSH2 0x1B7B JUMP JUMPDEST PUSH1 0x20 DUP3 ADD SWAP1 POP SWAP2 SWAP1 POP JUMP JUMPDEST PUSH0 PUSH1 0x20 DUP3 ADD SWAP1 POP DUP2 DUP2 SUB PUSH0 DUP4 ADD MSTORE PUSH2 0x1BDC DUP2 PUSH2 0x1BA3 JUMP JUMPDEST SWAP1 POP SWAP2 SWAP1 POP JUMP JUMPDEST PUSH32 0x7478206E6F7420636F6E6669726D656400000000000000000000000000000000 PUSH0 DUP3 ADD MSTORE POP JUMP JUMPDEST PUSH0 PUSH2 0x1C17 PUSH1 0x10 DUP4 PUSH2 0x1A6E JUMP JUMPDEST SWAP2 POP PUSH2 0x1C22 DUP3 PUSH2 0x1BE3 JUMP JUMPDEST PUSH1 0x20 DUP3 ADD SWAP1 POP SWAP2 SWAP1 POP JUMP JUMPDEST PUSH0 PUSH1 0x20 DUP3 ADD SWAP1 POP DUP2 DUP2 SUB PUSH0 DUP4 ADD MSTORE PUSH2 0x1C44 DUP2 PUSH2 0x1C0B JUMP JUMPDEST SWAP1 POP SWAP2 SWAP1 POP JUMP JUMPDEST PUSH32 0x4E487B7100000000000000000000000000000000000000000000000000000000 PUSH0 MSTORE PUSH1 0x11 PUSH1 0x4 MSTORE PUSH1 0x24 PUSH0 REVERT JUMPDEST PUSH0 PUSH2 0x1C82 DUP3 PUSH2 0x160E JUMP JUMPDEST SWAP2 POP PUSH2 0x1C8D DUP4 PUSH2 0x160E JUMP JUMPDEST SWAP3 POP DUP3 DUP3 SUB SWAP1 POP DUP2 DUP2 GT ISZERO PUSH2 0x1CA5 JUMPI PUSH2 0x1CA4 PUSH2 0x1C4B JUMP JUMPDEST JUMPDEST SWAP3 SWAP2 POP POP JUMP JUMPDEST POP JUMP JUMPDEST PUSH0 PUSH2 0x1CB9 PUSH0 DUP4 PUSH2 0x1A6E JUMP JUMPDEST SWAP2 POP PUSH2 0x1CC4 DUP3 PUSH2 0x1CAB JUMP JUMPDEST PUSH0 DUP3 ADD SWAP1 POP SWAP2 SWAP1 POP JUMP JUMPDEST PUSH0 PUSH1 0x20 DUP3 ADD SWAP1 POP DUP2 DUP2 SUB PUSH0 DUP4 ADD MSTORE PUSH2 0x1CE5 DUP2 PUSH2 0x1CAE JUMP JUMPDEST SWAP1 POP SWAP2 SWAP1 POP JUMP JUMPDEST PUSH0 PUSH2 0x1CF6 DUP3 PUSH2 0x1A3A JUMP JUMPDEST SWAP2 POP PUSH1 0xFF DUP3 SUB PUSH2 0x1D09 JUMPI PUSH2 0x1D08 PUSH2 0x1C4B JUMP JUMPDEST JUMPDEST PUSH1 0x1 DUP3 ADD SWAP1 POP SWAP2 SWAP1 POP JUMP JUMPDEST PUSH32 0x696E646578206F7574206F6620626F756E640000000000000000000000000000 PUSH0 DUP3 ADD MSTORE POP JUMP JUMPDEST PUSH0 PUSH2 0x1D48 PUSH1 0x12 DUP4 PUSH2 0x1A6E JUMP JUMPDEST SWAP2 POP PUSH2 0x1D53 DUP3 PUSH2 0x1D14 JUMP JUMPDEST PUSH1 0x20 DUP3 ADD SWAP1 POP SWAP2 SWAP1 POP JUMP JUMPDEST PUSH0 PUSH1 0x20 DUP3 ADD SWAP1 POP DUP2 DUP2 SUB PUSH0 DUP4 ADD MSTORE PUSH2 0x1D75 DUP2 PUSH2 0x1D3C JUMP JUMPDEST SWAP1 POP SWAP2 SWAP1 POP JUMP JUMPDEST PUSH32 0x4E487B7100000000000000000000000000000000000000000000000000000000 PUSH0 MSTORE PUSH1 0x22 PUSH1 0x4 MSTORE PUSH1 0x24 PUSH0 REVERT JUMPDEST PUSH0 PUSH1 0x2 DUP3 DIV SWAP1 POP PUSH1 0x1 DUP3 AND DUP1 PUSH2 0x1DC0 JUMPI PUSH1 0x7F DUP3 AND SWAP2 POP JUMPDEST PUSH1 0x20 DUP3 LT DUP2 SUB PUSH2 0x1DD3 JUMPI PUSH2 0x1DD2 PUSH2 0x1D7C JUMP JUMPDEST JUMPDEST POP SWAP2 SWAP1 POP JUMP JUMPDEST PUSH32 0x696E76616C6964206E65774F776E6572206F72207265706C616365654F776E65 PUSH0 DUP3 ADD MSTORE PUSH32 0x7200000000000000000000000000000000000000000000000000000000000000 PUSH1 0x20 DUP3 ADD MSTORE POP JUMP JUMPDEST PUSH0 PUSH2 0x1E33 PUSH1 0x21 DUP4 PUSH2 0x1A6E JUMP JUMPDEST SWAP2 POP PUSH2 0x1E3E DUP3 PUSH2 0x1DD9 JUMP JUMPDEST PUSH1 0x40 DUP3 ADD SWAP1 POP SWAP2 SWAP1 POP JUMP JUMPDEST PUSH0 PUSH1 0x20 DUP3 ADD SWAP1 POP DUP2 DUP2 SUB PUSH0 DUP4 ADD MSTORE PUSH2 0x1E60 DUP2 PUSH2 0x1E27 JUMP JUMPDEST SWAP1 POP SWAP2 SWAP1 POP JUMP JUMPDEST PUSH32 0x7265706C616365654F776E6572206973206E6F74206F776E6E65720000000000 PUSH0 DUP3 ADD MSTORE POP JUMP JUMPDEST PUSH0 PUSH2 0x1E9B PUSH1 0x1B DUP4 PUSH2 0x1A6E JUMP JUMPDEST SWAP2 POP PUSH2 0x1EA6 DUP3 PUSH2 0x1E67 JUMP JUMPDEST PUSH1 0x20 DUP3 ADD SWAP1 POP SWAP2 SWAP1 POP JUMP JUMPDEST PUSH0 PUSH1 0x20 DUP3 ADD SWAP1 POP DUP2 DUP2 SUB PUSH0 DUP4 ADD MSTORE PUSH2 0x1EC8 DUP2 PUSH2 0x1E8F JUMP JUMPDEST SWAP1 POP SWAP2 SWAP1 POP JUMP JUMPDEST PUSH32 0x747820616C726561647920636F6E6669726D6564000000000000000000000000 PUSH0 DUP3 ADD MSTORE POP JUMP JUMPDEST PUSH0 PUSH2 0x1F03 PUSH1 0x14 DUP4 PUSH2 0x1A6E JUMP JUMPDEST SWAP2 POP PUSH2 0x1F0E DUP3 PUSH2 0x1ECF JUMP JUMPDEST PUSH1 0x20 DUP3 ADD SWAP1 POP SWAP2 SWAP1 POP JUMP JUMPDEST PUSH0 PUSH1 0x20 DUP3 ADD SWAP1 POP DUP2 DUP2 SUB PUSH0 DUP4 ADD MSTORE PUSH2 0x1F30 DUP2 PUSH2 0x1EF7 JUMP JUMPDEST SWAP1 POP SWAP2 SWAP1 POP JUMP JUMPDEST PUSH0 PUSH2 0x1F41 DUP3 PUSH2 0x160E JUMP JUMPDEST SWAP2 POP PUSH2 0x1F4C DUP4 PUSH2 0x160E JUMP JUMPDEST SWAP3 POP DUP3 DUP3 ADD SWAP1 POP DUP1 DUP3 GT ISZERO PUSH2 0x1F64 JUMPI PUSH2 0x1F63 PUSH2 0x1C4B JUMP JUMPDEST JUMPDEST SWAP3 SWAP2 POP POP JUMP JUMPDEST PUSH32 0x706C6561736520696E7075742063616E6469646174654F776E657220616E6420 PUSH0 DUP3 ADD MSTORE PUSH32 0x7265706C616365654F776E657200000000000000000000000000000000000000 PUSH1 0x20 DUP3 ADD MSTORE POP JUMP JUMPDEST PUSH0 PUSH2 0x1FC4 PUSH1 0x2D DUP4 PUSH2 0x1A6E JUMP JUMPDEST SWAP2 POP PUSH2 0x1FCF DUP3 PUSH2 0x1F6A JUMP JUMPDEST PUSH1 0x40 DUP3 ADD SWAP1 POP SWAP2 SWAP1 POP JUMP JUMPDEST PUSH0 PUSH1 0x20 DUP3 ADD SWAP1 POP DUP2 DUP2 SUB PUSH0 DUP4 ADD MSTORE PUSH2 0x1FF1 DUP2 PUSH2 0x1FB8 JUMP JUMPDEST SWAP1 POP SWAP2 SWAP1 POP JUMP JUMPDEST PUSH32 0x646F6E2774206D61746368206F776E6572000000000000000000000000000000 PUSH0 DUP3 ADD MSTORE POP JUMP JUMPDEST PUSH0 PUSH2 0x202C PUSH1 0x11 DUP4 PUSH2 0x1A6E JUMP JUMPDEST SWAP2 POP PUSH2 0x2037 DUP3 PUSH2 0x1FF8 JUMP JUMPDEST PUSH1 0x20 DUP3 ADD SWAP1 POP SWAP2 SWAP1 POP JUMP JUMPDEST PUSH0 PUSH1 0x20 DUP3 ADD SWAP1 POP DUP2 DUP2 SUB PUSH0 DUP4 ADD MSTORE PUSH2 0x2059 DUP2 PUSH2 0x2020 JUMP JUMPDEST SWAP1 POP SWAP2 SWAP1 POP JUMP INVALID LOG2 PUSH5 0x6970667358 0x22 SLT KECCAK256 DUP4 SWAP13 0xEF 0xF7 DUP3 RETURNDATACOPY 0xA5 PUSH2 0x693B PUSH27 0x62D9772A25D42910851D7385BF5CAE743A34E0357B64736F6C6343 STOP ADDMOD AND STOP CALLER "
				},
				"gasEstimates": {
					"creation": {
						"codeDepositCost": "1668400",
						"executionCost": "infinite",
						"totalCost": "infinite"
					},
					"external": {
						"aggressReplaceMap(address)": "2943",
						"agreeReplaceNewOwner()": "55597",
						"agreeTicketNum()": "2533",
						"candidateOwner()": "2530",
						"confirmTransaction(uint256)": "infinite",
						"getOwners()": "infinite",
						"getTransaction(uint256)": "infinite",
						"getTransactionCount()": "2530",
						"inputCandidateOwner(address,address)": "infinite",
						"invokeCandidateOwner()": "infinite",
						"isConfirmed(uint256,address)": "3182",
						"isOwner(address)": "2856",
						"numConfirmationsRequired()": "2491",
						"owners(uint256)": "4967",
						"replaceeOwner()": "2552",
						"resetReplaceVote()": "infinite",
						"revokeConfirmation(uint256)": "infinite",
						"transactions(uint256)": "infinite"
					}
				},
				"methodIdentifiers": {
					"aggressReplaceMap(address)": "e7a4b23f",
					"agreeReplaceNewOwner()": "29cbaa5c",
					"agreeTicketNum()": "a72df9b2",
					"candidateOwner()": "c105ea2b",
					"confirmTransaction(uint256)": "c01a8c84",
					"getOwners()": "a0e67e2b",
					"getTransaction(uint256)": "33ea3dc8",
					"getTransactionCount()": "2e7700f0",
					"inputCandidateOwner(address,address)": "4e081dc4",
					"invokeCandidateOwner()": "e1e86ed6",
					"isConfirmed(uint256,address)": "80f59a65",
					"isOwner(address)": "2f54bf6e",
					"numConfirmationsRequired()": "d0549b85",
					"owners(uint256)": "025e7c27",
					"replaceeOwner()": "c6754505",
					"resetReplaceVote()": "385eccfc",
					"revokeConfirmation(uint256)": "20ea8d86",
					"transactions(uint256)": "9ace38c2"
				}
			},
			"storageLayout": {
				"storage": [
					{
						"astId": 54,
						"contract": "customContracts/OwnerMultiSigWallet.sol:OwnerMultiSigWallet",
						"label": "owners",
						"offset": 0,
						"slot": "0",
						"type": "t_array(t_address)dyn_storage"
					},
					{
						"astId": 58,
						"contract": "customContracts/OwnerMultiSigWallet.sol:OwnerMultiSigWallet",
						"label": "isOwner",
						"offset": 0,
						"slot": "1",
						"type": "t_mapping(t_address,t_bool)"
					},
					{
						"astId": 60,
						"contract": "customContracts/OwnerMultiSigWallet.sol:OwnerMultiSigWallet",
						"label": "numConfirmationsRequired",
						"offset": 0,
						"slot": "2",
						"type": "t_uint256"
					},
					{
						"astId": 79,
						"contract": "customContracts/OwnerMultiSigWallet.sol:OwnerMultiSigWallet",
						"label": "isConfirmed",
						"offset": 0,
						"slot": "3",
						"type": "t_mapping(t_uint256,t_mapping(t_address,t_bool))"
					},
					{
						"astId": 83,
						"contract": "customContracts/OwnerMultiSigWallet.sol:OwnerMultiSigWallet",
						"label": "transactions",
						"offset": 0,
						"slot": "4",
						"type": "t_array(t_struct(Transaction)73_storage)dyn_storage"
					},
					{
						"astId": 85,
						"contract": "customContracts/OwnerMultiSigWallet.sol:OwnerMultiSigWallet",
						"label": "candidateOwner",
						"offset": 0,
						"slot": "5",
						"type": "t_address"
					},
					{
						"astId": 87,
						"contract": "customContracts/OwnerMultiSigWallet.sol:OwnerMultiSigWallet",
						"label": "replaceeOwner",
						"offset": 0,
						"slot": "6",
						"type": "t_address"
					},
					{
						"astId": 91,
						"contract": "customContracts/OwnerMultiSigWallet.sol:OwnerMultiSigWallet",
						"label": "aggressReplaceMap",
						"offset": 0,
						"slot": "7",
						"type": "t_mapping(t_address,t_bool)"
					},
					{
						"astId": 94,
						"contract": "customContracts/OwnerMultiSigWallet.sol:OwnerMultiSigWallet",
						"label": "agreeTicketNum",
						"offset": 0,
						"slot": "8",
						"type": "t_uint8"
					}
				],
				"types": {
					"t_address": {
						"encoding": "inplace",
						"label": "address",
						"numberOfBytes": "20"
					},
					"t_array(t_address)dyn_storage": {
						"base": "t_address",
						"encoding": "dynamic_array",
						"label": "address[]",
						"numberOfBytes": "32"
					},
					"t_array(t_struct(Transaction)73_storage)dyn_storage": {
						"base": "t_struct(Transaction)73_storage",
						"encoding": "dynamic_array",
						"label": "struct OwnerMultiSigWallet.Transaction[]",
						"numberOfBytes": "32"
					},
					"t_bool": {
						"encoding": "inplace",
						"label": "bool",
						"numberOfBytes": "1"
					},
					"t_bytes_storage": {
						"encoding": "bytes",
						"label": "bytes",
						"numberOfBytes": "32"
					},
					"t_mapping(t_address,t_bool)": {
						"encoding": "mapping",
						"key": "t_address",
						"label": "mapping(address => bool)",
						"numberOfBytes": "32",
						"value": "t_bool"
					},
					"t_mapping(t_uint256,t_mapping(t_address,t_bool))": {
						"encoding": "mapping",
						"key": "t_uint256",
						"label": "mapping(uint256 => mapping(address => bool))",
						"numberOfBytes": "32",
						"value": "t_mapping(t_address,t_bool)"
					},
					"t_struct(Transaction)73_storage": {
						"encoding": "inplace",
						"label": "struct OwnerMultiSigWallet.Transaction",
						"members": [
							{
								"astId": 62,
								"contract": "customContracts/OwnerMultiSigWallet.sol:OwnerMultiSigWallet",
								"label": "to",
								"offset": 0,
								"slot": "0",
								"type": "t_address"
							},
							{
								"astId": 64,
								"contract": "customContracts/OwnerMultiSigWallet.sol:OwnerMultiSigWallet",
								"label": "value",
								"offset": 0,
								"slot": "1",
								"type": "t_uint256"
							},
							{
								"astId": 66,
								"contract": "customContracts/OwnerMultiSigWallet.sol:OwnerMultiSigWallet",
								"label": "data",
								"offset": 0,
								"slot": "2",
								"type": "t_bytes_storage"
							},
							{
								"astId": 68,
								"contract": "customContracts/OwnerMultiSigWallet.sol:OwnerMultiSigWallet",
								"label": "executed",
								"offset": 0,
								"slot": "3",
								"type": "t_bool"
							},
							{
								"astId": 70,
								"contract": "customContracts/OwnerMultiSigWallet.sol:OwnerMultiSigWallet",
								"label": "numConfirmations",
								"offset": 0,
								"slot": "4",
								"type": "t_uint256"
							},
							{
								"astId": 72,
								"contract": "customContracts/OwnerMultiSigWallet.sol:OwnerMultiSigWallet",
								"label": "txIndex",
								"offset": 0,
								"slot": "5",
								"type": "t_uint256"
							}
						],
						"numberOfBytes": "192"
					},
					"t_uint256": {
						"encoding": "inplace",
						"label": "uint256",
						"numberOfBytes": "32"
					},
					"t_uint8": {
						"encoding": "inplace",
						"label": "uint8",
						"numberOfBytes": "1"
					}
				}
			},
			"userdoc": {
				"kind": "user",
				"methods": {},
				"version": 1
			}
		}
	}
}