{
	"customContracts/MultiSigWallet.sol": {
		"MultiSigWallet": {
			"abi": [
				{
					"inputs": [
						{
							"internalType": "address[]",
							"name": "_owners",
							"type": "address[]"
						},
						{
							"internalType": "uint256",
							"name": "_numConfirmationsRequired",
							"type": "uint256"
						},
						{
							"internalType": "address",
							"name": "_traderPeople",
							"type": "address"
						}
					],
					"stateMutability": "nonpayable",
					"type": "constructor"
				},
				{
					"anonymous": false,
					"inputs": [
						{
							"indexed": true,
							"internalType": "address",
							"name": "owner",
							"type": "address"
						},
						{
							"indexed": true,
							"internalType": "uint256",
							"name": "txIndex",
							"type": "uint256"
						}
					],
					"name": "ConfirmTransaction",
					"type": "event"
				},
				{
					"anonymous": false,
					"inputs": [
						{
							"indexed": true,
							"internalType": "address",
							"name": "sender",
							"type": "address"
						},
						{
							"indexed": false,
							"internalType": "uint256",
							"name": "amount",
							"type": "uint256"
						},
						{
							"indexed": false,
							"internalType": "uint256",
							"name": "balance",
							"type": "uint256"
						}
					],
					"name": "Deposit",
					"type": "event"
				},
				{
					"anonymous": false,
					"inputs": [
						{
							"indexed": true,
							"internalType": "address",
							"name": "owner",
							"type": "address"
						},
						{
							"indexed": true,
							"internalType": "uint256",
							"name": "txIndex",
							"type": "uint256"
						}
					],
					"name": "ExecuteTransaction",
					"type": "event"
				},
				{
					"anonymous": false,
					"inputs": [
						{
							"indexed": true,
							"internalType": "address",
							"name": "owner",
							"type": "address"
						},
						{
							"indexed": true,
							"internalType": "uint256",
							"name": "txIndex",
							"type": "uint256"
						}
					],
					"name": "RevokeConfirmation",
					"type": "event"
				},
				{
					"anonymous": false,
					"inputs": [
						{
							"indexed": true,
							"internalType": "address",
							"name": "owner",
							"type": "address"
						},
						{
							"indexed": true,
							"internalType": "uint256",
							"name": "txIndex",
							"type": "uint256"
						},
						{
							"indexed": true,
							"internalType": "address",
							"name": "to",
							"type": "address"
						},
						{
							"indexed": false,
							"internalType": "uint256",
							"name": "value",
							"type": "uint256"
						},
						{
							"indexed": false,
							"internalType": "bytes",
							"name": "data",
							"type": "bytes"
						}
					],
					"name": "SubmitTransaction",
					"type": "event"
				},
				{
					"inputs": [
						{
							"internalType": "uint256",
							"name": "_txIndex",
							"type": "uint256"
						}
					],
					"name": "confirmTransaction",
					"outputs": [],
					"stateMutability": "nonpayable",
					"type": "function"
				},
				{
					"inputs": [
						{
							"internalType": "uint256",
							"name": "_txIndex",
							"type": "uint256"
						}
					],
					"name": "executeTransaction",
					"outputs": [],
					"stateMutability": "nonpayable",
					"type": "function"
				},
				{
					"inputs": [],
					"name": "getOwners",
					"outputs": [
						{
							"internalType": "address[]",
							"name": "",
							"type": "address[]"
						}
					],
					"stateMutability": "view",
					"type": "function"
				},
				{
					"inputs": [
						{
							"internalType": "uint256",
							"name": "_txIndex",
							"type": "uint256"
						}
					],
					"name": "getTransaction",
					"outputs": [
						{
							"internalType": "address",
							"name": "to",
							"type": "address"
						},
						{
							"internalType": "uint256",
							"name": "value",
							"type": "uint256"
						},
						{
							"internalType": "bytes",
							"name": "data",
							"type": "bytes"
						},
						{
							"internalType": "bool",
							"name": "executed",
							"type": "bool"
						},
						{
							"internalType": "uint256",
							"name": "numConfirmations",
							"type": "uint256"
						}
					],
					"stateMutability": "view",
					"type": "function"
				},
				{
					"inputs": [],
					"name": "getTransactionCount",
					"outputs": [
						{
							"internalType": "uint256",
							"name": "",
							"type": "uint256"
						}
					],
					"stateMutability": "view",
					"type": "function"
				},
				{
					"inputs": [
						{
							"internalType": "uint256",
							"name": "",
							"type": "uint256"
						},
						{
							"internalType": "address",
							"name": "",
							"type": "address"
						}
					],
					"name": "isConfirmed",
					"outputs": [
						{
							"internalType": "bool",
							"name": "",
							"type": "bool"
						}
					],
					"stateMutability": "view",
					"type": "function"
				},
				{
					"inputs": [
						{
							"internalType": "address",
							"name": "",
							"type": "address"
						}
					],
					"name": "isOwner",
					"outputs": [
						{
							"internalType": "bool",
							"name": "",
							"type": "bool"
						}
					],
					"stateMutability": "view",
					"type": "function"
				},
				{
					"inputs": [],
					"name": "numConfirmationsRequired",
					"outputs": [
						{
							"internalType": "uint256",
							"name": "",
							"type": "uint256"
						}
					],
					"stateMutability": "view",
					"type": "function"
				},
				{
					"inputs": [
						{
							"internalType": "uint256",
							"name": "",
							"type": "uint256"
						}
					],
					"name": "owners",
					"outputs": [
						{
							"internalType": "address",
							"name": "",
							"type": "address"
						}
					],
					"stateMutability": "view",
					"type": "function"
				},
				{
					"inputs": [
						{
							"internalType": "uint256",
							"name": "_txIndex",
							"type": "uint256"
						}
					],
					"name": "revokeConfirmation",
					"outputs": [],
					"stateMutability": "nonpayable",
					"type": "function"
				},
				{
					"inputs": [
						{
							"internalType": "address",
							"name": "_to",
							"type": "address"
						},
						{
							"internalType": "uint256",
							"name": "_value",
							"type": "uint256"
						},
						{
							"internalType": "bytes",
							"name": "_data",
							"type": "bytes"
						}
					],
					"name": "submitTransaction",
					"outputs": [],
					"stateMutability": "nonpayable",
					"type": "function"
				},
				{
					"inputs": [
						{
							"internalType": "uint256",
							"name": "",
							"type": "uint256"
						}
					],
					"name": "traderPeople",
					"outputs": [
						{
							"internalType": "address",
							"name": "",
							"type": "address"
						}
					],
					"stateMutability": "view",
					"type": "function"
				},
				{
					"inputs": [
						{
							"internalType": "uint256",
							"name": "",
							"type": "uint256"
						}
					],
					"name": "transactions",
					"outputs": [
						{
							"internalType": "address",
							"name": "to",
							"type": "address"
						},
						{
							"internalType": "uint256",
							"name": "value",
							"type": "uint256"
						},
						{
							"internalType": "bytes",
							"name": "data",
							"type": "bytes"
						},
						{
							"internalType": "bool",
							"name": "executed",
							"type": "bool"
						},
						{
							"internalType": "uint256",
							"name": "numConfirmations",
							"type": "uint256"
						}
					],
					"stateMutability": "view",
					"type": "function"
				},
				{
					"stateMutability": "payable",
					"type": "receive"
				}
			],
			"devdoc": {
				"events": {
					"ConfirmTransaction(address,uint256)": {
						"details": "记录确认交易日志",
						"params": {
							"owner": "合约所有者提出的确认票",
							"txIndex": "交易序号"
						}
					},
					"Deposit(address,uint256,uint256)": {
						"details": "接收外部账户转账记录",
						"params": {
							"amount": "交易金额",
							"balance": "转账后合约账户的金额",
							"sender": "转账的外部账户地址"
						}
					},
					"ExecuteTransaction(address,uint256)": {
						"details": "记录执行交易日志",
						"params": {
							"owner": "发起交易执行的合约所有者地址",
							"txIndex": "合约的索引"
						}
					},
					"RevokeConfirmation(address,uint256)": {
						"details": "记录撤销交易日志",
						"params": {
							"owner": "合约所有者反悔撤销投票",
							"txIndex": "交易序号"
						}
					},
					"SubmitTransaction(address,uint256,address,uint256,bytes)": {
						"details": "记录提交的交易日志",
						"params": {
							"data": "交易传递的二进制数据",
							"owner": "交易的提交者",
							"to": "交易的目的地址",
							"txIndex": "交易的序号",
							"value": "交易的金额"
						}
					}
				},
				"kind": "dev",
				"methods": {
					"confirmTransaction(uint256)": {
						"details": "合约所有者中的一个，对其他合约所有者发起的交易投赞成",
						"params": {
							"_txIndex": "交易的索引"
						}
					},
					"executeTransaction(uint256)": {
						"details": "合约所有者中的一个，对其他合约所有者发起的交易投赞成",
						"params": {
							"_txIndex": "交易的索引"
						}
					},
					"getOwners()": {
						"details": "返回合约拥有者"
					},
					"getTransaction(uint256)": {
						"details": "返回某个交易信息",
						"params": {
							"_txIndex": "交易索引"
						}
					},
					"getTransactionCount()": {
						"details": "返回交易数量"
					},
					"revokeConfirmation(uint256)": {
						"details": "合约所有者中的一个，撤销交易",
						"params": {
							"_txIndex": "交易的索引"
						}
					}
				},
				"version": 1
			},
			"evm": {
				"assembly": "    /* \"customContracts/MultiSigWallet.sol\":74:8994  contract MultiSigWallet {... */\n  mstore(0x40, 0x80)\n    /* \"customContracts/MultiSigWallet.sol\":4774:5587  constructor(address[] memory _owners, uint _numConfirmationsRequired, address _traderPeople){... */\n  callvalue\n  dup1\n  iszero\n  tag_1\n  jumpi\n  0x00\n  dup1\n  revert\ntag_1:\n  pop\n  mload(0x40)\n  sub(codesize, bytecodeSize)\n  dup1\n  bytecodeSize\n  dup4\n  codecopy\n  dup2\n  dup2\n  add\n  0x40\n  mstore\n  dup2\n  add\n  swap1\n  tag_2\n  swap2\n  swap1\n  tag_3\n  jump\t// in\ntag_2:\n    /* \"customContracts/MultiSigWallet.sol\":4902:4903  0 */\n  0x00\n    /* \"customContracts/MultiSigWallet.sol\":4885:4892  _owners */\n  dup4\n    /* \"customContracts/MultiSigWallet.sol\":4885:4899  _owners.length */\n  mload\n    /* \"customContracts/MultiSigWallet.sol\":4885:4903  _owners.length > 0 */\n  gt\n    /* \"customContracts/MultiSigWallet.sol\":4877:4922  require(_owners.length > 0, \"owner required\") */\n  tag_6\n  jumpi\n  mload(0x40)\n  0x08c379a000000000000000000000000000000000000000000000000000000000\n  dup2\n  mstore\n  0x04\n  add\n  tag_7\n  swap1\n  tag_8\n  jump\t// in\ntag_7:\n  mload(0x40)\n  dup1\n  swap2\n  sub\n  swap1\n  revert\ntag_6:\n    /* \"customContracts/MultiSigWallet.sol\":4969:4970  0 */\n  0x00\n    /* \"customContracts/MultiSigWallet.sol\":4941:4966  _numConfirmationsRequired */\n  dup3\n    /* \"customContracts/MultiSigWallet.sol\":4941:4970  _numConfirmationsRequired > 0 */\n  gt\n    /* \"customContracts/MultiSigWallet.sol\":4941:5017  _numConfirmationsRequired > 0 && _numConfirmationsRequired <= _owners.length */\n  dup1\n  iszero\n  tag_9\n  jumpi\n  pop\n    /* \"customContracts/MultiSigWallet.sol\":5003:5010  _owners */\n  dup3\n    /* \"customContracts/MultiSigWallet.sol\":5003:5017  _owners.length */\n  mload\n    /* \"customContracts/MultiSigWallet.sol\":4974:4999  _numConfirmationsRequired */\n  dup3\n    /* \"customContracts/MultiSigWallet.sol\":4974:5017  _numConfirmationsRequired <= _owners.length */\n  gt\n  iszero\n    /* \"customContracts/MultiSigWallet.sol\":4941:5017  _numConfirmationsRequired > 0 && _numConfirmationsRequired <= _owners.length */\ntag_9:\n    /* \"customContracts/MultiSigWallet.sol\":4933:5061  require(_numConfirmationsRequired > 0 && _numConfirmationsRequired <= _owners.length, \"invalid number of requred confirmations\") */\n  tag_10\n  jumpi\n  mload(0x40)\n  0x08c379a000000000000000000000000000000000000000000000000000000000\n  dup2\n  mstore\n  0x04\n  add\n  tag_11\n  swap1\n  tag_12\n  jump\t// in\ntag_11:\n  mload(0x40)\n  dup1\n  swap2\n  sub\n  swap1\n  revert\ntag_10:\n    /* \"customContracts/MultiSigWallet.sol\":5094:5107  _traderPeople */\n  dup1\n    /* \"customContracts/MultiSigWallet.sol\":5080:5107  address(0) == _traderPeople */\n  0xffffffffffffffffffffffffffffffffffffffff\n  and\n    /* \"customContracts/MultiSigWallet.sol\":5088:5089  0 */\n  0x00\n    /* \"customContracts/MultiSigWallet.sol\":5080:5107  address(0) == _traderPeople */\n  0xffffffffffffffffffffffffffffffffffffffff\n  and\n  eq\n    /* \"customContracts/MultiSigWallet.sol\":5072:5133  require(address(0) == _traderPeople, \"invalid trader people\") */\n  tag_13\n  jumpi\n  mload(0x40)\n  0x08c379a000000000000000000000000000000000000000000000000000000000\n  dup2\n  mstore\n  0x04\n  add\n  tag_14\n  swap1\n  tag_15\n  jump\t// in\ntag_14:\n  mload(0x40)\n  dup1\n  swap2\n  sub\n  swap1\n  revert\ntag_13:\n    /* \"customContracts/MultiSigWallet.sol\":5149:5155  uint i */\n  0x00\n    /* \"customContracts/MultiSigWallet.sol\":5144:5424  for (uint i = 0; i < _owners.length; i++) {... */\ntag_16:\n    /* \"customContracts/MultiSigWallet.sol\":5165:5172  _owners */\n  dup4\n    /* \"customContracts/MultiSigWallet.sol\":5165:5179  _owners.length */\n  mload\n    /* \"customContracts/MultiSigWallet.sol\":5161:5162  i */\n  dup2\n    /* \"customContracts/MultiSigWallet.sol\":5161:5179  i < _owners.length */\n  lt\n    /* \"customContracts/MultiSigWallet.sol\":5144:5424  for (uint i = 0; i < _owners.length; i++) {... */\n  iszero\n  tag_17\n  jumpi\n    /* \"customContracts/MultiSigWallet.sol\":5201:5214  address owner */\n  0x00\n    /* \"customContracts/MultiSigWallet.sol\":5217:5224  _owners */\n  dup5\n    /* \"customContracts/MultiSigWallet.sol\":5225:5226  i */\n  dup3\n    /* \"customContracts/MultiSigWallet.sol\":5217:5227  _owners[i] */\n  dup2\n  mload\n  dup2\n  lt\n  tag_19\n  jumpi\n  tag_20\n  tag_21\n  jump\t// in\ntag_20:\ntag_19:\n  0x20\n  mul\n  0x20\n  add\n  add\n  mload\n    /* \"customContracts/MultiSigWallet.sol\":5201:5227  address owner = _owners[i] */\n  swap1\n  pop\n    /* \"customContracts/MultiSigWallet.sol\":5267:5268  0 */\n  0x00\n    /* \"customContracts/MultiSigWallet.sol\":5250:5269  owner != address(0) */\n  0xffffffffffffffffffffffffffffffffffffffff\n  and\n    /* \"customContracts/MultiSigWallet.sol\":5250:5255  owner */\n  dup2\n    /* \"customContracts/MultiSigWallet.sol\":5250:5269  owner != address(0) */\n  0xffffffffffffffffffffffffffffffffffffffff\n  and\n  sub\n    /* \"customContracts/MultiSigWallet.sol\":5242:5287  require(owner != address(0), \"invalid owner\") */\n  tag_22\n  jumpi\n  mload(0x40)\n  0x08c379a000000000000000000000000000000000000000000000000000000000\n  dup2\n  mstore\n  0x04\n  add\n  tag_23\n  swap1\n  tag_24\n  jump\t// in\ntag_23:\n  mload(0x40)\n  dup1\n  swap2\n  sub\n  swap1\n  revert\ntag_22:\n    /* \"customContracts/MultiSigWallet.sol\":5311:5318  isOwner */\n  0x01\n    /* \"customContracts/MultiSigWallet.sol\":5311:5325  isOwner[owner] */\n  0x00\n    /* \"customContracts/MultiSigWallet.sol\":5319:5324  owner */\n  dup3\n    /* \"customContracts/MultiSigWallet.sol\":5311:5325  isOwner[owner] */\n  0xffffffffffffffffffffffffffffffffffffffff\n  and\n  0xffffffffffffffffffffffffffffffffffffffff\n  and\n  dup2\n  mstore\n  0x20\n  add\n  swap1\n  dup2\n  mstore\n  0x20\n  add\n  0x00\n  keccak256\n  0x00\n  swap1\n  sload\n  swap1\n  0x0100\n  exp\n  swap1\n  div\n  0xff\n  and\n    /* \"customContracts/MultiSigWallet.sol\":5310:5325  !isOwner[owner] */\n  iszero\n    /* \"customContracts/MultiSigWallet.sol\":5302:5343  require(!isOwner[owner], \"owner existed\") */\n  tag_25\n  jumpi\n  mload(0x40)\n  0x08c379a000000000000000000000000000000000000000000000000000000000\n  dup2\n  mstore\n  0x04\n  add\n  tag_26\n  swap1\n  tag_27\n  jump\t// in\ntag_26:\n  mload(0x40)\n  dup1\n  swap2\n  sub\n  swap1\n  revert\ntag_25:\n    /* \"customContracts/MultiSigWallet.sol\":5375:5379  true */\n  0x01\n    /* \"customContracts/MultiSigWallet.sol\":5358:5365  isOwner */\n  dup1\n    /* \"customContracts/MultiSigWallet.sol\":5358:5372  isOwner[owner] */\n  0x00\n    /* \"customContracts/MultiSigWallet.sol\":5366:5371  owner */\n  dup4\n    /* \"customContracts/MultiSigWallet.sol\":5358:5372  isOwner[owner] */\n  0xffffffffffffffffffffffffffffffffffffffff\n  and\n  0xffffffffffffffffffffffffffffffffffffffff\n  and\n  dup2\n  mstore\n  0x20\n  add\n  swap1\n  dup2\n  mstore\n  0x20\n  add\n  0x00\n  keccak256\n  0x00\n    /* \"customContracts/MultiSigWallet.sol\":5358:5379  isOwner[owner] = true */\n  0x0100\n  exp\n  dup2\n  sload\n  dup2\n  0xff\n  mul\n  not\n  and\n  swap1\n  dup4\n  iszero\n  iszero\n  mul\n  or\n  swap1\n  sstore\n  pop\n    /* \"customContracts/MultiSigWallet.sol\":5394:5400  owners */\n  0x00\n    /* \"customContracts/MultiSigWallet.sol\":5406:5411  owner */\n  dup2\n    /* \"customContracts/MultiSigWallet.sol\":5394:5412  owners.push(owner) */\n  swap1\n  dup1\n  0x01\n  dup2\n  sload\n  add\n  dup1\n  dup3\n  sstore\n  dup1\n  swap2\n  pop\n  pop\n  0x01\n  swap1\n  sub\n  swap1\n  0x00\n  mstore\n  keccak256(0x00, 0x20)\n  add\n  0x00\n  swap1\n  swap2\n  swap1\n  swap2\n  swap1\n  swap2\n  0x0100\n  exp\n  dup2\n  sload\n  dup2\n  0xffffffffffffffffffffffffffffffffffffffff\n  mul\n  not\n  and\n  swap1\n  dup4\n  0xffffffffffffffffffffffffffffffffffffffff\n  and\n  mul\n  or\n  swap1\n  sstore\n  pop\n    /* \"customContracts/MultiSigWallet.sol\":5186:5424  {... */\n  pop\n    /* \"customContracts/MultiSigWallet.sol\":5181:5184  i++ */\n  dup1\n  dup1\n  0x01\n  add\n  swap2\n  pop\n  pop\n    /* \"customContracts/MultiSigWallet.sol\":5144:5424  for (uint i = 0; i < _owners.length; i++) {... */\n  jump(tag_16)\ntag_17:\n  pop\n    /* \"customContracts/MultiSigWallet.sol\":5463:5488  _numConfirmationsRequired */\n  dup2\n    /* \"customContracts/MultiSigWallet.sol\":5436:5460  numConfirmationsRequired */\n  0x02\n    /* \"customContracts/MultiSigWallet.sol\":5436:5488  numConfirmationsRequired = _numConfirmationsRequired */\n  dup2\n  swap1\n  sstore\n  pop\n    /* \"customContracts/MultiSigWallet.sol\":5547:5559  traderPeople */\n  0x05\n    /* \"customContracts/MultiSigWallet.sol\":5565:5578  _traderPeople */\n  dup2\n    /* \"customContracts/MultiSigWallet.sol\":5547:5579  traderPeople.push(_traderPeople) */\n  swap1\n  dup1\n  0x01\n  dup2\n  sload\n  add\n  dup1\n  dup3\n  sstore\n  dup1\n  swap2\n  pop\n  pop\n  0x01\n  swap1\n  sub\n  swap1\n  0x00\n  mstore\n  keccak256(0x00, 0x20)\n  add\n  0x00\n  swap1\n  swap2\n  swap1\n  swap2\n  swap1\n  swap2\n  0x0100\n  exp\n  dup2\n  sload\n  dup2\n  0xffffffffffffffffffffffffffffffffffffffff\n  mul\n  not\n  and\n  swap1\n  dup4\n  0xffffffffffffffffffffffffffffffffffffffff\n  and\n  mul\n  or\n  swap1\n  sstore\n  pop\n    /* \"customContracts/MultiSigWallet.sol\":4774:5587  constructor(address[] memory _owners, uint _numConfirmationsRequired, address _traderPeople){... */\n  pop\n  pop\n  pop\n    /* \"customContracts/MultiSigWallet.sol\":74:8994  contract MultiSigWallet {... */\n  jump(tag_30)\n    /* \"#utility.yul\":7:82   */\ntag_31:\n    /* \"#utility.yul\":40:46   */\n  0x00\n    /* \"#utility.yul\":73:75   */\n  0x40\n    /* \"#utility.yul\":67:76   */\n  mload\n    /* \"#utility.yul\":57:76   */\n  swap1\n  pop\n    /* \"#utility.yul\":7:82   */\n  swap1\n  jump\t// out\n    /* \"#utility.yul\":88:205   */\ntag_32:\n    /* \"#utility.yul\":197:198   */\n  0x00\n    /* \"#utility.yul\":194:195   */\n  dup1\n    /* \"#utility.yul\":187:199   */\n  revert\n    /* \"#utility.yul\":211:328   */\ntag_33:\n    /* \"#utility.yul\":320:321   */\n  0x00\n    /* \"#utility.yul\":317:318   */\n  dup1\n    /* \"#utility.yul\":310:322   */\n  revert\n    /* \"#utility.yul\":334:451   */\ntag_34:\n    /* \"#utility.yul\":443:444   */\n  0x00\n    /* \"#utility.yul\":440:441   */\n  dup1\n    /* \"#utility.yul\":433:445   */\n  revert\n    /* \"#utility.yul\":457:559   */\ntag_35:\n    /* \"#utility.yul\":498:504   */\n  0x00\n    /* \"#utility.yul\":549:551   */\n  0x1f\n    /* \"#utility.yul\":545:552   */\n  not\n    /* \"#utility.yul\":540:542   */\n  0x1f\n    /* \"#utility.yul\":533:538   */\n  dup4\n    /* \"#utility.yul\":529:543   */\n  add\n    /* \"#utility.yul\":525:553   */\n  and\n    /* \"#utility.yul\":515:553   */\n  swap1\n  pop\n    /* \"#utility.yul\":457:559   */\n  swap2\n  swap1\n  pop\n  jump\t// out\n    /* \"#utility.yul\":565:745   */\ntag_36:\n    /* \"#utility.yul\":613:690   */\n  0x4e487b7100000000000000000000000000000000000000000000000000000000\n    /* \"#utility.yul\":610:611   */\n  0x00\n    /* \"#utility.yul\":603:691   */\n  mstore\n    /* \"#utility.yul\":710:714   */\n  0x41\n    /* \"#utility.yul\":707:708   */\n  0x04\n    /* \"#utility.yul\":700:715   */\n  mstore\n    /* \"#utility.yul\":734:738   */\n  0x24\n    /* \"#utility.yul\":731:732   */\n  0x00\n    /* \"#utility.yul\":724:739   */\n  revert\n    /* \"#utility.yul\":751:1032   */\ntag_37:\n    /* \"#utility.yul\":834:861   */\n  tag_69\n    /* \"#utility.yul\":856:860   */\n  dup3\n    /* \"#utility.yul\":834:861   */\n  tag_35\n  jump\t// in\ntag_69:\n    /* \"#utility.yul\":826:832   */\n  dup2\n    /* \"#utility.yul\":822:862   */\n  add\n    /* \"#utility.yul\":964:970   */\n  dup2\n    /* \"#utility.yul\":952:962   */\n  dup2\n    /* \"#utility.yul\":949:971   */\n  lt\n    /* \"#utility.yul\":928:946   */\n  0xffffffffffffffff\n    /* \"#utility.yul\":916:926   */\n  dup3\n    /* \"#utility.yul\":913:947   */\n  gt\n    /* \"#utility.yul\":910:972   */\n  or\n    /* \"#utility.yul\":907:995   */\n  iszero\n  tag_70\n  jumpi\n    /* \"#utility.yul\":975:993   */\n  tag_71\n  tag_36\n  jump\t// in\ntag_71:\n    /* \"#utility.yul\":907:995   */\ntag_70:\n    /* \"#utility.yul\":1015:1025   */\n  dup1\n    /* \"#utility.yul\":1011:1013   */\n  0x40\n    /* \"#utility.yul\":1004:1026   */\n  mstore\n    /* \"#utility.yul\":794:1032   */\n  pop\n    /* \"#utility.yul\":751:1032   */\n  pop\n  pop\n  jump\t// out\n    /* \"#utility.yul\":1038:1167   */\ntag_38:\n    /* \"#utility.yul\":1072:1078   */\n  0x00\n    /* \"#utility.yul\":1099:1119   */\n  tag_73\n  tag_31\n  jump\t// in\ntag_73:\n    /* \"#utility.yul\":1089:1119   */\n  swap1\n  pop\n    /* \"#utility.yul\":1128:1161   */\n  tag_74\n    /* \"#utility.yul\":1156:1160   */\n  dup3\n    /* \"#utility.yul\":1148:1154   */\n  dup3\n    /* \"#utility.yul\":1128:1161   */\n  tag_37\n  jump\t// in\ntag_74:\n    /* \"#utility.yul\":1038:1167   */\n  swap2\n  swap1\n  pop\n  jump\t// out\n    /* \"#utility.yul\":1173:1484   */\ntag_39:\n    /* \"#utility.yul\":1250:1254   */\n  0x00\n    /* \"#utility.yul\":1340:1358   */\n  0xffffffffffffffff\n    /* \"#utility.yul\":1332:1338   */\n  dup3\n    /* \"#utility.yul\":1329:1359   */\n  gt\n    /* \"#utility.yul\":1326:1382   */\n  iszero\n  tag_76\n  jumpi\n    /* \"#utility.yul\":1362:1380   */\n  tag_77\n  tag_36\n  jump\t// in\ntag_77:\n    /* \"#utility.yul\":1326:1382   */\ntag_76:\n    /* \"#utility.yul\":1412:1416   */\n  0x20\n    /* \"#utility.yul\":1404:1410   */\n  dup3\n    /* \"#utility.yul\":1400:1417   */\n  mul\n    /* \"#utility.yul\":1392:1417   */\n  swap1\n  pop\n    /* \"#utility.yul\":1472:1476   */\n  0x20\n    /* \"#utility.yul\":1466:1470   */\n  dup2\n    /* \"#utility.yul\":1462:1477   */\n  add\n    /* \"#utility.yul\":1454:1477   */\n  swap1\n  pop\n    /* \"#utility.yul\":1173:1484   */\n  swap2\n  swap1\n  pop\n  jump\t// out\n    /* \"#utility.yul\":1490:1607   */\ntag_40:\n    /* \"#utility.yul\":1599:1600   */\n  0x00\n    /* \"#utility.yul\":1596:1597   */\n  dup1\n    /* \"#utility.yul\":1589:1601   */\n  revert\n    /* \"#utility.yul\":1613:1739   */\ntag_41:\n    /* \"#utility.yul\":1650:1657   */\n  0x00\n    /* \"#utility.yul\":1690:1732   */\n  0xffffffffffffffffffffffffffffffffffffffff\n    /* \"#utility.yul\":1683:1688   */\n  dup3\n    /* \"#utility.yul\":1679:1733   */\n  and\n    /* \"#utility.yul\":1668:1733   */\n  swap1\n  pop\n    /* \"#utility.yul\":1613:1739   */\n  swap2\n  swap1\n  pop\n  jump\t// out\n    /* \"#utility.yul\":1745:1841   */\ntag_42:\n    /* \"#utility.yul\":1782:1789   */\n  0x00\n    /* \"#utility.yul\":1811:1835   */\n  tag_81\n    /* \"#utility.yul\":1829:1834   */\n  dup3\n    /* \"#utility.yul\":1811:1835   */\n  tag_41\n  jump\t// in\ntag_81:\n    /* \"#utility.yul\":1800:1835   */\n  swap1\n  pop\n    /* \"#utility.yul\":1745:1841   */\n  swap2\n  swap1\n  pop\n  jump\t// out\n    /* \"#utility.yul\":1847:1969   */\ntag_43:\n    /* \"#utility.yul\":1920:1944   */\n  tag_83\n    /* \"#utility.yul\":1938:1943   */\n  dup2\n    /* \"#utility.yul\":1920:1944   */\n  tag_42\n  jump\t// in\ntag_83:\n    /* \"#utility.yul\":1913:1918   */\n  dup2\n    /* \"#utility.yul\":1910:1945   */\n  eq\n    /* \"#utility.yul\":1900:1963   */\n  tag_84\n  jumpi\n    /* \"#utility.yul\":1959:1960   */\n  0x00\n    /* \"#utility.yul\":1956:1957   */\n  dup1\n    /* \"#utility.yul\":1949:1961   */\n  revert\n    /* \"#utility.yul\":1900:1963   */\ntag_84:\n    /* \"#utility.yul\":1847:1969   */\n  pop\n  jump\t// out\n    /* \"#utility.yul\":1975:2118   */\ntag_44:\n    /* \"#utility.yul\":2032:2037   */\n  0x00\n    /* \"#utility.yul\":2063:2069   */\n  dup2\n    /* \"#utility.yul\":2057:2070   */\n  mload\n    /* \"#utility.yul\":2048:2070   */\n  swap1\n  pop\n    /* \"#utility.yul\":2079:2112   */\n  tag_86\n    /* \"#utility.yul\":2106:2111   */\n  dup2\n    /* \"#utility.yul\":2079:2112   */\n  tag_43\n  jump\t// in\ntag_86:\n    /* \"#utility.yul\":1975:2118   */\n  swap3\n  swap2\n  pop\n  pop\n  jump\t// out\n    /* \"#utility.yul\":2141:2873   */\ntag_45:\n    /* \"#utility.yul\":2248:2253   */\n  0x00\n    /* \"#utility.yul\":2273:2354   */\n  tag_88\n    /* \"#utility.yul\":2289:2353   */\n  tag_89\n    /* \"#utility.yul\":2346:2352   */\n  dup5\n    /* \"#utility.yul\":2289:2353   */\n  tag_39\n  jump\t// in\ntag_89:\n    /* \"#utility.yul\":2273:2354   */\n  tag_38\n  jump\t// in\ntag_88:\n    /* \"#utility.yul\":2264:2354   */\n  swap1\n  pop\n    /* \"#utility.yul\":2374:2379   */\n  dup1\n    /* \"#utility.yul\":2403:2409   */\n  dup4\n    /* \"#utility.yul\":2396:2401   */\n  dup3\n    /* \"#utility.yul\":2389:2410   */\n  mstore\n    /* \"#utility.yul\":2437:2441   */\n  0x20\n    /* \"#utility.yul\":2430:2435   */\n  dup3\n    /* \"#utility.yul\":2426:2442   */\n  add\n    /* \"#utility.yul\":2419:2442   */\n  swap1\n  pop\n    /* \"#utility.yul\":2490:2494   */\n  0x20\n    /* \"#utility.yul\":2482:2488   */\n  dup5\n    /* \"#utility.yul\":2478:2495   */\n  mul\n    /* \"#utility.yul\":2470:2476   */\n  dup4\n    /* \"#utility.yul\":2466:2496   */\n  add\n    /* \"#utility.yul\":2519:2522   */\n  dup6\n    /* \"#utility.yul\":2511:2517   */\n  dup2\n    /* \"#utility.yul\":2508:2523   */\n  gt\n    /* \"#utility.yul\":2505:2627   */\n  iszero\n  tag_90\n  jumpi\n    /* \"#utility.yul\":2538:2617   */\n  tag_91\n  tag_40\n  jump\t// in\ntag_91:\n    /* \"#utility.yul\":2505:2627   */\ntag_90:\n    /* \"#utility.yul\":2653:2659   */\n  dup4\n    /* \"#utility.yul\":2636:2867   */\ntag_92:\n    /* \"#utility.yul\":2670:2676   */\n  dup2\n    /* \"#utility.yul\":2665:2668   */\n  dup2\n    /* \"#utility.yul\":2662:2677   */\n  lt\n    /* \"#utility.yul\":2636:2867   */\n  iszero\n  tag_94\n  jumpi\n    /* \"#utility.yul\":2745:2748   */\n  dup1\n    /* \"#utility.yul\":2774:2822   */\n  tag_95\n    /* \"#utility.yul\":2818:2821   */\n  dup9\n    /* \"#utility.yul\":2806:2816   */\n  dup3\n    /* \"#utility.yul\":2774:2822   */\n  tag_44\n  jump\t// in\ntag_95:\n    /* \"#utility.yul\":2769:2772   */\n  dup5\n    /* \"#utility.yul\":2762:2823   */\n  mstore\n    /* \"#utility.yul\":2852:2856   */\n  0x20\n    /* \"#utility.yul\":2847:2850   */\n  dup5\n    /* \"#utility.yul\":2843:2857   */\n  add\n    /* \"#utility.yul\":2836:2857   */\n  swap4\n  pop\n    /* \"#utility.yul\":2712:2867   */\n  pop\n    /* \"#utility.yul\":2696:2700   */\n  0x20\n    /* \"#utility.yul\":2691:2694   */\n  dup2\n    /* \"#utility.yul\":2687:2701   */\n  add\n    /* \"#utility.yul\":2680:2701   */\n  swap1\n  pop\n    /* \"#utility.yul\":2636:2867   */\n  jump(tag_92)\ntag_94:\n    /* \"#utility.yul\":2640:2661   */\n  pop\n    /* \"#utility.yul\":2254:2873   */\n  pop\n  pop\n    /* \"#utility.yul\":2141:2873   */\n  swap4\n  swap3\n  pop\n  pop\n  pop\n  jump\t// out\n    /* \"#utility.yul\":2896:3281   */\ntag_46:\n    /* \"#utility.yul\":2978:2983   */\n  0x00\n    /* \"#utility.yul\":3027:3030   */\n  dup3\n    /* \"#utility.yul\":3020:3024   */\n  0x1f\n    /* \"#utility.yul\":3012:3018   */\n  dup4\n    /* \"#utility.yul\":3008:3025   */\n  add\n    /* \"#utility.yul\":3004:3031   */\n  slt\n    /* \"#utility.yul\":2994:3116   */\n  tag_97\n  jumpi\n    /* \"#utility.yul\":3035:3114   */\n  tag_98\n  tag_34\n  jump\t// in\ntag_98:\n    /* \"#utility.yul\":2994:3116   */\ntag_97:\n    /* \"#utility.yul\":3145:3151   */\n  dup2\n    /* \"#utility.yul\":3139:3152   */\n  mload\n    /* \"#utility.yul\":3170:3275   */\n  tag_99\n    /* \"#utility.yul\":3271:3274   */\n  dup5\n    /* \"#utility.yul\":3263:3269   */\n  dup3\n    /* \"#utility.yul\":3256:3260   */\n  0x20\n    /* \"#utility.yul\":3248:3254   */\n  dup7\n    /* \"#utility.yul\":3244:3261   */\n  add\n    /* \"#utility.yul\":3170:3275   */\n  tag_45\n  jump\t// in\ntag_99:\n    /* \"#utility.yul\":3161:3275   */\n  swap2\n  pop\n    /* \"#utility.yul\":2984:3281   */\n  pop\n    /* \"#utility.yul\":2896:3281   */\n  swap3\n  swap2\n  pop\n  pop\n  jump\t// out\n    /* \"#utility.yul\":3287:3364   */\ntag_47:\n    /* \"#utility.yul\":3324:3331   */\n  0x00\n    /* \"#utility.yul\":3353:3358   */\n  dup2\n    /* \"#utility.yul\":3342:3358   */\n  swap1\n  pop\n    /* \"#utility.yul\":3287:3364   */\n  swap2\n  swap1\n  pop\n  jump\t// out\n    /* \"#utility.yul\":3370:3492   */\ntag_48:\n    /* \"#utility.yul\":3443:3467   */\n  tag_102\n    /* \"#utility.yul\":3461:3466   */\n  dup2\n    /* \"#utility.yul\":3443:3467   */\n  tag_47\n  jump\t// in\ntag_102:\n    /* \"#utility.yul\":3436:3441   */\n  dup2\n    /* \"#utility.yul\":3433:3468   */\n  eq\n    /* \"#utility.yul\":3423:3486   */\n  tag_103\n  jumpi\n    /* \"#utility.yul\":3482:3483   */\n  0x00\n    /* \"#utility.yul\":3479:3480   */\n  dup1\n    /* \"#utility.yul\":3472:3484   */\n  revert\n    /* \"#utility.yul\":3423:3486   */\ntag_103:\n    /* \"#utility.yul\":3370:3492   */\n  pop\n  jump\t// out\n    /* \"#utility.yul\":3498:3641   */\ntag_49:\n    /* \"#utility.yul\":3555:3560   */\n  0x00\n    /* \"#utility.yul\":3586:3592   */\n  dup2\n    /* \"#utility.yul\":3580:3593   */\n  mload\n    /* \"#utility.yul\":3571:3593   */\n  swap1\n  pop\n    /* \"#utility.yul\":3602:3635   */\n  tag_105\n    /* \"#utility.yul\":3629:3634   */\n  dup2\n    /* \"#utility.yul\":3602:3635   */\n  tag_48\n  jump\t// in\ntag_105:\n    /* \"#utility.yul\":3498:3641   */\n  swap3\n  swap2\n  pop\n  pop\n  jump\t// out\n    /* \"#utility.yul\":3647:4513   */\ntag_3:\n    /* \"#utility.yul\":3760:3766   */\n  0x00\n    /* \"#utility.yul\":3768:3774   */\n  dup1\n    /* \"#utility.yul\":3776:3782   */\n  0x00\n    /* \"#utility.yul\":3825:3827   */\n  0x60\n    /* \"#utility.yul\":3813:3822   */\n  dup5\n    /* \"#utility.yul\":3804:3811   */\n  dup7\n    /* \"#utility.yul\":3800:3823   */\n  sub\n    /* \"#utility.yul\":3796:3828   */\n  slt\n    /* \"#utility.yul\":3793:3912   */\n  iszero\n  tag_107\n  jumpi\n    /* \"#utility.yul\":3831:3910   */\n  tag_108\n  tag_32\n  jump\t// in\ntag_108:\n    /* \"#utility.yul\":3793:3912   */\ntag_107:\n    /* \"#utility.yul\":3972:3973   */\n  0x00\n    /* \"#utility.yul\":3961:3970   */\n  dup5\n    /* \"#utility.yul\":3957:3974   */\n  add\n    /* \"#utility.yul\":3951:3975   */\n  mload\n    /* \"#utility.yul\":4002:4020   */\n  0xffffffffffffffff\n    /* \"#utility.yul\":3994:4000   */\n  dup2\n    /* \"#utility.yul\":3991:4021   */\n  gt\n    /* \"#utility.yul\":3988:4105   */\n  iszero\n  tag_109\n  jumpi\n    /* \"#utility.yul\":4024:4103   */\n  tag_110\n  tag_33\n  jump\t// in\ntag_110:\n    /* \"#utility.yul\":3988:4105   */\ntag_109:\n    /* \"#utility.yul\":4129:4218   */\n  tag_111\n    /* \"#utility.yul\":4210:4217   */\n  dup7\n    /* \"#utility.yul\":4201:4207   */\n  dup3\n    /* \"#utility.yul\":4190:4199   */\n  dup8\n    /* \"#utility.yul\":4186:4208   */\n  add\n    /* \"#utility.yul\":4129:4218   */\n  tag_46\n  jump\t// in\ntag_111:\n    /* \"#utility.yul\":4119:4218   */\n  swap4\n  pop\n    /* \"#utility.yul\":3922:4228   */\n  pop\n    /* \"#utility.yul\":4267:4269   */\n  0x20\n    /* \"#utility.yul\":4293:4357   */\n  tag_112\n    /* \"#utility.yul\":4349:4356   */\n  dup7\n    /* \"#utility.yul\":4340:4346   */\n  dup3\n    /* \"#utility.yul\":4329:4338   */\n  dup8\n    /* \"#utility.yul\":4325:4347   */\n  add\n    /* \"#utility.yul\":4293:4357   */\n  tag_49\n  jump\t// in\ntag_112:\n    /* \"#utility.yul\":4283:4357   */\n  swap3\n  pop\n    /* \"#utility.yul\":4238:4367   */\n  pop\n    /* \"#utility.yul\":4406:4408   */\n  0x40\n    /* \"#utility.yul\":4432:4496   */\n  tag_113\n    /* \"#utility.yul\":4488:4495   */\n  dup7\n    /* \"#utility.yul\":4479:4485   */\n  dup3\n    /* \"#utility.yul\":4468:4477   */\n  dup8\n    /* \"#utility.yul\":4464:4486   */\n  add\n    /* \"#utility.yul\":4432:4496   */\n  tag_44\n  jump\t// in\ntag_113:\n    /* \"#utility.yul\":4422:4496   */\n  swap2\n  pop\n    /* \"#utility.yul\":4377:4506   */\n  pop\n    /* \"#utility.yul\":3647:4513   */\n  swap3\n  pop\n  swap3\n  pop\n  swap3\n  jump\t// out\n    /* \"#utility.yul\":4519:4688   */\ntag_50:\n    /* \"#utility.yul\":4603:4614   */\n  0x00\n    /* \"#utility.yul\":4637:4643   */\n  dup3\n    /* \"#utility.yul\":4632:4635   */\n  dup3\n    /* \"#utility.yul\":4625:4644   */\n  mstore\n    /* \"#utility.yul\":4677:4681   */\n  0x20\n    /* \"#utility.yul\":4672:4675   */\n  dup3\n    /* \"#utility.yul\":4668:4682   */\n  add\n    /* \"#utility.yul\":4653:4682   */\n  swap1\n  pop\n    /* \"#utility.yul\":4519:4688   */\n  swap3\n  swap2\n  pop\n  pop\n  jump\t// out\n    /* \"#utility.yul\":4694:4858   */\ntag_51:\n    /* \"#utility.yul\":4834:4850   */\n  0x6f776e6572207265717569726564000000000000000000000000000000000000\n    /* \"#utility.yul\":4830:4831   */\n  0x00\n    /* \"#utility.yul\":4822:4828   */\n  dup3\n    /* \"#utility.yul\":4818:4832   */\n  add\n    /* \"#utility.yul\":4811:4851   */\n  mstore\n    /* \"#utility.yul\":4694:4858   */\n  pop\n  jump\t// out\n    /* \"#utility.yul\":4864:5230   */\ntag_52:\n    /* \"#utility.yul\":5006:5009   */\n  0x00\n    /* \"#utility.yul\":5027:5094   */\n  tag_117\n    /* \"#utility.yul\":5091:5093   */\n  0x0e\n    /* \"#utility.yul\":5086:5089   */\n  dup4\n    /* \"#utility.yul\":5027:5094   */\n  tag_50\n  jump\t// in\ntag_117:\n    /* \"#utility.yul\":5020:5094   */\n  swap2\n  pop\n    /* \"#utility.yul\":5103:5196   */\n  tag_118\n    /* \"#utility.yul\":5192:5195   */\n  dup3\n    /* \"#utility.yul\":5103:5196   */\n  tag_51\n  jump\t// in\ntag_118:\n    /* \"#utility.yul\":5221:5223   */\n  0x20\n    /* \"#utility.yul\":5216:5219   */\n  dup3\n    /* \"#utility.yul\":5212:5224   */\n  add\n    /* \"#utility.yul\":5205:5224   */\n  swap1\n  pop\n    /* \"#utility.yul\":4864:5230   */\n  swap2\n  swap1\n  pop\n  jump\t// out\n    /* \"#utility.yul\":5236:5655   */\ntag_8:\n    /* \"#utility.yul\":5402:5406   */\n  0x00\n    /* \"#utility.yul\":5440:5442   */\n  0x20\n    /* \"#utility.yul\":5429:5438   */\n  dup3\n    /* \"#utility.yul\":5425:5443   */\n  add\n    /* \"#utility.yul\":5417:5443   */\n  swap1\n  pop\n    /* \"#utility.yul\":5489:5498   */\n  dup2\n    /* \"#utility.yul\":5483:5487   */\n  dup2\n    /* \"#utility.yul\":5479:5499   */\n  sub\n    /* \"#utility.yul\":5475:5476   */\n  0x00\n    /* \"#utility.yul\":5464:5473   */\n  dup4\n    /* \"#utility.yul\":5460:5477   */\n  add\n    /* \"#utility.yul\":5453:5500   */\n  mstore\n    /* \"#utility.yul\":5517:5648   */\n  tag_120\n    /* \"#utility.yul\":5643:5647   */\n  dup2\n    /* \"#utility.yul\":5517:5648   */\n  tag_52\n  jump\t// in\ntag_120:\n    /* \"#utility.yul\":5509:5648   */\n  swap1\n  pop\n    /* \"#utility.yul\":5236:5655   */\n  swap2\n  swap1\n  pop\n  jump\t// out\n    /* \"#utility.yul\":5661:5887   */\ntag_53:\n    /* \"#utility.yul\":5801:5835   */\n  0x696e76616c6964206e756d626572206f66207265717572656420636f6e666972\n    /* \"#utility.yul\":5797:5798   */\n  0x00\n    /* \"#utility.yul\":5789:5795   */\n  dup3\n    /* \"#utility.yul\":5785:5799   */\n  add\n    /* \"#utility.yul\":5778:5836   */\n  mstore\n    /* \"#utility.yul\":5870:5879   */\n  0x6d6174696f6e7300000000000000000000000000000000000000000000000000\n    /* \"#utility.yul\":5865:5867   */\n  0x20\n    /* \"#utility.yul\":5857:5863   */\n  dup3\n    /* \"#utility.yul\":5853:5868   */\n  add\n    /* \"#utility.yul\":5846:5880   */\n  mstore\n    /* \"#utility.yul\":5661:5887   */\n  pop\n  jump\t// out\n    /* \"#utility.yul\":5893:6259   */\ntag_54:\n    /* \"#utility.yul\":6035:6038   */\n  0x00\n    /* \"#utility.yul\":6056:6123   */\n  tag_123\n    /* \"#utility.yul\":6120:6122   */\n  0x27\n    /* \"#utility.yul\":6115:6118   */\n  dup4\n    /* \"#utility.yul\":6056:6123   */\n  tag_50\n  jump\t// in\ntag_123:\n    /* \"#utility.yul\":6049:6123   */\n  swap2\n  pop\n    /* \"#utility.yul\":6132:6225   */\n  tag_124\n    /* \"#utility.yul\":6221:6224   */\n  dup3\n    /* \"#utility.yul\":6132:6225   */\n  tag_53\n  jump\t// in\ntag_124:\n    /* \"#utility.yul\":6250:6252   */\n  0x40\n    /* \"#utility.yul\":6245:6248   */\n  dup3\n    /* \"#utility.yul\":6241:6253   */\n  add\n    /* \"#utility.yul\":6234:6253   */\n  swap1\n  pop\n    /* \"#utility.yul\":5893:6259   */\n  swap2\n  swap1\n  pop\n  jump\t// out\n    /* \"#utility.yul\":6265:6684   */\ntag_12:\n    /* \"#utility.yul\":6431:6435   */\n  0x00\n    /* \"#utility.yul\":6469:6471   */\n  0x20\n    /* \"#utility.yul\":6458:6467   */\n  dup3\n    /* \"#utility.yul\":6454:6472   */\n  add\n    /* \"#utility.yul\":6446:6472   */\n  swap1\n  pop\n    /* \"#utility.yul\":6518:6527   */\n  dup2\n    /* \"#utility.yul\":6512:6516   */\n  dup2\n    /* \"#utility.yul\":6508:6528   */\n  sub\n    /* \"#utility.yul\":6504:6505   */\n  0x00\n    /* \"#utility.yul\":6493:6502   */\n  dup4\n    /* \"#utility.yul\":6489:6506   */\n  add\n    /* \"#utility.yul\":6482:6529   */\n  mstore\n    /* \"#utility.yul\":6546:6677   */\n  tag_126\n    /* \"#utility.yul\":6672:6676   */\n  dup2\n    /* \"#utility.yul\":6546:6677   */\n  tag_54\n  jump\t// in\ntag_126:\n    /* \"#utility.yul\":6538:6677   */\n  swap1\n  pop\n    /* \"#utility.yul\":6265:6684   */\n  swap2\n  swap1\n  pop\n  jump\t// out\n    /* \"#utility.yul\":6690:6861   */\ntag_55:\n    /* \"#utility.yul\":6830:6853   */\n  0x696e76616c6964207472616465722070656f706c650000000000000000000000\n    /* \"#utility.yul\":6826:6827   */\n  0x00\n    /* \"#utility.yul\":6818:6824   */\n  dup3\n    /* \"#utility.yul\":6814:6828   */\n  add\n    /* \"#utility.yul\":6807:6854   */\n  mstore\n    /* \"#utility.yul\":6690:6861   */\n  pop\n  jump\t// out\n    /* \"#utility.yul\":6867:7233   */\ntag_56:\n    /* \"#utility.yul\":7009:7012   */\n  0x00\n    /* \"#utility.yul\":7030:7097   */\n  tag_129\n    /* \"#utility.yul\":7094:7096   */\n  0x15\n    /* \"#utility.yul\":7089:7092   */\n  dup4\n    /* \"#utility.yul\":7030:7097   */\n  tag_50\n  jump\t// in\ntag_129:\n    /* \"#utility.yul\":7023:7097   */\n  swap2\n  pop\n    /* \"#utility.yul\":7106:7199   */\n  tag_130\n    /* \"#utility.yul\":7195:7198   */\n  dup3\n    /* \"#utility.yul\":7106:7199   */\n  tag_55\n  jump\t// in\ntag_130:\n    /* \"#utility.yul\":7224:7226   */\n  0x20\n    /* \"#utility.yul\":7219:7222   */\n  dup3\n    /* \"#utility.yul\":7215:7227   */\n  add\n    /* \"#utility.yul\":7208:7227   */\n  swap1\n  pop\n    /* \"#utility.yul\":6867:7233   */\n  swap2\n  swap1\n  pop\n  jump\t// out\n    /* \"#utility.yul\":7239:7658   */\ntag_15:\n    /* \"#utility.yul\":7405:7409   */\n  0x00\n    /* \"#utility.yul\":7443:7445   */\n  0x20\n    /* \"#utility.yul\":7432:7441   */\n  dup3\n    /* \"#utility.yul\":7428:7446   */\n  add\n    /* \"#utility.yul\":7420:7446   */\n  swap1\n  pop\n    /* \"#utility.yul\":7492:7501   */\n  dup2\n    /* \"#utility.yul\":7486:7490   */\n  dup2\n    /* \"#utility.yul\":7482:7502   */\n  sub\n    /* \"#utility.yul\":7478:7479   */\n  0x00\n    /* \"#utility.yul\":7467:7476   */\n  dup4\n    /* \"#utility.yul\":7463:7480   */\n  add\n    /* \"#utility.yul\":7456:7503   */\n  mstore\n    /* \"#utility.yul\":7520:7651   */\n  tag_132\n    /* \"#utility.yul\":7646:7650   */\n  dup2\n    /* \"#utility.yul\":7520:7651   */\n  tag_56\n  jump\t// in\ntag_132:\n    /* \"#utility.yul\":7512:7651   */\n  swap1\n  pop\n    /* \"#utility.yul\":7239:7658   */\n  swap2\n  swap1\n  pop\n  jump\t// out\n    /* \"#utility.yul\":7664:7844   */\ntag_21:\n    /* \"#utility.yul\":7712:7789   */\n  0x4e487b7100000000000000000000000000000000000000000000000000000000\n    /* \"#utility.yul\":7709:7710   */\n  0x00\n    /* \"#utility.yul\":7702:7790   */\n  mstore\n    /* \"#utility.yul\":7809:7813   */\n  0x32\n    /* \"#utility.yul\":7806:7807   */\n  0x04\n    /* \"#utility.yul\":7799:7814   */\n  mstore\n    /* \"#utility.yul\":7833:7837   */\n  0x24\n    /* \"#utility.yul\":7830:7831   */\n  0x00\n    /* \"#utility.yul\":7823:7838   */\n  revert\n    /* \"#utility.yul\":7850:8013   */\ntag_57:\n    /* \"#utility.yul\":7990:8005   */\n  0x696e76616c6964206f776e657200000000000000000000000000000000000000\n    /* \"#utility.yul\":7986:7987   */\n  0x00\n    /* \"#utility.yul\":7978:7984   */\n  dup3\n    /* \"#utility.yul\":7974:7988   */\n  add\n    /* \"#utility.yul\":7967:8006   */\n  mstore\n    /* \"#utility.yul\":7850:8013   */\n  pop\n  jump\t// out\n    /* \"#utility.yul\":8019:8385   */\ntag_58:\n    /* \"#utility.yul\":8161:8164   */\n  0x00\n    /* \"#utility.yul\":8182:8249   */\n  tag_136\n    /* \"#utility.yul\":8246:8248   */\n  0x0d\n    /* \"#utility.yul\":8241:8244   */\n  dup4\n    /* \"#utility.yul\":8182:8249   */\n  tag_50\n  jump\t// in\ntag_136:\n    /* \"#utility.yul\":8175:8249   */\n  swap2\n  pop\n    /* \"#utility.yul\":8258:8351   */\n  tag_137\n    /* \"#utility.yul\":8347:8350   */\n  dup3\n    /* \"#utility.yul\":8258:8351   */\n  tag_57\n  jump\t// in\ntag_137:\n    /* \"#utility.yul\":8376:8378   */\n  0x20\n    /* \"#utility.yul\":8371:8374   */\n  dup3\n    /* \"#utility.yul\":8367:8379   */\n  add\n    /* \"#utility.yul\":8360:8379   */\n  swap1\n  pop\n    /* \"#utility.yul\":8019:8385   */\n  swap2\n  swap1\n  pop\n  jump\t// out\n    /* \"#utility.yul\":8391:8810   */\ntag_24:\n    /* \"#utility.yul\":8557:8561   */\n  0x00\n    /* \"#utility.yul\":8595:8597   */\n  0x20\n    /* \"#utility.yul\":8584:8593   */\n  dup3\n    /* \"#utility.yul\":8580:8598   */\n  add\n    /* \"#utility.yul\":8572:8598   */\n  swap1\n  pop\n    /* \"#utility.yul\":8644:8653   */\n  dup2\n    /* \"#utility.yul\":8638:8642   */\n  dup2\n    /* \"#utility.yul\":8634:8654   */\n  sub\n    /* \"#utility.yul\":8630:8631   */\n  0x00\n    /* \"#utility.yul\":8619:8628   */\n  dup4\n    /* \"#utility.yul\":8615:8632   */\n  add\n    /* \"#utility.yul\":8608:8655   */\n  mstore\n    /* \"#utility.yul\":8672:8803   */\n  tag_139\n    /* \"#utility.yul\":8798:8802   */\n  dup2\n    /* \"#utility.yul\":8672:8803   */\n  tag_58\n  jump\t// in\ntag_139:\n    /* \"#utility.yul\":8664:8803   */\n  swap1\n  pop\n    /* \"#utility.yul\":8391:8810   */\n  swap2\n  swap1\n  pop\n  jump\t// out\n    /* \"#utility.yul\":8816:8979   */\ntag_59:\n    /* \"#utility.yul\":8956:8971   */\n  0x6f776e6572206578697374656400000000000000000000000000000000000000\n    /* \"#utility.yul\":8952:8953   */\n  0x00\n    /* \"#utility.yul\":8944:8950   */\n  dup3\n    /* \"#utility.yul\":8940:8954   */\n  add\n    /* \"#utility.yul\":8933:8972   */\n  mstore\n    /* \"#utility.yul\":8816:8979   */\n  pop\n  jump\t// out\n    /* \"#utility.yul\":8985:9351   */\ntag_60:\n    /* \"#utility.yul\":9127:9130   */\n  0x00\n    /* \"#utility.yul\":9148:9215   */\n  tag_142\n    /* \"#utility.yul\":9212:9214   */\n  0x0d\n    /* \"#utility.yul\":9207:9210   */\n  dup4\n    /* \"#utility.yul\":9148:9215   */\n  tag_50\n  jump\t// in\ntag_142:\n    /* \"#utility.yul\":9141:9215   */\n  swap2\n  pop\n    /* \"#utility.yul\":9224:9317   */\n  tag_143\n    /* \"#utility.yul\":9313:9316   */\n  dup3\n    /* \"#utility.yul\":9224:9317   */\n  tag_59\n  jump\t// in\ntag_143:\n    /* \"#utility.yul\":9342:9344   */\n  0x20\n    /* \"#utility.yul\":9337:9340   */\n  dup3\n    /* \"#utility.yul\":9333:9345   */\n  add\n    /* \"#utility.yul\":9326:9345   */\n  swap1\n  pop\n    /* \"#utility.yul\":8985:9351   */\n  swap2\n  swap1\n  pop\n  jump\t// out\n    /* \"#utility.yul\":9357:9776   */\ntag_27:\n    /* \"#utility.yul\":9523:9527   */\n  0x00\n    /* \"#utility.yul\":9561:9563   */\n  0x20\n    /* \"#utility.yul\":9550:9559   */\n  dup3\n    /* \"#utility.yul\":9546:9564   */\n  add\n    /* \"#utility.yul\":9538:9564   */\n  swap1\n  pop\n    /* \"#utility.yul\":9610:9619   */\n  dup2\n    /* \"#utility.yul\":9604:9608   */\n  dup2\n    /* \"#utility.yul\":9600:9620   */\n  sub\n    /* \"#utility.yul\":9596:9597   */\n  0x00\n    /* \"#utility.yul\":9585:9594   */\n  dup4\n    /* \"#utility.yul\":9581:9598   */\n  add\n    /* \"#utility.yul\":9574:9621   */\n  mstore\n    /* \"#utility.yul\":9638:9769   */\n  tag_145\n    /* \"#utility.yul\":9764:9768   */\n  dup2\n    /* \"#utility.yul\":9638:9769   */\n  tag_60\n  jump\t// in\ntag_145:\n    /* \"#utility.yul\":9630:9769   */\n  swap1\n  pop\n    /* \"#utility.yul\":9357:9776   */\n  swap2\n  swap1\n  pop\n  jump\t// out\n    /* \"customContracts/MultiSigWallet.sol\":74:8994  contract MultiSigWallet {... */\ntag_30:\n  dataSize(sub_0)\n  dup1\n  dataOffset(sub_0)\n  0x00\n  codecopy\n  0x00\n  return\nstop\n\nsub_0: assembly {\n        /* \"customContracts/MultiSigWallet.sol\":74:8994  contract MultiSigWallet {... */\n      mstore(0x40, 0x80)\n      jumpi(tag_1, lt(calldatasize, 0x04))\n      shr(0xe0, calldataload(0x00))\n      dup1\n      0x9ace38c2\n      gt\n      tag_16\n      jumpi\n      dup1\n      0xc01a8c84\n      gt\n      tag_17\n      jumpi\n      dup1\n      0xc01a8c84\n      eq\n      tag_12\n      jumpi\n      dup1\n      0xc6427474\n      eq\n      tag_13\n      jumpi\n      dup1\n      0xd0549b85\n      eq\n      tag_14\n      jumpi\n      dup1\n      0xee22610b\n      eq\n      tag_15\n      jumpi\n      jump(tag_2)\n    tag_17:\n      dup1\n      0x9ace38c2\n      eq\n      tag_9\n      jumpi\n      dup1\n      0xa0e67e2b\n      eq\n      tag_10\n      jumpi\n      dup1\n      0xa401bbac\n      eq\n      tag_11\n      jumpi\n      jump(tag_2)\n    tag_16:\n      dup1\n      0x025e7c27\n      eq\n      tag_3\n      jumpi\n      dup1\n      0x20ea8d86\n      eq\n      tag_4\n      jumpi\n      dup1\n      0x2e7700f0\n      eq\n      tag_5\n      jumpi\n      dup1\n      0x2f54bf6e\n      eq\n      tag_6\n      jumpi\n      dup1\n      0x33ea3dc8\n      eq\n      tag_7\n      jumpi\n      dup1\n      0x80f59a65\n      eq\n      tag_8\n      jumpi\n      jump(tag_2)\n    tag_1:\n      jumpi(tag_2, calldatasize)\n        /* \"customContracts/MultiSigWallet.sol\":5687:5697  msg.sender */\n      caller\n        /* \"customContracts/MultiSigWallet.sol\":5679:5732  Deposit(msg.sender, msg.value, address(this).balance) */\n      0xffffffffffffffffffffffffffffffffffffffff\n      and\n      0x90890809c654f11d6e72a28fa60149770a0d11ec6c92319d6ceb2bb0a4ea1a15\n        /* \"customContracts/MultiSigWallet.sol\":5699:5708  msg.value */\n      callvalue\n        /* \"customContracts/MultiSigWallet.sol\":5710:5731  address(this).balance */\n      selfbalance\n        /* \"customContracts/MultiSigWallet.sol\":5679:5732  Deposit(msg.sender, msg.value, address(this).balance) */\n      mload(0x40)\n      tag_20\n      swap3\n      swap2\n      swap1\n      tag_21\n      jump\t// in\n    tag_20:\n      mload(0x40)\n      dup1\n      swap2\n      sub\n      swap1\n      log2\n        /* \"customContracts/MultiSigWallet.sol\":74:8994  contract MultiSigWallet {... */\n      stop\n    tag_2:\n      0x00\n      dup1\n      revert\n        /* \"customContracts/MultiSigWallet.sol\":2156:2179  address[] public owners */\n    tag_3:\n      callvalue\n      dup1\n      iszero\n      tag_22\n      jumpi\n      0x00\n      dup1\n      revert\n    tag_22:\n      pop\n      tag_23\n      0x04\n      dup1\n      calldatasize\n      sub\n      dup2\n      add\n      swap1\n      tag_24\n      swap2\n      swap1\n      tag_25\n      jump\t// in\n    tag_24:\n      tag_26\n      jump\t// in\n    tag_23:\n      mload(0x40)\n      tag_27\n      swap2\n      swap1\n      tag_28\n      jump\t// in\n    tag_27:\n      mload(0x40)\n      dup1\n      swap2\n      sub\n      swap1\n      return\n        /* \"customContracts/MultiSigWallet.sol\":7695:8096  function revokeConfirmation(uint _txIndex) public onlyOwner txExists(_txIndex) notExecuted(_txIndex) {... */\n    tag_4:\n      callvalue\n      dup1\n      iszero\n      tag_29\n      jumpi\n      0x00\n      dup1\n      revert\n    tag_29:\n      pop\n      tag_30\n      0x04\n      dup1\n      calldatasize\n      sub\n      dup2\n      add\n      swap1\n      tag_31\n      swap2\n      swap1\n      tag_25\n      jump\t// in\n    tag_31:\n      tag_32\n      jump\t// in\n    tag_30:\n      stop\n        /* \"customContracts/MultiSigWallet.sol\":8307:8410  function getTransactionCount() public view returns (uint) {... */\n    tag_5:\n      callvalue\n      dup1\n      iszero\n      tag_33\n      jumpi\n      0x00\n      dup1\n      revert\n    tag_33:\n      pop\n      tag_34\n      tag_35\n      jump\t// in\n    tag_34:\n      mload(0x40)\n      tag_36\n      swap2\n      swap1\n      tag_37\n      jump\t// in\n    tag_36:\n      mload(0x40)\n      dup1\n      swap2\n      sub\n      swap1\n      return\n        /* \"customContracts/MultiSigWallet.sol\":2302:2341  mapping(address => bool) public isOwner */\n    tag_6:\n      callvalue\n      dup1\n      iszero\n      tag_38\n      jumpi\n      0x00\n      dup1\n      revert\n    tag_38:\n      pop\n      tag_39\n      0x04\n      dup1\n      calldatasize\n      sub\n      dup2\n      add\n      swap1\n      tag_40\n      swap2\n      swap1\n      tag_41\n      jump\t// in\n    tag_40:\n      tag_42\n      jump\t// in\n    tag_39:\n      mload(0x40)\n      tag_43\n      swap2\n      swap1\n      tag_44\n      jump\t// in\n    tag_43:\n      mload(0x40)\n      dup1\n      swap2\n      sub\n      swap1\n      return\n        /* \"customContracts/MultiSigWallet.sol\":8513:8982  function getTransaction(uint _txIndex) public view returns (... */\n    tag_7:\n      callvalue\n      dup1\n      iszero\n      tag_45\n      jumpi\n      0x00\n      dup1\n      revert\n    tag_45:\n      pop\n      tag_46\n      0x04\n      dup1\n      calldatasize\n      sub\n      dup2\n      add\n      swap1\n      tag_47\n      swap2\n      swap1\n      tag_25\n      jump\t// in\n    tag_47:\n      tag_48\n      jump\t// in\n    tag_46:\n      mload(0x40)\n      tag_49\n      swap6\n      swap5\n      swap4\n      swap3\n      swap2\n      swap1\n      tag_50\n      jump\t// in\n    tag_49:\n      mload(0x40)\n      dup1\n      swap2\n      sub\n      swap1\n      return\n        /* \"customContracts/MultiSigWallet.sol\":2857:2915  mapping(uint => mapping(address=>bool)) public isConfirmed */\n    tag_8:\n      callvalue\n      dup1\n      iszero\n      tag_51\n      jumpi\n      0x00\n      dup1\n      revert\n    tag_51:\n      pop\n      tag_52\n      0x04\n      dup1\n      calldatasize\n      sub\n      dup2\n      add\n      swap1\n      tag_53\n      swap2\n      swap1\n      tag_54\n      jump\t// in\n    tag_53:\n      tag_55\n      jump\t// in\n    tag_52:\n      mload(0x40)\n      tag_56\n      swap2\n      swap1\n      tag_44\n      jump\t// in\n    tag_56:\n      mload(0x40)\n      dup1\n      swap2\n      sub\n      swap1\n      return\n        /* \"customContracts/MultiSigWallet.sol\":2924:2957  Transaction[] public transactions */\n    tag_9:\n      callvalue\n      dup1\n      iszero\n      tag_57\n      jumpi\n      0x00\n      dup1\n      revert\n    tag_57:\n      pop\n      tag_58\n      0x04\n      dup1\n      calldatasize\n      sub\n      dup2\n      add\n      swap1\n      tag_59\n      swap2\n      swap1\n      tag_25\n      jump\t// in\n    tag_59:\n      tag_60\n      jump\t// in\n    tag_58:\n      mload(0x40)\n      tag_61\n      swap6\n      swap5\n      swap4\n      swap3\n      swap2\n      swap1\n      tag_50\n      jump\t// in\n    tag_61:\n      mload(0x40)\n      dup1\n      swap2\n      sub\n      swap1\n      return\n        /* \"customContracts/MultiSigWallet.sol\":8159:8250  function getOwners() public view returns(address[] memory) {... */\n    tag_10:\n      callvalue\n      dup1\n      iszero\n      tag_62\n      jumpi\n      0x00\n      dup1\n      revert\n    tag_62:\n      pop\n      tag_63\n      tag_64\n      jump\t// in\n    tag_63:\n      mload(0x40)\n      tag_65\n      swap2\n      swap1\n      tag_66\n      jump\t// in\n    tag_65:\n      mload(0x40)\n      dup1\n      swap2\n      sub\n      swap1\n      return\n        /* \"customContracts/MultiSigWallet.sol\":3021:3050  address[] public traderPeople */\n    tag_11:\n      callvalue\n      dup1\n      iszero\n      tag_67\n      jumpi\n      0x00\n      dup1\n      revert\n    tag_67:\n      pop\n      tag_68\n      0x04\n      dup1\n      calldatasize\n      sub\n      dup2\n      add\n      swap1\n      tag_69\n      swap2\n      swap1\n      tag_25\n      jump\t// in\n    tag_69:\n      tag_70\n      jump\t// in\n    tag_68:\n      mload(0x40)\n      tag_71\n      swap2\n      swap1\n      tag_28\n      jump\t// in\n    tag_71:\n      mload(0x40)\n      dup1\n      swap2\n      sub\n      swap1\n      return\n        /* \"customContracts/MultiSigWallet.sol\":6563:6913  function confirmTransaction(uint _txIndex) public onlyOwner txExists(_txIndex) notExecuted(_txIndex) notConfirmed(_txIndex) {... */\n    tag_12:\n      callvalue\n      dup1\n      iszero\n      tag_72\n      jumpi\n      0x00\n      dup1\n      revert\n    tag_72:\n      pop\n      tag_73\n      0x04\n      dup1\n      calldatasize\n      sub\n      dup2\n      add\n      swap1\n      tag_74\n      swap2\n      swap1\n      tag_25\n      jump\t// in\n    tag_74:\n      tag_75\n      jump\t// in\n    tag_73:\n      stop\n        /* \"customContracts/MultiSigWallet.sol\":5942:6403  function submitTransaction(address _to, uint _value, bytes memory _data) public onlyOwner {... */\n    tag_13:\n      callvalue\n      dup1\n      iszero\n      tag_76\n      jumpi\n      0x00\n      dup1\n      revert\n    tag_76:\n      pop\n      tag_77\n      0x04\n      dup1\n      calldatasize\n      sub\n      dup2\n      add\n      swap1\n      tag_78\n      swap2\n      swap1\n      tag_79\n      jump\t// in\n    tag_78:\n      tag_80\n      jump\t// in\n    tag_77:\n      stop\n        /* \"customContracts/MultiSigWallet.sol\":2441:2477  uint public numConfirmationsRequired */\n    tag_14:\n      callvalue\n      dup1\n      iszero\n      tag_81\n      jumpi\n      0x00\n      dup1\n      revert\n    tag_81:\n      pop\n      tag_82\n      tag_83\n      jump\t// in\n    tag_82:\n      mload(0x40)\n      tag_84\n      swap2\n      swap1\n      tag_37\n      jump\t// in\n    tag_84:\n      mload(0x40)\n      dup1\n      swap2\n      sub\n      swap1\n      return\n        /* \"customContracts/MultiSigWallet.sol\":7071:7571  function executeTransaction(uint _txIndex) public onlyOwner txExists(_txIndex) notExecuted(_txIndex) {... */\n    tag_15:\n      callvalue\n      dup1\n      iszero\n      tag_85\n      jumpi\n      0x00\n      dup1\n      revert\n    tag_85:\n      pop\n      tag_86\n      0x04\n      dup1\n      calldatasize\n      sub\n      dup2\n      add\n      swap1\n      tag_87\n      swap2\n      swap1\n      tag_25\n      jump\t// in\n    tag_87:\n      tag_88\n      jump\t// in\n    tag_86:\n      stop\n        /* \"customContracts/MultiSigWallet.sol\":2156:2179  address[] public owners */\n    tag_26:\n      0x00\n      dup2\n      dup2\n      sload\n      dup2\n      lt\n      tag_89\n      jumpi\n      0x00\n      dup1\n      revert\n    tag_89:\n      swap1\n      0x00\n      mstore\n      keccak256(0x00, 0x20)\n      add\n      0x00\n      swap2\n      pop\n      sload\n      swap1\n      0x0100\n      exp\n      swap1\n      div\n      0xffffffffffffffffffffffffffffffffffffffff\n      and\n      dup2\n      jump\t// out\n        /* \"customContracts/MultiSigWallet.sol\":7695:8096  function revokeConfirmation(uint _txIndex) public onlyOwner txExists(_txIndex) notExecuted(_txIndex) {... */\n    tag_32:\n        /* \"customContracts/MultiSigWallet.sol\":3472:3479  isOwner */\n      0x01\n        /* \"customContracts/MultiSigWallet.sol\":3472:3491  isOwner[msg.sender] */\n      0x00\n        /* \"customContracts/MultiSigWallet.sol\":3480:3490  msg.sender */\n      caller\n        /* \"customContracts/MultiSigWallet.sol\":3472:3491  isOwner[msg.sender] */\n      0xffffffffffffffffffffffffffffffffffffffff\n      and\n      0xffffffffffffffffffffffffffffffffffffffff\n      and\n      dup2\n      mstore\n      0x20\n      add\n      swap1\n      dup2\n      mstore\n      0x20\n      add\n      0x00\n      keccak256\n      0x00\n      swap1\n      sload\n      swap1\n      0x0100\n      exp\n      swap1\n      div\n      0xff\n      and\n        /* \"customContracts/MultiSigWallet.sol\":3464:3505  require(isOwner[msg.sender], \"not owner\") */\n      tag_92\n      jumpi\n      mload(0x40)\n      0x08c379a000000000000000000000000000000000000000000000000000000000\n      dup2\n      mstore\n      0x04\n      add\n      tag_93\n      swap1\n      tag_94\n      jump\t// in\n    tag_93:\n      mload(0x40)\n      dup1\n      swap2\n      sub\n      swap1\n      revert\n    tag_92:\n        /* \"customContracts/MultiSigWallet.sol\":7764:7772  _txIndex */\n      dup1\n        /* \"customContracts/MultiSigWallet.sol\":3680:3692  transactions */\n      0x04\n        /* \"customContracts/MultiSigWallet.sol\":3680:3699  transactions.length */\n      dup1\n      sload\n      swap1\n      pop\n        /* \"customContracts/MultiSigWallet.sol\":3669:3677  _txIndex */\n      dup2\n        /* \"customContracts/MultiSigWallet.sol\":3669:3699  _txIndex < transactions.length */\n      lt\n        /* \"customContracts/MultiSigWallet.sol\":3661:3721  require(_txIndex < transactions.length, \"tx does not exist\") */\n      tag_96\n      jumpi\n      mload(0x40)\n      0x08c379a000000000000000000000000000000000000000000000000000000000\n      dup2\n      mstore\n      0x04\n      add\n      tag_97\n      swap1\n      tag_98\n      jump\t// in\n    tag_97:\n      mload(0x40)\n      dup1\n      swap2\n      sub\n      swap1\n      revert\n    tag_96:\n        /* \"customContracts/MultiSigWallet.sol\":7786:7794  _txIndex */\n      dup2\n        /* \"customContracts/MultiSigWallet.sol\":3897:3909  transactions */\n      0x04\n        /* \"customContracts/MultiSigWallet.sol\":3910:3918  _txIndex */\n      dup2\n        /* \"customContracts/MultiSigWallet.sol\":3897:3919  transactions[_txIndex] */\n      dup2\n      sload\n      dup2\n      lt\n      tag_100\n      jumpi\n      tag_101\n      tag_102\n      jump\t// in\n    tag_101:\n    tag_100:\n      swap1\n      0x00\n      mstore\n      keccak256(0x00, 0x20)\n      swap1\n      0x05\n      mul\n      add\n        /* \"customContracts/MultiSigWallet.sol\":3897:3928  transactions[_txIndex].executed */\n      0x03\n      add\n      0x00\n      swap1\n      sload\n      swap1\n      0x0100\n      exp\n      swap1\n      div\n      0xff\n      and\n        /* \"customContracts/MultiSigWallet.sol\":3896:3928  !transactions[_txIndex].executed */\n      iszero\n        /* \"customContracts/MultiSigWallet.sol\":3888:3952  require(!transactions[_txIndex].executed, \"tx already executed\") */\n      tag_104\n      jumpi\n      mload(0x40)\n      0x08c379a000000000000000000000000000000000000000000000000000000000\n      dup2\n      mstore\n      0x04\n      add\n      tag_105\n      swap1\n      tag_106\n      jump\t// in\n    tag_105:\n      mload(0x40)\n      dup1\n      swap2\n      sub\n      swap1\n      revert\n    tag_104:\n        /* \"customContracts/MultiSigWallet.sol\":7807:7838  Transaction storage transaction */\n      0x00\n        /* \"customContracts/MultiSigWallet.sol\":7841:7853  transactions */\n      0x04\n        /* \"customContracts/MultiSigWallet.sol\":7854:7862  _txIndex */\n      dup5\n        /* \"customContracts/MultiSigWallet.sol\":7841:7863  transactions[_txIndex] */\n      dup2\n      sload\n      dup2\n      lt\n      tag_108\n      jumpi\n      tag_109\n      tag_102\n      jump\t// in\n    tag_109:\n    tag_108:\n      swap1\n      0x00\n      mstore\n      keccak256(0x00, 0x20)\n      swap1\n      0x05\n      mul\n      add\n        /* \"customContracts/MultiSigWallet.sol\":7807:7863  Transaction storage transaction = transactions[_txIndex] */\n      swap1\n      pop\n        /* \"customContracts/MultiSigWallet.sol\":7882:7893  isConfirmed */\n      0x03\n        /* \"customContracts/MultiSigWallet.sol\":7882:7903  isConfirmed[_txIndex] */\n      0x00\n        /* \"customContracts/MultiSigWallet.sol\":7894:7902  _txIndex */\n      dup6\n        /* \"customContracts/MultiSigWallet.sol\":7882:7903  isConfirmed[_txIndex] */\n      dup2\n      mstore\n      0x20\n      add\n      swap1\n      dup2\n      mstore\n      0x20\n      add\n      0x00\n      keccak256\n        /* \"customContracts/MultiSigWallet.sol\":7882:7915  isConfirmed[_txIndex][msg.sender] */\n      0x00\n        /* \"customContracts/MultiSigWallet.sol\":7904:7914  msg.sender */\n      caller\n        /* \"customContracts/MultiSigWallet.sol\":7882:7915  isConfirmed[_txIndex][msg.sender] */\n      0xffffffffffffffffffffffffffffffffffffffff\n      and\n      0xffffffffffffffffffffffffffffffffffffffff\n      and\n      dup2\n      mstore\n      0x20\n      add\n      swap1\n      dup2\n      mstore\n      0x20\n      add\n      0x00\n      keccak256\n      0x00\n      swap1\n      sload\n      swap1\n      0x0100\n      exp\n      swap1\n      div\n      0xff\n      and\n        /* \"customContracts/MultiSigWallet.sol\":7874:7936  require(isConfirmed[_txIndex][msg.sender], \"tx not confirmed\") */\n      tag_111\n      jumpi\n      mload(0x40)\n      0x08c379a000000000000000000000000000000000000000000000000000000000\n      dup2\n      mstore\n      0x04\n      add\n      tag_112\n      swap1\n      tag_113\n      jump\t// in\n    tag_112:\n      mload(0x40)\n      dup1\n      swap2\n      sub\n      swap1\n      revert\n    tag_111:\n        /* \"customContracts/MultiSigWallet.sol\":7979:7980  1 */\n      0x01\n        /* \"customContracts/MultiSigWallet.sol\":7947:7958  transaction */\n      dup2\n        /* \"customContracts/MultiSigWallet.sol\":7947:7975  transaction.numConfirmations */\n      0x04\n      add\n      0x00\n        /* \"customContracts/MultiSigWallet.sol\":7947:7980  transaction.numConfirmations -= 1 */\n      dup3\n      dup3\n      sload\n      tag_114\n      swap2\n      swap1\n      tag_115\n      jump\t// in\n    tag_114:\n      swap3\n      pop\n      pop\n      dup2\n      swap1\n      sstore\n      pop\n        /* \"customContracts/MultiSigWallet.sol\":8027:8032  false */\n      0x00\n        /* \"customContracts/MultiSigWallet.sol\":7991:8002  isConfirmed */\n      0x03\n        /* \"customContracts/MultiSigWallet.sol\":7991:8012  isConfirmed[_txIndex] */\n      0x00\n        /* \"customContracts/MultiSigWallet.sol\":8003:8011  _txIndex */\n      dup7\n        /* \"customContracts/MultiSigWallet.sol\":7991:8012  isConfirmed[_txIndex] */\n      dup2\n      mstore\n      0x20\n      add\n      swap1\n      dup2\n      mstore\n      0x20\n      add\n      0x00\n      keccak256\n        /* \"customContracts/MultiSigWallet.sol\":7991:8024  isConfirmed[_txIndex][msg.sender] */\n      0x00\n        /* \"customContracts/MultiSigWallet.sol\":8013:8023  msg.sender */\n      caller\n        /* \"customContracts/MultiSigWallet.sol\":7991:8024  isConfirmed[_txIndex][msg.sender] */\n      0xffffffffffffffffffffffffffffffffffffffff\n      and\n      0xffffffffffffffffffffffffffffffffffffffff\n      and\n      dup2\n      mstore\n      0x20\n      add\n      swap1\n      dup2\n      mstore\n      0x20\n      add\n      0x00\n      keccak256\n      0x00\n        /* \"customContracts/MultiSigWallet.sol\":7991:8032  isConfirmed[_txIndex][msg.sender] = false */\n      0x0100\n      exp\n      dup2\n      sload\n      dup2\n      0xff\n      mul\n      not\n      and\n      swap1\n      dup4\n      iszero\n      iszero\n      mul\n      or\n      swap1\n      sstore\n      pop\n        /* \"customContracts/MultiSigWallet.sol\":8079:8087  _txIndex */\n      dup4\n        /* \"customContracts/MultiSigWallet.sol\":8067:8077  msg.sender */\n      caller\n        /* \"customContracts/MultiSigWallet.sol\":8048:8088  RevokeConfirmation(msg.sender, _txIndex) */\n      0xffffffffffffffffffffffffffffffffffffffff\n      and\n      0xf0dca620e2e81f7841d07bcc105e1704fb01475b278a9d4c236e1c62945edd55\n      mload(0x40)\n      mload(0x40)\n      dup1\n      swap2\n      sub\n      swap1\n      log3\n        /* \"customContracts/MultiSigWallet.sol\":7796:8096  {... */\n      pop\n        /* \"customContracts/MultiSigWallet.sol\":3732:3733  _ */\n      pop\n        /* \"customContracts/MultiSigWallet.sol\":3516:3517  _ */\n      pop\n        /* \"customContracts/MultiSigWallet.sol\":7695:8096  function revokeConfirmation(uint _txIndex) public onlyOwner txExists(_txIndex) notExecuted(_txIndex) {... */\n      pop\n      jump\t// out\n        /* \"customContracts/MultiSigWallet.sol\":8307:8410  function getTransactionCount() public view returns (uint) {... */\n    tag_35:\n        /* \"customContracts/MultiSigWallet.sol\":8359:8363  uint */\n      0x00\n        /* \"customContracts/MultiSigWallet.sol\":8383:8395  transactions */\n      0x04\n        /* \"customContracts/MultiSigWallet.sol\":8383:8402  transactions.length */\n      dup1\n      sload\n      swap1\n      pop\n        /* \"customContracts/MultiSigWallet.sol\":8376:8402  return transactions.length */\n      swap1\n      pop\n        /* \"customContracts/MultiSigWallet.sol\":8307:8410  function getTransactionCount() public view returns (uint) {... */\n      swap1\n      jump\t// out\n        /* \"customContracts/MultiSigWallet.sol\":2302:2341  mapping(address => bool) public isOwner */\n    tag_42:\n      mstore(0x20, 0x01)\n      dup1\n      0x00\n      mstore\n      keccak256(0x00, 0x40)\n      0x00\n      swap2\n      pop\n      sload\n      swap1\n      0x0100\n      exp\n      swap1\n      div\n      0xff\n      and\n      dup2\n      jump\t// out\n        /* \"customContracts/MultiSigWallet.sol\":8513:8982  function getTransaction(uint _txIndex) public view returns (... */\n    tag_48:\n        /* \"customContracts/MultiSigWallet.sol\":8583:8593  address to */\n      0x00\n        /* \"customContracts/MultiSigWallet.sol\":8604:8614  uint value */\n      dup1\n        /* \"customContracts/MultiSigWallet.sol\":8625:8642  bytes memory data */\n      0x60\n        /* \"customContracts/MultiSigWallet.sol\":8653:8666  bool executed */\n      0x00\n        /* \"customContracts/MultiSigWallet.sol\":8677:8698  uint numConfirmations */\n      dup1\n        /* \"customContracts/MultiSigWallet.sol\":8717:8748  Transaction storage transaction */\n      0x00\n        /* \"customContracts/MultiSigWallet.sol\":8751:8763  transactions */\n      0x04\n        /* \"customContracts/MultiSigWallet.sol\":8764:8772  _txIndex */\n      dup8\n        /* \"customContracts/MultiSigWallet.sol\":8751:8773  transactions[_txIndex] */\n      dup2\n      sload\n      dup2\n      lt\n      tag_118\n      jumpi\n      tag_119\n      tag_102\n      jump\t// in\n    tag_119:\n    tag_118:\n      swap1\n      0x00\n      mstore\n      keccak256(0x00, 0x20)\n      swap1\n      0x05\n      mul\n      add\n        /* \"customContracts/MultiSigWallet.sol\":8717:8773  Transaction storage transaction = transactions[_txIndex] */\n      swap1\n      pop\n        /* \"customContracts/MultiSigWallet.sol\":8806:8817  transaction */\n      dup1\n        /* \"customContracts/MultiSigWallet.sol\":8806:8820  transaction.to */\n      0x00\n      add\n      0x00\n      swap1\n      sload\n      swap1\n      0x0100\n      exp\n      swap1\n      div\n      0xffffffffffffffffffffffffffffffffffffffff\n      and\n        /* \"customContracts/MultiSigWallet.sol\":8835:8846  transaction */\n      dup2\n        /* \"customContracts/MultiSigWallet.sol\":8835:8852  transaction.value */\n      0x01\n      add\n      sload\n        /* \"customContracts/MultiSigWallet.sol\":8867:8878  transaction */\n      dup3\n        /* \"customContracts/MultiSigWallet.sol\":8867:8883  transaction.data */\n      0x02\n      add\n        /* \"customContracts/MultiSigWallet.sol\":8898:8909  transaction */\n      dup4\n        /* \"customContracts/MultiSigWallet.sol\":8898:8918  transaction.executed */\n      0x03\n      add\n      0x00\n      swap1\n      sload\n      swap1\n      0x0100\n      exp\n      swap1\n      div\n      0xff\n      and\n        /* \"customContracts/MultiSigWallet.sol\":8933:8944  transaction */\n      dup5\n        /* \"customContracts/MultiSigWallet.sol\":8933:8961  transaction.numConfirmations */\n      0x04\n      add\n      sload\n        /* \"customContracts/MultiSigWallet.sol\":8784:8972  return (... */\n      dup3\n      dup1\n      sload\n      tag_121\n      swap1\n      tag_122\n      jump\t// in\n    tag_121:\n      dup1\n      0x1f\n      add\n      0x20\n      dup1\n      swap2\n      div\n      mul\n      0x20\n      add\n      mload(0x40)\n      swap1\n      dup2\n      add\n      0x40\n      mstore\n      dup1\n      swap3\n      swap2\n      swap1\n      dup2\n      dup2\n      mstore\n      0x20\n      add\n      dup3\n      dup1\n      sload\n      tag_123\n      swap1\n      tag_122\n      jump\t// in\n    tag_123:\n      dup1\n      iszero\n      tag_124\n      jumpi\n      dup1\n      0x1f\n      lt\n      tag_125\n      jumpi\n      0x0100\n      dup1\n      dup4\n      sload\n      div\n      mul\n      dup4\n      mstore\n      swap2\n      0x20\n      add\n      swap2\n      jump(tag_124)\n    tag_125:\n      dup3\n      add\n      swap2\n      swap1\n      0x00\n      mstore\n      keccak256(0x00, 0x20)\n      swap1\n    tag_126:\n      dup2\n      sload\n      dup2\n      mstore\n      swap1\n      0x01\n      add\n      swap1\n      0x20\n      add\n      dup1\n      dup4\n      gt\n      tag_126\n      jumpi\n      dup3\n      swap1\n      sub\n      0x1f\n      and\n      dup3\n      add\n      swap2\n    tag_124:\n      pop\n      pop\n      pop\n      pop\n      pop\n      swap3\n      pop\n      swap6\n      pop\n      swap6\n      pop\n      swap6\n      pop\n      swap6\n      pop\n      swap6\n      pop\n      pop\n        /* \"customContracts/MultiSigWallet.sol\":8513:8982  function getTransaction(uint _txIndex) public view returns (... */\n      swap2\n      swap4\n      swap6\n      swap1\n      swap3\n      swap5\n      pop\n      jump\t// out\n        /* \"customContracts/MultiSigWallet.sol\":2857:2915  mapping(uint => mapping(address=>bool)) public isConfirmed */\n    tag_55:\n      mstore(0x20, 0x03)\n      dup2\n      0x00\n      mstore\n      mstore(0x20, keccak256(0x00, 0x40))\n      dup1\n      0x00\n      mstore\n      keccak256(0x00, 0x40)\n      0x00\n      swap2\n      pop\n      swap2\n      pop\n      swap1\n      sload\n      swap1\n      0x0100\n      exp\n      swap1\n      div\n      0xff\n      and\n      dup2\n      jump\t// out\n        /* \"customContracts/MultiSigWallet.sol\":2924:2957  Transaction[] public transactions */\n    tag_60:\n      0x04\n      dup2\n      dup2\n      sload\n      dup2\n      lt\n      tag_127\n      jumpi\n      0x00\n      dup1\n      revert\n    tag_127:\n      swap1\n      0x00\n      mstore\n      keccak256(0x00, 0x20)\n      swap1\n      0x05\n      mul\n      add\n      0x00\n      swap2\n      pop\n      swap1\n      pop\n      dup1\n      0x00\n      add\n      0x00\n      swap1\n      sload\n      swap1\n      0x0100\n      exp\n      swap1\n      div\n      0xffffffffffffffffffffffffffffffffffffffff\n      and\n      swap1\n      dup1\n      0x01\n      add\n      sload\n      swap1\n      dup1\n      0x02\n      add\n      dup1\n      sload\n      tag_129\n      swap1\n      tag_122\n      jump\t// in\n    tag_129:\n      dup1\n      0x1f\n      add\n      0x20\n      dup1\n      swap2\n      div\n      mul\n      0x20\n      add\n      mload(0x40)\n      swap1\n      dup2\n      add\n      0x40\n      mstore\n      dup1\n      swap3\n      swap2\n      swap1\n      dup2\n      dup2\n      mstore\n      0x20\n      add\n      dup3\n      dup1\n      sload\n      tag_130\n      swap1\n      tag_122\n      jump\t// in\n    tag_130:\n      dup1\n      iszero\n      tag_131\n      jumpi\n      dup1\n      0x1f\n      lt\n      tag_132\n      jumpi\n      0x0100\n      dup1\n      dup4\n      sload\n      div\n      mul\n      dup4\n      mstore\n      swap2\n      0x20\n      add\n      swap2\n      jump(tag_131)\n    tag_132:\n      dup3\n      add\n      swap2\n      swap1\n      0x00\n      mstore\n      keccak256(0x00, 0x20)\n      swap1\n    tag_133:\n      dup2\n      sload\n      dup2\n      mstore\n      swap1\n      0x01\n      add\n      swap1\n      0x20\n      add\n      dup1\n      dup4\n      gt\n      tag_133\n      jumpi\n      dup3\n      swap1\n      sub\n      0x1f\n      and\n      dup3\n      add\n      swap2\n    tag_131:\n      pop\n      pop\n      pop\n      pop\n      pop\n      swap1\n      dup1\n      0x03\n      add\n      0x00\n      swap1\n      sload\n      swap1\n      0x0100\n      exp\n      swap1\n      div\n      0xff\n      and\n      swap1\n      dup1\n      0x04\n      add\n      sload\n      swap1\n      pop\n      dup6\n      jump\t// out\n        /* \"customContracts/MultiSigWallet.sol\":8159:8250  function getOwners() public view returns(address[] memory) {... */\n    tag_64:\n        /* \"customContracts/MultiSigWallet.sol\":8200:8216  address[] memory */\n      0x60\n        /* \"customContracts/MultiSigWallet.sol\":8236:8242  owners */\n      0x00\n        /* \"customContracts/MultiSigWallet.sol\":8229:8242  return owners */\n      dup1\n      sload\n      dup1\n      0x20\n      mul\n      0x20\n      add\n      mload(0x40)\n      swap1\n      dup2\n      add\n      0x40\n      mstore\n      dup1\n      swap3\n      swap2\n      swap1\n      dup2\n      dup2\n      mstore\n      0x20\n      add\n      dup3\n      dup1\n      sload\n      dup1\n      iszero\n      tag_135\n      jumpi\n      0x20\n      mul\n      dup3\n      add\n      swap2\n      swap1\n      0x00\n      mstore\n      keccak256(0x00, 0x20)\n      swap1\n    tag_136:\n      dup2\n      0x00\n      swap1\n      sload\n      swap1\n      0x0100\n      exp\n      swap1\n      div\n      0xffffffffffffffffffffffffffffffffffffffff\n      and\n      0xffffffffffffffffffffffffffffffffffffffff\n      and\n      dup2\n      mstore\n      0x20\n      add\n      swap1\n      0x01\n      add\n      swap1\n      dup1\n      dup4\n      gt\n      tag_136\n      jumpi\n    tag_135:\n      pop\n      pop\n      pop\n      pop\n      pop\n      swap1\n      pop\n        /* \"customContracts/MultiSigWallet.sol\":8159:8250  function getOwners() public view returns(address[] memory) {... */\n      swap1\n      jump\t// out\n        /* \"customContracts/MultiSigWallet.sol\":3021:3050  address[] public traderPeople */\n    tag_70:\n      0x05\n      dup2\n      dup2\n      sload\n      dup2\n      lt\n      tag_137\n      jumpi\n      0x00\n      dup1\n      revert\n    tag_137:\n      swap1\n      0x00\n      mstore\n      keccak256(0x00, 0x20)\n      add\n      0x00\n      swap2\n      pop\n      sload\n      swap1\n      0x0100\n      exp\n      swap1\n      div\n      0xffffffffffffffffffffffffffffffffffffffff\n      and\n      dup2\n      jump\t// out\n        /* \"customContracts/MultiSigWallet.sol\":6563:6913  function confirmTransaction(uint _txIndex) public onlyOwner txExists(_txIndex) notExecuted(_txIndex) notConfirmed(_txIndex) {... */\n    tag_75:\n        /* \"customContracts/MultiSigWallet.sol\":3472:3479  isOwner */\n      0x01\n        /* \"customContracts/MultiSigWallet.sol\":3472:3491  isOwner[msg.sender] */\n      0x00\n        /* \"customContracts/MultiSigWallet.sol\":3480:3490  msg.sender */\n      caller\n        /* \"customContracts/MultiSigWallet.sol\":3472:3491  isOwner[msg.sender] */\n      0xffffffffffffffffffffffffffffffffffffffff\n      and\n      0xffffffffffffffffffffffffffffffffffffffff\n      and\n      dup2\n      mstore\n      0x20\n      add\n      swap1\n      dup2\n      mstore\n      0x20\n      add\n      0x00\n      keccak256\n      0x00\n      swap1\n      sload\n      swap1\n      0x0100\n      exp\n      swap1\n      div\n      0xff\n      and\n        /* \"customContracts/MultiSigWallet.sol\":3464:3505  require(isOwner[msg.sender], \"not owner\") */\n      tag_140\n      jumpi\n      mload(0x40)\n      0x08c379a000000000000000000000000000000000000000000000000000000000\n      dup2\n      mstore\n      0x04\n      add\n      tag_141\n      swap1\n      tag_94\n      jump\t// in\n    tag_141:\n      mload(0x40)\n      dup1\n      swap2\n      sub\n      swap1\n      revert\n    tag_140:\n        /* \"customContracts/MultiSigWallet.sol\":6632:6640  _txIndex */\n      dup1\n        /* \"customContracts/MultiSigWallet.sol\":3680:3692  transactions */\n      0x04\n        /* \"customContracts/MultiSigWallet.sol\":3680:3699  transactions.length */\n      dup1\n      sload\n      swap1\n      pop\n        /* \"customContracts/MultiSigWallet.sol\":3669:3677  _txIndex */\n      dup2\n        /* \"customContracts/MultiSigWallet.sol\":3669:3699  _txIndex < transactions.length */\n      lt\n        /* \"customContracts/MultiSigWallet.sol\":3661:3721  require(_txIndex < transactions.length, \"tx does not exist\") */\n      tag_143\n      jumpi\n      mload(0x40)\n      0x08c379a000000000000000000000000000000000000000000000000000000000\n      dup2\n      mstore\n      0x04\n      add\n      tag_144\n      swap1\n      tag_98\n      jump\t// in\n    tag_144:\n      mload(0x40)\n      dup1\n      swap2\n      sub\n      swap1\n      revert\n    tag_143:\n        /* \"customContracts/MultiSigWallet.sol\":6654:6662  _txIndex */\n      dup2\n        /* \"customContracts/MultiSigWallet.sol\":3897:3909  transactions */\n      0x04\n        /* \"customContracts/MultiSigWallet.sol\":3910:3918  _txIndex */\n      dup2\n        /* \"customContracts/MultiSigWallet.sol\":3897:3919  transactions[_txIndex] */\n      dup2\n      sload\n      dup2\n      lt\n      tag_146\n      jumpi\n      tag_147\n      tag_102\n      jump\t// in\n    tag_147:\n    tag_146:\n      swap1\n      0x00\n      mstore\n      keccak256(0x00, 0x20)\n      swap1\n      0x05\n      mul\n      add\n        /* \"customContracts/MultiSigWallet.sol\":3897:3928  transactions[_txIndex].executed */\n      0x03\n      add\n      0x00\n      swap1\n      sload\n      swap1\n      0x0100\n      exp\n      swap1\n      div\n      0xff\n      and\n        /* \"customContracts/MultiSigWallet.sol\":3896:3928  !transactions[_txIndex].executed */\n      iszero\n        /* \"customContracts/MultiSigWallet.sol\":3888:3952  require(!transactions[_txIndex].executed, \"tx already executed\") */\n      tag_149\n      jumpi\n      mload(0x40)\n      0x08c379a000000000000000000000000000000000000000000000000000000000\n      dup2\n      mstore\n      0x04\n      add\n      tag_150\n      swap1\n      tag_106\n      jump\t// in\n    tag_150:\n      mload(0x40)\n      dup1\n      swap2\n      sub\n      swap1\n      revert\n    tag_149:\n        /* \"customContracts/MultiSigWallet.sol\":6677:6685  _txIndex */\n      dup3\n        /* \"customContracts/MultiSigWallet.sol\":4131:4142  isConfirmed */\n      0x03\n        /* \"customContracts/MultiSigWallet.sol\":4131:4152  isConfirmed[_txIndex] */\n      0x00\n        /* \"customContracts/MultiSigWallet.sol\":4143:4151  _txIndex */\n      dup3\n        /* \"customContracts/MultiSigWallet.sol\":4131:4152  isConfirmed[_txIndex] */\n      dup2\n      mstore\n      0x20\n      add\n      swap1\n      dup2\n      mstore\n      0x20\n      add\n      0x00\n      keccak256\n        /* \"customContracts/MultiSigWallet.sol\":4131:4164  isConfirmed[_txIndex][msg.sender] */\n      0x00\n        /* \"customContracts/MultiSigWallet.sol\":4153:4163  msg.sender */\n      caller\n        /* \"customContracts/MultiSigWallet.sol\":4131:4164  isConfirmed[_txIndex][msg.sender] */\n      0xffffffffffffffffffffffffffffffffffffffff\n      and\n      0xffffffffffffffffffffffffffffffffffffffff\n      and\n      dup2\n      mstore\n      0x20\n      add\n      swap1\n      dup2\n      mstore\n      0x20\n      add\n      0x00\n      keccak256\n      0x00\n      swap1\n      sload\n      swap1\n      0x0100\n      exp\n      swap1\n      div\n      0xff\n      and\n        /* \"customContracts/MultiSigWallet.sol\":4130:4164  !isConfirmed[_txIndex][msg.sender] */\n      iszero\n        /* \"customContracts/MultiSigWallet.sol\":4122:4189  require(!isConfirmed[_txIndex][msg.sender], \"tx already confirmed\") */\n      tag_152\n      jumpi\n      mload(0x40)\n      0x08c379a000000000000000000000000000000000000000000000000000000000\n      dup2\n      mstore\n      0x04\n      add\n      tag_153\n      swap1\n      tag_154\n      jump\t// in\n    tag_153:\n      mload(0x40)\n      dup1\n      swap2\n      sub\n      swap1\n      revert\n    tag_152:\n        /* \"customContracts/MultiSigWallet.sol\":6698:6729  Transaction storage transaction */\n      0x00\n        /* \"customContracts/MultiSigWallet.sol\":6732:6744  transactions */\n      0x04\n        /* \"customContracts/MultiSigWallet.sol\":6745:6753  _txIndex */\n      dup6\n        /* \"customContracts/MultiSigWallet.sol\":6732:6754  transactions[_txIndex] */\n      dup2\n      sload\n      dup2\n      lt\n      tag_156\n      jumpi\n      tag_157\n      tag_102\n      jump\t// in\n    tag_157:\n    tag_156:\n      swap1\n      0x00\n      mstore\n      keccak256(0x00, 0x20)\n      swap1\n      0x05\n      mul\n      add\n        /* \"customContracts/MultiSigWallet.sol\":6698:6754  Transaction storage transaction = transactions[_txIndex] */\n      swap1\n      pop\n        /* \"customContracts/MultiSigWallet.sol\":6797:6798  1 */\n      0x01\n        /* \"customContracts/MultiSigWallet.sol\":6765:6776  transaction */\n      dup2\n        /* \"customContracts/MultiSigWallet.sol\":6765:6793  transaction.numConfirmations */\n      0x04\n      add\n      0x00\n        /* \"customContracts/MultiSigWallet.sol\":6765:6798  transaction.numConfirmations += 1 */\n      dup3\n      dup3\n      sload\n      tag_159\n      swap2\n      swap1\n      tag_160\n      jump\t// in\n    tag_159:\n      swap3\n      pop\n      pop\n      dup2\n      swap1\n      sstore\n      pop\n        /* \"customContracts/MultiSigWallet.sol\":6845:6849  true */\n      0x01\n        /* \"customContracts/MultiSigWallet.sol\":6809:6820  isConfirmed */\n      0x03\n        /* \"customContracts/MultiSigWallet.sol\":6809:6830  isConfirmed[_txIndex] */\n      0x00\n        /* \"customContracts/MultiSigWallet.sol\":6821:6829  _txIndex */\n      dup8\n        /* \"customContracts/MultiSigWallet.sol\":6809:6830  isConfirmed[_txIndex] */\n      dup2\n      mstore\n      0x20\n      add\n      swap1\n      dup2\n      mstore\n      0x20\n      add\n      0x00\n      keccak256\n        /* \"customContracts/MultiSigWallet.sol\":6809:6842  isConfirmed[_txIndex][msg.sender] */\n      0x00\n        /* \"customContracts/MultiSigWallet.sol\":6831:6841  msg.sender */\n      caller\n        /* \"customContracts/MultiSigWallet.sol\":6809:6842  isConfirmed[_txIndex][msg.sender] */\n      0xffffffffffffffffffffffffffffffffffffffff\n      and\n      0xffffffffffffffffffffffffffffffffffffffff\n      and\n      dup2\n      mstore\n      0x20\n      add\n      swap1\n      dup2\n      mstore\n      0x20\n      add\n      0x00\n      keccak256\n      0x00\n        /* \"customContracts/MultiSigWallet.sol\":6809:6849  isConfirmed[_txIndex][msg.sender] = true */\n      0x0100\n      exp\n      dup2\n      sload\n      dup2\n      0xff\n      mul\n      not\n      and\n      swap1\n      dup4\n      iszero\n      iszero\n      mul\n      or\n      swap1\n      sstore\n      pop\n        /* \"customContracts/MultiSigWallet.sol\":6896:6904  _txIndex */\n      dup5\n        /* \"customContracts/MultiSigWallet.sol\":6884:6894  msg.sender */\n      caller\n        /* \"customContracts/MultiSigWallet.sol\":6865:6905  ConfirmTransaction(msg.sender, _txIndex) */\n      0xffffffffffffffffffffffffffffffffffffffff\n      and\n      0x5cbe105e36805f7820e291f799d5794ff948af2a5f664e580382defb63390041\n      mload(0x40)\n      mload(0x40)\n      dup1\n      swap2\n      sub\n      swap1\n      log3\n        /* \"customContracts/MultiSigWallet.sol\":6687:6913  {... */\n      pop\n        /* \"customContracts/MultiSigWallet.sol\":3963:3964  _ */\n      pop\n        /* \"customContracts/MultiSigWallet.sol\":3732:3733  _ */\n      pop\n        /* \"customContracts/MultiSigWallet.sol\":3516:3517  _ */\n      pop\n        /* \"customContracts/MultiSigWallet.sol\":6563:6913  function confirmTransaction(uint _txIndex) public onlyOwner txExists(_txIndex) notExecuted(_txIndex) notConfirmed(_txIndex) {... */\n      pop\n      jump\t// out\n        /* \"customContracts/MultiSigWallet.sol\":5942:6403  function submitTransaction(address _to, uint _value, bytes memory _data) public onlyOwner {... */\n    tag_80:\n        /* \"customContracts/MultiSigWallet.sol\":3472:3479  isOwner */\n      0x01\n        /* \"customContracts/MultiSigWallet.sol\":3472:3491  isOwner[msg.sender] */\n      0x00\n        /* \"customContracts/MultiSigWallet.sol\":3480:3490  msg.sender */\n      caller\n        /* \"customContracts/MultiSigWallet.sol\":3472:3491  isOwner[msg.sender] */\n      0xffffffffffffffffffffffffffffffffffffffff\n      and\n      0xffffffffffffffffffffffffffffffffffffffff\n      and\n      dup2\n      mstore\n      0x20\n      add\n      swap1\n      dup2\n      mstore\n      0x20\n      add\n      0x00\n      keccak256\n      0x00\n      swap1\n      sload\n      swap1\n      0x0100\n      exp\n      swap1\n      div\n      0xff\n      and\n        /* \"customContracts/MultiSigWallet.sol\":3464:3505  require(isOwner[msg.sender], \"not owner\") */\n      tag_162\n      jumpi\n      mload(0x40)\n      0x08c379a000000000000000000000000000000000000000000000000000000000\n      dup2\n      mstore\n      0x04\n      add\n      tag_163\n      swap1\n      tag_94\n      jump\t// in\n    tag_163:\n      mload(0x40)\n      dup1\n      swap2\n      sub\n      swap1\n      revert\n    tag_162:\n        /* \"customContracts/MultiSigWallet.sol\":6043:6055  uint txIndex */\n      0x00\n        /* \"customContracts/MultiSigWallet.sol\":6058:6070  transactions */\n      0x04\n        /* \"customContracts/MultiSigWallet.sol\":6058:6077  transactions.length */\n      dup1\n      sload\n      swap1\n      pop\n        /* \"customContracts/MultiSigWallet.sol\":6043:6077  uint txIndex = transactions.length */\n      swap1\n      pop\n        /* \"customContracts/MultiSigWallet.sol\":6088:6100  transactions */\n      0x04\n        /* \"customContracts/MultiSigWallet.sol\":6106:6318  Transaction(... */\n      mload(0x40)\n      dup1\n      0xa0\n      add\n      0x40\n      mstore\n      dup1\n        /* \"customContracts/MultiSigWallet.sol\":6155:6158  _to */\n      dup7\n        /* \"customContracts/MultiSigWallet.sol\":6106:6318  Transaction(... */\n      0xffffffffffffffffffffffffffffffffffffffff\n      and\n      dup2\n      mstore\n      0x20\n      add\n        /* \"customContracts/MultiSigWallet.sol\":6184:6190  _value */\n      dup6\n        /* \"customContracts/MultiSigWallet.sol\":6106:6318  Transaction(... */\n      dup2\n      mstore\n      0x20\n      add\n        /* \"customContracts/MultiSigWallet.sol\":6215:6220  _data */\n      dup5\n        /* \"customContracts/MultiSigWallet.sol\":6106:6318  Transaction(... */\n      dup2\n      mstore\n      0x20\n      add\n        /* \"customContracts/MultiSigWallet.sol\":6249:6254  false */\n      0x00\n        /* \"customContracts/MultiSigWallet.sol\":6106:6318  Transaction(... */\n      iszero\n      iszero\n      dup2\n      mstore\n      0x20\n      add\n        /* \"customContracts/MultiSigWallet.sol\":6291:6292  0 */\n      0x00\n        /* \"customContracts/MultiSigWallet.sol\":6106:6318  Transaction(... */\n      dup2\n      mstore\n      pop\n        /* \"customContracts/MultiSigWallet.sol\":6088:6319  transactions.push(Transaction(... */\n      swap1\n      dup1\n      0x01\n      dup2\n      sload\n      add\n      dup1\n      dup3\n      sstore\n      dup1\n      swap2\n      pop\n      pop\n      0x01\n      swap1\n      sub\n      swap1\n      0x00\n      mstore\n      keccak256(0x00, 0x20)\n      swap1\n      0x05\n      mul\n      add\n      0x00\n      swap1\n      swap2\n      swap1\n      swap2\n      swap1\n      swap2\n      pop\n      0x00\n      dup3\n      add\n      mload\n      dup2\n      0x00\n      add\n      exp(0x0100, 0x00)\n      dup2\n      sload\n      dup2\n      0xffffffffffffffffffffffffffffffffffffffff\n      mul\n      not\n      and\n      swap1\n      dup4\n      0xffffffffffffffffffffffffffffffffffffffff\n      and\n      mul\n      or\n      swap1\n      sstore\n      pop\n      0x20\n      dup3\n      add\n      mload\n      dup2\n      0x01\n      add\n      sstore\n      0x40\n      dup3\n      add\n      mload\n      dup2\n      0x02\n      add\n      swap1\n      dup2\n      tag_166\n      swap2\n      swap1\n      tag_167\n      jump\t// in\n    tag_166:\n      pop\n      0x60\n      dup3\n      add\n      mload\n      dup2\n      0x03\n      add\n      exp(0x0100, 0x00)\n      dup2\n      sload\n      dup2\n      0xff\n      mul\n      not\n      and\n      swap1\n      dup4\n      iszero\n      iszero\n      mul\n      or\n      swap1\n      sstore\n      pop\n      0x80\n      dup3\n      add\n      mload\n      dup2\n      0x04\n      add\n      sstore\n      pop\n      pop\n        /* \"customContracts/MultiSigWallet.sol\":6376:6379  _to */\n      dup4\n        /* \"customContracts/MultiSigWallet.sol\":6337:6395  SubmitTransaction(msg.sender, txIndex, _to, _value, _data) */\n      0xffffffffffffffffffffffffffffffffffffffff\n      and\n        /* \"customContracts/MultiSigWallet.sol\":6367:6374  txIndex */\n      dup2\n        /* \"customContracts/MultiSigWallet.sol\":6355:6365  msg.sender */\n      caller\n        /* \"customContracts/MultiSigWallet.sol\":6337:6395  SubmitTransaction(msg.sender, txIndex, _to, _value, _data) */\n      0xffffffffffffffffffffffffffffffffffffffff\n      and\n      0xd5a05bf70715ad82a09a756320284a1b54c9ff74cd0f8cce6219e79b563fe59d\n        /* \"customContracts/MultiSigWallet.sol\":6381:6387  _value */\n      dup7\n        /* \"customContracts/MultiSigWallet.sol\":6389:6394  _data */\n      dup7\n        /* \"customContracts/MultiSigWallet.sol\":6337:6395  SubmitTransaction(msg.sender, txIndex, _to, _value, _data) */\n      mload(0x40)\n      tag_168\n      swap3\n      swap2\n      swap1\n      tag_169\n      jump\t// in\n    tag_168:\n      mload(0x40)\n      dup1\n      swap2\n      sub\n      swap1\n      log4\n        /* \"customContracts/MultiSigWallet.sol\":6032:6403  {... */\n      pop\n        /* \"customContracts/MultiSigWallet.sol\":5942:6403  function submitTransaction(address _to, uint _value, bytes memory _data) public onlyOwner {... */\n      pop\n      pop\n      pop\n      jump\t// out\n        /* \"customContracts/MultiSigWallet.sol\":2441:2477  uint public numConfirmationsRequired */\n    tag_83:\n      sload(0x02)\n      dup2\n      jump\t// out\n        /* \"customContracts/MultiSigWallet.sol\":7071:7571  function executeTransaction(uint _txIndex) public onlyOwner txExists(_txIndex) notExecuted(_txIndex) {... */\n    tag_88:\n        /* \"customContracts/MultiSigWallet.sol\":3472:3479  isOwner */\n      0x01\n        /* \"customContracts/MultiSigWallet.sol\":3472:3491  isOwner[msg.sender] */\n      0x00\n        /* \"customContracts/MultiSigWallet.sol\":3480:3490  msg.sender */\n      caller\n        /* \"customContracts/MultiSigWallet.sol\":3472:3491  isOwner[msg.sender] */\n      0xffffffffffffffffffffffffffffffffffffffff\n      and\n      0xffffffffffffffffffffffffffffffffffffffff\n      and\n      dup2\n      mstore\n      0x20\n      add\n      swap1\n      dup2\n      mstore\n      0x20\n      add\n      0x00\n      keccak256\n      0x00\n      swap1\n      sload\n      swap1\n      0x0100\n      exp\n      swap1\n      div\n      0xff\n      and\n        /* \"customContracts/MultiSigWallet.sol\":3464:3505  require(isOwner[msg.sender], \"not owner\") */\n      tag_171\n      jumpi\n      mload(0x40)\n      0x08c379a000000000000000000000000000000000000000000000000000000000\n      dup2\n      mstore\n      0x04\n      add\n      tag_172\n      swap1\n      tag_94\n      jump\t// in\n    tag_172:\n      mload(0x40)\n      dup1\n      swap2\n      sub\n      swap1\n      revert\n    tag_171:\n        /* \"customContracts/MultiSigWallet.sol\":7140:7148  _txIndex */\n      dup1\n        /* \"customContracts/MultiSigWallet.sol\":3680:3692  transactions */\n      0x04\n        /* \"customContracts/MultiSigWallet.sol\":3680:3699  transactions.length */\n      dup1\n      sload\n      swap1\n      pop\n        /* \"customContracts/MultiSigWallet.sol\":3669:3677  _txIndex */\n      dup2\n        /* \"customContracts/MultiSigWallet.sol\":3669:3699  _txIndex < transactions.length */\n      lt\n        /* \"customContracts/MultiSigWallet.sol\":3661:3721  require(_txIndex < transactions.length, \"tx does not exist\") */\n      tag_174\n      jumpi\n      mload(0x40)\n      0x08c379a000000000000000000000000000000000000000000000000000000000\n      dup2\n      mstore\n      0x04\n      add\n      tag_175\n      swap1\n      tag_98\n      jump\t// in\n    tag_175:\n      mload(0x40)\n      dup1\n      swap2\n      sub\n      swap1\n      revert\n    tag_174:\n        /* \"customContracts/MultiSigWallet.sol\":7162:7170  _txIndex */\n      dup2\n        /* \"customContracts/MultiSigWallet.sol\":3897:3909  transactions */\n      0x04\n        /* \"customContracts/MultiSigWallet.sol\":3910:3918  _txIndex */\n      dup2\n        /* \"customContracts/MultiSigWallet.sol\":3897:3919  transactions[_txIndex] */\n      dup2\n      sload\n      dup2\n      lt\n      tag_177\n      jumpi\n      tag_178\n      tag_102\n      jump\t// in\n    tag_178:\n    tag_177:\n      swap1\n      0x00\n      mstore\n      keccak256(0x00, 0x20)\n      swap1\n      0x05\n      mul\n      add\n        /* \"customContracts/MultiSigWallet.sol\":3897:3928  transactions[_txIndex].executed */\n      0x03\n      add\n      0x00\n      swap1\n      sload\n      swap1\n      0x0100\n      exp\n      swap1\n      div\n      0xff\n      and\n        /* \"customContracts/MultiSigWallet.sol\":3896:3928  !transactions[_txIndex].executed */\n      iszero\n        /* \"customContracts/MultiSigWallet.sol\":3888:3952  require(!transactions[_txIndex].executed, \"tx already executed\") */\n      tag_180\n      jumpi\n      mload(0x40)\n      0x08c379a000000000000000000000000000000000000000000000000000000000\n      dup2\n      mstore\n      0x04\n      add\n      tag_181\n      swap1\n      tag_106\n      jump\t// in\n    tag_181:\n      mload(0x40)\n      dup1\n      swap2\n      sub\n      swap1\n      revert\n    tag_180:\n        /* \"customContracts/MultiSigWallet.sol\":7183:7214  Transaction storage transaction */\n      0x00\n        /* \"customContracts/MultiSigWallet.sol\":7217:7229  transactions */\n      0x04\n        /* \"customContracts/MultiSigWallet.sol\":7230:7238  _txIndex */\n      dup5\n        /* \"customContracts/MultiSigWallet.sol\":7217:7239  transactions[_txIndex] */\n      dup2\n      sload\n      dup2\n      lt\n      tag_183\n      jumpi\n      tag_184\n      tag_102\n      jump\t// in\n    tag_184:\n    tag_183:\n      swap1\n      0x00\n      mstore\n      keccak256(0x00, 0x20)\n      swap1\n      0x05\n      mul\n      add\n        /* \"customContracts/MultiSigWallet.sol\":7183:7239  Transaction storage transaction = transactions[_txIndex] */\n      swap1\n      pop\n        /* \"customContracts/MultiSigWallet.sol\":7290:7314  numConfirmationsRequired */\n      sload(0x02)\n        /* \"customContracts/MultiSigWallet.sol\":7258:7269  transaction */\n      dup2\n        /* \"customContracts/MultiSigWallet.sol\":7258:7286  transaction.numConfirmations */\n      0x04\n      add\n      sload\n        /* \"customContracts/MultiSigWallet.sol\":7258:7314  transaction.numConfirmations >= numConfirmationsRequired */\n      lt\n      iszero\n        /* \"customContracts/MultiSigWallet.sol\":7250:7336  require(transaction.numConfirmations >= numConfirmationsRequired, \"cannot execute tx\") */\n      tag_186\n      jumpi\n      mload(0x40)\n      0x08c379a000000000000000000000000000000000000000000000000000000000\n      dup2\n      mstore\n      0x04\n      add\n      tag_187\n      swap1\n      tag_188\n      jump\t// in\n    tag_187:\n      mload(0x40)\n      dup1\n      swap2\n      sub\n      swap1\n      revert\n    tag_186:\n        /* \"customContracts/MultiSigWallet.sol\":7370:7374  true */\n      0x01\n        /* \"customContracts/MultiSigWallet.sol\":7347:7358  transaction */\n      dup2\n        /* \"customContracts/MultiSigWallet.sol\":7347:7367  transaction.executed */\n      0x03\n      add\n      0x00\n        /* \"customContracts/MultiSigWallet.sol\":7347:7374  transaction.executed = true */\n      0x0100\n      exp\n      dup2\n      sload\n      dup2\n      0xff\n      mul\n      not\n      and\n      swap1\n      dup4\n      iszero\n      iszero\n      mul\n      or\n      swap1\n      sstore\n      pop\n        /* \"customContracts/MultiSigWallet.sol\":7386:7398  bool success */\n      0x00\n        /* \"customContracts/MultiSigWallet.sol\":7403:7414  transaction */\n      dup2\n        /* \"customContracts/MultiSigWallet.sol\":7403:7417  transaction.to */\n      0x00\n      add\n      0x00\n      swap1\n      sload\n      swap1\n      0x0100\n      exp\n      swap1\n      div\n      0xffffffffffffffffffffffffffffffffffffffff\n      and\n        /* \"customContracts/MultiSigWallet.sol\":7403:7422  transaction.to.call */\n      0xffffffffffffffffffffffffffffffffffffffff\n      and\n        /* \"customContracts/MultiSigWallet.sol\":7430:7441  transaction */\n      dup3\n        /* \"customContracts/MultiSigWallet.sol\":7430:7447  transaction.value */\n      0x01\n      add\n      sload\n        /* \"customContracts/MultiSigWallet.sol\":7449:7460  transaction */\n      dup4\n        /* \"customContracts/MultiSigWallet.sol\":7449:7465  transaction.data */\n      0x02\n      add\n        /* \"customContracts/MultiSigWallet.sol\":7403:7466  transaction.to.call{value: transaction.value}(transaction.data) */\n      mload(0x40)\n      tag_189\n      swap2\n      swap1\n      tag_190\n      jump\t// in\n    tag_189:\n      0x00\n      mload(0x40)\n      dup1\n      dup4\n      sub\n      dup2\n      dup6\n      dup8\n      gas\n      call\n      swap3\n      pop\n      pop\n      pop\n      returndatasize\n      dup1\n      0x00\n      dup2\n      eq\n      tag_193\n      jumpi\n      mload(0x40)\n      swap2\n      pop\n      and(add(returndatasize, 0x3f), not(0x1f))\n      dup3\n      add\n      0x40\n      mstore\n      returndatasize\n      dup3\n      mstore\n      returndatasize\n      0x00\n      0x20\n      dup5\n      add\n      returndatacopy\n      jump(tag_192)\n    tag_193:\n      0x60\n      swap2\n      pop\n    tag_192:\n      pop\n        /* \"customContracts/MultiSigWallet.sol\":7385:7466  (bool success,) = transaction.to.call{value: transaction.value}(transaction.data) */\n      pop\n      swap1\n      pop\n        /* \"customContracts/MultiSigWallet.sol\":7485:7492  success */\n      dup1\n        /* \"customContracts/MultiSigWallet.sol\":7477:7505  require(success,\"tx failed\") */\n      tag_194\n      jumpi\n      mload(0x40)\n      0x08c379a000000000000000000000000000000000000000000000000000000000\n      dup2\n      mstore\n      0x04\n      add\n      tag_195\n      swap1\n      tag_196\n      jump\t// in\n    tag_195:\n      mload(0x40)\n      dup1\n      swap2\n      sub\n      swap1\n      revert\n    tag_194:\n        /* \"customContracts/MultiSigWallet.sol\":7552:7560  _txIndex */\n      dup5\n        /* \"customContracts/MultiSigWallet.sol\":7540:7550  msg.sender */\n      caller\n        /* \"customContracts/MultiSigWallet.sol\":7521:7561  ExecuteTransaction(msg.sender, _txIndex) */\n      0xffffffffffffffffffffffffffffffffffffffff\n      and\n      0x5445f318f4f5fcfb66592e68e0cc5822aa15664039bd5f0ffde24c5a8142b1ac\n      mload(0x40)\n      mload(0x40)\n      dup1\n      swap2\n      sub\n      swap1\n      log3\n        /* \"customContracts/MultiSigWallet.sol\":7172:7571  {... */\n      pop\n      pop\n        /* \"customContracts/MultiSigWallet.sol\":3732:3733  _ */\n      pop\n        /* \"customContracts/MultiSigWallet.sol\":3516:3517  _ */\n      pop\n        /* \"customContracts/MultiSigWallet.sol\":7071:7571  function executeTransaction(uint _txIndex) public onlyOwner txExists(_txIndex) notExecuted(_txIndex) {... */\n      pop\n      jump\t// out\n        /* \"#utility.yul\":7:84   */\n    tag_197:\n        /* \"#utility.yul\":44:51   */\n      0x00\n        /* \"#utility.yul\":73:78   */\n      dup2\n        /* \"#utility.yul\":62:78   */\n      swap1\n      pop\n        /* \"#utility.yul\":7:84   */\n      swap2\n      swap1\n      pop\n      jump\t// out\n        /* \"#utility.yul\":90:208   */\n    tag_198:\n        /* \"#utility.yul\":177:201   */\n      tag_269\n        /* \"#utility.yul\":195:200   */\n      dup2\n        /* \"#utility.yul\":177:201   */\n      tag_197\n      jump\t// in\n    tag_269:\n        /* \"#utility.yul\":172:175   */\n      dup3\n        /* \"#utility.yul\":165:202   */\n      mstore\n        /* \"#utility.yul\":90:208   */\n      pop\n      pop\n      jump\t// out\n        /* \"#utility.yul\":214:546   */\n    tag_21:\n        /* \"#utility.yul\":335:339   */\n      0x00\n        /* \"#utility.yul\":373:375   */\n      0x40\n        /* \"#utility.yul\":362:371   */\n      dup3\n        /* \"#utility.yul\":358:376   */\n      add\n        /* \"#utility.yul\":350:376   */\n      swap1\n      pop\n        /* \"#utility.yul\":386:457   */\n      tag_271\n        /* \"#utility.yul\":454:455   */\n      0x00\n        /* \"#utility.yul\":443:452   */\n      dup4\n        /* \"#utility.yul\":439:456   */\n      add\n        /* \"#utility.yul\":430:436   */\n      dup6\n        /* \"#utility.yul\":386:457   */\n      tag_198\n      jump\t// in\n    tag_271:\n        /* \"#utility.yul\":467:539   */\n      tag_272\n        /* \"#utility.yul\":535:537   */\n      0x20\n        /* \"#utility.yul\":524:533   */\n      dup4\n        /* \"#utility.yul\":520:538   */\n      add\n        /* \"#utility.yul\":511:517   */\n      dup5\n        /* \"#utility.yul\":467:539   */\n      tag_198\n      jump\t// in\n    tag_272:\n        /* \"#utility.yul\":214:546   */\n      swap4\n      swap3\n      pop\n      pop\n      pop\n      jump\t// out\n        /* \"#utility.yul\":552:627   */\n    tag_199:\n        /* \"#utility.yul\":585:591   */\n      0x00\n        /* \"#utility.yul\":618:620   */\n      0x40\n        /* \"#utility.yul\":612:621   */\n      mload\n        /* \"#utility.yul\":602:621   */\n      swap1\n      pop\n        /* \"#utility.yul\":552:627   */\n      swap1\n      jump\t// out\n        /* \"#utility.yul\":633:750   */\n    tag_200:\n        /* \"#utility.yul\":742:743   */\n      0x00\n        /* \"#utility.yul\":739:740   */\n      dup1\n        /* \"#utility.yul\":732:744   */\n      revert\n        /* \"#utility.yul\":756:873   */\n    tag_201:\n        /* \"#utility.yul\":865:866   */\n      0x00\n        /* \"#utility.yul\":862:863   */\n      dup1\n        /* \"#utility.yul\":855:867   */\n      revert\n        /* \"#utility.yul\":879:1001   */\n    tag_202:\n        /* \"#utility.yul\":952:976   */\n      tag_277\n        /* \"#utility.yul\":970:975   */\n      dup2\n        /* \"#utility.yul\":952:976   */\n      tag_197\n      jump\t// in\n    tag_277:\n        /* \"#utility.yul\":945:950   */\n      dup2\n        /* \"#utility.yul\":942:977   */\n      eq\n        /* \"#utility.yul\":932:995   */\n      tag_278\n      jumpi\n        /* \"#utility.yul\":991:992   */\n      0x00\n        /* \"#utility.yul\":988:989   */\n      dup1\n        /* \"#utility.yul\":981:993   */\n      revert\n        /* \"#utility.yul\":932:995   */\n    tag_278:\n        /* \"#utility.yul\":879:1001   */\n      pop\n      jump\t// out\n        /* \"#utility.yul\":1007:1146   */\n    tag_203:\n        /* \"#utility.yul\":1053:1058   */\n      0x00\n        /* \"#utility.yul\":1091:1097   */\n      dup2\n        /* \"#utility.yul\":1078:1098   */\n      calldataload\n        /* \"#utility.yul\":1069:1098   */\n      swap1\n      pop\n        /* \"#utility.yul\":1107:1140   */\n      tag_280\n        /* \"#utility.yul\":1134:1139   */\n      dup2\n        /* \"#utility.yul\":1107:1140   */\n      tag_202\n      jump\t// in\n    tag_280:\n        /* \"#utility.yul\":1007:1146   */\n      swap3\n      swap2\n      pop\n      pop\n      jump\t// out\n        /* \"#utility.yul\":1152:1481   */\n    tag_25:\n        /* \"#utility.yul\":1211:1217   */\n      0x00\n        /* \"#utility.yul\":1260:1262   */\n      0x20\n        /* \"#utility.yul\":1248:1257   */\n      dup3\n        /* \"#utility.yul\":1239:1246   */\n      dup5\n        /* \"#utility.yul\":1235:1258   */\n      sub\n        /* \"#utility.yul\":1231:1263   */\n      slt\n        /* \"#utility.yul\":1228:1347   */\n      iszero\n      tag_282\n      jumpi\n        /* \"#utility.yul\":1266:1345   */\n      tag_283\n      tag_200\n      jump\t// in\n    tag_283:\n        /* \"#utility.yul\":1228:1347   */\n    tag_282:\n        /* \"#utility.yul\":1386:1387   */\n      0x00\n        /* \"#utility.yul\":1411:1464   */\n      tag_284\n        /* \"#utility.yul\":1456:1463   */\n      dup5\n        /* \"#utility.yul\":1447:1453   */\n      dup3\n        /* \"#utility.yul\":1436:1445   */\n      dup6\n        /* \"#utility.yul\":1432:1454   */\n      add\n        /* \"#utility.yul\":1411:1464   */\n      tag_203\n      jump\t// in\n    tag_284:\n        /* \"#utility.yul\":1401:1464   */\n      swap2\n      pop\n        /* \"#utility.yul\":1357:1474   */\n      pop\n        /* \"#utility.yul\":1152:1481   */\n      swap3\n      swap2\n      pop\n      pop\n      jump\t// out\n        /* \"#utility.yul\":1487:1613   */\n    tag_204:\n        /* \"#utility.yul\":1524:1531   */\n      0x00\n        /* \"#utility.yul\":1564:1606   */\n      0xffffffffffffffffffffffffffffffffffffffff\n        /* \"#utility.yul\":1557:1562   */\n      dup3\n        /* \"#utility.yul\":1553:1607   */\n      and\n        /* \"#utility.yul\":1542:1607   */\n      swap1\n      pop\n        /* \"#utility.yul\":1487:1613   */\n      swap2\n      swap1\n      pop\n      jump\t// out\n        /* \"#utility.yul\":1619:1715   */\n    tag_205:\n        /* \"#utility.yul\":1656:1663   */\n      0x00\n        /* \"#utility.yul\":1685:1709   */\n      tag_287\n        /* \"#utility.yul\":1703:1708   */\n      dup3\n        /* \"#utility.yul\":1685:1709   */\n      tag_204\n      jump\t// in\n    tag_287:\n        /* \"#utility.yul\":1674:1709   */\n      swap1\n      pop\n        /* \"#utility.yul\":1619:1715   */\n      swap2\n      swap1\n      pop\n      jump\t// out\n        /* \"#utility.yul\":1721:1839   */\n    tag_206:\n        /* \"#utility.yul\":1808:1832   */\n      tag_289\n        /* \"#utility.yul\":1826:1831   */\n      dup2\n        /* \"#utility.yul\":1808:1832   */\n      tag_205\n      jump\t// in\n    tag_289:\n        /* \"#utility.yul\":1803:1806   */\n      dup3\n        /* \"#utility.yul\":1796:1833   */\n      mstore\n        /* \"#utility.yul\":1721:1839   */\n      pop\n      pop\n      jump\t// out\n        /* \"#utility.yul\":1845:2067   */\n    tag_28:\n        /* \"#utility.yul\":1938:1942   */\n      0x00\n        /* \"#utility.yul\":1976:1978   */\n      0x20\n        /* \"#utility.yul\":1965:1974   */\n      dup3\n        /* \"#utility.yul\":1961:1979   */\n      add\n        /* \"#utility.yul\":1953:1979   */\n      swap1\n      pop\n        /* \"#utility.yul\":1989:2060   */\n      tag_291\n        /* \"#utility.yul\":2057:2058   */\n      0x00\n        /* \"#utility.yul\":2046:2055   */\n      dup4\n        /* \"#utility.yul\":2042:2059   */\n      add\n        /* \"#utility.yul\":2033:2039   */\n      dup5\n        /* \"#utility.yul\":1989:2060   */\n      tag_206\n      jump\t// in\n    tag_291:\n        /* \"#utility.yul\":1845:2067   */\n      swap3\n      swap2\n      pop\n      pop\n      jump\t// out\n        /* \"#utility.yul\":2073:2295   */\n    tag_37:\n        /* \"#utility.yul\":2166:2170   */\n      0x00\n        /* \"#utility.yul\":2204:2206   */\n      0x20\n        /* \"#utility.yul\":2193:2202   */\n      dup3\n        /* \"#utility.yul\":2189:2207   */\n      add\n        /* \"#utility.yul\":2181:2207   */\n      swap1\n      pop\n        /* \"#utility.yul\":2217:2288   */\n      tag_293\n        /* \"#utility.yul\":2285:2286   */\n      0x00\n        /* \"#utility.yul\":2274:2283   */\n      dup4\n        /* \"#utility.yul\":2270:2287   */\n      add\n        /* \"#utility.yul\":2261:2267   */\n      dup5\n        /* \"#utility.yul\":2217:2288   */\n      tag_198\n      jump\t// in\n    tag_293:\n        /* \"#utility.yul\":2073:2295   */\n      swap3\n      swap2\n      pop\n      pop\n      jump\t// out\n        /* \"#utility.yul\":2301:2423   */\n    tag_207:\n        /* \"#utility.yul\":2374:2398   */\n      tag_295\n        /* \"#utility.yul\":2392:2397   */\n      dup2\n        /* \"#utility.yul\":2374:2398   */\n      tag_205\n      jump\t// in\n    tag_295:\n        /* \"#utility.yul\":2367:2372   */\n      dup2\n        /* \"#utility.yul\":2364:2399   */\n      eq\n        /* \"#utility.yul\":2354:2417   */\n      tag_296\n      jumpi\n        /* \"#utility.yul\":2413:2414   */\n      0x00\n        /* \"#utility.yul\":2410:2411   */\n      dup1\n        /* \"#utility.yul\":2403:2415   */\n      revert\n        /* \"#utility.yul\":2354:2417   */\n    tag_296:\n        /* \"#utility.yul\":2301:2423   */\n      pop\n      jump\t// out\n        /* \"#utility.yul\":2429:2568   */\n    tag_208:\n        /* \"#utility.yul\":2475:2480   */\n      0x00\n        /* \"#utility.yul\":2513:2519   */\n      dup2\n        /* \"#utility.yul\":2500:2520   */\n      calldataload\n        /* \"#utility.yul\":2491:2520   */\n      swap1\n      pop\n        /* \"#utility.yul\":2529:2562   */\n      tag_298\n        /* \"#utility.yul\":2556:2561   */\n      dup2\n        /* \"#utility.yul\":2529:2562   */\n      tag_207\n      jump\t// in\n    tag_298:\n        /* \"#utility.yul\":2429:2568   */\n      swap3\n      swap2\n      pop\n      pop\n      jump\t// out\n        /* \"#utility.yul\":2574:2903   */\n    tag_41:\n        /* \"#utility.yul\":2633:2639   */\n      0x00\n        /* \"#utility.yul\":2682:2684   */\n      0x20\n        /* \"#utility.yul\":2670:2679   */\n      dup3\n        /* \"#utility.yul\":2661:2668   */\n      dup5\n        /* \"#utility.yul\":2657:2680   */\n      sub\n        /* \"#utility.yul\":2653:2685   */\n      slt\n        /* \"#utility.yul\":2650:2769   */\n      iszero\n      tag_300\n      jumpi\n        /* \"#utility.yul\":2688:2767   */\n      tag_301\n      tag_200\n      jump\t// in\n    tag_301:\n        /* \"#utility.yul\":2650:2769   */\n    tag_300:\n        /* \"#utility.yul\":2808:2809   */\n      0x00\n        /* \"#utility.yul\":2833:2886   */\n      tag_302\n        /* \"#utility.yul\":2878:2885   */\n      dup5\n        /* \"#utility.yul\":2869:2875   */\n      dup3\n        /* \"#utility.yul\":2858:2867   */\n      dup6\n        /* \"#utility.yul\":2854:2876   */\n      add\n        /* \"#utility.yul\":2833:2886   */\n      tag_208\n      jump\t// in\n    tag_302:\n        /* \"#utility.yul\":2823:2886   */\n      swap2\n      pop\n        /* \"#utility.yul\":2779:2896   */\n      pop\n        /* \"#utility.yul\":2574:2903   */\n      swap3\n      swap2\n      pop\n      pop\n      jump\t// out\n        /* \"#utility.yul\":2909:2999   */\n    tag_209:\n        /* \"#utility.yul\":2943:2950   */\n      0x00\n        /* \"#utility.yul\":2986:2991   */\n      dup2\n        /* \"#utility.yul\":2979:2992   */\n      iszero\n        /* \"#utility.yul\":2972:2993   */\n      iszero\n        /* \"#utility.yul\":2961:2993   */\n      swap1\n      pop\n        /* \"#utility.yul\":2909:2999   */\n      swap2\n      swap1\n      pop\n      jump\t// out\n        /* \"#utility.yul\":3005:3114   */\n    tag_210:\n        /* \"#utility.yul\":3086:3107   */\n      tag_305\n        /* \"#utility.yul\":3101:3106   */\n      dup2\n        /* \"#utility.yul\":3086:3107   */\n      tag_209\n      jump\t// in\n    tag_305:\n        /* \"#utility.yul\":3081:3084   */\n      dup3\n        /* \"#utility.yul\":3074:3108   */\n      mstore\n        /* \"#utility.yul\":3005:3114   */\n      pop\n      pop\n      jump\t// out\n        /* \"#utility.yul\":3120:3330   */\n    tag_44:\n        /* \"#utility.yul\":3207:3211   */\n      0x00\n        /* \"#utility.yul\":3245:3247   */\n      0x20\n        /* \"#utility.yul\":3234:3243   */\n      dup3\n        /* \"#utility.yul\":3230:3248   */\n      add\n        /* \"#utility.yul\":3222:3248   */\n      swap1\n      pop\n        /* \"#utility.yul\":3258:3323   */\n      tag_307\n        /* \"#utility.yul\":3320:3321   */\n      0x00\n        /* \"#utility.yul\":3309:3318   */\n      dup4\n        /* \"#utility.yul\":3305:3322   */\n      add\n        /* \"#utility.yul\":3296:3302   */\n      dup5\n        /* \"#utility.yul\":3258:3323   */\n      tag_210\n      jump\t// in\n    tag_307:\n        /* \"#utility.yul\":3120:3330   */\n      swap3\n      swap2\n      pop\n      pop\n      jump\t// out\n        /* \"#utility.yul\":3336:3434   */\n    tag_211:\n        /* \"#utility.yul\":3387:3393   */\n      0x00\n        /* \"#utility.yul\":3421:3426   */\n      dup2\n        /* \"#utility.yul\":3415:3427   */\n      mload\n        /* \"#utility.yul\":3405:3427   */\n      swap1\n      pop\n        /* \"#utility.yul\":3336:3434   */\n      swap2\n      swap1\n      pop\n      jump\t// out\n        /* \"#utility.yul\":3440:3608   */\n    tag_212:\n        /* \"#utility.yul\":3523:3534   */\n      0x00\n        /* \"#utility.yul\":3557:3563   */\n      dup3\n        /* \"#utility.yul\":3552:3555   */\n      dup3\n        /* \"#utility.yul\":3545:3564   */\n      mstore\n        /* \"#utility.yul\":3597:3601   */\n      0x20\n        /* \"#utility.yul\":3592:3595   */\n      dup3\n        /* \"#utility.yul\":3588:3602   */\n      add\n        /* \"#utility.yul\":3573:3602   */\n      swap1\n      pop\n        /* \"#utility.yul\":3440:3608   */\n      swap3\n      swap2\n      pop\n      pop\n      jump\t// out\n        /* \"#utility.yul\":3614:3860   */\n    tag_213:\n        /* \"#utility.yul\":3695:3696   */\n      0x00\n        /* \"#utility.yul\":3705:3818   */\n    tag_311:\n        /* \"#utility.yul\":3719:3725   */\n      dup4\n        /* \"#utility.yul\":3716:3717   */\n      dup2\n        /* \"#utility.yul\":3713:3726   */\n      lt\n        /* \"#utility.yul\":3705:3818   */\n      iszero\n      tag_313\n      jumpi\n        /* \"#utility.yul\":3804:3805   */\n      dup1\n        /* \"#utility.yul\":3799:3802   */\n      dup3\n        /* \"#utility.yul\":3795:3806   */\n      add\n        /* \"#utility.yul\":3789:3807   */\n      mload\n        /* \"#utility.yul\":3785:3786   */\n      dup2\n        /* \"#utility.yul\":3780:3783   */\n      dup5\n        /* \"#utility.yul\":3776:3787   */\n      add\n        /* \"#utility.yul\":3769:3808   */\n      mstore\n        /* \"#utility.yul\":3741:3743   */\n      0x20\n        /* \"#utility.yul\":3738:3739   */\n      dup2\n        /* \"#utility.yul\":3734:3744   */\n      add\n        /* \"#utility.yul\":3729:3744   */\n      swap1\n      pop\n        /* \"#utility.yul\":3705:3818   */\n      jump(tag_311)\n    tag_313:\n        /* \"#utility.yul\":3852:3853   */\n      0x00\n        /* \"#utility.yul\":3843:3849   */\n      dup5\n        /* \"#utility.yul\":3838:3841   */\n      dup5\n        /* \"#utility.yul\":3834:3850   */\n      add\n        /* \"#utility.yul\":3827:3854   */\n      mstore\n        /* \"#utility.yul\":3676:3860   */\n      pop\n        /* \"#utility.yul\":3614:3860   */\n      pop\n      pop\n      pop\n      jump\t// out\n        /* \"#utility.yul\":3866:3968   */\n    tag_214:\n        /* \"#utility.yul\":3907:3913   */\n      0x00\n        /* \"#utility.yul\":3958:3960   */\n      0x1f\n        /* \"#utility.yul\":3954:3961   */\n      not\n        /* \"#utility.yul\":3949:3951   */\n      0x1f\n        /* \"#utility.yul\":3942:3947   */\n      dup4\n        /* \"#utility.yul\":3938:3952   */\n      add\n        /* \"#utility.yul\":3934:3962   */\n      and\n        /* \"#utility.yul\":3924:3962   */\n      swap1\n      pop\n        /* \"#utility.yul\":3866:3968   */\n      swap2\n      swap1\n      pop\n      jump\t// out\n        /* \"#utility.yul\":3974:4347   */\n    tag_215:\n        /* \"#utility.yul\":4060:4063   */\n      0x00\n        /* \"#utility.yul\":4088:4126   */\n      tag_316\n        /* \"#utility.yul\":4120:4125   */\n      dup3\n        /* \"#utility.yul\":4088:4126   */\n      tag_211\n      jump\t// in\n    tag_316:\n        /* \"#utility.yul\":4142:4212   */\n      tag_317\n        /* \"#utility.yul\":4205:4211   */\n      dup2\n        /* \"#utility.yul\":4200:4203   */\n      dup6\n        /* \"#utility.yul\":4142:4212   */\n      tag_212\n      jump\t// in\n    tag_317:\n        /* \"#utility.yul\":4135:4212   */\n      swap4\n      pop\n        /* \"#utility.yul\":4221:4286   */\n      tag_318\n        /* \"#utility.yul\":4279:4285   */\n      dup2\n        /* \"#utility.yul\":4274:4277   */\n      dup6\n        /* \"#utility.yul\":4267:4271   */\n      0x20\n        /* \"#utility.yul\":4260:4265   */\n      dup7\n        /* \"#utility.yul\":4256:4272   */\n      add\n        /* \"#utility.yul\":4221:4286   */\n      tag_213\n      jump\t// in\n    tag_318:\n        /* \"#utility.yul\":4311:4340   */\n      tag_319\n        /* \"#utility.yul\":4333:4339   */\n      dup2\n        /* \"#utility.yul\":4311:4340   */\n      tag_214\n      jump\t// in\n    tag_319:\n        /* \"#utility.yul\":4306:4309   */\n      dup5\n        /* \"#utility.yul\":4302:4341   */\n      add\n        /* \"#utility.yul\":4295:4341   */\n      swap2\n      pop\n        /* \"#utility.yul\":4064:4347   */\n      pop\n        /* \"#utility.yul\":3974:4347   */\n      swap3\n      swap2\n      pop\n      pop\n      jump\t// out\n        /* \"#utility.yul\":4353:5092   */\n    tag_50:\n        /* \"#utility.yul\":4570:4574   */\n      0x00\n        /* \"#utility.yul\":4608:4611   */\n      0xa0\n        /* \"#utility.yul\":4597:4606   */\n      dup3\n        /* \"#utility.yul\":4593:4612   */\n      add\n        /* \"#utility.yul\":4585:4612   */\n      swap1\n      pop\n        /* \"#utility.yul\":4622:4693   */\n      tag_321\n        /* \"#utility.yul\":4690:4691   */\n      0x00\n        /* \"#utility.yul\":4679:4688   */\n      dup4\n        /* \"#utility.yul\":4675:4692   */\n      add\n        /* \"#utility.yul\":4666:4672   */\n      dup9\n        /* \"#utility.yul\":4622:4693   */\n      tag_206\n      jump\t// in\n    tag_321:\n        /* \"#utility.yul\":4703:4775   */\n      tag_322\n        /* \"#utility.yul\":4771:4773   */\n      0x20\n        /* \"#utility.yul\":4760:4769   */\n      dup4\n        /* \"#utility.yul\":4756:4774   */\n      add\n        /* \"#utility.yul\":4747:4753   */\n      dup8\n        /* \"#utility.yul\":4703:4775   */\n      tag_198\n      jump\t// in\n    tag_322:\n        /* \"#utility.yul\":4822:4831   */\n      dup2\n        /* \"#utility.yul\":4816:4820   */\n      dup2\n        /* \"#utility.yul\":4812:4832   */\n      sub\n        /* \"#utility.yul\":4807:4809   */\n      0x40\n        /* \"#utility.yul\":4796:4805   */\n      dup4\n        /* \"#utility.yul\":4792:4810   */\n      add\n        /* \"#utility.yul\":4785:4833   */\n      mstore\n        /* \"#utility.yul\":4850:4926   */\n      tag_323\n        /* \"#utility.yul\":4921:4925   */\n      dup2\n        /* \"#utility.yul\":4912:4918   */\n      dup7\n        /* \"#utility.yul\":4850:4926   */\n      tag_215\n      jump\t// in\n    tag_323:\n        /* \"#utility.yul\":4842:4926   */\n      swap1\n      pop\n        /* \"#utility.yul\":4936:5002   */\n      tag_324\n        /* \"#utility.yul\":4998:5000   */\n      0x60\n        /* \"#utility.yul\":4987:4996   */\n      dup4\n        /* \"#utility.yul\":4983:5001   */\n      add\n        /* \"#utility.yul\":4974:4980   */\n      dup6\n        /* \"#utility.yul\":4936:5002   */\n      tag_210\n      jump\t// in\n    tag_324:\n        /* \"#utility.yul\":5012:5085   */\n      tag_325\n        /* \"#utility.yul\":5080:5083   */\n      0x80\n        /* \"#utility.yul\":5069:5078   */\n      dup4\n        /* \"#utility.yul\":5065:5084   */\n      add\n        /* \"#utility.yul\":5056:5062   */\n      dup5\n        /* \"#utility.yul\":5012:5085   */\n      tag_198\n      jump\t// in\n    tag_325:\n        /* \"#utility.yul\":4353:5092   */\n      swap7\n      swap6\n      pop\n      pop\n      pop\n      pop\n      pop\n      pop\n      jump\t// out\n        /* \"#utility.yul\":5098:5572   */\n    tag_54:\n        /* \"#utility.yul\":5166:5172   */\n      0x00\n        /* \"#utility.yul\":5174:5180   */\n      dup1\n        /* \"#utility.yul\":5223:5225   */\n      0x40\n        /* \"#utility.yul\":5211:5220   */\n      dup4\n        /* \"#utility.yul\":5202:5209   */\n      dup6\n        /* \"#utility.yul\":5198:5221   */\n      sub\n        /* \"#utility.yul\":5194:5226   */\n      slt\n        /* \"#utility.yul\":5191:5310   */\n      iszero\n      tag_327\n      jumpi\n        /* \"#utility.yul\":5229:5308   */\n      tag_328\n      tag_200\n      jump\t// in\n    tag_328:\n        /* \"#utility.yul\":5191:5310   */\n    tag_327:\n        /* \"#utility.yul\":5349:5350   */\n      0x00\n        /* \"#utility.yul\":5374:5427   */\n      tag_329\n        /* \"#utility.yul\":5419:5426   */\n      dup6\n        /* \"#utility.yul\":5410:5416   */\n      dup3\n        /* \"#utility.yul\":5399:5408   */\n      dup7\n        /* \"#utility.yul\":5395:5417   */\n      add\n        /* \"#utility.yul\":5374:5427   */\n      tag_203\n      jump\t// in\n    tag_329:\n        /* \"#utility.yul\":5364:5427   */\n      swap3\n      pop\n        /* \"#utility.yul\":5320:5437   */\n      pop\n        /* \"#utility.yul\":5476:5478   */\n      0x20\n        /* \"#utility.yul\":5502:5555   */\n      tag_330\n        /* \"#utility.yul\":5547:5554   */\n      dup6\n        /* \"#utility.yul\":5538:5544   */\n      dup3\n        /* \"#utility.yul\":5527:5536   */\n      dup7\n        /* \"#utility.yul\":5523:5545   */\n      add\n        /* \"#utility.yul\":5502:5555   */\n      tag_208\n      jump\t// in\n    tag_330:\n        /* \"#utility.yul\":5492:5555   */\n      swap2\n      pop\n        /* \"#utility.yul\":5447:5565   */\n      pop\n        /* \"#utility.yul\":5098:5572   */\n      swap3\n      pop\n      swap3\n      swap1\n      pop\n      jump\t// out\n        /* \"#utility.yul\":5578:5692   */\n    tag_216:\n        /* \"#utility.yul\":5645:5651   */\n      0x00\n        /* \"#utility.yul\":5679:5684   */\n      dup2\n        /* \"#utility.yul\":5673:5685   */\n      mload\n        /* \"#utility.yul\":5663:5685   */\n      swap1\n      pop\n        /* \"#utility.yul\":5578:5692   */\n      swap2\n      swap1\n      pop\n      jump\t// out\n        /* \"#utility.yul\":5698:5882   */\n    tag_217:\n        /* \"#utility.yul\":5797:5808   */\n      0x00\n        /* \"#utility.yul\":5831:5837   */\n      dup3\n        /* \"#utility.yul\":5826:5829   */\n      dup3\n        /* \"#utility.yul\":5819:5838   */\n      mstore\n        /* \"#utility.yul\":5871:5875   */\n      0x20\n        /* \"#utility.yul\":5866:5869   */\n      dup3\n        /* \"#utility.yul\":5862:5876   */\n      add\n        /* \"#utility.yul\":5847:5876   */\n      swap1\n      pop\n        /* \"#utility.yul\":5698:5882   */\n      swap3\n      swap2\n      pop\n      pop\n      jump\t// out\n        /* \"#utility.yul\":5888:6020   */\n    tag_218:\n        /* \"#utility.yul\":5955:5959   */\n      0x00\n        /* \"#utility.yul\":5978:5981   */\n      dup2\n        /* \"#utility.yul\":5970:5981   */\n      swap1\n      pop\n        /* \"#utility.yul\":6008:6012   */\n      0x20\n        /* \"#utility.yul\":6003:6006   */\n      dup3\n        /* \"#utility.yul\":5999:6013   */\n      add\n        /* \"#utility.yul\":5991:6013   */\n      swap1\n      pop\n        /* \"#utility.yul\":5888:6020   */\n      swap2\n      swap1\n      pop\n      jump\t// out\n        /* \"#utility.yul\":6026:6134   */\n    tag_219:\n        /* \"#utility.yul\":6103:6127   */\n      tag_335\n        /* \"#utility.yul\":6121:6126   */\n      dup2\n        /* \"#utility.yul\":6103:6127   */\n      tag_205\n      jump\t// in\n    tag_335:\n        /* \"#utility.yul\":6098:6101   */\n      dup3\n        /* \"#utility.yul\":6091:6128   */\n      mstore\n        /* \"#utility.yul\":6026:6134   */\n      pop\n      pop\n      jump\t// out\n        /* \"#utility.yul\":6140:6319   */\n    tag_220:\n        /* \"#utility.yul\":6209:6219   */\n      0x00\n        /* \"#utility.yul\":6230:6276   */\n      tag_337\n        /* \"#utility.yul\":6272:6275   */\n      dup4\n        /* \"#utility.yul\":6264:6270   */\n      dup4\n        /* \"#utility.yul\":6230:6276   */\n      tag_219\n      jump\t// in\n    tag_337:\n        /* \"#utility.yul\":6308:6312   */\n      0x20\n        /* \"#utility.yul\":6303:6306   */\n      dup4\n        /* \"#utility.yul\":6299:6313   */\n      add\n        /* \"#utility.yul\":6285:6313   */\n      swap1\n      pop\n        /* \"#utility.yul\":6140:6319   */\n      swap3\n      swap2\n      pop\n      pop\n      jump\t// out\n        /* \"#utility.yul\":6325:6438   */\n    tag_221:\n        /* \"#utility.yul\":6395:6399   */\n      0x00\n        /* \"#utility.yul\":6427:6431   */\n      0x20\n        /* \"#utility.yul\":6422:6425   */\n      dup3\n        /* \"#utility.yul\":6418:6432   */\n      add\n        /* \"#utility.yul\":6410:6432   */\n      swap1\n      pop\n        /* \"#utility.yul\":6325:6438   */\n      swap2\n      swap1\n      pop\n      jump\t// out\n        /* \"#utility.yul\":6474:7206   */\n    tag_222:\n        /* \"#utility.yul\":6593:6596   */\n      0x00\n        /* \"#utility.yul\":6622:6676   */\n      tag_340\n        /* \"#utility.yul\":6670:6675   */\n      dup3\n        /* \"#utility.yul\":6622:6676   */\n      tag_216\n      jump\t// in\n    tag_340:\n        /* \"#utility.yul\":6692:6778   */\n      tag_341\n        /* \"#utility.yul\":6771:6777   */\n      dup2\n        /* \"#utility.yul\":6766:6769   */\n      dup6\n        /* \"#utility.yul\":6692:6778   */\n      tag_217\n      jump\t// in\n    tag_341:\n        /* \"#utility.yul\":6685:6778   */\n      swap4\n      pop\n        /* \"#utility.yul\":6802:6858   */\n      tag_342\n        /* \"#utility.yul\":6852:6857   */\n      dup4\n        /* \"#utility.yul\":6802:6858   */\n      tag_218\n      jump\t// in\n    tag_342:\n        /* \"#utility.yul\":6881:6888   */\n      dup1\n        /* \"#utility.yul\":6912:6913   */\n      0x00\n        /* \"#utility.yul\":6897:7181   */\n    tag_343:\n        /* \"#utility.yul\":6922:6928   */\n      dup4\n        /* \"#utility.yul\":6919:6920   */\n      dup2\n        /* \"#utility.yul\":6916:6929   */\n      lt\n        /* \"#utility.yul\":6897:7181   */\n      iszero\n      tag_345\n      jumpi\n        /* \"#utility.yul\":6998:7004   */\n      dup2\n        /* \"#utility.yul\":6992:7005   */\n      mload\n        /* \"#utility.yul\":7025:7088   */\n      tag_346\n        /* \"#utility.yul\":7084:7087   */\n      dup9\n        /* \"#utility.yul\":7069:7082   */\n      dup3\n        /* \"#utility.yul\":7025:7088   */\n      tag_220\n      jump\t// in\n    tag_346:\n        /* \"#utility.yul\":7018:7088   */\n      swap8\n      pop\n        /* \"#utility.yul\":7111:7171   */\n      tag_347\n        /* \"#utility.yul\":7164:7170   */\n      dup4\n        /* \"#utility.yul\":7111:7171   */\n      tag_221\n      jump\t// in\n    tag_347:\n        /* \"#utility.yul\":7101:7171   */\n      swap3\n      pop\n        /* \"#utility.yul\":6957:7181   */\n      pop\n        /* \"#utility.yul\":6944:6945   */\n      0x01\n        /* \"#utility.yul\":6941:6942   */\n      dup2\n        /* \"#utility.yul\":6937:6946   */\n      add\n        /* \"#utility.yul\":6932:6946   */\n      swap1\n      pop\n        /* \"#utility.yul\":6897:7181   */\n      jump(tag_343)\n    tag_345:\n        /* \"#utility.yul\":6901:6915   */\n      pop\n        /* \"#utility.yul\":7197:7200   */\n      dup6\n        /* \"#utility.yul\":7190:7200   */\n      swap4\n      pop\n        /* \"#utility.yul\":6598:7206   */\n      pop\n      pop\n      pop\n        /* \"#utility.yul\":6474:7206   */\n      swap3\n      swap2\n      pop\n      pop\n      jump\t// out\n        /* \"#utility.yul\":7212:7585   */\n    tag_66:\n        /* \"#utility.yul\":7355:7359   */\n      0x00\n        /* \"#utility.yul\":7393:7395   */\n      0x20\n        /* \"#utility.yul\":7382:7391   */\n      dup3\n        /* \"#utility.yul\":7378:7396   */\n      add\n        /* \"#utility.yul\":7370:7396   */\n      swap1\n      pop\n        /* \"#utility.yul\":7442:7451   */\n      dup2\n        /* \"#utility.yul\":7436:7440   */\n      dup2\n        /* \"#utility.yul\":7432:7452   */\n      sub\n        /* \"#utility.yul\":7428:7429   */\n      0x00\n        /* \"#utility.yul\":7417:7426   */\n      dup4\n        /* \"#utility.yul\":7413:7430   */\n      add\n        /* \"#utility.yul\":7406:7453   */\n      mstore\n        /* \"#utility.yul\":7470:7578   */\n      tag_349\n        /* \"#utility.yul\":7573:7577   */\n      dup2\n        /* \"#utility.yul\":7564:7570   */\n      dup5\n        /* \"#utility.yul\":7470:7578   */\n      tag_222\n      jump\t// in\n    tag_349:\n        /* \"#utility.yul\":7462:7578   */\n      swap1\n      pop\n        /* \"#utility.yul\":7212:7585   */\n      swap3\n      swap2\n      pop\n      pop\n      jump\t// out\n        /* \"#utility.yul\":7591:7708   */\n    tag_223:\n        /* \"#utility.yul\":7700:7701   */\n      0x00\n        /* \"#utility.yul\":7697:7698   */\n      dup1\n        /* \"#utility.yul\":7690:7702   */\n      revert\n        /* \"#utility.yul\":7714:7831   */\n    tag_224:\n        /* \"#utility.yul\":7823:7824   */\n      0x00\n        /* \"#utility.yul\":7820:7821   */\n      dup1\n        /* \"#utility.yul\":7813:7825   */\n      revert\n        /* \"#utility.yul\":7837:8017   */\n    tag_225:\n        /* \"#utility.yul\":7885:7962   */\n      0x4e487b7100000000000000000000000000000000000000000000000000000000\n        /* \"#utility.yul\":7882:7883   */\n      0x00\n        /* \"#utility.yul\":7875:7963   */\n      mstore\n        /* \"#utility.yul\":7982:7986   */\n      0x41\n        /* \"#utility.yul\":7979:7980   */\n      0x04\n        /* \"#utility.yul\":7972:7987   */\n      mstore\n        /* \"#utility.yul\":8006:8010   */\n      0x24\n        /* \"#utility.yul\":8003:8004   */\n      0x00\n        /* \"#utility.yul\":7996:8011   */\n      revert\n        /* \"#utility.yul\":8023:8304   */\n    tag_226:\n        /* \"#utility.yul\":8106:8133   */\n      tag_354\n        /* \"#utility.yul\":8128:8132   */\n      dup3\n        /* \"#utility.yul\":8106:8133   */\n      tag_214\n      jump\t// in\n    tag_354:\n        /* \"#utility.yul\":8098:8104   */\n      dup2\n        /* \"#utility.yul\":8094:8134   */\n      add\n        /* \"#utility.yul\":8236:8242   */\n      dup2\n        /* \"#utility.yul\":8224:8234   */\n      dup2\n        /* \"#utility.yul\":8221:8243   */\n      lt\n        /* \"#utility.yul\":8200:8218   */\n      0xffffffffffffffff\n        /* \"#utility.yul\":8188:8198   */\n      dup3\n        /* \"#utility.yul\":8185:8219   */\n      gt\n        /* \"#utility.yul\":8182:8244   */\n      or\n        /* \"#utility.yul\":8179:8267   */\n      iszero\n      tag_355\n      jumpi\n        /* \"#utility.yul\":8247:8265   */\n      tag_356\n      tag_225\n      jump\t// in\n    tag_356:\n        /* \"#utility.yul\":8179:8267   */\n    tag_355:\n        /* \"#utility.yul\":8287:8297   */\n      dup1\n        /* \"#utility.yul\":8283:8285   */\n      0x40\n        /* \"#utility.yul\":8276:8298   */\n      mstore\n        /* \"#utility.yul\":8066:8304   */\n      pop\n        /* \"#utility.yul\":8023:8304   */\n      pop\n      pop\n      jump\t// out\n        /* \"#utility.yul\":8310:8439   */\n    tag_227:\n        /* \"#utility.yul\":8344:8350   */\n      0x00\n        /* \"#utility.yul\":8371:8391   */\n      tag_358\n      tag_199\n      jump\t// in\n    tag_358:\n        /* \"#utility.yul\":8361:8391   */\n      swap1\n      pop\n        /* \"#utility.yul\":8400:8433   */\n      tag_359\n        /* \"#utility.yul\":8428:8432   */\n      dup3\n        /* \"#utility.yul\":8420:8426   */\n      dup3\n        /* \"#utility.yul\":8400:8433   */\n      tag_226\n      jump\t// in\n    tag_359:\n        /* \"#utility.yul\":8310:8439   */\n      swap2\n      swap1\n      pop\n      jump\t// out\n        /* \"#utility.yul\":8445:8752   */\n    tag_228:\n        /* \"#utility.yul\":8506:8510   */\n      0x00\n        /* \"#utility.yul\":8596:8614   */\n      0xffffffffffffffff\n        /* \"#utility.yul\":8588:8594   */\n      dup3\n        /* \"#utility.yul\":8585:8615   */\n      gt\n        /* \"#utility.yul\":8582:8638   */\n      iszero\n      tag_361\n      jumpi\n        /* \"#utility.yul\":8618:8636   */\n      tag_362\n      tag_225\n      jump\t// in\n    tag_362:\n        /* \"#utility.yul\":8582:8638   */\n    tag_361:\n        /* \"#utility.yul\":8656:8685   */\n      tag_363\n        /* \"#utility.yul\":8678:8684   */\n      dup3\n        /* \"#utility.yul\":8656:8685   */\n      tag_214\n      jump\t// in\n    tag_363:\n        /* \"#utility.yul\":8648:8685   */\n      swap1\n      pop\n        /* \"#utility.yul\":8740:8744   */\n      0x20\n        /* \"#utility.yul\":8734:8738   */\n      dup2\n        /* \"#utility.yul\":8730:8745   */\n      add\n        /* \"#utility.yul\":8722:8745   */\n      swap1\n      pop\n        /* \"#utility.yul\":8445:8752   */\n      swap2\n      swap1\n      pop\n      jump\t// out\n        /* \"#utility.yul\":8758:8904   */\n    tag_229:\n        /* \"#utility.yul\":8855:8861   */\n      dup3\n        /* \"#utility.yul\":8850:8853   */\n      dup2\n        /* \"#utility.yul\":8845:8848   */\n      dup4\n        /* \"#utility.yul\":8832:8862   */\n      calldatacopy\n        /* \"#utility.yul\":8896:8897   */\n      0x00\n        /* \"#utility.yul\":8887:8893   */\n      dup4\n        /* \"#utility.yul\":8882:8885   */\n      dup4\n        /* \"#utility.yul\":8878:8894   */\n      add\n        /* \"#utility.yul\":8871:8898   */\n      mstore\n        /* \"#utility.yul\":8758:8904   */\n      pop\n      pop\n      pop\n      jump\t// out\n        /* \"#utility.yul\":8910:9333   */\n    tag_230:\n        /* \"#utility.yul\":8987:8992   */\n      0x00\n        /* \"#utility.yul\":9012:9077   */\n      tag_366\n        /* \"#utility.yul\":9028:9076   */\n      tag_367\n        /* \"#utility.yul\":9069:9075   */\n      dup5\n        /* \"#utility.yul\":9028:9076   */\n      tag_228\n      jump\t// in\n    tag_367:\n        /* \"#utility.yul\":9012:9077   */\n      tag_227\n      jump\t// in\n    tag_366:\n        /* \"#utility.yul\":9003:9077   */\n      swap1\n      pop\n        /* \"#utility.yul\":9100:9106   */\n      dup3\n        /* \"#utility.yul\":9093:9098   */\n      dup2\n        /* \"#utility.yul\":9086:9107   */\n      mstore\n        /* \"#utility.yul\":9138:9142   */\n      0x20\n        /* \"#utility.yul\":9131:9136   */\n      dup2\n        /* \"#utility.yul\":9127:9143   */\n      add\n        /* \"#utility.yul\":9176:9179   */\n      dup5\n        /* \"#utility.yul\":9167:9173   */\n      dup5\n        /* \"#utility.yul\":9162:9165   */\n      dup5\n        /* \"#utility.yul\":9158:9174   */\n      add\n        /* \"#utility.yul\":9155:9180   */\n      gt\n        /* \"#utility.yul\":9152:9264   */\n      iszero\n      tag_368\n      jumpi\n        /* \"#utility.yul\":9183:9262   */\n      tag_369\n      tag_224\n      jump\t// in\n    tag_369:\n        /* \"#utility.yul\":9152:9264   */\n    tag_368:\n        /* \"#utility.yul\":9273:9327   */\n      tag_370\n        /* \"#utility.yul\":9320:9326   */\n      dup5\n        /* \"#utility.yul\":9315:9318   */\n      dup3\n        /* \"#utility.yul\":9310:9313   */\n      dup6\n        /* \"#utility.yul\":9273:9327   */\n      tag_229\n      jump\t// in\n    tag_370:\n        /* \"#utility.yul\":8993:9333   */\n      pop\n        /* \"#utility.yul\":8910:9333   */\n      swap4\n      swap3\n      pop\n      pop\n      pop\n      jump\t// out\n        /* \"#utility.yul\":9352:9690   */\n    tag_231:\n        /* \"#utility.yul\":9407:9412   */\n      0x00\n        /* \"#utility.yul\":9456:9459   */\n      dup3\n        /* \"#utility.yul\":9449:9453   */\n      0x1f\n        /* \"#utility.yul\":9441:9447   */\n      dup4\n        /* \"#utility.yul\":9437:9454   */\n      add\n        /* \"#utility.yul\":9433:9460   */\n      slt\n        /* \"#utility.yul\":9423:9545   */\n      tag_372\n      jumpi\n        /* \"#utility.yul\":9464:9543   */\n      tag_373\n      tag_223\n      jump\t// in\n    tag_373:\n        /* \"#utility.yul\":9423:9545   */\n    tag_372:\n        /* \"#utility.yul\":9581:9587   */\n      dup2\n        /* \"#utility.yul\":9568:9588   */\n      calldataload\n        /* \"#utility.yul\":9606:9684   */\n      tag_374\n        /* \"#utility.yul\":9680:9683   */\n      dup5\n        /* \"#utility.yul\":9672:9678   */\n      dup3\n        /* \"#utility.yul\":9665:9669   */\n      0x20\n        /* \"#utility.yul\":9657:9663   */\n      dup7\n        /* \"#utility.yul\":9653:9670   */\n      add\n        /* \"#utility.yul\":9606:9684   */\n      tag_230\n      jump\t// in\n    tag_374:\n        /* \"#utility.yul\":9597:9684   */\n      swap2\n      pop\n        /* \"#utility.yul\":9413:9690   */\n      pop\n        /* \"#utility.yul\":9352:9690   */\n      swap3\n      swap2\n      pop\n      pop\n      jump\t// out\n        /* \"#utility.yul\":9696:10493   */\n    tag_79:\n        /* \"#utility.yul\":9782:9788   */\n      0x00\n        /* \"#utility.yul\":9790:9796   */\n      dup1\n        /* \"#utility.yul\":9798:9804   */\n      0x00\n        /* \"#utility.yul\":9847:9849   */\n      0x60\n        /* \"#utility.yul\":9835:9844   */\n      dup5\n        /* \"#utility.yul\":9826:9833   */\n      dup7\n        /* \"#utility.yul\":9822:9845   */\n      sub\n        /* \"#utility.yul\":9818:9850   */\n      slt\n        /* \"#utility.yul\":9815:9934   */\n      iszero\n      tag_376\n      jumpi\n        /* \"#utility.yul\":9853:9932   */\n      tag_377\n      tag_200\n      jump\t// in\n    tag_377:\n        /* \"#utility.yul\":9815:9934   */\n    tag_376:\n        /* \"#utility.yul\":9973:9974   */\n      0x00\n        /* \"#utility.yul\":9998:10051   */\n      tag_378\n        /* \"#utility.yul\":10043:10050   */\n      dup7\n        /* \"#utility.yul\":10034:10040   */\n      dup3\n        /* \"#utility.yul\":10023:10032   */\n      dup8\n        /* \"#utility.yul\":10019:10041   */\n      add\n        /* \"#utility.yul\":9998:10051   */\n      tag_208\n      jump\t// in\n    tag_378:\n        /* \"#utility.yul\":9988:10051   */\n      swap4\n      pop\n        /* \"#utility.yul\":9944:10061   */\n      pop\n        /* \"#utility.yul\":10100:10102   */\n      0x20\n        /* \"#utility.yul\":10126:10179   */\n      tag_379\n        /* \"#utility.yul\":10171:10178   */\n      dup7\n        /* \"#utility.yul\":10162:10168   */\n      dup3\n        /* \"#utility.yul\":10151:10160   */\n      dup8\n        /* \"#utility.yul\":10147:10169   */\n      add\n        /* \"#utility.yul\":10126:10179   */\n      tag_203\n      jump\t// in\n    tag_379:\n        /* \"#utility.yul\":10116:10179   */\n      swap3\n      pop\n        /* \"#utility.yul\":10071:10189   */\n      pop\n        /* \"#utility.yul\":10256:10258   */\n      0x40\n        /* \"#utility.yul\":10245:10254   */\n      dup5\n        /* \"#utility.yul\":10241:10259   */\n      add\n        /* \"#utility.yul\":10228:10260   */\n      calldataload\n        /* \"#utility.yul\":10287:10305   */\n      0xffffffffffffffff\n        /* \"#utility.yul\":10279:10285   */\n      dup2\n        /* \"#utility.yul\":10276:10306   */\n      gt\n        /* \"#utility.yul\":10273:10390   */\n      iszero\n      tag_380\n      jumpi\n        /* \"#utility.yul\":10309:10388   */\n      tag_381\n      tag_201\n      jump\t// in\n    tag_381:\n        /* \"#utility.yul\":10273:10390   */\n    tag_380:\n        /* \"#utility.yul\":10414:10476   */\n      tag_382\n        /* \"#utility.yul\":10468:10475   */\n      dup7\n        /* \"#utility.yul\":10459:10465   */\n      dup3\n        /* \"#utility.yul\":10448:10457   */\n      dup8\n        /* \"#utility.yul\":10444:10466   */\n      add\n        /* \"#utility.yul\":10414:10476   */\n      tag_231\n      jump\t// in\n    tag_382:\n        /* \"#utility.yul\":10404:10476   */\n      swap2\n      pop\n        /* \"#utility.yul\":10199:10486   */\n      pop\n        /* \"#utility.yul\":9696:10493   */\n      swap3\n      pop\n      swap3\n      pop\n      swap3\n      jump\t// out\n        /* \"#utility.yul\":10499:10668   */\n    tag_232:\n        /* \"#utility.yul\":10583:10594   */\n      0x00\n        /* \"#utility.yul\":10617:10623   */\n      dup3\n        /* \"#utility.yul\":10612:10615   */\n      dup3\n        /* \"#utility.yul\":10605:10624   */\n      mstore\n        /* \"#utility.yul\":10657:10661   */\n      0x20\n        /* \"#utility.yul\":10652:10655   */\n      dup3\n        /* \"#utility.yul\":10648:10662   */\n      add\n        /* \"#utility.yul\":10633:10662   */\n      swap1\n      pop\n        /* \"#utility.yul\":10499:10668   */\n      swap3\n      swap2\n      pop\n      pop\n      jump\t// out\n        /* \"#utility.yul\":10674:10833   */\n    tag_233:\n        /* \"#utility.yul\":10814:10825   */\n      0x6e6f74206f776e65720000000000000000000000000000000000000000000000\n        /* \"#utility.yul\":10810:10811   */\n      0x00\n        /* \"#utility.yul\":10802:10808   */\n      dup3\n        /* \"#utility.yul\":10798:10812   */\n      add\n        /* \"#utility.yul\":10791:10826   */\n      mstore\n        /* \"#utility.yul\":10674:10833   */\n      pop\n      jump\t// out\n        /* \"#utility.yul\":10839:11204   */\n    tag_234:\n        /* \"#utility.yul\":10981:10984   */\n      0x00\n        /* \"#utility.yul\":11002:11068   */\n      tag_386\n        /* \"#utility.yul\":11066:11067   */\n      0x09\n        /* \"#utility.yul\":11061:11064   */\n      dup4\n        /* \"#utility.yul\":11002:11068   */\n      tag_232\n      jump\t// in\n    tag_386:\n        /* \"#utility.yul\":10995:11068   */\n      swap2\n      pop\n        /* \"#utility.yul\":11077:11170   */\n      tag_387\n        /* \"#utility.yul\":11166:11169   */\n      dup3\n        /* \"#utility.yul\":11077:11170   */\n      tag_233\n      jump\t// in\n    tag_387:\n        /* \"#utility.yul\":11195:11197   */\n      0x20\n        /* \"#utility.yul\":11190:11193   */\n      dup3\n        /* \"#utility.yul\":11186:11198   */\n      add\n        /* \"#utility.yul\":11179:11198   */\n      swap1\n      pop\n        /* \"#utility.yul\":10839:11204   */\n      swap2\n      swap1\n      pop\n      jump\t// out\n        /* \"#utility.yul\":11210:11629   */\n    tag_94:\n        /* \"#utility.yul\":11376:11380   */\n      0x00\n        /* \"#utility.yul\":11414:11416   */\n      0x20\n        /* \"#utility.yul\":11403:11412   */\n      dup3\n        /* \"#utility.yul\":11399:11417   */\n      add\n        /* \"#utility.yul\":11391:11417   */\n      swap1\n      pop\n        /* \"#utility.yul\":11463:11472   */\n      dup2\n        /* \"#utility.yul\":11457:11461   */\n      dup2\n        /* \"#utility.yul\":11453:11473   */\n      sub\n        /* \"#utility.yul\":11449:11450   */\n      0x00\n        /* \"#utility.yul\":11438:11447   */\n      dup4\n        /* \"#utility.yul\":11434:11451   */\n      add\n        /* \"#utility.yul\":11427:11474   */\n      mstore\n        /* \"#utility.yul\":11491:11622   */\n      tag_389\n        /* \"#utility.yul\":11617:11621   */\n      dup2\n        /* \"#utility.yul\":11491:11622   */\n      tag_234\n      jump\t// in\n    tag_389:\n        /* \"#utility.yul\":11483:11622   */\n      swap1\n      pop\n        /* \"#utility.yul\":11210:11629   */\n      swap2\n      swap1\n      pop\n      jump\t// out\n        /* \"#utility.yul\":11635:11802   */\n    tag_235:\n        /* \"#utility.yul\":11775:11794   */\n      0x747820646f6573206e6f74206578697374000000000000000000000000000000\n        /* \"#utility.yul\":11771:11772   */\n      0x00\n        /* \"#utility.yul\":11763:11769   */\n      dup3\n        /* \"#utility.yul\":11759:11773   */\n      add\n        /* \"#utility.yul\":11752:11795   */\n      mstore\n        /* \"#utility.yul\":11635:11802   */\n      pop\n      jump\t// out\n        /* \"#utility.yul\":11808:12174   */\n    tag_236:\n        /* \"#utility.yul\":11950:11953   */\n      0x00\n        /* \"#utility.yul\":11971:12038   */\n      tag_392\n        /* \"#utility.yul\":12035:12037   */\n      0x11\n        /* \"#utility.yul\":12030:12033   */\n      dup4\n        /* \"#utility.yul\":11971:12038   */\n      tag_232\n      jump\t// in\n    tag_392:\n        /* \"#utility.yul\":11964:12038   */\n      swap2\n      pop\n        /* \"#utility.yul\":12047:12140   */\n      tag_393\n        /* \"#utility.yul\":12136:12139   */\n      dup3\n        /* \"#utility.yul\":12047:12140   */\n      tag_235\n      jump\t// in\n    tag_393:\n        /* \"#utility.yul\":12165:12167   */\n      0x20\n        /* \"#utility.yul\":12160:12163   */\n      dup3\n        /* \"#utility.yul\":12156:12168   */\n      add\n        /* \"#utility.yul\":12149:12168   */\n      swap1\n      pop\n        /* \"#utility.yul\":11808:12174   */\n      swap2\n      swap1\n      pop\n      jump\t// out\n        /* \"#utility.yul\":12180:12599   */\n    tag_98:\n        /* \"#utility.yul\":12346:12350   */\n      0x00\n        /* \"#utility.yul\":12384:12386   */\n      0x20\n        /* \"#utility.yul\":12373:12382   */\n      dup3\n        /* \"#utility.yul\":12369:12387   */\n      add\n        /* \"#utility.yul\":12361:12387   */\n      swap1\n      pop\n        /* \"#utility.yul\":12433:12442   */\n      dup2\n        /* \"#utility.yul\":12427:12431   */\n      dup2\n        /* \"#utility.yul\":12423:12443   */\n      sub\n        /* \"#utility.yul\":12419:12420   */\n      0x00\n        /* \"#utility.yul\":12408:12417   */\n      dup4\n        /* \"#utility.yul\":12404:12421   */\n      add\n        /* \"#utility.yul\":12397:12444   */\n      mstore\n        /* \"#utility.yul\":12461:12592   */\n      tag_395\n        /* \"#utility.yul\":12587:12591   */\n      dup2\n        /* \"#utility.yul\":12461:12592   */\n      tag_236\n      jump\t// in\n    tag_395:\n        /* \"#utility.yul\":12453:12592   */\n      swap1\n      pop\n        /* \"#utility.yul\":12180:12599   */\n      swap2\n      swap1\n      pop\n      jump\t// out\n        /* \"#utility.yul\":12605:12785   */\n    tag_102:\n        /* \"#utility.yul\":12653:12730   */\n      0x4e487b7100000000000000000000000000000000000000000000000000000000\n        /* \"#utility.yul\":12650:12651   */\n      0x00\n        /* \"#utility.yul\":12643:12731   */\n      mstore\n        /* \"#utility.yul\":12750:12754   */\n      0x32\n        /* \"#utility.yul\":12747:12748   */\n      0x04\n        /* \"#utility.yul\":12740:12755   */\n      mstore\n        /* \"#utility.yul\":12774:12778   */\n      0x24\n        /* \"#utility.yul\":12771:12772   */\n      0x00\n        /* \"#utility.yul\":12764:12779   */\n      revert\n        /* \"#utility.yul\":12791:12960   */\n    tag_237:\n        /* \"#utility.yul\":12931:12952   */\n      0x747820616c726561647920657865637574656400000000000000000000000000\n        /* \"#utility.yul\":12927:12928   */\n      0x00\n        /* \"#utility.yul\":12919:12925   */\n      dup3\n        /* \"#utility.yul\":12915:12929   */\n      add\n        /* \"#utility.yul\":12908:12953   */\n      mstore\n        /* \"#utility.yul\":12791:12960   */\n      pop\n      jump\t// out\n        /* \"#utility.yul\":12966:13332   */\n    tag_238:\n        /* \"#utility.yul\":13108:13111   */\n      0x00\n        /* \"#utility.yul\":13129:13196   */\n      tag_399\n        /* \"#utility.yul\":13193:13195   */\n      0x13\n        /* \"#utility.yul\":13188:13191   */\n      dup4\n        /* \"#utility.yul\":13129:13196   */\n      tag_232\n      jump\t// in\n    tag_399:\n        /* \"#utility.yul\":13122:13196   */\n      swap2\n      pop\n        /* \"#utility.yul\":13205:13298   */\n      tag_400\n        /* \"#utility.yul\":13294:13297   */\n      dup3\n        /* \"#utility.yul\":13205:13298   */\n      tag_237\n      jump\t// in\n    tag_400:\n        /* \"#utility.yul\":13323:13325   */\n      0x20\n        /* \"#utility.yul\":13318:13321   */\n      dup3\n        /* \"#utility.yul\":13314:13326   */\n      add\n        /* \"#utility.yul\":13307:13326   */\n      swap1\n      pop\n        /* \"#utility.yul\":12966:13332   */\n      swap2\n      swap1\n      pop\n      jump\t// out\n        /* \"#utility.yul\":13338:13757   */\n    tag_106:\n        /* \"#utility.yul\":13504:13508   */\n      0x00\n        /* \"#utility.yul\":13542:13544   */\n      0x20\n        /* \"#utility.yul\":13531:13540   */\n      dup3\n        /* \"#utility.yul\":13527:13545   */\n      add\n        /* \"#utility.yul\":13519:13545   */\n      swap1\n      pop\n        /* \"#utility.yul\":13591:13600   */\n      dup2\n        /* \"#utility.yul\":13585:13589   */\n      dup2\n        /* \"#utility.yul\":13581:13601   */\n      sub\n        /* \"#utility.yul\":13577:13578   */\n      0x00\n        /* \"#utility.yul\":13566:13575   */\n      dup4\n        /* \"#utility.yul\":13562:13579   */\n      add\n        /* \"#utility.yul\":13555:13602   */\n      mstore\n        /* \"#utility.yul\":13619:13750   */\n      tag_402\n        /* \"#utility.yul\":13745:13749   */\n      dup2\n        /* \"#utility.yul\":13619:13750   */\n      tag_238\n      jump\t// in\n    tag_402:\n        /* \"#utility.yul\":13611:13750   */\n      swap1\n      pop\n        /* \"#utility.yul\":13338:13757   */\n      swap2\n      swap1\n      pop\n      jump\t// out\n        /* \"#utility.yul\":13763:13929   */\n    tag_239:\n        /* \"#utility.yul\":13903:13921   */\n      0x7478206e6f7420636f6e6669726d656400000000000000000000000000000000\n        /* \"#utility.yul\":13899:13900   */\n      0x00\n        /* \"#utility.yul\":13891:13897   */\n      dup3\n        /* \"#utility.yul\":13887:13901   */\n      add\n        /* \"#utility.yul\":13880:13922   */\n      mstore\n        /* \"#utility.yul\":13763:13929   */\n      pop\n      jump\t// out\n        /* \"#utility.yul\":13935:14301   */\n    tag_240:\n        /* \"#utility.yul\":14077:14080   */\n      0x00\n        /* \"#utility.yul\":14098:14165   */\n      tag_405\n        /* \"#utility.yul\":14162:14164   */\n      0x10\n        /* \"#utility.yul\":14157:14160   */\n      dup4\n        /* \"#utility.yul\":14098:14165   */\n      tag_232\n      jump\t// in\n    tag_405:\n        /* \"#utility.yul\":14091:14165   */\n      swap2\n      pop\n        /* \"#utility.yul\":14174:14267   */\n      tag_406\n        /* \"#utility.yul\":14263:14266   */\n      dup3\n        /* \"#utility.yul\":14174:14267   */\n      tag_239\n      jump\t// in\n    tag_406:\n        /* \"#utility.yul\":14292:14294   */\n      0x20\n        /* \"#utility.yul\":14287:14290   */\n      dup3\n        /* \"#utility.yul\":14283:14295   */\n      add\n        /* \"#utility.yul\":14276:14295   */\n      swap1\n      pop\n        /* \"#utility.yul\":13935:14301   */\n      swap2\n      swap1\n      pop\n      jump\t// out\n        /* \"#utility.yul\":14307:14726   */\n    tag_113:\n        /* \"#utility.yul\":14473:14477   */\n      0x00\n        /* \"#utility.yul\":14511:14513   */\n      0x20\n        /* \"#utility.yul\":14500:14509   */\n      dup3\n        /* \"#utility.yul\":14496:14514   */\n      add\n        /* \"#utility.yul\":14488:14514   */\n      swap1\n      pop\n        /* \"#utility.yul\":14560:14569   */\n      dup2\n        /* \"#utility.yul\":14554:14558   */\n      dup2\n        /* \"#utility.yul\":14550:14570   */\n      sub\n        /* \"#utility.yul\":14546:14547   */\n      0x00\n        /* \"#utility.yul\":14535:14544   */\n      dup4\n        /* \"#utility.yul\":14531:14548   */\n      add\n        /* \"#utility.yul\":14524:14571   */\n      mstore\n        /* \"#utility.yul\":14588:14719   */\n      tag_408\n        /* \"#utility.yul\":14714:14718   */\n      dup2\n        /* \"#utility.yul\":14588:14719   */\n      tag_240\n      jump\t// in\n    tag_408:\n        /* \"#utility.yul\":14580:14719   */\n      swap1\n      pop\n        /* \"#utility.yul\":14307:14726   */\n      swap2\n      swap1\n      pop\n      jump\t// out\n        /* \"#utility.yul\":14732:14912   */\n    tag_241:\n        /* \"#utility.yul\":14780:14857   */\n      0x4e487b7100000000000000000000000000000000000000000000000000000000\n        /* \"#utility.yul\":14777:14778   */\n      0x00\n        /* \"#utility.yul\":14770:14858   */\n      mstore\n        /* \"#utility.yul\":14877:14881   */\n      0x11\n        /* \"#utility.yul\":14874:14875   */\n      0x04\n        /* \"#utility.yul\":14867:14882   */\n      mstore\n        /* \"#utility.yul\":14901:14905   */\n      0x24\n        /* \"#utility.yul\":14898:14899   */\n      0x00\n        /* \"#utility.yul\":14891:14906   */\n      revert\n        /* \"#utility.yul\":14918:15112   */\n    tag_115:\n        /* \"#utility.yul\":14958:14962   */\n      0x00\n        /* \"#utility.yul\":14978:14998   */\n      tag_411\n        /* \"#utility.yul\":14996:14997   */\n      dup3\n        /* \"#utility.yul\":14978:14998   */\n      tag_197\n      jump\t// in\n    tag_411:\n        /* \"#utility.yul\":14973:14998   */\n      swap2\n      pop\n        /* \"#utility.yul\":15012:15032   */\n      tag_412\n        /* \"#utility.yul\":15030:15031   */\n      dup4\n        /* \"#utility.yul\":15012:15032   */\n      tag_197\n      jump\t// in\n    tag_412:\n        /* \"#utility.yul\":15007:15032   */\n      swap3\n      pop\n        /* \"#utility.yul\":15056:15057   */\n      dup3\n        /* \"#utility.yul\":15053:15054   */\n      dup3\n        /* \"#utility.yul\":15049:15058   */\n      sub\n        /* \"#utility.yul\":15041:15058   */\n      swap1\n      pop\n        /* \"#utility.yul\":15080:15081   */\n      dup2\n        /* \"#utility.yul\":15074:15078   */\n      dup2\n        /* \"#utility.yul\":15071:15082   */\n      gt\n        /* \"#utility.yul\":15068:15105   */\n      iszero\n      tag_413\n      jumpi\n        /* \"#utility.yul\":15085:15103   */\n      tag_414\n      tag_241\n      jump\t// in\n    tag_414:\n        /* \"#utility.yul\":15068:15105   */\n    tag_413:\n        /* \"#utility.yul\":14918:15112   */\n      swap3\n      swap2\n      pop\n      pop\n      jump\t// out\n        /* \"#utility.yul\":15118:15298   */\n    tag_242:\n        /* \"#utility.yul\":15166:15243   */\n      0x4e487b7100000000000000000000000000000000000000000000000000000000\n        /* \"#utility.yul\":15163:15164   */\n      0x00\n        /* \"#utility.yul\":15156:15244   */\n      mstore\n        /* \"#utility.yul\":15263:15267   */\n      0x22\n        /* \"#utility.yul\":15260:15261   */\n      0x04\n        /* \"#utility.yul\":15253:15268   */\n      mstore\n        /* \"#utility.yul\":15287:15291   */\n      0x24\n        /* \"#utility.yul\":15284:15285   */\n      0x00\n        /* \"#utility.yul\":15277:15292   */\n      revert\n        /* \"#utility.yul\":15304:15624   */\n    tag_122:\n        /* \"#utility.yul\":15348:15354   */\n      0x00\n        /* \"#utility.yul\":15385:15386   */\n      0x02\n        /* \"#utility.yul\":15379:15383   */\n      dup3\n        /* \"#utility.yul\":15375:15387   */\n      div\n        /* \"#utility.yul\":15365:15387   */\n      swap1\n      pop\n        /* \"#utility.yul\":15432:15433   */\n      0x01\n        /* \"#utility.yul\":15426:15430   */\n      dup3\n        /* \"#utility.yul\":15422:15434   */\n      and\n        /* \"#utility.yul\":15453:15471   */\n      dup1\n        /* \"#utility.yul\":15443:15524   */\n      tag_417\n      jumpi\n        /* \"#utility.yul\":15509:15513   */\n      0x7f\n        /* \"#utility.yul\":15501:15507   */\n      dup3\n        /* \"#utility.yul\":15497:15514   */\n      and\n        /* \"#utility.yul\":15487:15514   */\n      swap2\n      pop\n        /* \"#utility.yul\":15443:15524   */\n    tag_417:\n        /* \"#utility.yul\":15571:15573   */\n      0x20\n        /* \"#utility.yul\":15563:15569   */\n      dup3\n        /* \"#utility.yul\":15560:15574   */\n      lt\n        /* \"#utility.yul\":15540:15558   */\n      dup2\n        /* \"#utility.yul\":15537:15575   */\n      sub\n        /* \"#utility.yul\":15534:15618   */\n      tag_418\n      jumpi\n        /* \"#utility.yul\":15590:15608   */\n      tag_419\n      tag_242\n      jump\t// in\n    tag_419:\n        /* \"#utility.yul\":15534:15618   */\n    tag_418:\n        /* \"#utility.yul\":15355:15624   */\n      pop\n        /* \"#utility.yul\":15304:15624   */\n      swap2\n      swap1\n      pop\n      jump\t// out\n        /* \"#utility.yul\":15630:15800   */\n    tag_243:\n        /* \"#utility.yul\":15770:15792   */\n      0x747820616c726561647920636f6e6669726d6564000000000000000000000000\n        /* \"#utility.yul\":15766:15767   */\n      0x00\n        /* \"#utility.yul\":15758:15764   */\n      dup3\n        /* \"#utility.yul\":15754:15768   */\n      add\n        /* \"#utility.yul\":15747:15793   */\n      mstore\n        /* \"#utility.yul\":15630:15800   */\n      pop\n      jump\t// out\n        /* \"#utility.yul\":15806:16172   */\n    tag_244:\n        /* \"#utility.yul\":15948:15951   */\n      0x00\n        /* \"#utility.yul\":15969:16036   */\n      tag_422\n        /* \"#utility.yul\":16033:16035   */\n      0x14\n        /* \"#utility.yul\":16028:16031   */\n      dup4\n        /* \"#utility.yul\":15969:16036   */\n      tag_232\n      jump\t// in\n    tag_422:\n        /* \"#utility.yul\":15962:16036   */\n      swap2\n      pop\n        /* \"#utility.yul\":16045:16138   */\n      tag_423\n        /* \"#utility.yul\":16134:16137   */\n      dup3\n        /* \"#utility.yul\":16045:16138   */\n      tag_243\n      jump\t// in\n    tag_423:\n        /* \"#utility.yul\":16163:16165   */\n      0x20\n        /* \"#utility.yul\":16158:16161   */\n      dup3\n        /* \"#utility.yul\":16154:16166   */\n      add\n        /* \"#utility.yul\":16147:16166   */\n      swap1\n      pop\n        /* \"#utility.yul\":15806:16172   */\n      swap2\n      swap1\n      pop\n      jump\t// out\n        /* \"#utility.yul\":16178:16597   */\n    tag_154:\n        /* \"#utility.yul\":16344:16348   */\n      0x00\n        /* \"#utility.yul\":16382:16384   */\n      0x20\n        /* \"#utility.yul\":16371:16380   */\n      dup3\n        /* \"#utility.yul\":16367:16385   */\n      add\n        /* \"#utility.yul\":16359:16385   */\n      swap1\n      pop\n        /* \"#utility.yul\":16431:16440   */\n      dup2\n        /* \"#utility.yul\":16425:16429   */\n      dup2\n        /* \"#utility.yul\":16421:16441   */\n      sub\n        /* \"#utility.yul\":16417:16418   */\n      0x00\n        /* \"#utility.yul\":16406:16415   */\n      dup4\n        /* \"#utility.yul\":16402:16419   */\n      add\n        /* \"#utility.yul\":16395:16442   */\n      mstore\n        /* \"#utility.yul\":16459:16590   */\n      tag_425\n        /* \"#utility.yul\":16585:16589   */\n      dup2\n        /* \"#utility.yul\":16459:16590   */\n      tag_244\n      jump\t// in\n    tag_425:\n        /* \"#utility.yul\":16451:16590   */\n      swap1\n      pop\n        /* \"#utility.yul\":16178:16597   */\n      swap2\n      swap1\n      pop\n      jump\t// out\n        /* \"#utility.yul\":16603:16794   */\n    tag_160:\n        /* \"#utility.yul\":16643:16646   */\n      0x00\n        /* \"#utility.yul\":16662:16682   */\n      tag_427\n        /* \"#utility.yul\":16680:16681   */\n      dup3\n        /* \"#utility.yul\":16662:16682   */\n      tag_197\n      jump\t// in\n    tag_427:\n        /* \"#utility.yul\":16657:16682   */\n      swap2\n      pop\n        /* \"#utility.yul\":16696:16716   */\n      tag_428\n        /* \"#utility.yul\":16714:16715   */\n      dup4\n        /* \"#utility.yul\":16696:16716   */\n      tag_197\n      jump\t// in\n    tag_428:\n        /* \"#utility.yul\":16691:16716   */\n      swap3\n      pop\n        /* \"#utility.yul\":16739:16740   */\n      dup3\n        /* \"#utility.yul\":16736:16737   */\n      dup3\n        /* \"#utility.yul\":16732:16741   */\n      add\n        /* \"#utility.yul\":16725:16741   */\n      swap1\n      pop\n        /* \"#utility.yul\":16760:16763   */\n      dup1\n        /* \"#utility.yul\":16757:16758   */\n      dup3\n        /* \"#utility.yul\":16754:16764   */\n      gt\n        /* \"#utility.yul\":16751:16787   */\n      iszero\n      tag_429\n      jumpi\n        /* \"#utility.yul\":16767:16785   */\n      tag_430\n      tag_241\n      jump\t// in\n    tag_430:\n        /* \"#utility.yul\":16751:16787   */\n    tag_429:\n        /* \"#utility.yul\":16603:16794   */\n      swap3\n      swap2\n      pop\n      pop\n      jump\t// out\n        /* \"#utility.yul\":16800:16940   */\n    tag_245:\n        /* \"#utility.yul\":16848:16852   */\n      0x00\n        /* \"#utility.yul\":16871:16874   */\n      dup2\n        /* \"#utility.yul\":16863:16874   */\n      swap1\n      pop\n        /* \"#utility.yul\":16894:16897   */\n      dup2\n        /* \"#utility.yul\":16891:16892   */\n      0x00\n        /* \"#utility.yul\":16884:16898   */\n      mstore\n        /* \"#utility.yul\":16928:16932   */\n      0x20\n        /* \"#utility.yul\":16925:16926   */\n      0x00\n        /* \"#utility.yul\":16915:16933   */\n      keccak256\n        /* \"#utility.yul\":16907:16933   */\n      swap1\n      pop\n        /* \"#utility.yul\":16800:16940   */\n      swap2\n      swap1\n      pop\n      jump\t// out\n        /* \"#utility.yul\":16946:17039   */\n    tag_246:\n        /* \"#utility.yul\":16983:16989   */\n      0x00\n        /* \"#utility.yul\":17030:17032   */\n      0x20\n        /* \"#utility.yul\":17025:17027   */\n      0x1f\n        /* \"#utility.yul\":17018:17023   */\n      dup4\n        /* \"#utility.yul\":17014:17028   */\n      add\n        /* \"#utility.yul\":17010:17033   */\n      div\n        /* \"#utility.yul\":17000:17033   */\n      swap1\n      pop\n        /* \"#utility.yul\":16946:17039   */\n      swap2\n      swap1\n      pop\n      jump\t// out\n        /* \"#utility.yul\":17045:17152   */\n    tag_247:\n        /* \"#utility.yul\":17089:17097   */\n      0x00\n        /* \"#utility.yul\":17139:17144   */\n      dup3\n        /* \"#utility.yul\":17133:17137   */\n      dup3\n        /* \"#utility.yul\":17129:17145   */\n      shl\n        /* \"#utility.yul\":17108:17145   */\n      swap1\n      pop\n        /* \"#utility.yul\":17045:17152   */\n      swap3\n      swap2\n      pop\n      pop\n      jump\t// out\n        /* \"#utility.yul\":17158:17551   */\n    tag_248:\n        /* \"#utility.yul\":17227:17233   */\n      0x00\n        /* \"#utility.yul\":17277:17278   */\n      0x08\n        /* \"#utility.yul\":17265:17275   */\n      dup4\n        /* \"#utility.yul\":17261:17279   */\n      mul\n        /* \"#utility.yul\":17300:17397   */\n      tag_435\n        /* \"#utility.yul\":17330:17396   */\n      0xffffffffffffffffffffffffffffffffffffffffffffffffffffffffffffffff\n        /* \"#utility.yul\":17319:17328   */\n      dup3\n        /* \"#utility.yul\":17300:17397   */\n      tag_247\n      jump\t// in\n    tag_435:\n        /* \"#utility.yul\":17418:17457   */\n      tag_436\n        /* \"#utility.yul\":17448:17456   */\n      dup7\n        /* \"#utility.yul\":17437:17446   */\n      dup4\n        /* \"#utility.yul\":17418:17457   */\n      tag_247\n      jump\t// in\n    tag_436:\n        /* \"#utility.yul\":17406:17457   */\n      swap6\n      pop\n        /* \"#utility.yul\":17490:17494   */\n      dup1\n        /* \"#utility.yul\":17486:17495   */\n      not\n        /* \"#utility.yul\":17479:17484   */\n      dup5\n        /* \"#utility.yul\":17475:17496   */\n      and\n        /* \"#utility.yul\":17466:17496   */\n      swap4\n      pop\n        /* \"#utility.yul\":17539:17543   */\n      dup1\n        /* \"#utility.yul\":17529:17537   */\n      dup7\n        /* \"#utility.yul\":17525:17544   */\n      and\n        /* \"#utility.yul\":17518:17523   */\n      dup5\n        /* \"#utility.yul\":17515:17545   */\n      or\n        /* \"#utility.yul\":17505:17545   */\n      swap3\n      pop\n        /* \"#utility.yul\":17234:17551   */\n      pop\n      pop\n        /* \"#utility.yul\":17158:17551   */\n      swap4\n      swap3\n      pop\n      pop\n      pop\n      jump\t// out\n        /* \"#utility.yul\":17557:17617   */\n    tag_249:\n        /* \"#utility.yul\":17585:17588   */\n      0x00\n        /* \"#utility.yul\":17606:17611   */\n      dup2\n        /* \"#utility.yul\":17599:17611   */\n      swap1\n      pop\n        /* \"#utility.yul\":17557:17617   */\n      swap2\n      swap1\n      pop\n      jump\t// out\n        /* \"#utility.yul\":17623:17765   */\n    tag_250:\n        /* \"#utility.yul\":17673:17682   */\n      0x00\n        /* \"#utility.yul\":17706:17759   */\n      tag_439\n        /* \"#utility.yul\":17724:17758   */\n      tag_440\n        /* \"#utility.yul\":17733:17757   */\n      tag_441\n        /* \"#utility.yul\":17751:17756   */\n      dup5\n        /* \"#utility.yul\":17733:17757   */\n      tag_197\n      jump\t// in\n    tag_441:\n        /* \"#utility.yul\":17724:17758   */\n      tag_249\n      jump\t// in\n    tag_440:\n        /* \"#utility.yul\":17706:17759   */\n      tag_197\n      jump\t// in\n    tag_439:\n        /* \"#utility.yul\":17693:17759   */\n      swap1\n      pop\n        /* \"#utility.yul\":17623:17765   */\n      swap2\n      swap1\n      pop\n      jump\t// out\n        /* \"#utility.yul\":17771:17846   */\n    tag_251:\n        /* \"#utility.yul\":17814:17817   */\n      0x00\n        /* \"#utility.yul\":17835:17840   */\n      dup2\n        /* \"#utility.yul\":17828:17840   */\n      swap1\n      pop\n        /* \"#utility.yul\":17771:17846   */\n      swap2\n      swap1\n      pop\n      jump\t// out\n        /* \"#utility.yul\":17852:18121   */\n    tag_252:\n        /* \"#utility.yul\":17962:18001   */\n      tag_444\n        /* \"#utility.yul\":17993:18000   */\n      dup4\n        /* \"#utility.yul\":17962:18001   */\n      tag_250\n      jump\t// in\n    tag_444:\n        /* \"#utility.yul\":18023:18114   */\n      tag_445\n        /* \"#utility.yul\":18072:18113   */\n      tag_446\n        /* \"#utility.yul\":18096:18112   */\n      dup3\n        /* \"#utility.yul\":18072:18113   */\n      tag_251\n      jump\t// in\n    tag_446:\n        /* \"#utility.yul\":18064:18070   */\n      dup5\n        /* \"#utility.yul\":18057:18061   */\n      dup5\n        /* \"#utility.yul\":18051:18062   */\n      sload\n        /* \"#utility.yul\":18023:18114   */\n      tag_248\n      jump\t// in\n    tag_445:\n        /* \"#utility.yul\":18017:18021   */\n      dup3\n        /* \"#utility.yul\":18010:18115   */\n      sstore\n        /* \"#utility.yul\":17928:18121   */\n      pop\n        /* \"#utility.yul\":17852:18121   */\n      pop\n      pop\n      pop\n      jump\t// out\n        /* \"#utility.yul\":18127:18200   */\n    tag_253:\n        /* \"#utility.yul\":18172:18175   */\n      0x00\n        /* \"#utility.yul\":18127:18200   */\n      swap1\n      jump\t// out\n        /* \"#utility.yul\":18206:18395   */\n    tag_254:\n        /* \"#utility.yul\":18283:18315   */\n      tag_449\n      tag_253\n      jump\t// in\n    tag_449:\n        /* \"#utility.yul\":18324:18389   */\n      tag_450\n        /* \"#utility.yul\":18382:18388   */\n      dup2\n        /* \"#utility.yul\":18374:18380   */\n      dup5\n        /* \"#utility.yul\":18368:18372   */\n      dup5\n        /* \"#utility.yul\":18324:18389   */\n      tag_252\n      jump\t// in\n    tag_450:\n        /* \"#utility.yul\":18259:18395   */\n      pop\n        /* \"#utility.yul\":18206:18395   */\n      pop\n      pop\n      jump\t// out\n        /* \"#utility.yul\":18401:18587   */\n    tag_255:\n        /* \"#utility.yul\":18461:18581   */\n    tag_452:\n        /* \"#utility.yul\":18478:18481   */\n      dup2\n        /* \"#utility.yul\":18471:18476   */\n      dup2\n        /* \"#utility.yul\":18468:18482   */\n      lt\n        /* \"#utility.yul\":18461:18581   */\n      iszero\n      tag_454\n      jumpi\n        /* \"#utility.yul\":18532:18571   */\n      tag_455\n        /* \"#utility.yul\":18569:18570   */\n      0x00\n        /* \"#utility.yul\":18562:18567   */\n      dup3\n        /* \"#utility.yul\":18532:18571   */\n      tag_254\n      jump\t// in\n    tag_455:\n        /* \"#utility.yul\":18505:18506   */\n      0x01\n        /* \"#utility.yul\":18498:18503   */\n      dup2\n        /* \"#utility.yul\":18494:18507   */\n      add\n        /* \"#utility.yul\":18485:18507   */\n      swap1\n      pop\n        /* \"#utility.yul\":18461:18581   */\n      jump(tag_452)\n    tag_454:\n        /* \"#utility.yul\":18401:18587   */\n      pop\n      pop\n      jump\t// out\n        /* \"#utility.yul\":18593:19134   */\n    tag_256:\n        /* \"#utility.yul\":18693:18695   */\n      0x1f\n        /* \"#utility.yul\":18688:18691   */\n      dup3\n        /* \"#utility.yul\":18685:18696   */\n      gt\n        /* \"#utility.yul\":18682:19127   */\n      iszero\n      tag_457\n      jumpi\n        /* \"#utility.yul\":18727:18764   */\n      tag_458\n        /* \"#utility.yul\":18758:18763   */\n      dup2\n        /* \"#utility.yul\":18727:18764   */\n      tag_245\n      jump\t// in\n    tag_458:\n        /* \"#utility.yul\":18810:18839   */\n      tag_459\n        /* \"#utility.yul\":18828:18838   */\n      dup5\n        /* \"#utility.yul\":18810:18839   */\n      tag_246\n      jump\t// in\n    tag_459:\n        /* \"#utility.yul\":18800:18808   */\n      dup2\n        /* \"#utility.yul\":18796:18840   */\n      add\n        /* \"#utility.yul\":18993:18995   */\n      0x20\n        /* \"#utility.yul\":18981:18991   */\n      dup6\n        /* \"#utility.yul\":18978:18996   */\n      lt\n        /* \"#utility.yul\":18975:19024   */\n      iszero\n      tag_460\n      jumpi\n        /* \"#utility.yul\":19014:19022   */\n      dup2\n        /* \"#utility.yul\":18999:19022   */\n      swap1\n      pop\n        /* \"#utility.yul\":18975:19024   */\n    tag_460:\n        /* \"#utility.yul\":19037:19117   */\n      tag_461\n        /* \"#utility.yul\":19093:19115   */\n      tag_462\n        /* \"#utility.yul\":19111:19114   */\n      dup6\n        /* \"#utility.yul\":19093:19115   */\n      tag_246\n      jump\t// in\n    tag_462:\n        /* \"#utility.yul\":19083:19091   */\n      dup4\n        /* \"#utility.yul\":19079:19116   */\n      add\n        /* \"#utility.yul\":19066:19077   */\n      dup3\n        /* \"#utility.yul\":19037:19117   */\n      tag_255\n      jump\t// in\n    tag_461:\n        /* \"#utility.yul\":18697:19127   */\n      pop\n      pop\n        /* \"#utility.yul\":18682:19127   */\n    tag_457:\n        /* \"#utility.yul\":18593:19134   */\n      pop\n      pop\n      pop\n      jump\t// out\n        /* \"#utility.yul\":19140:19257   */\n    tag_257:\n        /* \"#utility.yul\":19194:19202   */\n      0x00\n        /* \"#utility.yul\":19244:19249   */\n      dup3\n        /* \"#utility.yul\":19238:19242   */\n      dup3\n        /* \"#utility.yul\":19234:19250   */\n      shr\n        /* \"#utility.yul\":19213:19250   */\n      swap1\n      pop\n        /* \"#utility.yul\":19140:19257   */\n      swap3\n      swap2\n      pop\n      pop\n      jump\t// out\n        /* \"#utility.yul\":19263:19432   */\n    tag_258:\n        /* \"#utility.yul\":19307:19313   */\n      0x00\n        /* \"#utility.yul\":19340:19391   */\n      tag_465\n        /* \"#utility.yul\":19388:19389   */\n      0x00\n        /* \"#utility.yul\":19384:19390   */\n      not\n        /* \"#utility.yul\":19376:19381   */\n      dup5\n        /* \"#utility.yul\":19373:19374   */\n      0x08\n        /* \"#utility.yul\":19369:19382   */\n      mul\n        /* \"#utility.yul\":19340:19391   */\n      tag_257\n      jump\t// in\n    tag_465:\n        /* \"#utility.yul\":19336:19392   */\n      not\n        /* \"#utility.yul\":19421:19425   */\n      dup1\n        /* \"#utility.yul\":19415:19419   */\n      dup4\n        /* \"#utility.yul\":19411:19426   */\n      and\n        /* \"#utility.yul\":19401:19426   */\n      swap2\n      pop\n        /* \"#utility.yul\":19314:19432   */\n      pop\n        /* \"#utility.yul\":19263:19432   */\n      swap3\n      swap2\n      pop\n      pop\n      jump\t// out\n        /* \"#utility.yul\":19437:19732   */\n    tag_259:\n        /* \"#utility.yul\":19513:19517   */\n      0x00\n        /* \"#utility.yul\":19659:19688   */\n      tag_467\n        /* \"#utility.yul\":19684:19687   */\n      dup4\n        /* \"#utility.yul\":19678:19682   */\n      dup4\n        /* \"#utility.yul\":19659:19688   */\n      tag_258\n      jump\t// in\n    tag_467:\n        /* \"#utility.yul\":19651:19688   */\n      swap2\n      pop\n        /* \"#utility.yul\":19721:19724   */\n      dup3\n        /* \"#utility.yul\":19718:19719   */\n      0x02\n        /* \"#utility.yul\":19714:19725   */\n      mul\n        /* \"#utility.yul\":19708:19712   */\n      dup3\n        /* \"#utility.yul\":19705:19726   */\n      or\n        /* \"#utility.yul\":19697:19726   */\n      swap1\n      pop\n        /* \"#utility.yul\":19437:19732   */\n      swap3\n      swap2\n      pop\n      pop\n      jump\t// out\n        /* \"#utility.yul\":19737:21127   */\n    tag_167:\n        /* \"#utility.yul\":19852:19888   */\n      tag_469\n        /* \"#utility.yul\":19884:19887   */\n      dup3\n        /* \"#utility.yul\":19852:19888   */\n      tag_211\n      jump\t// in\n    tag_469:\n        /* \"#utility.yul\":19953:19971   */\n      0xffffffffffffffff\n        /* \"#utility.yul\":19945:19951   */\n      dup2\n        /* \"#utility.yul\":19942:19972   */\n      gt\n        /* \"#utility.yul\":19939:19995   */\n      iszero\n      tag_470\n      jumpi\n        /* \"#utility.yul\":19975:19993   */\n      tag_471\n      tag_225\n      jump\t// in\n    tag_471:\n        /* \"#utility.yul\":19939:19995   */\n    tag_470:\n        /* \"#utility.yul\":20019:20057   */\n      tag_472\n        /* \"#utility.yul\":20051:20055   */\n      dup3\n        /* \"#utility.yul\":20045:20056   */\n      sload\n        /* \"#utility.yul\":20019:20057   */\n      tag_122\n      jump\t// in\n    tag_472:\n        /* \"#utility.yul\":20104:20170   */\n      tag_473\n        /* \"#utility.yul\":20163:20169   */\n      dup3\n        /* \"#utility.yul\":20155:20161   */\n      dup3\n        /* \"#utility.yul\":20149:20153   */\n      dup6\n        /* \"#utility.yul\":20104:20170   */\n      tag_256\n      jump\t// in\n    tag_473:\n        /* \"#utility.yul\":20197:20198   */\n      0x00\n        /* \"#utility.yul\":20221:20225   */\n      0x20\n        /* \"#utility.yul\":20208:20225   */\n      swap1\n      pop\n        /* \"#utility.yul\":20253:20255   */\n      0x1f\n        /* \"#utility.yul\":20245:20251   */\n      dup4\n        /* \"#utility.yul\":20242:20256   */\n      gt\n        /* \"#utility.yul\":20270:20271   */\n      0x01\n        /* \"#utility.yul\":20265:20882   */\n      dup2\n      eq\n      tag_475\n      jumpi\n        /* \"#utility.yul\":20926:20927   */\n      0x00\n        /* \"#utility.yul\":20943:20949   */\n      dup5\n        /* \"#utility.yul\":20940:21017   */\n      iszero\n      tag_476\n      jumpi\n        /* \"#utility.yul\":20992:21001   */\n      dup3\n        /* \"#utility.yul\":20987:20990   */\n      dup8\n        /* \"#utility.yul\":20983:21002   */\n      add\n        /* \"#utility.yul\":20977:21003   */\n      mload\n        /* \"#utility.yul\":20968:21003   */\n      swap1\n      pop\n        /* \"#utility.yul\":20940:21017   */\n    tag_476:\n        /* \"#utility.yul\":21043:21110   */\n      tag_477\n        /* \"#utility.yul\":21103:21109   */\n      dup6\n        /* \"#utility.yul\":21096:21101   */\n      dup3\n        /* \"#utility.yul\":21043:21110   */\n      tag_259\n      jump\t// in\n    tag_477:\n        /* \"#utility.yul\":21037:21041   */\n      dup7\n        /* \"#utility.yul\":21030:21111   */\n      sstore\n        /* \"#utility.yul\":20899:21121   */\n      pop\n        /* \"#utility.yul\":20235:21121   */\n      jump(tag_474)\n        /* \"#utility.yul\":20265:20882   */\n    tag_475:\n        /* \"#utility.yul\":20317:20321   */\n      0x1f\n        /* \"#utility.yul\":20313:20322   */\n      not\n        /* \"#utility.yul\":20305:20311   */\n      dup5\n        /* \"#utility.yul\":20301:20323   */\n      and\n        /* \"#utility.yul\":20351:20387   */\n      tag_478\n        /* \"#utility.yul\":20382:20386   */\n      dup7\n        /* \"#utility.yul\":20351:20387   */\n      tag_245\n      jump\t// in\n    tag_478:\n        /* \"#utility.yul\":20409:20410   */\n      0x00\n        /* \"#utility.yul\":20423:20631   */\n    tag_479:\n        /* \"#utility.yul\":20437:20444   */\n      dup3\n        /* \"#utility.yul\":20434:20435   */\n      dup2\n        /* \"#utility.yul\":20431:20445   */\n      lt\n        /* \"#utility.yul\":20423:20631   */\n      iszero\n      tag_481\n      jumpi\n        /* \"#utility.yul\":20516:20525   */\n      dup5\n        /* \"#utility.yul\":20511:20514   */\n      dup10\n        /* \"#utility.yul\":20507:20526   */\n      add\n        /* \"#utility.yul\":20501:20527   */\n      mload\n        /* \"#utility.yul\":20493:20499   */\n      dup3\n        /* \"#utility.yul\":20486:20528   */\n      sstore\n        /* \"#utility.yul\":20567:20568   */\n      0x01\n        /* \"#utility.yul\":20559:20565   */\n      dup3\n        /* \"#utility.yul\":20555:20569   */\n      add\n        /* \"#utility.yul\":20545:20569   */\n      swap2\n      pop\n        /* \"#utility.yul\":20614:20616   */\n      0x20\n        /* \"#utility.yul\":20603:20612   */\n      dup6\n        /* \"#utility.yul\":20599:20617   */\n      add\n        /* \"#utility.yul\":20586:20617   */\n      swap5\n      pop\n        /* \"#utility.yul\":20460:20464   */\n      0x20\n        /* \"#utility.yul\":20457:20458   */\n      dup2\n        /* \"#utility.yul\":20453:20465   */\n      add\n        /* \"#utility.yul\":20448:20465   */\n      swap1\n      pop\n        /* \"#utility.yul\":20423:20631   */\n      jump(tag_479)\n    tag_481:\n        /* \"#utility.yul\":20659:20665   */\n      dup7\n        /* \"#utility.yul\":20650:20657   */\n      dup4\n        /* \"#utility.yul\":20647:20666   */\n      lt\n        /* \"#utility.yul\":20644:20823   */\n      iszero\n      tag_482\n      jumpi\n        /* \"#utility.yul\":20717:20726   */\n      dup5\n        /* \"#utility.yul\":20712:20715   */\n      dup10\n        /* \"#utility.yul\":20708:20727   */\n      add\n        /* \"#utility.yul\":20702:20728   */\n      mload\n        /* \"#utility.yul\":20760:20808   */\n      tag_483\n        /* \"#utility.yul\":20802:20806   */\n      0x1f\n        /* \"#utility.yul\":20794:20800   */\n      dup10\n        /* \"#utility.yul\":20790:20807   */\n      and\n        /* \"#utility.yul\":20779:20788   */\n      dup3\n        /* \"#utility.yul\":20760:20808   */\n      tag_258\n      jump\t// in\n    tag_483:\n        /* \"#utility.yul\":20752:20758   */\n      dup4\n        /* \"#utility.yul\":20745:20809   */\n      sstore\n        /* \"#utility.yul\":20667:20823   */\n      pop\n        /* \"#utility.yul\":20644:20823   */\n    tag_482:\n        /* \"#utility.yul\":20869:20870   */\n      0x01\n        /* \"#utility.yul\":20865:20866   */\n      0x02\n        /* \"#utility.yul\":20857:20863   */\n      dup9\n        /* \"#utility.yul\":20853:20867   */\n      mul\n        /* \"#utility.yul\":20849:20871   */\n      add\n        /* \"#utility.yul\":20843:20847   */\n      dup9\n        /* \"#utility.yul\":20836:20872   */\n      sstore\n        /* \"#utility.yul\":20272:20882   */\n      pop\n      pop\n      pop\n        /* \"#utility.yul\":20235:21121   */\n    tag_474:\n      pop\n        /* \"#utility.yul\":19827:21127   */\n      pop\n      pop\n      pop\n        /* \"#utility.yul\":19737:21127   */\n      pop\n      pop\n      jump\t// out\n        /* \"#utility.yul\":21133:21552   */\n    tag_169:\n        /* \"#utility.yul\":21272:21276   */\n      0x00\n        /* \"#utility.yul\":21310:21312   */\n      0x40\n        /* \"#utility.yul\":21299:21308   */\n      dup3\n        /* \"#utility.yul\":21295:21313   */\n      add\n        /* \"#utility.yul\":21287:21313   */\n      swap1\n      pop\n        /* \"#utility.yul\":21323:21394   */\n      tag_485\n        /* \"#utility.yul\":21391:21392   */\n      0x00\n        /* \"#utility.yul\":21380:21389   */\n      dup4\n        /* \"#utility.yul\":21376:21393   */\n      add\n        /* \"#utility.yul\":21367:21373   */\n      dup6\n        /* \"#utility.yul\":21323:21394   */\n      tag_198\n      jump\t// in\n    tag_485:\n        /* \"#utility.yul\":21441:21450   */\n      dup2\n        /* \"#utility.yul\":21435:21439   */\n      dup2\n        /* \"#utility.yul\":21431:21451   */\n      sub\n        /* \"#utility.yul\":21426:21428   */\n      0x20\n        /* \"#utility.yul\":21415:21424   */\n      dup4\n        /* \"#utility.yul\":21411:21429   */\n      add\n        /* \"#utility.yul\":21404:21452   */\n      mstore\n        /* \"#utility.yul\":21469:21545   */\n      tag_486\n        /* \"#utility.yul\":21540:21544   */\n      dup2\n        /* \"#utility.yul\":21531:21537   */\n      dup5\n        /* \"#utility.yul\":21469:21545   */\n      tag_215\n      jump\t// in\n    tag_486:\n        /* \"#utility.yul\":21461:21545   */\n      swap1\n      pop\n        /* \"#utility.yul\":21133:21552   */\n      swap4\n      swap3\n      pop\n      pop\n      pop\n      jump\t// out\n        /* \"#utility.yul\":21558:21725   */\n    tag_260:\n        /* \"#utility.yul\":21698:21717   */\n      0x63616e6e6f742065786563757465207478000000000000000000000000000000\n        /* \"#utility.yul\":21694:21695   */\n      0x00\n        /* \"#utility.yul\":21686:21692   */\n      dup3\n        /* \"#utility.yul\":21682:21696   */\n      add\n        /* \"#utility.yul\":21675:21718   */\n      mstore\n        /* \"#utility.yul\":21558:21725   */\n      pop\n      jump\t// out\n        /* \"#utility.yul\":21731:22097   */\n    tag_261:\n        /* \"#utility.yul\":21873:21876   */\n      0x00\n        /* \"#utility.yul\":21894:21961   */\n      tag_489\n        /* \"#utility.yul\":21958:21960   */\n      0x11\n        /* \"#utility.yul\":21953:21956   */\n      dup4\n        /* \"#utility.yul\":21894:21961   */\n      tag_232\n      jump\t// in\n    tag_489:\n        /* \"#utility.yul\":21887:21961   */\n      swap2\n      pop\n        /* \"#utility.yul\":21970:22063   */\n      tag_490\n        /* \"#utility.yul\":22059:22062   */\n      dup3\n        /* \"#utility.yul\":21970:22063   */\n      tag_260\n      jump\t// in\n    tag_490:\n        /* \"#utility.yul\":22088:22090   */\n      0x20\n        /* \"#utility.yul\":22083:22086   */\n      dup3\n        /* \"#utility.yul\":22079:22091   */\n      add\n        /* \"#utility.yul\":22072:22091   */\n      swap1\n      pop\n        /* \"#utility.yul\":21731:22097   */\n      swap2\n      swap1\n      pop\n      jump\t// out\n        /* \"#utility.yul\":22103:22522   */\n    tag_188:\n        /* \"#utility.yul\":22269:22273   */\n      0x00\n        /* \"#utility.yul\":22307:22309   */\n      0x20\n        /* \"#utility.yul\":22296:22305   */\n      dup3\n        /* \"#utility.yul\":22292:22310   */\n      add\n        /* \"#utility.yul\":22284:22310   */\n      swap1\n      pop\n        /* \"#utility.yul\":22356:22365   */\n      dup2\n        /* \"#utility.yul\":22350:22354   */\n      dup2\n        /* \"#utility.yul\":22346:22366   */\n      sub\n        /* \"#utility.yul\":22342:22343   */\n      0x00\n        /* \"#utility.yul\":22331:22340   */\n      dup4\n        /* \"#utility.yul\":22327:22344   */\n      add\n        /* \"#utility.yul\":22320:22367   */\n      mstore\n        /* \"#utility.yul\":22384:22515   */\n      tag_492\n        /* \"#utility.yul\":22510:22514   */\n      dup2\n        /* \"#utility.yul\":22384:22515   */\n      tag_261\n      jump\t// in\n    tag_492:\n        /* \"#utility.yul\":22376:22515   */\n      swap1\n      pop\n        /* \"#utility.yul\":22103:22522   */\n      swap2\n      swap1\n      pop\n      jump\t// out\n        /* \"#utility.yul\":22528:22675   */\n    tag_262:\n        /* \"#utility.yul\":22629:22640   */\n      0x00\n        /* \"#utility.yul\":22666:22669   */\n      dup2\n        /* \"#utility.yul\":22651:22669   */\n      swap1\n      pop\n        /* \"#utility.yul\":22528:22675   */\n      swap3\n      swap2\n      pop\n      pop\n      jump\t// out\n        /* \"#utility.yul\":22703:23573   */\n    tag_263:\n        /* \"#utility.yul\":22804:22807   */\n      0x00\n        /* \"#utility.yul\":22841:22846   */\n      dup2\n        /* \"#utility.yul\":22835:22847   */\n      sload\n        /* \"#utility.yul\":22870:22906   */\n      tag_495\n        /* \"#utility.yul\":22896:22905   */\n      dup2\n        /* \"#utility.yul\":22870:22906   */\n      tag_122\n      jump\t// in\n    tag_495:\n        /* \"#utility.yul\":22922:23010   */\n      tag_496\n        /* \"#utility.yul\":23003:23009   */\n      dup2\n        /* \"#utility.yul\":22998:23001   */\n      dup7\n        /* \"#utility.yul\":22922:23010   */\n      tag_262\n      jump\t// in\n    tag_496:\n        /* \"#utility.yul\":22915:23010   */\n      swap5\n      pop\n        /* \"#utility.yul\":23041:23042   */\n      0x01\n        /* \"#utility.yul\":23030:23039   */\n      dup3\n        /* \"#utility.yul\":23026:23043   */\n      and\n        /* \"#utility.yul\":23057:23058   */\n      0x00\n        /* \"#utility.yul\":23052:23218   */\n      dup2\n      eq\n      tag_498\n      jumpi\n        /* \"#utility.yul\":23232:23233   */\n      0x01\n        /* \"#utility.yul\":23227:23567   */\n      dup2\n      eq\n      tag_499\n      jumpi\n        /* \"#utility.yul\":23019:23567   */\n      jump(tag_497)\n        /* \"#utility.yul\":23052:23218   */\n    tag_498:\n        /* \"#utility.yul\":23136:23140   */\n      0xff\n        /* \"#utility.yul\":23132:23141   */\n      not\n        /* \"#utility.yul\":23121:23130   */\n      dup4\n        /* \"#utility.yul\":23117:23142   */\n      and\n        /* \"#utility.yul\":23112:23115   */\n      dup7\n        /* \"#utility.yul\":23105:23143   */\n      mstore\n        /* \"#utility.yul\":23198:23204   */\n      dup2\n        /* \"#utility.yul\":23191:23205   */\n      iszero\n        /* \"#utility.yul\":23184:23206   */\n      iszero\n        /* \"#utility.yul\":23176:23182   */\n      dup3\n        /* \"#utility.yul\":23172:23207   */\n      mul\n        /* \"#utility.yul\":23167:23170   */\n      dup7\n        /* \"#utility.yul\":23163:23208   */\n      add\n        /* \"#utility.yul\":23156:23208   */\n      swap4\n      pop\n        /* \"#utility.yul\":23052:23218   */\n      jump(tag_497)\n        /* \"#utility.yul\":23227:23567   */\n    tag_499:\n        /* \"#utility.yul\":23294:23331   */\n      tag_500\n        /* \"#utility.yul\":23325:23330   */\n      dup6\n        /* \"#utility.yul\":23294:23331   */\n      tag_245\n      jump\t// in\n    tag_500:\n        /* \"#utility.yul\":23353:23354   */\n      0x00\n        /* \"#utility.yul\":23367:23521   */\n    tag_501:\n        /* \"#utility.yul\":23381:23387   */\n      dup4\n        /* \"#utility.yul\":23378:23379   */\n      dup2\n        /* \"#utility.yul\":23375:23388   */\n      lt\n        /* \"#utility.yul\":23367:23521   */\n      iszero\n      tag_503\n      jumpi\n        /* \"#utility.yul\":23455:23462   */\n      dup2\n        /* \"#utility.yul\":23449:23463   */\n      sload\n        /* \"#utility.yul\":23445:23446   */\n      dup2\n        /* \"#utility.yul\":23440:23443   */\n      dup10\n        /* \"#utility.yul\":23436:23447   */\n      add\n        /* \"#utility.yul\":23429:23464   */\n      mstore\n        /* \"#utility.yul\":23505:23506   */\n      0x01\n        /* \"#utility.yul\":23496:23503   */\n      dup3\n        /* \"#utility.yul\":23492:23507   */\n      add\n        /* \"#utility.yul\":23481:23507   */\n      swap2\n      pop\n        /* \"#utility.yul\":23403:23407   */\n      0x20\n        /* \"#utility.yul\":23400:23401   */\n      dup2\n        /* \"#utility.yul\":23396:23408   */\n      add\n        /* \"#utility.yul\":23391:23408   */\n      swap1\n      pop\n        /* \"#utility.yul\":23367:23521   */\n      jump(tag_501)\n    tag_503:\n        /* \"#utility.yul\":23550:23556   */\n      dup4\n        /* \"#utility.yul\":23545:23548   */\n      dup9\n        /* \"#utility.yul\":23541:23557   */\n      add\n        /* \"#utility.yul\":23534:23557   */\n      swap6\n      pop\n        /* \"#utility.yul\":23234:23567   */\n      pop\n      pop\n        /* \"#utility.yul\":23019:23567   */\n    tag_497:\n      pop\n        /* \"#utility.yul\":22808:23573   */\n      pop\n      pop\n        /* \"#utility.yul\":22703:23573   */\n      swap3\n      swap2\n      pop\n      pop\n      jump\t// out\n        /* \"#utility.yul\":23579:23844   */\n    tag_190:\n        /* \"#utility.yul\":23706:23709   */\n      0x00\n        /* \"#utility.yul\":23728:23818   */\n      tag_505\n        /* \"#utility.yul\":23814:23817   */\n      dup3\n        /* \"#utility.yul\":23805:23811   */\n      dup5\n        /* \"#utility.yul\":23728:23818   */\n      tag_263\n      jump\t// in\n    tag_505:\n        /* \"#utility.yul\":23721:23818   */\n      swap2\n      pop\n        /* \"#utility.yul\":23835:23838   */\n      dup2\n        /* \"#utility.yul\":23828:23838   */\n      swap1\n      pop\n        /* \"#utility.yul\":23579:23844   */\n      swap3\n      swap2\n      pop\n      pop\n      jump\t// out\n        /* \"#utility.yul\":23850:24009   */\n    tag_264:\n        /* \"#utility.yul\":23990:24001   */\n      0x7478206661696c65640000000000000000000000000000000000000000000000\n        /* \"#utility.yul\":23986:23987   */\n      0x00\n        /* \"#utility.yul\":23978:23984   */\n      dup3\n        /* \"#utility.yul\":23974:23988   */\n      add\n        /* \"#utility.yul\":23967:24002   */\n      mstore\n        /* \"#utility.yul\":23850:24009   */\n      pop\n      jump\t// out\n        /* \"#utility.yul\":24015:24380   */\n    tag_265:\n        /* \"#utility.yul\":24157:24160   */\n      0x00\n        /* \"#utility.yul\":24178:24244   */\n      tag_508\n        /* \"#utility.yul\":24242:24243   */\n      0x09\n        /* \"#utility.yul\":24237:24240   */\n      dup4\n        /* \"#utility.yul\":24178:24244   */\n      tag_232\n      jump\t// in\n    tag_508:\n        /* \"#utility.yul\":24171:24244   */\n      swap2\n      pop\n        /* \"#utility.yul\":24253:24346   */\n      tag_509\n        /* \"#utility.yul\":24342:24345   */\n      dup3\n        /* \"#utility.yul\":24253:24346   */\n      tag_264\n      jump\t// in\n    tag_509:\n        /* \"#utility.yul\":24371:24373   */\n      0x20\n        /* \"#utility.yul\":24366:24369   */\n      dup3\n        /* \"#utility.yul\":24362:24374   */\n      add\n        /* \"#utility.yul\":24355:24374   */\n      swap1\n      pop\n        /* \"#utility.yul\":24015:24380   */\n      swap2\n      swap1\n      pop\n      jump\t// out\n        /* \"#utility.yul\":24386:24805   */\n    tag_196:\n        /* \"#utility.yul\":24552:24556   */\n      0x00\n        /* \"#utility.yul\":24590:24592   */\n      0x20\n        /* \"#utility.yul\":24579:24588   */\n      dup3\n        /* \"#utility.yul\":24575:24593   */\n      add\n        /* \"#utility.yul\":24567:24593   */\n      swap1\n      pop\n        /* \"#utility.yul\":24639:24648   */\n      dup2\n        /* \"#utility.yul\":24633:24637   */\n      dup2\n        /* \"#utility.yul\":24629:24649   */\n      sub\n        /* \"#utility.yul\":24625:24626   */\n      0x00\n        /* \"#utility.yul\":24614:24623   */\n      dup4\n        /* \"#utility.yul\":24610:24627   */\n      add\n        /* \"#utility.yul\":24603:24650   */\n      mstore\n        /* \"#utility.yul\":24667:24798   */\n      tag_511\n        /* \"#utility.yul\":24793:24797   */\n      dup2\n        /* \"#utility.yul\":24667:24798   */\n      tag_265\n      jump\t// in\n    tag_511:\n        /* \"#utility.yul\":24659:24798   */\n      swap1\n      pop\n        /* \"#utility.yul\":24386:24805   */\n      swap2\n      swap1\n      pop\n      jump\t// out\n\n    auxdata: 0xa2646970667358221220256ad271e9d31b98bc7600926995bfafd88b9ab27abf65d6cda693d24dad3e1064736f6c63430008160033\n}\n",
				"bytecode": {
					"linkReferences": {},
					"object": "608060405234801562000010575f80fd5b50604051620026d2380380620026d28339818101604052810190620000369190620005b4565b5f8351116200007c576040517f08c379a000000000000000000000000000000000000000000000000000000000815260040162000073906200068a565b60405180910390fd5b5f821180156200008d575082518211155b620000cf576040517f08c379a0000000000000000000000000000000000000000000000000000000008152600401620000c6906200071e565b60405180910390fd5b8073ffffffffffffffffffffffffffffffffffffffff165f73ffffffffffffffffffffffffffffffffffffffff161462000140576040517f08c379a000000000000000000000000000000000000000000000000000000000815260040162000137906200078c565b60405180910390fd5b5f5b83518110156200032d575f848281518110620001635762000162620007ac565b5b602002602001015190505f73ffffffffffffffffffffffffffffffffffffffff168173ffffffffffffffffffffffffffffffffffffffff1603620001de576040517f08c379a0000000000000000000000000000000000000000000000000000000008152600401620001d59062000827565b60405180910390fd5b60015f8273ffffffffffffffffffffffffffffffffffffffff1673ffffffffffffffffffffffffffffffffffffffff1681526020019081526020015f205f9054906101000a900460ff16156200026b576040517f08c379a0000000000000000000000000000000000000000000000000000000008152600401620002629062000895565b60405180910390fd5b6001805f8373ffffffffffffffffffffffffffffffffffffffff1673ffffffffffffffffffffffffffffffffffffffff1681526020019081526020015f205f6101000a81548160ff0219169083151502179055505f81908060018154018082558091505060019003905f5260205f20015f9091909190916101000a81548173ffffffffffffffffffffffffffffffffffffffff021916908373ffffffffffffffffffffffffffffffffffffffff16021790555050808060010191505062000142565b5081600281905550600581908060018154018082558091505060019003905f5260205f20015f9091909190916101000a81548173ffffffffffffffffffffffffffffffffffffffff021916908373ffffffffffffffffffffffffffffffffffffffff160217905550505050620008b5565b5f604051905090565b5f80fd5b5f80fd5b5f80fd5b5f601f19601f8301169050919050565b7f4e487b71000000000000000000000000000000000000000000000000000000005f52604160045260245ffd5b620003fb82620003b3565b810181811067ffffffffffffffff821117156200041d576200041c620003c3565b5b80604052505050565b5f620004316200039e565b90506200043f8282620003f0565b919050565b5f67ffffffffffffffff821115620004615762000460620003c3565b5b602082029050602081019050919050565b5f80fd5b5f73ffffffffffffffffffffffffffffffffffffffff82169050919050565b5f620004a18262000476565b9050919050565b620004b38162000495565b8114620004be575f80fd5b50565b5f81519050620004d181620004a8565b92915050565b5f620004ed620004e78462000444565b62000426565b9050808382526020820190506020840283018581111562000513576200051262000472565b5b835b818110156200054057806200052b8882620004c1565b84526020840193505060208101905062000515565b5050509392505050565b5f82601f830112620005615762000560620003af565b5b815162000573848260208601620004d7565b91505092915050565b5f819050919050565b62000590816200057c565b81146200059b575f80fd5b50565b5f81519050620005ae8162000585565b92915050565b5f805f60608486031215620005ce57620005cd620003a7565b5b5f84015167ffffffffffffffff811115620005ee57620005ed620003ab565b5b620005fc868287016200054a565b93505060206200060f868287016200059e565b92505060406200062286828701620004c1565b9150509250925092565b5f82825260208201905092915050565b7f6f776e65722072657175697265640000000000000000000000000000000000005f82015250565b5f62000672600e836200062c565b91506200067f826200063c565b602082019050919050565b5f6020820190508181035f830152620006a38162000664565b9050919050565b7f696e76616c6964206e756d626572206f66207265717572656420636f6e6669725f8201527f6d6174696f6e7300000000000000000000000000000000000000000000000000602082015250565b5f620007066027836200062c565b91506200071382620006aa565b604082019050919050565b5f6020820190508181035f8301526200073781620006f8565b9050919050565b7f696e76616c6964207472616465722070656f706c6500000000000000000000005f82015250565b5f620007746015836200062c565b915062000781826200073e565b602082019050919050565b5f6020820190508181035f830152620007a58162000766565b9050919050565b7f4e487b71000000000000000000000000000000000000000000000000000000005f52603260045260245ffd5b7f696e76616c6964206f776e6572000000000000000000000000000000000000005f82015250565b5f6200080f600d836200062c565b91506200081c82620007d9565b602082019050919050565b5f6020820190508181035f830152620008408162000801565b9050919050565b7f6f776e65722065786973746564000000000000000000000000000000000000005f82015250565b5f6200087d600d836200062c565b91506200088a8262000847565b602082019050919050565b5f6020820190508181035f830152620008ae816200086f565b9050919050565b611e0f80620008c35f395ff3fe6080604052600436106100c5575f3560e01c80639ace38c21161007e578063c01a8c8411610058578063c01a8c841461030c578063c642747414610334578063d0549b851461035c578063ee22610b146103865761011c565b80639ace38c214610266578063a0e67e2b146102a6578063a401bbac146102d05761011c565b8063025e7c271461012057806320ea8d861461015c5780632e7700f0146101845780632f54bf6e146101ae57806333ea3dc8146101ea57806380f59a651461022a5761011c565b3661011c573373ffffffffffffffffffffffffffffffffffffffff167f90890809c654f11d6e72a28fa60149770a0d11ec6c92319d6ceb2bb0a4ea1a153447604051610112929190611185565b60405180910390a2005b5f80fd5b34801561012b575f80fd5b50610146600480360381019061014191906111e7565b6103ae565b6040516101539190611251565b60405180910390f35b348015610167575f80fd5b50610182600480360381019061017d91906111e7565b6103e8565b005b34801561018f575f80fd5b506101986106ad565b6040516101a5919061126a565b60405180910390f35b3480156101b9575f80fd5b506101d460048036038101906101cf91906112ad565b6106b9565b6040516101e191906112f2565b60405180910390f35b3480156101f5575f80fd5b50610210600480360381019061020b91906111e7565b6106d6565b604051610221959493929190611395565b60405180910390f35b348015610235575f80fd5b50610250600480360381019061024b91906113ed565b6107df565b60405161025d91906112f2565b60405180910390f35b348015610271575f80fd5b5061028c600480360381019061028791906111e7565b610809565b60405161029d959493929190611395565b60405180910390f35b3480156102b1575f80fd5b506102ba6108fb565b6040516102c791906114e2565b60405180910390f35b3480156102db575f80fd5b506102f660048036038101906102f191906111e7565b610985565b6040516103039190611251565b60405180910390f35b348015610317575f80fd5b50610332600480360381019061032d91906111e7565b6109c0565b005b34801561033f575f80fd5b5061035a6004803603810190610355919061162e565b610c89565b005b348015610367575f80fd5b50610370610e7f565b60405161037d919061126a565b60405180910390f35b348015610391575f80fd5b506103ac60048036038101906103a791906111e7565b610e85565b005b5f81815481106103bc575f80fd5b905f5260205f20015f915054906101000a900473ffffffffffffffffffffffffffffffffffffffff1681565b60015f3373ffffffffffffffffffffffffffffffffffffffff1673ffffffffffffffffffffffffffffffffffffffff1681526020019081526020015f205f9054906101000a900460ff16610471576040517f08c379a0000000000000000000000000000000000000000000000000000000008152600401610468906116f4565b60405180910390fd5b8060048054905081106104b9576040517f08c379a00000000000000000000000000000000000000000000000000000000081526004016104b09061175c565b60405180910390fd5b81600481815481106104ce576104cd61177a565b5b905f5260205f2090600502016003015f9054906101000a900460ff161561052a576040517f08c379a0000000000000000000000000000000000000000000000000000000008152600401610521906117f1565b60405180910390fd5b5f6004848154811061053f5761053e61177a565b5b905f5260205f209060050201905060035f8581526020019081526020015f205f3373ffffffffffffffffffffffffffffffffffffffff1673ffffffffffffffffffffffffffffffffffffffff1681526020019081526020015f205f9054906101000a900460ff166105e5576040517f08c379a00000000000000000000000000000000000000000000000000000000081526004016105dc90611859565b60405180910390fd5b6001816004015f8282546105f991906118a4565b925050819055505f60035f8681526020019081526020015f205f3373ffffffffffffffffffffffffffffffffffffffff1673ffffffffffffffffffffffffffffffffffffffff1681526020019081526020015f205f6101000a81548160ff021916908315150217905550833373ffffffffffffffffffffffffffffffffffffffff167ff0dca620e2e81f7841d07bcc105e1704fb01475b278a9d4c236e1c62945edd5560405160405180910390a350505050565b5f600480549050905090565b6001602052805f5260405f205f915054906101000a900460ff1681565b5f8060605f805f600487815481106106f1576106f061177a565b5b905f5260205f2090600502019050805f015f9054906101000a900473ffffffffffffffffffffffffffffffffffffffff16816001015482600201836003015f9054906101000a900460ff16846004015482805461074d90611904565b80601f016020809104026020016040519081016040528092919081815260200182805461077990611904565b80156107c45780601f1061079b576101008083540402835291602001916107c4565b820191905f5260205f20905b8154815290600101906020018083116107a757829003601f168201915b50505050509250955095509550955095505091939590929450565b6003602052815f5260405f20602052805f5260405f205f915091509054906101000a900460ff1681565b60048181548110610818575f80fd5b905f5260205f2090600502015f91509050805f015f9054906101000a900473ffffffffffffffffffffffffffffffffffffffff169080600101549080600201805461086290611904565b80601f016020809104026020016040519081016040528092919081815260200182805461088e90611904565b80156108d95780601f106108b0576101008083540402835291602001916108d9565b820191905f5260205f20905b8154815290600101906020018083116108bc57829003601f168201915b505050505090806003015f9054906101000a900460ff16908060040154905085565b60605f80548060200260200160405190810160405280929190818152602001828054801561097b57602002820191905f5260205f20905b815f9054906101000a900473ffffffffffffffffffffffffffffffffffffffff1673ffffffffffffffffffffffffffffffffffffffff1681526020019060010190808311610932575b5050505050905090565b60058181548110610994575f80fd5b905f5260205f20015f915054906101000a900473ffffffffffffffffffffffffffffffffffffffff1681565b60015f3373ffffffffffffffffffffffffffffffffffffffff1673ffffffffffffffffffffffffffffffffffffffff1681526020019081526020015f205f9054906101000a900460ff16610a49576040517f08c379a0000000000000000000000000000000000000000000000000000000008152600401610a40906116f4565b60405180910390fd5b806004805490508110610a91576040517f08c379a0000000000000000000000000000000000000000000000000000000008152600401610a889061175c565b60405180910390fd5b8160048181548110610aa657610aa561177a565b5b905f5260205f2090600502016003015f9054906101000a900460ff1615610b02576040517f08c379a0000000000000000000000000000000000000000000000000000000008152600401610af9906117f1565b60405180910390fd5b8260035f8281526020019081526020015f205f3373ffffffffffffffffffffffffffffffffffffffff1673ffffffffffffffffffffffffffffffffffffffff1681526020019081526020015f205f9054906101000a900460ff1615610b9c576040517f08c379a0000000000000000000000000000000000000000000000000000000008152600401610b939061197e565b60405180910390fd5b5f60048581548110610bb157610bb061177a565b5b905f5260205f20906005020190506001816004015f828254610bd3919061199c565b92505081905550600160035f8781526020019081526020015f205f3373ffffffffffffffffffffffffffffffffffffffff1673ffffffffffffffffffffffffffffffffffffffff1681526020019081526020015f205f6101000a81548160ff021916908315150217905550843373ffffffffffffffffffffffffffffffffffffffff167f5cbe105e36805f7820e291f799d5794ff948af2a5f664e580382defb6339004160405160405180910390a35050505050565b60015f3373ffffffffffffffffffffffffffffffffffffffff1673ffffffffffffffffffffffffffffffffffffffff1681526020019081526020015f205f9054906101000a900460ff16610d12576040517f08c379a0000000000000000000000000000000000000000000000000000000008152600401610d09906116f4565b60405180910390fd5b5f600480549050905060046040518060a001604052808673ffffffffffffffffffffffffffffffffffffffff1681526020018581526020018481526020015f151581526020015f815250908060018154018082558091505060019003905f5260205f2090600502015f909190919091505f820151815f015f6101000a81548173ffffffffffffffffffffffffffffffffffffffff021916908373ffffffffffffffffffffffffffffffffffffffff160217905550602082015181600101556040820151816002019081610de59190611b6c565b506060820151816003015f6101000a81548160ff0219169083151502179055506080820151816004015550508373ffffffffffffffffffffffffffffffffffffffff16813373ffffffffffffffffffffffffffffffffffffffff167fd5a05bf70715ad82a09a756320284a1b54c9ff74cd0f8cce6219e79b563fe59d8686604051610e71929190611c3b565b60405180910390a450505050565b60025481565b60015f3373ffffffffffffffffffffffffffffffffffffffff1673ffffffffffffffffffffffffffffffffffffffff1681526020019081526020015f205f9054906101000a900460ff16610f0e576040517f08c379a0000000000000000000000000000000000000000000000000000000008152600401610f05906116f4565b60405180910390fd5b806004805490508110610f56576040517f08c379a0000000000000000000000000000000000000000000000000000000008152600401610f4d9061175c565b60405180910390fd5b8160048181548110610f6b57610f6a61177a565b5b905f5260205f2090600502016003015f9054906101000a900460ff1615610fc7576040517f08c379a0000000000000000000000000000000000000000000000000000000008152600401610fbe906117f1565b60405180910390fd5b5f60048481548110610fdc57610fdb61177a565b5b905f5260205f209060050201905060025481600401541015611033576040517f08c379a000000000000000000000000000000000000000000000000000000000815260040161102a90611cb3565b60405180910390fd5b6001816003015f6101000a81548160ff0219169083151502179055505f815f015f9054906101000a900473ffffffffffffffffffffffffffffffffffffffff1673ffffffffffffffffffffffffffffffffffffffff1682600101548360020160405161109f9190611d5b565b5f6040518083038185875af1925050503d805f81146110d9576040519150601f19603f3d011682016040523d82523d5f602084013e6110de565b606091505b5050905080611122576040517f08c379a000000000000000000000000000000000000000000000000000000000815260040161111990611dbb565b60405180910390fd5b843373ffffffffffffffffffffffffffffffffffffffff167f5445f318f4f5fcfb66592e68e0cc5822aa15664039bd5f0ffde24c5a8142b1ac60405160405180910390a35050505050565b5f819050919050565b61117f8161116d565b82525050565b5f6040820190506111985f830185611176565b6111a56020830184611176565b9392505050565b5f604051905090565b5f80fd5b5f80fd5b6111c68161116d565b81146111d0575f80fd5b50565b5f813590506111e1816111bd565b92915050565b5f602082840312156111fc576111fb6111b5565b5b5f611209848285016111d3565b91505092915050565b5f73ffffffffffffffffffffffffffffffffffffffff82169050919050565b5f61123b82611212565b9050919050565b61124b81611231565b82525050565b5f6020820190506112645f830184611242565b92915050565b5f60208201905061127d5f830184611176565b92915050565b61128c81611231565b8114611296575f80fd5b50565b5f813590506112a781611283565b92915050565b5f602082840312156112c2576112c16111b5565b5b5f6112cf84828501611299565b91505092915050565b5f8115159050919050565b6112ec816112d8565b82525050565b5f6020820190506113055f8301846112e3565b92915050565b5f81519050919050565b5f82825260208201905092915050565b5f5b83811015611342578082015181840152602081019050611327565b5f8484015250505050565b5f601f19601f8301169050919050565b5f6113678261130b565b6113718185611315565b9350611381818560208601611325565b61138a8161134d565b840191505092915050565b5f60a0820190506113a85f830188611242565b6113b56020830187611176565b81810360408301526113c7818661135d565b90506113d660608301856112e3565b6113e36080830184611176565b9695505050505050565b5f8060408385031215611403576114026111b5565b5b5f611410858286016111d3565b925050602061142185828601611299565b9150509250929050565b5f81519050919050565b5f82825260208201905092915050565b5f819050602082019050919050565b61145d81611231565b82525050565b5f61146e8383611454565b60208301905092915050565b5f602082019050919050565b5f6114908261142b565b61149a8185611435565b93506114a583611445565b805f5b838110156114d55781516114bc8882611463565b97506114c78361147a565b9250506001810190506114a8565b5085935050505092915050565b5f6020820190508181035f8301526114fa8184611486565b905092915050565b5f80fd5b5f80fd5b7f4e487b71000000000000000000000000000000000000000000000000000000005f52604160045260245ffd5b6115408261134d565b810181811067ffffffffffffffff8211171561155f5761155e61150a565b5b80604052505050565b5f6115716111ac565b905061157d8282611537565b919050565b5f67ffffffffffffffff82111561159c5761159b61150a565b5b6115a58261134d565b9050602081019050919050565b828183375f83830152505050565b5f6115d26115cd84611582565b611568565b9050828152602081018484840111156115ee576115ed611506565b5b6115f98482856115b2565b509392505050565b5f82601f83011261161557611614611502565b5b81356116258482602086016115c0565b91505092915050565b5f805f60608486031215611645576116446111b5565b5b5f61165286828701611299565b9350506020611663868287016111d3565b925050604084013567ffffffffffffffff811115611684576116836111b9565b5b61169086828701611601565b9150509250925092565b5f82825260208201905092915050565b7f6e6f74206f776e657200000000000000000000000000000000000000000000005f82015250565b5f6116de60098361169a565b91506116e9826116aa565b602082019050919050565b5f6020820190508181035f83015261170b816116d2565b9050919050565b7f747820646f6573206e6f742065786973740000000000000000000000000000005f82015250565b5f61174660118361169a565b915061175182611712565b602082019050919050565b5f6020820190508181035f8301526117738161173a565b9050919050565b7f4e487b71000000000000000000000000000000000000000000000000000000005f52603260045260245ffd5b7f747820616c7265616479206578656375746564000000000000000000000000005f82015250565b5f6117db60138361169a565b91506117e6826117a7565b602082019050919050565b5f6020820190508181035f830152611808816117cf565b9050919050565b7f7478206e6f7420636f6e6669726d6564000000000000000000000000000000005f82015250565b5f61184360108361169a565b915061184e8261180f565b602082019050919050565b5f6020820190508181035f83015261187081611837565b9050919050565b7f4e487b71000000000000000000000000000000000000000000000000000000005f52601160045260245ffd5b5f6118ae8261116d565b91506118b98361116d565b92508282039050818111156118d1576118d0611877565b5b92915050565b7f4e487b71000000000000000000000000000000000000000000000000000000005f52602260045260245ffd5b5f600282049050600182168061191b57607f821691505b60208210810361192e5761192d6118d7565b5b50919050565b7f747820616c726561647920636f6e6669726d65640000000000000000000000005f82015250565b5f61196860148361169a565b915061197382611934565b602082019050919050565b5f6020820190508181035f8301526119958161195c565b9050919050565b5f6119a68261116d565b91506119b18361116d565b92508282019050808211156119c9576119c8611877565b5b92915050565b5f819050815f5260205f209050919050565b5f6020601f8301049050919050565b5f82821b905092915050565b5f60088302611a2b7fffffffffffffffffffffffffffffffffffffffffffffffffffffffffffffffff826119f0565b611a3586836119f0565b95508019841693508086168417925050509392505050565b5f819050919050565b5f611a70611a6b611a668461116d565b611a4d565b61116d565b9050919050565b5f819050919050565b611a8983611a56565b611a9d611a9582611a77565b8484546119fc565b825550505050565b5f90565b611ab1611aa5565b611abc818484611a80565b505050565b5b81811015611adf57611ad45f82611aa9565b600181019050611ac2565b5050565b601f821115611b2457611af5816119cf565b611afe846119e1565b81016020851015611b0d578190505b611b21611b19856119e1565b830182611ac1565b50505b505050565b5f82821c905092915050565b5f611b445f1984600802611b29565b1980831691505092915050565b5f611b5c8383611b35565b9150826002028217905092915050565b611b758261130b565b67ffffffffffffffff811115611b8e57611b8d61150a565b5b611b988254611904565b611ba3828285611ae3565b5f60209050601f831160018114611bd4575f8415611bc2578287015190505b611bcc8582611b51565b865550611c33565b601f198416611be2866119cf565b5f5b82811015611c0957848901518255600182019150602085019450602081019050611be4565b86831015611c265784890151611c22601f891682611b35565b8355505b6001600288020188555050505b505050505050565b5f604082019050611c4e5f830185611176565b8181036020830152611c60818461135d565b90509392505050565b7f63616e6e6f7420657865637574652074780000000000000000000000000000005f82015250565b5f611c9d60118361169a565b9150611ca882611c69565b602082019050919050565b5f6020820190508181035f830152611cca81611c91565b9050919050565b5f81905092915050565b5f8154611ce781611904565b611cf18186611cd1565b9450600182165f8114611d0b5760018114611d2057611d52565b60ff1983168652811515820286019350611d52565b611d29856119cf565b5f5b83811015611d4a57815481890152600182019150602081019050611d2b565b838801955050505b50505092915050565b5f611d668284611cdb565b915081905092915050565b7f7478206661696c656400000000000000000000000000000000000000000000005f82015250565b5f611da560098361169a565b9150611db082611d71565b602082019050919050565b5f6020820190508181035f830152611dd281611d99565b905091905056fea2646970667358221220256ad271e9d31b98bc7600926995bfafd88b9ab27abf65d6cda693d24dad3e1064736f6c63430008160033",
					"opcodes": "PUSH1 0x80 PUSH1 0x40 MSTORE CALLVALUE DUP1 ISZERO PUSH3 0x10 JUMPI PUSH0 DUP1 REVERT JUMPDEST POP PUSH1 0x40 MLOAD PUSH3 0x26D2 CODESIZE SUB DUP1 PUSH3 0x26D2 DUP4 CODECOPY DUP2 DUP2 ADD PUSH1 0x40 MSTORE DUP2 ADD SWAP1 PUSH3 0x36 SWAP2 SWAP1 PUSH3 0x5B4 JUMP JUMPDEST PUSH0 DUP4 MLOAD GT PUSH3 0x7C JUMPI PUSH1 0x40 MLOAD PUSH32 0x8C379A000000000000000000000000000000000000000000000000000000000 DUP2 MSTORE PUSH1 0x4 ADD PUSH3 0x73 SWAP1 PUSH3 0x68A JUMP JUMPDEST PUSH1 0x40 MLOAD DUP1 SWAP2 SUB SWAP1 REVERT JUMPDEST PUSH0 DUP3 GT DUP1 ISZERO PUSH3 0x8D JUMPI POP DUP3 MLOAD DUP3 GT ISZERO JUMPDEST PUSH3 0xCF JUMPI PUSH1 0x40 MLOAD PUSH32 0x8C379A000000000000000000000000000000000000000000000000000000000 DUP2 MSTORE PUSH1 0x4 ADD PUSH3 0xC6 SWAP1 PUSH3 0x71E JUMP JUMPDEST PUSH1 0x40 MLOAD DUP1 SWAP2 SUB SWAP1 REVERT JUMPDEST DUP1 PUSH20 0xFFFFFFFFFFFFFFFFFFFFFFFFFFFFFFFFFFFFFFFF AND PUSH0 PUSH20 0xFFFFFFFFFFFFFFFFFFFFFFFFFFFFFFFFFFFFFFFF AND EQ PUSH3 0x140 JUMPI PUSH1 0x40 MLOAD PUSH32 0x8C379A000000000000000000000000000000000000000000000000000000000 DUP2 MSTORE PUSH1 0x4 ADD PUSH3 0x137 SWAP1 PUSH3 0x78C JUMP JUMPDEST PUSH1 0x40 MLOAD DUP1 SWAP2 SUB SWAP1 REVERT JUMPDEST PUSH0 JUMPDEST DUP4 MLOAD DUP2 LT ISZERO PUSH3 0x32D JUMPI PUSH0 DUP5 DUP3 DUP2 MLOAD DUP2 LT PUSH3 0x163 JUMPI PUSH3 0x162 PUSH3 0x7AC JUMP JUMPDEST JUMPDEST PUSH1 0x20 MUL PUSH1 0x20 ADD ADD MLOAD SWAP1 POP PUSH0 PUSH20 0xFFFFFFFFFFFFFFFFFFFFFFFFFFFFFFFFFFFFFFFF AND DUP2 PUSH20 0xFFFFFFFFFFFFFFFFFFFFFFFFFFFFFFFFFFFFFFFF AND SUB PUSH3 0x1DE JUMPI PUSH1 0x40 MLOAD PUSH32 0x8C379A000000000000000000000000000000000000000000000000000000000 DUP2 MSTORE PUSH1 0x4 ADD PUSH3 0x1D5 SWAP1 PUSH3 0x827 JUMP JUMPDEST PUSH1 0x40 MLOAD DUP1 SWAP2 SUB SWAP1 REVERT JUMPDEST PUSH1 0x1 PUSH0 DUP3 PUSH20 0xFFFFFFFFFFFFFFFFFFFFFFFFFFFFFFFFFFFFFFFF AND PUSH20 0xFFFFFFFFFFFFFFFFFFFFFFFFFFFFFFFFFFFFFFFF AND DUP2 MSTORE PUSH1 0x20 ADD SWAP1 DUP2 MSTORE PUSH1 0x20 ADD PUSH0 KECCAK256 PUSH0 SWAP1 SLOAD SWAP1 PUSH2 0x100 EXP SWAP1 DIV PUSH1 0xFF AND ISZERO PUSH3 0x26B JUMPI PUSH1 0x40 MLOAD PUSH32 0x8C379A000000000000000000000000000000000000000000000000000000000 DUP2 MSTORE PUSH1 0x4 ADD PUSH3 0x262 SWAP1 PUSH3 0x895 JUMP JUMPDEST PUSH1 0x40 MLOAD DUP1 SWAP2 SUB SWAP1 REVERT JUMPDEST PUSH1 0x1 DUP1 PUSH0 DUP4 PUSH20 0xFFFFFFFFFFFFFFFFFFFFFFFFFFFFFFFFFFFFFFFF AND PUSH20 0xFFFFFFFFFFFFFFFFFFFFFFFFFFFFFFFFFFFFFFFF AND DUP2 MSTORE PUSH1 0x20 ADD SWAP1 DUP2 MSTORE PUSH1 0x20 ADD PUSH0 KECCAK256 PUSH0 PUSH2 0x100 EXP DUP2 SLOAD DUP2 PUSH1 0xFF MUL NOT AND SWAP1 DUP4 ISZERO ISZERO MUL OR SWAP1 SSTORE POP PUSH0 DUP2 SWAP1 DUP1 PUSH1 0x1 DUP2 SLOAD ADD DUP1 DUP3 SSTORE DUP1 SWAP2 POP POP PUSH1 0x1 SWAP1 SUB SWAP1 PUSH0 MSTORE PUSH1 0x20 PUSH0 KECCAK256 ADD PUSH0 SWAP1 SWAP2 SWAP1 SWAP2 SWAP1 SWAP2 PUSH2 0x100 EXP DUP2 SLOAD DUP2 PUSH20 0xFFFFFFFFFFFFFFFFFFFFFFFFFFFFFFFFFFFFFFFF MUL NOT AND SWAP1 DUP4 PUSH20 0xFFFFFFFFFFFFFFFFFFFFFFFFFFFFFFFFFFFFFFFF AND MUL OR SWAP1 SSTORE POP POP DUP1 DUP1 PUSH1 0x1 ADD SWAP2 POP POP PUSH3 0x142 JUMP JUMPDEST POP DUP2 PUSH1 0x2 DUP2 SWAP1 SSTORE POP PUSH1 0x5 DUP2 SWAP1 DUP1 PUSH1 0x1 DUP2 SLOAD ADD DUP1 DUP3 SSTORE DUP1 SWAP2 POP POP PUSH1 0x1 SWAP1 SUB SWAP1 PUSH0 MSTORE PUSH1 0x20 PUSH0 KECCAK256 ADD PUSH0 SWAP1 SWAP2 SWAP1 SWAP2 SWAP1 SWAP2 PUSH2 0x100 EXP DUP2 SLOAD DUP2 PUSH20 0xFFFFFFFFFFFFFFFFFFFFFFFFFFFFFFFFFFFFFFFF MUL NOT AND SWAP1 DUP4 PUSH20 0xFFFFFFFFFFFFFFFFFFFFFFFFFFFFFFFFFFFFFFFF AND MUL OR SWAP1 SSTORE POP POP POP POP PUSH3 0x8B5 JUMP JUMPDEST PUSH0 PUSH1 0x40 MLOAD SWAP1 POP SWAP1 JUMP JUMPDEST PUSH0 DUP1 REVERT JUMPDEST PUSH0 DUP1 REVERT JUMPDEST PUSH0 DUP1 REVERT JUMPDEST PUSH0 PUSH1 0x1F NOT PUSH1 0x1F DUP4 ADD AND SWAP1 POP SWAP2 SWAP1 POP JUMP JUMPDEST PUSH32 0x4E487B7100000000000000000000000000000000000000000000000000000000 PUSH0 MSTORE PUSH1 0x41 PUSH1 0x4 MSTORE PUSH1 0x24 PUSH0 REVERT JUMPDEST PUSH3 0x3FB DUP3 PUSH3 0x3B3 JUMP JUMPDEST DUP2 ADD DUP2 DUP2 LT PUSH8 0xFFFFFFFFFFFFFFFF DUP3 GT OR ISZERO PUSH3 0x41D JUMPI PUSH3 0x41C PUSH3 0x3C3 JUMP JUMPDEST JUMPDEST DUP1 PUSH1 0x40 MSTORE POP POP POP JUMP JUMPDEST PUSH0 PUSH3 0x431 PUSH3 0x39E JUMP JUMPDEST SWAP1 POP PUSH3 0x43F DUP3 DUP3 PUSH3 0x3F0 JUMP JUMPDEST SWAP2 SWAP1 POP JUMP JUMPDEST PUSH0 PUSH8 0xFFFFFFFFFFFFFFFF DUP3 GT ISZERO PUSH3 0x461 JUMPI PUSH3 0x460 PUSH3 0x3C3 JUMP JUMPDEST JUMPDEST PUSH1 0x20 DUP3 MUL SWAP1 POP PUSH1 0x20 DUP2 ADD SWAP1 POP SWAP2 SWAP1 POP JUMP JUMPDEST PUSH0 DUP1 REVERT JUMPDEST PUSH0 PUSH20 0xFFFFFFFFFFFFFFFFFFFFFFFFFFFFFFFFFFFFFFFF DUP3 AND SWAP1 POP SWAP2 SWAP1 POP JUMP JUMPDEST PUSH0 PUSH3 0x4A1 DUP3 PUSH3 0x476 JUMP JUMPDEST SWAP1 POP SWAP2 SWAP1 POP JUMP JUMPDEST PUSH3 0x4B3 DUP2 PUSH3 0x495 JUMP JUMPDEST DUP2 EQ PUSH3 0x4BE JUMPI PUSH0 DUP1 REVERT JUMPDEST POP JUMP JUMPDEST PUSH0 DUP2 MLOAD SWAP1 POP PUSH3 0x4D1 DUP2 PUSH3 0x4A8 JUMP JUMPDEST SWAP3 SWAP2 POP POP JUMP JUMPDEST PUSH0 PUSH3 0x4ED PUSH3 0x4E7 DUP5 PUSH3 0x444 JUMP JUMPDEST PUSH3 0x426 JUMP JUMPDEST SWAP1 POP DUP1 DUP4 DUP3 MSTORE PUSH1 0x20 DUP3 ADD SWAP1 POP PUSH1 0x20 DUP5 MUL DUP4 ADD DUP6 DUP2 GT ISZERO PUSH3 0x513 JUMPI PUSH3 0x512 PUSH3 0x472 JUMP JUMPDEST JUMPDEST DUP4 JUMPDEST DUP2 DUP2 LT ISZERO PUSH3 0x540 JUMPI DUP1 PUSH3 0x52B DUP9 DUP3 PUSH3 0x4C1 JUMP JUMPDEST DUP5 MSTORE PUSH1 0x20 DUP5 ADD SWAP4 POP POP PUSH1 0x20 DUP2 ADD SWAP1 POP PUSH3 0x515 JUMP JUMPDEST POP POP POP SWAP4 SWAP3 POP POP POP JUMP JUMPDEST PUSH0 DUP3 PUSH1 0x1F DUP4 ADD SLT PUSH3 0x561 JUMPI PUSH3 0x560 PUSH3 0x3AF JUMP JUMPDEST JUMPDEST DUP2 MLOAD PUSH3 0x573 DUP5 DUP3 PUSH1 0x20 DUP7 ADD PUSH3 0x4D7 JUMP JUMPDEST SWAP2 POP POP SWAP3 SWAP2 POP POP JUMP JUMPDEST PUSH0 DUP2 SWAP1 POP SWAP2 SWAP1 POP JUMP JUMPDEST PUSH3 0x590 DUP2 PUSH3 0x57C JUMP JUMPDEST DUP2 EQ PUSH3 0x59B JUMPI PUSH0 DUP1 REVERT JUMPDEST POP JUMP JUMPDEST PUSH0 DUP2 MLOAD SWAP1 POP PUSH3 0x5AE DUP2 PUSH3 0x585 JUMP JUMPDEST SWAP3 SWAP2 POP POP JUMP JUMPDEST PUSH0 DUP1 PUSH0 PUSH1 0x60 DUP5 DUP7 SUB SLT ISZERO PUSH3 0x5CE JUMPI PUSH3 0x5CD PUSH3 0x3A7 JUMP JUMPDEST JUMPDEST PUSH0 DUP5 ADD MLOAD PUSH8 0xFFFFFFFFFFFFFFFF DUP2 GT ISZERO PUSH3 0x5EE JUMPI PUSH3 0x5ED PUSH3 0x3AB JUMP JUMPDEST JUMPDEST PUSH3 0x5FC DUP7 DUP3 DUP8 ADD PUSH3 0x54A JUMP JUMPDEST SWAP4 POP POP PUSH1 0x20 PUSH3 0x60F DUP7 DUP3 DUP8 ADD PUSH3 0x59E JUMP JUMPDEST SWAP3 POP POP PUSH1 0x40 PUSH3 0x622 DUP7 DUP3 DUP8 ADD PUSH3 0x4C1 JUMP JUMPDEST SWAP2 POP POP SWAP3 POP SWAP3 POP SWAP3 JUMP JUMPDEST PUSH0 DUP3 DUP3 MSTORE PUSH1 0x20 DUP3 ADD SWAP1 POP SWAP3 SWAP2 POP POP JUMP JUMPDEST PUSH32 0x6F776E6572207265717569726564000000000000000000000000000000000000 PUSH0 DUP3 ADD MSTORE POP JUMP JUMPDEST PUSH0 PUSH3 0x672 PUSH1 0xE DUP4 PUSH3 0x62C JUMP JUMPDEST SWAP2 POP PUSH3 0x67F DUP3 PUSH3 0x63C JUMP JUMPDEST PUSH1 0x20 DUP3 ADD SWAP1 POP SWAP2 SWAP1 POP JUMP JUMPDEST PUSH0 PUSH1 0x20 DUP3 ADD SWAP1 POP DUP2 DUP2 SUB PUSH0 DUP4 ADD MSTORE PUSH3 0x6A3 DUP2 PUSH3 0x664 JUMP JUMPDEST SWAP1 POP SWAP2 SWAP1 POP JUMP JUMPDEST PUSH32 0x696E76616C6964206E756D626572206F66207265717572656420636F6E666972 PUSH0 DUP3 ADD MSTORE PUSH32 0x6D6174696F6E7300000000000000000000000000000000000000000000000000 PUSH1 0x20 DUP3 ADD MSTORE POP JUMP JUMPDEST PUSH0 PUSH3 0x706 PUSH1 0x27 DUP4 PUSH3 0x62C JUMP JUMPDEST SWAP2 POP PUSH3 0x713 DUP3 PUSH3 0x6AA JUMP JUMPDEST PUSH1 0x40 DUP3 ADD SWAP1 POP SWAP2 SWAP1 POP JUMP JUMPDEST PUSH0 PUSH1 0x20 DUP3 ADD SWAP1 POP DUP2 DUP2 SUB PUSH0 DUP4 ADD MSTORE PUSH3 0x737 DUP2 PUSH3 0x6F8 JUMP JUMPDEST SWAP1 POP SWAP2 SWAP1 POP JUMP JUMPDEST PUSH32 0x696E76616C6964207472616465722070656F706C650000000000000000000000 PUSH0 DUP3 ADD MSTORE POP JUMP JUMPDEST PUSH0 PUSH3 0x774 PUSH1 0x15 DUP4 PUSH3 0x62C JUMP JUMPDEST SWAP2 POP PUSH3 0x781 DUP3 PUSH3 0x73E JUMP JUMPDEST PUSH1 0x20 DUP3 ADD SWAP1 POP SWAP2 SWAP1 POP JUMP JUMPDEST PUSH0 PUSH1 0x20 DUP3 ADD SWAP1 POP DUP2 DUP2 SUB PUSH0 DUP4 ADD MSTORE PUSH3 0x7A5 DUP2 PUSH3 0x766 JUMP JUMPDEST SWAP1 POP SWAP2 SWAP1 POP JUMP JUMPDEST PUSH32 0x4E487B7100000000000000000000000000000000000000000000000000000000 PUSH0 MSTORE PUSH1 0x32 PUSH1 0x4 MSTORE PUSH1 0x24 PUSH0 REVERT JUMPDEST PUSH32 0x696E76616C6964206F776E657200000000000000000000000000000000000000 PUSH0 DUP3 ADD MSTORE POP JUMP JUMPDEST PUSH0 PUSH3 0x80F PUSH1 0xD DUP4 PUSH3 0x62C JUMP JUMPDEST SWAP2 POP PUSH3 0x81C DUP3 PUSH3 0x7D9 JUMP JUMPDEST PUSH1 0x20 DUP3 ADD SWAP1 POP SWAP2 SWAP1 POP JUMP JUMPDEST PUSH0 PUSH1 0x20 DUP3 ADD SWAP1 POP DUP2 DUP2 SUB PUSH0 DUP4 ADD MSTORE PUSH3 0x840 DUP2 PUSH3 0x801 JUMP JUMPDEST SWAP1 POP SWAP2 SWAP1 POP JUMP JUMPDEST PUSH32 0x6F776E6572206578697374656400000000000000000000000000000000000000 PUSH0 DUP3 ADD MSTORE POP JUMP JUMPDEST PUSH0 PUSH3 0x87D PUSH1 0xD DUP4 PUSH3 0x62C JUMP JUMPDEST SWAP2 POP PUSH3 0x88A DUP3 PUSH3 0x847 JUMP JUMPDEST PUSH1 0x20 DUP3 ADD SWAP1 POP SWAP2 SWAP1 POP JUMP JUMPDEST PUSH0 PUSH1 0x20 DUP3 ADD SWAP1 POP DUP2 DUP2 SUB PUSH0 DUP4 ADD MSTORE PUSH3 0x8AE DUP2 PUSH3 0x86F JUMP JUMPDEST SWAP1 POP SWAP2 SWAP1 POP JUMP JUMPDEST PUSH2 0x1E0F DUP1 PUSH3 0x8C3 PUSH0 CODECOPY PUSH0 RETURN INVALID PUSH1 0x80 PUSH1 0x40 MSTORE PUSH1 0x4 CALLDATASIZE LT PUSH2 0xC5 JUMPI PUSH0 CALLDATALOAD PUSH1 0xE0 SHR DUP1 PUSH4 0x9ACE38C2 GT PUSH2 0x7E JUMPI DUP1 PUSH4 0xC01A8C84 GT PUSH2 0x58 JUMPI DUP1 PUSH4 0xC01A8C84 EQ PUSH2 0x30C JUMPI DUP1 PUSH4 0xC6427474 EQ PUSH2 0x334 JUMPI DUP1 PUSH4 0xD0549B85 EQ PUSH2 0x35C JUMPI DUP1 PUSH4 0xEE22610B EQ PUSH2 0x386 JUMPI PUSH2 0x11C JUMP JUMPDEST DUP1 PUSH4 0x9ACE38C2 EQ PUSH2 0x266 JUMPI DUP1 PUSH4 0xA0E67E2B EQ PUSH2 0x2A6 JUMPI DUP1 PUSH4 0xA401BBAC EQ PUSH2 0x2D0 JUMPI PUSH2 0x11C JUMP JUMPDEST DUP1 PUSH4 0x25E7C27 EQ PUSH2 0x120 JUMPI DUP1 PUSH4 0x20EA8D86 EQ PUSH2 0x15C JUMPI DUP1 PUSH4 0x2E7700F0 EQ PUSH2 0x184 JUMPI DUP1 PUSH4 0x2F54BF6E EQ PUSH2 0x1AE JUMPI DUP1 PUSH4 0x33EA3DC8 EQ PUSH2 0x1EA JUMPI DUP1 PUSH4 0x80F59A65 EQ PUSH2 0x22A JUMPI PUSH2 0x11C JUMP JUMPDEST CALLDATASIZE PUSH2 0x11C JUMPI CALLER PUSH20 0xFFFFFFFFFFFFFFFFFFFFFFFFFFFFFFFFFFFFFFFF AND PUSH32 0x90890809C654F11D6E72A28FA60149770A0D11EC6C92319D6CEB2BB0A4EA1A15 CALLVALUE SELFBALANCE PUSH1 0x40 MLOAD PUSH2 0x112 SWAP3 SWAP2 SWAP1 PUSH2 0x1185 JUMP JUMPDEST PUSH1 0x40 MLOAD DUP1 SWAP2 SUB SWAP1 LOG2 STOP JUMPDEST PUSH0 DUP1 REVERT JUMPDEST CALLVALUE DUP1 ISZERO PUSH2 0x12B JUMPI PUSH0 DUP1 REVERT JUMPDEST POP PUSH2 0x146 PUSH1 0x4 DUP1 CALLDATASIZE SUB DUP2 ADD SWAP1 PUSH2 0x141 SWAP2 SWAP1 PUSH2 0x11E7 JUMP JUMPDEST PUSH2 0x3AE JUMP JUMPDEST PUSH1 0x40 MLOAD PUSH2 0x153 SWAP2 SWAP1 PUSH2 0x1251 JUMP JUMPDEST PUSH1 0x40 MLOAD DUP1 SWAP2 SUB SWAP1 RETURN JUMPDEST CALLVALUE DUP1 ISZERO PUSH2 0x167 JUMPI PUSH0 DUP1 REVERT JUMPDEST POP PUSH2 0x182 PUSH1 0x4 DUP1 CALLDATASIZE SUB DUP2 ADD SWAP1 PUSH2 0x17D SWAP2 SWAP1 PUSH2 0x11E7 JUMP JUMPDEST PUSH2 0x3E8 JUMP JUMPDEST STOP JUMPDEST CALLVALUE DUP1 ISZERO PUSH2 0x18F JUMPI PUSH0 DUP1 REVERT JUMPDEST POP PUSH2 0x198 PUSH2 0x6AD JUMP JUMPDEST PUSH1 0x40 MLOAD PUSH2 0x1A5 SWAP2 SWAP1 PUSH2 0x126A JUMP JUMPDEST PUSH1 0x40 MLOAD DUP1 SWAP2 SUB SWAP1 RETURN JUMPDEST CALLVALUE DUP1 ISZERO PUSH2 0x1B9 JUMPI PUSH0 DUP1 REVERT JUMPDEST POP PUSH2 0x1D4 PUSH1 0x4 DUP1 CALLDATASIZE SUB DUP2 ADD SWAP1 PUSH2 0x1CF SWAP2 SWAP1 PUSH2 0x12AD JUMP JUMPDEST PUSH2 0x6B9 JUMP JUMPDEST PUSH1 0x40 MLOAD PUSH2 0x1E1 SWAP2 SWAP1 PUSH2 0x12F2 JUMP JUMPDEST PUSH1 0x40 MLOAD DUP1 SWAP2 SUB SWAP1 RETURN JUMPDEST CALLVALUE DUP1 ISZERO PUSH2 0x1F5 JUMPI PUSH0 DUP1 REVERT JUMPDEST POP PUSH2 0x210 PUSH1 0x4 DUP1 CALLDATASIZE SUB DUP2 ADD SWAP1 PUSH2 0x20B SWAP2 SWAP1 PUSH2 0x11E7 JUMP JUMPDEST PUSH2 0x6D6 JUMP JUMPDEST PUSH1 0x40 MLOAD PUSH2 0x221 SWAP6 SWAP5 SWAP4 SWAP3 SWAP2 SWAP1 PUSH2 0x1395 JUMP JUMPDEST PUSH1 0x40 MLOAD DUP1 SWAP2 SUB SWAP1 RETURN JUMPDEST CALLVALUE DUP1 ISZERO PUSH2 0x235 JUMPI PUSH0 DUP1 REVERT JUMPDEST POP PUSH2 0x250 PUSH1 0x4 DUP1 CALLDATASIZE SUB DUP2 ADD SWAP1 PUSH2 0x24B SWAP2 SWAP1 PUSH2 0x13ED JUMP JUMPDEST PUSH2 0x7DF JUMP JUMPDEST PUSH1 0x40 MLOAD PUSH2 0x25D SWAP2 SWAP1 PUSH2 0x12F2 JUMP JUMPDEST PUSH1 0x40 MLOAD DUP1 SWAP2 SUB SWAP1 RETURN JUMPDEST CALLVALUE DUP1 ISZERO PUSH2 0x271 JUMPI PUSH0 DUP1 REVERT JUMPDEST POP PUSH2 0x28C PUSH1 0x4 DUP1 CALLDATASIZE SUB DUP2 ADD SWAP1 PUSH2 0x287 SWAP2 SWAP1 PUSH2 0x11E7 JUMP JUMPDEST PUSH2 0x809 JUMP JUMPDEST PUSH1 0x40 MLOAD PUSH2 0x29D SWAP6 SWAP5 SWAP4 SWAP3 SWAP2 SWAP1 PUSH2 0x1395 JUMP JUMPDEST PUSH1 0x40 MLOAD DUP1 SWAP2 SUB SWAP1 RETURN JUMPDEST CALLVALUE DUP1 ISZERO PUSH2 0x2B1 JUMPI PUSH0 DUP1 REVERT JUMPDEST POP PUSH2 0x2BA PUSH2 0x8FB JUMP JUMPDEST PUSH1 0x40 MLOAD PUSH2 0x2C7 SWAP2 SWAP1 PUSH2 0x14E2 JUMP JUMPDEST PUSH1 0x40 MLOAD DUP1 SWAP2 SUB SWAP1 RETURN JUMPDEST CALLVALUE DUP1 ISZERO PUSH2 0x2DB JUMPI PUSH0 DUP1 REVERT JUMPDEST POP PUSH2 0x2F6 PUSH1 0x4 DUP1 CALLDATASIZE SUB DUP2 ADD SWAP1 PUSH2 0x2F1 SWAP2 SWAP1 PUSH2 0x11E7 JUMP JUMPDEST PUSH2 0x985 JUMP JUMPDEST PUSH1 0x40 MLOAD PUSH2 0x303 SWAP2 SWAP1 PUSH2 0x1251 JUMP JUMPDEST PUSH1 0x40 MLOAD DUP1 SWAP2 SUB SWAP1 RETURN JUMPDEST CALLVALUE DUP1 ISZERO PUSH2 0x317 JUMPI PUSH0 DUP1 REVERT JUMPDEST POP PUSH2 0x332 PUSH1 0x4 DUP1 CALLDATASIZE SUB DUP2 ADD SWAP1 PUSH2 0x32D SWAP2 SWAP1 PUSH2 0x11E7 JUMP JUMPDEST PUSH2 0x9C0 JUMP JUMPDEST STOP JUMPDEST CALLVALUE DUP1 ISZERO PUSH2 0x33F JUMPI PUSH0 DUP1 REVERT JUMPDEST POP PUSH2 0x35A PUSH1 0x4 DUP1 CALLDATASIZE SUB DUP2 ADD SWAP1 PUSH2 0x355 SWAP2 SWAP1 PUSH2 0x162E JUMP JUMPDEST PUSH2 0xC89 JUMP JUMPDEST STOP JUMPDEST CALLVALUE DUP1 ISZERO PUSH2 0x367 JUMPI PUSH0 DUP1 REVERT JUMPDEST POP PUSH2 0x370 PUSH2 0xE7F JUMP JUMPDEST PUSH1 0x40 MLOAD PUSH2 0x37D SWAP2 SWAP1 PUSH2 0x126A JUMP JUMPDEST PUSH1 0x40 MLOAD DUP1 SWAP2 SUB SWAP1 RETURN JUMPDEST CALLVALUE DUP1 ISZERO PUSH2 0x391 JUMPI PUSH0 DUP1 REVERT JUMPDEST POP PUSH2 0x3AC PUSH1 0x4 DUP1 CALLDATASIZE SUB DUP2 ADD SWAP1 PUSH2 0x3A7 SWAP2 SWAP1 PUSH2 0x11E7 JUMP JUMPDEST PUSH2 0xE85 JUMP JUMPDEST STOP JUMPDEST PUSH0 DUP2 DUP2 SLOAD DUP2 LT PUSH2 0x3BC JUMPI PUSH0 DUP1 REVERT JUMPDEST SWAP1 PUSH0 MSTORE PUSH1 0x20 PUSH0 KECCAK256 ADD PUSH0 SWAP2 POP SLOAD SWAP1 PUSH2 0x100 EXP SWAP1 DIV PUSH20 0xFFFFFFFFFFFFFFFFFFFFFFFFFFFFFFFFFFFFFFFF AND DUP2 JUMP JUMPDEST PUSH1 0x1 PUSH0 CALLER PUSH20 0xFFFFFFFFFFFFFFFFFFFFFFFFFFFFFFFFFFFFFFFF AND PUSH20 0xFFFFFFFFFFFFFFFFFFFFFFFFFFFFFFFFFFFFFFFF AND DUP2 MSTORE PUSH1 0x20 ADD SWAP1 DUP2 MSTORE PUSH1 0x20 ADD PUSH0 KECCAK256 PUSH0 SWAP1 SLOAD SWAP1 PUSH2 0x100 EXP SWAP1 DIV PUSH1 0xFF AND PUSH2 0x471 JUMPI PUSH1 0x40 MLOAD PUSH32 0x8C379A000000000000000000000000000000000000000000000000000000000 DUP2 MSTORE PUSH1 0x4 ADD PUSH2 0x468 SWAP1 PUSH2 0x16F4 JUMP JUMPDEST PUSH1 0x40 MLOAD DUP1 SWAP2 SUB SWAP1 REVERT JUMPDEST DUP1 PUSH1 0x4 DUP1 SLOAD SWAP1 POP DUP2 LT PUSH2 0x4B9 JUMPI PUSH1 0x40 MLOAD PUSH32 0x8C379A000000000000000000000000000000000000000000000000000000000 DUP2 MSTORE PUSH1 0x4 ADD PUSH2 0x4B0 SWAP1 PUSH2 0x175C JUMP JUMPDEST PUSH1 0x40 MLOAD DUP1 SWAP2 SUB SWAP1 REVERT JUMPDEST DUP2 PUSH1 0x4 DUP2 DUP2 SLOAD DUP2 LT PUSH2 0x4CE JUMPI PUSH2 0x4CD PUSH2 0x177A JUMP JUMPDEST JUMPDEST SWAP1 PUSH0 MSTORE PUSH1 0x20 PUSH0 KECCAK256 SWAP1 PUSH1 0x5 MUL ADD PUSH1 0x3 ADD PUSH0 SWAP1 SLOAD SWAP1 PUSH2 0x100 EXP SWAP1 DIV PUSH1 0xFF AND ISZERO PUSH2 0x52A JUMPI PUSH1 0x40 MLOAD PUSH32 0x8C379A000000000000000000000000000000000000000000000000000000000 DUP2 MSTORE PUSH1 0x4 ADD PUSH2 0x521 SWAP1 PUSH2 0x17F1 JUMP JUMPDEST PUSH1 0x40 MLOAD DUP1 SWAP2 SUB SWAP1 REVERT JUMPDEST PUSH0 PUSH1 0x4 DUP5 DUP2 SLOAD DUP2 LT PUSH2 0x53F JUMPI PUSH2 0x53E PUSH2 0x177A JUMP JUMPDEST JUMPDEST SWAP1 PUSH0 MSTORE PUSH1 0x20 PUSH0 KECCAK256 SWAP1 PUSH1 0x5 MUL ADD SWAP1 POP PUSH1 0x3 PUSH0 DUP6 DUP2 MSTORE PUSH1 0x20 ADD SWAP1 DUP2 MSTORE PUSH1 0x20 ADD PUSH0 KECCAK256 PUSH0 CALLER PUSH20 0xFFFFFFFFFFFFFFFFFFFFFFFFFFFFFFFFFFFFFFFF AND PUSH20 0xFFFFFFFFFFFFFFFFFFFFFFFFFFFFFFFFFFFFFFFF AND DUP2 MSTORE PUSH1 0x20 ADD SWAP1 DUP2 MSTORE PUSH1 0x20 ADD PUSH0 KECCAK256 PUSH0 SWAP1 SLOAD SWAP1 PUSH2 0x100 EXP SWAP1 DIV PUSH1 0xFF AND PUSH2 0x5E5 JUMPI PUSH1 0x40 MLOAD PUSH32 0x8C379A000000000000000000000000000000000000000000000000000000000 DUP2 MSTORE PUSH1 0x4 ADD PUSH2 0x5DC SWAP1 PUSH2 0x1859 JUMP JUMPDEST PUSH1 0x40 MLOAD DUP1 SWAP2 SUB SWAP1 REVERT JUMPDEST PUSH1 0x1 DUP2 PUSH1 0x4 ADD PUSH0 DUP3 DUP3 SLOAD PUSH2 0x5F9 SWAP2 SWAP1 PUSH2 0x18A4 JUMP JUMPDEST SWAP3 POP POP DUP2 SWAP1 SSTORE POP PUSH0 PUSH1 0x3 PUSH0 DUP7 DUP2 MSTORE PUSH1 0x20 ADD SWAP1 DUP2 MSTORE PUSH1 0x20 ADD PUSH0 KECCAK256 PUSH0 CALLER PUSH20 0xFFFFFFFFFFFFFFFFFFFFFFFFFFFFFFFFFFFFFFFF AND PUSH20 0xFFFFFFFFFFFFFFFFFFFFFFFFFFFFFFFFFFFFFFFF AND DUP2 MSTORE PUSH1 0x20 ADD SWAP1 DUP2 MSTORE PUSH1 0x20 ADD PUSH0 KECCAK256 PUSH0 PUSH2 0x100 EXP DUP2 SLOAD DUP2 PUSH1 0xFF MUL NOT AND SWAP1 DUP4 ISZERO ISZERO MUL OR SWAP1 SSTORE POP DUP4 CALLER PUSH20 0xFFFFFFFFFFFFFFFFFFFFFFFFFFFFFFFFFFFFFFFF AND PUSH32 0xF0DCA620E2E81F7841D07BCC105E1704FB01475B278A9D4C236E1C62945EDD55 PUSH1 0x40 MLOAD PUSH1 0x40 MLOAD DUP1 SWAP2 SUB SWAP1 LOG3 POP POP POP POP JUMP JUMPDEST PUSH0 PUSH1 0x4 DUP1 SLOAD SWAP1 POP SWAP1 POP SWAP1 JUMP JUMPDEST PUSH1 0x1 PUSH1 0x20 MSTORE DUP1 PUSH0 MSTORE PUSH1 0x40 PUSH0 KECCAK256 PUSH0 SWAP2 POP SLOAD SWAP1 PUSH2 0x100 EXP SWAP1 DIV PUSH1 0xFF AND DUP2 JUMP JUMPDEST PUSH0 DUP1 PUSH1 0x60 PUSH0 DUP1 PUSH0 PUSH1 0x4 DUP8 DUP2 SLOAD DUP2 LT PUSH2 0x6F1 JUMPI PUSH2 0x6F0 PUSH2 0x177A JUMP JUMPDEST JUMPDEST SWAP1 PUSH0 MSTORE PUSH1 0x20 PUSH0 KECCAK256 SWAP1 PUSH1 0x5 MUL ADD SWAP1 POP DUP1 PUSH0 ADD PUSH0 SWAP1 SLOAD SWAP1 PUSH2 0x100 EXP SWAP1 DIV PUSH20 0xFFFFFFFFFFFFFFFFFFFFFFFFFFFFFFFFFFFFFFFF AND DUP2 PUSH1 0x1 ADD SLOAD DUP3 PUSH1 0x2 ADD DUP4 PUSH1 0x3 ADD PUSH0 SWAP1 SLOAD SWAP1 PUSH2 0x100 EXP SWAP1 DIV PUSH1 0xFF AND DUP5 PUSH1 0x4 ADD SLOAD DUP3 DUP1 SLOAD PUSH2 0x74D SWAP1 PUSH2 0x1904 JUMP JUMPDEST DUP1 PUSH1 0x1F ADD PUSH1 0x20 DUP1 SWAP2 DIV MUL PUSH1 0x20 ADD PUSH1 0x40 MLOAD SWAP1 DUP2 ADD PUSH1 0x40 MSTORE DUP1 SWAP3 SWAP2 SWAP1 DUP2 DUP2 MSTORE PUSH1 0x20 ADD DUP3 DUP1 SLOAD PUSH2 0x779 SWAP1 PUSH2 0x1904 JUMP JUMPDEST DUP1 ISZERO PUSH2 0x7C4 JUMPI DUP1 PUSH1 0x1F LT PUSH2 0x79B JUMPI PUSH2 0x100 DUP1 DUP4 SLOAD DIV MUL DUP4 MSTORE SWAP2 PUSH1 0x20 ADD SWAP2 PUSH2 0x7C4 JUMP JUMPDEST DUP3 ADD SWAP2 SWAP1 PUSH0 MSTORE PUSH1 0x20 PUSH0 KECCAK256 SWAP1 JUMPDEST DUP2 SLOAD DUP2 MSTORE SWAP1 PUSH1 0x1 ADD SWAP1 PUSH1 0x20 ADD DUP1 DUP4 GT PUSH2 0x7A7 JUMPI DUP3 SWAP1 SUB PUSH1 0x1F AND DUP3 ADD SWAP2 JUMPDEST POP POP POP POP POP SWAP3 POP SWAP6 POP SWAP6 POP SWAP6 POP SWAP6 POP SWAP6 POP POP SWAP2 SWAP4 SWAP6 SWAP1 SWAP3 SWAP5 POP JUMP JUMPDEST PUSH1 0x3 PUSH1 0x20 MSTORE DUP2 PUSH0 MSTORE PUSH1 0x40 PUSH0 KECCAK256 PUSH1 0x20 MSTORE DUP1 PUSH0 MSTORE PUSH1 0x40 PUSH0 KECCAK256 PUSH0 SWAP2 POP SWAP2 POP SWAP1 SLOAD SWAP1 PUSH2 0x100 EXP SWAP1 DIV PUSH1 0xFF AND DUP2 JUMP JUMPDEST PUSH1 0x4 DUP2 DUP2 SLOAD DUP2 LT PUSH2 0x818 JUMPI PUSH0 DUP1 REVERT JUMPDEST SWAP1 PUSH0 MSTORE PUSH1 0x20 PUSH0 KECCAK256 SWAP1 PUSH1 0x5 MUL ADD PUSH0 SWAP2 POP SWAP1 POP DUP1 PUSH0 ADD PUSH0 SWAP1 SLOAD SWAP1 PUSH2 0x100 EXP SWAP1 DIV PUSH20 0xFFFFFFFFFFFFFFFFFFFFFFFFFFFFFFFFFFFFFFFF AND SWAP1 DUP1 PUSH1 0x1 ADD SLOAD SWAP1 DUP1 PUSH1 0x2 ADD DUP1 SLOAD PUSH2 0x862 SWAP1 PUSH2 0x1904 JUMP JUMPDEST DUP1 PUSH1 0x1F ADD PUSH1 0x20 DUP1 SWAP2 DIV MUL PUSH1 0x20 ADD PUSH1 0x40 MLOAD SWAP1 DUP2 ADD PUSH1 0x40 MSTORE DUP1 SWAP3 SWAP2 SWAP1 DUP2 DUP2 MSTORE PUSH1 0x20 ADD DUP3 DUP1 SLOAD PUSH2 0x88E SWAP1 PUSH2 0x1904 JUMP JUMPDEST DUP1 ISZERO PUSH2 0x8D9 JUMPI DUP1 PUSH1 0x1F LT PUSH2 0x8B0 JUMPI PUSH2 0x100 DUP1 DUP4 SLOAD DIV MUL DUP4 MSTORE SWAP2 PUSH1 0x20 ADD SWAP2 PUSH2 0x8D9 JUMP JUMPDEST DUP3 ADD SWAP2 SWAP1 PUSH0 MSTORE PUSH1 0x20 PUSH0 KECCAK256 SWAP1 JUMPDEST DUP2 SLOAD DUP2 MSTORE SWAP1 PUSH1 0x1 ADD SWAP1 PUSH1 0x20 ADD DUP1 DUP4 GT PUSH2 0x8BC JUMPI DUP3 SWAP1 SUB PUSH1 0x1F AND DUP3 ADD SWAP2 JUMPDEST POP POP POP POP POP SWAP1 DUP1 PUSH1 0x3 ADD PUSH0 SWAP1 SLOAD SWAP1 PUSH2 0x100 EXP SWAP1 DIV PUSH1 0xFF AND SWAP1 DUP1 PUSH1 0x4 ADD SLOAD SWAP1 POP DUP6 JUMP JUMPDEST PUSH1 0x60 PUSH0 DUP1 SLOAD DUP1 PUSH1 0x20 MUL PUSH1 0x20 ADD PUSH1 0x40 MLOAD SWAP1 DUP2 ADD PUSH1 0x40 MSTORE DUP1 SWAP3 SWAP2 SWAP1 DUP2 DUP2 MSTORE PUSH1 0x20 ADD DUP3 DUP1 SLOAD DUP1 ISZERO PUSH2 0x97B JUMPI PUSH1 0x20 MUL DUP3 ADD SWAP2 SWAP1 PUSH0 MSTORE PUSH1 0x20 PUSH0 KECCAK256 SWAP1 JUMPDEST DUP2 PUSH0 SWAP1 SLOAD SWAP1 PUSH2 0x100 EXP SWAP1 DIV PUSH20 0xFFFFFFFFFFFFFFFFFFFFFFFFFFFFFFFFFFFFFFFF AND PUSH20 0xFFFFFFFFFFFFFFFFFFFFFFFFFFFFFFFFFFFFFFFF AND DUP2 MSTORE PUSH1 0x20 ADD SWAP1 PUSH1 0x1 ADD SWAP1 DUP1 DUP4 GT PUSH2 0x932 JUMPI JUMPDEST POP POP POP POP POP SWAP1 POP SWAP1 JUMP JUMPDEST PUSH1 0x5 DUP2 DUP2 SLOAD DUP2 LT PUSH2 0x994 JUMPI PUSH0 DUP1 REVERT JUMPDEST SWAP1 PUSH0 MSTORE PUSH1 0x20 PUSH0 KECCAK256 ADD PUSH0 SWAP2 POP SLOAD SWAP1 PUSH2 0x100 EXP SWAP1 DIV PUSH20 0xFFFFFFFFFFFFFFFFFFFFFFFFFFFFFFFFFFFFFFFF AND DUP2 JUMP JUMPDEST PUSH1 0x1 PUSH0 CALLER PUSH20 0xFFFFFFFFFFFFFFFFFFFFFFFFFFFFFFFFFFFFFFFF AND PUSH20 0xFFFFFFFFFFFFFFFFFFFFFFFFFFFFFFFFFFFFFFFF AND DUP2 MSTORE PUSH1 0x20 ADD SWAP1 DUP2 MSTORE PUSH1 0x20 ADD PUSH0 KECCAK256 PUSH0 SWAP1 SLOAD SWAP1 PUSH2 0x100 EXP SWAP1 DIV PUSH1 0xFF AND PUSH2 0xA49 JUMPI PUSH1 0x40 MLOAD PUSH32 0x8C379A000000000000000000000000000000000000000000000000000000000 DUP2 MSTORE PUSH1 0x4 ADD PUSH2 0xA40 SWAP1 PUSH2 0x16F4 JUMP JUMPDEST PUSH1 0x40 MLOAD DUP1 SWAP2 SUB SWAP1 REVERT JUMPDEST DUP1 PUSH1 0x4 DUP1 SLOAD SWAP1 POP DUP2 LT PUSH2 0xA91 JUMPI PUSH1 0x40 MLOAD PUSH32 0x8C379A000000000000000000000000000000000000000000000000000000000 DUP2 MSTORE PUSH1 0x4 ADD PUSH2 0xA88 SWAP1 PUSH2 0x175C JUMP JUMPDEST PUSH1 0x40 MLOAD DUP1 SWAP2 SUB SWAP1 REVERT JUMPDEST DUP2 PUSH1 0x4 DUP2 DUP2 SLOAD DUP2 LT PUSH2 0xAA6 JUMPI PUSH2 0xAA5 PUSH2 0x177A JUMP JUMPDEST JUMPDEST SWAP1 PUSH0 MSTORE PUSH1 0x20 PUSH0 KECCAK256 SWAP1 PUSH1 0x5 MUL ADD PUSH1 0x3 ADD PUSH0 SWAP1 SLOAD SWAP1 PUSH2 0x100 EXP SWAP1 DIV PUSH1 0xFF AND ISZERO PUSH2 0xB02 JUMPI PUSH1 0x40 MLOAD PUSH32 0x8C379A000000000000000000000000000000000000000000000000000000000 DUP2 MSTORE PUSH1 0x4 ADD PUSH2 0xAF9 SWAP1 PUSH2 0x17F1 JUMP JUMPDEST PUSH1 0x40 MLOAD DUP1 SWAP2 SUB SWAP1 REVERT JUMPDEST DUP3 PUSH1 0x3 PUSH0 DUP3 DUP2 MSTORE PUSH1 0x20 ADD SWAP1 DUP2 MSTORE PUSH1 0x20 ADD PUSH0 KECCAK256 PUSH0 CALLER PUSH20 0xFFFFFFFFFFFFFFFFFFFFFFFFFFFFFFFFFFFFFFFF AND PUSH20 0xFFFFFFFFFFFFFFFFFFFFFFFFFFFFFFFFFFFFFFFF AND DUP2 MSTORE PUSH1 0x20 ADD SWAP1 DUP2 MSTORE PUSH1 0x20 ADD PUSH0 KECCAK256 PUSH0 SWAP1 SLOAD SWAP1 PUSH2 0x100 EXP SWAP1 DIV PUSH1 0xFF AND ISZERO PUSH2 0xB9C JUMPI PUSH1 0x40 MLOAD PUSH32 0x8C379A000000000000000000000000000000000000000000000000000000000 DUP2 MSTORE PUSH1 0x4 ADD PUSH2 0xB93 SWAP1 PUSH2 0x197E JUMP JUMPDEST PUSH1 0x40 MLOAD DUP1 SWAP2 SUB SWAP1 REVERT JUMPDEST PUSH0 PUSH1 0x4 DUP6 DUP2 SLOAD DUP2 LT PUSH2 0xBB1 JUMPI PUSH2 0xBB0 PUSH2 0x177A JUMP JUMPDEST JUMPDEST SWAP1 PUSH0 MSTORE PUSH1 0x20 PUSH0 KECCAK256 SWAP1 PUSH1 0x5 MUL ADD SWAP1 POP PUSH1 0x1 DUP2 PUSH1 0x4 ADD PUSH0 DUP3 DUP3 SLOAD PUSH2 0xBD3 SWAP2 SWAP1 PUSH2 0x199C JUMP JUMPDEST SWAP3 POP POP DUP2 SWAP1 SSTORE POP PUSH1 0x1 PUSH1 0x3 PUSH0 DUP8 DUP2 MSTORE PUSH1 0x20 ADD SWAP1 DUP2 MSTORE PUSH1 0x20 ADD PUSH0 KECCAK256 PUSH0 CALLER PUSH20 0xFFFFFFFFFFFFFFFFFFFFFFFFFFFFFFFFFFFFFFFF AND PUSH20 0xFFFFFFFFFFFFFFFFFFFFFFFFFFFFFFFFFFFFFFFF AND DUP2 MSTORE PUSH1 0x20 ADD SWAP1 DUP2 MSTORE PUSH1 0x20 ADD PUSH0 KECCAK256 PUSH0 PUSH2 0x100 EXP DUP2 SLOAD DUP2 PUSH1 0xFF MUL NOT AND SWAP1 DUP4 ISZERO ISZERO MUL OR SWAP1 SSTORE POP DUP5 CALLER PUSH20 0xFFFFFFFFFFFFFFFFFFFFFFFFFFFFFFFFFFFFFFFF AND PUSH32 0x5CBE105E36805F7820E291F799D5794FF948AF2A5F664E580382DEFB63390041 PUSH1 0x40 MLOAD PUSH1 0x40 MLOAD DUP1 SWAP2 SUB SWAP1 LOG3 POP POP POP POP POP JUMP JUMPDEST PUSH1 0x1 PUSH0 CALLER PUSH20 0xFFFFFFFFFFFFFFFFFFFFFFFFFFFFFFFFFFFFFFFF AND PUSH20 0xFFFFFFFFFFFFFFFFFFFFFFFFFFFFFFFFFFFFFFFF AND DUP2 MSTORE PUSH1 0x20 ADD SWAP1 DUP2 MSTORE PUSH1 0x20 ADD PUSH0 KECCAK256 PUSH0 SWAP1 SLOAD SWAP1 PUSH2 0x100 EXP SWAP1 DIV PUSH1 0xFF AND PUSH2 0xD12 JUMPI PUSH1 0x40 MLOAD PUSH32 0x8C379A000000000000000000000000000000000000000000000000000000000 DUP2 MSTORE PUSH1 0x4 ADD PUSH2 0xD09 SWAP1 PUSH2 0x16F4 JUMP JUMPDEST PUSH1 0x40 MLOAD DUP1 SWAP2 SUB SWAP1 REVERT JUMPDEST PUSH0 PUSH1 0x4 DUP1 SLOAD SWAP1 POP SWAP1 POP PUSH1 0x4 PUSH1 0x40 MLOAD DUP1 PUSH1 0xA0 ADD PUSH1 0x40 MSTORE DUP1 DUP7 PUSH20 0xFFFFFFFFFFFFFFFFFFFFFFFFFFFFFFFFFFFFFFFF AND DUP2 MSTORE PUSH1 0x20 ADD DUP6 DUP2 MSTORE PUSH1 0x20 ADD DUP5 DUP2 MSTORE PUSH1 0x20 ADD PUSH0 ISZERO ISZERO DUP2 MSTORE PUSH1 0x20 ADD PUSH0 DUP2 MSTORE POP SWAP1 DUP1 PUSH1 0x1 DUP2 SLOAD ADD DUP1 DUP3 SSTORE DUP1 SWAP2 POP POP PUSH1 0x1 SWAP1 SUB SWAP1 PUSH0 MSTORE PUSH1 0x20 PUSH0 KECCAK256 SWAP1 PUSH1 0x5 MUL ADD PUSH0 SWAP1 SWAP2 SWAP1 SWAP2 SWAP1 SWAP2 POP PUSH0 DUP3 ADD MLOAD DUP2 PUSH0 ADD PUSH0 PUSH2 0x100 EXP DUP2 SLOAD DUP2 PUSH20 0xFFFFFFFFFFFFFFFFFFFFFFFFFFFFFFFFFFFFFFFF MUL NOT AND SWAP1 DUP4 PUSH20 0xFFFFFFFFFFFFFFFFFFFFFFFFFFFFFFFFFFFFFFFF AND MUL OR SWAP1 SSTORE POP PUSH1 0x20 DUP3 ADD MLOAD DUP2 PUSH1 0x1 ADD SSTORE PUSH1 0x40 DUP3 ADD MLOAD DUP2 PUSH1 0x2 ADD SWAP1 DUP2 PUSH2 0xDE5 SWAP2 SWAP1 PUSH2 0x1B6C JUMP JUMPDEST POP PUSH1 0x60 DUP3 ADD MLOAD DUP2 PUSH1 0x3 ADD PUSH0 PUSH2 0x100 EXP DUP2 SLOAD DUP2 PUSH1 0xFF MUL NOT AND SWAP1 DUP4 ISZERO ISZERO MUL OR SWAP1 SSTORE POP PUSH1 0x80 DUP3 ADD MLOAD DUP2 PUSH1 0x4 ADD SSTORE POP POP DUP4 PUSH20 0xFFFFFFFFFFFFFFFFFFFFFFFFFFFFFFFFFFFFFFFF AND DUP2 CALLER PUSH20 0xFFFFFFFFFFFFFFFFFFFFFFFFFFFFFFFFFFFFFFFF AND PUSH32 0xD5A05BF70715AD82A09A756320284A1B54C9FF74CD0F8CCE6219E79B563FE59D DUP7 DUP7 PUSH1 0x40 MLOAD PUSH2 0xE71 SWAP3 SWAP2 SWAP1 PUSH2 0x1C3B JUMP JUMPDEST PUSH1 0x40 MLOAD DUP1 SWAP2 SUB SWAP1 LOG4 POP POP POP POP JUMP JUMPDEST PUSH1 0x2 SLOAD DUP2 JUMP JUMPDEST PUSH1 0x1 PUSH0 CALLER PUSH20 0xFFFFFFFFFFFFFFFFFFFFFFFFFFFFFFFFFFFFFFFF AND PUSH20 0xFFFFFFFFFFFFFFFFFFFFFFFFFFFFFFFFFFFFFFFF AND DUP2 MSTORE PUSH1 0x20 ADD SWAP1 DUP2 MSTORE PUSH1 0x20 ADD PUSH0 KECCAK256 PUSH0 SWAP1 SLOAD SWAP1 PUSH2 0x100 EXP SWAP1 DIV PUSH1 0xFF AND PUSH2 0xF0E JUMPI PUSH1 0x40 MLOAD PUSH32 0x8C379A000000000000000000000000000000000000000000000000000000000 DUP2 MSTORE PUSH1 0x4 ADD PUSH2 0xF05 SWAP1 PUSH2 0x16F4 JUMP JUMPDEST PUSH1 0x40 MLOAD DUP1 SWAP2 SUB SWAP1 REVERT JUMPDEST DUP1 PUSH1 0x4 DUP1 SLOAD SWAP1 POP DUP2 LT PUSH2 0xF56 JUMPI PUSH1 0x40 MLOAD PUSH32 0x8C379A000000000000000000000000000000000000000000000000000000000 DUP2 MSTORE PUSH1 0x4 ADD PUSH2 0xF4D SWAP1 PUSH2 0x175C JUMP JUMPDEST PUSH1 0x40 MLOAD DUP1 SWAP2 SUB SWAP1 REVERT JUMPDEST DUP2 PUSH1 0x4 DUP2 DUP2 SLOAD DUP2 LT PUSH2 0xF6B JUMPI PUSH2 0xF6A PUSH2 0x177A JUMP JUMPDEST JUMPDEST SWAP1 PUSH0 MSTORE PUSH1 0x20 PUSH0 KECCAK256 SWAP1 PUSH1 0x5 MUL ADD PUSH1 0x3 ADD PUSH0 SWAP1 SLOAD SWAP1 PUSH2 0x100 EXP SWAP1 DIV PUSH1 0xFF AND ISZERO PUSH2 0xFC7 JUMPI PUSH1 0x40 MLOAD PUSH32 0x8C379A000000000000000000000000000000000000000000000000000000000 DUP2 MSTORE PUSH1 0x4 ADD PUSH2 0xFBE SWAP1 PUSH2 0x17F1 JUMP JUMPDEST PUSH1 0x40 MLOAD DUP1 SWAP2 SUB SWAP1 REVERT JUMPDEST PUSH0 PUSH1 0x4 DUP5 DUP2 SLOAD DUP2 LT PUSH2 0xFDC JUMPI PUSH2 0xFDB PUSH2 0x177A JUMP JUMPDEST JUMPDEST SWAP1 PUSH0 MSTORE PUSH1 0x20 PUSH0 KECCAK256 SWAP1 PUSH1 0x5 MUL ADD SWAP1 POP PUSH1 0x2 SLOAD DUP2 PUSH1 0x4 ADD SLOAD LT ISZERO PUSH2 0x1033 JUMPI PUSH1 0x40 MLOAD PUSH32 0x8C379A000000000000000000000000000000000000000000000000000000000 DUP2 MSTORE PUSH1 0x4 ADD PUSH2 0x102A SWAP1 PUSH2 0x1CB3 JUMP JUMPDEST PUSH1 0x40 MLOAD DUP1 SWAP2 SUB SWAP1 REVERT JUMPDEST PUSH1 0x1 DUP2 PUSH1 0x3 ADD PUSH0 PUSH2 0x100 EXP DUP2 SLOAD DUP2 PUSH1 0xFF MUL NOT AND SWAP1 DUP4 ISZERO ISZERO MUL OR SWAP1 SSTORE POP PUSH0 DUP2 PUSH0 ADD PUSH0 SWAP1 SLOAD SWAP1 PUSH2 0x100 EXP SWAP1 DIV PUSH20 0xFFFFFFFFFFFFFFFFFFFFFFFFFFFFFFFFFFFFFFFF AND PUSH20 0xFFFFFFFFFFFFFFFFFFFFFFFFFFFFFFFFFFFFFFFF AND DUP3 PUSH1 0x1 ADD SLOAD DUP4 PUSH1 0x2 ADD PUSH1 0x40 MLOAD PUSH2 0x109F SWAP2 SWAP1 PUSH2 0x1D5B JUMP JUMPDEST PUSH0 PUSH1 0x40 MLOAD DUP1 DUP4 SUB DUP2 DUP6 DUP8 GAS CALL SWAP3 POP POP POP RETURNDATASIZE DUP1 PUSH0 DUP2 EQ PUSH2 0x10D9 JUMPI PUSH1 0x40 MLOAD SWAP2 POP PUSH1 0x1F NOT PUSH1 0x3F RETURNDATASIZE ADD AND DUP3 ADD PUSH1 0x40 MSTORE RETURNDATASIZE DUP3 MSTORE RETURNDATASIZE PUSH0 PUSH1 0x20 DUP5 ADD RETURNDATACOPY PUSH2 0x10DE JUMP JUMPDEST PUSH1 0x60 SWAP2 POP JUMPDEST POP POP SWAP1 POP DUP1 PUSH2 0x1122 JUMPI PUSH1 0x40 MLOAD PUSH32 0x8C379A000000000000000000000000000000000000000000000000000000000 DUP2 MSTORE PUSH1 0x4 ADD PUSH2 0x1119 SWAP1 PUSH2 0x1DBB JUMP JUMPDEST PUSH1 0x40 MLOAD DUP1 SWAP2 SUB SWAP1 REVERT JUMPDEST DUP5 CALLER PUSH20 0xFFFFFFFFFFFFFFFFFFFFFFFFFFFFFFFFFFFFFFFF AND PUSH32 0x5445F318F4F5FCFB66592E68E0CC5822AA15664039BD5F0FFDE24C5A8142B1AC PUSH1 0x40 MLOAD PUSH1 0x40 MLOAD DUP1 SWAP2 SUB SWAP1 LOG3 POP POP POP POP POP JUMP JUMPDEST PUSH0 DUP2 SWAP1 POP SWAP2 SWAP1 POP JUMP JUMPDEST PUSH2 0x117F DUP2 PUSH2 0x116D JUMP JUMPDEST DUP3 MSTORE POP POP JUMP JUMPDEST PUSH0 PUSH1 0x40 DUP3 ADD SWAP1 POP PUSH2 0x1198 PUSH0 DUP4 ADD DUP6 PUSH2 0x1176 JUMP JUMPDEST PUSH2 0x11A5 PUSH1 0x20 DUP4 ADD DUP5 PUSH2 0x1176 JUMP JUMPDEST SWAP4 SWAP3 POP POP POP JUMP JUMPDEST PUSH0 PUSH1 0x40 MLOAD SWAP1 POP SWAP1 JUMP JUMPDEST PUSH0 DUP1 REVERT JUMPDEST PUSH0 DUP1 REVERT JUMPDEST PUSH2 0x11C6 DUP2 PUSH2 0x116D JUMP JUMPDEST DUP2 EQ PUSH2 0x11D0 JUMPI PUSH0 DUP1 REVERT JUMPDEST POP JUMP JUMPDEST PUSH0 DUP2 CALLDATALOAD SWAP1 POP PUSH2 0x11E1 DUP2 PUSH2 0x11BD JUMP JUMPDEST SWAP3 SWAP2 POP POP JUMP JUMPDEST PUSH0 PUSH1 0x20 DUP3 DUP5 SUB SLT ISZERO PUSH2 0x11FC JUMPI PUSH2 0x11FB PUSH2 0x11B5 JUMP JUMPDEST JUMPDEST PUSH0 PUSH2 0x1209 DUP5 DUP3 DUP6 ADD PUSH2 0x11D3 JUMP JUMPDEST SWAP2 POP POP SWAP3 SWAP2 POP POP JUMP JUMPDEST PUSH0 PUSH20 0xFFFFFFFFFFFFFFFFFFFFFFFFFFFFFFFFFFFFFFFF DUP3 AND SWAP1 POP SWAP2 SWAP1 POP JUMP JUMPDEST PUSH0 PUSH2 0x123B DUP3 PUSH2 0x1212 JUMP JUMPDEST SWAP1 POP SWAP2 SWAP1 POP JUMP JUMPDEST PUSH2 0x124B DUP2 PUSH2 0x1231 JUMP JUMPDEST DUP3 MSTORE POP POP JUMP JUMPDEST PUSH0 PUSH1 0x20 DUP3 ADD SWAP1 POP PUSH2 0x1264 PUSH0 DUP4 ADD DUP5 PUSH2 0x1242 JUMP JUMPDEST SWAP3 SWAP2 POP POP JUMP JUMPDEST PUSH0 PUSH1 0x20 DUP3 ADD SWAP1 POP PUSH2 0x127D PUSH0 DUP4 ADD DUP5 PUSH2 0x1176 JUMP JUMPDEST SWAP3 SWAP2 POP POP JUMP JUMPDEST PUSH2 0x128C DUP2 PUSH2 0x1231 JUMP JUMPDEST DUP2 EQ PUSH2 0x1296 JUMPI PUSH0 DUP1 REVERT JUMPDEST POP JUMP JUMPDEST PUSH0 DUP2 CALLDATALOAD SWAP1 POP PUSH2 0x12A7 DUP2 PUSH2 0x1283 JUMP JUMPDEST SWAP3 SWAP2 POP POP JUMP JUMPDEST PUSH0 PUSH1 0x20 DUP3 DUP5 SUB SLT ISZERO PUSH2 0x12C2 JUMPI PUSH2 0x12C1 PUSH2 0x11B5 JUMP JUMPDEST JUMPDEST PUSH0 PUSH2 0x12CF DUP5 DUP3 DUP6 ADD PUSH2 0x1299 JUMP JUMPDEST SWAP2 POP POP SWAP3 SWAP2 POP POP JUMP JUMPDEST PUSH0 DUP2 ISZERO ISZERO SWAP1 POP SWAP2 SWAP1 POP JUMP JUMPDEST PUSH2 0x12EC DUP2 PUSH2 0x12D8 JUMP JUMPDEST DUP3 MSTORE POP POP JUMP JUMPDEST PUSH0 PUSH1 0x20 DUP3 ADD SWAP1 POP PUSH2 0x1305 PUSH0 DUP4 ADD DUP5 PUSH2 0x12E3 JUMP JUMPDEST SWAP3 SWAP2 POP POP JUMP JUMPDEST PUSH0 DUP2 MLOAD SWAP1 POP SWAP2 SWAP1 POP JUMP JUMPDEST PUSH0 DUP3 DUP3 MSTORE PUSH1 0x20 DUP3 ADD SWAP1 POP SWAP3 SWAP2 POP POP JUMP JUMPDEST PUSH0 JUMPDEST DUP4 DUP2 LT ISZERO PUSH2 0x1342 JUMPI DUP1 DUP3 ADD MLOAD DUP2 DUP5 ADD MSTORE PUSH1 0x20 DUP2 ADD SWAP1 POP PUSH2 0x1327 JUMP JUMPDEST PUSH0 DUP5 DUP5 ADD MSTORE POP POP POP POP JUMP JUMPDEST PUSH0 PUSH1 0x1F NOT PUSH1 0x1F DUP4 ADD AND SWAP1 POP SWAP2 SWAP1 POP JUMP JUMPDEST PUSH0 PUSH2 0x1367 DUP3 PUSH2 0x130B JUMP JUMPDEST PUSH2 0x1371 DUP2 DUP6 PUSH2 0x1315 JUMP JUMPDEST SWAP4 POP PUSH2 0x1381 DUP2 DUP6 PUSH1 0x20 DUP7 ADD PUSH2 0x1325 JUMP JUMPDEST PUSH2 0x138A DUP2 PUSH2 0x134D JUMP JUMPDEST DUP5 ADD SWAP2 POP POP SWAP3 SWAP2 POP POP JUMP JUMPDEST PUSH0 PUSH1 0xA0 DUP3 ADD SWAP1 POP PUSH2 0x13A8 PUSH0 DUP4 ADD DUP9 PUSH2 0x1242 JUMP JUMPDEST PUSH2 0x13B5 PUSH1 0x20 DUP4 ADD DUP8 PUSH2 0x1176 JUMP JUMPDEST DUP2 DUP2 SUB PUSH1 0x40 DUP4 ADD MSTORE PUSH2 0x13C7 DUP2 DUP7 PUSH2 0x135D JUMP JUMPDEST SWAP1 POP PUSH2 0x13D6 PUSH1 0x60 DUP4 ADD DUP6 PUSH2 0x12E3 JUMP JUMPDEST PUSH2 0x13E3 PUSH1 0x80 DUP4 ADD DUP5 PUSH2 0x1176 JUMP JUMPDEST SWAP7 SWAP6 POP POP POP POP POP POP JUMP JUMPDEST PUSH0 DUP1 PUSH1 0x40 DUP4 DUP6 SUB SLT ISZERO PUSH2 0x1403 JUMPI PUSH2 0x1402 PUSH2 0x11B5 JUMP JUMPDEST JUMPDEST PUSH0 PUSH2 0x1410 DUP6 DUP3 DUP7 ADD PUSH2 0x11D3 JUMP JUMPDEST SWAP3 POP POP PUSH1 0x20 PUSH2 0x1421 DUP6 DUP3 DUP7 ADD PUSH2 0x1299 JUMP JUMPDEST SWAP2 POP POP SWAP3 POP SWAP3 SWAP1 POP JUMP JUMPDEST PUSH0 DUP2 MLOAD SWAP1 POP SWAP2 SWAP1 POP JUMP JUMPDEST PUSH0 DUP3 DUP3 MSTORE PUSH1 0x20 DUP3 ADD SWAP1 POP SWAP3 SWAP2 POP POP JUMP JUMPDEST PUSH0 DUP2 SWAP1 POP PUSH1 0x20 DUP3 ADD SWAP1 POP SWAP2 SWAP1 POP JUMP JUMPDEST PUSH2 0x145D DUP2 PUSH2 0x1231 JUMP JUMPDEST DUP3 MSTORE POP POP JUMP JUMPDEST PUSH0 PUSH2 0x146E DUP4 DUP4 PUSH2 0x1454 JUMP JUMPDEST PUSH1 0x20 DUP4 ADD SWAP1 POP SWAP3 SWAP2 POP POP JUMP JUMPDEST PUSH0 PUSH1 0x20 DUP3 ADD SWAP1 POP SWAP2 SWAP1 POP JUMP JUMPDEST PUSH0 PUSH2 0x1490 DUP3 PUSH2 0x142B JUMP JUMPDEST PUSH2 0x149A DUP2 DUP6 PUSH2 0x1435 JUMP JUMPDEST SWAP4 POP PUSH2 0x14A5 DUP4 PUSH2 0x1445 JUMP JUMPDEST DUP1 PUSH0 JUMPDEST DUP4 DUP2 LT ISZERO PUSH2 0x14D5 JUMPI DUP2 MLOAD PUSH2 0x14BC DUP9 DUP3 PUSH2 0x1463 JUMP JUMPDEST SWAP8 POP PUSH2 0x14C7 DUP4 PUSH2 0x147A JUMP JUMPDEST SWAP3 POP POP PUSH1 0x1 DUP2 ADD SWAP1 POP PUSH2 0x14A8 JUMP JUMPDEST POP DUP6 SWAP4 POP POP POP POP SWAP3 SWAP2 POP POP JUMP JUMPDEST PUSH0 PUSH1 0x20 DUP3 ADD SWAP1 POP DUP2 DUP2 SUB PUSH0 DUP4 ADD MSTORE PUSH2 0x14FA DUP2 DUP5 PUSH2 0x1486 JUMP JUMPDEST SWAP1 POP SWAP3 SWAP2 POP POP JUMP JUMPDEST PUSH0 DUP1 REVERT JUMPDEST PUSH0 DUP1 REVERT JUMPDEST PUSH32 0x4E487B7100000000000000000000000000000000000000000000000000000000 PUSH0 MSTORE PUSH1 0x41 PUSH1 0x4 MSTORE PUSH1 0x24 PUSH0 REVERT JUMPDEST PUSH2 0x1540 DUP3 PUSH2 0x134D JUMP JUMPDEST DUP2 ADD DUP2 DUP2 LT PUSH8 0xFFFFFFFFFFFFFFFF DUP3 GT OR ISZERO PUSH2 0x155F JUMPI PUSH2 0x155E PUSH2 0x150A JUMP JUMPDEST JUMPDEST DUP1 PUSH1 0x40 MSTORE POP POP POP JUMP JUMPDEST PUSH0 PUSH2 0x1571 PUSH2 0x11AC JUMP JUMPDEST SWAP1 POP PUSH2 0x157D DUP3 DUP3 PUSH2 0x1537 JUMP JUMPDEST SWAP2 SWAP1 POP JUMP JUMPDEST PUSH0 PUSH8 0xFFFFFFFFFFFFFFFF DUP3 GT ISZERO PUSH2 0x159C JUMPI PUSH2 0x159B PUSH2 0x150A JUMP JUMPDEST JUMPDEST PUSH2 0x15A5 DUP3 PUSH2 0x134D JUMP JUMPDEST SWAP1 POP PUSH1 0x20 DUP2 ADD SWAP1 POP SWAP2 SWAP1 POP JUMP JUMPDEST DUP3 DUP2 DUP4 CALLDATACOPY PUSH0 DUP4 DUP4 ADD MSTORE POP POP POP JUMP JUMPDEST PUSH0 PUSH2 0x15D2 PUSH2 0x15CD DUP5 PUSH2 0x1582 JUMP JUMPDEST PUSH2 0x1568 JUMP JUMPDEST SWAP1 POP DUP3 DUP2 MSTORE PUSH1 0x20 DUP2 ADD DUP5 DUP5 DUP5 ADD GT ISZERO PUSH2 0x15EE JUMPI PUSH2 0x15ED PUSH2 0x1506 JUMP JUMPDEST JUMPDEST PUSH2 0x15F9 DUP5 DUP3 DUP6 PUSH2 0x15B2 JUMP JUMPDEST POP SWAP4 SWAP3 POP POP POP JUMP JUMPDEST PUSH0 DUP3 PUSH1 0x1F DUP4 ADD SLT PUSH2 0x1615 JUMPI PUSH2 0x1614 PUSH2 0x1502 JUMP JUMPDEST JUMPDEST DUP2 CALLDATALOAD PUSH2 0x1625 DUP5 DUP3 PUSH1 0x20 DUP7 ADD PUSH2 0x15C0 JUMP JUMPDEST SWAP2 POP POP SWAP3 SWAP2 POP POP JUMP JUMPDEST PUSH0 DUP1 PUSH0 PUSH1 0x60 DUP5 DUP7 SUB SLT ISZERO PUSH2 0x1645 JUMPI PUSH2 0x1644 PUSH2 0x11B5 JUMP JUMPDEST JUMPDEST PUSH0 PUSH2 0x1652 DUP7 DUP3 DUP8 ADD PUSH2 0x1299 JUMP JUMPDEST SWAP4 POP POP PUSH1 0x20 PUSH2 0x1663 DUP7 DUP3 DUP8 ADD PUSH2 0x11D3 JUMP JUMPDEST SWAP3 POP POP PUSH1 0x40 DUP5 ADD CALLDATALOAD PUSH8 0xFFFFFFFFFFFFFFFF DUP2 GT ISZERO PUSH2 0x1684 JUMPI PUSH2 0x1683 PUSH2 0x11B9 JUMP JUMPDEST JUMPDEST PUSH2 0x1690 DUP7 DUP3 DUP8 ADD PUSH2 0x1601 JUMP JUMPDEST SWAP2 POP POP SWAP3 POP SWAP3 POP SWAP3 JUMP JUMPDEST PUSH0 DUP3 DUP3 MSTORE PUSH1 0x20 DUP3 ADD SWAP1 POP SWAP3 SWAP2 POP POP JUMP JUMPDEST PUSH32 0x6E6F74206F776E65720000000000000000000000000000000000000000000000 PUSH0 DUP3 ADD MSTORE POP JUMP JUMPDEST PUSH0 PUSH2 0x16DE PUSH1 0x9 DUP4 PUSH2 0x169A JUMP JUMPDEST SWAP2 POP PUSH2 0x16E9 DUP3 PUSH2 0x16AA JUMP JUMPDEST PUSH1 0x20 DUP3 ADD SWAP1 POP SWAP2 SWAP1 POP JUMP JUMPDEST PUSH0 PUSH1 0x20 DUP3 ADD SWAP1 POP DUP2 DUP2 SUB PUSH0 DUP4 ADD MSTORE PUSH2 0x170B DUP2 PUSH2 0x16D2 JUMP JUMPDEST SWAP1 POP SWAP2 SWAP1 POP JUMP JUMPDEST PUSH32 0x747820646F6573206E6F74206578697374000000000000000000000000000000 PUSH0 DUP3 ADD MSTORE POP JUMP JUMPDEST PUSH0 PUSH2 0x1746 PUSH1 0x11 DUP4 PUSH2 0x169A JUMP JUMPDEST SWAP2 POP PUSH2 0x1751 DUP3 PUSH2 0x1712 JUMP JUMPDEST PUSH1 0x20 DUP3 ADD SWAP1 POP SWAP2 SWAP1 POP JUMP JUMPDEST PUSH0 PUSH1 0x20 DUP3 ADD SWAP1 POP DUP2 DUP2 SUB PUSH0 DUP4 ADD MSTORE PUSH2 0x1773 DUP2 PUSH2 0x173A JUMP JUMPDEST SWAP1 POP SWAP2 SWAP1 POP JUMP JUMPDEST PUSH32 0x4E487B7100000000000000000000000000000000000000000000000000000000 PUSH0 MSTORE PUSH1 0x32 PUSH1 0x4 MSTORE PUSH1 0x24 PUSH0 REVERT JUMPDEST PUSH32 0x747820616C726561647920657865637574656400000000000000000000000000 PUSH0 DUP3 ADD MSTORE POP JUMP JUMPDEST PUSH0 PUSH2 0x17DB PUSH1 0x13 DUP4 PUSH2 0x169A JUMP JUMPDEST SWAP2 POP PUSH2 0x17E6 DUP3 PUSH2 0x17A7 JUMP JUMPDEST PUSH1 0x20 DUP3 ADD SWAP1 POP SWAP2 SWAP1 POP JUMP JUMPDEST PUSH0 PUSH1 0x20 DUP3 ADD SWAP1 POP DUP2 DUP2 SUB PUSH0 DUP4 ADD MSTORE PUSH2 0x1808 DUP2 PUSH2 0x17CF JUMP JUMPDEST SWAP1 POP SWAP2 SWAP1 POP JUMP JUMPDEST PUSH32 0x7478206E6F7420636F6E6669726D656400000000000000000000000000000000 PUSH0 DUP3 ADD MSTORE POP JUMP JUMPDEST PUSH0 PUSH2 0x1843 PUSH1 0x10 DUP4 PUSH2 0x169A JUMP JUMPDEST SWAP2 POP PUSH2 0x184E DUP3 PUSH2 0x180F JUMP JUMPDEST PUSH1 0x20 DUP3 ADD SWAP1 POP SWAP2 SWAP1 POP JUMP JUMPDEST PUSH0 PUSH1 0x20 DUP3 ADD SWAP1 POP DUP2 DUP2 SUB PUSH0 DUP4 ADD MSTORE PUSH2 0x1870 DUP2 PUSH2 0x1837 JUMP JUMPDEST SWAP1 POP SWAP2 SWAP1 POP JUMP JUMPDEST PUSH32 0x4E487B7100000000000000000000000000000000000000000000000000000000 PUSH0 MSTORE PUSH1 0x11 PUSH1 0x4 MSTORE PUSH1 0x24 PUSH0 REVERT JUMPDEST PUSH0 PUSH2 0x18AE DUP3 PUSH2 0x116D JUMP JUMPDEST SWAP2 POP PUSH2 0x18B9 DUP4 PUSH2 0x116D JUMP JUMPDEST SWAP3 POP DUP3 DUP3 SUB SWAP1 POP DUP2 DUP2 GT ISZERO PUSH2 0x18D1 JUMPI PUSH2 0x18D0 PUSH2 0x1877 JUMP JUMPDEST JUMPDEST SWAP3 SWAP2 POP POP JUMP JUMPDEST PUSH32 0x4E487B7100000000000000000000000000000000000000000000000000000000 PUSH0 MSTORE PUSH1 0x22 PUSH1 0x4 MSTORE PUSH1 0x24 PUSH0 REVERT JUMPDEST PUSH0 PUSH1 0x2 DUP3 DIV SWAP1 POP PUSH1 0x1 DUP3 AND DUP1 PUSH2 0x191B JUMPI PUSH1 0x7F DUP3 AND SWAP2 POP JUMPDEST PUSH1 0x20 DUP3 LT DUP2 SUB PUSH2 0x192E JUMPI PUSH2 0x192D PUSH2 0x18D7 JUMP JUMPDEST JUMPDEST POP SWAP2 SWAP1 POP JUMP JUMPDEST PUSH32 0x747820616C726561647920636F6E6669726D6564000000000000000000000000 PUSH0 DUP3 ADD MSTORE POP JUMP JUMPDEST PUSH0 PUSH2 0x1968 PUSH1 0x14 DUP4 PUSH2 0x169A JUMP JUMPDEST SWAP2 POP PUSH2 0x1973 DUP3 PUSH2 0x1934 JUMP JUMPDEST PUSH1 0x20 DUP3 ADD SWAP1 POP SWAP2 SWAP1 POP JUMP JUMPDEST PUSH0 PUSH1 0x20 DUP3 ADD SWAP1 POP DUP2 DUP2 SUB PUSH0 DUP4 ADD MSTORE PUSH2 0x1995 DUP2 PUSH2 0x195C JUMP JUMPDEST SWAP1 POP SWAP2 SWAP1 POP JUMP JUMPDEST PUSH0 PUSH2 0x19A6 DUP3 PUSH2 0x116D JUMP JUMPDEST SWAP2 POP PUSH2 0x19B1 DUP4 PUSH2 0x116D JUMP JUMPDEST SWAP3 POP DUP3 DUP3 ADD SWAP1 POP DUP1 DUP3 GT ISZERO PUSH2 0x19C9 JUMPI PUSH2 0x19C8 PUSH2 0x1877 JUMP JUMPDEST JUMPDEST SWAP3 SWAP2 POP POP JUMP JUMPDEST PUSH0 DUP2 SWAP1 POP DUP2 PUSH0 MSTORE PUSH1 0x20 PUSH0 KECCAK256 SWAP1 POP SWAP2 SWAP1 POP JUMP JUMPDEST PUSH0 PUSH1 0x20 PUSH1 0x1F DUP4 ADD DIV SWAP1 POP SWAP2 SWAP1 POP JUMP JUMPDEST PUSH0 DUP3 DUP3 SHL SWAP1 POP SWAP3 SWAP2 POP POP JUMP JUMPDEST PUSH0 PUSH1 0x8 DUP4 MUL PUSH2 0x1A2B PUSH32 0xFFFFFFFFFFFFFFFFFFFFFFFFFFFFFFFFFFFFFFFFFFFFFFFFFFFFFFFFFFFFFFFF DUP3 PUSH2 0x19F0 JUMP JUMPDEST PUSH2 0x1A35 DUP7 DUP4 PUSH2 0x19F0 JUMP JUMPDEST SWAP6 POP DUP1 NOT DUP5 AND SWAP4 POP DUP1 DUP7 AND DUP5 OR SWAP3 POP POP POP SWAP4 SWAP3 POP POP POP JUMP JUMPDEST PUSH0 DUP2 SWAP1 POP SWAP2 SWAP1 POP JUMP JUMPDEST PUSH0 PUSH2 0x1A70 PUSH2 0x1A6B PUSH2 0x1A66 DUP5 PUSH2 0x116D JUMP JUMPDEST PUSH2 0x1A4D JUMP JUMPDEST PUSH2 0x116D JUMP JUMPDEST SWAP1 POP SWAP2 SWAP1 POP JUMP JUMPDEST PUSH0 DUP2 SWAP1 POP SWAP2 SWAP1 POP JUMP JUMPDEST PUSH2 0x1A89 DUP4 PUSH2 0x1A56 JUMP JUMPDEST PUSH2 0x1A9D PUSH2 0x1A95 DUP3 PUSH2 0x1A77 JUMP JUMPDEST DUP5 DUP5 SLOAD PUSH2 0x19FC JUMP JUMPDEST DUP3 SSTORE POP POP POP POP JUMP JUMPDEST PUSH0 SWAP1 JUMP JUMPDEST PUSH2 0x1AB1 PUSH2 0x1AA5 JUMP JUMPDEST PUSH2 0x1ABC DUP2 DUP5 DUP5 PUSH2 0x1A80 JUMP JUMPDEST POP POP POP JUMP JUMPDEST JUMPDEST DUP2 DUP2 LT ISZERO PUSH2 0x1ADF JUMPI PUSH2 0x1AD4 PUSH0 DUP3 PUSH2 0x1AA9 JUMP JUMPDEST PUSH1 0x1 DUP2 ADD SWAP1 POP PUSH2 0x1AC2 JUMP JUMPDEST POP POP JUMP JUMPDEST PUSH1 0x1F DUP3 GT ISZERO PUSH2 0x1B24 JUMPI PUSH2 0x1AF5 DUP2 PUSH2 0x19CF JUMP JUMPDEST PUSH2 0x1AFE DUP5 PUSH2 0x19E1 JUMP JUMPDEST DUP2 ADD PUSH1 0x20 DUP6 LT ISZERO PUSH2 0x1B0D JUMPI DUP2 SWAP1 POP JUMPDEST PUSH2 0x1B21 PUSH2 0x1B19 DUP6 PUSH2 0x19E1 JUMP JUMPDEST DUP4 ADD DUP3 PUSH2 0x1AC1 JUMP JUMPDEST POP POP JUMPDEST POP POP POP JUMP JUMPDEST PUSH0 DUP3 DUP3 SHR SWAP1 POP SWAP3 SWAP2 POP POP JUMP JUMPDEST PUSH0 PUSH2 0x1B44 PUSH0 NOT DUP5 PUSH1 0x8 MUL PUSH2 0x1B29 JUMP JUMPDEST NOT DUP1 DUP4 AND SWAP2 POP POP SWAP3 SWAP2 POP POP JUMP JUMPDEST PUSH0 PUSH2 0x1B5C DUP4 DUP4 PUSH2 0x1B35 JUMP JUMPDEST SWAP2 POP DUP3 PUSH1 0x2 MUL DUP3 OR SWAP1 POP SWAP3 SWAP2 POP POP JUMP JUMPDEST PUSH2 0x1B75 DUP3 PUSH2 0x130B JUMP JUMPDEST PUSH8 0xFFFFFFFFFFFFFFFF DUP2 GT ISZERO PUSH2 0x1B8E JUMPI PUSH2 0x1B8D PUSH2 0x150A JUMP JUMPDEST JUMPDEST PUSH2 0x1B98 DUP3 SLOAD PUSH2 0x1904 JUMP JUMPDEST PUSH2 0x1BA3 DUP3 DUP3 DUP6 PUSH2 0x1AE3 JUMP JUMPDEST PUSH0 PUSH1 0x20 SWAP1 POP PUSH1 0x1F DUP4 GT PUSH1 0x1 DUP2 EQ PUSH2 0x1BD4 JUMPI PUSH0 DUP5 ISZERO PUSH2 0x1BC2 JUMPI DUP3 DUP8 ADD MLOAD SWAP1 POP JUMPDEST PUSH2 0x1BCC DUP6 DUP3 PUSH2 0x1B51 JUMP JUMPDEST DUP7 SSTORE POP PUSH2 0x1C33 JUMP JUMPDEST PUSH1 0x1F NOT DUP5 AND PUSH2 0x1BE2 DUP7 PUSH2 0x19CF JUMP JUMPDEST PUSH0 JUMPDEST DUP3 DUP2 LT ISZERO PUSH2 0x1C09 JUMPI DUP5 DUP10 ADD MLOAD DUP3 SSTORE PUSH1 0x1 DUP3 ADD SWAP2 POP PUSH1 0x20 DUP6 ADD SWAP5 POP PUSH1 0x20 DUP2 ADD SWAP1 POP PUSH2 0x1BE4 JUMP JUMPDEST DUP7 DUP4 LT ISZERO PUSH2 0x1C26 JUMPI DUP5 DUP10 ADD MLOAD PUSH2 0x1C22 PUSH1 0x1F DUP10 AND DUP3 PUSH2 0x1B35 JUMP JUMPDEST DUP4 SSTORE POP JUMPDEST PUSH1 0x1 PUSH1 0x2 DUP9 MUL ADD DUP9 SSTORE POP POP POP JUMPDEST POP POP POP POP POP POP JUMP JUMPDEST PUSH0 PUSH1 0x40 DUP3 ADD SWAP1 POP PUSH2 0x1C4E PUSH0 DUP4 ADD DUP6 PUSH2 0x1176 JUMP JUMPDEST DUP2 DUP2 SUB PUSH1 0x20 DUP4 ADD MSTORE PUSH2 0x1C60 DUP2 DUP5 PUSH2 0x135D JUMP JUMPDEST SWAP1 POP SWAP4 SWAP3 POP POP POP JUMP JUMPDEST PUSH32 0x63616E6E6F742065786563757465207478000000000000000000000000000000 PUSH0 DUP3 ADD MSTORE POP JUMP JUMPDEST PUSH0 PUSH2 0x1C9D PUSH1 0x11 DUP4 PUSH2 0x169A JUMP JUMPDEST SWAP2 POP PUSH2 0x1CA8 DUP3 PUSH2 0x1C69 JUMP JUMPDEST PUSH1 0x20 DUP3 ADD SWAP1 POP SWAP2 SWAP1 POP JUMP JUMPDEST PUSH0 PUSH1 0x20 DUP3 ADD SWAP1 POP DUP2 DUP2 SUB PUSH0 DUP4 ADD MSTORE PUSH2 0x1CCA DUP2 PUSH2 0x1C91 JUMP JUMPDEST SWAP1 POP SWAP2 SWAP1 POP JUMP JUMPDEST PUSH0 DUP2 SWAP1 POP SWAP3 SWAP2 POP POP JUMP JUMPDEST PUSH0 DUP2 SLOAD PUSH2 0x1CE7 DUP2 PUSH2 0x1904 JUMP JUMPDEST PUSH2 0x1CF1 DUP2 DUP7 PUSH2 0x1CD1 JUMP JUMPDEST SWAP5 POP PUSH1 0x1 DUP3 AND PUSH0 DUP2 EQ PUSH2 0x1D0B JUMPI PUSH1 0x1 DUP2 EQ PUSH2 0x1D20 JUMPI PUSH2 0x1D52 JUMP JUMPDEST PUSH1 0xFF NOT DUP4 AND DUP7 MSTORE DUP2 ISZERO ISZERO DUP3 MUL DUP7 ADD SWAP4 POP PUSH2 0x1D52 JUMP JUMPDEST PUSH2 0x1D29 DUP6 PUSH2 0x19CF JUMP JUMPDEST PUSH0 JUMPDEST DUP4 DUP2 LT ISZERO PUSH2 0x1D4A JUMPI DUP2 SLOAD DUP2 DUP10 ADD MSTORE PUSH1 0x1 DUP3 ADD SWAP2 POP PUSH1 0x20 DUP2 ADD SWAP1 POP PUSH2 0x1D2B JUMP JUMPDEST DUP4 DUP9 ADD SWAP6 POP POP POP JUMPDEST POP POP POP SWAP3 SWAP2 POP POP JUMP JUMPDEST PUSH0 PUSH2 0x1D66 DUP3 DUP5 PUSH2 0x1CDB JUMP JUMPDEST SWAP2 POP DUP2 SWAP1 POP SWAP3 SWAP2 POP POP JUMP JUMPDEST PUSH32 0x7478206661696C65640000000000000000000000000000000000000000000000 PUSH0 DUP3 ADD MSTORE POP JUMP JUMPDEST PUSH0 PUSH2 0x1DA5 PUSH1 0x9 DUP4 PUSH2 0x169A JUMP JUMPDEST SWAP2 POP PUSH2 0x1DB0 DUP3 PUSH2 0x1D71 JUMP JUMPDEST PUSH1 0x20 DUP3 ADD SWAP1 POP SWAP2 SWAP1 POP JUMP JUMPDEST PUSH0 PUSH1 0x20 DUP3 ADD SWAP1 POP DUP2 DUP2 SUB PUSH0 DUP4 ADD MSTORE PUSH2 0x1DD2 DUP2 PUSH2 0x1D99 JUMP JUMPDEST SWAP1 POP SWAP2 SWAP1 POP JUMP INVALID LOG2 PUSH5 0x6970667358 0x22 SLT KECCAK256 0x25 PUSH11 0xD271E9D31B98BC76009269 SWAP6 0xBF 0xAF 0xD8 DUP12 SWAP11 0xB2 PUSH27 0xBF65D6CDA693D24DAD3E1064736F6C634300081600330000000000 "
				},
				"gasEstimates": {
					"creation": {
						"codeDepositCost": "1539000",
						"executionCost": "infinite",
						"totalCost": "infinite"
					},
					"external": {
						"confirmTransaction(uint256)": "infinite",
						"executeTransaction(uint256)": "infinite",
						"getOwners()": "infinite",
						"getTransaction(uint256)": "infinite",
						"getTransactionCount()": "2485",
						"isConfirmed(uint256,address)": "3182",
						"isOwner(address)": "2900",
						"numConfirmationsRequired()": "2491",
						"owners(uint256)": "4944",
						"revokeConfirmation(uint256)": "infinite",
						"submitTransaction(address,uint256,bytes)": "infinite",
						"traderPeople(uint256)": "5011",
						"transactions(uint256)": "infinite"
					}
				},
				"methodIdentifiers": {
					"confirmTransaction(uint256)": "c01a8c84",
					"executeTransaction(uint256)": "ee22610b",
					"getOwners()": "a0e67e2b",
					"getTransaction(uint256)": "33ea3dc8",
					"getTransactionCount()": "2e7700f0",
					"isConfirmed(uint256,address)": "80f59a65",
					"isOwner(address)": "2f54bf6e",
					"numConfirmationsRequired()": "d0549b85",
					"owners(uint256)": "025e7c27",
					"revokeConfirmation(uint256)": "20ea8d86",
					"submitTransaction(address,uint256,bytes)": "c6427474",
					"traderPeople(uint256)": "a401bbac",
					"transactions(uint256)": "9ace38c2"
				}
			},
			"storageLayout": {
				"storage": [
					{
						"astId": 47,
						"contract": "customContracts/MultiSigWallet.sol:MultiSigWallet",
						"label": "owners",
						"offset": 0,
						"slot": "0",
						"type": "t_array(t_address)dyn_storage"
					},
					{
						"astId": 51,
						"contract": "customContracts/MultiSigWallet.sol:MultiSigWallet",
						"label": "isOwner",
						"offset": 0,
						"slot": "1",
						"type": "t_mapping(t_address,t_bool)"
					},
					{
						"astId": 53,
						"contract": "customContracts/MultiSigWallet.sol:MultiSigWallet",
						"label": "numConfirmationsRequired",
						"offset": 0,
						"slot": "2",
						"type": "t_uint256"
					},
					{
						"astId": 70,
						"contract": "customContracts/MultiSigWallet.sol:MultiSigWallet",
						"label": "isConfirmed",
						"offset": 0,
						"slot": "3",
						"type": "t_mapping(t_uint256,t_mapping(t_address,t_bool))"
					},
					{
						"astId": 74,
						"contract": "customContracts/MultiSigWallet.sol:MultiSigWallet",
						"label": "transactions",
						"offset": 0,
						"slot": "4",
						"type": "t_array(t_struct(Transaction)64_storage)dyn_storage"
					},
					{
						"astId": 77,
						"contract": "customContracts/MultiSigWallet.sol:MultiSigWallet",
						"label": "traderPeople",
						"offset": 0,
						"slot": "5",
						"type": "t_array(t_address)dyn_storage"
					}
				],
				"types": {
					"t_address": {
						"encoding": "inplace",
						"label": "address",
						"numberOfBytes": "20"
					},
					"t_array(t_address)dyn_storage": {
						"base": "t_address",
						"encoding": "dynamic_array",
						"label": "address[]",
						"numberOfBytes": "32"
					},
					"t_array(t_struct(Transaction)64_storage)dyn_storage": {
						"base": "t_struct(Transaction)64_storage",
						"encoding": "dynamic_array",
						"label": "struct MultiSigWallet.Transaction[]",
						"numberOfBytes": "32"
					},
					"t_bool": {
						"encoding": "inplace",
						"label": "bool",
						"numberOfBytes": "1"
					},
					"t_bytes_storage": {
						"encoding": "bytes",
						"label": "bytes",
						"numberOfBytes": "32"
					},
					"t_mapping(t_address,t_bool)": {
						"encoding": "mapping",
						"key": "t_address",
						"label": "mapping(address => bool)",
						"numberOfBytes": "32",
						"value": "t_bool"
					},
					"t_mapping(t_uint256,t_mapping(t_address,t_bool))": {
						"encoding": "mapping",
						"key": "t_uint256",
						"label": "mapping(uint256 => mapping(address => bool))",
						"numberOfBytes": "32",
						"value": "t_mapping(t_address,t_bool)"
					},
					"t_struct(Transaction)64_storage": {
						"encoding": "inplace",
						"label": "struct MultiSigWallet.Transaction",
						"members": [
							{
								"astId": 55,
								"contract": "customContracts/MultiSigWallet.sol:MultiSigWallet",
								"label": "to",
								"offset": 0,
								"slot": "0",
								"type": "t_address"
							},
							{
								"astId": 57,
								"contract": "customContracts/MultiSigWallet.sol:MultiSigWallet",
								"label": "value",
								"offset": 0,
								"slot": "1",
								"type": "t_uint256"
							},
							{
								"astId": 59,
								"contract": "customContracts/MultiSigWallet.sol:MultiSigWallet",
								"label": "data",
								"offset": 0,
								"slot": "2",
								"type": "t_bytes_storage"
							},
							{
								"astId": 61,
								"contract": "customContracts/MultiSigWallet.sol:MultiSigWallet",
								"label": "executed",
								"offset": 0,
								"slot": "3",
								"type": "t_bool"
							},
							{
								"astId": 63,
								"contract": "customContracts/MultiSigWallet.sol:MultiSigWallet",
								"label": "numConfirmations",
								"offset": 0,
								"slot": "4",
								"type": "t_uint256"
							}
						],
						"numberOfBytes": "160"
					},
					"t_uint256": {
						"encoding": "inplace",
						"label": "uint256",
						"numberOfBytes": "32"
					}
				}
			},
			"userdoc": {
				"kind": "user",
				"methods": {},
				"version": 1
			}
		}
	}
}