{
	".deps/github/Uniswap/v3-periphery/contracts/lens/QuoterV2.sol": {
		"QuoterV2": {
			"abi": [
				{
					"inputs": [
						{
							"internalType": "address",
							"name": "_factory",
							"type": "address"
						},
						{
							"internalType": "address",
							"name": "_WETH9",
							"type": "address"
						}
					],
					"stateMutability": "nonpayable",
					"type": "constructor"
				},
				{
					"inputs": [],
					"name": "WETH9",
					"outputs": [
						{
							"internalType": "address",
							"name": "",
							"type": "address"
						}
					],
					"stateMutability": "view",
					"type": "function"
				},
				{
					"inputs": [],
					"name": "factory",
					"outputs": [
						{
							"internalType": "address",
							"name": "",
							"type": "address"
						}
					],
					"stateMutability": "view",
					"type": "function"
				},
				{
					"inputs": [
						{
							"internalType": "bytes",
							"name": "path",
							"type": "bytes"
						},
						{
							"internalType": "uint256",
							"name": "amountIn",
							"type": "uint256"
						}
					],
					"name": "quoteExactInput",
					"outputs": [
						{
							"internalType": "uint256",
							"name": "amountOut",
							"type": "uint256"
						},
						{
							"internalType": "uint160[]",
							"name": "sqrtPriceX96AfterList",
							"type": "uint160[]"
						},
						{
							"internalType": "uint32[]",
							"name": "initializedTicksCrossedList",
							"type": "uint32[]"
						},
						{
							"internalType": "uint256",
							"name": "gasEstimate",
							"type": "uint256"
						}
					],
					"stateMutability": "nonpayable",
					"type": "function"
				},
				{
					"inputs": [
						{
							"components": [
								{
									"internalType": "address",
									"name": "tokenIn",
									"type": "address"
								},
								{
									"internalType": "address",
									"name": "tokenOut",
									"type": "address"
								},
								{
									"internalType": "uint256",
									"name": "amountIn",
									"type": "uint256"
								},
								{
									"internalType": "uint24",
									"name": "fee",
									"type": "uint24"
								},
								{
									"internalType": "uint160",
									"name": "sqrtPriceLimitX96",
									"type": "uint160"
								}
							],
							"internalType": "struct IQuoterV2.QuoteExactInputSingleParams",
							"name": "params",
							"type": "tuple"
						}
					],
					"name": "quoteExactInputSingle",
					"outputs": [
						{
							"internalType": "uint256",
							"name": "amountOut",
							"type": "uint256"
						},
						{
							"internalType": "uint160",
							"name": "sqrtPriceX96After",
							"type": "uint160"
						},
						{
							"internalType": "uint32",
							"name": "initializedTicksCrossed",
							"type": "uint32"
						},
						{
							"internalType": "uint256",
							"name": "gasEstimate",
							"type": "uint256"
						}
					],
					"stateMutability": "nonpayable",
					"type": "function"
				},
				{
					"inputs": [
						{
							"internalType": "bytes",
							"name": "path",
							"type": "bytes"
						},
						{
							"internalType": "uint256",
							"name": "amountOut",
							"type": "uint256"
						}
					],
					"name": "quoteExactOutput",
					"outputs": [
						{
							"internalType": "uint256",
							"name": "amountIn",
							"type": "uint256"
						},
						{
							"internalType": "uint160[]",
							"name": "sqrtPriceX96AfterList",
							"type": "uint160[]"
						},
						{
							"internalType": "uint32[]",
							"name": "initializedTicksCrossedList",
							"type": "uint32[]"
						},
						{
							"internalType": "uint256",
							"name": "gasEstimate",
							"type": "uint256"
						}
					],
					"stateMutability": "nonpayable",
					"type": "function"
				},
				{
					"inputs": [
						{
							"components": [
								{
									"internalType": "address",
									"name": "tokenIn",
									"type": "address"
								},
								{
									"internalType": "address",
									"name": "tokenOut",
									"type": "address"
								},
								{
									"internalType": "uint256",
									"name": "amount",
									"type": "uint256"
								},
								{
									"internalType": "uint24",
									"name": "fee",
									"type": "uint24"
								},
								{
									"internalType": "uint160",
									"name": "sqrtPriceLimitX96",
									"type": "uint160"
								}
							],
							"internalType": "struct IQuoterV2.QuoteExactOutputSingleParams",
							"name": "params",
							"type": "tuple"
						}
					],
					"name": "quoteExactOutputSingle",
					"outputs": [
						{
							"internalType": "uint256",
							"name": "amountIn",
							"type": "uint256"
						},
						{
							"internalType": "uint160",
							"name": "sqrtPriceX96After",
							"type": "uint160"
						},
						{
							"internalType": "uint32",
							"name": "initializedTicksCrossed",
							"type": "uint32"
						},
						{
							"internalType": "uint256",
							"name": "gasEstimate",
							"type": "uint256"
						}
					],
					"stateMutability": "nonpayable",
					"type": "function"
				},
				{
					"inputs": [
						{
							"internalType": "int256",
							"name": "amount0Delta",
							"type": "int256"
						},
						{
							"internalType": "int256",
							"name": "amount1Delta",
							"type": "int256"
						},
						{
							"internalType": "bytes",
							"name": "path",
							"type": "bytes"
						}
					],
					"name": "uniswapV3SwapCallback",
					"outputs": [],
					"stateMutability": "view",
					"type": "function"
				}
			],
			"devdoc": {
				"details": "These functions are not gas efficient and should _not_ be called on chain. Instead, optimistically execute the swap and check the amounts in the callback.",
				"kind": "dev",
				"methods": {
					"quoteExactInput(bytes,uint256)": {
						"params": {
							"amountIn": "The amount of the first token to swap",
							"path": "The path of the swap, i.e. each token pair and the pool fee"
						},
						"returns": {
							"amountOut": "The amount of the last token that would be received",
							"gasEstimate": "The estimate of the gas that the swap consumes",
							"initializedTicksCrossedList": "List of the initialized ticks that the swap crossed for each pool in the path",
							"sqrtPriceX96AfterList": "List of the sqrt price after the swap for each pool in the path"
						}
					},
					"quoteExactInputSingle((address,address,uint256,uint24,uint160))": {
						"params": {
							"params": "The params for the quote, encoded as `QuoteExactInputSingleParams` tokenIn The token being swapped in tokenOut The token being swapped out fee The fee of the token pool to consider for the pair amountIn The desired input amount sqrtPriceLimitX96 The price limit of the pool that cannot be exceeded by the swap"
						},
						"returns": {
							"amountOut": "The amount of `tokenOut` that would be received",
							"gasEstimate": "The estimate of the gas that the swap consumes",
							"initializedTicksCrossed": "The number of initialized ticks that the swap crossed",
							"sqrtPriceX96After": "The sqrt price of the pool after the swap"
						}
					},
					"quoteExactOutput(bytes,uint256)": {
						"params": {
							"amountOut": "The amount of the last token to receive",
							"path": "The path of the swap, i.e. each token pair and the pool fee. Path must be provided in reverse order"
						},
						"returns": {
							"amountIn": "The amount of first token required to be paid",
							"gasEstimate": "The estimate of the gas that the swap consumes",
							"initializedTicksCrossedList": "List of the initialized ticks that the swap crossed for each pool in the path",
							"sqrtPriceX96AfterList": "List of the sqrt price after the swap for each pool in the path"
						}
					},
					"quoteExactOutputSingle((address,address,uint256,uint24,uint160))": {
						"params": {
							"params": "The params for the quote, encoded as `QuoteExactOutputSingleParams` tokenIn The token being swapped in tokenOut The token being swapped out fee The fee of the token pool to consider for the pair amountOut The desired output amount sqrtPriceLimitX96 The price limit of the pool that cannot be exceeded by the swap"
						},
						"returns": {
							"amountIn": "The amount required as the input for the swap in order to receive `amountOut`",
							"gasEstimate": "The estimate of the gas that the swap consumes",
							"initializedTicksCrossed": "The number of initialized ticks that the swap crossed",
							"sqrtPriceX96After": "The sqrt price of the pool after the swap"
						}
					},
					"uniswapV3SwapCallback(int256,int256,bytes)": {
						"details": "In the implementation you must pay the pool tokens owed for the swap. The caller of this method must be checked to be a UniswapV3Pool deployed by the canonical UniswapV3Factory. amount0Delta and amount1Delta can both be 0 if no tokens were swapped.",
						"params": {
							"amount0Delta": "The amount of token0 that was sent (negative) or must be received (positive) by the pool by the end of the swap. If positive, the callback must send that amount of token0 to the pool.",
							"amount1Delta": "The amount of token1 that was sent (negative) or must be received (positive) by the pool by the end of the swap. If positive, the callback must send that amount of token1 to the pool.",
							"data": "Any data passed through by the caller via the IUniswapV3PoolActions#swap call"
						}
					}
				},
				"stateVariables": {
					"amountOutCached": {
						"details": "Transient storage variable used to check a safety condition in exact output swaps."
					}
				},
				"title": "Provides quotes for swaps",
				"version": 1
			},
			"evm": {
				"assembly": "    /* \".deps/github/Uniswap/v3-periphery/contracts/lens/QuoterV2.sol\":983:10316  contract QuoterV2 is IQuoterV2, IUniswapV3SwapCallback, PeripheryImmutableState {... */\n  mstore(0x40, 0xc0)\n    /* \".deps/github/Uniswap/v3-periphery/contracts/lens/QuoterV2.sol\":1309:1399  constructor(address _factory, address _WETH9) PeripheryImmutableState(_factory, _WETH9) {} */\n  callvalue\n  dup1\n  iszero\n  tag_1\n  jumpi\n  0x00\n  dup1\n  revert\ntag_1:\n  pop\n  mload(0x40)\n  sub(codesize, bytecodeSize)\n  dup1\n  bytecodeSize\n  dup4\n  codecopy\n  dup2\n  dup2\n  add\n  0x40\n  mstore\n  dup2\n  add\n  swap1\n  tag_2\n  swap2\n  swap1\n  tag_3\n  jump\t// in\ntag_2:\n    /* \".deps/github/Uniswap/v3-periphery/contracts/lens/QuoterV2.sol\":1379:1387  _factory */\n  dup2\n    /* \".deps/github/Uniswap/v3-periphery/contracts/lens/QuoterV2.sol\":1389:1395  _WETH9 */\n  dup2\n    /* \".deps/github/Uniswap/v3-periphery/contracts/base/PeripheryImmutableState.sol\":532:540  _factory */\n  dup2\n    /* \".deps/github/Uniswap/v3-periphery/contracts/base/PeripheryImmutableState.sol\":522:540  factory = _factory */\n  0xffffffffffffffffffffffffffffffffffffffff\n  and\n  0x80\n  dup2\n  0xffffffffffffffffffffffffffffffffffffffff\n  and\n  0x60\n  shl\n  dup2\n  mstore\n  pop\n  pop\n    /* \".deps/github/Uniswap/v3-periphery/contracts/base/PeripheryImmutableState.sol\":558:564  _WETH9 */\n  dup1\n    /* \".deps/github/Uniswap/v3-periphery/contracts/base/PeripheryImmutableState.sol\":550:564  WETH9 = _WETH9 */\n  0xffffffffffffffffffffffffffffffffffffffff\n  and\n  0xa0\n  dup2\n  0xffffffffffffffffffffffffffffffffffffffff\n  and\n  0x60\n  shl\n  dup2\n  mstore\n  pop\n  pop\n    /* \".deps/github/Uniswap/v3-periphery/contracts/base/PeripheryImmutableState.sol\":466:571  constructor(address _factory, address _WETH9) {... */\n  pop\n  pop\n    /* \".deps/github/Uniswap/v3-periphery/contracts/lens/QuoterV2.sol\":1309:1399  constructor(address _factory, address _WETH9) PeripheryImmutableState(_factory, _WETH9) {} */\n  pop\n  pop\n    /* \".deps/github/Uniswap/v3-periphery/contracts/lens/QuoterV2.sol\":983:10316  contract QuoterV2 is IQuoterV2, IUniswapV3SwapCallback, PeripheryImmutableState {... */\n  jump(tag_8)\n    /* \"#utility.yul\":7:150   */\ntag_10:\n  0x00\n    /* \"#utility.yul\":95:101   */\n  dup2\n    /* \"#utility.yul\":89:102   */\n  mload\n    /* \"#utility.yul\":80:102   */\n  swap1\n  pop\n    /* \"#utility.yul\":111:144   */\n  tag_12\n    /* \"#utility.yul\":138:143   */\n  dup2\n    /* \"#utility.yul\":111:144   */\n  tag_13\n  jump\t// in\ntag_12:\n    /* \"#utility.yul\":70:150   */\n  swap3\n  swap2\n  pop\n  pop\n  jump\t// out\n    /* \"#utility.yul\":156:596   */\ntag_3:\n  0x00\n  dup1\n    /* \"#utility.yul\":292:294   */\n  0x40\n    /* \"#utility.yul\":280:289   */\n  dup4\n    /* \"#utility.yul\":271:278   */\n  dup6\n    /* \"#utility.yul\":267:290   */\n  sub\n    /* \"#utility.yul\":263:295   */\n  slt\n    /* \"#utility.yul\":260:262   */\n  iszero\n  tag_15\n  jumpi\n    /* \"#utility.yul\":308:309   */\n  0x00\n    /* \"#utility.yul\":305:306   */\n  dup1\n    /* \"#utility.yul\":298:310   */\n  revert\n    /* \"#utility.yul\":260:262   */\ntag_15:\n    /* \"#utility.yul\":351:352   */\n  0x00\n    /* \"#utility.yul\":376:440   */\n  tag_16\n    /* \"#utility.yul\":432:439   */\n  dup6\n    /* \"#utility.yul\":423:429   */\n  dup3\n    /* \"#utility.yul\":412:421   */\n  dup7\n    /* \"#utility.yul\":408:430   */\n  add\n    /* \"#utility.yul\":376:440   */\n  tag_10\n  jump\t// in\ntag_16:\n    /* \"#utility.yul\":366:440   */\n  swap3\n  pop\n    /* \"#utility.yul\":322:450   */\n  pop\n    /* \"#utility.yul\":489:491   */\n  0x20\n    /* \"#utility.yul\":515:579   */\n  tag_17\n    /* \"#utility.yul\":571:578   */\n  dup6\n    /* \"#utility.yul\":562:568   */\n  dup3\n    /* \"#utility.yul\":551:560   */\n  dup7\n    /* \"#utility.yul\":547:569   */\n  add\n    /* \"#utility.yul\":515:579   */\n  tag_10\n  jump\t// in\ntag_17:\n    /* \"#utility.yul\":505:579   */\n  swap2\n  pop\n    /* \"#utility.yul\":460:589   */\n  pop\n    /* \"#utility.yul\":250:596   */\n  swap3\n  pop\n  swap3\n  swap1\n  pop\n  jump\t// out\n    /* \"#utility.yul\":602:698   */\ntag_18:\n  0x00\n    /* \"#utility.yul\":668:692   */\n  tag_20\n    /* \"#utility.yul\":686:691   */\n  dup3\n    /* \"#utility.yul\":668:692   */\n  tag_21\n  jump\t// in\ntag_20:\n    /* \"#utility.yul\":657:692   */\n  swap1\n  pop\n    /* \"#utility.yul\":647:698   */\n  swap2\n  swap1\n  pop\n  jump\t// out\n    /* \"#utility.yul\":704:830   */\ntag_21:\n  0x00\n    /* \"#utility.yul\":781:823   */\n  0xffffffffffffffffffffffffffffffffffffffff\n    /* \"#utility.yul\":774:779   */\n  dup3\n    /* \"#utility.yul\":770:824   */\n  and\n    /* \"#utility.yul\":759:824   */\n  swap1\n  pop\n    /* \"#utility.yul\":749:830   */\n  swap2\n  swap1\n  pop\n  jump\t// out\n    /* \"#utility.yul\":836:958   */\ntag_13:\n    /* \"#utility.yul\":909:933   */\n  tag_24\n    /* \"#utility.yul\":927:932   */\n  dup2\n    /* \"#utility.yul\":909:933   */\n  tag_18\n  jump\t// in\ntag_24:\n    /* \"#utility.yul\":902:907   */\n  dup2\n    /* \"#utility.yul\":899:934   */\n  eq\n    /* \"#utility.yul\":889:891   */\n  tag_25\n  jumpi\n    /* \"#utility.yul\":948:949   */\n  0x00\n    /* \"#utility.yul\":945:946   */\n  dup1\n    /* \"#utility.yul\":938:950   */\n  revert\n    /* \"#utility.yul\":889:891   */\ntag_25:\n    /* \"#utility.yul\":879:958   */\n  pop\n  jump\t// out\n    /* \".deps/github/Uniswap/v3-periphery/contracts/lens/QuoterV2.sol\":983:10316  contract QuoterV2 is IQuoterV2, IUniswapV3SwapCallback, PeripheryImmutableState {... */\ntag_8:\n  shr(0x60, mload(0x80))\n  shr(0x60, mload(0xa0))\n  codecopy(0x00, dataOffset(sub_0), dataSize(sub_0))\n  assignImmutable(\"0x789bcdf275fa270780a52ae3b79bb1ce0fda7e0aaad87b57b74bb99ac290714a\")\n  assignImmutable(\"0xd2f8f61201b2b11a78d6e866abc9c3db2ae8631fa656bfe5cb53668255367afb\")\n  return(0x00, dataSize(sub_0))\nstop\n\nsub_0: assembly {\n        /* \".deps/github/Uniswap/v3-periphery/contracts/lens/QuoterV2.sol\":983:10316  contract QuoterV2 is IQuoterV2, IUniswapV3SwapCallback, PeripheryImmutableState {... */\n      mstore(0x40, 0x80)\n      callvalue\n      dup1\n      iszero\n      tag_1\n      jumpi\n      0x00\n      dup1\n      revert\n    tag_1:\n      pop\n      jumpi(tag_2, lt(calldatasize, 0x04))\n      shr(0xe0, calldataload(0x00))\n      dup1\n      0xc45a0155\n      gt\n      tag_10\n      jumpi\n      dup1\n      0xc45a0155\n      eq\n      tag_6\n      jumpi\n      dup1\n      0xc6a5026a\n      eq\n      tag_7\n      jumpi\n      dup1\n      0xcdca1753\n      eq\n      tag_8\n      jumpi\n      dup1\n      0xfa461e33\n      eq\n      tag_9\n      jumpi\n      jump(tag_2)\n    tag_10:\n      dup1\n      0x2f80bb1d\n      eq\n      tag_3\n      jumpi\n      dup1\n      0x4aa4a4fc\n      eq\n      tag_4\n      jumpi\n      dup1\n      0xbd21704a\n      eq\n      tag_5\n      jumpi\n    tag_2:\n      0x00\n      dup1\n      revert\n        /* \".deps/github/Uniswap/v3-periphery/contracts/lens/QuoterV2.sol\":8694:10314  function quoteExactOutput(bytes memory path, uint256 amountOut)... */\n    tag_3:\n      tag_11\n      0x04\n      dup1\n      calldatasize\n      sub\n      dup2\n      add\n      swap1\n      tag_12\n      swap2\n      swap1\n      tag_13\n      jump\t// in\n    tag_12:\n      tag_14\n      jump\t// in\n    tag_11:\n      mload(0x40)\n      tag_15\n      swap5\n      swap4\n      swap3\n      swap2\n      swap1\n      tag_16\n      jump\t// in\n    tag_15:\n      mload(0x40)\n      dup1\n      swap2\n      sub\n      swap1\n      return\n        /* \".deps/github/Uniswap/v3-periphery/contracts/base/PeripheryImmutableState.sol\":420:459  address public immutable override WETH9 */\n    tag_4:\n      tag_17\n      tag_18\n      jump\t// in\n    tag_17:\n      mload(0x40)\n      tag_19\n      swap2\n      swap1\n      tag_20\n      jump\t// in\n    tag_19:\n      mload(0x40)\n      dup1\n      swap2\n      sub\n      swap1\n      return\n        /* \".deps/github/Uniswap/v3-periphery/contracts/lens/QuoterV2.sol\":7313:8688  function quoteExactOutputSingle(QuoteExactOutputSingleParams memory params)... */\n    tag_5:\n      tag_21\n      0x04\n      dup1\n      calldatasize\n      sub\n      dup2\n      add\n      swap1\n      tag_22\n      swap2\n      swap1\n      tag_23\n      jump\t// in\n    tag_22:\n      tag_24\n      jump\t// in\n    tag_21:\n      mload(0x40)\n      tag_25\n      swap5\n      swap4\n      swap3\n      swap2\n      swap1\n      tag_26\n      jump\t// in\n    tag_25:\n      mload(0x40)\n      dup1\n      swap2\n      sub\n      swap1\n      return\n        /* \".deps/github/Uniswap/v3-periphery/contracts/base/PeripheryImmutableState.sol\":328:369  address public immutable override factory */\n    tag_6:\n      tag_27\n      tag_28\n      jump\t// in\n    tag_27:\n      mload(0x40)\n      tag_29\n      swap2\n      swap1\n      tag_20\n      jump\t// in\n    tag_29:\n      mload(0x40)\n      dup1\n      swap2\n      sub\n      swap1\n      return\n        /* \".deps/github/Uniswap/v3-periphery/contracts/lens/QuoterV2.sol\":4579:5683  function quoteExactInputSingle(QuoteExactInputSingleParams memory params)... */\n    tag_7:\n      tag_30\n      0x04\n      dup1\n      calldatasize\n      sub\n      dup2\n      add\n      swap1\n      tag_31\n      swap2\n      swap1\n      tag_32\n      jump\t// in\n    tag_31:\n      tag_33\n      jump\t// in\n    tag_30:\n      mload(0x40)\n      tag_34\n      swap5\n      swap4\n      swap3\n      swap2\n      swap1\n      tag_26\n      jump\t// in\n    tag_34:\n      mload(0x40)\n      dup1\n      swap2\n      sub\n      swap1\n      return\n        /* \".deps/github/Uniswap/v3-periphery/contracts/lens/QuoterV2.sol\":5689:7307  function quoteExactInput(bytes memory path, uint256 amountIn)... */\n    tag_8:\n      tag_35\n      0x04\n      dup1\n      calldatasize\n      sub\n      dup2\n      add\n      swap1\n      tag_36\n      swap2\n      swap1\n      tag_13\n      jump\t// in\n    tag_36:\n      tag_37\n      jump\t// in\n    tag_35:\n      mload(0x40)\n      tag_38\n      swap5\n      swap4\n      swap3\n      swap2\n      swap1\n      tag_16\n      jump\t// in\n    tag_38:\n      mload(0x40)\n      dup1\n      swap2\n      sub\n      swap1\n      return\n        /* \".deps/github/Uniswap/v3-periphery/contracts/lens/QuoterV2.sol\":1703:3308  function uniswapV3SwapCallback(... */\n    tag_9:\n      tag_39\n      0x04\n      dup1\n      calldatasize\n      sub\n      dup2\n      add\n      swap1\n      tag_40\n      swap2\n      swap1\n      tag_41\n      jump\t// in\n    tag_40:\n      tag_42\n      jump\t// in\n    tag_39:\n      stop\n        /* \".deps/github/Uniswap/v3-periphery/contracts/lens/QuoterV2.sol\":8694:10314  function quoteExactOutput(bytes memory path, uint256 amountOut)... */\n    tag_14:\n        /* \".deps/github/Uniswap/v3-periphery/contracts/lens/QuoterV2.sol\":8820:8836  uint256 amountIn */\n      0x00\n        /* \".deps/github/Uniswap/v3-periphery/contracts/lens/QuoterV2.sol\":8850:8888  uint160[] memory sqrtPriceX96AfterList */\n      0x60\n        /* \".deps/github/Uniswap/v3-periphery/contracts/lens/QuoterV2.sol\":8902:8945  uint32[] memory initializedTicksCrossedList */\n      dup1\n        /* \".deps/github/Uniswap/v3-periphery/contracts/lens/QuoterV2.sol\":8959:8978  uint256 gasEstimate */\n      0x00\n        /* \".deps/github/Uniswap/v3-periphery/contracts/lens/QuoterV2.sol\":9041:9056  path.numPools() */\n      tag_44\n        /* \".deps/github/Uniswap/v3-periphery/contracts/lens/QuoterV2.sol\":9041:9045  path */\n      dup7\n        /* \".deps/github/Uniswap/v3-periphery/contracts/lens/QuoterV2.sol\":9041:9054  path.numPools */\n      tag_45\n        /* \".deps/github/Uniswap/v3-periphery/contracts/lens/QuoterV2.sol\":9041:9056  path.numPools() */\n      jump\t// in\n    tag_44:\n        /* \".deps/github/Uniswap/v3-periphery/contracts/lens/QuoterV2.sol\":9027:9057  new uint160[](path.numPools()) */\n      0xffffffffffffffff\n      dup2\n      gt\n      dup1\n      iszero\n      tag_46\n      jumpi\n      0x00\n      dup1\n      revert\n    tag_46:\n      pop\n      mload(0x40)\n      swap1\n      dup1\n      dup3\n      mstore\n      dup1\n      0x20\n      mul\n      0x20\n      add\n      dup3\n      add\n      0x40\n      mstore\n      dup1\n      iszero\n      tag_47\n      jumpi\n      dup2\n      0x20\n      add\n      0x20\n      dup3\n      mul\n      dup1\n      calldatasize\n      dup4\n      calldatacopy\n      dup1\n      dup3\n      add\n      swap2\n      pop\n      pop\n      swap1\n      pop\n    tag_47:\n      pop\n        /* \".deps/github/Uniswap/v3-periphery/contracts/lens/QuoterV2.sol\":9003:9057  sqrtPriceX96AfterList = new uint160[](path.numPools()) */\n      swap3\n      pop\n        /* \".deps/github/Uniswap/v3-periphery/contracts/lens/QuoterV2.sol\":9110:9125  path.numPools() */\n      tag_48\n        /* \".deps/github/Uniswap/v3-periphery/contracts/lens/QuoterV2.sol\":9110:9114  path */\n      dup7\n        /* \".deps/github/Uniswap/v3-periphery/contracts/lens/QuoterV2.sol\":9110:9123  path.numPools */\n      tag_45\n        /* \".deps/github/Uniswap/v3-periphery/contracts/lens/QuoterV2.sol\":9110:9125  path.numPools() */\n      jump\t// in\n    tag_48:\n        /* \".deps/github/Uniswap/v3-periphery/contracts/lens/QuoterV2.sol\":9097:9126  new uint32[](path.numPools()) */\n      0xffffffffffffffff\n      dup2\n      gt\n      dup1\n      iszero\n      tag_49\n      jumpi\n      0x00\n      dup1\n      revert\n    tag_49:\n      pop\n      mload(0x40)\n      swap1\n      dup1\n      dup3\n      mstore\n      dup1\n      0x20\n      mul\n      0x20\n      add\n      dup3\n      add\n      0x40\n      mstore\n      dup1\n      iszero\n      tag_50\n      jumpi\n      dup2\n      0x20\n      add\n      0x20\n      dup3\n      mul\n      dup1\n      calldatasize\n      dup4\n      calldatacopy\n      dup1\n      dup3\n      add\n      swap2\n      pop\n      pop\n      swap1\n      pop\n    tag_50:\n      pop\n        /* \".deps/github/Uniswap/v3-periphery/contracts/lens/QuoterV2.sol\":9067:9126  initializedTicksCrossedList = new uint32[](path.numPools()) */\n      swap2\n      pop\n        /* \".deps/github/Uniswap/v3-periphery/contracts/lens/QuoterV2.sol\":9137:9146  uint256 i */\n      0x00\n        /* \".deps/github/Uniswap/v3-periphery/contracts/lens/QuoterV2.sol\":9160:10308  while (true) {... */\n    tag_51:\n        /* \".deps/github/Uniswap/v3-periphery/contracts/lens/QuoterV2.sol\":9167:9171  true */\n      0x01\n        /* \".deps/github/Uniswap/v3-periphery/contracts/lens/QuoterV2.sol\":9160:10308  while (true) {... */\n      iszero\n      tag_52\n      jumpi\n        /* \".deps/github/Uniswap/v3-periphery/contracts/lens/QuoterV2.sol\":9188:9204  address tokenOut */\n      0x00\n        /* \".deps/github/Uniswap/v3-periphery/contracts/lens/QuoterV2.sol\":9206:9221  address tokenIn */\n      dup1\n        /* \".deps/github/Uniswap/v3-periphery/contracts/lens/QuoterV2.sol\":9223:9233  uint24 fee */\n      0x00\n        /* \".deps/github/Uniswap/v3-periphery/contracts/lens/QuoterV2.sol\":9237:9259  path.decodeFirstPool() */\n      tag_53\n        /* \".deps/github/Uniswap/v3-periphery/contracts/lens/QuoterV2.sol\":9237:9241  path */\n      dup11\n        /* \".deps/github/Uniswap/v3-periphery/contracts/lens/QuoterV2.sol\":9237:9257  path.decodeFirstPool */\n      tag_54\n        /* \".deps/github/Uniswap/v3-periphery/contracts/lens/QuoterV2.sol\":9237:9259  path.decodeFirstPool() */\n      jump\t// in\n    tag_53:\n        /* \".deps/github/Uniswap/v3-periphery/contracts/lens/QuoterV2.sol\":9187:9259  (address tokenOut, address tokenIn, uint24 fee) = path.decodeFirstPool() */\n      swap3\n      pop\n      swap3\n      pop\n      swap3\n      pop\n        /* \".deps/github/Uniswap/v3-periphery/contracts/lens/QuoterV2.sol\":9354:9371  uint256 _amountIn */\n      0x00\n        /* \".deps/github/Uniswap/v3-periphery/contracts/lens/QuoterV2.sol\":9373:9399  uint160 _sqrtPriceX96After */\n      dup1\n        /* \".deps/github/Uniswap/v3-periphery/contracts/lens/QuoterV2.sol\":9401:9432  uint32 _initializedTicksCrossed */\n      0x00\n        /* \".deps/github/Uniswap/v3-periphery/contracts/lens/QuoterV2.sol\":9434:9454  uint256 _gasEstimate */\n      dup1\n        /* \".deps/github/Uniswap/v3-periphery/contracts/lens/QuoterV2.sol\":9474:9797  quoteExactOutputSingle(... */\n      tag_55\n        /* \".deps/github/Uniswap/v3-periphery/contracts/lens/QuoterV2.sol\":9518:9779  QuoteExactOutputSingleParams({... */\n      mload(0x40)\n      dup1\n      0xa0\n      add\n      0x40\n      mstore\n      dup1\n        /* \".deps/github/Uniswap/v3-periphery/contracts/lens/QuoterV2.sol\":9582:9589  tokenIn */\n      dup9\n        /* \".deps/github/Uniswap/v3-periphery/contracts/lens/QuoterV2.sol\":9518:9779  QuoteExactOutputSingleParams({... */\n      0xffffffffffffffffffffffffffffffffffffffff\n      and\n      dup2\n      mstore\n      0x20\n      add\n        /* \".deps/github/Uniswap/v3-periphery/contracts/lens/QuoterV2.sol\":9625:9633  tokenOut */\n      dup10\n        /* \".deps/github/Uniswap/v3-periphery/contracts/lens/QuoterV2.sol\":9518:9779  QuoteExactOutputSingleParams({... */\n      0xffffffffffffffffffffffffffffffffffffffff\n      and\n      dup2\n      mstore\n      0x20\n      add\n        /* \".deps/github/Uniswap/v3-periphery/contracts/lens/QuoterV2.sol\":9667:9676  amountOut */\n      dup16\n        /* \".deps/github/Uniswap/v3-periphery/contracts/lens/QuoterV2.sol\":9518:9779  QuoteExactOutputSingleParams({... */\n      dup2\n      mstore\n      0x20\n      add\n        /* \".deps/github/Uniswap/v3-periphery/contracts/lens/QuoterV2.sol\":9707:9710  fee */\n      dup8\n        /* \".deps/github/Uniswap/v3-periphery/contracts/lens/QuoterV2.sol\":9518:9779  QuoteExactOutputSingleParams({... */\n      0xffffff\n      and\n      dup2\n      mstore\n      0x20\n      add\n        /* \".deps/github/Uniswap/v3-periphery/contracts/lens/QuoterV2.sol\":9755:9756  0 */\n      0x00\n        /* \".deps/github/Uniswap/v3-periphery/contracts/lens/QuoterV2.sol\":9518:9779  QuoteExactOutputSingleParams({... */\n      0xffffffffffffffffffffffffffffffffffffffff\n      and\n      dup2\n      mstore\n      pop\n        /* \".deps/github/Uniswap/v3-periphery/contracts/lens/QuoterV2.sol\":9474:9496  quoteExactOutputSingle */\n      tag_24\n        /* \".deps/github/Uniswap/v3-periphery/contracts/lens/QuoterV2.sol\":9474:9797  quoteExactOutputSingle(... */\n      jump\t// in\n    tag_55:\n        /* \".deps/github/Uniswap/v3-periphery/contracts/lens/QuoterV2.sol\":9353:9797  (uint256 _amountIn, uint160 _sqrtPriceX96After, uint32 _initializedTicksCrossed, uint256 _gasEstimate) =... */\n      swap4\n      pop\n      swap4\n      pop\n      swap4\n      pop\n      swap4\n      pop\n        /* \".deps/github/Uniswap/v3-periphery/contracts/lens/QuoterV2.sol\":9839:9857  _sqrtPriceX96After */\n      dup3\n        /* \".deps/github/Uniswap/v3-periphery/contracts/lens/QuoterV2.sol\":9812:9833  sqrtPriceX96AfterList */\n      dup12\n        /* \".deps/github/Uniswap/v3-periphery/contracts/lens/QuoterV2.sol\":9834:9835  i */\n      dup10\n        /* \".deps/github/Uniswap/v3-periphery/contracts/lens/QuoterV2.sol\":9812:9836  sqrtPriceX96AfterList[i] */\n      dup2\n      mload\n      dup2\n      lt\n      tag_56\n      jumpi\n      invalid\n    tag_56:\n      0x20\n      mul\n      0x20\n      add\n      add\n        /* \".deps/github/Uniswap/v3-periphery/contracts/lens/QuoterV2.sol\":9812:9857  sqrtPriceX96AfterList[i] = _sqrtPriceX96After */\n      swap1\n      0xffffffffffffffffffffffffffffffffffffffff\n      and\n      swap1\n      dup2\n      0xffffffffffffffffffffffffffffffffffffffff\n      and\n      dup2\n      mstore\n      pop\n      pop\n        /* \".deps/github/Uniswap/v3-periphery/contracts/lens/QuoterV2.sol\":9904:9928  _initializedTicksCrossed */\n      dup2\n        /* \".deps/github/Uniswap/v3-periphery/contracts/lens/QuoterV2.sol\":9871:9898  initializedTicksCrossedList */\n      dup11\n        /* \".deps/github/Uniswap/v3-periphery/contracts/lens/QuoterV2.sol\":9899:9900  i */\n      dup10\n        /* \".deps/github/Uniswap/v3-periphery/contracts/lens/QuoterV2.sol\":9871:9901  initializedTicksCrossedList[i] */\n      dup2\n      mload\n      dup2\n      lt\n      tag_57\n      jumpi\n      invalid\n    tag_57:\n      0x20\n      mul\n      0x20\n      add\n      add\n        /* \".deps/github/Uniswap/v3-periphery/contracts/lens/QuoterV2.sol\":9871:9928  initializedTicksCrossedList[i] = _initializedTicksCrossed */\n      swap1\n      0xffffffff\n      and\n      swap1\n      dup2\n      0xffffffff\n      and\n      dup2\n      mstore\n      pop\n      pop\n        /* \".deps/github/Uniswap/v3-periphery/contracts/lens/QuoterV2.sol\":9954:9963  _amountIn */\n      dup4\n        /* \".deps/github/Uniswap/v3-periphery/contracts/lens/QuoterV2.sol\":9942:9963  amountOut = _amountIn */\n      swap13\n      pop\n        /* \".deps/github/Uniswap/v3-periphery/contracts/lens/QuoterV2.sol\":9992:10004  _gasEstimate */\n      dup1\n        /* \".deps/github/Uniswap/v3-periphery/contracts/lens/QuoterV2.sol\":9977:10004  gasEstimate += _gasEstimate */\n      dup10\n      add\n      swap9\n      pop\n        /* \".deps/github/Uniswap/v3-periphery/contracts/lens/QuoterV2.sol\":10018:10021  i++ */\n      dup8\n      dup1\n      0x01\n      add\n      swap9\n      pop\n      pop\n        /* \".deps/github/Uniswap/v3-periphery/contracts/lens/QuoterV2.sol\":10095:10118  path.hasMultiplePools() */\n      tag_58\n        /* \".deps/github/Uniswap/v3-periphery/contracts/lens/QuoterV2.sol\":10095:10099  path */\n      dup15\n        /* \".deps/github/Uniswap/v3-periphery/contracts/lens/QuoterV2.sol\":10095:10116  path.hasMultiplePools */\n      tag_59\n        /* \".deps/github/Uniswap/v3-periphery/contracts/lens/QuoterV2.sol\":10095:10118  path.hasMultiplePools() */\n      jump\t// in\n    tag_58:\n        /* \".deps/github/Uniswap/v3-periphery/contracts/lens/QuoterV2.sol\":10091:10298  if (path.hasMultiplePools()) {... */\n      iszero\n      tag_60\n      jumpi\n        /* \".deps/github/Uniswap/v3-periphery/contracts/lens/QuoterV2.sol\":10145:10161  path.skipToken() */\n      tag_61\n        /* \".deps/github/Uniswap/v3-periphery/contracts/lens/QuoterV2.sol\":10145:10149  path */\n      dup15\n        /* \".deps/github/Uniswap/v3-periphery/contracts/lens/QuoterV2.sol\":10145:10159  path.skipToken */\n      tag_62\n        /* \".deps/github/Uniswap/v3-periphery/contracts/lens/QuoterV2.sol\":10145:10161  path.skipToken() */\n      jump\t// in\n    tag_61:\n        /* \".deps/github/Uniswap/v3-periphery/contracts/lens/QuoterV2.sol\":10138:10161  path = path.skipToken() */\n      swap14\n      pop\n        /* \".deps/github/Uniswap/v3-periphery/contracts/lens/QuoterV2.sol\":10091:10298  if (path.hasMultiplePools()) {... */\n      jump(tag_63)\n    tag_60:\n        /* \".deps/github/Uniswap/v3-periphery/contracts/lens/QuoterV2.sol\":10208:10217  amountOut */\n      dup13\n        /* \".deps/github/Uniswap/v3-periphery/contracts/lens/QuoterV2.sol\":10200:10283  return (amountOut, sqrtPriceX96AfterList, initializedTicksCrossedList, gasEstimate) */\n      swap12\n      pop\n      pop\n      pop\n      pop\n      pop\n      pop\n      pop\n      pop\n      pop\n      jump(tag_43)\n        /* \".deps/github/Uniswap/v3-periphery/contracts/lens/QuoterV2.sol\":10091:10298  if (path.hasMultiplePools()) {... */\n    tag_63:\n        /* \".deps/github/Uniswap/v3-periphery/contracts/lens/QuoterV2.sol\":9160:10308  while (true) {... */\n      pop\n      pop\n      pop\n      pop\n      pop\n      pop\n      pop\n      jump(tag_51)\n    tag_52:\n        /* \".deps/github/Uniswap/v3-periphery/contracts/lens/QuoterV2.sol\":8694:10314  function quoteExactOutput(bytes memory path, uint256 amountOut)... */\n      pop\n    tag_43:\n      swap3\n      swap6\n      swap2\n      swap5\n      pop\n      swap3\n      pop\n      jump\t// out\n        /* \".deps/github/Uniswap/v3-periphery/contracts/base/PeripheryImmutableState.sol\":420:459  address public immutable override WETH9 */\n    tag_18:\n      immutable(\"0x789bcdf275fa270780a52ae3b79bb1ce0fda7e0aaad87b57b74bb99ac290714a\")\n      dup2\n      jump\t// out\n        /* \".deps/github/Uniswap/v3-periphery/contracts/lens/QuoterV2.sol\":7313:8688  function quoteExactOutputSingle(QuoteExactOutputSingleParams memory params)... */\n    tag_24:\n        /* \".deps/github/Uniswap/v3-periphery/contracts/lens/QuoterV2.sol\":7451:7467  uint256 amountIn */\n      0x00\n        /* \".deps/github/Uniswap/v3-periphery/contracts/lens/QuoterV2.sol\":7481:7506  uint160 sqrtPriceX96After */\n      dup1\n        /* \".deps/github/Uniswap/v3-periphery/contracts/lens/QuoterV2.sol\":7520:7550  uint32 initializedTicksCrossed */\n      0x00\n        /* \".deps/github/Uniswap/v3-periphery/contracts/lens/QuoterV2.sol\":7564:7583  uint256 gasEstimate */\n      dup1\n        /* \".deps/github/Uniswap/v3-periphery/contracts/lens/QuoterV2.sol\":7608:7623  bool zeroForOne */\n      0x00\n        /* \".deps/github/Uniswap/v3-periphery/contracts/lens/QuoterV2.sol\":7643:7649  params */\n      dup6\n        /* \".deps/github/Uniswap/v3-periphery/contracts/lens/QuoterV2.sol\":7643:7658  params.tokenOut */\n      0x20\n      add\n      mload\n        /* \".deps/github/Uniswap/v3-periphery/contracts/lens/QuoterV2.sol\":7626:7658  params.tokenIn < params.tokenOut */\n      0xffffffffffffffffffffffffffffffffffffffff\n      and\n        /* \".deps/github/Uniswap/v3-periphery/contracts/lens/QuoterV2.sol\":7626:7632  params */\n      dup7\n        /* \".deps/github/Uniswap/v3-periphery/contracts/lens/QuoterV2.sol\":7626:7640  params.tokenIn */\n      0x00\n      add\n      mload\n        /* \".deps/github/Uniswap/v3-periphery/contracts/lens/QuoterV2.sol\":7626:7658  params.tokenIn < params.tokenOut */\n      0xffffffffffffffffffffffffffffffffffffffff\n      and\n      lt\n        /* \".deps/github/Uniswap/v3-periphery/contracts/lens/QuoterV2.sol\":7608:7658  bool zeroForOne = params.tokenIn < params.tokenOut */\n      swap1\n      pop\n        /* \".deps/github/Uniswap/v3-periphery/contracts/lens/QuoterV2.sol\":7668:7687  IUniswapV3Pool pool */\n      0x00\n        /* \".deps/github/Uniswap/v3-periphery/contracts/lens/QuoterV2.sol\":7690:7742  getPool(params.tokenIn, params.tokenOut, params.fee) */\n      tag_65\n        /* \".deps/github/Uniswap/v3-periphery/contracts/lens/QuoterV2.sol\":7698:7704  params */\n      dup8\n        /* \".deps/github/Uniswap/v3-periphery/contracts/lens/QuoterV2.sol\":7698:7712  params.tokenIn */\n      0x00\n      add\n      mload\n        /* \".deps/github/Uniswap/v3-periphery/contracts/lens/QuoterV2.sol\":7714:7720  params */\n      dup9\n        /* \".deps/github/Uniswap/v3-periphery/contracts/lens/QuoterV2.sol\":7714:7729  params.tokenOut */\n      0x20\n      add\n      mload\n        /* \".deps/github/Uniswap/v3-periphery/contracts/lens/QuoterV2.sol\":7731:7737  params */\n      dup10\n        /* \".deps/github/Uniswap/v3-periphery/contracts/lens/QuoterV2.sol\":7731:7741  params.fee */\n      0x60\n      add\n      mload\n        /* \".deps/github/Uniswap/v3-periphery/contracts/lens/QuoterV2.sol\":7690:7697  getPool */\n      tag_66\n        /* \".deps/github/Uniswap/v3-periphery/contracts/lens/QuoterV2.sol\":7690:7742  getPool(params.tokenIn, params.tokenOut, params.fee) */\n      jump\t// in\n    tag_65:\n        /* \".deps/github/Uniswap/v3-periphery/contracts/lens/QuoterV2.sol\":7668:7742  IUniswapV3Pool pool = getPool(params.tokenIn, params.tokenOut, params.fee) */\n      swap1\n      pop\n        /* \".deps/github/Uniswap/v3-periphery/contracts/lens/QuoterV2.sol\":7894:7895  0 */\n      0x00\n        /* \".deps/github/Uniswap/v3-periphery/contracts/lens/QuoterV2.sol\":7866:7872  params */\n      dup8\n        /* \".deps/github/Uniswap/v3-periphery/contracts/lens/QuoterV2.sol\":7866:7890  params.sqrtPriceLimitX96 */\n      0x80\n      add\n      mload\n        /* \".deps/github/Uniswap/v3-periphery/contracts/lens/QuoterV2.sol\":7866:7895  params.sqrtPriceLimitX96 == 0 */\n      0xffffffffffffffffffffffffffffffffffffffff\n      and\n      eq\n        /* \".deps/github/Uniswap/v3-periphery/contracts/lens/QuoterV2.sol\":7862:7928  if (params.sqrtPriceLimitX96 == 0) amountOutCached = params.amount */\n      iszero\n      tag_67\n      jumpi\n        /* \".deps/github/Uniswap/v3-periphery/contracts/lens/QuoterV2.sol\":7915:7921  params */\n      dup7\n        /* \".deps/github/Uniswap/v3-periphery/contracts/lens/QuoterV2.sol\":7915:7928  params.amount */\n      0x40\n      add\n      mload\n        /* \".deps/github/Uniswap/v3-periphery/contracts/lens/QuoterV2.sol\":7897:7912  amountOutCached */\n      0x00\n        /* \".deps/github/Uniswap/v3-periphery/contracts/lens/QuoterV2.sol\":7897:7928  amountOutCached = params.amount */\n      dup2\n      swap1\n      sstore\n      pop\n        /* \".deps/github/Uniswap/v3-periphery/contracts/lens/QuoterV2.sol\":7862:7928  if (params.sqrtPriceLimitX96 == 0) amountOutCached = params.amount */\n    tag_67:\n        /* \".deps/github/Uniswap/v3-periphery/contracts/lens/QuoterV2.sol\":7938:7955  uint256 gasBefore */\n      0x00\n        /* \".deps/github/Uniswap/v3-periphery/contracts/lens/QuoterV2.sol\":7958:7967  gasleft() */\n      gas\n        /* \".deps/github/Uniswap/v3-periphery/contracts/lens/QuoterV2.sol\":7938:7967  uint256 gasBefore = gasleft() */\n      swap1\n      pop\n        /* \".deps/github/Uniswap/v3-periphery/contracts/lens/QuoterV2.sol\":7993:7997  pool */\n      dup2\n        /* \".deps/github/Uniswap/v3-periphery/contracts/lens/QuoterV2.sol\":7993:8002  pool.swap */\n      0xffffffffffffffffffffffffffffffffffffffff\n      and\n      0x128acb08\n        /* \".deps/github/Uniswap/v3-periphery/contracts/lens/QuoterV2.sol\":8028:8032  this */\n      address\n        /* \".deps/github/Uniswap/v3-periphery/contracts/lens/QuoterV2.sol\":8101:8111  zeroForOne */\n      dup6\n        /* \".deps/github/Uniswap/v3-periphery/contracts/lens/QuoterV2.sol\":8130:8154  params.amount.toInt256() */\n      tag_68\n        /* \".deps/github/Uniswap/v3-periphery/contracts/lens/QuoterV2.sol\":8130:8136  params */\n      dup13\n        /* \".deps/github/Uniswap/v3-periphery/contracts/lens/QuoterV2.sol\":8130:8143  params.amount */\n      0x40\n      add\n      mload\n        /* \".deps/github/Uniswap/v3-periphery/contracts/lens/QuoterV2.sol\":8130:8152  params.amount.toInt256 */\n      tag_69\n        /* \".deps/github/Uniswap/v3-periphery/contracts/lens/QuoterV2.sol\":8130:8154  params.amount.toInt256() */\n      jump\t// in\n    tag_68:\n        /* \".deps/github/Uniswap/v3-periphery/contracts/lens/QuoterV2.sol\":8129:8154  -params.amount.toInt256() */\n      0x00\n      sub\n        /* \".deps/github/Uniswap/v3-periphery/contracts/lens/QuoterV2.sol\":8200:8201  0 */\n      0x00\n        /* \".deps/github/Uniswap/v3-periphery/contracts/lens/QuoterV2.sol\":8172:8178  params */\n      dup14\n        /* \".deps/github/Uniswap/v3-periphery/contracts/lens/QuoterV2.sol\":8172:8196  params.sqrtPriceLimitX96 */\n      0x80\n      add\n      mload\n        /* \".deps/github/Uniswap/v3-periphery/contracts/lens/QuoterV2.sol\":8172:8201  params.sqrtPriceLimitX96 == 0 */\n      0xffffffffffffffffffffffffffffffffffffffff\n      and\n      eq\n        /* \".deps/github/Uniswap/v3-periphery/contracts/lens/QuoterV2.sol\":8172:8343  params.sqrtPriceLimitX96 == 0... */\n      tag_70\n      jumpi\n        /* \".deps/github/Uniswap/v3-periphery/contracts/lens/QuoterV2.sol\":8319:8325  params */\n      dup13\n        /* \".deps/github/Uniswap/v3-periphery/contracts/lens/QuoterV2.sol\":8319:8343  params.sqrtPriceLimitX96 */\n      0x80\n      add\n      mload\n        /* \".deps/github/Uniswap/v3-periphery/contracts/lens/QuoterV2.sol\":8172:8343  params.sqrtPriceLimitX96 == 0... */\n      jump(tag_71)\n    tag_70:\n        /* \".deps/github/Uniswap/v3-periphery/contracts/lens/QuoterV2.sol\":8225:8235  zeroForOne */\n      dup8\n        /* \".deps/github/Uniswap/v3-periphery/contracts/lens/QuoterV2.sol\":8225:8295  zeroForOne ? TickMath.MIN_SQRT_RATIO + 1 : TickMath.MAX_SQRT_RATIO - 1 */\n      tag_72\n      jumpi\n        /* \".deps/github/Uniswap/v3-periphery/contracts/lens/QuoterV2.sol\":8294:8295  1 */\n      0x01\n        /* \"@uniswap/v3-core/contracts/libraries/TickMath.sol\":1004:1053  1461446703485210103287273052203988822378723970342 */\n      0xfffd8963efd1fc6a506488495d951d5263988d26\n        /* \".deps/github/Uniswap/v3-periphery/contracts/lens/QuoterV2.sol\":8268:8295  TickMath.MAX_SQRT_RATIO - 1 */\n      sub\n        /* \".deps/github/Uniswap/v3-periphery/contracts/lens/QuoterV2.sol\":8225:8295  zeroForOne ? TickMath.MIN_SQRT_RATIO + 1 : TickMath.MAX_SQRT_RATIO - 1 */\n      jump(tag_73)\n    tag_72:\n        /* \".deps/github/Uniswap/v3-periphery/contracts/lens/QuoterV2.sol\":8264:8265  1 */\n      0x01\n        /* \"@uniswap/v3-core/contracts/libraries/TickMath.sol\":824:834  4295128739 */\n      0x01000276a3\n        /* \".deps/github/Uniswap/v3-periphery/contracts/lens/QuoterV2.sol\":8238:8265  TickMath.MIN_SQRT_RATIO + 1 */\n      add\n        /* \".deps/github/Uniswap/v3-periphery/contracts/lens/QuoterV2.sol\":8225:8295  zeroForOne ? TickMath.MIN_SQRT_RATIO + 1 : TickMath.MAX_SQRT_RATIO - 1 */\n    tag_73:\n        /* \".deps/github/Uniswap/v3-periphery/contracts/lens/QuoterV2.sol\":8172:8343  params.sqrtPriceLimitX96 == 0... */\n    tag_71:\n        /* \".deps/github/Uniswap/v3-periphery/contracts/lens/QuoterV2.sol\":8378:8384  params */\n      dup14\n        /* \".deps/github/Uniswap/v3-periphery/contracts/lens/QuoterV2.sol\":8378:8393  params.tokenOut */\n      0x20\n      add\n      mload\n        /* \".deps/github/Uniswap/v3-periphery/contracts/lens/QuoterV2.sol\":8395:8401  params */\n      dup15\n        /* \".deps/github/Uniswap/v3-periphery/contracts/lens/QuoterV2.sol\":8395:8405  params.fee */\n      0x60\n      add\n      mload\n        /* \".deps/github/Uniswap/v3-periphery/contracts/lens/QuoterV2.sol\":8407:8413  params */\n      dup16\n        /* \".deps/github/Uniswap/v3-periphery/contracts/lens/QuoterV2.sol\":8407:8421  params.tokenIn */\n      0x00\n      add\n      mload\n        /* \".deps/github/Uniswap/v3-periphery/contracts/lens/QuoterV2.sol\":8361:8422  abi.encodePacked(params.tokenOut, params.fee, params.tokenIn) */\n      add(0x20, mload(0x40))\n      tag_74\n      swap4\n      swap3\n      swap2\n      swap1\n      tag_75\n      jump\t// in\n    tag_74:\n      mload(0x40)\n      0x20\n      dup2\n      dup4\n      sub\n      sub\n      dup2\n      mstore\n      swap1\n      0x40\n      mstore\n        /* \".deps/github/Uniswap/v3-periphery/contracts/lens/QuoterV2.sol\":7993:8436  pool.swap(... */\n      mload(0x40)\n      dup7\n      0xffffffff\n      and\n      0xe0\n      shl\n      dup2\n      mstore\n      0x04\n      add\n      tag_76\n      swap6\n      swap5\n      swap4\n      swap3\n      swap2\n      swap1\n      tag_77\n      jump\t// in\n    tag_76:\n      0x40\n      dup1\n      mload\n      dup1\n      dup4\n      sub\n      dup2\n      0x00\n      dup8\n      dup1\n      extcodesize\n      iszero\n      dup1\n      iszero\n      tag_78\n      jumpi\n      0x00\n      dup1\n      revert\n    tag_78:\n      pop\n      gas\n      call\n      swap3\n      pop\n      pop\n      pop\n      dup1\n      iszero\n      tag_79\n      jumpi\n      pop\n      mload(0x40)\n      returndatasize\n      not(0x1f)\n      0x1f\n      dup3\n      add\n      and\n      dup3\n      add\n      dup1\n      0x40\n      mstore\n      pop\n      dup2\n      add\n      swap1\n      tag_80\n      swap2\n      swap1\n      tag_81\n      jump\t// in\n    tag_80:\n      0x01\n    tag_79:\n        /* \".deps/github/Uniswap/v3-periphery/contracts/lens/QuoterV2.sol\":7977:8682  try... */\n      tag_82\n      jumpi\n      returndatasize\n      dup1\n      0x00\n      dup2\n      eq\n      tag_86\n      jumpi\n      mload(0x40)\n      swap2\n      pop\n      and(add(returndatasize, 0x3f), not(0x1f))\n      dup3\n      add\n      0x40\n      mstore\n      returndatasize\n      dup3\n      mstore\n      returndatasize\n      0x00\n      0x20\n      dup5\n      add\n      returndatacopy\n      jump(tag_85)\n    tag_86:\n      0x60\n      swap2\n      pop\n    tag_85:\n      pop\n        /* \".deps/github/Uniswap/v3-periphery/contracts/lens/QuoterV2.sol\":8516:8525  gasleft() */\n      gas\n        /* \".deps/github/Uniswap/v3-periphery/contracts/lens/QuoterV2.sol\":8504:8513  gasBefore */\n      dup3\n        /* \".deps/github/Uniswap/v3-periphery/contracts/lens/QuoterV2.sol\":8504:8525  gasBefore - gasleft() */\n      sub\n        /* \".deps/github/Uniswap/v3-periphery/contracts/lens/QuoterV2.sol\":8490:8525  gasEstimate = gasBefore - gasleft() */\n      swap5\n      pop\n        /* \".deps/github/Uniswap/v3-periphery/contracts/lens/QuoterV2.sol\":8571:8572  0 */\n      0x00\n        /* \".deps/github/Uniswap/v3-periphery/contracts/lens/QuoterV2.sol\":8543:8549  params */\n      dup10\n        /* \".deps/github/Uniswap/v3-periphery/contracts/lens/QuoterV2.sol\":8543:8567  params.sqrtPriceLimitX96 */\n      0x80\n      add\n      mload\n        /* \".deps/github/Uniswap/v3-periphery/contracts/lens/QuoterV2.sol\":8543:8572  params.sqrtPriceLimitX96 == 0 */\n      0xffffffffffffffffffffffffffffffffffffffff\n      and\n      eq\n        /* \".deps/github/Uniswap/v3-periphery/contracts/lens/QuoterV2.sol\":8539:8596  if (params.sqrtPriceLimitX96 == 0) delete amountOutCached */\n      iszero\n      tag_87\n      jumpi\n        /* \".deps/github/Uniswap/v3-periphery/contracts/lens/QuoterV2.sol\":8581:8596  amountOutCached */\n      0x00\n        /* \".deps/github/Uniswap/v3-periphery/contracts/lens/QuoterV2.sol\":8574:8596  delete amountOutCached */\n      dup1\n      sstore\n        /* \".deps/github/Uniswap/v3-periphery/contracts/lens/QuoterV2.sol\":8539:8596  if (params.sqrtPriceLimitX96 == 0) delete amountOutCached */\n    tag_87:\n        /* \".deps/github/Uniswap/v3-periphery/contracts/lens/QuoterV2.sol\":8632:8671  handleRevert(reason, pool, gasEstimate) */\n      tag_88\n        /* \".deps/github/Uniswap/v3-periphery/contracts/lens/QuoterV2.sol\":8645:8651  reason */\n      dup2\n        /* \".deps/github/Uniswap/v3-periphery/contracts/lens/QuoterV2.sol\":8653:8657  pool */\n      dup5\n        /* \".deps/github/Uniswap/v3-periphery/contracts/lens/QuoterV2.sol\":8659:8670  gasEstimate */\n      dup8\n        /* \".deps/github/Uniswap/v3-periphery/contracts/lens/QuoterV2.sol\":8632:8644  handleRevert */\n      tag_89\n        /* \".deps/github/Uniswap/v3-periphery/contracts/lens/QuoterV2.sol\":8632:8671  handleRevert(reason, pool, gasEstimate) */\n      jump\t// in\n    tag_88:\n        /* \".deps/github/Uniswap/v3-periphery/contracts/lens/QuoterV2.sol\":8625:8671  return handleRevert(reason, pool, gasEstimate) */\n      swap8\n      pop\n      swap8\n      pop\n      swap8\n      pop\n      swap8\n      pop\n      pop\n      pop\n      pop\n      pop\n      jump(tag_64)\n        /* \".deps/github/Uniswap/v3-periphery/contracts/lens/QuoterV2.sol\":7977:8682  try... */\n    tag_82:\n      pop\n      pop\n        /* \".deps/github/Uniswap/v3-periphery/contracts/lens/QuoterV2.sol\":7313:8688  function quoteExactOutputSingle(QuoteExactOutputSingleParams memory params)... */\n      pop\n      pop\n      pop\n    tag_64:\n      swap2\n      swap4\n      pop\n      swap2\n      swap4\n      jump\t// out\n        /* \".deps/github/Uniswap/v3-periphery/contracts/base/PeripheryImmutableState.sol\":328:369  address public immutable override factory */\n    tag_28:\n      immutable(\"0xd2f8f61201b2b11a78d6e866abc9c3db2ae8631fa656bfe5cb53668255367afb\")\n      dup2\n      jump\t// out\n        /* \".deps/github/Uniswap/v3-periphery/contracts/lens/QuoterV2.sol\":4579:5683  function quoteExactInputSingle(QuoteExactInputSingleParams memory params)... */\n    tag_33:\n        /* \".deps/github/Uniswap/v3-periphery/contracts/lens/QuoterV2.sol\":4715:4732  uint256 amountOut */\n      0x00\n        /* \".deps/github/Uniswap/v3-periphery/contracts/lens/QuoterV2.sol\":4746:4771  uint160 sqrtPriceX96After */\n      dup1\n        /* \".deps/github/Uniswap/v3-periphery/contracts/lens/QuoterV2.sol\":4785:4815  uint32 initializedTicksCrossed */\n      0x00\n        /* \".deps/github/Uniswap/v3-periphery/contracts/lens/QuoterV2.sol\":4829:4848  uint256 gasEstimate */\n      dup1\n        /* \".deps/github/Uniswap/v3-periphery/contracts/lens/QuoterV2.sol\":4873:4888  bool zeroForOne */\n      0x00\n        /* \".deps/github/Uniswap/v3-periphery/contracts/lens/QuoterV2.sol\":4908:4914  params */\n      dup6\n        /* \".deps/github/Uniswap/v3-periphery/contracts/lens/QuoterV2.sol\":4908:4923  params.tokenOut */\n      0x20\n      add\n      mload\n        /* \".deps/github/Uniswap/v3-periphery/contracts/lens/QuoterV2.sol\":4891:4923  params.tokenIn < params.tokenOut */\n      0xffffffffffffffffffffffffffffffffffffffff\n      and\n        /* \".deps/github/Uniswap/v3-periphery/contracts/lens/QuoterV2.sol\":4891:4897  params */\n      dup7\n        /* \".deps/github/Uniswap/v3-periphery/contracts/lens/QuoterV2.sol\":4891:4905  params.tokenIn */\n      0x00\n      add\n      mload\n        /* \".deps/github/Uniswap/v3-periphery/contracts/lens/QuoterV2.sol\":4891:4923  params.tokenIn < params.tokenOut */\n      0xffffffffffffffffffffffffffffffffffffffff\n      and\n      lt\n        /* \".deps/github/Uniswap/v3-periphery/contracts/lens/QuoterV2.sol\":4873:4923  bool zeroForOne = params.tokenIn < params.tokenOut */\n      swap1\n      pop\n        /* \".deps/github/Uniswap/v3-periphery/contracts/lens/QuoterV2.sol\":4933:4952  IUniswapV3Pool pool */\n      0x00\n        /* \".deps/github/Uniswap/v3-periphery/contracts/lens/QuoterV2.sol\":4955:5007  getPool(params.tokenIn, params.tokenOut, params.fee) */\n      tag_92\n        /* \".deps/github/Uniswap/v3-periphery/contracts/lens/QuoterV2.sol\":4963:4969  params */\n      dup8\n        /* \".deps/github/Uniswap/v3-periphery/contracts/lens/QuoterV2.sol\":4963:4977  params.tokenIn */\n      0x00\n      add\n      mload\n        /* \".deps/github/Uniswap/v3-periphery/contracts/lens/QuoterV2.sol\":4979:4985  params */\n      dup9\n        /* \".deps/github/Uniswap/v3-periphery/contracts/lens/QuoterV2.sol\":4979:4994  params.tokenOut */\n      0x20\n      add\n      mload\n        /* \".deps/github/Uniswap/v3-periphery/contracts/lens/QuoterV2.sol\":4996:5002  params */\n      dup10\n        /* \".deps/github/Uniswap/v3-periphery/contracts/lens/QuoterV2.sol\":4996:5006  params.fee */\n      0x60\n      add\n      mload\n        /* \".deps/github/Uniswap/v3-periphery/contracts/lens/QuoterV2.sol\":4955:4962  getPool */\n      tag_66\n        /* \".deps/github/Uniswap/v3-periphery/contracts/lens/QuoterV2.sol\":4955:5007  getPool(params.tokenIn, params.tokenOut, params.fee) */\n      jump\t// in\n    tag_92:\n        /* \".deps/github/Uniswap/v3-periphery/contracts/lens/QuoterV2.sol\":4933:5007  IUniswapV3Pool pool = getPool(params.tokenIn, params.tokenOut, params.fee) */\n      swap1\n      pop\n        /* \".deps/github/Uniswap/v3-periphery/contracts/lens/QuoterV2.sol\":5018:5035  uint256 gasBefore */\n      0x00\n        /* \".deps/github/Uniswap/v3-periphery/contracts/lens/QuoterV2.sol\":5038:5047  gasleft() */\n      gas\n        /* \".deps/github/Uniswap/v3-periphery/contracts/lens/QuoterV2.sol\":5018:5047  uint256 gasBefore = gasleft() */\n      swap1\n      pop\n        /* \".deps/github/Uniswap/v3-periphery/contracts/lens/QuoterV2.sol\":5073:5077  pool */\n      dup2\n        /* \".deps/github/Uniswap/v3-periphery/contracts/lens/QuoterV2.sol\":5073:5082  pool.swap */\n      0xffffffffffffffffffffffffffffffffffffffff\n      and\n      0x128acb08\n        /* \".deps/github/Uniswap/v3-periphery/contracts/lens/QuoterV2.sol\":5108:5112  this */\n      address\n        /* \".deps/github/Uniswap/v3-periphery/contracts/lens/QuoterV2.sol\":5181:5191  zeroForOne */\n      dup6\n        /* \".deps/github/Uniswap/v3-periphery/contracts/lens/QuoterV2.sol\":5209:5235  params.amountIn.toInt256() */\n      tag_93\n        /* \".deps/github/Uniswap/v3-periphery/contracts/lens/QuoterV2.sol\":5209:5215  params */\n      dup13\n        /* \".deps/github/Uniswap/v3-periphery/contracts/lens/QuoterV2.sol\":5209:5224  params.amountIn */\n      0x40\n      add\n      mload\n        /* \".deps/github/Uniswap/v3-periphery/contracts/lens/QuoterV2.sol\":5209:5233  params.amountIn.toInt256 */\n      tag_69\n        /* \".deps/github/Uniswap/v3-periphery/contracts/lens/QuoterV2.sol\":5209:5235  params.amountIn.toInt256() */\n      jump\t// in\n    tag_93:\n        /* \".deps/github/Uniswap/v3-periphery/contracts/lens/QuoterV2.sol\":5281:5282  0 */\n      0x00\n        /* \".deps/github/Uniswap/v3-periphery/contracts/lens/QuoterV2.sol\":5253:5259  params */\n      dup14\n        /* \".deps/github/Uniswap/v3-periphery/contracts/lens/QuoterV2.sol\":5253:5277  params.sqrtPriceLimitX96 */\n      0x80\n      add\n      mload\n        /* \".deps/github/Uniswap/v3-periphery/contracts/lens/QuoterV2.sol\":5253:5282  params.sqrtPriceLimitX96 == 0 */\n      0xffffffffffffffffffffffffffffffffffffffff\n      and\n      eq\n        /* \".deps/github/Uniswap/v3-periphery/contracts/lens/QuoterV2.sol\":5253:5424  params.sqrtPriceLimitX96 == 0... */\n      tag_94\n      jumpi\n        /* \".deps/github/Uniswap/v3-periphery/contracts/lens/QuoterV2.sol\":5400:5406  params */\n      dup13\n        /* \".deps/github/Uniswap/v3-periphery/contracts/lens/QuoterV2.sol\":5400:5424  params.sqrtPriceLimitX96 */\n      0x80\n      add\n      mload\n        /* \".deps/github/Uniswap/v3-periphery/contracts/lens/QuoterV2.sol\":5253:5424  params.sqrtPriceLimitX96 == 0... */\n      jump(tag_95)\n    tag_94:\n        /* \".deps/github/Uniswap/v3-periphery/contracts/lens/QuoterV2.sol\":5306:5316  zeroForOne */\n      dup8\n        /* \".deps/github/Uniswap/v3-periphery/contracts/lens/QuoterV2.sol\":5306:5376  zeroForOne ? TickMath.MIN_SQRT_RATIO + 1 : TickMath.MAX_SQRT_RATIO - 1 */\n      tag_96\n      jumpi\n        /* \".deps/github/Uniswap/v3-periphery/contracts/lens/QuoterV2.sol\":5375:5376  1 */\n      0x01\n        /* \"@uniswap/v3-core/contracts/libraries/TickMath.sol\":1004:1053  1461446703485210103287273052203988822378723970342 */\n      0xfffd8963efd1fc6a506488495d951d5263988d26\n        /* \".deps/github/Uniswap/v3-periphery/contracts/lens/QuoterV2.sol\":5349:5376  TickMath.MAX_SQRT_RATIO - 1 */\n      sub\n        /* \".deps/github/Uniswap/v3-periphery/contracts/lens/QuoterV2.sol\":5306:5376  zeroForOne ? TickMath.MIN_SQRT_RATIO + 1 : TickMath.MAX_SQRT_RATIO - 1 */\n      jump(tag_97)\n    tag_96:\n        /* \".deps/github/Uniswap/v3-periphery/contracts/lens/QuoterV2.sol\":5345:5346  1 */\n      0x01\n        /* \"@uniswap/v3-core/contracts/libraries/TickMath.sol\":824:834  4295128739 */\n      0x01000276a3\n        /* \".deps/github/Uniswap/v3-periphery/contracts/lens/QuoterV2.sol\":5319:5346  TickMath.MIN_SQRT_RATIO + 1 */\n      add\n        /* \".deps/github/Uniswap/v3-periphery/contracts/lens/QuoterV2.sol\":5306:5376  zeroForOne ? TickMath.MIN_SQRT_RATIO + 1 : TickMath.MAX_SQRT_RATIO - 1 */\n    tag_97:\n        /* \".deps/github/Uniswap/v3-periphery/contracts/lens/QuoterV2.sol\":5253:5424  params.sqrtPriceLimitX96 == 0... */\n    tag_95:\n        /* \".deps/github/Uniswap/v3-periphery/contracts/lens/QuoterV2.sol\":5459:5465  params */\n      dup14\n        /* \".deps/github/Uniswap/v3-periphery/contracts/lens/QuoterV2.sol\":5459:5473  params.tokenIn */\n      0x00\n      add\n      mload\n        /* \".deps/github/Uniswap/v3-periphery/contracts/lens/QuoterV2.sol\":5475:5481  params */\n      dup15\n        /* \".deps/github/Uniswap/v3-periphery/contracts/lens/QuoterV2.sol\":5475:5485  params.fee */\n      0x60\n      add\n      mload\n        /* \".deps/github/Uniswap/v3-periphery/contracts/lens/QuoterV2.sol\":5487:5493  params */\n      dup16\n        /* \".deps/github/Uniswap/v3-periphery/contracts/lens/QuoterV2.sol\":5487:5502  params.tokenOut */\n      0x20\n      add\n      mload\n        /* \".deps/github/Uniswap/v3-periphery/contracts/lens/QuoterV2.sol\":5442:5503  abi.encodePacked(params.tokenIn, params.fee, params.tokenOut) */\n      add(0x20, mload(0x40))\n      tag_98\n      swap4\n      swap3\n      swap2\n      swap1\n      tag_75\n      jump\t// in\n    tag_98:\n      mload(0x40)\n      0x20\n      dup2\n      dup4\n      sub\n      sub\n      dup2\n      mstore\n      swap1\n      0x40\n      mstore\n        /* \".deps/github/Uniswap/v3-periphery/contracts/lens/QuoterV2.sol\":5073:5517  pool.swap(... */\n      mload(0x40)\n      dup7\n      0xffffffff\n      and\n      0xe0\n      shl\n      dup2\n      mstore\n      0x04\n      add\n      tag_99\n      swap6\n      swap5\n      swap4\n      swap3\n      swap2\n      swap1\n      tag_77\n      jump\t// in\n    tag_99:\n      0x40\n      dup1\n      mload\n      dup1\n      dup4\n      sub\n      dup2\n      0x00\n      dup8\n      dup1\n      extcodesize\n      iszero\n      dup1\n      iszero\n      tag_100\n      jumpi\n      0x00\n      dup1\n      revert\n    tag_100:\n      pop\n      gas\n      call\n      swap3\n      pop\n      pop\n      pop\n      dup1\n      iszero\n      tag_101\n      jumpi\n      pop\n      mload(0x40)\n      returndatasize\n      not(0x1f)\n      0x1f\n      dup3\n      add\n      and\n      dup3\n      add\n      dup1\n      0x40\n      mstore\n      pop\n      dup2\n      add\n      swap1\n      tag_102\n      swap2\n      swap1\n      tag_81\n      jump\t// in\n    tag_102:\n      0x01\n    tag_101:\n        /* \".deps/github/Uniswap/v3-periphery/contracts/lens/QuoterV2.sol\":5057:5677  try... */\n      tag_103\n      jumpi\n      returndatasize\n      dup1\n      0x00\n      dup2\n      eq\n      tag_107\n      jumpi\n      mload(0x40)\n      swap2\n      pop\n      and(add(returndatasize, 0x3f), not(0x1f))\n      dup3\n      add\n      0x40\n      mstore\n      returndatasize\n      dup3\n      mstore\n      returndatasize\n      0x00\n      0x20\n      dup5\n      add\n      returndatacopy\n      jump(tag_106)\n    tag_107:\n      0x60\n      swap2\n      pop\n    tag_106:\n      pop\n        /* \".deps/github/Uniswap/v3-periphery/contracts/lens/QuoterV2.sol\":5597:5606  gasleft() */\n      gas\n        /* \".deps/github/Uniswap/v3-periphery/contracts/lens/QuoterV2.sol\":5585:5594  gasBefore */\n      dup3\n        /* \".deps/github/Uniswap/v3-periphery/contracts/lens/QuoterV2.sol\":5585:5606  gasBefore - gasleft() */\n      sub\n        /* \".deps/github/Uniswap/v3-periphery/contracts/lens/QuoterV2.sol\":5571:5606  gasEstimate = gasBefore - gasleft() */\n      swap5\n      pop\n        /* \".deps/github/Uniswap/v3-periphery/contracts/lens/QuoterV2.sol\":5627:5666  handleRevert(reason, pool, gasEstimate) */\n      tag_108\n        /* \".deps/github/Uniswap/v3-periphery/contracts/lens/QuoterV2.sol\":5640:5646  reason */\n      dup2\n        /* \".deps/github/Uniswap/v3-periphery/contracts/lens/QuoterV2.sol\":5648:5652  pool */\n      dup5\n        /* \".deps/github/Uniswap/v3-periphery/contracts/lens/QuoterV2.sol\":5654:5665  gasEstimate */\n      dup8\n        /* \".deps/github/Uniswap/v3-periphery/contracts/lens/QuoterV2.sol\":5627:5639  handleRevert */\n      tag_89\n        /* \".deps/github/Uniswap/v3-periphery/contracts/lens/QuoterV2.sol\":5627:5666  handleRevert(reason, pool, gasEstimate) */\n      jump\t// in\n    tag_108:\n        /* \".deps/github/Uniswap/v3-periphery/contracts/lens/QuoterV2.sol\":5620:5666  return handleRevert(reason, pool, gasEstimate) */\n      swap8\n      pop\n      swap8\n      pop\n      swap8\n      pop\n      swap8\n      pop\n      pop\n      pop\n      pop\n      pop\n      jump(tag_91)\n        /* \".deps/github/Uniswap/v3-periphery/contracts/lens/QuoterV2.sol\":5057:5677  try... */\n    tag_103:\n      pop\n      pop\n        /* \".deps/github/Uniswap/v3-periphery/contracts/lens/QuoterV2.sol\":4579:5683  function quoteExactInputSingle(QuoteExactInputSingleParams memory params)... */\n      pop\n      pop\n      pop\n    tag_91:\n      swap2\n      swap4\n      pop\n      swap2\n      swap4\n      jump\t// out\n        /* \".deps/github/Uniswap/v3-periphery/contracts/lens/QuoterV2.sol\":5689:7307  function quoteExactInput(bytes memory path, uint256 amountIn)... */\n    tag_37:\n        /* \".deps/github/Uniswap/v3-periphery/contracts/lens/QuoterV2.sol\":5813:5830  uint256 amountOut */\n      0x00\n        /* \".deps/github/Uniswap/v3-periphery/contracts/lens/QuoterV2.sol\":5844:5882  uint160[] memory sqrtPriceX96AfterList */\n      0x60\n        /* \".deps/github/Uniswap/v3-periphery/contracts/lens/QuoterV2.sol\":5896:5939  uint32[] memory initializedTicksCrossedList */\n      dup1\n        /* \".deps/github/Uniswap/v3-periphery/contracts/lens/QuoterV2.sol\":5953:5972  uint256 gasEstimate */\n      0x00\n        /* \".deps/github/Uniswap/v3-periphery/contracts/lens/QuoterV2.sol\":6035:6050  path.numPools() */\n      tag_111\n        /* \".deps/github/Uniswap/v3-periphery/contracts/lens/QuoterV2.sol\":6035:6039  path */\n      dup7\n        /* \".deps/github/Uniswap/v3-periphery/contracts/lens/QuoterV2.sol\":6035:6048  path.numPools */\n      tag_45\n        /* \".deps/github/Uniswap/v3-periphery/contracts/lens/QuoterV2.sol\":6035:6050  path.numPools() */\n      jump\t// in\n    tag_111:\n        /* \".deps/github/Uniswap/v3-periphery/contracts/lens/QuoterV2.sol\":6021:6051  new uint160[](path.numPools()) */\n      0xffffffffffffffff\n      dup2\n      gt\n      dup1\n      iszero\n      tag_112\n      jumpi\n      0x00\n      dup1\n      revert\n    tag_112:\n      pop\n      mload(0x40)\n      swap1\n      dup1\n      dup3\n      mstore\n      dup1\n      0x20\n      mul\n      0x20\n      add\n      dup3\n      add\n      0x40\n      mstore\n      dup1\n      iszero\n      tag_113\n      jumpi\n      dup2\n      0x20\n      add\n      0x20\n      dup3\n      mul\n      dup1\n      calldatasize\n      dup4\n      calldatacopy\n      dup1\n      dup3\n      add\n      swap2\n      pop\n      pop\n      swap1\n      pop\n    tag_113:\n      pop\n        /* \".deps/github/Uniswap/v3-periphery/contracts/lens/QuoterV2.sol\":5997:6051  sqrtPriceX96AfterList = new uint160[](path.numPools()) */\n      swap3\n      pop\n        /* \".deps/github/Uniswap/v3-periphery/contracts/lens/QuoterV2.sol\":6104:6119  path.numPools() */\n      tag_114\n        /* \".deps/github/Uniswap/v3-periphery/contracts/lens/QuoterV2.sol\":6104:6108  path */\n      dup7\n        /* \".deps/github/Uniswap/v3-periphery/contracts/lens/QuoterV2.sol\":6104:6117  path.numPools */\n      tag_45\n        /* \".deps/github/Uniswap/v3-periphery/contracts/lens/QuoterV2.sol\":6104:6119  path.numPools() */\n      jump\t// in\n    tag_114:\n        /* \".deps/github/Uniswap/v3-periphery/contracts/lens/QuoterV2.sol\":6091:6120  new uint32[](path.numPools()) */\n      0xffffffffffffffff\n      dup2\n      gt\n      dup1\n      iszero\n      tag_115\n      jumpi\n      0x00\n      dup1\n      revert\n    tag_115:\n      pop\n      mload(0x40)\n      swap1\n      dup1\n      dup3\n      mstore\n      dup1\n      0x20\n      mul\n      0x20\n      add\n      dup3\n      add\n      0x40\n      mstore\n      dup1\n      iszero\n      tag_116\n      jumpi\n      dup2\n      0x20\n      add\n      0x20\n      dup3\n      mul\n      dup1\n      calldatasize\n      dup4\n      calldatacopy\n      dup1\n      dup3\n      add\n      swap2\n      pop\n      pop\n      swap1\n      pop\n    tag_116:\n      pop\n        /* \".deps/github/Uniswap/v3-periphery/contracts/lens/QuoterV2.sol\":6061:6120  initializedTicksCrossedList = new uint32[](path.numPools()) */\n      swap2\n      pop\n        /* \".deps/github/Uniswap/v3-periphery/contracts/lens/QuoterV2.sol\":6131:6140  uint256 i */\n      0x00\n        /* \".deps/github/Uniswap/v3-periphery/contracts/lens/QuoterV2.sol\":6154:7301  while (true) {... */\n    tag_117:\n        /* \".deps/github/Uniswap/v3-periphery/contracts/lens/QuoterV2.sol\":6161:6165  true */\n      0x01\n        /* \".deps/github/Uniswap/v3-periphery/contracts/lens/QuoterV2.sol\":6154:7301  while (true) {... */\n      iszero\n      tag_118\n      jumpi\n        /* \".deps/github/Uniswap/v3-periphery/contracts/lens/QuoterV2.sol\":6182:6197  address tokenIn */\n      0x00\n        /* \".deps/github/Uniswap/v3-periphery/contracts/lens/QuoterV2.sol\":6199:6215  address tokenOut */\n      dup1\n        /* \".deps/github/Uniswap/v3-periphery/contracts/lens/QuoterV2.sol\":6217:6227  uint24 fee */\n      0x00\n        /* \".deps/github/Uniswap/v3-periphery/contracts/lens/QuoterV2.sol\":6231:6253  path.decodeFirstPool() */\n      tag_119\n        /* \".deps/github/Uniswap/v3-periphery/contracts/lens/QuoterV2.sol\":6231:6235  path */\n      dup11\n        /* \".deps/github/Uniswap/v3-periphery/contracts/lens/QuoterV2.sol\":6231:6251  path.decodeFirstPool */\n      tag_54\n        /* \".deps/github/Uniswap/v3-periphery/contracts/lens/QuoterV2.sol\":6231:6253  path.decodeFirstPool() */\n      jump\t// in\n    tag_119:\n        /* \".deps/github/Uniswap/v3-periphery/contracts/lens/QuoterV2.sol\":6181:6253  (address tokenIn, address tokenOut, uint24 fee) = path.decodeFirstPool() */\n      swap3\n      pop\n      swap3\n      pop\n      swap3\n      pop\n        /* \".deps/github/Uniswap/v3-periphery/contracts/lens/QuoterV2.sol\":6348:6366  uint256 _amountOut */\n      0x00\n        /* \".deps/github/Uniswap/v3-periphery/contracts/lens/QuoterV2.sol\":6368:6394  uint160 _sqrtPriceX96After */\n      dup1\n        /* \".deps/github/Uniswap/v3-periphery/contracts/lens/QuoterV2.sol\":6396:6427  uint32 _initializedTicksCrossed */\n      0x00\n        /* \".deps/github/Uniswap/v3-periphery/contracts/lens/QuoterV2.sol\":6429:6449  uint256 _gasEstimate */\n      dup1\n        /* \".deps/github/Uniswap/v3-periphery/contracts/lens/QuoterV2.sol\":6469:6791  quoteExactInputSingle(... */\n      tag_120\n        /* \".deps/github/Uniswap/v3-periphery/contracts/lens/QuoterV2.sol\":6512:6773  QuoteExactInputSingleParams({... */\n      mload(0x40)\n      dup1\n      0xa0\n      add\n      0x40\n      mstore\n      dup1\n        /* \".deps/github/Uniswap/v3-periphery/contracts/lens/QuoterV2.sol\":6575:6582  tokenIn */\n      dup10\n        /* \".deps/github/Uniswap/v3-periphery/contracts/lens/QuoterV2.sol\":6512:6773  QuoteExactInputSingleParams({... */\n      0xffffffffffffffffffffffffffffffffffffffff\n      and\n      dup2\n      mstore\n      0x20\n      add\n        /* \".deps/github/Uniswap/v3-periphery/contracts/lens/QuoterV2.sol\":6618:6626  tokenOut */\n      dup9\n        /* \".deps/github/Uniswap/v3-periphery/contracts/lens/QuoterV2.sol\":6512:6773  QuoteExactInputSingleParams({... */\n      0xffffffffffffffffffffffffffffffffffffffff\n      and\n      dup2\n      mstore\n      0x20\n      add\n        /* \".deps/github/Uniswap/v3-periphery/contracts/lens/QuoterV2.sol\":6696:6704  amountIn */\n      dup16\n        /* \".deps/github/Uniswap/v3-periphery/contracts/lens/QuoterV2.sol\":6512:6773  QuoteExactInputSingleParams({... */\n      dup2\n      mstore\n      0x20\n      add\n        /* \".deps/github/Uniswap/v3-periphery/contracts/lens/QuoterV2.sol\":6657:6660  fee */\n      dup8\n        /* \".deps/github/Uniswap/v3-periphery/contracts/lens/QuoterV2.sol\":6512:6773  QuoteExactInputSingleParams({... */\n      0xffffff\n      and\n      dup2\n      mstore\n      0x20\n      add\n        /* \".deps/github/Uniswap/v3-periphery/contracts/lens/QuoterV2.sol\":6749:6750  0 */\n      0x00\n        /* \".deps/github/Uniswap/v3-periphery/contracts/lens/QuoterV2.sol\":6512:6773  QuoteExactInputSingleParams({... */\n      0xffffffffffffffffffffffffffffffffffffffff\n      and\n      dup2\n      mstore\n      pop\n        /* \".deps/github/Uniswap/v3-periphery/contracts/lens/QuoterV2.sol\":6469:6490  quoteExactInputSingle */\n      tag_33\n        /* \".deps/github/Uniswap/v3-periphery/contracts/lens/QuoterV2.sol\":6469:6791  quoteExactInputSingle(... */\n      jump\t// in\n    tag_120:\n        /* \".deps/github/Uniswap/v3-periphery/contracts/lens/QuoterV2.sol\":6347:6791  (uint256 _amountOut, uint160 _sqrtPriceX96After, uint32 _initializedTicksCrossed, uint256 _gasEstimate) =... */\n      swap4\n      pop\n      swap4\n      pop\n      swap4\n      pop\n      swap4\n      pop\n        /* \".deps/github/Uniswap/v3-periphery/contracts/lens/QuoterV2.sol\":6833:6851  _sqrtPriceX96After */\n      dup3\n        /* \".deps/github/Uniswap/v3-periphery/contracts/lens/QuoterV2.sol\":6806:6827  sqrtPriceX96AfterList */\n      dup12\n        /* \".deps/github/Uniswap/v3-periphery/contracts/lens/QuoterV2.sol\":6828:6829  i */\n      dup10\n        /* \".deps/github/Uniswap/v3-periphery/contracts/lens/QuoterV2.sol\":6806:6830  sqrtPriceX96AfterList[i] */\n      dup2\n      mload\n      dup2\n      lt\n      tag_121\n      jumpi\n      invalid\n    tag_121:\n      0x20\n      mul\n      0x20\n      add\n      add\n        /* \".deps/github/Uniswap/v3-periphery/contracts/lens/QuoterV2.sol\":6806:6851  sqrtPriceX96AfterList[i] = _sqrtPriceX96After */\n      swap1\n      0xffffffffffffffffffffffffffffffffffffffff\n      and\n      swap1\n      dup2\n      0xffffffffffffffffffffffffffffffffffffffff\n      and\n      dup2\n      mstore\n      pop\n      pop\n        /* \".deps/github/Uniswap/v3-periphery/contracts/lens/QuoterV2.sol\":6898:6922  _initializedTicksCrossed */\n      dup2\n        /* \".deps/github/Uniswap/v3-periphery/contracts/lens/QuoterV2.sol\":6865:6892  initializedTicksCrossedList */\n      dup11\n        /* \".deps/github/Uniswap/v3-periphery/contracts/lens/QuoterV2.sol\":6893:6894  i */\n      dup10\n        /* \".deps/github/Uniswap/v3-periphery/contracts/lens/QuoterV2.sol\":6865:6895  initializedTicksCrossedList[i] */\n      dup2\n      mload\n      dup2\n      lt\n      tag_122\n      jumpi\n      invalid\n    tag_122:\n      0x20\n      mul\n      0x20\n      add\n      add\n        /* \".deps/github/Uniswap/v3-periphery/contracts/lens/QuoterV2.sol\":6865:6922  initializedTicksCrossedList[i] = _initializedTicksCrossed */\n      swap1\n      0xffffffff\n      and\n      swap1\n      dup2\n      0xffffffff\n      and\n      dup2\n      mstore\n      pop\n      pop\n        /* \".deps/github/Uniswap/v3-periphery/contracts/lens/QuoterV2.sol\":6947:6957  _amountOut */\n      dup4\n        /* \".deps/github/Uniswap/v3-periphery/contracts/lens/QuoterV2.sol\":6936:6957  amountIn = _amountOut */\n      swap13\n      pop\n        /* \".deps/github/Uniswap/v3-periphery/contracts/lens/QuoterV2.sol\":6986:6998  _gasEstimate */\n      dup1\n        /* \".deps/github/Uniswap/v3-periphery/contracts/lens/QuoterV2.sol\":6971:6998  gasEstimate += _gasEstimate */\n      dup10\n      add\n      swap9\n      pop\n        /* \".deps/github/Uniswap/v3-periphery/contracts/lens/QuoterV2.sol\":7012:7015  i++ */\n      dup8\n      dup1\n      0x01\n      add\n      swap9\n      pop\n      pop\n        /* \".deps/github/Uniswap/v3-periphery/contracts/lens/QuoterV2.sol\":7089:7112  path.hasMultiplePools() */\n      tag_123\n        /* \".deps/github/Uniswap/v3-periphery/contracts/lens/QuoterV2.sol\":7089:7093  path */\n      dup15\n        /* \".deps/github/Uniswap/v3-periphery/contracts/lens/QuoterV2.sol\":7089:7110  path.hasMultiplePools */\n      tag_59\n        /* \".deps/github/Uniswap/v3-periphery/contracts/lens/QuoterV2.sol\":7089:7112  path.hasMultiplePools() */\n      jump\t// in\n    tag_123:\n        /* \".deps/github/Uniswap/v3-periphery/contracts/lens/QuoterV2.sol\":7085:7291  if (path.hasMultiplePools()) {... */\n      iszero\n      tag_124\n      jumpi\n        /* \".deps/github/Uniswap/v3-periphery/contracts/lens/QuoterV2.sol\":7139:7155  path.skipToken() */\n      tag_125\n        /* \".deps/github/Uniswap/v3-periphery/contracts/lens/QuoterV2.sol\":7139:7143  path */\n      dup15\n        /* \".deps/github/Uniswap/v3-periphery/contracts/lens/QuoterV2.sol\":7139:7153  path.skipToken */\n      tag_62\n        /* \".deps/github/Uniswap/v3-periphery/contracts/lens/QuoterV2.sol\":7139:7155  path.skipToken() */\n      jump\t// in\n    tag_125:\n        /* \".deps/github/Uniswap/v3-periphery/contracts/lens/QuoterV2.sol\":7132:7155  path = path.skipToken() */\n      swap14\n      pop\n        /* \".deps/github/Uniswap/v3-periphery/contracts/lens/QuoterV2.sol\":7085:7291  if (path.hasMultiplePools()) {... */\n      jump(tag_126)\n    tag_124:\n        /* \".deps/github/Uniswap/v3-periphery/contracts/lens/QuoterV2.sol\":7202:7210  amountIn */\n      dup13\n        /* \".deps/github/Uniswap/v3-periphery/contracts/lens/QuoterV2.sol\":7194:7276  return (amountIn, sqrtPriceX96AfterList, initializedTicksCrossedList, gasEstimate) */\n      swap12\n      pop\n      pop\n      pop\n      pop\n      pop\n      pop\n      pop\n      pop\n      pop\n      jump(tag_110)\n        /* \".deps/github/Uniswap/v3-periphery/contracts/lens/QuoterV2.sol\":7085:7291  if (path.hasMultiplePools()) {... */\n    tag_126:\n        /* \".deps/github/Uniswap/v3-periphery/contracts/lens/QuoterV2.sol\":6154:7301  while (true) {... */\n      pop\n      pop\n      pop\n      pop\n      pop\n      pop\n      pop\n      jump(tag_117)\n    tag_118:\n        /* \".deps/github/Uniswap/v3-periphery/contracts/lens/QuoterV2.sol\":5689:7307  function quoteExactInput(bytes memory path, uint256 amountIn)... */\n      pop\n    tag_110:\n      swap3\n      swap6\n      swap2\n      swap5\n      pop\n      swap3\n      pop\n      jump\t// out\n        /* \".deps/github/Uniswap/v3-periphery/contracts/lens/QuoterV2.sol\":1703:3308  function uniswapV3SwapCallback(... */\n    tag_42:\n        /* \".deps/github/Uniswap/v3-periphery/contracts/lens/QuoterV2.sol\":1881:1882  0 */\n      0x00\n        /* \".deps/github/Uniswap/v3-periphery/contracts/lens/QuoterV2.sol\":1866:1878  amount0Delta */\n      dup4\n        /* \".deps/github/Uniswap/v3-periphery/contracts/lens/QuoterV2.sol\":1866:1882  amount0Delta > 0 */\n      sgt\n        /* \".deps/github/Uniswap/v3-periphery/contracts/lens/QuoterV2.sol\":1866:1902  amount0Delta > 0 || amount1Delta > 0 */\n      dup1\n      tag_128\n      jumpi\n      pop\n        /* \".deps/github/Uniswap/v3-periphery/contracts/lens/QuoterV2.sol\":1901:1902  0 */\n      0x00\n        /* \".deps/github/Uniswap/v3-periphery/contracts/lens/QuoterV2.sol\":1886:1898  amount1Delta */\n      dup3\n        /* \".deps/github/Uniswap/v3-periphery/contracts/lens/QuoterV2.sol\":1886:1902  amount1Delta > 0 */\n      sgt\n        /* \".deps/github/Uniswap/v3-periphery/contracts/lens/QuoterV2.sol\":1866:1902  amount0Delta > 0 || amount1Delta > 0 */\n    tag_128:\n        /* \".deps/github/Uniswap/v3-periphery/contracts/lens/QuoterV2.sol\":1858:1903  require(amount0Delta > 0 || amount1Delta > 0) */\n      tag_129\n      jumpi\n      0x00\n      dup1\n      revert\n    tag_129:\n        /* \".deps/github/Uniswap/v3-periphery/contracts/lens/QuoterV2.sol\":1977:1992  address tokenIn */\n      0x00\n        /* \".deps/github/Uniswap/v3-periphery/contracts/lens/QuoterV2.sol\":1994:2010  address tokenOut */\n      dup1\n        /* \".deps/github/Uniswap/v3-periphery/contracts/lens/QuoterV2.sol\":2012:2022  uint24 fee */\n      0x00\n        /* \".deps/github/Uniswap/v3-periphery/contracts/lens/QuoterV2.sol\":2026:2048  path.decodeFirstPool() */\n      tag_130\n        /* \".deps/github/Uniswap/v3-periphery/contracts/lens/QuoterV2.sol\":2026:2030  path */\n      dup5\n        /* \".deps/github/Uniswap/v3-periphery/contracts/lens/QuoterV2.sol\":2026:2046  path.decodeFirstPool */\n      tag_54\n        /* \".deps/github/Uniswap/v3-periphery/contracts/lens/QuoterV2.sol\":2026:2048  path.decodeFirstPool() */\n      jump\t// in\n    tag_130:\n        /* \".deps/github/Uniswap/v3-periphery/contracts/lens/QuoterV2.sol\":1976:2048  (address tokenIn, address tokenOut, uint24 fee) = path.decodeFirstPool() */\n      swap3\n      pop\n      swap3\n      pop\n      swap3\n      pop\n        /* \".deps/github/Uniswap/v3-periphery/contracts/lens/QuoterV2.sol\":2058:2124  CallbackValidation.verifyCallback(factory, tokenIn, tokenOut, fee) */\n      tag_131\n        /* \".deps/github/Uniswap/v3-periphery/contracts/lens/QuoterV2.sol\":2092:2099  factory */\n      immutable(\"0xd2f8f61201b2b11a78d6e866abc9c3db2ae8631fa656bfe5cb53668255367afb\")\n        /* \".deps/github/Uniswap/v3-periphery/contracts/lens/QuoterV2.sol\":2101:2108  tokenIn */\n      dup5\n        /* \".deps/github/Uniswap/v3-periphery/contracts/lens/QuoterV2.sol\":2110:2118  tokenOut */\n      dup5\n        /* \".deps/github/Uniswap/v3-periphery/contracts/lens/QuoterV2.sol\":2120:2123  fee */\n      dup5\n        /* \".deps/github/Uniswap/v3-periphery/contracts/lens/QuoterV2.sol\":2058:2091  CallbackValidation.verifyCallback */\n      tag_132\n        /* \".deps/github/Uniswap/v3-periphery/contracts/lens/QuoterV2.sol\":2058:2124  CallbackValidation.verifyCallback(factory, tokenIn, tokenOut, fee) */\n      jump\t// in\n    tag_131:\n      pop\n        /* \".deps/github/Uniswap/v3-periphery/contracts/lens/QuoterV2.sol\":2136:2153  bool isExactInput */\n      0x00\n        /* \".deps/github/Uniswap/v3-periphery/contracts/lens/QuoterV2.sol\":2155:2174  uint256 amountToPay */\n      dup1\n        /* \".deps/github/Uniswap/v3-periphery/contracts/lens/QuoterV2.sol\":2176:2198  uint256 amountReceived */\n      0x00\n        /* \".deps/github/Uniswap/v3-periphery/contracts/lens/QuoterV2.sol\":2229:2230  0 */\n      dup1\n        /* \".deps/github/Uniswap/v3-periphery/contracts/lens/QuoterV2.sol\":2214:2226  amount0Delta */\n      dup10\n        /* \".deps/github/Uniswap/v3-periphery/contracts/lens/QuoterV2.sol\":2214:2230  amount0Delta > 0 */\n      sgt\n        /* \".deps/github/Uniswap/v3-periphery/contracts/lens/QuoterV2.sol\":2214:2402  amount0Delta > 0... */\n      tag_133\n      jumpi\n        /* \".deps/github/Uniswap/v3-periphery/contracts/lens/QuoterV2.sol\":2347:2354  tokenIn */\n      dup6\n        /* \".deps/github/Uniswap/v3-periphery/contracts/lens/QuoterV2.sol\":2336:2354  tokenOut < tokenIn */\n      0xffffffffffffffffffffffffffffffffffffffff\n      and\n        /* \".deps/github/Uniswap/v3-periphery/contracts/lens/QuoterV2.sol\":2336:2344  tokenOut */\n      dup6\n        /* \".deps/github/Uniswap/v3-periphery/contracts/lens/QuoterV2.sol\":2336:2354  tokenOut < tokenIn */\n      0xffffffffffffffffffffffffffffffffffffffff\n      and\n      lt\n        /* \".deps/github/Uniswap/v3-periphery/contracts/lens/QuoterV2.sol\":2364:2376  amount1Delta */\n      dup9\n        /* \".deps/github/Uniswap/v3-periphery/contracts/lens/QuoterV2.sol\":2388:2400  amount0Delta */\n      dup11\n        /* \".deps/github/Uniswap/v3-periphery/contracts/lens/QuoterV2.sol\":2387:2400  -amount0Delta */\n      0x00\n      sub\n        /* \".deps/github/Uniswap/v3-periphery/contracts/lens/QuoterV2.sol\":2214:2402  amount0Delta > 0... */\n      jump(tag_134)\n    tag_133:\n        /* \".deps/github/Uniswap/v3-periphery/contracts/lens/QuoterV2.sol\":2260:2268  tokenOut */\n      dup5\n        /* \".deps/github/Uniswap/v3-periphery/contracts/lens/QuoterV2.sol\":2250:2268  tokenIn < tokenOut */\n      0xffffffffffffffffffffffffffffffffffffffff\n      and\n        /* \".deps/github/Uniswap/v3-periphery/contracts/lens/QuoterV2.sol\":2250:2257  tokenIn */\n      dup7\n        /* \".deps/github/Uniswap/v3-periphery/contracts/lens/QuoterV2.sol\":2250:2268  tokenIn < tokenOut */\n      0xffffffffffffffffffffffffffffffffffffffff\n      and\n      lt\n        /* \".deps/github/Uniswap/v3-periphery/contracts/lens/QuoterV2.sol\":2278:2290  amount0Delta */\n      dup10\n        /* \".deps/github/Uniswap/v3-periphery/contracts/lens/QuoterV2.sol\":2302:2314  amount1Delta */\n      dup10\n        /* \".deps/github/Uniswap/v3-periphery/contracts/lens/QuoterV2.sol\":2301:2314  -amount1Delta */\n      0x00\n      sub\n        /* \".deps/github/Uniswap/v3-periphery/contracts/lens/QuoterV2.sol\":2214:2402  amount0Delta > 0... */\n    tag_134:\n        /* \".deps/github/Uniswap/v3-periphery/contracts/lens/QuoterV2.sol\":2135:2402  (bool isExactInput, uint256 amountToPay, uint256 amountReceived) =... */\n      swap3\n      pop\n      swap3\n      pop\n      swap3\n      pop\n        /* \".deps/github/Uniswap/v3-periphery/contracts/lens/QuoterV2.sol\":2413:2432  IUniswapV3Pool pool */\n      0x00\n        /* \".deps/github/Uniswap/v3-periphery/contracts/lens/QuoterV2.sol\":2435:2466  getPool(tokenIn, tokenOut, fee) */\n      tag_135\n        /* \".deps/github/Uniswap/v3-periphery/contracts/lens/QuoterV2.sol\":2443:2450  tokenIn */\n      dup8\n        /* \".deps/github/Uniswap/v3-periphery/contracts/lens/QuoterV2.sol\":2452:2460  tokenOut */\n      dup8\n        /* \".deps/github/Uniswap/v3-periphery/contracts/lens/QuoterV2.sol\":2462:2465  fee */\n      dup8\n        /* \".deps/github/Uniswap/v3-periphery/contracts/lens/QuoterV2.sol\":2435:2442  getPool */\n      tag_66\n        /* \".deps/github/Uniswap/v3-periphery/contracts/lens/QuoterV2.sol\":2435:2466  getPool(tokenIn, tokenOut, fee) */\n      jump\t// in\n    tag_135:\n        /* \".deps/github/Uniswap/v3-periphery/contracts/lens/QuoterV2.sol\":2413:2466  IUniswapV3Pool pool = getPool(tokenIn, tokenOut, fee) */\n      swap1\n      pop\n        /* \".deps/github/Uniswap/v3-periphery/contracts/lens/QuoterV2.sol\":2477:2502  uint160 sqrtPriceX96After */\n      0x00\n        /* \".deps/github/Uniswap/v3-periphery/contracts/lens/QuoterV2.sol\":2504:2519  int24 tickAfter */\n      dup1\n        /* \".deps/github/Uniswap/v3-periphery/contracts/lens/QuoterV2.sol\":2533:2537  pool */\n      dup3\n        /* \".deps/github/Uniswap/v3-periphery/contracts/lens/QuoterV2.sol\":2533:2543  pool.slot0 */\n      0xffffffffffffffffffffffffffffffffffffffff\n      and\n      0x3850c7bd\n        /* \".deps/github/Uniswap/v3-periphery/contracts/lens/QuoterV2.sol\":2533:2545  pool.slot0() */\n      mload(0x40)\n      dup2\n      0xffffffff\n      and\n      0xe0\n      shl\n      dup2\n      mstore\n      0x04\n      add\n      0xe0\n      mload(0x40)\n      dup1\n      dup4\n      sub\n      dup2\n      dup7\n      dup1\n      extcodesize\n      iszero\n      dup1\n      iszero\n      tag_136\n      jumpi\n      0x00\n      dup1\n      revert\n    tag_136:\n      pop\n      gas\n      staticcall\n      iszero\n      dup1\n      iszero\n      tag_138\n      jumpi\n      returndatasize\n      0x00\n      dup1\n      returndatacopy\n      revert(0x00, returndatasize)\n    tag_138:\n      pop\n      pop\n      pop\n      pop\n      mload(0x40)\n      returndatasize\n      not(0x1f)\n      0x1f\n      dup3\n      add\n      and\n      dup3\n      add\n      dup1\n      0x40\n      mstore\n      pop\n      dup2\n      add\n      swap1\n      tag_139\n      swap2\n      swap1\n      tag_140\n      jump\t// in\n    tag_139:\n        /* \".deps/github/Uniswap/v3-periphery/contracts/lens/QuoterV2.sol\":2476:2545  (uint160 sqrtPriceX96After, int24 tickAfter, , , , , ) = pool.slot0() */\n      pop\n      pop\n      pop\n      pop\n      pop\n      swap2\n      pop\n      swap2\n      pop\n        /* \".deps/github/Uniswap/v3-periphery/contracts/lens/QuoterV2.sol\":2560:2572  isExactInput */\n      dup6\n        /* \".deps/github/Uniswap/v3-periphery/contracts/lens/QuoterV2.sol\":2556:3302  if (isExactInput) {... */\n      iszero\n      tag_141\n      jumpi\n        /* \".deps/github/Uniswap/v3-periphery/contracts/lens/QuoterV2.sol\":2632:2636  0x40 */\n      0x40\n        /* \".deps/github/Uniswap/v3-periphery/contracts/lens/QuoterV2.sol\":2626:2637  mload(0x40) */\n      mload\n        /* \".deps/github/Uniswap/v3-periphery/contracts/lens/QuoterV2.sol\":2666:2680  amountReceived */\n      dup5\n        /* \".deps/github/Uniswap/v3-periphery/contracts/lens/QuoterV2.sol\":2661:2664  ptr */\n      dup2\n        /* \".deps/github/Uniswap/v3-periphery/contracts/lens/QuoterV2.sol\":2654:2681  mstore(ptr, amountReceived) */\n      mstore\n        /* \".deps/github/Uniswap/v3-periphery/contracts/lens/QuoterV2.sol\":2721:2738  sqrtPriceX96After */\n      dup3\n        /* \".deps/github/Uniswap/v3-periphery/contracts/lens/QuoterV2.sol\":2714:2718  0x20 */\n      0x20\n        /* \".deps/github/Uniswap/v3-periphery/contracts/lens/QuoterV2.sol\":2709:2712  ptr */\n      dup3\n        /* \".deps/github/Uniswap/v3-periphery/contracts/lens/QuoterV2.sol\":2705:2719  add(ptr, 0x20) */\n      add\n        /* \".deps/github/Uniswap/v3-periphery/contracts/lens/QuoterV2.sol\":2698:2739  mstore(add(ptr, 0x20), sqrtPriceX96After) */\n      mstore\n        /* \".deps/github/Uniswap/v3-periphery/contracts/lens/QuoterV2.sol\":2779:2788  tickAfter */\n      dup2\n        /* \".deps/github/Uniswap/v3-periphery/contracts/lens/QuoterV2.sol\":2772:2776  0x40 */\n      0x40\n        /* \".deps/github/Uniswap/v3-periphery/contracts/lens/QuoterV2.sol\":2767:2770  ptr */\n      dup3\n        /* \".deps/github/Uniswap/v3-periphery/contracts/lens/QuoterV2.sol\":2763:2777  add(ptr, 0x40) */\n      add\n        /* \".deps/github/Uniswap/v3-periphery/contracts/lens/QuoterV2.sol\":2756:2789  mstore(add(ptr, 0x40), tickAfter) */\n      mstore\n        /* \".deps/github/Uniswap/v3-periphery/contracts/lens/QuoterV2.sol\":2818:2820  96 */\n      0x60\n        /* \".deps/github/Uniswap/v3-periphery/contracts/lens/QuoterV2.sol\":2813:2816  ptr */\n      dup2\n        /* \".deps/github/Uniswap/v3-periphery/contracts/lens/QuoterV2.sol\":2806:2821  revert(ptr, 96) */\n      revert\n        /* \".deps/github/Uniswap/v3-periphery/contracts/lens/QuoterV2.sol\":2597:2835  {... */\n    tag_141:\n        /* \".deps/github/Uniswap/v3-periphery/contracts/lens/QuoterV2.sol\":2989:2990  0 */\n      0x00\n        /* \".deps/github/Uniswap/v3-periphery/contracts/lens/QuoterV2.sol\":2970:2985  amountOutCached */\n      dup1\n      sload\n        /* \".deps/github/Uniswap/v3-periphery/contracts/lens/QuoterV2.sol\":2970:2990  amountOutCached != 0 */\n      eq\n        /* \".deps/github/Uniswap/v3-periphery/contracts/lens/QuoterV2.sol\":2966:3034  if (amountOutCached != 0) require(amountReceived == amountOutCached) */\n      tag_143\n      jumpi\n        /* \".deps/github/Uniswap/v3-periphery/contracts/lens/QuoterV2.sol\":3018:3033  amountOutCached */\n      sload(0x00)\n        /* \".deps/github/Uniswap/v3-periphery/contracts/lens/QuoterV2.sol\":3000:3014  amountReceived */\n      dup5\n        /* \".deps/github/Uniswap/v3-periphery/contracts/lens/QuoterV2.sol\":3000:3033  amountReceived == amountOutCached */\n      eq\n        /* \".deps/github/Uniswap/v3-periphery/contracts/lens/QuoterV2.sol\":2992:3034  require(amountReceived == amountOutCached) */\n      tag_144\n      jumpi\n      0x00\n      dup1\n      revert\n    tag_144:\n        /* \".deps/github/Uniswap/v3-periphery/contracts/lens/QuoterV2.sol\":2966:3034  if (amountOutCached != 0) require(amountReceived == amountOutCached) */\n    tag_143:\n        /* \".deps/github/Uniswap/v3-periphery/contracts/lens/QuoterV2.sol\":3092:3096  0x40 */\n      0x40\n        /* \".deps/github/Uniswap/v3-periphery/contracts/lens/QuoterV2.sol\":3086:3097  mload(0x40) */\n      mload\n        /* \".deps/github/Uniswap/v3-periphery/contracts/lens/QuoterV2.sol\":3126:3137  amountToPay */\n      dup6\n        /* \".deps/github/Uniswap/v3-periphery/contracts/lens/QuoterV2.sol\":3121:3124  ptr */\n      dup2\n        /* \".deps/github/Uniswap/v3-periphery/contracts/lens/QuoterV2.sol\":3114:3138  mstore(ptr, amountToPay) */\n      mstore\n        /* \".deps/github/Uniswap/v3-periphery/contracts/lens/QuoterV2.sol\":3178:3195  sqrtPriceX96After */\n      dup3\n        /* \".deps/github/Uniswap/v3-periphery/contracts/lens/QuoterV2.sol\":3171:3175  0x20 */\n      0x20\n        /* \".deps/github/Uniswap/v3-periphery/contracts/lens/QuoterV2.sol\":3166:3169  ptr */\n      dup3\n        /* \".deps/github/Uniswap/v3-periphery/contracts/lens/QuoterV2.sol\":3162:3176  add(ptr, 0x20) */\n      add\n        /* \".deps/github/Uniswap/v3-periphery/contracts/lens/QuoterV2.sol\":3155:3196  mstore(add(ptr, 0x20), sqrtPriceX96After) */\n      mstore\n        /* \".deps/github/Uniswap/v3-periphery/contracts/lens/QuoterV2.sol\":3236:3245  tickAfter */\n      dup2\n        /* \".deps/github/Uniswap/v3-periphery/contracts/lens/QuoterV2.sol\":3229:3233  0x40 */\n      0x40\n        /* \".deps/github/Uniswap/v3-periphery/contracts/lens/QuoterV2.sol\":3224:3227  ptr */\n      dup3\n        /* \".deps/github/Uniswap/v3-periphery/contracts/lens/QuoterV2.sol\":3220:3234  add(ptr, 0x40) */\n      add\n        /* \".deps/github/Uniswap/v3-periphery/contracts/lens/QuoterV2.sol\":3213:3246  mstore(add(ptr, 0x40), tickAfter) */\n      mstore\n        /* \".deps/github/Uniswap/v3-periphery/contracts/lens/QuoterV2.sol\":3275:3277  96 */\n      0x60\n        /* \".deps/github/Uniswap/v3-periphery/contracts/lens/QuoterV2.sol\":3270:3273  ptr */\n      dup2\n        /* \".deps/github/Uniswap/v3-periphery/contracts/lens/QuoterV2.sol\":3263:3278  revert(ptr, 96) */\n      revert\n        /* \".deps/github/Uniswap/v3-periphery/contracts/libraries/Path.sol\":1282:1517  function numPools(bytes memory path) internal pure returns (uint256) {... */\n    tag_45:\n        /* \".deps/github/Uniswap/v3-periphery/contracts/libraries/Path.sol\":1342:1349  uint256 */\n      0x00\n        /* \".deps/github/Uniswap/v3-periphery/contracts/libraries/Path.sol\":397:398  3 */\n      0x03\n        /* \".deps/github/Uniswap/v3-periphery/contracts/libraries/Path.sol\":304:306  20 */\n      0x14\n        /* \".deps/github/Uniswap/v3-periphery/contracts/libraries/Path.sol\":507:527  ADDR_SIZE + FEE_SIZE */\n      add\n        /* \".deps/github/Uniswap/v3-periphery/contracts/libraries/Path.sol\":304:306  20 */\n      0x14\n        /* \".deps/github/Uniswap/v3-periphery/contracts/libraries/Path.sol\":1471:1475  path */\n      dup4\n        /* \".deps/github/Uniswap/v3-periphery/contracts/libraries/Path.sol\":1471:1482  path.length */\n      mload\n        /* \".deps/github/Uniswap/v3-periphery/contracts/libraries/Path.sol\":1471:1494  path.length - ADDR_SIZE */\n      sub\n        /* \".deps/github/Uniswap/v3-periphery/contracts/libraries/Path.sol\":1470:1509  (path.length - ADDR_SIZE) / NEXT_OFFSET */\n      dup2\n      tag_146\n      jumpi\n      invalid\n    tag_146:\n      div\n        /* \".deps/github/Uniswap/v3-periphery/contracts/libraries/Path.sol\":1462:1510  return ((path.length - ADDR_SIZE) / NEXT_OFFSET) */\n      swap1\n      pop\n        /* \".deps/github/Uniswap/v3-periphery/contracts/libraries/Path.sol\":1282:1517  function numPools(bytes memory path) internal pure returns (uint256) {... */\n      swap2\n      swap1\n      pop\n      jump\t// out\n        /* \".deps/github/Uniswap/v3-periphery/contracts/libraries/Path.sol\":1779:2093  function decodeFirstPool(bytes memory path)... */\n    tag_54:\n        /* \".deps/github/Uniswap/v3-periphery/contracts/libraries/Path.sol\":1883:1897  address tokenA */\n      0x00\n        /* \".deps/github/Uniswap/v3-periphery/contracts/libraries/Path.sol\":1911:1925  address tokenB */\n      dup1\n        /* \".deps/github/Uniswap/v3-periphery/contracts/libraries/Path.sol\":1939:1949  uint24 fee */\n      0x00\n        /* \".deps/github/Uniswap/v3-periphery/contracts/libraries/Path.sol\":1983:2000  path.toAddress(0) */\n      tag_148\n        /* \".deps/github/Uniswap/v3-periphery/contracts/libraries/Path.sol\":1998:1999  0 */\n      0x00\n        /* \".deps/github/Uniswap/v3-periphery/contracts/libraries/Path.sol\":1983:1987  path */\n      dup6\n        /* \".deps/github/Uniswap/v3-periphery/contracts/libraries/Path.sol\":1983:1997  path.toAddress */\n      tag_149\n      swap1\n        /* \".deps/github/Uniswap/v3-periphery/contracts/libraries/Path.sol\":1983:2000  path.toAddress(0) */\n      swap2\n      swap1\n      0xffffffff\n      and\n      jump\t// in\n    tag_148:\n        /* \".deps/github/Uniswap/v3-periphery/contracts/libraries/Path.sol\":1974:2000  tokenA = path.toAddress(0) */\n      swap3\n      pop\n        /* \".deps/github/Uniswap/v3-periphery/contracts/libraries/Path.sol\":2016:2040  path.toUint24(ADDR_SIZE) */\n      tag_150\n        /* \".deps/github/Uniswap/v3-periphery/contracts/libraries/Path.sol\":304:306  20 */\n      0x14\n        /* \".deps/github/Uniswap/v3-periphery/contracts/libraries/Path.sol\":2016:2020  path */\n      dup6\n        /* \".deps/github/Uniswap/v3-periphery/contracts/libraries/Path.sol\":2016:2029  path.toUint24 */\n      tag_151\n      swap1\n        /* \".deps/github/Uniswap/v3-periphery/contracts/libraries/Path.sol\":2016:2040  path.toUint24(ADDR_SIZE) */\n      swap2\n      swap1\n      0xffffffff\n      and\n      jump\t// in\n    tag_150:\n        /* \".deps/github/Uniswap/v3-periphery/contracts/libraries/Path.sol\":2010:2040  fee = path.toUint24(ADDR_SIZE) */\n      swap1\n      pop\n        /* \".deps/github/Uniswap/v3-periphery/contracts/libraries/Path.sol\":2059:2086  path.toAddress(NEXT_OFFSET) */\n      tag_152\n        /* \".deps/github/Uniswap/v3-periphery/contracts/libraries/Path.sol\":397:398  3 */\n      0x03\n        /* \".deps/github/Uniswap/v3-periphery/contracts/libraries/Path.sol\":304:306  20 */\n      0x14\n        /* \".deps/github/Uniswap/v3-periphery/contracts/libraries/Path.sol\":507:527  ADDR_SIZE + FEE_SIZE */\n      add\n        /* \".deps/github/Uniswap/v3-periphery/contracts/libraries/Path.sol\":2059:2063  path */\n      dup6\n        /* \".deps/github/Uniswap/v3-periphery/contracts/libraries/Path.sol\":2059:2073  path.toAddress */\n      tag_149\n      swap1\n        /* \".deps/github/Uniswap/v3-periphery/contracts/libraries/Path.sol\":2059:2086  path.toAddress(NEXT_OFFSET) */\n      swap2\n      swap1\n      0xffffffff\n      and\n      jump\t// in\n    tag_152:\n        /* \".deps/github/Uniswap/v3-periphery/contracts/libraries/Path.sol\":2050:2086  tokenB = path.toAddress(NEXT_OFFSET) */\n      swap2\n      pop\n        /* \".deps/github/Uniswap/v3-periphery/contracts/libraries/Path.sol\":1779:2093  function decodeFirstPool(bytes memory path)... */\n      swap2\n      swap4\n      swap1\n      swap3\n      pop\n      jump\t// out\n        /* \".deps/github/Uniswap/v3-periphery/contracts/libraries/Path.sol\":992:1130  function hasMultiplePools(bytes memory path) internal pure returns (bool) {... */\n    tag_59:\n        /* \".deps/github/Uniswap/v3-periphery/contracts/libraries/Path.sol\":1060:1064  bool */\n      0x00\n        /* \".deps/github/Uniswap/v3-periphery/contracts/libraries/Path.sol\":397:398  3 */\n      0x03\n        /* \".deps/github/Uniswap/v3-periphery/contracts/libraries/Path.sol\":304:306  20 */\n      0x14\n        /* \".deps/github/Uniswap/v3-periphery/contracts/libraries/Path.sol\":507:527  ADDR_SIZE + FEE_SIZE */\n      add\n        /* \".deps/github/Uniswap/v3-periphery/contracts/libraries/Path.sol\":304:306  20 */\n      0x14\n        /* \".deps/github/Uniswap/v3-periphery/contracts/libraries/Path.sol\":397:398  3 */\n      0x03\n        /* \".deps/github/Uniswap/v3-periphery/contracts/libraries/Path.sol\":304:306  20 */\n      0x14\n        /* \".deps/github/Uniswap/v3-periphery/contracts/libraries/Path.sol\":507:527  ADDR_SIZE + FEE_SIZE */\n      add\n        /* \".deps/github/Uniswap/v3-periphery/contracts/libraries/Path.sol\":618:641  NEXT_OFFSET + ADDR_SIZE */\n      add\n        /* \".deps/github/Uniswap/v3-periphery/contracts/libraries/Path.sol\":777:801  POP_OFFSET + NEXT_OFFSET */\n      add\n        /* \".deps/github/Uniswap/v3-periphery/contracts/libraries/Path.sol\":1083:1087  path */\n      dup3\n        /* \".deps/github/Uniswap/v3-periphery/contracts/libraries/Path.sol\":1083:1094  path.length */\n      mload\n        /* \".deps/github/Uniswap/v3-periphery/contracts/libraries/Path.sol\":1083:1123  path.length >= MULTIPLE_POOLS_MIN_LENGTH */\n      lt\n      iszero\n        /* \".deps/github/Uniswap/v3-periphery/contracts/libraries/Path.sol\":1076:1123  return path.length >= MULTIPLE_POOLS_MIN_LENGTH */\n      swap1\n      pop\n        /* \".deps/github/Uniswap/v3-periphery/contracts/libraries/Path.sol\":992:1130  function hasMultiplePools(bytes memory path) internal pure returns (bool) {... */\n      swap2\n      swap1\n      pop\n      jump\t// out\n        /* \".deps/github/Uniswap/v3-periphery/contracts/libraries/Path.sol\":2635:2784  function skipToken(bytes memory path) internal pure returns (bytes memory) {... */\n    tag_62:\n        /* \".deps/github/Uniswap/v3-periphery/contracts/libraries/Path.sol\":2696:2708  bytes memory */\n      0x60\n        /* \".deps/github/Uniswap/v3-periphery/contracts/libraries/Path.sol\":2727:2777  path.slice(NEXT_OFFSET, path.length - NEXT_OFFSET) */\n      tag_155\n        /* \".deps/github/Uniswap/v3-periphery/contracts/libraries/Path.sol\":397:398  3 */\n      0x03\n        /* \".deps/github/Uniswap/v3-periphery/contracts/libraries/Path.sol\":304:306  20 */\n      0x14\n        /* \".deps/github/Uniswap/v3-periphery/contracts/libraries/Path.sol\":507:527  ADDR_SIZE + FEE_SIZE */\n      add\n        /* \".deps/github/Uniswap/v3-periphery/contracts/libraries/Path.sol\":397:398  3 */\n      0x03\n        /* \".deps/github/Uniswap/v3-periphery/contracts/libraries/Path.sol\":304:306  20 */\n      0x14\n        /* \".deps/github/Uniswap/v3-periphery/contracts/libraries/Path.sol\":507:527  ADDR_SIZE + FEE_SIZE */\n      add\n        /* \".deps/github/Uniswap/v3-periphery/contracts/libraries/Path.sol\":2751:2755  path */\n      dup5\n        /* \".deps/github/Uniswap/v3-periphery/contracts/libraries/Path.sol\":2751:2762  path.length */\n      mload\n        /* \".deps/github/Uniswap/v3-periphery/contracts/libraries/Path.sol\":2751:2776  path.length - NEXT_OFFSET */\n      sub\n        /* \".deps/github/Uniswap/v3-periphery/contracts/libraries/Path.sol\":2727:2731  path */\n      dup5\n        /* \".deps/github/Uniswap/v3-periphery/contracts/libraries/Path.sol\":2727:2737  path.slice */\n      tag_156\n      swap1\n        /* \".deps/github/Uniswap/v3-periphery/contracts/libraries/Path.sol\":2727:2777  path.slice(NEXT_OFFSET, path.length - NEXT_OFFSET) */\n      swap3\n      swap2\n      swap1\n      0xffffffff\n      and\n      jump\t// in\n    tag_155:\n        /* \".deps/github/Uniswap/v3-periphery/contracts/libraries/Path.sol\":2720:2777  return path.slice(NEXT_OFFSET, path.length - NEXT_OFFSET) */\n      swap1\n      pop\n        /* \".deps/github/Uniswap/v3-periphery/contracts/libraries/Path.sol\":2635:2784  function skipToken(bytes memory path) internal pure returns (bytes memory) {... */\n      swap2\n      swap1\n      pop\n      jump\t// out\n        /* \".deps/github/Uniswap/v3-periphery/contracts/lens/QuoterV2.sol\":1405:1654  function getPool(... */\n    tag_66:\n        /* \".deps/github/Uniswap/v3-periphery/contracts/lens/QuoterV2.sol\":1518:1532  IUniswapV3Pool */\n      0x00\n        /* \".deps/github/Uniswap/v3-periphery/contracts/lens/QuoterV2.sol\":1566:1646  PoolAddress.computeAddress(factory, PoolAddress.getPoolKey(tokenA, tokenB, fee)) */\n      tag_158\n        /* \".deps/github/Uniswap/v3-periphery/contracts/lens/QuoterV2.sol\":1593:1600  factory */\n      immutable(\"0xd2f8f61201b2b11a78d6e866abc9c3db2ae8631fa656bfe5cb53668255367afb\")\n        /* \".deps/github/Uniswap/v3-periphery/contracts/lens/QuoterV2.sol\":1602:1645  PoolAddress.getPoolKey(tokenA, tokenB, fee) */\n      tag_159\n        /* \".deps/github/Uniswap/v3-periphery/contracts/lens/QuoterV2.sol\":1625:1631  tokenA */\n      dup7\n        /* \".deps/github/Uniswap/v3-periphery/contracts/lens/QuoterV2.sol\":1633:1639  tokenB */\n      dup7\n        /* \".deps/github/Uniswap/v3-periphery/contracts/lens/QuoterV2.sol\":1641:1644  fee */\n      dup7\n        /* \".deps/github/Uniswap/v3-periphery/contracts/lens/QuoterV2.sol\":1602:1624  PoolAddress.getPoolKey */\n      tag_160\n        /* \".deps/github/Uniswap/v3-periphery/contracts/lens/QuoterV2.sol\":1602:1645  PoolAddress.getPoolKey(tokenA, tokenB, fee) */\n      jump\t// in\n    tag_159:\n        /* \".deps/github/Uniswap/v3-periphery/contracts/lens/QuoterV2.sol\":1566:1592  PoolAddress.computeAddress */\n      tag_161\n        /* \".deps/github/Uniswap/v3-periphery/contracts/lens/QuoterV2.sol\":1566:1646  PoolAddress.computeAddress(factory, PoolAddress.getPoolKey(tokenA, tokenB, fee)) */\n      jump\t// in\n    tag_158:\n        /* \".deps/github/Uniswap/v3-periphery/contracts/lens/QuoterV2.sol\":1544:1647  return IUniswapV3Pool(PoolAddress.computeAddress(factory, PoolAddress.getPoolKey(tokenA, tokenB, fee))) */\n      swap1\n      pop\n        /* \".deps/github/Uniswap/v3-periphery/contracts/lens/QuoterV2.sol\":1405:1654  function getPool(... */\n      swap4\n      swap3\n      pop\n      pop\n      pop\n      jump\t// out\n        /* \"@uniswap/v3-core/contracts/libraries/SafeCast.sol\":924:1045  function toInt256(uint256 y) internal pure returns (int256 z) {... */\n    tag_69:\n        /* \"@uniswap/v3-core/contracts/libraries/SafeCast.sol\":976:984  int256 z */\n      0x00\n        /* \"@uniswap/v3-core/contracts/libraries/SafeCast.sol\":1008:1014  2**255 */\n      0x8000000000000000000000000000000000000000000000000000000000000000\n        /* \"@uniswap/v3-core/contracts/libraries/SafeCast.sol\":1004:1005  y */\n      dup3\n        /* \"@uniswap/v3-core/contracts/libraries/SafeCast.sol\":1004:1014  y < 2**255 */\n      lt\n        /* \"@uniswap/v3-core/contracts/libraries/SafeCast.sol\":996:1015  require(y < 2**255) */\n      tag_163\n      jumpi\n      0x00\n      dup1\n      revert\n    tag_163:\n        /* \"@uniswap/v3-core/contracts/libraries/SafeCast.sol\":1036:1037  y */\n      dup2\n        /* \"@uniswap/v3-core/contracts/libraries/SafeCast.sol\":1025:1038  z = int256(y) */\n      swap1\n      pop\n        /* \"@uniswap/v3-core/contracts/libraries/SafeCast.sol\":924:1045  function toInt256(uint256 y) internal pure returns (int256 z) {... */\n      swap2\n      swap1\n      pop\n      jump\t// out\n        /* \".deps/github/Uniswap/v3-periphery/contracts/lens/QuoterV2.sol\":3907:4573  function handleRevert(... */\n    tag_89:\n        /* \".deps/github/Uniswap/v3-periphery/contracts/lens/QuoterV2.sol\":4081:4095  uint256 amount */\n      0x00\n        /* \".deps/github/Uniswap/v3-periphery/contracts/lens/QuoterV2.sol\":4109:4134  uint160 sqrtPriceX96After */\n      dup1\n        /* \".deps/github/Uniswap/v3-periphery/contracts/lens/QuoterV2.sol\":4148:4178  uint32 initializedTicksCrossed */\n      0x00\n        /* \".deps/github/Uniswap/v3-periphery/contracts/lens/QuoterV2.sol\":4192:4199  uint256 */\n      dup1\n        /* \".deps/github/Uniswap/v3-periphery/contracts/lens/QuoterV2.sol\":4224:4240  int24 tickBefore */\n      0x00\n        /* \".deps/github/Uniswap/v3-periphery/contracts/lens/QuoterV2.sol\":4250:4265  int24 tickAfter */\n      dup1\n        /* \".deps/github/Uniswap/v3-periphery/contracts/lens/QuoterV2.sol\":4302:4306  pool */\n      dup8\n        /* \".deps/github/Uniswap/v3-periphery/contracts/lens/QuoterV2.sol\":4302:4312  pool.slot0 */\n      0xffffffffffffffffffffffffffffffffffffffff\n      and\n      0x3850c7bd\n        /* \".deps/github/Uniswap/v3-periphery/contracts/lens/QuoterV2.sol\":4302:4314  pool.slot0() */\n      mload(0x40)\n      dup2\n      0xffffffff\n      and\n      0xe0\n      shl\n      dup2\n      mstore\n      0x04\n      add\n      0xe0\n      mload(0x40)\n      dup1\n      dup4\n      sub\n      dup2\n      dup7\n      dup1\n      extcodesize\n      iszero\n      dup1\n      iszero\n      tag_165\n      jumpi\n      0x00\n      dup1\n      revert\n    tag_165:\n      pop\n      gas\n      staticcall\n      iszero\n      dup1\n      iszero\n      tag_167\n      jumpi\n      returndatasize\n      0x00\n      dup1\n      returndatacopy\n      revert(0x00, returndatasize)\n    tag_167:\n      pop\n      pop\n      pop\n      pop\n      mload(0x40)\n      returndatasize\n      not(0x1f)\n      0x1f\n      dup3\n      add\n      and\n      dup3\n      add\n      dup1\n      0x40\n      mstore\n      pop\n      dup2\n      add\n      swap1\n      tag_168\n      swap2\n      swap1\n      tag_140\n      jump\t// in\n    tag_168:\n        /* \".deps/github/Uniswap/v3-periphery/contracts/lens/QuoterV2.sol\":4275:4314  (, tickBefore, , , , , ) = pool.slot0() */\n      swap1\n      swap2\n      swap3\n      swap4\n      swap5\n      swap6\n      pop\n      swap1\n      swap2\n      swap3\n      swap4\n      pop\n      swap1\n      swap2\n      swap3\n      pop\n      swap1\n      swap2\n      pop\n      swap1\n      pop\n      pop\n      dup1\n      swap3\n      pop\n      pop\n        /* \".deps/github/Uniswap/v3-periphery/contracts/lens/QuoterV2.sol\":4365:4390  parseRevertReason(reason) */\n      tag_169\n        /* \".deps/github/Uniswap/v3-periphery/contracts/lens/QuoterV2.sol\":4383:4389  reason */\n      dup10\n        /* \".deps/github/Uniswap/v3-periphery/contracts/lens/QuoterV2.sol\":4365:4382  parseRevertReason */\n      tag_170\n        /* \".deps/github/Uniswap/v3-periphery/contracts/lens/QuoterV2.sol\":4365:4390  parseRevertReason(reason) */\n      jump\t// in\n    tag_169:\n        /* \".deps/github/Uniswap/v3-periphery/contracts/lens/QuoterV2.sol\":4324:4390  (amount, sqrtPriceX96After, tickAfter) = parseRevertReason(reason) */\n      dup1\n      swap4\n      pop\n      dup2\n      swap8\n      pop\n      dup3\n      swap9\n      pop\n      pop\n      pop\n      pop\n        /* \".deps/github/Uniswap/v3-periphery/contracts/lens/QuoterV2.sol\":4427:4483  pool.countInitializedTicksCrossed(tickBefore, tickAfter) */\n      tag_171\n        /* \".deps/github/Uniswap/v3-periphery/contracts/lens/QuoterV2.sol\":4461:4471  tickBefore */\n      dup3\n        /* \".deps/github/Uniswap/v3-periphery/contracts/lens/QuoterV2.sol\":4473:4482  tickAfter */\n      dup3\n        /* \".deps/github/Uniswap/v3-periphery/contracts/lens/QuoterV2.sol\":4427:4431  pool */\n      dup11\n        /* \".deps/github/Uniswap/v3-periphery/contracts/lens/QuoterV2.sol\":4427:4460  pool.countInitializedTicksCrossed */\n      0xffffffffffffffffffffffffffffffffffffffff\n      and\n      tag_172\n      swap1\n        /* \".deps/github/Uniswap/v3-periphery/contracts/lens/QuoterV2.sol\":4427:4483  pool.countInitializedTicksCrossed(tickBefore, tickAfter) */\n      swap3\n      swap2\n      swap1\n      0xffffffff\n      and\n      jump\t// in\n    tag_171:\n        /* \".deps/github/Uniswap/v3-periphery/contracts/lens/QuoterV2.sol\":4401:4483  initializedTicksCrossed = pool.countInitializedTicksCrossed(tickBefore, tickAfter) */\n      swap4\n      pop\n        /* \".deps/github/Uniswap/v3-periphery/contracts/lens/QuoterV2.sol\":4502:4508  amount */\n      dup6\n        /* \".deps/github/Uniswap/v3-periphery/contracts/lens/QuoterV2.sol\":4510:4527  sqrtPriceX96After */\n      dup6\n        /* \".deps/github/Uniswap/v3-periphery/contracts/lens/QuoterV2.sol\":4529:4552  initializedTicksCrossed */\n      dup6\n        /* \".deps/github/Uniswap/v3-periphery/contracts/lens/QuoterV2.sol\":4554:4565  gasEstimate */\n      dup10\n        /* \".deps/github/Uniswap/v3-periphery/contracts/lens/QuoterV2.sol\":4494:4566  return (amount, sqrtPriceX96After, initializedTicksCrossed, gasEstimate) */\n      swap6\n      pop\n      swap6\n      pop\n      swap6\n      pop\n      swap6\n      pop\n      pop\n      pop\n        /* \".deps/github/Uniswap/v3-periphery/contracts/lens/QuoterV2.sol\":3907:4573  function handleRevert(... */\n      swap4\n      pop\n      swap4\n      pop\n      swap4\n      pop\n      swap4\n      jump\t// out\n        /* \".deps/github/Uniswap/v3-periphery/contracts/libraries/CallbackValidation.sol\":683:942  function verifyCallback(... */\n    tag_132:\n        /* \".deps/github/Uniswap/v3-periphery/contracts/libraries/CallbackValidation.sol\":829:848  IUniswapV3Pool pool */\n      0x00\n        /* \".deps/github/Uniswap/v3-periphery/contracts/libraries/CallbackValidation.sol\":867:935  verifyCallback(factory, PoolAddress.getPoolKey(tokenA, tokenB, fee)) */\n      tag_174\n        /* \".deps/github/Uniswap/v3-periphery/contracts/libraries/CallbackValidation.sol\":882:889  factory */\n      dup6\n        /* \".deps/github/Uniswap/v3-periphery/contracts/libraries/CallbackValidation.sol\":891:934  PoolAddress.getPoolKey(tokenA, tokenB, fee) */\n      tag_175\n        /* \".deps/github/Uniswap/v3-periphery/contracts/libraries/CallbackValidation.sol\":914:920  tokenA */\n      dup7\n        /* \".deps/github/Uniswap/v3-periphery/contracts/libraries/CallbackValidation.sol\":922:928  tokenB */\n      dup7\n        /* \".deps/github/Uniswap/v3-periphery/contracts/libraries/CallbackValidation.sol\":930:933  fee */\n      dup7\n        /* \".deps/github/Uniswap/v3-periphery/contracts/libraries/CallbackValidation.sol\":891:913  PoolAddress.getPoolKey */\n      tag_160\n        /* \".deps/github/Uniswap/v3-periphery/contracts/libraries/CallbackValidation.sol\":891:934  PoolAddress.getPoolKey(tokenA, tokenB, fee) */\n      jump\t// in\n    tag_175:\n        /* \".deps/github/Uniswap/v3-periphery/contracts/libraries/CallbackValidation.sol\":867:881  verifyCallback */\n      tag_176\n        /* \".deps/github/Uniswap/v3-periphery/contracts/libraries/CallbackValidation.sol\":867:935  verifyCallback(factory, PoolAddress.getPoolKey(tokenA, tokenB, fee)) */\n      jump\t// in\n    tag_174:\n        /* \".deps/github/Uniswap/v3-periphery/contracts/libraries/CallbackValidation.sol\":860:935  return verifyCallback(factory, PoolAddress.getPoolKey(tokenA, tokenB, fee)) */\n      swap1\n      pop\n        /* \".deps/github/Uniswap/v3-periphery/contracts/libraries/CallbackValidation.sol\":683:942  function verifyCallback(... */\n      swap5\n      swap4\n      pop\n      pop\n      pop\n      pop\n      jump\t// out\n        /* \".deps/github/Uniswap/v3-periphery/contracts/libraries/BytesLib.sol\":3412:3828  function toAddress(bytes memory _bytes, uint256 _start) internal pure returns (address) {... */\n    tag_149:\n        /* \".deps/github/Uniswap/v3-periphery/contracts/libraries/BytesLib.sol\":3491:3498  address */\n      0x00\n        /* \".deps/github/Uniswap/v3-periphery/contracts/libraries/BytesLib.sol\":3533:3539  _start */\n      dup2\n        /* \".deps/github/Uniswap/v3-periphery/contracts/libraries/BytesLib.sol\":3527:3529  20 */\n      0x14\n        /* \".deps/github/Uniswap/v3-periphery/contracts/libraries/BytesLib.sol\":3518:3524  _start */\n      dup4\n        /* \".deps/github/Uniswap/v3-periphery/contracts/libraries/BytesLib.sol\":3518:3529  _start + 20 */\n      add\n        /* \".deps/github/Uniswap/v3-periphery/contracts/libraries/BytesLib.sol\":3518:3539  _start + 20 >= _start */\n      lt\n      iszero\n        /* \".deps/github/Uniswap/v3-periphery/contracts/libraries/BytesLib.sol\":3510:3562  require(_start + 20 >= _start, 'toAddress_overflow') */\n      tag_178\n      jumpi\n      mload(0x40)\n      0x08c379a000000000000000000000000000000000000000000000000000000000\n      dup2\n      mstore\n      0x04\n      add\n      dup1\n      dup1\n      0x20\n      add\n      dup3\n      dup2\n      sub\n      dup3\n      mstore\n      0x12\n      dup2\n      mstore\n      0x20\n      add\n      dup1\n      0x746f416464726573735f6f766572666c6f770000000000000000000000000000\n      dup2\n      mstore\n      pop\n      0x20\n      add\n      swap2\n      pop\n      pop\n      mload(0x40)\n      dup1\n      swap2\n      sub\n      swap1\n      revert\n    tag_178:\n        /* \".deps/github/Uniswap/v3-periphery/contracts/libraries/BytesLib.sol\":3606:3608  20 */\n      0x14\n        /* \".deps/github/Uniswap/v3-periphery/contracts/libraries/BytesLib.sol\":3597:3603  _start */\n      dup3\n        /* \".deps/github/Uniswap/v3-periphery/contracts/libraries/BytesLib.sol\":3597:3608  _start + 20 */\n      add\n        /* \".deps/github/Uniswap/v3-periphery/contracts/libraries/BytesLib.sol\":3580:3586  _bytes */\n      dup4\n        /* \".deps/github/Uniswap/v3-periphery/contracts/libraries/BytesLib.sol\":3580:3593  _bytes.length */\n      mload\n        /* \".deps/github/Uniswap/v3-periphery/contracts/libraries/BytesLib.sol\":3580:3608  _bytes.length >= _start + 20 */\n      lt\n      iszero\n        /* \".deps/github/Uniswap/v3-periphery/contracts/libraries/BytesLib.sol\":3572:3634  require(_bytes.length >= _start + 20, 'toAddress_outOfBounds') */\n      tag_179\n      jumpi\n      mload(0x40)\n      0x08c379a000000000000000000000000000000000000000000000000000000000\n      dup2\n      mstore\n      0x04\n      add\n      dup1\n      dup1\n      0x20\n      add\n      dup3\n      dup2\n      sub\n      dup3\n      mstore\n      0x15\n      dup2\n      mstore\n      0x20\n      add\n      dup1\n      0x746f416464726573735f6f75744f66426f756e64730000000000000000000000\n      dup2\n      mstore\n      pop\n      0x20\n      add\n      swap2\n      pop\n      pop\n      mload(0x40)\n      dup1\n      swap2\n      sub\n      swap1\n      revert\n    tag_179:\n        /* \".deps/github/Uniswap/v3-periphery/contracts/libraries/BytesLib.sol\":3644:3663  address tempAddress */\n      0x00\n        /* \".deps/github/Uniswap/v3-periphery/contracts/libraries/BytesLib.sol\":3755:3782  0x1000000000000000000000000 */\n      0x01000000000000000000000000\n        /* \".deps/github/Uniswap/v3-periphery/contracts/libraries/BytesLib.sol\":3745:3751  _start */\n      dup4\n        /* \".deps/github/Uniswap/v3-periphery/contracts/libraries/BytesLib.sol\":3738:3742  0x20 */\n      0x20\n        /* \".deps/github/Uniswap/v3-periphery/contracts/libraries/BytesLib.sol\":3730:3736  _bytes */\n      dup7\n        /* \".deps/github/Uniswap/v3-periphery/contracts/libraries/BytesLib.sol\":3726:3743  add(_bytes, 0x20) */\n      add\n        /* \".deps/github/Uniswap/v3-periphery/contracts/libraries/BytesLib.sol\":3722:3752  add(add(_bytes, 0x20), _start) */\n      add\n        /* \".deps/github/Uniswap/v3-periphery/contracts/libraries/BytesLib.sol\":3716:3753  mload(add(add(_bytes, 0x20), _start)) */\n      mload\n        /* \".deps/github/Uniswap/v3-periphery/contracts/libraries/BytesLib.sol\":3712:3783  div(mload(add(add(_bytes, 0x20), _start)), 0x1000000000000000000000000) */\n      div\n        /* \".deps/github/Uniswap/v3-periphery/contracts/libraries/BytesLib.sol\":3697:3783  tempAddress := div(mload(add(add(_bytes, 0x20), _start)), 0x1000000000000000000000000) */\n      swap1\n      pop\n        /* \".deps/github/Uniswap/v3-periphery/contracts/libraries/BytesLib.sol\":3810:3821  tempAddress */\n      dup1\n        /* \".deps/github/Uniswap/v3-periphery/contracts/libraries/BytesLib.sol\":3803:3821  return tempAddress */\n      swap2\n      pop\n      pop\n        /* \".deps/github/Uniswap/v3-periphery/contracts/libraries/BytesLib.sol\":3412:3828  function toAddress(bytes memory _bytes, uint256 _start) internal pure returns (address) {... */\n      swap3\n      swap2\n      pop\n      pop\n      jump\t// out\n        /* \".deps/github/Uniswap/v3-periphery/contracts/libraries/BytesLib.sol\":3834:4199  function toUint24(bytes memory _bytes, uint256 _start) internal pure returns (uint24) {... */\n    tag_151:\n        /* \".deps/github/Uniswap/v3-periphery/contracts/libraries/BytesLib.sol\":3912:3918  uint24 */\n      0x00\n        /* \".deps/github/Uniswap/v3-periphery/contracts/libraries/BytesLib.sol\":3952:3958  _start */\n      dup2\n        /* \".deps/github/Uniswap/v3-periphery/contracts/libraries/BytesLib.sol\":3947:3948  3 */\n      0x03\n        /* \".deps/github/Uniswap/v3-periphery/contracts/libraries/BytesLib.sol\":3938:3944  _start */\n      dup4\n        /* \".deps/github/Uniswap/v3-periphery/contracts/libraries/BytesLib.sol\":3938:3948  _start + 3 */\n      add\n        /* \".deps/github/Uniswap/v3-periphery/contracts/libraries/BytesLib.sol\":3938:3958  _start + 3 >= _start */\n      lt\n      iszero\n        /* \".deps/github/Uniswap/v3-periphery/contracts/libraries/BytesLib.sol\":3930:3980  require(_start + 3 >= _start, 'toUint24_overflow') */\n      tag_181\n      jumpi\n      mload(0x40)\n      0x08c379a000000000000000000000000000000000000000000000000000000000\n      dup2\n      mstore\n      0x04\n      add\n      dup1\n      dup1\n      0x20\n      add\n      dup3\n      dup2\n      sub\n      dup3\n      mstore\n      0x11\n      dup2\n      mstore\n      0x20\n      add\n      dup1\n      0x746f55696e7432345f6f766572666c6f77000000000000000000000000000000\n      dup2\n      mstore\n      pop\n      0x20\n      add\n      swap2\n      pop\n      pop\n      mload(0x40)\n      dup1\n      swap2\n      sub\n      swap1\n      revert\n    tag_181:\n        /* \".deps/github/Uniswap/v3-periphery/contracts/libraries/BytesLib.sol\":4024:4025  3 */\n      0x03\n        /* \".deps/github/Uniswap/v3-periphery/contracts/libraries/BytesLib.sol\":4015:4021  _start */\n      dup3\n        /* \".deps/github/Uniswap/v3-periphery/contracts/libraries/BytesLib.sol\":4015:4025  _start + 3 */\n      add\n        /* \".deps/github/Uniswap/v3-periphery/contracts/libraries/BytesLib.sol\":3998:4004  _bytes */\n      dup4\n        /* \".deps/github/Uniswap/v3-periphery/contracts/libraries/BytesLib.sol\":3998:4011  _bytes.length */\n      mload\n        /* \".deps/github/Uniswap/v3-periphery/contracts/libraries/BytesLib.sol\":3998:4025  _bytes.length >= _start + 3 */\n      lt\n      iszero\n        /* \".deps/github/Uniswap/v3-periphery/contracts/libraries/BytesLib.sol\":3990:4050  require(_bytes.length >= _start + 3, 'toUint24_outOfBounds') */\n      tag_182\n      jumpi\n      mload(0x40)\n      0x08c379a000000000000000000000000000000000000000000000000000000000\n      dup2\n      mstore\n      0x04\n      add\n      dup1\n      dup1\n      0x20\n      add\n      dup3\n      dup2\n      sub\n      dup3\n      mstore\n      0x14\n      dup2\n      mstore\n      0x20\n      add\n      dup1\n      0x746f55696e7432345f6f75744f66426f756e6473000000000000000000000000\n      dup2\n      mstore\n      pop\n      0x20\n      add\n      swap2\n      pop\n      pop\n      mload(0x40)\n      dup1\n      swap2\n      sub\n      swap1\n      revert\n    tag_182:\n        /* \".deps/github/Uniswap/v3-periphery/contracts/libraries/BytesLib.sol\":4060:4075  uint24 tempUint */\n      0x00\n        /* \".deps/github/Uniswap/v3-periphery/contracts/libraries/BytesLib.sol\":4149:4155  _start */\n      dup3\n        /* \".deps/github/Uniswap/v3-periphery/contracts/libraries/BytesLib.sol\":4143:4146  0x3 */\n      0x03\n        /* \".deps/github/Uniswap/v3-periphery/contracts/libraries/BytesLib.sol\":4135:4141  _bytes */\n      dup6\n        /* \".deps/github/Uniswap/v3-periphery/contracts/libraries/BytesLib.sol\":4131:4147  add(_bytes, 0x3) */\n      add\n        /* \".deps/github/Uniswap/v3-periphery/contracts/libraries/BytesLib.sol\":4127:4156  add(add(_bytes, 0x3), _start) */\n      add\n        /* \".deps/github/Uniswap/v3-periphery/contracts/libraries/BytesLib.sol\":4121:4157  mload(add(add(_bytes, 0x3), _start)) */\n      mload\n        /* \".deps/github/Uniswap/v3-periphery/contracts/libraries/BytesLib.sol\":4109:4157  tempUint := mload(add(add(_bytes, 0x3), _start)) */\n      swap1\n      pop\n        /* \".deps/github/Uniswap/v3-periphery/contracts/libraries/BytesLib.sol\":4184:4192  tempUint */\n      dup1\n        /* \".deps/github/Uniswap/v3-periphery/contracts/libraries/BytesLib.sol\":4177:4192  return tempUint */\n      swap2\n      pop\n      pop\n        /* \".deps/github/Uniswap/v3-periphery/contracts/libraries/BytesLib.sol\":3834:4199  function toUint24(bytes memory _bytes, uint256 _start) internal pure returns (uint24) {... */\n      swap3\n      swap2\n      pop\n      pop\n      jump\t// out\n        /* \".deps/github/Uniswap/v3-periphery/contracts/libraries/BytesLib.sol\":399:3406  function slice(... */\n    tag_156:\n        /* \".deps/github/Uniswap/v3-periphery/contracts/libraries/BytesLib.sol\":521:533  bytes memory */\n      0x60\n        /* \".deps/github/Uniswap/v3-periphery/contracts/libraries/BytesLib.sol\":569:576  _length */\n      dup2\n        /* \".deps/github/Uniswap/v3-periphery/contracts/libraries/BytesLib.sol\":563:565  31 */\n      0x1f\n        /* \".deps/github/Uniswap/v3-periphery/contracts/libraries/BytesLib.sol\":553:560  _length */\n      dup4\n        /* \".deps/github/Uniswap/v3-periphery/contracts/libraries/BytesLib.sol\":553:565  _length + 31 */\n      add\n        /* \".deps/github/Uniswap/v3-periphery/contracts/libraries/BytesLib.sol\":553:576  _length + 31 >= _length */\n      lt\n      iszero\n        /* \".deps/github/Uniswap/v3-periphery/contracts/libraries/BytesLib.sol\":545:595  require(_length + 31 >= _length, 'slice_overflow') */\n      tag_184\n      jumpi\n      mload(0x40)\n      0x08c379a000000000000000000000000000000000000000000000000000000000\n      dup2\n      mstore\n      0x04\n      add\n      dup1\n      dup1\n      0x20\n      add\n      dup3\n      dup2\n      sub\n      dup3\n      mstore\n      0x0e\n      dup2\n      mstore\n      0x20\n      add\n      dup1\n      0x736c6963655f6f766572666c6f77000000000000000000000000000000000000\n      dup2\n      mstore\n      pop\n      0x20\n      add\n      swap2\n      pop\n      pop\n      mload(0x40)\n      dup1\n      swap2\n      sub\n      swap1\n      revert\n    tag_184:\n        /* \".deps/github/Uniswap/v3-periphery/contracts/libraries/BytesLib.sol\":633:639  _start */\n      dup3\n        /* \".deps/github/Uniswap/v3-periphery/contracts/libraries/BytesLib.sol\":622:629  _length */\n      dup3\n        /* \".deps/github/Uniswap/v3-periphery/contracts/libraries/BytesLib.sol\":613:619  _start */\n      dup5\n        /* \".deps/github/Uniswap/v3-periphery/contracts/libraries/BytesLib.sol\":613:629  _start + _length */\n      add\n        /* \".deps/github/Uniswap/v3-periphery/contracts/libraries/BytesLib.sol\":613:639  _start + _length >= _start */\n      lt\n      iszero\n        /* \".deps/github/Uniswap/v3-periphery/contracts/libraries/BytesLib.sol\":605:658  require(_start + _length >= _start, 'slice_overflow') */\n      tag_185\n      jumpi\n      mload(0x40)\n      0x08c379a000000000000000000000000000000000000000000000000000000000\n      dup2\n      mstore\n      0x04\n      add\n      dup1\n      dup1\n      0x20\n      add\n      dup3\n      dup2\n      sub\n      dup3\n      mstore\n      0x0e\n      dup2\n      mstore\n      0x20\n      add\n      dup1\n      0x736c6963655f6f766572666c6f77000000000000000000000000000000000000\n      dup2\n      mstore\n      pop\n      0x20\n      add\n      swap2\n      pop\n      pop\n      mload(0x40)\n      dup1\n      swap2\n      sub\n      swap1\n      revert\n    tag_185:\n        /* \".deps/github/Uniswap/v3-periphery/contracts/libraries/BytesLib.sol\":702:709  _length */\n      dup2\n        /* \".deps/github/Uniswap/v3-periphery/contracts/libraries/BytesLib.sol\":693:699  _start */\n      dup4\n        /* \".deps/github/Uniswap/v3-periphery/contracts/libraries/BytesLib.sol\":693:709  _start + _length */\n      add\n        /* \".deps/github/Uniswap/v3-periphery/contracts/libraries/BytesLib.sol\":676:682  _bytes */\n      dup5\n        /* \".deps/github/Uniswap/v3-periphery/contracts/libraries/BytesLib.sol\":676:689  _bytes.length */\n      mload\n        /* \".deps/github/Uniswap/v3-periphery/contracts/libraries/BytesLib.sol\":676:709  _bytes.length >= _start + _length */\n      lt\n      iszero\n        /* \".deps/github/Uniswap/v3-periphery/contracts/libraries/BytesLib.sol\":668:731  require(_bytes.length >= _start + _length, 'slice_outOfBounds') */\n      tag_186\n      jumpi\n      mload(0x40)\n      0x08c379a000000000000000000000000000000000000000000000000000000000\n      dup2\n      mstore\n      0x04\n      add\n      dup1\n      dup1\n      0x20\n      add\n      dup3\n      dup2\n      sub\n      dup3\n      mstore\n      0x11\n      dup2\n      mstore\n      0x20\n      add\n      dup1\n      0x736c6963655f6f75744f66426f756e6473000000000000000000000000000000\n      dup2\n      mstore\n      pop\n      0x20\n      add\n      swap2\n      pop\n      pop\n      mload(0x40)\n      dup1\n      swap2\n      sub\n      swap1\n      revert\n    tag_186:\n        /* \".deps/github/Uniswap/v3-periphery/contracts/libraries/BytesLib.sol\":742:764  bytes memory tempBytes */\n      0x60\n        /* \".deps/github/Uniswap/v3-periphery/contracts/libraries/BytesLib.sol\":812:819  _length */\n      dup3\n        /* \".deps/github/Uniswap/v3-periphery/contracts/libraries/BytesLib.sol\":805:820  iszero(_length) */\n      iszero\n        /* \".deps/github/Uniswap/v3-periphery/contracts/libraries/BytesLib.sol\":842:843  0 */\n      0x00\n        /* \".deps/github/Uniswap/v3-periphery/contracts/libraries/BytesLib.sol\":837:2936  case 0 {... */\n      dup2\n      eq\n      tag_188\n      jumpi\n        /* \".deps/github/Uniswap/v3-periphery/contracts/libraries/BytesLib.sol\":3089:3093  0x40 */\n      0x40\n        /* \".deps/github/Uniswap/v3-periphery/contracts/libraries/BytesLib.sol\":3083:3094  mload(0x40) */\n      mload\n        /* \".deps/github/Uniswap/v3-periphery/contracts/libraries/BytesLib.sol\":3070:3094  tempBytes := mload(0x40) */\n      swap2\n      pop\n        /* \".deps/github/Uniswap/v3-periphery/contracts/libraries/BytesLib.sol\":3287:3288  0 */\n      0x00\n        /* \".deps/github/Uniswap/v3-periphery/contracts/libraries/BytesLib.sol\":3276:3285  tempBytes */\n      dup3\n        /* \".deps/github/Uniswap/v3-periphery/contracts/libraries/BytesLib.sol\":3269:3289  mstore(tempBytes, 0) */\n      mstore\n        /* \".deps/github/Uniswap/v3-periphery/contracts/libraries/BytesLib.sol\":3339:3343  0x20 */\n      0x20\n        /* \".deps/github/Uniswap/v3-periphery/contracts/libraries/BytesLib.sol\":3328:3337  tempBytes */\n      dup3\n        /* \".deps/github/Uniswap/v3-periphery/contracts/libraries/BytesLib.sol\":3324:3344  add(tempBytes, 0x20) */\n      add\n        /* \".deps/github/Uniswap/v3-periphery/contracts/libraries/BytesLib.sol\":3318:3322  0x40 */\n      0x40\n        /* \".deps/github/Uniswap/v3-periphery/contracts/libraries/BytesLib.sol\":3311:3345  mstore(0x40, add(tempBytes, 0x20)) */\n      mstore\n        /* \".deps/github/Uniswap/v3-periphery/contracts/libraries/BytesLib.sol\":798:3363  switch iszero(_length)... */\n      jump(tag_187)\n        /* \".deps/github/Uniswap/v3-periphery/contracts/libraries/BytesLib.sol\":837:2936  case 0 {... */\n    tag_188:\n        /* \".deps/github/Uniswap/v3-periphery/contracts/libraries/BytesLib.sol\":1031:1035  0x40 */\n      0x40\n        /* \".deps/github/Uniswap/v3-periphery/contracts/libraries/BytesLib.sol\":1025:1036  mload(0x40) */\n      mload\n        /* \".deps/github/Uniswap/v3-periphery/contracts/libraries/BytesLib.sol\":1012:1036  tempBytes := mload(0x40) */\n      swap2\n      pop\n        /* \".deps/github/Uniswap/v3-periphery/contracts/libraries/BytesLib.sol\":1726:1728  31 */\n      0x1f\n        /* \".deps/github/Uniswap/v3-periphery/contracts/libraries/BytesLib.sol\":1717:1724  _length */\n      dup5\n        /* \".deps/github/Uniswap/v3-periphery/contracts/libraries/BytesLib.sol\":1713:1729  and(_length, 31) */\n      and\n        /* \".deps/github/Uniswap/v3-periphery/contracts/libraries/BytesLib.sol\":2128:2137  lengthmod */\n      dup1\n        /* \".deps/github/Uniswap/v3-periphery/contracts/libraries/BytesLib.sol\":2121:2138  iszero(lengthmod) */\n      iszero\n        /* \".deps/github/Uniswap/v3-periphery/contracts/libraries/BytesLib.sol\":2115:2119  0x20 */\n      0x20\n        /* \".deps/github/Uniswap/v3-periphery/contracts/libraries/BytesLib.sol\":2111:2139  mul(0x20, iszero(lengthmod)) */\n      mul\n        /* \".deps/github/Uniswap/v3-periphery/contracts/libraries/BytesLib.sol\":2099:2108  lengthmod */\n      dup2\n        /* \".deps/github/Uniswap/v3-periphery/contracts/libraries/BytesLib.sol\":2088:2097  tempBytes */\n      dup5\n        /* \".deps/github/Uniswap/v3-periphery/contracts/libraries/BytesLib.sol\":2084:2109  add(tempBytes, lengthmod) */\n      add\n        /* \".deps/github/Uniswap/v3-periphery/contracts/libraries/BytesLib.sol\":2080:2140  add(add(tempBytes, lengthmod), mul(0x20, iszero(lengthmod))) */\n      add\n        /* \".deps/github/Uniswap/v3-periphery/contracts/libraries/BytesLib.sol\":2180:2187  _length */\n      dup6\n        /* \".deps/github/Uniswap/v3-periphery/contracts/libraries/BytesLib.sol\":2176:2178  mc */\n      dup2\n        /* \".deps/github/Uniswap/v3-periphery/contracts/libraries/BytesLib.sol\":2172:2188  add(mc, _length) */\n      add\n        /* \".deps/github/Uniswap/v3-periphery/contracts/libraries/BytesLib.sol\":2448:2454  _start */\n      dup8\n        /* \".deps/github/Uniswap/v3-periphery/contracts/libraries/BytesLib.sol\":2434:2443  lengthmod */\n      dup4\n        /* \".deps/github/Uniswap/v3-periphery/contracts/libraries/BytesLib.sol\":2427:2444  iszero(lengthmod) */\n      iszero\n        /* \".deps/github/Uniswap/v3-periphery/contracts/libraries/BytesLib.sol\":2421:2425  0x20 */\n      0x20\n        /* \".deps/github/Uniswap/v3-periphery/contracts/libraries/BytesLib.sol\":2417:2445  mul(0x20, iszero(lengthmod)) */\n      mul\n        /* \".deps/github/Uniswap/v3-periphery/contracts/libraries/BytesLib.sol\":2405:2414  lengthmod */\n      dup5\n        /* \".deps/github/Uniswap/v3-periphery/contracts/libraries/BytesLib.sol\":2397:2403  _bytes */\n      dup12\n        /* \".deps/github/Uniswap/v3-periphery/contracts/libraries/BytesLib.sol\":2393:2415  add(_bytes, lengthmod) */\n      add\n        /* \".deps/github/Uniswap/v3-periphery/contracts/libraries/BytesLib.sol\":2389:2446  add(add(_bytes, lengthmod), mul(0x20, iszero(lengthmod))) */\n      add\n        /* \".deps/github/Uniswap/v3-periphery/contracts/libraries/BytesLib.sol\":2385:2455  add(add(add(_bytes, lengthmod), mul(0x20, iszero(lengthmod))), _start) */\n      add\n        /* \".deps/github/Uniswap/v3-periphery/contracts/libraries/BytesLib.sol\":2210:2671  for {... */\n    tag_189:\n        /* \".deps/github/Uniswap/v3-periphery/contracts/libraries/BytesLib.sol\":2485:2488  end */\n      dup2\n        /* \".deps/github/Uniswap/v3-periphery/contracts/libraries/BytesLib.sol\":2481:2483  mc */\n      dup4\n        /* \".deps/github/Uniswap/v3-periphery/contracts/libraries/BytesLib.sol\":2478:2489  lt(mc, end) */\n      lt\n        /* \".deps/github/Uniswap/v3-periphery/contracts/libraries/BytesLib.sol\":2210:2671  for {... */\n      iszero\n      tag_191\n      jumpi\n        /* \".deps/github/Uniswap/v3-periphery/contracts/libraries/BytesLib.sol\":2645:2647  cc */\n      dup1\n        /* \".deps/github/Uniswap/v3-periphery/contracts/libraries/BytesLib.sol\":2639:2648  mload(cc) */\n      mload\n        /* \".deps/github/Uniswap/v3-periphery/contracts/libraries/BytesLib.sol\":2635:2637  mc */\n      dup4\n        /* \".deps/github/Uniswap/v3-periphery/contracts/libraries/BytesLib.sol\":2628:2649  mstore(mc, mload(cc)) */\n      mstore\n        /* \".deps/github/Uniswap/v3-periphery/contracts/libraries/BytesLib.sol\":2530:2534  0x20 */\n      0x20\n        /* \".deps/github/Uniswap/v3-periphery/contracts/libraries/BytesLib.sol\":2526:2528  mc */\n      dup4\n        /* \".deps/github/Uniswap/v3-periphery/contracts/libraries/BytesLib.sol\":2522:2535  add(mc, 0x20) */\n      add\n        /* \".deps/github/Uniswap/v3-periphery/contracts/libraries/BytesLib.sol\":2516:2535  mc := add(mc, 0x20) */\n      swap3\n      pop\n        /* \".deps/github/Uniswap/v3-periphery/contracts/libraries/BytesLib.sol\":2574:2578  0x20 */\n      0x20\n        /* \".deps/github/Uniswap/v3-periphery/contracts/libraries/BytesLib.sol\":2570:2572  cc */\n      dup2\n        /* \".deps/github/Uniswap/v3-periphery/contracts/libraries/BytesLib.sol\":2566:2579  add(cc, 0x20) */\n      add\n        /* \".deps/github/Uniswap/v3-periphery/contracts/libraries/BytesLib.sol\":2560:2579  cc := add(cc, 0x20) */\n      swap1\n      pop\n        /* \".deps/github/Uniswap/v3-periphery/contracts/libraries/BytesLib.sol\":2210:2671  for {... */\n      jump(tag_189)\n    tag_191:\n        /* \".deps/github/Uniswap/v3-periphery/contracts/libraries/BytesLib.sol\":2214:2477  {... */\n      pop\n        /* \".deps/github/Uniswap/v3-periphery/contracts/libraries/BytesLib.sol\":2711:2718  _length */\n      dup7\n        /* \".deps/github/Uniswap/v3-periphery/contracts/libraries/BytesLib.sol\":2700:2709  tempBytes */\n      dup6\n        /* \".deps/github/Uniswap/v3-periphery/contracts/libraries/BytesLib.sol\":2693:2719  mstore(tempBytes, _length) */\n      mstore\n        /* \".deps/github/Uniswap/v3-periphery/contracts/libraries/BytesLib.sol\":2913:2915  31 */\n      0x1f\n        /* \".deps/github/Uniswap/v3-periphery/contracts/libraries/BytesLib.sol\":2909:2916  not(31) */\n      not\n        /* \".deps/github/Uniswap/v3-periphery/contracts/libraries/BytesLib.sol\":2904:2906  31 */\n      0x1f\n        /* \".deps/github/Uniswap/v3-periphery/contracts/libraries/BytesLib.sol\":2900:2902  mc */\n      dup4\n        /* \".deps/github/Uniswap/v3-periphery/contracts/libraries/BytesLib.sol\":2896:2907  add(mc, 31) */\n      add\n        /* \".deps/github/Uniswap/v3-periphery/contracts/libraries/BytesLib.sol\":2892:2917  and(add(mc, 31), not(31)) */\n      and\n        /* \".deps/github/Uniswap/v3-periphery/contracts/libraries/BytesLib.sol\":2886:2890  0x40 */\n      0x40\n        /* \".deps/github/Uniswap/v3-periphery/contracts/libraries/BytesLib.sol\":2879:2918  mstore(0x40, and(add(mc, 31), not(31))) */\n      mstore\n        /* \".deps/github/Uniswap/v3-periphery/contracts/libraries/BytesLib.sol\":844:2936  {... */\n      pop\n      pop\n      pop\n        /* \".deps/github/Uniswap/v3-periphery/contracts/libraries/BytesLib.sol\":798:3363  switch iszero(_length)... */\n    tag_187:\n      pop\n        /* \".deps/github/Uniswap/v3-periphery/contracts/libraries/BytesLib.sol\":3390:3399  tempBytes */\n      dup1\n        /* \".deps/github/Uniswap/v3-periphery/contracts/libraries/BytesLib.sol\":3383:3399  return tempBytes */\n      swap2\n      pop\n      pop\n        /* \".deps/github/Uniswap/v3-periphery/contracts/libraries/BytesLib.sol\":399:3406  function slice(... */\n      swap4\n      swap3\n      pop\n      pop\n      pop\n      jump\t// out\n        /* \".deps/github/Uniswap/v3-periphery/contracts/libraries/PoolAddress.sol\":784:1058  function getPoolKey(... */\n    tag_160:\n        /* \".deps/github/Uniswap/v3-periphery/contracts/libraries/PoolAddress.sol\":901:915  PoolKey memory */\n      tag_192\n      tag_193\n      jump\t// in\n    tag_192:\n        /* \".deps/github/Uniswap/v3-periphery/contracts/libraries/PoolAddress.sol\":940:946  tokenB */\n      dup3\n        /* \".deps/github/Uniswap/v3-periphery/contracts/libraries/PoolAddress.sol\":931:946  tokenA > tokenB */\n      0xffffffffffffffffffffffffffffffffffffffff\n      and\n        /* \".deps/github/Uniswap/v3-periphery/contracts/libraries/PoolAddress.sol\":931:937  tokenA */\n      dup5\n        /* \".deps/github/Uniswap/v3-periphery/contracts/libraries/PoolAddress.sol\":931:946  tokenA > tokenB */\n      0xffffffffffffffffffffffffffffffffffffffff\n      and\n      gt\n        /* \".deps/github/Uniswap/v3-periphery/contracts/libraries/PoolAddress.sol\":927:983  if (tokenA > tokenB) (tokenA, tokenB) = (tokenB, tokenA) */\n      iszero\n      tag_195\n      jumpi\n        /* \".deps/github/Uniswap/v3-periphery/contracts/libraries/PoolAddress.sol\":968:974  tokenB */\n      dup3\n        /* \".deps/github/Uniswap/v3-periphery/contracts/libraries/PoolAddress.sol\":976:982  tokenA */\n      dup5\n        /* \".deps/github/Uniswap/v3-periphery/contracts/libraries/PoolAddress.sol\":948:983  (tokenA, tokenB) = (tokenB, tokenA) */\n      dup1\n      swap5\n      pop\n      dup2\n      swap6\n      pop\n      pop\n      pop\n        /* \".deps/github/Uniswap/v3-periphery/contracts/libraries/PoolAddress.sol\":927:983  if (tokenA > tokenB) (tokenA, tokenB) = (tokenB, tokenA) */\n    tag_195:\n        /* \".deps/github/Uniswap/v3-periphery/contracts/libraries/PoolAddress.sol\":1000:1051  PoolKey({token0: tokenA, token1: tokenB, fee: fee}) */\n      mload(0x40)\n      dup1\n      0x60\n      add\n      0x40\n      mstore\n      dup1\n        /* \".deps/github/Uniswap/v3-periphery/contracts/libraries/PoolAddress.sol\":1017:1023  tokenA */\n      dup6\n        /* \".deps/github/Uniswap/v3-periphery/contracts/libraries/PoolAddress.sol\":1000:1051  PoolKey({token0: tokenA, token1: tokenB, fee: fee}) */\n      0xffffffffffffffffffffffffffffffffffffffff\n      and\n      dup2\n      mstore\n      0x20\n      add\n        /* \".deps/github/Uniswap/v3-periphery/contracts/libraries/PoolAddress.sol\":1033:1039  tokenB */\n      dup5\n        /* \".deps/github/Uniswap/v3-periphery/contracts/libraries/PoolAddress.sol\":1000:1051  PoolKey({token0: tokenA, token1: tokenB, fee: fee}) */\n      0xffffffffffffffffffffffffffffffffffffffff\n      and\n      dup2\n      mstore\n      0x20\n      add\n        /* \".deps/github/Uniswap/v3-periphery/contracts/libraries/PoolAddress.sol\":1046:1049  fee */\n      dup4\n        /* \".deps/github/Uniswap/v3-periphery/contracts/libraries/PoolAddress.sol\":1000:1051  PoolKey({token0: tokenA, token1: tokenB, fee: fee}) */\n      0xffffff\n      and\n      dup2\n      mstore\n      pop\n        /* \".deps/github/Uniswap/v3-periphery/contracts/libraries/PoolAddress.sol\":993:1051  return PoolKey({token0: tokenA, token1: tokenB, fee: fee}) */\n      swap1\n      pop\n        /* \".deps/github/Uniswap/v3-periphery/contracts/libraries/PoolAddress.sol\":784:1058  function getPoolKey(... */\n      swap4\n      swap3\n      pop\n      pop\n      pop\n      jump\t// out\n        /* \".deps/github/Uniswap/v3-periphery/contracts/libraries/PoolAddress.sol\":1305:1817  function computeAddress(address factory, PoolKey memory key) internal pure returns (address pool) {... */\n    tag_161:\n        /* \".deps/github/Uniswap/v3-periphery/contracts/libraries/PoolAddress.sol\":1389:1401  address pool */\n      0x00\n        /* \".deps/github/Uniswap/v3-periphery/contracts/libraries/PoolAddress.sol\":1434:1437  key */\n      dup2\n        /* \".deps/github/Uniswap/v3-periphery/contracts/libraries/PoolAddress.sol\":1434:1444  key.token1 */\n      0x20\n      add\n      mload\n        /* \".deps/github/Uniswap/v3-periphery/contracts/libraries/PoolAddress.sol\":1421:1444  key.token0 < key.token1 */\n      0xffffffffffffffffffffffffffffffffffffffff\n      and\n        /* \".deps/github/Uniswap/v3-periphery/contracts/libraries/PoolAddress.sol\":1421:1424  key */\n      dup3\n        /* \".deps/github/Uniswap/v3-periphery/contracts/libraries/PoolAddress.sol\":1421:1431  key.token0 */\n      0x00\n      add\n      mload\n        /* \".deps/github/Uniswap/v3-periphery/contracts/libraries/PoolAddress.sol\":1421:1444  key.token0 < key.token1 */\n      0xffffffffffffffffffffffffffffffffffffffff\n      and\n      lt\n        /* \".deps/github/Uniswap/v3-periphery/contracts/libraries/PoolAddress.sol\":1413:1445  require(key.token0 < key.token1) */\n      tag_197\n      jumpi\n      0x00\n      dup1\n      revert\n    tag_197:\n        /* \".deps/github/Uniswap/v3-periphery/contracts/libraries/PoolAddress.sol\":1614:1621  factory */\n      dup3\n        /* \".deps/github/Uniswap/v3-periphery/contracts/libraries/PoolAddress.sol\":1668:1671  key */\n      dup3\n        /* \".deps/github/Uniswap/v3-periphery/contracts/libraries/PoolAddress.sol\":1668:1678  key.token0 */\n      0x00\n      add\n      mload\n        /* \".deps/github/Uniswap/v3-periphery/contracts/libraries/PoolAddress.sol\":1680:1683  key */\n      dup4\n        /* \".deps/github/Uniswap/v3-periphery/contracts/libraries/PoolAddress.sol\":1680:1690  key.token1 */\n      0x20\n      add\n      mload\n        /* \".deps/github/Uniswap/v3-periphery/contracts/libraries/PoolAddress.sol\":1692:1695  key */\n      dup5\n        /* \".deps/github/Uniswap/v3-periphery/contracts/libraries/PoolAddress.sol\":1692:1699  key.fee */\n      0x40\n      add\n      mload\n        /* \".deps/github/Uniswap/v3-periphery/contracts/libraries/PoolAddress.sol\":1657:1700  abi.encode(key.token0, key.token1, key.fee) */\n      add(0x20, mload(0x40))\n      dup1\n      dup5\n      0xffffffffffffffffffffffffffffffffffffffff\n      and\n      dup2\n      mstore\n      0x20\n      add\n      dup4\n      0xffffffffffffffffffffffffffffffffffffffff\n      and\n      dup2\n      mstore\n      0x20\n      add\n      dup3\n      0xffffff\n      and\n      dup2\n      mstore\n      0x20\n      add\n      swap4\n      pop\n      pop\n      pop\n      pop\n      mload(0x40)\n      0x20\n      dup2\n      dup4\n      sub\n      sub\n      dup2\n      mstore\n      swap1\n      0x40\n      mstore\n        /* \".deps/github/Uniswap/v3-periphery/contracts/libraries/PoolAddress.sol\":1647:1701  keccak256(abi.encode(key.token0, key.token1, key.fee)) */\n      dup1\n      mload\n      swap1\n      0x20\n      add\n      keccak256\n        /* \".deps/github/Uniswap/v3-periphery/contracts/libraries/PoolAddress.sol\":241:307  0xe34f199b19b2b4f47f68442619d555527d244f78a3297ea89325f843f87b8b54 */\n      0xe34f199b19b2b4f47f68442619d555527d244f78a3297ea89325f843f87b8b54\n        /* \".deps/github/Uniswap/v3-periphery/contracts/libraries/PoolAddress.sol\":1727:1746  POOL_INIT_CODE_HASH */\n      0x00\n      shl\n        /* \".deps/github/Uniswap/v3-periphery/contracts/libraries/PoolAddress.sol\":1539:1768  abi.encodePacked(... */\n      add(0x20, mload(0x40))\n      dup1\n      dup1\n      0xff00000000000000000000000000000000000000000000000000000000000000\n      dup2\n      mstore\n      pop\n      0x01\n      add\n      dup5\n      0xffffffffffffffffffffffffffffffffffffffff\n      and\n      0x60\n      shl\n      dup2\n      mstore\n      0x14\n      add\n      dup4\n      dup2\n      mstore\n      0x20\n      add\n      dup3\n      dup2\n      mstore\n      0x20\n      add\n      swap4\n      pop\n      pop\n      pop\n      pop\n      mload(0x40)\n      0x20\n      dup2\n      dup4\n      sub\n      sub\n      dup2\n      mstore\n      swap1\n      0x40\n      mstore\n        /* \".deps/github/Uniswap/v3-periphery/contracts/libraries/PoolAddress.sol\":1508:1786  keccak256(... */\n      dup1\n      mload\n      swap1\n      0x20\n      add\n      keccak256\n        /* \".deps/github/Uniswap/v3-periphery/contracts/libraries/PoolAddress.sol\":1483:1800  uint256(... */\n      0x00\n      shr\n        /* \".deps/github/Uniswap/v3-periphery/contracts/libraries/PoolAddress.sol\":1455:1810  pool = address(... */\n      swap1\n      pop\n        /* \".deps/github/Uniswap/v3-periphery/contracts/libraries/PoolAddress.sol\":1305:1817  function computeAddress(address factory, PoolKey memory key) internal pure returns (address pool) {... */\n      swap3\n      swap2\n      pop\n      pop\n      jump\t// out\n        /* \".deps/github/Uniswap/v3-periphery/contracts/lens/QuoterV2.sol\":3388:3901  function parseRevertReason(bytes memory reason)... */\n    tag_170:\n        /* \".deps/github/Uniswap/v3-periphery/contracts/lens/QuoterV2.sol\":3495:3509  uint256 amount */\n      0x00\n        /* \".deps/github/Uniswap/v3-periphery/contracts/lens/QuoterV2.sol\":3523:3548  uint160 sqrtPriceX96After */\n      dup1\n        /* \".deps/github/Uniswap/v3-periphery/contracts/lens/QuoterV2.sol\":3562:3577  int24 tickAfter */\n      0x00\n        /* \".deps/github/Uniswap/v3-periphery/contracts/lens/QuoterV2.sol\":3623:3625  96 */\n      0x60\n        /* \".deps/github/Uniswap/v3-periphery/contracts/lens/QuoterV2.sol\":3606:3612  reason */\n      dup5\n        /* \".deps/github/Uniswap/v3-periphery/contracts/lens/QuoterV2.sol\":3606:3619  reason.length */\n      mload\n        /* \".deps/github/Uniswap/v3-periphery/contracts/lens/QuoterV2.sol\":3606:3625  reason.length != 96 */\n      eq\n        /* \".deps/github/Uniswap/v3-periphery/contracts/lens/QuoterV2.sol\":3602:3833  if (reason.length != 96) {... */\n      tag_199\n      jumpi\n        /* \".deps/github/Uniswap/v3-periphery/contracts/lens/QuoterV2.sol\":3661:3663  68 */\n      0x44\n        /* \".deps/github/Uniswap/v3-periphery/contracts/lens/QuoterV2.sol\":3645:3651  reason */\n      dup5\n        /* \".deps/github/Uniswap/v3-periphery/contracts/lens/QuoterV2.sol\":3645:3658  reason.length */\n      mload\n        /* \".deps/github/Uniswap/v3-periphery/contracts/lens/QuoterV2.sol\":3645:3663  reason.length < 68 */\n      lt\n        /* \".deps/github/Uniswap/v3-periphery/contracts/lens/QuoterV2.sol\":3641:3691  if (reason.length < 68) revert('Unexpected error') */\n      iszero\n      tag_200\n      jumpi\n        /* \".deps/github/Uniswap/v3-periphery/contracts/lens/QuoterV2.sol\":3665:3691  revert('Unexpected error') */\n      mload(0x40)\n      0x08c379a000000000000000000000000000000000000000000000000000000000\n      dup2\n      mstore\n      0x04\n      add\n      tag_201\n      swap1\n      tag_202\n      jump\t// in\n    tag_201:\n      mload(0x40)\n      dup1\n      swap2\n      sub\n      swap1\n      revert\n        /* \".deps/github/Uniswap/v3-periphery/contracts/lens/QuoterV2.sol\":3641:3691  if (reason.length < 68) revert('Unexpected error') */\n    tag_200:\n        /* \".deps/github/Uniswap/v3-periphery/contracts/lens/QuoterV2.sol\":3754:3758  0x04 */\n      0x04\n        /* \".deps/github/Uniswap/v3-periphery/contracts/lens/QuoterV2.sol\":3746:3752  reason */\n      dup5\n        /* \".deps/github/Uniswap/v3-periphery/contracts/lens/QuoterV2.sol\":3742:3759  add(reason, 0x04) */\n      add\n        /* \".deps/github/Uniswap/v3-periphery/contracts/lens/QuoterV2.sol\":3732:3759  reason := add(reason, 0x04) */\n      swap4\n      pop\n        /* \".deps/github/Uniswap/v3-periphery/contracts/lens/QuoterV2.sol\":3804:3810  reason */\n      dup4\n        /* \".deps/github/Uniswap/v3-periphery/contracts/lens/QuoterV2.sol\":3793:3821  abi.decode(reason, (string)) */\n      dup1\n      0x20\n      add\n      swap1\n      mload\n      dup2\n      add\n      swap1\n      tag_203\n      swap2\n      swap1\n      tag_204\n      jump\t// in\n    tag_203:\n        /* \".deps/github/Uniswap/v3-periphery/contracts/lens/QuoterV2.sol\":3786:3822  revert(abi.decode(reason, (string))) */\n      mload(0x40)\n      0x08c379a000000000000000000000000000000000000000000000000000000000\n      dup2\n      mstore\n      0x04\n      add\n      tag_205\n      swap2\n      swap1\n      tag_206\n      jump\t// in\n    tag_205:\n      mload(0x40)\n      dup1\n      swap2\n      sub\n      swap1\n      revert\n        /* \".deps/github/Uniswap/v3-periphery/contracts/lens/QuoterV2.sol\":3602:3833  if (reason.length != 96) {... */\n    tag_199:\n        /* \".deps/github/Uniswap/v3-periphery/contracts/lens/QuoterV2.sol\":3860:3866  reason */\n      dup4\n        /* \".deps/github/Uniswap/v3-periphery/contracts/lens/QuoterV2.sol\":3849:3894  abi.decode(reason, (uint256, uint160, int24)) */\n      dup1\n      0x20\n      add\n      swap1\n      mload\n      dup2\n      add\n      swap1\n      tag_207\n      swap2\n      swap1\n      tag_208\n      jump\t// in\n    tag_207:\n        /* \".deps/github/Uniswap/v3-periphery/contracts/lens/QuoterV2.sol\":3842:3894  return abi.decode(reason, (uint256, uint160, int24)) */\n      swap3\n      pop\n      swap3\n      pop\n      swap3\n      pop\n        /* \".deps/github/Uniswap/v3-periphery/contracts/lens/QuoterV2.sol\":3388:3901  function parseRevertReason(bytes memory reason)... */\n      swap2\n      swap4\n      swap1\n      swap3\n      pop\n      jump\t// out\n        /* \".deps/github/Uniswap/v3-periphery/contracts/libraries/PoolTicksCounter.sol\":637:3942  function countInitializedTicksCrossed(... */\n    tag_172:\n        /* \".deps/github/Uniswap/v3-periphery/contracts/libraries/PoolTicksCounter.sol\":784:814  uint32 initializedTicksCrossed */\n      0x00\n        /* \".deps/github/Uniswap/v3-periphery/contracts/libraries/PoolTicksCounter.sol\":826:844  int16 wordPosLower */\n      dup1\n        /* \".deps/github/Uniswap/v3-periphery/contracts/libraries/PoolTicksCounter.sol\":854:873  int16 wordPosHigher */\n      0x00\n        /* \".deps/github/Uniswap/v3-periphery/contracts/libraries/PoolTicksCounter.sol\":883:900  uint8 bitPosLower */\n      dup1\n        /* \".deps/github/Uniswap/v3-periphery/contracts/libraries/PoolTicksCounter.sol\":910:928  uint8 bitPosHigher */\n      0x00\n        /* \".deps/github/Uniswap/v3-periphery/contracts/libraries/PoolTicksCounter.sol\":938:964  bool tickBeforeInitialized */\n      dup1\n        /* \".deps/github/Uniswap/v3-periphery/contracts/libraries/PoolTicksCounter.sol\":974:999  bool tickAfterInitialized */\n      0x00\n        /* \".deps/github/Uniswap/v3-periphery/contracts/libraries/PoolTicksCounter.sol\":1127:1140  int16 wordPos */\n      dup1\n        /* \".deps/github/Uniswap/v3-periphery/contracts/libraries/PoolTicksCounter.sol\":1186:1187  8 */\n      0x08\n        /* \".deps/github/Uniswap/v3-periphery/contracts/libraries/PoolTicksCounter.sol\":1163:1167  self */\n      dup12\n        /* \".deps/github/Uniswap/v3-periphery/contracts/libraries/PoolTicksCounter.sol\":1163:1179  self.tickSpacing */\n      0xffffffffffffffffffffffffffffffffffffffff\n      and\n      0xd0c93a7c\n        /* \".deps/github/Uniswap/v3-periphery/contracts/libraries/PoolTicksCounter.sol\":1163:1181  self.tickSpacing() */\n      mload(0x40)\n      dup2\n      0xffffffff\n      and\n      0xe0\n      shl\n      dup2\n      mstore\n      0x04\n      add\n      0x20\n      mload(0x40)\n      dup1\n      dup4\n      sub\n      dup2\n      dup7\n      dup1\n      extcodesize\n      iszero\n      dup1\n      iszero\n      tag_210\n      jumpi\n      0x00\n      dup1\n      revert\n    tag_210:\n      pop\n      gas\n      staticcall\n      iszero\n      dup1\n      iszero\n      tag_212\n      jumpi\n      returndatasize\n      0x00\n      dup1\n      returndatacopy\n      revert(0x00, returndatasize)\n    tag_212:\n      pop\n      pop\n      pop\n      pop\n      mload(0x40)\n      returndatasize\n      0x20\n      dup2\n      lt\n      iszero\n      tag_213\n      jumpi\n      0x00\n      dup1\n      revert\n    tag_213:\n      dup2\n      add\n      swap1\n      dup1\n      dup1\n      mload\n      swap1\n      0x20\n      add\n      swap1\n      swap3\n      swap2\n      swap1\n      pop\n      pop\n      pop\n        /* \".deps/github/Uniswap/v3-periphery/contracts/libraries/PoolTicksCounter.sol\":1150:1181  tickBefore / self.tickSpacing() */\n      0x02\n      signextend\n        /* \".deps/github/Uniswap/v3-periphery/contracts/libraries/PoolTicksCounter.sol\":1150:1160  tickBefore */\n      dup12\n        /* \".deps/github/Uniswap/v3-periphery/contracts/libraries/PoolTicksCounter.sol\":1150:1181  tickBefore / self.tickSpacing() */\n      0x02\n      signextend\n      dup2\n      tag_214\n      jumpi\n      invalid\n    tag_214:\n      sdiv\n        /* \".deps/github/Uniswap/v3-periphery/contracts/libraries/PoolTicksCounter.sol\":1149:1187  (tickBefore / self.tickSpacing()) >> 8 */\n      0x02\n      signextend\n      swap1\n      sar\n        /* \".deps/github/Uniswap/v3-periphery/contracts/libraries/PoolTicksCounter.sol\":1127:1188  int16 wordPos = int16((tickBefore / self.tickSpacing()) >> 8) */\n      swap1\n      pop\n        /* \".deps/github/Uniswap/v3-periphery/contracts/libraries/PoolTicksCounter.sol\":1202:1214  uint8 bitPos */\n      0x00\n        /* \".deps/github/Uniswap/v3-periphery/contracts/libraries/PoolTicksCounter.sol\":1259:1262  256 */\n      0x0100\n        /* \".deps/github/Uniswap/v3-periphery/contracts/libraries/PoolTicksCounter.sol\":1237:1241  self */\n      dup13\n        /* \".deps/github/Uniswap/v3-periphery/contracts/libraries/PoolTicksCounter.sol\":1237:1253  self.tickSpacing */\n      0xffffffffffffffffffffffffffffffffffffffff\n      and\n      0xd0c93a7c\n        /* \".deps/github/Uniswap/v3-periphery/contracts/libraries/PoolTicksCounter.sol\":1237:1255  self.tickSpacing() */\n      mload(0x40)\n      dup2\n      0xffffffff\n      and\n      0xe0\n      shl\n      dup2\n      mstore\n      0x04\n      add\n      0x20\n      mload(0x40)\n      dup1\n      dup4\n      sub\n      dup2\n      dup7\n      dup1\n      extcodesize\n      iszero\n      dup1\n      iszero\n      tag_215\n      jumpi\n      0x00\n      dup1\n      revert\n    tag_215:\n      pop\n      gas\n      staticcall\n      iszero\n      dup1\n      iszero\n      tag_217\n      jumpi\n      returndatasize\n      0x00\n      dup1\n      returndatacopy\n      revert(0x00, returndatasize)\n    tag_217:\n      pop\n      pop\n      pop\n      pop\n      mload(0x40)\n      returndatasize\n      0x20\n      dup2\n      lt\n      iszero\n      tag_218\n      jumpi\n      0x00\n      dup1\n      revert\n    tag_218:\n      dup2\n      add\n      swap1\n      dup1\n      dup1\n      mload\n      swap1\n      0x20\n      add\n      swap1\n      swap3\n      swap2\n      swap1\n      pop\n      pop\n      pop\n        /* \".deps/github/Uniswap/v3-periphery/contracts/libraries/PoolTicksCounter.sol\":1224:1255  tickBefore / self.tickSpacing() */\n      0x02\n      signextend\n        /* \".deps/github/Uniswap/v3-periphery/contracts/libraries/PoolTicksCounter.sol\":1224:1234  tickBefore */\n      dup13\n        /* \".deps/github/Uniswap/v3-periphery/contracts/libraries/PoolTicksCounter.sol\":1224:1255  tickBefore / self.tickSpacing() */\n      0x02\n      signextend\n      dup2\n      tag_219\n      jumpi\n      invalid\n    tag_219:\n      sdiv\n        /* \".deps/github/Uniswap/v3-periphery/contracts/libraries/PoolTicksCounter.sol\":1223:1262  (tickBefore / self.tickSpacing()) % 256 */\n      0x02\n      signextend\n      dup2\n      tag_220\n      jumpi\n      invalid\n    tag_220:\n      smod\n        /* \".deps/github/Uniswap/v3-periphery/contracts/libraries/PoolTicksCounter.sol\":1202:1263  uint8 bitPos = uint8((tickBefore / self.tickSpacing()) % 256) */\n      swap1\n      pop\n        /* \".deps/github/Uniswap/v3-periphery/contracts/libraries/PoolTicksCounter.sol\":1278:1296  int16 wordPosAfter */\n      0x00\n        /* \".deps/github/Uniswap/v3-periphery/contracts/libraries/PoolTicksCounter.sol\":1341:1342  8 */\n      0x08\n        /* \".deps/github/Uniswap/v3-periphery/contracts/libraries/PoolTicksCounter.sol\":1318:1322  self */\n      dup14\n        /* \".deps/github/Uniswap/v3-periphery/contracts/libraries/PoolTicksCounter.sol\":1318:1334  self.tickSpacing */\n      0xffffffffffffffffffffffffffffffffffffffff\n      and\n      0xd0c93a7c\n        /* \".deps/github/Uniswap/v3-periphery/contracts/libraries/PoolTicksCounter.sol\":1318:1336  self.tickSpacing() */\n      mload(0x40)\n      dup2\n      0xffffffff\n      and\n      0xe0\n      shl\n      dup2\n      mstore\n      0x04\n      add\n      0x20\n      mload(0x40)\n      dup1\n      dup4\n      sub\n      dup2\n      dup7\n      dup1\n      extcodesize\n      iszero\n      dup1\n      iszero\n      tag_221\n      jumpi\n      0x00\n      dup1\n      revert\n    tag_221:\n      pop\n      gas\n      staticcall\n      iszero\n      dup1\n      iszero\n      tag_223\n      jumpi\n      returndatasize\n      0x00\n      dup1\n      returndatacopy\n      revert(0x00, returndatasize)\n    tag_223:\n      pop\n      pop\n      pop\n      pop\n      mload(0x40)\n      returndatasize\n      0x20\n      dup2\n      lt\n      iszero\n      tag_224\n      jumpi\n      0x00\n      dup1\n      revert\n    tag_224:\n      dup2\n      add\n      swap1\n      dup1\n      dup1\n      mload\n      swap1\n      0x20\n      add\n      swap1\n      swap3\n      swap2\n      swap1\n      pop\n      pop\n      pop\n        /* \".deps/github/Uniswap/v3-periphery/contracts/libraries/PoolTicksCounter.sol\":1306:1336  tickAfter / self.tickSpacing() */\n      0x02\n      signextend\n        /* \".deps/github/Uniswap/v3-periphery/contracts/libraries/PoolTicksCounter.sol\":1306:1315  tickAfter */\n      dup13\n        /* \".deps/github/Uniswap/v3-periphery/contracts/libraries/PoolTicksCounter.sol\":1306:1336  tickAfter / self.tickSpacing() */\n      0x02\n      signextend\n      dup2\n      tag_225\n      jumpi\n      invalid\n    tag_225:\n      sdiv\n        /* \".deps/github/Uniswap/v3-periphery/contracts/libraries/PoolTicksCounter.sol\":1305:1342  (tickAfter / self.tickSpacing()) >> 8 */\n      0x02\n      signextend\n      swap1\n      sar\n        /* \".deps/github/Uniswap/v3-periphery/contracts/libraries/PoolTicksCounter.sol\":1278:1343  int16 wordPosAfter = int16((tickAfter / self.tickSpacing()) >> 8) */\n      swap1\n      pop\n        /* \".deps/github/Uniswap/v3-periphery/contracts/libraries/PoolTicksCounter.sol\":1357:1374  uint8 bitPosAfter */\n      0x00\n        /* \".deps/github/Uniswap/v3-periphery/contracts/libraries/PoolTicksCounter.sol\":1418:1421  256 */\n      0x0100\n        /* \".deps/github/Uniswap/v3-periphery/contracts/libraries/PoolTicksCounter.sol\":1396:1400  self */\n      dup15\n        /* \".deps/github/Uniswap/v3-periphery/contracts/libraries/PoolTicksCounter.sol\":1396:1412  self.tickSpacing */\n      0xffffffffffffffffffffffffffffffffffffffff\n      and\n      0xd0c93a7c\n        /* \".deps/github/Uniswap/v3-periphery/contracts/libraries/PoolTicksCounter.sol\":1396:1414  self.tickSpacing() */\n      mload(0x40)\n      dup2\n      0xffffffff\n      and\n      0xe0\n      shl\n      dup2\n      mstore\n      0x04\n      add\n      0x20\n      mload(0x40)\n      dup1\n      dup4\n      sub\n      dup2\n      dup7\n      dup1\n      extcodesize\n      iszero\n      dup1\n      iszero\n      tag_226\n      jumpi\n      0x00\n      dup1\n      revert\n    tag_226:\n      pop\n      gas\n      staticcall\n      iszero\n      dup1\n      iszero\n      tag_228\n      jumpi\n      returndatasize\n      0x00\n      dup1\n      returndatacopy\n      revert(0x00, returndatasize)\n    tag_228:\n      pop\n      pop\n      pop\n      pop\n      mload(0x40)\n      returndatasize\n      0x20\n      dup2\n      lt\n      iszero\n      tag_229\n      jumpi\n      0x00\n      dup1\n      revert\n    tag_229:\n      dup2\n      add\n      swap1\n      dup1\n      dup1\n      mload\n      swap1\n      0x20\n      add\n      swap1\n      swap3\n      swap2\n      swap1\n      pop\n      pop\n      pop\n        /* \".deps/github/Uniswap/v3-periphery/contracts/libraries/PoolTicksCounter.sol\":1384:1414  tickAfter / self.tickSpacing() */\n      0x02\n      signextend\n        /* \".deps/github/Uniswap/v3-periphery/contracts/libraries/PoolTicksCounter.sol\":1384:1393  tickAfter */\n      dup14\n        /* \".deps/github/Uniswap/v3-periphery/contracts/libraries/PoolTicksCounter.sol\":1384:1414  tickAfter / self.tickSpacing() */\n      0x02\n      signextend\n      dup2\n      tag_230\n      jumpi\n      invalid\n    tag_230:\n      sdiv\n        /* \".deps/github/Uniswap/v3-periphery/contracts/libraries/PoolTicksCounter.sol\":1383:1421  (tickAfter / self.tickSpacing()) % 256 */\n      0x02\n      signextend\n      dup2\n      tag_231\n      jumpi\n      invalid\n    tag_231:\n      smod\n        /* \".deps/github/Uniswap/v3-periphery/contracts/libraries/PoolTicksCounter.sol\":1357:1422  uint8 bitPosAfter = uint8((tickAfter / self.tickSpacing()) % 256) */\n      swap1\n      pop\n        /* \".deps/github/Uniswap/v3-periphery/contracts/libraries/PoolTicksCounter.sol\":1897:1898  0 */\n      0x00\n        /* \".deps/github/Uniswap/v3-periphery/contracts/libraries/PoolTicksCounter.sol\":1881:1892  bitPosAfter */\n      dup2\n        /* \".deps/github/Uniswap/v3-periphery/contracts/libraries/PoolTicksCounter.sol\":1876:1892  1 << bitPosAfter */\n      0xff\n      and\n        /* \".deps/github/Uniswap/v3-periphery/contracts/libraries/PoolTicksCounter.sol\":1876:1877  1 */\n      0x01\n        /* \".deps/github/Uniswap/v3-periphery/contracts/libraries/PoolTicksCounter.sol\":1876:1892  1 << bitPosAfter */\n      swap1\n      shl\n        /* \".deps/github/Uniswap/v3-periphery/contracts/libraries/PoolTicksCounter.sol\":1843:1847  self */\n      dup16\n        /* \".deps/github/Uniswap/v3-periphery/contracts/libraries/PoolTicksCounter.sol\":1843:1858  self.tickBitmap */\n      0xffffffffffffffffffffffffffffffffffffffff\n      and\n      0x5339c296\n        /* \".deps/github/Uniswap/v3-periphery/contracts/libraries/PoolTicksCounter.sol\":1859:1871  wordPosAfter */\n      dup6\n        /* \".deps/github/Uniswap/v3-periphery/contracts/libraries/PoolTicksCounter.sol\":1843:1872  self.tickBitmap(wordPosAfter) */\n      mload(0x40)\n      dup3\n      0xffffffff\n      and\n      0xe0\n      shl\n      dup2\n      mstore\n      0x04\n      add\n      dup1\n      dup3\n      0x01\n      signextend\n      dup2\n      mstore\n      0x20\n      add\n      swap2\n      pop\n      pop\n      0x20\n      mload(0x40)\n      dup1\n      dup4\n      sub\n      dup2\n      dup7\n      dup1\n      extcodesize\n      iszero\n      dup1\n      iszero\n      tag_232\n      jumpi\n      0x00\n      dup1\n      revert\n    tag_232:\n      pop\n      gas\n      staticcall\n      iszero\n      dup1\n      iszero\n      tag_234\n      jumpi\n      returndatasize\n      0x00\n      dup1\n      returndatacopy\n      revert(0x00, returndatasize)\n    tag_234:\n      pop\n      pop\n      pop\n      pop\n      mload(0x40)\n      returndatasize\n      0x20\n      dup2\n      lt\n      iszero\n      tag_235\n      jumpi\n      0x00\n      dup1\n      revert\n    tag_235:\n      dup2\n      add\n      swap1\n      dup1\n      dup1\n      mload\n      swap1\n      0x20\n      add\n      swap1\n      swap3\n      swap2\n      swap1\n      pop\n      pop\n      pop\n        /* \".deps/github/Uniswap/v3-periphery/contracts/libraries/PoolTicksCounter.sol\":1843:1893  self.tickBitmap(wordPosAfter) & (1 << bitPosAfter) */\n      and\n        /* \".deps/github/Uniswap/v3-periphery/contracts/libraries/PoolTicksCounter.sol\":1842:1898  (self.tickBitmap(wordPosAfter) & (1 << bitPosAfter)) > 0 */\n      gt\n        /* \".deps/github/Uniswap/v3-periphery/contracts/libraries/PoolTicksCounter.sol\":1841:1958  ((self.tickBitmap(wordPosAfter) & (1 << bitPosAfter)) > 0) &&... */\n      dup1\n      iszero\n      tag_236\n      jumpi\n      pop\n        /* \".deps/github/Uniswap/v3-periphery/contracts/libraries/PoolTicksCounter.sol\":1956:1957  0 */\n      0x00\n        /* \".deps/github/Uniswap/v3-periphery/contracts/libraries/PoolTicksCounter.sol\":1933:1937  self */\n      dup15\n        /* \".deps/github/Uniswap/v3-periphery/contracts/libraries/PoolTicksCounter.sol\":1933:1949  self.tickSpacing */\n      0xffffffffffffffffffffffffffffffffffffffff\n      and\n      0xd0c93a7c\n        /* \".deps/github/Uniswap/v3-periphery/contracts/libraries/PoolTicksCounter.sol\":1933:1951  self.tickSpacing() */\n      mload(0x40)\n      dup2\n      0xffffffff\n      and\n      0xe0\n      shl\n      dup2\n      mstore\n      0x04\n      add\n      0x20\n      mload(0x40)\n      dup1\n      dup4\n      sub\n      dup2\n      dup7\n      dup1\n      extcodesize\n      iszero\n      dup1\n      iszero\n      tag_237\n      jumpi\n      0x00\n      dup1\n      revert\n    tag_237:\n      pop\n      gas\n      staticcall\n      iszero\n      dup1\n      iszero\n      tag_239\n      jumpi\n      returndatasize\n      0x00\n      dup1\n      returndatacopy\n      revert(0x00, returndatasize)\n    tag_239:\n      pop\n      pop\n      pop\n      pop\n      mload(0x40)\n      returndatasize\n      0x20\n      dup2\n      lt\n      iszero\n      tag_240\n      jumpi\n      0x00\n      dup1\n      revert\n    tag_240:\n      dup2\n      add\n      swap1\n      dup1\n      dup1\n      mload\n      swap1\n      0x20\n      add\n      swap1\n      swap3\n      swap2\n      swap1\n      pop\n      pop\n      pop\n        /* \".deps/github/Uniswap/v3-periphery/contracts/libraries/PoolTicksCounter.sol\":1921:1951  tickAfter % self.tickSpacing() */\n      0x02\n      signextend\n        /* \".deps/github/Uniswap/v3-periphery/contracts/libraries/PoolTicksCounter.sol\":1921:1930  tickAfter */\n      dup14\n        /* \".deps/github/Uniswap/v3-periphery/contracts/libraries/PoolTicksCounter.sol\":1921:1951  tickAfter % self.tickSpacing() */\n      0x02\n      signextend\n      dup2\n      tag_241\n      jumpi\n      invalid\n    tag_241:\n      smod\n        /* \".deps/github/Uniswap/v3-periphery/contracts/libraries/PoolTicksCounter.sol\":1920:1957  (tickAfter % self.tickSpacing()) == 0 */\n      0x02\n      signextend\n      eq\n        /* \".deps/github/Uniswap/v3-periphery/contracts/libraries/PoolTicksCounter.sol\":1841:1958  ((self.tickBitmap(wordPosAfter) & (1 << bitPosAfter)) > 0) &&... */\n    tag_236:\n        /* \".deps/github/Uniswap/v3-periphery/contracts/libraries/PoolTicksCounter.sol\":1841:2002  ((self.tickBitmap(wordPosAfter) & (1 << bitPosAfter)) > 0) &&... */\n      dup1\n      iszero\n      tag_242\n      jumpi\n      pop\n        /* \".deps/github/Uniswap/v3-periphery/contracts/libraries/PoolTicksCounter.sol\":1992:2001  tickAfter */\n      dup12\n        /* \".deps/github/Uniswap/v3-periphery/contracts/libraries/PoolTicksCounter.sol\":1979:2001  tickBefore > tickAfter */\n      0x02\n      signextend\n        /* \".deps/github/Uniswap/v3-periphery/contracts/libraries/PoolTicksCounter.sol\":1979:1989  tickBefore */\n      dup14\n        /* \".deps/github/Uniswap/v3-periphery/contracts/libraries/PoolTicksCounter.sol\":1979:2001  tickBefore > tickAfter */\n      0x02\n      signextend\n      sgt\n        /* \".deps/github/Uniswap/v3-periphery/contracts/libraries/PoolTicksCounter.sol\":1841:2002  ((self.tickBitmap(wordPosAfter) & (1 << bitPosAfter)) > 0) &&... */\n    tag_242:\n        /* \".deps/github/Uniswap/v3-periphery/contracts/libraries/PoolTicksCounter.sol\":1802:2002  tickAfterInitialized =... */\n      swap5\n      pop\n        /* \".deps/github/Uniswap/v3-periphery/contracts/libraries/PoolTicksCounter.sol\":2312:2313  0 */\n      0x00\n        /* \".deps/github/Uniswap/v3-periphery/contracts/libraries/PoolTicksCounter.sol\":2301:2307  bitPos */\n      dup4\n        /* \".deps/github/Uniswap/v3-periphery/contracts/libraries/PoolTicksCounter.sol\":2296:2307  1 << bitPos */\n      0xff\n      and\n        /* \".deps/github/Uniswap/v3-periphery/contracts/libraries/PoolTicksCounter.sol\":2296:2297  1 */\n      0x01\n        /* \".deps/github/Uniswap/v3-periphery/contracts/libraries/PoolTicksCounter.sol\":2296:2307  1 << bitPos */\n      swap1\n      shl\n        /* \".deps/github/Uniswap/v3-periphery/contracts/libraries/PoolTicksCounter.sol\":2268:2272  self */\n      dup16\n        /* \".deps/github/Uniswap/v3-periphery/contracts/libraries/PoolTicksCounter.sol\":2268:2283  self.tickBitmap */\n      0xffffffffffffffffffffffffffffffffffffffff\n      and\n      0x5339c296\n        /* \".deps/github/Uniswap/v3-periphery/contracts/libraries/PoolTicksCounter.sol\":2284:2291  wordPos */\n      dup8\n        /* \".deps/github/Uniswap/v3-periphery/contracts/libraries/PoolTicksCounter.sol\":2268:2292  self.tickBitmap(wordPos) */\n      mload(0x40)\n      dup3\n      0xffffffff\n      and\n      0xe0\n      shl\n      dup2\n      mstore\n      0x04\n      add\n      dup1\n      dup3\n      0x01\n      signextend\n      dup2\n      mstore\n      0x20\n      add\n      swap2\n      pop\n      pop\n      0x20\n      mload(0x40)\n      dup1\n      dup4\n      sub\n      dup2\n      dup7\n      dup1\n      extcodesize\n      iszero\n      dup1\n      iszero\n      tag_243\n      jumpi\n      0x00\n      dup1\n      revert\n    tag_243:\n      pop\n      gas\n      staticcall\n      iszero\n      dup1\n      iszero\n      tag_245\n      jumpi\n      returndatasize\n      0x00\n      dup1\n      returndatacopy\n      revert(0x00, returndatasize)\n    tag_245:\n      pop\n      pop\n      pop\n      pop\n      mload(0x40)\n      returndatasize\n      0x20\n      dup2\n      lt\n      iszero\n      tag_246\n      jumpi\n      0x00\n      dup1\n      revert\n    tag_246:\n      dup2\n      add\n      swap1\n      dup1\n      dup1\n      mload\n      swap1\n      0x20\n      add\n      swap1\n      swap3\n      swap2\n      swap1\n      pop\n      pop\n      pop\n        /* \".deps/github/Uniswap/v3-periphery/contracts/libraries/PoolTicksCounter.sol\":2268:2308  self.tickBitmap(wordPos) & (1 << bitPos) */\n      and\n        /* \".deps/github/Uniswap/v3-periphery/contracts/libraries/PoolTicksCounter.sol\":2267:2313  (self.tickBitmap(wordPos) & (1 << bitPos)) > 0 */\n      gt\n        /* \".deps/github/Uniswap/v3-periphery/contracts/libraries/PoolTicksCounter.sol\":2266:2374  ((self.tickBitmap(wordPos) & (1 << bitPos)) > 0) &&... */\n      dup1\n      iszero\n      tag_247\n      jumpi\n      pop\n        /* \".deps/github/Uniswap/v3-periphery/contracts/libraries/PoolTicksCounter.sol\":2372:2373  0 */\n      0x00\n        /* \".deps/github/Uniswap/v3-periphery/contracts/libraries/PoolTicksCounter.sol\":2349:2353  self */\n      dup15\n        /* \".deps/github/Uniswap/v3-periphery/contracts/libraries/PoolTicksCounter.sol\":2349:2365  self.tickSpacing */\n      0xffffffffffffffffffffffffffffffffffffffff\n      and\n      0xd0c93a7c\n        /* \".deps/github/Uniswap/v3-periphery/contracts/libraries/PoolTicksCounter.sol\":2349:2367  self.tickSpacing() */\n      mload(0x40)\n      dup2\n      0xffffffff\n      and\n      0xe0\n      shl\n      dup2\n      mstore\n      0x04\n      add\n      0x20\n      mload(0x40)\n      dup1\n      dup4\n      sub\n      dup2\n      dup7\n      dup1\n      extcodesize\n      iszero\n      dup1\n      iszero\n      tag_248\n      jumpi\n      0x00\n      dup1\n      revert\n    tag_248:\n      pop\n      gas\n      staticcall\n      iszero\n      dup1\n      iszero\n      tag_250\n      jumpi\n      returndatasize\n      0x00\n      dup1\n      returndatacopy\n      revert(0x00, returndatasize)\n    tag_250:\n      pop\n      pop\n      pop\n      pop\n      mload(0x40)\n      returndatasize\n      0x20\n      dup2\n      lt\n      iszero\n      tag_251\n      jumpi\n      0x00\n      dup1\n      revert\n    tag_251:\n      dup2\n      add\n      swap1\n      dup1\n      dup1\n      mload\n      swap1\n      0x20\n      add\n      swap1\n      swap3\n      swap2\n      swap1\n      pop\n      pop\n      pop\n        /* \".deps/github/Uniswap/v3-periphery/contracts/libraries/PoolTicksCounter.sol\":2336:2367  tickBefore % self.tickSpacing() */\n      0x02\n      signextend\n        /* \".deps/github/Uniswap/v3-periphery/contracts/libraries/PoolTicksCounter.sol\":2336:2346  tickBefore */\n      dup15\n        /* \".deps/github/Uniswap/v3-periphery/contracts/libraries/PoolTicksCounter.sol\":2336:2367  tickBefore % self.tickSpacing() */\n      0x02\n      signextend\n      dup2\n      tag_252\n      jumpi\n      invalid\n    tag_252:\n      smod\n        /* \".deps/github/Uniswap/v3-periphery/contracts/libraries/PoolTicksCounter.sol\":2335:2373  (tickBefore % self.tickSpacing()) == 0 */\n      0x02\n      signextend\n      eq\n        /* \".deps/github/Uniswap/v3-periphery/contracts/libraries/PoolTicksCounter.sol\":2266:2374  ((self.tickBitmap(wordPos) & (1 << bitPos)) > 0) &&... */\n    tag_247:\n        /* \".deps/github/Uniswap/v3-periphery/contracts/libraries/PoolTicksCounter.sol\":2266:2418  ((self.tickBitmap(wordPos) & (1 << bitPos)) > 0) &&... */\n      dup1\n      iszero\n      tag_253\n      jumpi\n      pop\n        /* \".deps/github/Uniswap/v3-periphery/contracts/libraries/PoolTicksCounter.sol\":2408:2417  tickAfter */\n      dup12\n        /* \".deps/github/Uniswap/v3-periphery/contracts/libraries/PoolTicksCounter.sol\":2395:2417  tickBefore < tickAfter */\n      0x02\n      signextend\n        /* \".deps/github/Uniswap/v3-periphery/contracts/libraries/PoolTicksCounter.sol\":2395:2405  tickBefore */\n      dup14\n        /* \".deps/github/Uniswap/v3-periphery/contracts/libraries/PoolTicksCounter.sol\":2395:2417  tickBefore < tickAfter */\n      0x02\n      signextend\n      slt\n        /* \".deps/github/Uniswap/v3-periphery/contracts/libraries/PoolTicksCounter.sol\":2266:2418  ((self.tickBitmap(wordPos) & (1 << bitPos)) > 0) &&... */\n    tag_253:\n        /* \".deps/github/Uniswap/v3-periphery/contracts/libraries/PoolTicksCounter.sol\":2226:2418  tickBeforeInitialized =... */\n      swap6\n      pop\n        /* \".deps/github/Uniswap/v3-periphery/contracts/libraries/PoolTicksCounter.sol\":2447:2459  wordPosAfter */\n      dup2\n        /* \".deps/github/Uniswap/v3-periphery/contracts/libraries/PoolTicksCounter.sol\":2437:2459  wordPos < wordPosAfter */\n      0x01\n      signextend\n        /* \".deps/github/Uniswap/v3-periphery/contracts/libraries/PoolTicksCounter.sol\":2437:2444  wordPos */\n      dup5\n        /* \".deps/github/Uniswap/v3-periphery/contracts/libraries/PoolTicksCounter.sol\":2437:2459  wordPos < wordPosAfter */\n      0x01\n      signextend\n      slt\n        /* \".deps/github/Uniswap/v3-periphery/contracts/libraries/PoolTicksCounter.sol\":2437:2513  wordPos < wordPosAfter || (wordPos == wordPosAfter && bitPos <= bitPosAfter) */\n      dup1\n      tag_254\n      jumpi\n      pop\n        /* \".deps/github/Uniswap/v3-periphery/contracts/libraries/PoolTicksCounter.sol\":2475:2487  wordPosAfter */\n      dup2\n        /* \".deps/github/Uniswap/v3-periphery/contracts/libraries/PoolTicksCounter.sol\":2464:2487  wordPos == wordPosAfter */\n      0x01\n      signextend\n        /* \".deps/github/Uniswap/v3-periphery/contracts/libraries/PoolTicksCounter.sol\":2464:2471  wordPos */\n      dup5\n        /* \".deps/github/Uniswap/v3-periphery/contracts/libraries/PoolTicksCounter.sol\":2464:2487  wordPos == wordPosAfter */\n      0x01\n      signextend\n      eq\n        /* \".deps/github/Uniswap/v3-periphery/contracts/libraries/PoolTicksCounter.sol\":2464:2512  wordPos == wordPosAfter && bitPos <= bitPosAfter */\n      dup1\n      iszero\n      tag_255\n      jumpi\n      pop\n        /* \".deps/github/Uniswap/v3-periphery/contracts/libraries/PoolTicksCounter.sol\":2501:2512  bitPosAfter */\n      dup1\n        /* \".deps/github/Uniswap/v3-periphery/contracts/libraries/PoolTicksCounter.sol\":2491:2512  bitPos <= bitPosAfter */\n      0xff\n      and\n        /* \".deps/github/Uniswap/v3-periphery/contracts/libraries/PoolTicksCounter.sol\":2491:2497  bitPos */\n      dup4\n        /* \".deps/github/Uniswap/v3-periphery/contracts/libraries/PoolTicksCounter.sol\":2491:2512  bitPos <= bitPosAfter */\n      0xff\n      and\n      gt\n      iszero\n        /* \".deps/github/Uniswap/v3-periphery/contracts/libraries/PoolTicksCounter.sol\":2464:2512  wordPos == wordPosAfter && bitPos <= bitPosAfter */\n    tag_255:\n        /* \".deps/github/Uniswap/v3-periphery/contracts/libraries/PoolTicksCounter.sol\":2437:2513  wordPos < wordPosAfter || (wordPos == wordPosAfter && bitPos <= bitPosAfter) */\n    tag_254:\n        /* \".deps/github/Uniswap/v3-periphery/contracts/libraries/PoolTicksCounter.sol\":2433:2887  if (wordPos < wordPosAfter || (wordPos == wordPosAfter && bitPos <= bitPosAfter)) {... */\n      iszero\n      tag_256\n      jumpi\n        /* \".deps/github/Uniswap/v3-periphery/contracts/libraries/PoolTicksCounter.sol\":2548:2555  wordPos */\n      dup4\n        /* \".deps/github/Uniswap/v3-periphery/contracts/libraries/PoolTicksCounter.sol\":2533:2555  wordPosLower = wordPos */\n      swap10\n      pop\n        /* \".deps/github/Uniswap/v3-periphery/contracts/libraries/PoolTicksCounter.sol\":2587:2593  bitPos */\n      dup3\n        /* \".deps/github/Uniswap/v3-periphery/contracts/libraries/PoolTicksCounter.sol\":2573:2593  bitPosLower = bitPos */\n      swap8\n      pop\n        /* \".deps/github/Uniswap/v3-periphery/contracts/libraries/PoolTicksCounter.sol\":2627:2639  wordPosAfter */\n      dup2\n        /* \".deps/github/Uniswap/v3-periphery/contracts/libraries/PoolTicksCounter.sol\":2611:2639  wordPosHigher = wordPosAfter */\n      swap9\n      pop\n        /* \".deps/github/Uniswap/v3-periphery/contracts/libraries/PoolTicksCounter.sol\":2672:2683  bitPosAfter */\n      dup1\n        /* \".deps/github/Uniswap/v3-periphery/contracts/libraries/PoolTicksCounter.sol\":2657:2683  bitPosHigher = bitPosAfter */\n      swap7\n      pop\n        /* \".deps/github/Uniswap/v3-periphery/contracts/libraries/PoolTicksCounter.sol\":2433:2887  if (wordPos < wordPosAfter || (wordPos == wordPosAfter && bitPos <= bitPosAfter)) {... */\n      jump(tag_257)\n    tag_256:\n        /* \".deps/github/Uniswap/v3-periphery/contracts/libraries/PoolTicksCounter.sol\":2737:2749  wordPosAfter */\n      dup2\n        /* \".deps/github/Uniswap/v3-periphery/contracts/libraries/PoolTicksCounter.sol\":2722:2749  wordPosLower = wordPosAfter */\n      swap10\n      pop\n        /* \".deps/github/Uniswap/v3-periphery/contracts/libraries/PoolTicksCounter.sol\":2781:2792  bitPosAfter */\n      dup1\n        /* \".deps/github/Uniswap/v3-periphery/contracts/libraries/PoolTicksCounter.sol\":2767:2792  bitPosLower = bitPosAfter */\n      swap8\n      pop\n        /* \".deps/github/Uniswap/v3-periphery/contracts/libraries/PoolTicksCounter.sol\":2826:2833  wordPos */\n      dup4\n        /* \".deps/github/Uniswap/v3-periphery/contracts/libraries/PoolTicksCounter.sol\":2810:2833  wordPosHigher = wordPos */\n      swap9\n      pop\n        /* \".deps/github/Uniswap/v3-periphery/contracts/libraries/PoolTicksCounter.sol\":2866:2872  bitPos */\n      dup3\n        /* \".deps/github/Uniswap/v3-periphery/contracts/libraries/PoolTicksCounter.sol\":2851:2872  bitPosHigher = bitPos */\n      swap7\n      pop\n        /* \".deps/github/Uniswap/v3-periphery/contracts/libraries/PoolTicksCounter.sol\":2433:2887  if (wordPos < wordPosAfter || (wordPos == wordPosAfter && bitPos <= bitPosAfter)) {... */\n    tag_257:\n        /* \".deps/github/Uniswap/v3-periphery/contracts/libraries/PoolTicksCounter.sol\":637:3942  function countInitializedTicksCrossed(... */\n      pop\n      pop\n      pop\n      pop\n        /* \".deps/github/Uniswap/v3-periphery/contracts/libraries/PoolTicksCounter.sol\":3086:3098  uint256 mask */\n      0x00\n        /* \".deps/github/Uniswap/v3-periphery/contracts/libraries/PoolTicksCounter.sol\":3122:3133  bitPosLower */\n      dup5\n        /* \".deps/github/Uniswap/v3-periphery/contracts/libraries/PoolTicksCounter.sol\":3101:3133  type(uint256).max << bitPosLower */\n      0xff\n      and\n        /* \".deps/github/Uniswap/v3-periphery/contracts/libraries/PoolTicksCounter.sol\":3101:3118  type(uint256).max */\n      0xffffffffffffffffffffffffffffffffffffffffffffffffffffffffffffffff\n        /* \".deps/github/Uniswap/v3-periphery/contracts/libraries/PoolTicksCounter.sol\":3101:3133  type(uint256).max << bitPosLower */\n      swap1\n      shl\n        /* \".deps/github/Uniswap/v3-periphery/contracts/libraries/PoolTicksCounter.sol\":3086:3133  uint256 mask = type(uint256).max << bitPosLower */\n      swap1\n      pop\n        /* \".deps/github/Uniswap/v3-periphery/contracts/libraries/PoolTicksCounter.sol\":3143:3716  while (wordPosLower <= wordPosHigher) {... */\n    tag_258:\n        /* \".deps/github/Uniswap/v3-periphery/contracts/libraries/PoolTicksCounter.sol\":3166:3179  wordPosHigher */\n      dup6\n        /* \".deps/github/Uniswap/v3-periphery/contracts/libraries/PoolTicksCounter.sol\":3150:3179  wordPosLower <= wordPosHigher */\n      0x01\n      signextend\n        /* \".deps/github/Uniswap/v3-periphery/contracts/libraries/PoolTicksCounter.sol\":3150:3162  wordPosLower */\n      dup8\n        /* \".deps/github/Uniswap/v3-periphery/contracts/libraries/PoolTicksCounter.sol\":3150:3179  wordPosLower <= wordPosHigher */\n      0x01\n      signextend\n      sgt\n        /* \".deps/github/Uniswap/v3-periphery/contracts/libraries/PoolTicksCounter.sol\":3143:3716  while (wordPosLower <= wordPosHigher) {... */\n      tag_259\n      jumpi\n        /* \".deps/github/Uniswap/v3-periphery/contracts/libraries/PoolTicksCounter.sol\":3329:3342  wordPosHigher */\n      dup6\n        /* \".deps/github/Uniswap/v3-periphery/contracts/libraries/PoolTicksCounter.sol\":3313:3342  wordPosLower == wordPosHigher */\n      0x01\n      signextend\n        /* \".deps/github/Uniswap/v3-periphery/contracts/libraries/PoolTicksCounter.sol\":3313:3325  wordPosLower */\n      dup8\n        /* \".deps/github/Uniswap/v3-periphery/contracts/libraries/PoolTicksCounter.sol\":3313:3342  wordPosLower == wordPosHigher */\n      0x01\n      signextend\n      eq\n        /* \".deps/github/Uniswap/v3-periphery/contracts/libraries/PoolTicksCounter.sol\":3309:3434  if (wordPosLower == wordPosHigher) {... */\n      iszero\n      tag_260\n      jumpi\n        /* \".deps/github/Uniswap/v3-periphery/contracts/libraries/PoolTicksCounter.sol\":3405:3417  bitPosHigher */\n      dup4\n        /* \".deps/github/Uniswap/v3-periphery/contracts/libraries/PoolTicksCounter.sol\":3399:3402  255 */\n      0xff\n        /* \".deps/github/Uniswap/v3-periphery/contracts/libraries/PoolTicksCounter.sol\":3399:3417  255 - bitPosHigher */\n      sub\n        /* \".deps/github/Uniswap/v3-periphery/contracts/libraries/PoolTicksCounter.sol\":3377:3418  type(uint256).max >> (255 - bitPosHigher) */\n      0xff\n      and\n        /* \".deps/github/Uniswap/v3-periphery/contracts/libraries/PoolTicksCounter.sol\":3377:3394  type(uint256).max */\n      0xffffffffffffffffffffffffffffffffffffffffffffffffffffffffffffffff\n        /* \".deps/github/Uniswap/v3-periphery/contracts/libraries/PoolTicksCounter.sol\":3377:3418  type(uint256).max >> (255 - bitPosHigher) */\n      swap1\n      shr\n        /* \".deps/github/Uniswap/v3-periphery/contracts/libraries/PoolTicksCounter.sol\":3369:3373  mask */\n      dup2\n        /* \".deps/github/Uniswap/v3-periphery/contracts/libraries/PoolTicksCounter.sol\":3369:3419  mask & (type(uint256).max >> (255 - bitPosHigher)) */\n      and\n        /* \".deps/github/Uniswap/v3-periphery/contracts/libraries/PoolTicksCounter.sol\":3362:3419  mask = mask & (type(uint256).max >> (255 - bitPosHigher)) */\n      swap1\n      pop\n        /* \".deps/github/Uniswap/v3-periphery/contracts/libraries/PoolTicksCounter.sol\":3309:3434  if (wordPosLower == wordPosHigher) {... */\n    tag_260:\n        /* \".deps/github/Uniswap/v3-periphery/contracts/libraries/PoolTicksCounter.sol\":3448:3462  uint256 masked */\n      0x00\n        /* \".deps/github/Uniswap/v3-periphery/contracts/libraries/PoolTicksCounter.sol\":3497:3501  mask */\n      dup2\n        /* \".deps/github/Uniswap/v3-periphery/contracts/libraries/PoolTicksCounter.sol\":3465:3469  self */\n      dup13\n        /* \".deps/github/Uniswap/v3-periphery/contracts/libraries/PoolTicksCounter.sol\":3465:3480  self.tickBitmap */\n      0xffffffffffffffffffffffffffffffffffffffff\n      and\n      0x5339c296\n        /* \".deps/github/Uniswap/v3-periphery/contracts/libraries/PoolTicksCounter.sol\":3481:3493  wordPosLower */\n      dup11\n        /* \".deps/github/Uniswap/v3-periphery/contracts/libraries/PoolTicksCounter.sol\":3465:3494  self.tickBitmap(wordPosLower) */\n      mload(0x40)\n      dup3\n      0xffffffff\n      and\n      0xe0\n      shl\n      dup2\n      mstore\n      0x04\n      add\n      dup1\n      dup3\n      0x01\n      signextend\n      dup2\n      mstore\n      0x20\n      add\n      swap2\n      pop\n      pop\n      0x20\n      mload(0x40)\n      dup1\n      dup4\n      sub\n      dup2\n      dup7\n      dup1\n      extcodesize\n      iszero\n      dup1\n      iszero\n      tag_261\n      jumpi\n      0x00\n      dup1\n      revert\n    tag_261:\n      pop\n      gas\n      staticcall\n      iszero\n      dup1\n      iszero\n      tag_263\n      jumpi\n      returndatasize\n      0x00\n      dup1\n      returndatacopy\n      revert(0x00, returndatasize)\n    tag_263:\n      pop\n      pop\n      pop\n      pop\n      mload(0x40)\n      returndatasize\n      0x20\n      dup2\n      lt\n      iszero\n      tag_264\n      jumpi\n      0x00\n      dup1\n      revert\n    tag_264:\n      dup2\n      add\n      swap1\n      dup1\n      dup1\n      mload\n      swap1\n      0x20\n      add\n      swap1\n      swap3\n      swap2\n      swap1\n      pop\n      pop\n      pop\n        /* \".deps/github/Uniswap/v3-periphery/contracts/libraries/PoolTicksCounter.sol\":3465:3501  self.tickBitmap(wordPosLower) & mask */\n      and\n        /* \".deps/github/Uniswap/v3-periphery/contracts/libraries/PoolTicksCounter.sol\":3448:3501  uint256 masked = self.tickBitmap(wordPosLower) & mask */\n      swap1\n      pop\n        /* \".deps/github/Uniswap/v3-periphery/contracts/libraries/PoolTicksCounter.sol\":3542:3562  countOneBits(masked) */\n      tag_265\n        /* \".deps/github/Uniswap/v3-periphery/contracts/libraries/PoolTicksCounter.sol\":3555:3561  masked */\n      dup2\n        /* \".deps/github/Uniswap/v3-periphery/contracts/libraries/PoolTicksCounter.sol\":3542:3554  countOneBits */\n      tag_266\n        /* \".deps/github/Uniswap/v3-periphery/contracts/libraries/PoolTicksCounter.sol\":3542:3562  countOneBits(masked) */\n      jump\t// in\n    tag_265:\n        /* \".deps/github/Uniswap/v3-periphery/contracts/libraries/PoolTicksCounter.sol\":3515:3562  initializedTicksCrossed += countOneBits(masked) */\n      0xffff\n      and\n      dup10\n      add\n      swap9\n      pop\n        /* \".deps/github/Uniswap/v3-periphery/contracts/libraries/PoolTicksCounter.sol\":3576:3590  wordPosLower++ */\n      dup8\n      dup1\n      0x01\n      add\n      swap9\n      pop\n      pop\n        /* \".deps/github/Uniswap/v3-periphery/contracts/libraries/PoolTicksCounter.sol\":3688:3705  type(uint256).max */\n      0xffffffffffffffffffffffffffffffffffffffffffffffffffffffffffffffff\n        /* \".deps/github/Uniswap/v3-periphery/contracts/libraries/PoolTicksCounter.sol\":3681:3705  mask = type(uint256).max */\n      swap2\n      pop\n        /* \".deps/github/Uniswap/v3-periphery/contracts/libraries/PoolTicksCounter.sol\":3143:3716  while (wordPosLower <= wordPosHigher) {... */\n      pop\n      jump(tag_258)\n    tag_259:\n        /* \".deps/github/Uniswap/v3-periphery/contracts/libraries/PoolTicksCounter.sol\":3730:3750  tickAfterInitialized */\n      dup2\n        /* \".deps/github/Uniswap/v3-periphery/contracts/libraries/PoolTicksCounter.sol\":3726:3805  if (tickAfterInitialized) {... */\n      iszero\n      tag_267\n      jumpi\n        /* \".deps/github/Uniswap/v3-periphery/contracts/libraries/PoolTicksCounter.sol\":3793:3794  1 */\n      0x01\n        /* \".deps/github/Uniswap/v3-periphery/contracts/libraries/PoolTicksCounter.sol\":3766:3794  initializedTicksCrossed -= 1 */\n      dup9\n      sub\n      swap8\n      pop\n        /* \".deps/github/Uniswap/v3-periphery/contracts/libraries/PoolTicksCounter.sol\":3726:3805  if (tickAfterInitialized) {... */\n    tag_267:\n        /* \".deps/github/Uniswap/v3-periphery/contracts/libraries/PoolTicksCounter.sol\":3819:3840  tickBeforeInitialized */\n      dup3\n        /* \".deps/github/Uniswap/v3-periphery/contracts/libraries/PoolTicksCounter.sol\":3815:3895  if (tickBeforeInitialized) {... */\n      iszero\n      tag_268\n      jumpi\n        /* \".deps/github/Uniswap/v3-periphery/contracts/libraries/PoolTicksCounter.sol\":3883:3884  1 */\n      0x01\n        /* \".deps/github/Uniswap/v3-periphery/contracts/libraries/PoolTicksCounter.sol\":3856:3884  initializedTicksCrossed -= 1 */\n      dup9\n      sub\n      swap8\n      pop\n        /* \".deps/github/Uniswap/v3-periphery/contracts/libraries/PoolTicksCounter.sol\":3815:3895  if (tickBeforeInitialized) {... */\n    tag_268:\n        /* \".deps/github/Uniswap/v3-periphery/contracts/libraries/PoolTicksCounter.sol\":3905:3935  return initializedTicksCrossed */\n      pop\n      pop\n      pop\n      pop\n      pop\n      pop\n      pop\n        /* \".deps/github/Uniswap/v3-periphery/contracts/libraries/PoolTicksCounter.sol\":637:3942  function countInitializedTicksCrossed(... */\n      swap4\n      swap3\n      pop\n      pop\n      pop\n      jump\t// out\n        /* \".deps/github/Uniswap/v3-periphery/contracts/libraries/CallbackValidation.sol\":1189:1468  function verifyCallback(address factory, PoolAddress.PoolKey memory poolKey)... */\n    tag_176:\n        /* \".deps/github/Uniswap/v3-periphery/contracts/libraries/CallbackValidation.sol\":1313:1332  IUniswapV3Pool pool */\n      0x00\n        /* \".deps/github/Uniswap/v3-periphery/contracts/libraries/CallbackValidation.sol\":1370:1414  PoolAddress.computeAddress(factory, poolKey) */\n      tag_270\n        /* \".deps/github/Uniswap/v3-periphery/contracts/libraries/CallbackValidation.sol\":1397:1404  factory */\n      dup4\n        /* \".deps/github/Uniswap/v3-periphery/contracts/libraries/CallbackValidation.sol\":1406:1413  poolKey */\n      dup4\n        /* \".deps/github/Uniswap/v3-periphery/contracts/libraries/CallbackValidation.sol\":1370:1396  PoolAddress.computeAddress */\n      tag_161\n        /* \".deps/github/Uniswap/v3-periphery/contracts/libraries/CallbackValidation.sol\":1370:1414  PoolAddress.computeAddress(factory, poolKey) */\n      jump\t// in\n    tag_270:\n        /* \".deps/github/Uniswap/v3-periphery/contracts/libraries/CallbackValidation.sol\":1348:1415  pool = IUniswapV3Pool(PoolAddress.computeAddress(factory, poolKey)) */\n      swap1\n      pop\n        /* \".deps/github/Uniswap/v3-periphery/contracts/libraries/CallbackValidation.sol\":1455:1459  pool */\n      dup1\n        /* \".deps/github/Uniswap/v3-periphery/contracts/libraries/CallbackValidation.sol\":1433:1460  msg.sender == address(pool) */\n      0xffffffffffffffffffffffffffffffffffffffff\n      and\n        /* \".deps/github/Uniswap/v3-periphery/contracts/libraries/CallbackValidation.sol\":1433:1443  msg.sender */\n      caller\n        /* \".deps/github/Uniswap/v3-periphery/contracts/libraries/CallbackValidation.sol\":1433:1460  msg.sender == address(pool) */\n      0xffffffffffffffffffffffffffffffffffffffff\n      and\n      eq\n        /* \".deps/github/Uniswap/v3-periphery/contracts/libraries/CallbackValidation.sol\":1425:1461  require(msg.sender == address(pool)) */\n      tag_271\n      jumpi\n      0x00\n      dup1\n      revert\n    tag_271:\n        /* \".deps/github/Uniswap/v3-periphery/contracts/libraries/CallbackValidation.sol\":1189:1468  function verifyCallback(address factory, PoolAddress.PoolKey memory poolKey)... */\n      swap3\n      swap2\n      pop\n      pop\n      jump\t// out\n        /* \".deps/github/Uniswap/v3-periphery/contracts/libraries/PoolTicksCounter.sol\":3948:4145  function countOneBits(uint256 x) private pure returns (uint16) {... */\n    tag_266:\n        /* \".deps/github/Uniswap/v3-periphery/contracts/libraries/PoolTicksCounter.sol\":4003:4009  uint16 */\n      0x00\n        /* \".deps/github/Uniswap/v3-periphery/contracts/libraries/PoolTicksCounter.sol\":4021:4032  uint16 bits */\n      dup1\n        /* \".deps/github/Uniswap/v3-periphery/contracts/libraries/PoolTicksCounter.sol\":4035:4036  0 */\n      0x00\n        /* \".deps/github/Uniswap/v3-periphery/contracts/libraries/PoolTicksCounter.sol\":4021:4036  uint16 bits = 0 */\n      swap1\n      pop\n        /* \".deps/github/Uniswap/v3-periphery/contracts/libraries/PoolTicksCounter.sol\":4046:4118  while (x != 0) {... */\n    tag_273:\n        /* \".deps/github/Uniswap/v3-periphery/contracts/libraries/PoolTicksCounter.sol\":4058:4059  0 */\n      0x00\n        /* \".deps/github/Uniswap/v3-periphery/contracts/libraries/PoolTicksCounter.sol\":4053:4054  x */\n      dup4\n        /* \".deps/github/Uniswap/v3-periphery/contracts/libraries/PoolTicksCounter.sol\":4053:4059  x != 0 */\n      eq\n        /* \".deps/github/Uniswap/v3-periphery/contracts/libraries/PoolTicksCounter.sol\":4046:4118  while (x != 0) {... */\n      tag_274\n      jumpi\n        /* \".deps/github/Uniswap/v3-periphery/contracts/libraries/PoolTicksCounter.sol\":4075:4081  bits++ */\n      dup1\n      dup1\n      0x01\n      add\n      swap2\n      pop\n      pop\n        /* \".deps/github/Uniswap/v3-periphery/contracts/libraries/PoolTicksCounter.sol\":4105:4106  1 */\n      0x01\n        /* \".deps/github/Uniswap/v3-periphery/contracts/libraries/PoolTicksCounter.sol\":4101:4102  x */\n      dup4\n        /* \".deps/github/Uniswap/v3-periphery/contracts/libraries/PoolTicksCounter.sol\":4101:4106  x - 1 */\n      sub\n        /* \".deps/github/Uniswap/v3-periphery/contracts/libraries/PoolTicksCounter.sol\":4095:4107  x &= (x - 1) */\n      dup4\n      and\n      swap3\n      pop\n        /* \".deps/github/Uniswap/v3-periphery/contracts/libraries/PoolTicksCounter.sol\":4046:4118  while (x != 0) {... */\n      jump(tag_273)\n    tag_274:\n        /* \".deps/github/Uniswap/v3-periphery/contracts/libraries/PoolTicksCounter.sol\":4134:4138  bits */\n      dup1\n        /* \".deps/github/Uniswap/v3-periphery/contracts/libraries/PoolTicksCounter.sol\":4127:4138  return bits */\n      swap2\n      pop\n      pop\n        /* \".deps/github/Uniswap/v3-periphery/contracts/libraries/PoolTicksCounter.sol\":3948:4145  function countOneBits(uint256 x) private pure returns (uint16) {... */\n      swap2\n      swap1\n      pop\n      jump\t// out\n    tag_193:\n      mload(0x40)\n      dup1\n      0x60\n      add\n      0x40\n      mstore\n      dup1\n      and(0xffffffffffffffffffffffffffffffffffffffff, 0x00)\n      dup2\n      mstore\n      0x20\n      add\n      and(0xffffffffffffffffffffffffffffffffffffffff, 0x00)\n      dup2\n      mstore\n      0x20\n      add\n      and(0xffffff, 0x00)\n      dup2\n      mstore\n      pop\n      swap1\n      jump\t// out\n        /* \"#utility.yul\":7:349   */\n    tag_276:\n      0x00\n        /* \"#utility.yul\":109:173   */\n      tag_278\n        /* \"#utility.yul\":124:172   */\n      tag_279\n        /* \"#utility.yul\":165:171   */\n      dup5\n        /* \"#utility.yul\":124:172   */\n      tag_280\n      jump\t// in\n    tag_279:\n        /* \"#utility.yul\":109:173   */\n      tag_281\n      jump\t// in\n    tag_278:\n        /* \"#utility.yul\":100:173   */\n      swap1\n      pop\n        /* \"#utility.yul\":196:202   */\n      dup3\n        /* \"#utility.yul\":189:194   */\n      dup2\n        /* \"#utility.yul\":182:203   */\n      mstore\n        /* \"#utility.yul\":234:238   */\n      0x20\n        /* \"#utility.yul\":227:232   */\n      dup2\n        /* \"#utility.yul\":223:239   */\n      add\n        /* \"#utility.yul\":272:275   */\n      dup5\n        /* \"#utility.yul\":263:269   */\n      dup5\n        /* \"#utility.yul\":258:261   */\n      dup5\n        /* \"#utility.yul\":254:270   */\n      add\n        /* \"#utility.yul\":251:276   */\n      gt\n        /* \"#utility.yul\":248:250   */\n      iszero\n      tag_282\n      jumpi\n        /* \"#utility.yul\":289:290   */\n      0x00\n        /* \"#utility.yul\":286:287   */\n      dup1\n        /* \"#utility.yul\":279:291   */\n      revert\n        /* \"#utility.yul\":248:250   */\n    tag_282:\n        /* \"#utility.yul\":302:343   */\n      tag_283\n        /* \"#utility.yul\":336:342   */\n      dup5\n        /* \"#utility.yul\":331:334   */\n      dup3\n        /* \"#utility.yul\":326:329   */\n      dup6\n        /* \"#utility.yul\":302:343   */\n      tag_284\n      jump\t// in\n    tag_283:\n        /* \"#utility.yul\":90:349   */\n      pop\n      swap4\n      swap3\n      pop\n      pop\n      pop\n      jump\t// out\n        /* \"#utility.yul\":355:708   */\n    tag_285:\n      0x00\n        /* \"#utility.yul\":469:534   */\n      tag_287\n        /* \"#utility.yul\":484:533   */\n      tag_288\n        /* \"#utility.yul\":526:532   */\n      dup5\n        /* \"#utility.yul\":484:533   */\n      tag_289\n      jump\t// in\n    tag_288:\n        /* \"#utility.yul\":469:534   */\n      tag_281\n      jump\t// in\n    tag_287:\n        /* \"#utility.yul\":460:534   */\n      swap1\n      pop\n        /* \"#utility.yul\":557:563   */\n      dup3\n        /* \"#utility.yul\":550:555   */\n      dup2\n        /* \"#utility.yul\":543:564   */\n      mstore\n        /* \"#utility.yul\":595:599   */\n      0x20\n        /* \"#utility.yul\":588:593   */\n      dup2\n        /* \"#utility.yul\":584:600   */\n      add\n        /* \"#utility.yul\":633:636   */\n      dup5\n        /* \"#utility.yul\":624:630   */\n      dup5\n        /* \"#utility.yul\":619:622   */\n      dup5\n        /* \"#utility.yul\":615:631   */\n      add\n        /* \"#utility.yul\":612:637   */\n      gt\n        /* \"#utility.yul\":609:611   */\n      iszero\n      tag_290\n      jumpi\n        /* \"#utility.yul\":650:651   */\n      0x00\n        /* \"#utility.yul\":647:648   */\n      dup1\n        /* \"#utility.yul\":640:652   */\n      revert\n        /* \"#utility.yul\":609:611   */\n    tag_290:\n        /* \"#utility.yul\":663:702   */\n      tag_291\n        /* \"#utility.yul\":695:701   */\n      dup5\n        /* \"#utility.yul\":690:693   */\n      dup3\n        /* \"#utility.yul\":685:688   */\n      dup6\n        /* \"#utility.yul\":663:702   */\n      tag_292\n      jump\t// in\n    tag_291:\n        /* \"#utility.yul\":450:708   */\n      pop\n      swap4\n      swap3\n      pop\n      pop\n      pop\n      jump\t// out\n        /* \"#utility.yul\":714:853   */\n    tag_293:\n      0x00\n        /* \"#utility.yul\":798:804   */\n      dup2\n        /* \"#utility.yul\":785:805   */\n      calldataload\n        /* \"#utility.yul\":776:805   */\n      swap1\n      pop\n        /* \"#utility.yul\":814:847   */\n      tag_295\n        /* \"#utility.yul\":841:846   */\n      dup2\n        /* \"#utility.yul\":814:847   */\n      tag_296\n      jump\t// in\n    tag_295:\n        /* \"#utility.yul\":766:853   */\n      swap3\n      swap2\n      pop\n      pop\n      jump\t// out\n        /* \"#utility.yul\":859:996   */\n    tag_297:\n      0x00\n        /* \"#utility.yul\":944:950   */\n      dup2\n        /* \"#utility.yul\":938:951   */\n      mload\n        /* \"#utility.yul\":929:951   */\n      swap1\n      pop\n        /* \"#utility.yul\":960:990   */\n      tag_299\n        /* \"#utility.yul\":984:989   */\n      dup2\n        /* \"#utility.yul\":960:990   */\n      tag_300\n      jump\t// in\n    tag_299:\n        /* \"#utility.yul\":919:996   */\n      swap3\n      swap2\n      pop\n      pop\n      jump\t// out\n        /* \"#utility.yul\":1015:1286   */\n    tag_301:\n      0x00\n        /* \"#utility.yul\":1119:1122   */\n      dup3\n        /* \"#utility.yul\":1112:1116   */\n      0x1f\n        /* \"#utility.yul\":1104:1110   */\n      dup4\n        /* \"#utility.yul\":1100:1117   */\n      add\n        /* \"#utility.yul\":1096:1123   */\n      slt\n        /* \"#utility.yul\":1086:1088   */\n      tag_303\n      jumpi\n        /* \"#utility.yul\":1137:1138   */\n      0x00\n        /* \"#utility.yul\":1134:1135   */\n      dup1\n        /* \"#utility.yul\":1127:1139   */\n      revert\n        /* \"#utility.yul\":1086:1088   */\n    tag_303:\n        /* \"#utility.yul\":1177:1183   */\n      dup2\n        /* \"#utility.yul\":1164:1184   */\n      calldataload\n        /* \"#utility.yul\":1202:1280   */\n      tag_304\n        /* \"#utility.yul\":1276:1279   */\n      dup5\n        /* \"#utility.yul\":1268:1274   */\n      dup3\n        /* \"#utility.yul\":1261:1265   */\n      0x20\n        /* \"#utility.yul\":1253:1259   */\n      dup7\n        /* \"#utility.yul\":1249:1266   */\n      add\n        /* \"#utility.yul\":1202:1280   */\n      tag_276\n      jump\t// in\n    tag_304:\n        /* \"#utility.yul\":1193:1280   */\n      swap2\n      pop\n        /* \"#utility.yul\":1076:1286   */\n      pop\n      swap3\n      swap2\n      pop\n      pop\n      jump\t// out\n        /* \"#utility.yul\":1292:1431   */\n    tag_305:\n      0x00\n        /* \"#utility.yul\":1378:1384   */\n      dup2\n        /* \"#utility.yul\":1372:1385   */\n      mload\n        /* \"#utility.yul\":1363:1385   */\n      swap1\n      pop\n        /* \"#utility.yul\":1394:1425   */\n      tag_307\n        /* \"#utility.yul\":1419:1424   */\n      dup2\n        /* \"#utility.yul\":1394:1425   */\n      tag_308\n      jump\t// in\n    tag_307:\n        /* \"#utility.yul\":1353:1431   */\n      swap3\n      swap2\n      pop\n      pop\n      jump\t// out\n        /* \"#utility.yul\":1437:1574   */\n    tag_309:\n      0x00\n        /* \"#utility.yul\":1520:1526   */\n      dup2\n        /* \"#utility.yul\":1507:1527   */\n      calldataload\n        /* \"#utility.yul\":1498:1527   */\n      swap1\n      pop\n        /* \"#utility.yul\":1536:1568   */\n      tag_311\n        /* \"#utility.yul\":1562:1567   */\n      dup2\n        /* \"#utility.yul\":1536:1568   */\n      tag_312\n      jump\t// in\n    tag_311:\n        /* \"#utility.yul\":1488:1574   */\n      swap3\n      swap2\n      pop\n      pop\n      jump\t// out\n        /* \"#utility.yul\":1580:1721   */\n    tag_313:\n      0x00\n        /* \"#utility.yul\":1667:1673   */\n      dup2\n        /* \"#utility.yul\":1661:1674   */\n      mload\n        /* \"#utility.yul\":1652:1674   */\n      swap1\n      pop\n        /* \"#utility.yul\":1683:1715   */\n      tag_315\n        /* \"#utility.yul\":1709:1714   */\n      dup2\n        /* \"#utility.yul\":1683:1715   */\n      tag_312\n      jump\t// in\n    tag_315:\n        /* \"#utility.yul\":1642:1721   */\n      swap3\n      swap2\n      pop\n      pop\n      jump\t// out\n        /* \"#utility.yul\":1741:2029   */\n    tag_316:\n      0x00\n        /* \"#utility.yul\":1857:1860   */\n      dup3\n        /* \"#utility.yul\":1850:1854   */\n      0x1f\n        /* \"#utility.yul\":1842:1848   */\n      dup4\n        /* \"#utility.yul\":1838:1855   */\n      add\n        /* \"#utility.yul\":1834:1861   */\n      slt\n        /* \"#utility.yul\":1824:1826   */\n      tag_318\n      jumpi\n        /* \"#utility.yul\":1875:1876   */\n      0x00\n        /* \"#utility.yul\":1872:1873   */\n      dup1\n        /* \"#utility.yul\":1865:1877   */\n      revert\n        /* \"#utility.yul\":1824:1826   */\n    tag_318:\n        /* \"#utility.yul\":1908:1914   */\n      dup2\n        /* \"#utility.yul\":1902:1915   */\n      mload\n        /* \"#utility.yul\":1933:2023   */\n      tag_319\n        /* \"#utility.yul\":2019:2022   */\n      dup5\n        /* \"#utility.yul\":2011:2017   */\n      dup3\n        /* \"#utility.yul\":2004:2008   */\n      0x20\n        /* \"#utility.yul\":1996:2002   */\n      dup7\n        /* \"#utility.yul\":1992:2009   */\n      add\n        /* \"#utility.yul\":1933:2023   */\n      tag_285\n      jump\t// in\n    tag_319:\n        /* \"#utility.yul\":1924:2023   */\n      swap2\n      pop\n        /* \"#utility.yul\":1814:2029   */\n      pop\n      swap3\n      swap2\n      pop\n      pop\n      jump\t// out\n        /* \"#utility.yul\":2087:3117   */\n    tag_320:\n      0x00\n        /* \"#utility.yul\":2223:2227   */\n      0xa0\n        /* \"#utility.yul\":2211:2220   */\n      dup3\n        /* \"#utility.yul\":2206:2209   */\n      dup5\n        /* \"#utility.yul\":2202:2221   */\n      sub\n        /* \"#utility.yul\":2198:2228   */\n      slt\n        /* \"#utility.yul\":2195:2197   */\n      iszero\n      tag_322\n      jumpi\n        /* \"#utility.yul\":2241:2242   */\n      0x00\n        /* \"#utility.yul\":2238:2239   */\n      dup1\n        /* \"#utility.yul\":2231:2243   */\n      revert\n        /* \"#utility.yul\":2195:2197   */\n    tag_322:\n        /* \"#utility.yul\":2263:2283   */\n      tag_323\n        /* \"#utility.yul\":2278:2282   */\n      0xa0\n        /* \"#utility.yul\":2263:2283   */\n      tag_281\n      jump\t// in\n    tag_323:\n        /* \"#utility.yul\":2254:2283   */\n      swap1\n      pop\n        /* \"#utility.yul\":2345:2346   */\n      0x00\n        /* \"#utility.yul\":2385:2434   */\n      tag_324\n        /* \"#utility.yul\":2430:2433   */\n      dup5\n        /* \"#utility.yul\":2421:2427   */\n      dup3\n        /* \"#utility.yul\":2410:2419   */\n      dup6\n        /* \"#utility.yul\":2406:2428   */\n      add\n        /* \"#utility.yul\":2385:2434   */\n      tag_293\n      jump\t// in\n    tag_324:\n        /* \"#utility.yul\":2378:2382   */\n      0x00\n        /* \"#utility.yul\":2371:2376   */\n      dup4\n        /* \"#utility.yul\":2367:2383   */\n      add\n        /* \"#utility.yul\":2360:2435   */\n      mstore\n        /* \"#utility.yul\":2293:2446   */\n      pop\n        /* \"#utility.yul\":2509:2511   */\n      0x20\n        /* \"#utility.yul\":2550:2599   */\n      tag_325\n        /* \"#utility.yul\":2595:2598   */\n      dup5\n        /* \"#utility.yul\":2586:2592   */\n      dup3\n        /* \"#utility.yul\":2575:2584   */\n      dup6\n        /* \"#utility.yul\":2571:2593   */\n      add\n        /* \"#utility.yul\":2550:2599   */\n      tag_293\n      jump\t// in\n    tag_325:\n        /* \"#utility.yul\":2543:2547   */\n      0x20\n        /* \"#utility.yul\":2536:2541   */\n      dup4\n        /* \"#utility.yul\":2532:2548   */\n      add\n        /* \"#utility.yul\":2525:2600   */\n      mstore\n        /* \"#utility.yul\":2456:2611   */\n      pop\n        /* \"#utility.yul\":2674:2676   */\n      0x40\n        /* \"#utility.yul\":2715:2764   */\n      tag_326\n        /* \"#utility.yul\":2760:2763   */\n      dup5\n        /* \"#utility.yul\":2751:2757   */\n      dup3\n        /* \"#utility.yul\":2740:2749   */\n      dup6\n        /* \"#utility.yul\":2736:2758   */\n      add\n        /* \"#utility.yul\":2715:2764   */\n      tag_327\n      jump\t// in\n    tag_326:\n        /* \"#utility.yul\":2708:2712   */\n      0x40\n        /* \"#utility.yul\":2701:2706   */\n      dup4\n        /* \"#utility.yul\":2697:2713   */\n      add\n        /* \"#utility.yul\":2690:2765   */\n      mstore\n        /* \"#utility.yul\":2621:2776   */\n      pop\n        /* \"#utility.yul\":2834:2836   */\n      0x60\n        /* \"#utility.yul\":2875:2923   */\n      tag_328\n        /* \"#utility.yul\":2919:2922   */\n      dup5\n        /* \"#utility.yul\":2910:2916   */\n      dup3\n        /* \"#utility.yul\":2899:2908   */\n      dup6\n        /* \"#utility.yul\":2895:2917   */\n      add\n        /* \"#utility.yul\":2875:2923   */\n      tag_329\n      jump\t// in\n    tag_328:\n        /* \"#utility.yul\":2868:2872   */\n      0x60\n        /* \"#utility.yul\":2861:2866   */\n      dup4\n        /* \"#utility.yul\":2857:2873   */\n      add\n        /* \"#utility.yul\":2850:2924   */\n      mstore\n        /* \"#utility.yul\":2786:2935   */\n      pop\n        /* \"#utility.yul\":3007:3010   */\n      0x80\n        /* \"#utility.yul\":3049:3098   */\n      tag_330\n        /* \"#utility.yul\":3094:3097   */\n      dup5\n        /* \"#utility.yul\":3085:3091   */\n      dup3\n        /* \"#utility.yul\":3074:3083   */\n      dup6\n        /* \"#utility.yul\":3070:3092   */\n      add\n        /* \"#utility.yul\":3049:3098   */\n      tag_331\n      jump\t// in\n    tag_330:\n        /* \"#utility.yul\":3042:3046   */\n      0x80\n        /* \"#utility.yul\":3035:3040   */\n      dup4\n        /* \"#utility.yul\":3031:3047   */\n      add\n        /* \"#utility.yul\":3024:3099   */\n      mstore\n        /* \"#utility.yul\":2945:3110   */\n      pop\n        /* \"#utility.yul\":2185:3117   */\n      swap3\n      swap2\n      pop\n      pop\n      jump\t// out\n        /* \"#utility.yul\":3176:4206   */\n    tag_332:\n      0x00\n        /* \"#utility.yul\":3314:3318   */\n      0xa0\n        /* \"#utility.yul\":3302:3311   */\n      dup3\n        /* \"#utility.yul\":3297:3300   */\n      dup5\n        /* \"#utility.yul\":3293:3312   */\n      sub\n        /* \"#utility.yul\":3289:3319   */\n      slt\n        /* \"#utility.yul\":3286:3288   */\n      iszero\n      tag_334\n      jumpi\n        /* \"#utility.yul\":3332:3333   */\n      0x00\n        /* \"#utility.yul\":3329:3330   */\n      dup1\n        /* \"#utility.yul\":3322:3334   */\n      revert\n        /* \"#utility.yul\":3286:3288   */\n    tag_334:\n        /* \"#utility.yul\":3354:3374   */\n      tag_335\n        /* \"#utility.yul\":3369:3373   */\n      0xa0\n        /* \"#utility.yul\":3354:3374   */\n      tag_281\n      jump\t// in\n    tag_335:\n        /* \"#utility.yul\":3345:3374   */\n      swap1\n      pop\n        /* \"#utility.yul\":3436:3437   */\n      0x00\n        /* \"#utility.yul\":3476:3525   */\n      tag_336\n        /* \"#utility.yul\":3521:3524   */\n      dup5\n        /* \"#utility.yul\":3512:3518   */\n      dup3\n        /* \"#utility.yul\":3501:3510   */\n      dup6\n        /* \"#utility.yul\":3497:3519   */\n      add\n        /* \"#utility.yul\":3476:3525   */\n      tag_293\n      jump\t// in\n    tag_336:\n        /* \"#utility.yul\":3469:3473   */\n      0x00\n        /* \"#utility.yul\":3462:3467   */\n      dup4\n        /* \"#utility.yul\":3458:3474   */\n      add\n        /* \"#utility.yul\":3451:3526   */\n      mstore\n        /* \"#utility.yul\":3384:3537   */\n      pop\n        /* \"#utility.yul\":3600:3602   */\n      0x20\n        /* \"#utility.yul\":3641:3690   */\n      tag_337\n        /* \"#utility.yul\":3686:3689   */\n      dup5\n        /* \"#utility.yul\":3677:3683   */\n      dup3\n        /* \"#utility.yul\":3666:3675   */\n      dup6\n        /* \"#utility.yul\":3662:3684   */\n      add\n        /* \"#utility.yul\":3641:3690   */\n      tag_293\n      jump\t// in\n    tag_337:\n        /* \"#utility.yul\":3634:3638   */\n      0x20\n        /* \"#utility.yul\":3627:3632   */\n      dup4\n        /* \"#utility.yul\":3623:3639   */\n      add\n        /* \"#utility.yul\":3616:3691   */\n      mstore\n        /* \"#utility.yul\":3547:3702   */\n      pop\n        /* \"#utility.yul\":3763:3765   */\n      0x40\n        /* \"#utility.yul\":3804:3853   */\n      tag_338\n        /* \"#utility.yul\":3849:3852   */\n      dup5\n        /* \"#utility.yul\":3840:3846   */\n      dup3\n        /* \"#utility.yul\":3829:3838   */\n      dup6\n        /* \"#utility.yul\":3825:3847   */\n      add\n        /* \"#utility.yul\":3804:3853   */\n      tag_327\n      jump\t// in\n    tag_338:\n        /* \"#utility.yul\":3797:3801   */\n      0x40\n        /* \"#utility.yul\":3790:3795   */\n      dup4\n        /* \"#utility.yul\":3786:3802   */\n      add\n        /* \"#utility.yul\":3779:3854   */\n      mstore\n        /* \"#utility.yul\":3712:3865   */\n      pop\n        /* \"#utility.yul\":3923:3925   */\n      0x60\n        /* \"#utility.yul\":3964:4012   */\n      tag_339\n        /* \"#utility.yul\":4008:4011   */\n      dup5\n        /* \"#utility.yul\":3999:4005   */\n      dup3\n        /* \"#utility.yul\":3988:3997   */\n      dup6\n        /* \"#utility.yul\":3984:4006   */\n      add\n        /* \"#utility.yul\":3964:4012   */\n      tag_329\n      jump\t// in\n    tag_339:\n        /* \"#utility.yul\":3957:3961   */\n      0x60\n        /* \"#utility.yul\":3950:3955   */\n      dup4\n        /* \"#utility.yul\":3946:3962   */\n      add\n        /* \"#utility.yul\":3939:4013   */\n      mstore\n        /* \"#utility.yul\":3875:4024   */\n      pop\n        /* \"#utility.yul\":4096:4099   */\n      0x80\n        /* \"#utility.yul\":4138:4187   */\n      tag_340\n        /* \"#utility.yul\":4183:4186   */\n      dup5\n        /* \"#utility.yul\":4174:4180   */\n      dup3\n        /* \"#utility.yul\":4163:4172   */\n      dup6\n        /* \"#utility.yul\":4159:4181   */\n      add\n        /* \"#utility.yul\":4138:4187   */\n      tag_331\n      jump\t// in\n    tag_340:\n        /* \"#utility.yul\":4131:4135   */\n      0x80\n        /* \"#utility.yul\":4124:4129   */\n      dup4\n        /* \"#utility.yul\":4120:4136   */\n      add\n        /* \"#utility.yul\":4113:4188   */\n      mstore\n        /* \"#utility.yul\":4034:4199   */\n      pop\n        /* \"#utility.yul\":3276:4206   */\n      swap3\n      swap2\n      pop\n      pop\n      jump\t// out\n        /* \"#utility.yul\":4212:4351   */\n    tag_331:\n      0x00\n        /* \"#utility.yul\":4296:4302   */\n      dup2\n        /* \"#utility.yul\":4283:4303   */\n      calldataload\n        /* \"#utility.yul\":4274:4303   */\n      swap1\n      pop\n        /* \"#utility.yul\":4312:4345   */\n      tag_342\n        /* \"#utility.yul\":4339:4344   */\n      dup2\n        /* \"#utility.yul\":4312:4345   */\n      tag_343\n      jump\t// in\n    tag_342:\n        /* \"#utility.yul\":4264:4351   */\n      swap3\n      swap2\n      pop\n      pop\n      jump\t// out\n        /* \"#utility.yul\":4357:4500   */\n    tag_344:\n      0x00\n        /* \"#utility.yul\":4445:4451   */\n      dup2\n        /* \"#utility.yul\":4439:4452   */\n      mload\n        /* \"#utility.yul\":4430:4452   */\n      swap1\n      pop\n        /* \"#utility.yul\":4461:4494   */\n      tag_346\n        /* \"#utility.yul\":4488:4493   */\n      dup2\n        /* \"#utility.yul\":4461:4494   */\n      tag_343\n      jump\t// in\n    tag_346:\n        /* \"#utility.yul\":4420:4500   */\n      swap3\n      swap2\n      pop\n      pop\n      jump\t// out\n        /* \"#utility.yul\":4506:4647   */\n    tag_347:\n      0x00\n        /* \"#utility.yul\":4593:4599   */\n      dup2\n        /* \"#utility.yul\":4587:4600   */\n      mload\n        /* \"#utility.yul\":4578:4600   */\n      swap1\n      pop\n        /* \"#utility.yul\":4609:4641   */\n      tag_349\n        /* \"#utility.yul\":4635:4640   */\n      dup2\n        /* \"#utility.yul\":4609:4641   */\n      tag_350\n      jump\t// in\n    tag_349:\n        /* \"#utility.yul\":4568:4647   */\n      swap3\n      swap2\n      pop\n      pop\n      jump\t// out\n        /* \"#utility.yul\":4653:4790   */\n    tag_329:\n      0x00\n        /* \"#utility.yul\":4736:4742   */\n      dup2\n        /* \"#utility.yul\":4723:4743   */\n      calldataload\n        /* \"#utility.yul\":4714:4743   */\n      swap1\n      pop\n        /* \"#utility.yul\":4752:4784   */\n      tag_352\n        /* \"#utility.yul\":4778:4783   */\n      dup2\n        /* \"#utility.yul\":4752:4784   */\n      tag_353\n      jump\t// in\n    tag_352:\n        /* \"#utility.yul\":4704:4790   */\n      swap3\n      swap2\n      pop\n      pop\n      jump\t// out\n        /* \"#utility.yul\":4796:4935   */\n    tag_327:\n      0x00\n        /* \"#utility.yul\":4880:4886   */\n      dup2\n        /* \"#utility.yul\":4867:4887   */\n      calldataload\n        /* \"#utility.yul\":4858:4887   */\n      swap1\n      pop\n        /* \"#utility.yul\":4896:4929   */\n      tag_355\n        /* \"#utility.yul\":4923:4928   */\n      dup2\n        /* \"#utility.yul\":4896:4929   */\n      tag_356\n      jump\t// in\n    tag_355:\n        /* \"#utility.yul\":4848:4935   */\n      swap3\n      swap2\n      pop\n      pop\n      jump\t// out\n        /* \"#utility.yul\":4941:5084   */\n    tag_357:\n      0x00\n        /* \"#utility.yul\":5029:5035   */\n      dup2\n        /* \"#utility.yul\":5023:5036   */\n      mload\n        /* \"#utility.yul\":5014:5036   */\n      swap1\n      pop\n        /* \"#utility.yul\":5045:5078   */\n      tag_359\n        /* \"#utility.yul\":5072:5077   */\n      dup2\n        /* \"#utility.yul\":5045:5078   */\n      tag_356\n      jump\t// in\n    tag_359:\n        /* \"#utility.yul\":5004:5084   */\n      swap3\n      swap2\n      pop\n      pop\n      jump\t// out\n        /* \"#utility.yul\":5090:5229   */\n    tag_360:\n      0x00\n        /* \"#utility.yul\":5176:5182   */\n      dup2\n        /* \"#utility.yul\":5170:5183   */\n      mload\n        /* \"#utility.yul\":5161:5183   */\n      swap1\n      pop\n        /* \"#utility.yul\":5192:5223   */\n      tag_362\n        /* \"#utility.yul\":5217:5222   */\n      dup2\n        /* \"#utility.yul\":5192:5223   */\n      tag_363\n      jump\t// in\n    tag_362:\n        /* \"#utility.yul\":5151:5229   */\n      swap3\n      swap2\n      pop\n      pop\n      jump\t// out\n        /* \"#utility.yul\":5235:5753   */\n    tag_13:\n      0x00\n      dup1\n        /* \"#utility.yul\":5369:5371   */\n      0x40\n        /* \"#utility.yul\":5357:5366   */\n      dup4\n        /* \"#utility.yul\":5348:5355   */\n      dup6\n        /* \"#utility.yul\":5344:5367   */\n      sub\n        /* \"#utility.yul\":5340:5372   */\n      slt\n        /* \"#utility.yul\":5337:5339   */\n      iszero\n      tag_365\n      jumpi\n        /* \"#utility.yul\":5385:5386   */\n      0x00\n        /* \"#utility.yul\":5382:5383   */\n      dup1\n        /* \"#utility.yul\":5375:5387   */\n      revert\n        /* \"#utility.yul\":5337:5339   */\n    tag_365:\n        /* \"#utility.yul\":5456:5457   */\n      0x00\n        /* \"#utility.yul\":5445:5454   */\n      dup4\n        /* \"#utility.yul\":5441:5458   */\n      add\n        /* \"#utility.yul\":5428:5459   */\n      calldataload\n        /* \"#utility.yul\":5486:5504   */\n      0xffffffffffffffff\n        /* \"#utility.yul\":5478:5484   */\n      dup2\n        /* \"#utility.yul\":5475:5505   */\n      gt\n        /* \"#utility.yul\":5472:5474   */\n      iszero\n      tag_366\n      jumpi\n        /* \"#utility.yul\":5518:5519   */\n      0x00\n        /* \"#utility.yul\":5515:5516   */\n      dup1\n        /* \"#utility.yul\":5508:5520   */\n      revert\n        /* \"#utility.yul\":5472:5474   */\n    tag_366:\n        /* \"#utility.yul\":5546:5608   */\n      tag_367\n        /* \"#utility.yul\":5600:5607   */\n      dup6\n        /* \"#utility.yul\":5591:5597   */\n      dup3\n        /* \"#utility.yul\":5580:5589   */\n      dup7\n        /* \"#utility.yul\":5576:5598   */\n      add\n        /* \"#utility.yul\":5546:5608   */\n      tag_301\n      jump\t// in\n    tag_367:\n        /* \"#utility.yul\":5536:5608   */\n      swap3\n      pop\n        /* \"#utility.yul\":5399:5618   */\n      pop\n        /* \"#utility.yul\":5657:5659   */\n      0x20\n        /* \"#utility.yul\":5683:5736   */\n      tag_368\n        /* \"#utility.yul\":5728:5735   */\n      dup6\n        /* \"#utility.yul\":5719:5725   */\n      dup3\n        /* \"#utility.yul\":5708:5717   */\n      dup7\n        /* \"#utility.yul\":5704:5726   */\n      add\n        /* \"#utility.yul\":5683:5736   */\n      tag_327\n      jump\t// in\n    tag_368:\n        /* \"#utility.yul\":5673:5736   */\n      swap2\n      pop\n        /* \"#utility.yul\":5628:5746   */\n      pop\n        /* \"#utility.yul\":5327:5753   */\n      swap3\n      pop\n      swap3\n      swap1\n      pop\n      jump\t// out\n        /* \"#utility.yul\":5759:6195   */\n    tag_81:\n      0x00\n      dup1\n        /* \"#utility.yul\":5893:5895   */\n      0x40\n        /* \"#utility.yul\":5881:5890   */\n      dup4\n        /* \"#utility.yul\":5872:5879   */\n      dup6\n        /* \"#utility.yul\":5868:5891   */\n      sub\n        /* \"#utility.yul\":5864:5896   */\n      slt\n        /* \"#utility.yul\":5861:5863   */\n      iszero\n      tag_370\n      jumpi\n        /* \"#utility.yul\":5909:5910   */\n      0x00\n        /* \"#utility.yul\":5906:5907   */\n      dup1\n        /* \"#utility.yul\":5899:5911   */\n      revert\n        /* \"#utility.yul\":5861:5863   */\n    tag_370:\n        /* \"#utility.yul\":5952:5953   */\n      0x00\n        /* \"#utility.yul\":5977:6040   */\n      tag_371\n        /* \"#utility.yul\":6032:6039   */\n      dup6\n        /* \"#utility.yul\":6023:6029   */\n      dup3\n        /* \"#utility.yul\":6012:6021   */\n      dup7\n        /* \"#utility.yul\":6008:6030   */\n      add\n        /* \"#utility.yul\":5977:6040   */\n      tag_313\n      jump\t// in\n    tag_371:\n        /* \"#utility.yul\":5967:6040   */\n      swap3\n      pop\n        /* \"#utility.yul\":5923:6050   */\n      pop\n        /* \"#utility.yul\":6089:6091   */\n      0x20\n        /* \"#utility.yul\":6115:6178   */\n      tag_372\n        /* \"#utility.yul\":6170:6177   */\n      dup6\n        /* \"#utility.yul\":6161:6167   */\n      dup3\n        /* \"#utility.yul\":6150:6159   */\n      dup7\n        /* \"#utility.yul\":6146:6168   */\n      add\n        /* \"#utility.yul\":6115:6178   */\n      tag_313\n      jump\t// in\n    tag_372:\n        /* \"#utility.yul\":6105:6178   */\n      swap2\n      pop\n        /* \"#utility.yul\":6060:6188   */\n      pop\n        /* \"#utility.yul\":5851:6195   */\n      swap3\n      pop\n      swap3\n      swap1\n      pop\n      jump\t// out\n        /* \"#utility.yul\":6201:6860   */\n    tag_41:\n      0x00\n      dup1\n      0x00\n        /* \"#utility.yul\":6350:6352   */\n      0x60\n        /* \"#utility.yul\":6338:6347   */\n      dup5\n        /* \"#utility.yul\":6329:6336   */\n      dup7\n        /* \"#utility.yul\":6325:6348   */\n      sub\n        /* \"#utility.yul\":6321:6353   */\n      slt\n        /* \"#utility.yul\":6318:6320   */\n      iszero\n      tag_374\n      jumpi\n        /* \"#utility.yul\":6366:6367   */\n      0x00\n        /* \"#utility.yul\":6363:6364   */\n      dup1\n        /* \"#utility.yul\":6356:6368   */\n      revert\n        /* \"#utility.yul\":6318:6320   */\n    tag_374:\n        /* \"#utility.yul\":6409:6410   */\n      0x00\n        /* \"#utility.yul\":6434:6486   */\n      tag_375\n        /* \"#utility.yul\":6478:6485   */\n      dup7\n        /* \"#utility.yul\":6469:6475   */\n      dup3\n        /* \"#utility.yul\":6458:6467   */\n      dup8\n        /* \"#utility.yul\":6454:6476   */\n      add\n        /* \"#utility.yul\":6434:6486   */\n      tag_309\n      jump\t// in\n    tag_375:\n        /* \"#utility.yul\":6424:6486   */\n      swap4\n      pop\n        /* \"#utility.yul\":6380:6496   */\n      pop\n        /* \"#utility.yul\":6535:6537   */\n      0x20\n        /* \"#utility.yul\":6561:6613   */\n      tag_376\n        /* \"#utility.yul\":6605:6612   */\n      dup7\n        /* \"#utility.yul\":6596:6602   */\n      dup3\n        /* \"#utility.yul\":6585:6594   */\n      dup8\n        /* \"#utility.yul\":6581:6603   */\n      add\n        /* \"#utility.yul\":6561:6613   */\n      tag_309\n      jump\t// in\n    tag_376:\n        /* \"#utility.yul\":6551:6613   */\n      swap3\n      pop\n        /* \"#utility.yul\":6506:6623   */\n      pop\n        /* \"#utility.yul\":6690:6692   */\n      0x40\n        /* \"#utility.yul\":6679:6688   */\n      dup5\n        /* \"#utility.yul\":6675:6693   */\n      add\n        /* \"#utility.yul\":6662:6694   */\n      calldataload\n        /* \"#utility.yul\":6721:6739   */\n      0xffffffffffffffff\n        /* \"#utility.yul\":6713:6719   */\n      dup2\n        /* \"#utility.yul\":6710:6740   */\n      gt\n        /* \"#utility.yul\":6707:6709   */\n      iszero\n      tag_377\n      jumpi\n        /* \"#utility.yul\":6753:6754   */\n      0x00\n        /* \"#utility.yul\":6750:6751   */\n      dup1\n        /* \"#utility.yul\":6743:6755   */\n      revert\n        /* \"#utility.yul\":6707:6709   */\n    tag_377:\n        /* \"#utility.yul\":6781:6843   */\n      tag_378\n        /* \"#utility.yul\":6835:6842   */\n      dup7\n        /* \"#utility.yul\":6826:6832   */\n      dup3\n        /* \"#utility.yul\":6815:6824   */\n      dup8\n        /* \"#utility.yul\":6811:6833   */\n      add\n        /* \"#utility.yul\":6781:6843   */\n      tag_301\n      jump\t// in\n    tag_378:\n        /* \"#utility.yul\":6771:6843   */\n      swap2\n      pop\n        /* \"#utility.yul\":6633:6853   */\n      pop\n        /* \"#utility.yul\":6308:6860   */\n      swap3\n      pop\n      swap3\n      pop\n      swap3\n      jump\t// out\n        /* \"#utility.yul\":6866:7256   */\n    tag_204:\n      0x00\n        /* \"#utility.yul\":6995:6997   */\n      0x20\n        /* \"#utility.yul\":6983:6992   */\n      dup3\n        /* \"#utility.yul\":6974:6981   */\n      dup5\n        /* \"#utility.yul\":6970:6993   */\n      sub\n        /* \"#utility.yul\":6966:6998   */\n      slt\n        /* \"#utility.yul\":6963:6965   */\n      iszero\n      tag_380\n      jumpi\n        /* \"#utility.yul\":7011:7012   */\n      0x00\n        /* \"#utility.yul\":7008:7009   */\n      dup1\n        /* \"#utility.yul\":7001:7013   */\n      revert\n        /* \"#utility.yul\":6963:6965   */\n    tag_380:\n        /* \"#utility.yul\":7075:7076   */\n      0x00\n        /* \"#utility.yul\":7064:7073   */\n      dup3\n        /* \"#utility.yul\":7060:7077   */\n      add\n        /* \"#utility.yul\":7054:7078   */\n      mload\n        /* \"#utility.yul\":7105:7123   */\n      0xffffffffffffffff\n        /* \"#utility.yul\":7097:7103   */\n      dup2\n        /* \"#utility.yul\":7094:7124   */\n      gt\n        /* \"#utility.yul\":7091:7093   */\n      iszero\n      tag_381\n      jumpi\n        /* \"#utility.yul\":7137:7138   */\n      0x00\n        /* \"#utility.yul\":7134:7135   */\n      dup1\n        /* \"#utility.yul\":7127:7139   */\n      revert\n        /* \"#utility.yul\":7091:7093   */\n    tag_381:\n        /* \"#utility.yul\":7165:7239   */\n      tag_382\n        /* \"#utility.yul\":7231:7238   */\n      dup5\n        /* \"#utility.yul\":7222:7228   */\n      dup3\n        /* \"#utility.yul\":7211:7220   */\n      dup6\n        /* \"#utility.yul\":7207:7229   */\n      add\n        /* \"#utility.yul\":7165:7239   */\n      tag_316\n      jump\t// in\n    tag_382:\n        /* \"#utility.yul\":7155:7239   */\n      swap2\n      pop\n        /* \"#utility.yul\":7025:7249   */\n      pop\n        /* \"#utility.yul\":6953:7256   */\n      swap3\n      swap2\n      pop\n      pop\n      jump\t// out\n        /* \"#utility.yul\":7262:7611   */\n    tag_32:\n      0x00\n        /* \"#utility.yul\":7413:7416   */\n      0xa0\n        /* \"#utility.yul\":7401:7410   */\n      dup3\n        /* \"#utility.yul\":7392:7399   */\n      dup5\n        /* \"#utility.yul\":7388:7411   */\n      sub\n        /* \"#utility.yul\":7384:7417   */\n      slt\n        /* \"#utility.yul\":7381:7383   */\n      iszero\n      tag_384\n      jumpi\n        /* \"#utility.yul\":7430:7431   */\n      0x00\n        /* \"#utility.yul\":7427:7428   */\n      dup1\n        /* \"#utility.yul\":7420:7432   */\n      revert\n        /* \"#utility.yul\":7381:7383   */\n    tag_384:\n        /* \"#utility.yul\":7473:7474   */\n      0x00\n        /* \"#utility.yul\":7498:7594   */\n      tag_385\n        /* \"#utility.yul\":7586:7593   */\n      dup5\n        /* \"#utility.yul\":7577:7583   */\n      dup3\n        /* \"#utility.yul\":7566:7575   */\n      dup6\n        /* \"#utility.yul\":7562:7584   */\n      add\n        /* \"#utility.yul\":7498:7594   */\n      tag_320\n      jump\t// in\n    tag_385:\n        /* \"#utility.yul\":7488:7594   */\n      swap2\n      pop\n        /* \"#utility.yul\":7444:7604   */\n      pop\n        /* \"#utility.yul\":7371:7611   */\n      swap3\n      swap2\n      pop\n      pop\n      jump\t// out\n        /* \"#utility.yul\":7617:7970   */\n    tag_23:\n      0x00\n        /* \"#utility.yul\":7770:7773   */\n      0xa0\n        /* \"#utility.yul\":7758:7767   */\n      dup3\n        /* \"#utility.yul\":7749:7756   */\n      dup5\n        /* \"#utility.yul\":7745:7768   */\n      sub\n        /* \"#utility.yul\":7741:7774   */\n      slt\n        /* \"#utility.yul\":7738:7740   */\n      iszero\n      tag_387\n      jumpi\n        /* \"#utility.yul\":7787:7788   */\n      0x00\n        /* \"#utility.yul\":7784:7785   */\n      dup1\n        /* \"#utility.yul\":7777:7789   */\n      revert\n        /* \"#utility.yul\":7738:7740   */\n    tag_387:\n        /* \"#utility.yul\":7830:7831   */\n      0x00\n        /* \"#utility.yul\":7855:7953   */\n      tag_388\n        /* \"#utility.yul\":7945:7952   */\n      dup5\n        /* \"#utility.yul\":7936:7942   */\n      dup3\n        /* \"#utility.yul\":7925:7934   */\n      dup6\n        /* \"#utility.yul\":7921:7943   */\n      add\n        /* \"#utility.yul\":7855:7953   */\n      tag_332\n      jump\t// in\n    tag_388:\n        /* \"#utility.yul\":7845:7953   */\n      swap2\n      pop\n        /* \"#utility.yul\":7801:7963   */\n      pop\n        /* \"#utility.yul\":7728:7970   */\n      swap3\n      swap2\n      pop\n      pop\n      jump\t// out\n        /* \"#utility.yul\":7976:9180   */\n    tag_140:\n      0x00\n      dup1\n      0x00\n      dup1\n      0x00\n      dup1\n      0x00\n        /* \"#utility.yul\":8187:8190   */\n      0xe0\n        /* \"#utility.yul\":8175:8184   */\n      dup9\n        /* \"#utility.yul\":8166:8173   */\n      dup11\n        /* \"#utility.yul\":8162:8185   */\n      sub\n        /* \"#utility.yul\":8158:8191   */\n      slt\n        /* \"#utility.yul\":8155:8157   */\n      iszero\n      tag_390\n      jumpi\n        /* \"#utility.yul\":8204:8205   */\n      0x00\n        /* \"#utility.yul\":8201:8202   */\n      dup1\n        /* \"#utility.yul\":8194:8206   */\n      revert\n        /* \"#utility.yul\":8155:8157   */\n    tag_390:\n        /* \"#utility.yul\":8247:8248   */\n      0x00\n        /* \"#utility.yul\":8272:8336   */\n      tag_391\n        /* \"#utility.yul\":8328:8335   */\n      dup11\n        /* \"#utility.yul\":8319:8325   */\n      dup3\n        /* \"#utility.yul\":8308:8317   */\n      dup12\n        /* \"#utility.yul\":8304:8326   */\n      add\n        /* \"#utility.yul\":8272:8336   */\n      tag_344\n      jump\t// in\n    tag_391:\n        /* \"#utility.yul\":8262:8336   */\n      swap8\n      pop\n        /* \"#utility.yul\":8218:8346   */\n      pop\n        /* \"#utility.yul\":8385:8387   */\n      0x20\n        /* \"#utility.yul\":8411:8473   */\n      tag_392\n        /* \"#utility.yul\":8465:8472   */\n      dup11\n        /* \"#utility.yul\":8456:8462   */\n      dup3\n        /* \"#utility.yul\":8445:8454   */\n      dup12\n        /* \"#utility.yul\":8441:8463   */\n      add\n        /* \"#utility.yul\":8411:8473   */\n      tag_305\n      jump\t// in\n    tag_392:\n        /* \"#utility.yul\":8401:8473   */\n      swap7\n      pop\n        /* \"#utility.yul\":8356:8483   */\n      pop\n        /* \"#utility.yul\":8522:8524   */\n      0x40\n        /* \"#utility.yul\":8548:8611   */\n      tag_393\n        /* \"#utility.yul\":8603:8610   */\n      dup11\n        /* \"#utility.yul\":8594:8600   */\n      dup3\n        /* \"#utility.yul\":8583:8592   */\n      dup12\n        /* \"#utility.yul\":8579:8601   */\n      add\n        /* \"#utility.yul\":8548:8611   */\n      tag_347\n      jump\t// in\n    tag_393:\n        /* \"#utility.yul\":8538:8611   */\n      swap6\n      pop\n        /* \"#utility.yul\":8493:8621   */\n      pop\n        /* \"#utility.yul\":8660:8662   */\n      0x60\n        /* \"#utility.yul\":8686:8749   */\n      tag_394\n        /* \"#utility.yul\":8741:8748   */\n      dup11\n        /* \"#utility.yul\":8732:8738   */\n      dup3\n        /* \"#utility.yul\":8721:8730   */\n      dup12\n        /* \"#utility.yul\":8717:8739   */\n      add\n        /* \"#utility.yul\":8686:8749   */\n      tag_347\n      jump\t// in\n    tag_394:\n        /* \"#utility.yul\":8676:8749   */\n      swap5\n      pop\n        /* \"#utility.yul\":8631:8759   */\n      pop\n        /* \"#utility.yul\":8798:8801   */\n      0x80\n        /* \"#utility.yul\":8825:8888   */\n      tag_395\n        /* \"#utility.yul\":8880:8887   */\n      dup11\n        /* \"#utility.yul\":8871:8877   */\n      dup3\n        /* \"#utility.yul\":8860:8869   */\n      dup12\n        /* \"#utility.yul\":8856:8878   */\n      add\n        /* \"#utility.yul\":8825:8888   */\n      tag_347\n      jump\t// in\n    tag_395:\n        /* \"#utility.yul\":8815:8888   */\n      swap4\n      pop\n        /* \"#utility.yul\":8769:8898   */\n      pop\n        /* \"#utility.yul\":8937:8940   */\n      0xa0\n        /* \"#utility.yul\":8964:9026   */\n      tag_396\n        /* \"#utility.yul\":9018:9025   */\n      dup11\n        /* \"#utility.yul\":9009:9015   */\n      dup3\n        /* \"#utility.yul\":8998:9007   */\n      dup12\n        /* \"#utility.yul\":8994:9016   */\n      add\n        /* \"#utility.yul\":8964:9026   */\n      tag_360\n      jump\t// in\n    tag_396:\n        /* \"#utility.yul\":8954:9026   */\n      swap3\n      pop\n        /* \"#utility.yul\":8908:9036   */\n      pop\n        /* \"#utility.yul\":9075:9078   */\n      0xc0\n        /* \"#utility.yul\":9102:9163   */\n      tag_397\n        /* \"#utility.yul\":9155:9162   */\n      dup11\n        /* \"#utility.yul\":9146:9152   */\n      dup3\n        /* \"#utility.yul\":9135:9144   */\n      dup12\n        /* \"#utility.yul\":9131:9153   */\n      add\n        /* \"#utility.yul\":9102:9163   */\n      tag_297\n      jump\t// in\n    tag_397:\n        /* \"#utility.yul\":9092:9163   */\n      swap2\n      pop\n        /* \"#utility.yul\":9046:9173   */\n      pop\n        /* \"#utility.yul\":8145:9180   */\n      swap3\n      swap6\n      swap9\n      swap2\n      swap5\n      swap8\n      pop\n      swap3\n      swap6\n      pop\n      jump\t// out\n        /* \"#utility.yul\":9186:9778   */\n    tag_208:\n      0x00\n      dup1\n      0x00\n        /* \"#utility.yul\":9337:9339   */\n      0x60\n        /* \"#utility.yul\":9325:9334   */\n      dup5\n        /* \"#utility.yul\":9316:9323   */\n      dup7\n        /* \"#utility.yul\":9312:9335   */\n      sub\n        /* \"#utility.yul\":9308:9340   */\n      slt\n        /* \"#utility.yul\":9305:9307   */\n      iszero\n      tag_399\n      jumpi\n        /* \"#utility.yul\":9353:9354   */\n      0x00\n        /* \"#utility.yul\":9350:9351   */\n      dup1\n        /* \"#utility.yul\":9343:9355   */\n      revert\n        /* \"#utility.yul\":9305:9307   */\n    tag_399:\n        /* \"#utility.yul\":9396:9397   */\n      0x00\n        /* \"#utility.yul\":9421:9485   */\n      tag_400\n        /* \"#utility.yul\":9477:9484   */\n      dup7\n        /* \"#utility.yul\":9468:9474   */\n      dup3\n        /* \"#utility.yul\":9457:9466   */\n      dup8\n        /* \"#utility.yul\":9453:9475   */\n      add\n        /* \"#utility.yul\":9421:9485   */\n      tag_357\n      jump\t// in\n    tag_400:\n        /* \"#utility.yul\":9411:9485   */\n      swap4\n      pop\n        /* \"#utility.yul\":9367:9495   */\n      pop\n        /* \"#utility.yul\":9534:9536   */\n      0x20\n        /* \"#utility.yul\":9560:9624   */\n      tag_401\n        /* \"#utility.yul\":9616:9623   */\n      dup7\n        /* \"#utility.yul\":9607:9613   */\n      dup3\n        /* \"#utility.yul\":9596:9605   */\n      dup8\n        /* \"#utility.yul\":9592:9614   */\n      add\n        /* \"#utility.yul\":9560:9624   */\n      tag_344\n      jump\t// in\n    tag_401:\n        /* \"#utility.yul\":9550:9624   */\n      swap3\n      pop\n        /* \"#utility.yul\":9505:9634   */\n      pop\n        /* \"#utility.yul\":9673:9675   */\n      0x40\n        /* \"#utility.yul\":9699:9761   */\n      tag_402\n        /* \"#utility.yul\":9753:9760   */\n      dup7\n        /* \"#utility.yul\":9744:9750   */\n      dup3\n        /* \"#utility.yul\":9733:9742   */\n      dup8\n        /* \"#utility.yul\":9729:9751   */\n      add\n        /* \"#utility.yul\":9699:9761   */\n      tag_305\n      jump\t// in\n    tag_402:\n        /* \"#utility.yul\":9689:9761   */\n      swap2\n      pop\n        /* \"#utility.yul\":9644:9771   */\n      pop\n        /* \"#utility.yul\":9295:9778   */\n      swap3\n      pop\n      swap3\n      pop\n      swap3\n      jump\t// out\n        /* \"#utility.yul\":9784:9963   */\n    tag_403:\n      0x00\n        /* \"#utility.yul\":9874:9920   */\n      tag_405\n        /* \"#utility.yul\":9916:9919   */\n      dup4\n        /* \"#utility.yul\":9908:9914   */\n      dup4\n        /* \"#utility.yul\":9874:9920   */\n      tag_406\n      jump\t// in\n    tag_405:\n        /* \"#utility.yul\":9952:9956   */\n      0x20\n        /* \"#utility.yul\":9947:9950   */\n      dup4\n        /* \"#utility.yul\":9943:9957   */\n      add\n        /* \"#utility.yul\":9929:9957   */\n      swap1\n      pop\n        /* \"#utility.yul\":9864:9963   */\n      swap3\n      swap2\n      pop\n      pop\n      jump\t// out\n        /* \"#utility.yul\":9969:10144   */\n    tag_407:\n      0x00\n        /* \"#utility.yul\":10057:10101   */\n      tag_409\n        /* \"#utility.yul\":10097:10100   */\n      dup4\n        /* \"#utility.yul\":10089:10095   */\n      dup4\n        /* \"#utility.yul\":10057:10101   */\n      tag_410\n      jump\t// in\n    tag_409:\n        /* \"#utility.yul\":10133:10137   */\n      0x20\n        /* \"#utility.yul\":10128:10131   */\n      dup4\n        /* \"#utility.yul\":10124:10138   */\n      add\n        /* \"#utility.yul\":10110:10138   */\n      swap1\n      pop\n        /* \"#utility.yul\":10047:10144   */\n      swap3\n      swap2\n      pop\n      pop\n      jump\t// out\n        /* \"#utility.yul\":10150:10268   */\n    tag_411:\n        /* \"#utility.yul\":10237:10261   */\n      tag_413\n        /* \"#utility.yul\":10255:10260   */\n      dup2\n        /* \"#utility.yul\":10237:10261   */\n      tag_414\n      jump\t// in\n    tag_413:\n        /* \"#utility.yul\":10232:10235   */\n      dup3\n        /* \"#utility.yul\":10225:10262   */\n      mstore\n        /* \"#utility.yul\":10215:10268   */\n      pop\n      pop\n      jump\t// out\n        /* \"#utility.yul\":10274:10431   */\n    tag_415:\n        /* \"#utility.yul\":10379:10424   */\n      tag_417\n        /* \"#utility.yul\":10399:10423   */\n      tag_418\n        /* \"#utility.yul\":10417:10422   */\n      dup3\n        /* \"#utility.yul\":10399:10423   */\n      tag_414\n      jump\t// in\n    tag_418:\n        /* \"#utility.yul\":10379:10424   */\n      tag_419\n      jump\t// in\n    tag_417:\n        /* \"#utility.yul\":10374:10377   */\n      dup3\n        /* \"#utility.yul\":10367:10425   */\n      mstore\n        /* \"#utility.yul\":10357:10431   */\n      pop\n      pop\n      jump\t// out\n        /* \"#utility.yul\":10467:11199   */\n    tag_420:\n      0x00\n        /* \"#utility.yul\":10615:10669   */\n      tag_422\n        /* \"#utility.yul\":10663:10668   */\n      dup3\n        /* \"#utility.yul\":10615:10669   */\n      tag_423\n      jump\t// in\n    tag_422:\n        /* \"#utility.yul\":10685:10771   */\n      tag_424\n        /* \"#utility.yul\":10764:10770   */\n      dup2\n        /* \"#utility.yul\":10759:10762   */\n      dup6\n        /* \"#utility.yul\":10685:10771   */\n      tag_425\n      jump\t// in\n    tag_424:\n        /* \"#utility.yul\":10678:10771   */\n      swap4\n      pop\n        /* \"#utility.yul\":10795:10851   */\n      tag_426\n        /* \"#utility.yul\":10845:10850   */\n      dup4\n        /* \"#utility.yul\":10795:10851   */\n      tag_427\n      jump\t// in\n    tag_426:\n        /* \"#utility.yul\":10874:10881   */\n      dup1\n        /* \"#utility.yul\":10905:10906   */\n      0x00\n        /* \"#utility.yul\":10890:11174   */\n    tag_428:\n        /* \"#utility.yul\":10915:10921   */\n      dup4\n        /* \"#utility.yul\":10912:10913   */\n      dup2\n        /* \"#utility.yul\":10909:10922   */\n      lt\n        /* \"#utility.yul\":10890:11174   */\n      iszero\n      tag_430\n      jumpi\n        /* \"#utility.yul\":10991:10997   */\n      dup2\n        /* \"#utility.yul\":10985:10998   */\n      mload\n        /* \"#utility.yul\":11018:11081   */\n      tag_431\n        /* \"#utility.yul\":11077:11080   */\n      dup9\n        /* \"#utility.yul\":11062:11075   */\n      dup3\n        /* \"#utility.yul\":11018:11081   */\n      tag_403\n      jump\t// in\n    tag_431:\n        /* \"#utility.yul\":11011:11081   */\n      swap8\n      pop\n        /* \"#utility.yul\":11104:11164   */\n      tag_432\n        /* \"#utility.yul\":11157:11163   */\n      dup4\n        /* \"#utility.yul\":11104:11164   */\n      tag_433\n      jump\t// in\n    tag_432:\n        /* \"#utility.yul\":11094:11164   */\n      swap3\n      pop\n        /* \"#utility.yul\":10950:11174   */\n      pop\n        /* \"#utility.yul\":10937:10938   */\n      0x01\n        /* \"#utility.yul\":10934:10935   */\n      dup2\n        /* \"#utility.yul\":10930:10939   */\n      add\n        /* \"#utility.yul\":10925:10939   */\n      swap1\n      pop\n        /* \"#utility.yul\":10890:11174   */\n      jump(tag_428)\n    tag_430:\n        /* \"#utility.yul\":10894:10908   */\n      pop\n        /* \"#utility.yul\":11190:11193   */\n      dup6\n        /* \"#utility.yul\":11183:11193   */\n      swap4\n      pop\n        /* \"#utility.yul\":10591:11199   */\n      pop\n      pop\n      pop\n      swap3\n      swap2\n      pop\n      pop\n      jump\t// out\n        /* \"#utility.yul\":11233:11957   */\n    tag_434:\n      0x00\n        /* \"#utility.yul\":11379:11432   */\n      tag_436\n        /* \"#utility.yul\":11426:11431   */\n      dup3\n        /* \"#utility.yul\":11379:11432   */\n      tag_437\n      jump\t// in\n    tag_436:\n        /* \"#utility.yul\":11448:11533   */\n      tag_438\n        /* \"#utility.yul\":11526:11532   */\n      dup2\n        /* \"#utility.yul\":11521:11524   */\n      dup6\n        /* \"#utility.yul\":11448:11533   */\n      tag_439\n      jump\t// in\n    tag_438:\n        /* \"#utility.yul\":11441:11533   */\n      swap4\n      pop\n        /* \"#utility.yul\":11557:11612   */\n      tag_440\n        /* \"#utility.yul\":11606:11611   */\n      dup4\n        /* \"#utility.yul\":11557:11612   */\n      tag_441\n      jump\t// in\n    tag_440:\n        /* \"#utility.yul\":11635:11642   */\n      dup1\n        /* \"#utility.yul\":11666:11667   */\n      0x00\n        /* \"#utility.yul\":11651:11932   */\n    tag_442:\n        /* \"#utility.yul\":11676:11682   */\n      dup4\n        /* \"#utility.yul\":11673:11674   */\n      dup2\n        /* \"#utility.yul\":11670:11683   */\n      lt\n        /* \"#utility.yul\":11651:11932   */\n      iszero\n      tag_444\n      jumpi\n        /* \"#utility.yul\":11752:11758   */\n      dup2\n        /* \"#utility.yul\":11746:11759   */\n      mload\n        /* \"#utility.yul\":11779:11840   */\n      tag_445\n        /* \"#utility.yul\":11836:11839   */\n      dup9\n        /* \"#utility.yul\":11821:11834   */\n      dup3\n        /* \"#utility.yul\":11779:11840   */\n      tag_407\n      jump\t// in\n    tag_445:\n        /* \"#utility.yul\":11772:11840   */\n      swap8\n      pop\n        /* \"#utility.yul\":11863:11922   */\n      tag_446\n        /* \"#utility.yul\":11915:11921   */\n      dup4\n        /* \"#utility.yul\":11863:11922   */\n      tag_447\n      jump\t// in\n    tag_446:\n        /* \"#utility.yul\":11853:11922   */\n      swap3\n      pop\n        /* \"#utility.yul\":11711:11932   */\n      pop\n        /* \"#utility.yul\":11698:11699   */\n      0x01\n        /* \"#utility.yul\":11695:11696   */\n      dup2\n        /* \"#utility.yul\":11691:11700   */\n      add\n        /* \"#utility.yul\":11686:11700   */\n      swap1\n      pop\n        /* \"#utility.yul\":11651:11932   */\n      jump(tag_442)\n    tag_444:\n        /* \"#utility.yul\":11655:11669   */\n      pop\n        /* \"#utility.yul\":11948:11951   */\n      dup6\n        /* \"#utility.yul\":11941:11951   */\n      swap4\n      pop\n        /* \"#utility.yul\":11355:11957   */\n      pop\n      pop\n      pop\n      swap3\n      swap2\n      pop\n      pop\n      jump\t// out\n        /* \"#utility.yul\":11963:12072   */\n    tag_448:\n        /* \"#utility.yul\":12044:12065   */\n      tag_450\n        /* \"#utility.yul\":12059:12064   */\n      dup2\n        /* \"#utility.yul\":12044:12065   */\n      tag_451\n      jump\t// in\n    tag_450:\n        /* \"#utility.yul\":12039:12042   */\n      dup3\n        /* \"#utility.yul\":12032:12066   */\n      mstore\n        /* \"#utility.yul\":12022:12072   */\n      pop\n      pop\n      jump\t// out\n        /* \"#utility.yul\":12078:12438   */\n    tag_452:\n      0x00\n        /* \"#utility.yul\":12192:12230   */\n      tag_454\n        /* \"#utility.yul\":12224:12229   */\n      dup3\n        /* \"#utility.yul\":12192:12230   */\n      tag_455\n      jump\t// in\n    tag_454:\n        /* \"#utility.yul\":12246:12316   */\n      tag_456\n        /* \"#utility.yul\":12309:12315   */\n      dup2\n        /* \"#utility.yul\":12304:12307   */\n      dup6\n        /* \"#utility.yul\":12246:12316   */\n      tag_457\n      jump\t// in\n    tag_456:\n        /* \"#utility.yul\":12239:12316   */\n      swap4\n      pop\n        /* \"#utility.yul\":12325:12377   */\n      tag_458\n        /* \"#utility.yul\":12370:12376   */\n      dup2\n        /* \"#utility.yul\":12365:12368   */\n      dup6\n        /* \"#utility.yul\":12358:12362   */\n      0x20\n        /* \"#utility.yul\":12351:12356   */\n      dup7\n        /* \"#utility.yul\":12347:12363   */\n      add\n        /* \"#utility.yul\":12325:12377   */\n      tag_292\n      jump\t// in\n    tag_458:\n        /* \"#utility.yul\":12402:12431   */\n      tag_459\n        /* \"#utility.yul\":12424:12430   */\n      dup2\n        /* \"#utility.yul\":12402:12431   */\n      tag_460\n      jump\t// in\n    tag_459:\n        /* \"#utility.yul\":12397:12400   */\n      dup5\n        /* \"#utility.yul\":12393:12432   */\n      add\n        /* \"#utility.yul\":12386:12432   */\n      swap2\n      pop\n        /* \"#utility.yul\":12168:12438   */\n      pop\n      swap3\n      swap2\n      pop\n      pop\n      jump\t// out\n        /* \"#utility.yul\":12444:12559   */\n    tag_461:\n        /* \"#utility.yul\":12529:12552   */\n      tag_463\n        /* \"#utility.yul\":12546:12551   */\n      dup2\n        /* \"#utility.yul\":12529:12552   */\n      tag_464\n      jump\t// in\n    tag_463:\n        /* \"#utility.yul\":12524:12527   */\n      dup3\n        /* \"#utility.yul\":12517:12553   */\n      mstore\n        /* \"#utility.yul\":12507:12559   */\n      pop\n      pop\n      jump\t// out\n        /* \"#utility.yul\":12565:12929   */\n    tag_465:\n      0x00\n        /* \"#utility.yul\":12681:12720   */\n      tag_467\n        /* \"#utility.yul\":12714:12719   */\n      dup3\n        /* \"#utility.yul\":12681:12720   */\n      tag_468\n      jump\t// in\n    tag_467:\n        /* \"#utility.yul\":12736:12807   */\n      tag_469\n        /* \"#utility.yul\":12800:12806   */\n      dup2\n        /* \"#utility.yul\":12795:12798   */\n      dup6\n        /* \"#utility.yul\":12736:12807   */\n      tag_470\n      jump\t// in\n    tag_469:\n        /* \"#utility.yul\":12729:12807   */\n      swap4\n      pop\n        /* \"#utility.yul\":12816:12868   */\n      tag_471\n        /* \"#utility.yul\":12861:12867   */\n      dup2\n        /* \"#utility.yul\":12856:12859   */\n      dup6\n        /* \"#utility.yul\":12849:12853   */\n      0x20\n        /* \"#utility.yul\":12842:12847   */\n      dup7\n        /* \"#utility.yul\":12838:12854   */\n      add\n        /* \"#utility.yul\":12816:12868   */\n      tag_292\n      jump\t// in\n    tag_471:\n        /* \"#utility.yul\":12893:12922   */\n      tag_472\n        /* \"#utility.yul\":12915:12921   */\n      dup2\n        /* \"#utility.yul\":12893:12922   */\n      tag_460\n      jump\t// in\n    tag_472:\n        /* \"#utility.yul\":12888:12891   */\n      dup5\n        /* \"#utility.yul\":12884:12923   */\n      add\n        /* \"#utility.yul\":12877:12923   */\n      swap2\n      pop\n        /* \"#utility.yul\":12657:12929   */\n      pop\n      swap3\n      swap2\n      pop\n      pop\n      jump\t// out\n        /* \"#utility.yul\":12935:13249   */\n    tag_473:\n      0x00\n        /* \"#utility.yul\":13098:13165   */\n      tag_475\n        /* \"#utility.yul\":13162:13164   */\n      0x10\n        /* \"#utility.yul\":13157:13160   */\n      dup4\n        /* \"#utility.yul\":13098:13165   */\n      tag_470\n      jump\t// in\n    tag_475:\n        /* \"#utility.yul\":13091:13165   */\n      swap2\n      pop\n        /* \"#utility.yul\":13195:13213   */\n      0x556e6578706563746564206572726f7200000000000000000000000000000000\n        /* \"#utility.yul\":13191:13192   */\n      0x00\n        /* \"#utility.yul\":13186:13189   */\n      dup4\n        /* \"#utility.yul\":13182:13193   */\n      add\n        /* \"#utility.yul\":13175:13214   */\n      mstore\n        /* \"#utility.yul\":13240:13242   */\n      0x20\n        /* \"#utility.yul\":13235:13238   */\n      dup3\n        /* \"#utility.yul\":13231:13243   */\n      add\n        /* \"#utility.yul\":13224:13243   */\n      swap1\n      pop\n        /* \"#utility.yul\":13081:13249   */\n      swap2\n      swap1\n      pop\n      jump\t// out\n        /* \"#utility.yul\":13255:13363   */\n    tag_406:\n        /* \"#utility.yul\":13332:13356   */\n      tag_477\n        /* \"#utility.yul\":13350:13355   */\n      dup2\n        /* \"#utility.yul\":13332:13356   */\n      tag_478\n      jump\t// in\n    tag_477:\n        /* \"#utility.yul\":13327:13330   */\n      dup3\n        /* \"#utility.yul\":13320:13357   */\n      mstore\n        /* \"#utility.yul\":13310:13363   */\n      pop\n      pop\n      jump\t// out\n        /* \"#utility.yul\":13369:13487   */\n    tag_479:\n        /* \"#utility.yul\":13456:13480   */\n      tag_481\n        /* \"#utility.yul\":13474:13479   */\n      dup2\n        /* \"#utility.yul\":13456:13480   */\n      tag_478\n      jump\t// in\n    tag_481:\n        /* \"#utility.yul\":13451:13454   */\n      dup3\n        /* \"#utility.yul\":13444:13481   */\n      mstore\n        /* \"#utility.yul\":13434:13487   */\n      pop\n      pop\n      jump\t// out\n        /* \"#utility.yul\":13493:13646   */\n    tag_482:\n        /* \"#utility.yul\":13596:13639   */\n      tag_484\n        /* \"#utility.yul\":13615:13638   */\n      tag_485\n        /* \"#utility.yul\":13632:13637   */\n      dup3\n        /* \"#utility.yul\":13615:13638   */\n      tag_486\n      jump\t// in\n    tag_485:\n        /* \"#utility.yul\":13596:13639   */\n      tag_487\n      jump\t// in\n    tag_484:\n        /* \"#utility.yul\":13591:13594   */\n      dup3\n        /* \"#utility.yul\":13584:13640   */\n      mstore\n        /* \"#utility.yul\":13574:13646   */\n      pop\n      pop\n      jump\t// out\n        /* \"#utility.yul\":13652:13770   */\n    tag_488:\n        /* \"#utility.yul\":13739:13763   */\n      tag_490\n        /* \"#utility.yul\":13757:13762   */\n      dup2\n        /* \"#utility.yul\":13739:13763   */\n      tag_491\n      jump\t// in\n    tag_490:\n        /* \"#utility.yul\":13734:13737   */\n      dup3\n        /* \"#utility.yul\":13727:13764   */\n      mstore\n        /* \"#utility.yul\":13717:13770   */\n      pop\n      pop\n      jump\t// out\n        /* \"#utility.yul\":13776:13881   */\n    tag_410:\n        /* \"#utility.yul\":13851:13874   */\n      tag_493\n        /* \"#utility.yul\":13868:13873   */\n      dup2\n        /* \"#utility.yul\":13851:13874   */\n      tag_494\n      jump\t// in\n    tag_493:\n        /* \"#utility.yul\":13846:13849   */\n      dup3\n        /* \"#utility.yul\":13839:13875   */\n      mstore\n        /* \"#utility.yul\":13829:13881   */\n      pop\n      pop\n      jump\t// out\n        /* \"#utility.yul\":13887:14002   */\n    tag_495:\n        /* \"#utility.yul\":13972:13995   */\n      tag_497\n        /* \"#utility.yul\":13989:13994   */\n      dup2\n        /* \"#utility.yul\":13972:13995   */\n      tag_494\n      jump\t// in\n    tag_497:\n        /* \"#utility.yul\":13967:13970   */\n      dup3\n        /* \"#utility.yul\":13960:13996   */\n      mstore\n        /* \"#utility.yul\":13950:14002   */\n      pop\n      pop\n      jump\t// out\n        /* \"#utility.yul\":14008:14541   */\n    tag_75:\n      0x00\n        /* \"#utility.yul\":14189:14264   */\n      tag_499\n        /* \"#utility.yul\":14260:14263   */\n      dup3\n        /* \"#utility.yul\":14251:14257   */\n      dup7\n        /* \"#utility.yul\":14189:14264   */\n      tag_415\n      jump\t// in\n    tag_499:\n        /* \"#utility.yul\":14289:14291   */\n      0x14\n        /* \"#utility.yul\":14284:14287   */\n      dup3\n        /* \"#utility.yul\":14280:14292   */\n      add\n        /* \"#utility.yul\":14273:14292   */\n      swap2\n      pop\n        /* \"#utility.yul\":14302:14375   */\n      tag_500\n        /* \"#utility.yul\":14371:14374   */\n      dup3\n        /* \"#utility.yul\":14362:14368   */\n      dup6\n        /* \"#utility.yul\":14302:14375   */\n      tag_482\n      jump\t// in\n    tag_500:\n        /* \"#utility.yul\":14400:14401   */\n      0x03\n        /* \"#utility.yul\":14395:14398   */\n      dup3\n        /* \"#utility.yul\":14391:14402   */\n      add\n        /* \"#utility.yul\":14384:14402   */\n      swap2\n      pop\n        /* \"#utility.yul\":14412:14487   */\n      tag_501\n        /* \"#utility.yul\":14483:14486   */\n      dup3\n        /* \"#utility.yul\":14474:14480   */\n      dup5\n        /* \"#utility.yul\":14412:14487   */\n      tag_415\n      jump\t// in\n    tag_501:\n        /* \"#utility.yul\":14512:14514   */\n      0x14\n        /* \"#utility.yul\":14507:14510   */\n      dup3\n        /* \"#utility.yul\":14503:14515   */\n      add\n        /* \"#utility.yul\":14496:14515   */\n      swap2\n      pop\n        /* \"#utility.yul\":14532:14535   */\n      dup2\n        /* \"#utility.yul\":14525:14535   */\n      swap1\n      pop\n        /* \"#utility.yul\":14178:14541   */\n      swap5\n      swap4\n      pop\n      pop\n      pop\n      pop\n      jump\t// out\n        /* \"#utility.yul\":14547:14769   */\n    tag_20:\n      0x00\n        /* \"#utility.yul\":14678:14680   */\n      0x20\n        /* \"#utility.yul\":14667:14676   */\n      dup3\n        /* \"#utility.yul\":14663:14681   */\n      add\n        /* \"#utility.yul\":14655:14681   */\n      swap1\n      pop\n        /* \"#utility.yul\":14691:14762   */\n      tag_503\n        /* \"#utility.yul\":14759:14760   */\n      0x00\n        /* \"#utility.yul\":14748:14757   */\n      dup4\n        /* \"#utility.yul\":14744:14761   */\n      add\n        /* \"#utility.yul\":14735:14741   */\n      dup5\n        /* \"#utility.yul\":14691:14762   */\n      tag_411\n      jump\t// in\n    tag_503:\n        /* \"#utility.yul\":14645:14769   */\n      swap3\n      swap2\n      pop\n      pop\n      jump\t// out\n        /* \"#utility.yul\":14775:15510   */\n    tag_77:\n      0x00\n        /* \"#utility.yul\":15028:15031   */\n      0xa0\n        /* \"#utility.yul\":15017:15026   */\n      dup3\n        /* \"#utility.yul\":15013:15032   */\n      add\n        /* \"#utility.yul\":15005:15032   */\n      swap1\n      pop\n        /* \"#utility.yul\":15042:15113   */\n      tag_505\n        /* \"#utility.yul\":15110:15111   */\n      0x00\n        /* \"#utility.yul\":15099:15108   */\n      dup4\n        /* \"#utility.yul\":15095:15112   */\n      add\n        /* \"#utility.yul\":15086:15092   */\n      dup9\n        /* \"#utility.yul\":15042:15113   */\n      tag_411\n      jump\t// in\n    tag_505:\n        /* \"#utility.yul\":15123:15189   */\n      tag_506\n        /* \"#utility.yul\":15185:15187   */\n      0x20\n        /* \"#utility.yul\":15174:15183   */\n      dup4\n        /* \"#utility.yul\":15170:15188   */\n      add\n        /* \"#utility.yul\":15161:15167   */\n      dup8\n        /* \"#utility.yul\":15123:15189   */\n      tag_448\n      jump\t// in\n    tag_506:\n        /* \"#utility.yul\":15199:15269   */\n      tag_507\n        /* \"#utility.yul\":15265:15267   */\n      0x40\n        /* \"#utility.yul\":15254:15263   */\n      dup4\n        /* \"#utility.yul\":15250:15268   */\n      add\n        /* \"#utility.yul\":15241:15247   */\n      dup7\n        /* \"#utility.yul\":15199:15269   */\n      tag_461\n      jump\t// in\n    tag_507:\n        /* \"#utility.yul\":15279:15351   */\n      tag_508\n        /* \"#utility.yul\":15347:15349   */\n      0x60\n        /* \"#utility.yul\":15336:15345   */\n      dup4\n        /* \"#utility.yul\":15332:15350   */\n      add\n        /* \"#utility.yul\":15323:15329   */\n      dup6\n        /* \"#utility.yul\":15279:15351   */\n      tag_479\n      jump\t// in\n    tag_508:\n        /* \"#utility.yul\":15399:15408   */\n      dup2\n        /* \"#utility.yul\":15393:15397   */\n      dup2\n        /* \"#utility.yul\":15389:15409   */\n      sub\n        /* \"#utility.yul\":15383:15386   */\n      0x80\n        /* \"#utility.yul\":15372:15381   */\n      dup4\n        /* \"#utility.yul\":15368:15387   */\n      add\n        /* \"#utility.yul\":15361:15410   */\n      mstore\n        /* \"#utility.yul\":15427:15503   */\n      tag_509\n        /* \"#utility.yul\":15498:15502   */\n      dup2\n        /* \"#utility.yul\":15489:15495   */\n      dup5\n        /* \"#utility.yul\":15427:15503   */\n      tag_452\n      jump\t// in\n    tag_509:\n        /* \"#utility.yul\":15419:15503   */\n      swap1\n      pop\n        /* \"#utility.yul\":14995:15510   */\n      swap7\n      swap6\n      pop\n      pop\n      pop\n      pop\n      pop\n      pop\n      jump\t// out\n        /* \"#utility.yul\":15516:15829   */\n    tag_206:\n      0x00\n        /* \"#utility.yul\":15667:15669   */\n      0x20\n        /* \"#utility.yul\":15656:15665   */\n      dup3\n        /* \"#utility.yul\":15652:15670   */\n      add\n        /* \"#utility.yul\":15644:15670   */\n      swap1\n      pop\n        /* \"#utility.yul\":15716:15725   */\n      dup2\n        /* \"#utility.yul\":15710:15714   */\n      dup2\n        /* \"#utility.yul\":15706:15726   */\n      sub\n        /* \"#utility.yul\":15702:15703   */\n      0x00\n        /* \"#utility.yul\":15691:15700   */\n      dup4\n        /* \"#utility.yul\":15687:15704   */\n      add\n        /* \"#utility.yul\":15680:15727   */\n      mstore\n        /* \"#utility.yul\":15744:15822   */\n      tag_511\n        /* \"#utility.yul\":15817:15821   */\n      dup2\n        /* \"#utility.yul\":15808:15814   */\n      dup5\n        /* \"#utility.yul\":15744:15822   */\n      tag_465\n      jump\t// in\n    tag_511:\n        /* \"#utility.yul\":15736:15822   */\n      swap1\n      pop\n        /* \"#utility.yul\":15634:15829   */\n      swap3\n      swap2\n      pop\n      pop\n      jump\t// out\n        /* \"#utility.yul\":15835:16254   */\n    tag_202:\n      0x00\n        /* \"#utility.yul\":16039:16041   */\n      0x20\n        /* \"#utility.yul\":16028:16037   */\n      dup3\n        /* \"#utility.yul\":16024:16042   */\n      add\n        /* \"#utility.yul\":16016:16042   */\n      swap1\n      pop\n        /* \"#utility.yul\":16088:16097   */\n      dup2\n        /* \"#utility.yul\":16082:16086   */\n      dup2\n        /* \"#utility.yul\":16078:16098   */\n      sub\n        /* \"#utility.yul\":16074:16075   */\n      0x00\n        /* \"#utility.yul\":16063:16072   */\n      dup4\n        /* \"#utility.yul\":16059:16076   */\n      add\n        /* \"#utility.yul\":16052:16099   */\n      mstore\n        /* \"#utility.yul\":16116:16247   */\n      tag_513\n        /* \"#utility.yul\":16242:16246   */\n      dup2\n        /* \"#utility.yul\":16116:16247   */\n      tag_473\n      jump\t// in\n    tag_513:\n        /* \"#utility.yul\":16108:16247   */\n      swap1\n      pop\n        /* \"#utility.yul\":16006:16254   */\n      swap2\n      swap1\n      pop\n      jump\t// out\n        /* \"#utility.yul\":16260:17111   */\n    tag_16:\n      0x00\n        /* \"#utility.yul\":16573:16576   */\n      0x80\n        /* \"#utility.yul\":16562:16571   */\n      dup3\n        /* \"#utility.yul\":16558:16577   */\n      add\n        /* \"#utility.yul\":16550:16577   */\n      swap1\n      pop\n        /* \"#utility.yul\":16587:16658   */\n      tag_515\n        /* \"#utility.yul\":16655:16656   */\n      0x00\n        /* \"#utility.yul\":16644:16653   */\n      dup4\n        /* \"#utility.yul\":16640:16657   */\n      add\n        /* \"#utility.yul\":16631:16637   */\n      dup8\n        /* \"#utility.yul\":16587:16658   */\n      tag_488\n      jump\t// in\n    tag_515:\n        /* \"#utility.yul\":16705:16714   */\n      dup2\n        /* \"#utility.yul\":16699:16703   */\n      dup2\n        /* \"#utility.yul\":16695:16715   */\n      sub\n        /* \"#utility.yul\":16690:16692   */\n      0x20\n        /* \"#utility.yul\":16679:16688   */\n      dup4\n        /* \"#utility.yul\":16675:16693   */\n      add\n        /* \"#utility.yul\":16668:16716   */\n      mstore\n        /* \"#utility.yul\":16733:16841   */\n      tag_516\n        /* \"#utility.yul\":16836:16840   */\n      dup2\n        /* \"#utility.yul\":16827:16833   */\n      dup7\n        /* \"#utility.yul\":16733:16841   */\n      tag_420\n      jump\t// in\n    tag_516:\n        /* \"#utility.yul\":16725:16841   */\n      swap1\n      pop\n        /* \"#utility.yul\":16888:16897   */\n      dup2\n        /* \"#utility.yul\":16882:16886   */\n      dup2\n        /* \"#utility.yul\":16878:16898   */\n      sub\n        /* \"#utility.yul\":16873:16875   */\n      0x40\n        /* \"#utility.yul\":16862:16871   */\n      dup4\n        /* \"#utility.yul\":16858:16876   */\n      add\n        /* \"#utility.yul\":16851:16899   */\n      mstore\n        /* \"#utility.yul\":16916:17022   */\n      tag_517\n        /* \"#utility.yul\":17017:17021   */\n      dup2\n        /* \"#utility.yul\":17008:17014   */\n      dup6\n        /* \"#utility.yul\":16916:17022   */\n      tag_434\n      jump\t// in\n    tag_517:\n        /* \"#utility.yul\":16908:17022   */\n      swap1\n      pop\n        /* \"#utility.yul\":17032:17104   */\n      tag_518\n        /* \"#utility.yul\":17100:17102   */\n      0x60\n        /* \"#utility.yul\":17089:17098   */\n      dup4\n        /* \"#utility.yul\":17085:17103   */\n      add\n        /* \"#utility.yul\":17076:17082   */\n      dup5\n        /* \"#utility.yul\":17032:17104   */\n      tag_488\n      jump\t// in\n    tag_518:\n        /* \"#utility.yul\":16540:17111   */\n      swap6\n      swap5\n      pop\n      pop\n      pop\n      pop\n      pop\n      jump\t// out\n        /* \"#utility.yul\":17117:17666   */\n    tag_26:\n      0x00\n        /* \"#utility.yul\":17330:17333   */\n      0x80\n        /* \"#utility.yul\":17319:17328   */\n      dup3\n        /* \"#utility.yul\":17315:17334   */\n      add\n        /* \"#utility.yul\":17307:17334   */\n      swap1\n      pop\n        /* \"#utility.yul\":17344:17415   */\n      tag_520\n        /* \"#utility.yul\":17412:17413   */\n      0x00\n        /* \"#utility.yul\":17401:17410   */\n      dup4\n        /* \"#utility.yul\":17397:17414   */\n      add\n        /* \"#utility.yul\":17388:17394   */\n      dup8\n        /* \"#utility.yul\":17344:17415   */\n      tag_488\n      jump\t// in\n    tag_520:\n        /* \"#utility.yul\":17425:17497   */\n      tag_521\n        /* \"#utility.yul\":17493:17495   */\n      0x20\n        /* \"#utility.yul\":17482:17491   */\n      dup4\n        /* \"#utility.yul\":17478:17496   */\n      add\n        /* \"#utility.yul\":17469:17475   */\n      dup7\n        /* \"#utility.yul\":17425:17497   */\n      tag_479\n      jump\t// in\n    tag_521:\n        /* \"#utility.yul\":17507:17577   */\n      tag_522\n        /* \"#utility.yul\":17573:17575   */\n      0x40\n        /* \"#utility.yul\":17562:17571   */\n      dup4\n        /* \"#utility.yul\":17558:17576   */\n      add\n        /* \"#utility.yul\":17549:17555   */\n      dup6\n        /* \"#utility.yul\":17507:17577   */\n      tag_495\n      jump\t// in\n    tag_522:\n        /* \"#utility.yul\":17587:17659   */\n      tag_523\n        /* \"#utility.yul\":17655:17657   */\n      0x60\n        /* \"#utility.yul\":17644:17653   */\n      dup4\n        /* \"#utility.yul\":17640:17658   */\n      add\n        /* \"#utility.yul\":17631:17637   */\n      dup5\n        /* \"#utility.yul\":17587:17659   */\n      tag_488\n      jump\t// in\n    tag_523:\n        /* \"#utility.yul\":17297:17666   */\n      swap6\n      swap5\n      pop\n      pop\n      pop\n      pop\n      pop\n      jump\t// out\n        /* \"#utility.yul\":17672:17950   */\n    tag_281:\n      0x00\n        /* \"#utility.yul\":17738:17740   */\n      0x40\n        /* \"#utility.yul\":17732:17741   */\n      mload\n        /* \"#utility.yul\":17722:17741   */\n      swap1\n      pop\n        /* \"#utility.yul\":17780:17784   */\n      dup2\n        /* \"#utility.yul\":17772:17778   */\n      dup2\n        /* \"#utility.yul\":17768:17785   */\n      add\n        /* \"#utility.yul\":17887:17893   */\n      dup2\n        /* \"#utility.yul\":17875:17885   */\n      dup2\n        /* \"#utility.yul\":17872:17894   */\n      lt\n        /* \"#utility.yul\":17851:17869   */\n      0xffffffffffffffff\n        /* \"#utility.yul\":17839:17849   */\n      dup3\n        /* \"#utility.yul\":17836:17870   */\n      gt\n        /* \"#utility.yul\":17833:17895   */\n      or\n        /* \"#utility.yul\":17830:17832   */\n      iszero\n      tag_525\n      jumpi\n        /* \"#utility.yul\":17898:17911   */\n      tag_526\n      tag_527\n      jump\t// in\n    tag_526:\n        /* \"#utility.yul\":17830:17832   */\n    tag_525:\n        /* \"#utility.yul\":17933:17943   */\n      dup1\n        /* \"#utility.yul\":17929:17931   */\n      0x40\n        /* \"#utility.yul\":17922:17944   */\n      mstore\n        /* \"#utility.yul\":17712:17950   */\n      pop\n      swap2\n      swap1\n      pop\n      jump\t// out\n        /* \"#utility.yul\":17956:18282   */\n    tag_280:\n      0x00\n        /* \"#utility.yul\":18107:18125   */\n      0xffffffffffffffff\n        /* \"#utility.yul\":18099:18105   */\n      dup3\n        /* \"#utility.yul\":18096:18126   */\n      gt\n        /* \"#utility.yul\":18093:18095   */\n      iszero\n      tag_529\n      jumpi\n        /* \"#utility.yul\":18129:18142   */\n      tag_530\n      tag_527\n      jump\t// in\n    tag_530:\n        /* \"#utility.yul\":18093:18095   */\n    tag_529:\n        /* \"#utility.yul\":18209:18213   */\n      0x1f\n        /* \"#utility.yul\":18205:18214   */\n      not\n        /* \"#utility.yul\":18198:18202   */\n      0x1f\n        /* \"#utility.yul\":18190:18196   */\n      dup4\n        /* \"#utility.yul\":18186:18203   */\n      add\n        /* \"#utility.yul\":18182:18215   */\n      and\n        /* \"#utility.yul\":18174:18215   */\n      swap1\n      pop\n        /* \"#utility.yul\":18270:18274   */\n      0x20\n        /* \"#utility.yul\":18264:18268   */\n      dup2\n        /* \"#utility.yul\":18260:18275   */\n      add\n        /* \"#utility.yul\":18252:18275   */\n      swap1\n      pop\n        /* \"#utility.yul\":18022:18282   */\n      swap2\n      swap1\n      pop\n      jump\t// out\n        /* \"#utility.yul\":18288:18615   */\n    tag_289:\n      0x00\n        /* \"#utility.yul\":18440:18458   */\n      0xffffffffffffffff\n        /* \"#utility.yul\":18432:18438   */\n      dup3\n        /* \"#utility.yul\":18429:18459   */\n      gt\n        /* \"#utility.yul\":18426:18428   */\n      iszero\n      tag_532\n      jumpi\n        /* \"#utility.yul\":18462:18475   */\n      tag_533\n      tag_527\n      jump\t// in\n    tag_533:\n        /* \"#utility.yul\":18426:18428   */\n    tag_532:\n        /* \"#utility.yul\":18542:18546   */\n      0x1f\n        /* \"#utility.yul\":18538:18547   */\n      not\n        /* \"#utility.yul\":18531:18535   */\n      0x1f\n        /* \"#utility.yul\":18523:18529   */\n      dup4\n        /* \"#utility.yul\":18519:18536   */\n      add\n        /* \"#utility.yul\":18515:18548   */\n      and\n        /* \"#utility.yul\":18507:18548   */\n      swap1\n      pop\n        /* \"#utility.yul\":18603:18607   */\n      0x20\n        /* \"#utility.yul\":18597:18601   */\n      dup2\n        /* \"#utility.yul\":18593:18608   */\n      add\n        /* \"#utility.yul\":18585:18608   */\n      swap1\n      pop\n        /* \"#utility.yul\":18355:18615   */\n      swap2\n      swap1\n      pop\n      jump\t// out\n        /* \"#utility.yul\":18621:18753   */\n    tag_427:\n      0x00\n        /* \"#utility.yul\":18711:18714   */\n      dup2\n        /* \"#utility.yul\":18703:18714   */\n      swap1\n      pop\n        /* \"#utility.yul\":18741:18745   */\n      0x20\n        /* \"#utility.yul\":18736:18739   */\n      dup3\n        /* \"#utility.yul\":18732:18746   */\n      add\n        /* \"#utility.yul\":18724:18746   */\n      swap1\n      pop\n        /* \"#utility.yul\":18693:18753   */\n      swap2\n      swap1\n      pop\n      jump\t// out\n        /* \"#utility.yul\":18759:18890   */\n    tag_441:\n      0x00\n        /* \"#utility.yul\":18848:18851   */\n      dup2\n        /* \"#utility.yul\":18840:18851   */\n      swap1\n      pop\n        /* \"#utility.yul\":18878:18882   */\n      0x20\n        /* \"#utility.yul\":18873:18876   */\n      dup3\n        /* \"#utility.yul\":18869:18883   */\n      add\n        /* \"#utility.yul\":18861:18883   */\n      swap1\n      pop\n        /* \"#utility.yul\":18830:18890   */\n      swap2\n      swap1\n      pop\n      jump\t// out\n        /* \"#utility.yul\":18896:19010   */\n    tag_423:\n      0x00\n        /* \"#utility.yul\":18997:19002   */\n      dup2\n        /* \"#utility.yul\":18991:19003   */\n      mload\n        /* \"#utility.yul\":18981:19003   */\n      swap1\n      pop\n        /* \"#utility.yul\":18970:19010   */\n      swap2\n      swap1\n      pop\n      jump\t// out\n        /* \"#utility.yul\":19016:19129   */\n    tag_437:\n      0x00\n        /* \"#utility.yul\":19116:19121   */\n      dup2\n        /* \"#utility.yul\":19110:19122   */\n      mload\n        /* \"#utility.yul\":19100:19122   */\n      swap1\n      pop\n        /* \"#utility.yul\":19089:19129   */\n      swap2\n      swap1\n      pop\n      jump\t// out\n        /* \"#utility.yul\":19135:19233   */\n    tag_455:\n      0x00\n        /* \"#utility.yul\":19220:19225   */\n      dup2\n        /* \"#utility.yul\":19214:19226   */\n      mload\n        /* \"#utility.yul\":19204:19226   */\n      swap1\n      pop\n        /* \"#utility.yul\":19193:19233   */\n      swap2\n      swap1\n      pop\n      jump\t// out\n        /* \"#utility.yul\":19239:19338   */\n    tag_468:\n      0x00\n        /* \"#utility.yul\":19325:19330   */\n      dup2\n        /* \"#utility.yul\":19319:19331   */\n      mload\n        /* \"#utility.yul\":19309:19331   */\n      swap1\n      pop\n        /* \"#utility.yul\":19298:19338   */\n      swap2\n      swap1\n      pop\n      jump\t// out\n        /* \"#utility.yul\":19344:19457   */\n    tag_433:\n      0x00\n        /* \"#utility.yul\":19446:19450   */\n      0x20\n        /* \"#utility.yul\":19441:19444   */\n      dup3\n        /* \"#utility.yul\":19437:19451   */\n      add\n        /* \"#utility.yul\":19429:19451   */\n      swap1\n      pop\n        /* \"#utility.yul\":19419:19457   */\n      swap2\n      swap1\n      pop\n      jump\t// out\n        /* \"#utility.yul\":19463:19575   */\n    tag_447:\n      0x00\n        /* \"#utility.yul\":19564:19568   */\n      0x20\n        /* \"#utility.yul\":19559:19562   */\n      dup3\n        /* \"#utility.yul\":19555:19569   */\n      add\n        /* \"#utility.yul\":19547:19569   */\n      swap1\n      pop\n        /* \"#utility.yul\":19537:19575   */\n      swap2\n      swap1\n      pop\n      jump\t// out\n        /* \"#utility.yul\":19581:19765   */\n    tag_425:\n      0x00\n        /* \"#utility.yul\":19714:19720   */\n      dup3\n        /* \"#utility.yul\":19709:19712   */\n      dup3\n        /* \"#utility.yul\":19702:19721   */\n      mstore\n        /* \"#utility.yul\":19754:19758   */\n      0x20\n        /* \"#utility.yul\":19749:19752   */\n      dup3\n        /* \"#utility.yul\":19745:19759   */\n      add\n        /* \"#utility.yul\":19730:19759   */\n      swap1\n      pop\n        /* \"#utility.yul\":19692:19765   */\n      swap3\n      swap2\n      pop\n      pop\n      jump\t// out\n        /* \"#utility.yul\":19771:19954   */\n    tag_439:\n      0x00\n        /* \"#utility.yul\":19903:19909   */\n      dup3\n        /* \"#utility.yul\":19898:19901   */\n      dup3\n        /* \"#utility.yul\":19891:19910   */\n      mstore\n        /* \"#utility.yul\":19943:19947   */\n      0x20\n        /* \"#utility.yul\":19938:19941   */\n      dup3\n        /* \"#utility.yul\":19934:19948   */\n      add\n        /* \"#utility.yul\":19919:19948   */\n      swap1\n      pop\n        /* \"#utility.yul\":19881:19954   */\n      swap3\n      swap2\n      pop\n      pop\n      jump\t// out\n        /* \"#utility.yul\":19960:20128   */\n    tag_457:\n      0x00\n        /* \"#utility.yul\":20077:20083   */\n      dup3\n        /* \"#utility.yul\":20072:20075   */\n      dup3\n        /* \"#utility.yul\":20065:20084   */\n      mstore\n        /* \"#utility.yul\":20117:20121   */\n      0x20\n        /* \"#utility.yul\":20112:20115   */\n      dup3\n        /* \"#utility.yul\":20108:20122   */\n      add\n        /* \"#utility.yul\":20093:20122   */\n      swap1\n      pop\n        /* \"#utility.yul\":20055:20128   */\n      swap3\n      swap2\n      pop\n      pop\n      jump\t// out\n        /* \"#utility.yul\":20134:20303   */\n    tag_470:\n      0x00\n        /* \"#utility.yul\":20252:20258   */\n      dup3\n        /* \"#utility.yul\":20247:20250   */\n      dup3\n        /* \"#utility.yul\":20240:20259   */\n      mstore\n        /* \"#utility.yul\":20292:20296   */\n      0x20\n        /* \"#utility.yul\":20287:20290   */\n      dup3\n        /* \"#utility.yul\":20283:20297   */\n      add\n        /* \"#utility.yul\":20268:20297   */\n      swap1\n      pop\n        /* \"#utility.yul\":20230:20303   */\n      swap3\n      swap2\n      pop\n      pop\n      jump\t// out\n        /* \"#utility.yul\":20309:20405   */\n    tag_414:\n      0x00\n        /* \"#utility.yul\":20375:20399   */\n      tag_547\n        /* \"#utility.yul\":20393:20398   */\n      dup3\n        /* \"#utility.yul\":20375:20399   */\n      tag_478\n      jump\t// in\n    tag_547:\n        /* \"#utility.yul\":20364:20399   */\n      swap1\n      pop\n        /* \"#utility.yul\":20354:20405   */\n      swap2\n      swap1\n      pop\n      jump\t// out\n        /* \"#utility.yul\":20411:20501   */\n    tag_451:\n      0x00\n        /* \"#utility.yul\":20488:20493   */\n      dup2\n        /* \"#utility.yul\":20481:20494   */\n      iszero\n        /* \"#utility.yul\":20474:20495   */\n      iszero\n        /* \"#utility.yul\":20463:20495   */\n      swap1\n      pop\n        /* \"#utility.yul\":20453:20501   */\n      swap2\n      swap1\n      pop\n      jump\t// out\n        /* \"#utility.yul\":20507:20597   */\n    tag_549:\n      0x00\n        /* \"#utility.yul\":20585:20590   */\n      dup2\n        /* \"#utility.yul\":20582:20583   */\n      0x02\n        /* \"#utility.yul\":20571:20591   */\n      signextend\n        /* \"#utility.yul\":20560:20591   */\n      swap1\n      pop\n        /* \"#utility.yul\":20550:20597   */\n      swap2\n      swap1\n      pop\n      jump\t// out\n        /* \"#utility.yul\":20603:20679   */\n    tag_464:\n      0x00\n        /* \"#utility.yul\":20668:20673   */\n      dup2\n        /* \"#utility.yul\":20657:20673   */\n      swap1\n      pop\n        /* \"#utility.yul\":20647:20679   */\n      swap2\n      swap1\n      pop\n      jump\t// out\n        /* \"#utility.yul\":20685:20774   */\n    tag_552:\n      0x00\n        /* \"#utility.yul\":20761:20767   */\n      0xffff\n        /* \"#utility.yul\":20754:20759   */\n      dup3\n        /* \"#utility.yul\":20750:20768   */\n      and\n        /* \"#utility.yul\":20739:20768   */\n      swap1\n      pop\n        /* \"#utility.yul\":20729:20774   */\n      swap2\n      swap1\n      pop\n      jump\t// out\n        /* \"#utility.yul\":20780:20906   */\n    tag_478:\n      0x00\n        /* \"#utility.yul\":20857:20899   */\n      0xffffffffffffffffffffffffffffffffffffffff\n        /* \"#utility.yul\":20850:20855   */\n      dup3\n        /* \"#utility.yul\":20846:20900   */\n      and\n        /* \"#utility.yul\":20835:20900   */\n      swap1\n      pop\n        /* \"#utility.yul\":20825:20906   */\n      swap2\n      swap1\n      pop\n      jump\t// out\n        /* \"#utility.yul\":20912:21003   */\n    tag_486:\n      0x00\n        /* \"#utility.yul\":20988:20996   */\n      0xffffff\n        /* \"#utility.yul\":20981:20986   */\n      dup3\n        /* \"#utility.yul\":20977:20997   */\n      and\n        /* \"#utility.yul\":20966:20997   */\n      swap1\n      pop\n        /* \"#utility.yul\":20956:21003   */\n      swap2\n      swap1\n      pop\n      jump\t// out\n        /* \"#utility.yul\":21009:21086   */\n    tag_491:\n      0x00\n        /* \"#utility.yul\":21075:21080   */\n      dup2\n        /* \"#utility.yul\":21064:21080   */\n      swap1\n      pop\n        /* \"#utility.yul\":21054:21086   */\n      swap2\n      swap1\n      pop\n      jump\t// out\n        /* \"#utility.yul\":21092:21185   */\n    tag_494:\n      0x00\n        /* \"#utility.yul\":21168:21178   */\n      0xffffffff\n        /* \"#utility.yul\":21161:21166   */\n      dup3\n        /* \"#utility.yul\":21157:21179   */\n      and\n        /* \"#utility.yul\":21146:21179   */\n      swap1\n      pop\n        /* \"#utility.yul\":21136:21185   */\n      swap2\n      swap1\n      pop\n      jump\t// out\n        /* \"#utility.yul\":21191:21277   */\n    tag_558:\n      0x00\n        /* \"#utility.yul\":21266:21270   */\n      0xff\n        /* \"#utility.yul\":21259:21264   */\n      dup3\n        /* \"#utility.yul\":21255:21271   */\n      and\n        /* \"#utility.yul\":21244:21271   */\n      swap1\n      pop\n        /* \"#utility.yul\":21234:21277   */\n      swap2\n      swap1\n      pop\n      jump\t// out\n        /* \"#utility.yul\":21283:21437   */\n    tag_284:\n        /* \"#utility.yul\":21367:21373   */\n      dup3\n        /* \"#utility.yul\":21362:21365   */\n      dup2\n        /* \"#utility.yul\":21357:21360   */\n      dup4\n        /* \"#utility.yul\":21344:21374   */\n      calldatacopy\n        /* \"#utility.yul\":21429:21430   */\n      0x00\n        /* \"#utility.yul\":21420:21426   */\n      dup4\n        /* \"#utility.yul\":21415:21418   */\n      dup4\n        /* \"#utility.yul\":21411:21427   */\n      add\n        /* \"#utility.yul\":21404:21431   */\n      mstore\n        /* \"#utility.yul\":21334:21437   */\n      pop\n      pop\n      pop\n      jump\t// out\n        /* \"#utility.yul\":21443:21750   */\n    tag_292:\n        /* \"#utility.yul\":21511:21512   */\n      0x00\n        /* \"#utility.yul\":21521:21634   */\n    tag_562:\n        /* \"#utility.yul\":21535:21541   */\n      dup4\n        /* \"#utility.yul\":21532:21533   */\n      dup2\n        /* \"#utility.yul\":21529:21542   */\n      lt\n        /* \"#utility.yul\":21521:21634   */\n      iszero\n      tag_564\n      jumpi\n        /* \"#utility.yul\":21620:21621   */\n      dup1\n        /* \"#utility.yul\":21615:21618   */\n      dup3\n        /* \"#utility.yul\":21611:21622   */\n      add\n        /* \"#utility.yul\":21605:21623   */\n      mload\n        /* \"#utility.yul\":21601:21602   */\n      dup2\n        /* \"#utility.yul\":21596:21599   */\n      dup5\n        /* \"#utility.yul\":21592:21603   */\n      add\n        /* \"#utility.yul\":21585:21624   */\n      mstore\n        /* \"#utility.yul\":21557:21559   */\n      0x20\n        /* \"#utility.yul\":21554:21555   */\n      dup2\n        /* \"#utility.yul\":21550:21560   */\n      add\n        /* \"#utility.yul\":21545:21560   */\n      swap1\n      pop\n        /* \"#utility.yul\":21521:21634   */\n      jump(tag_562)\n    tag_564:\n        /* \"#utility.yul\":21652:21658   */\n      dup4\n        /* \"#utility.yul\":21649:21650   */\n      dup2\n        /* \"#utility.yul\":21646:21659   */\n      gt\n        /* \"#utility.yul\":21643:21645   */\n      iszero\n      tag_565\n      jumpi\n        /* \"#utility.yul\":21732:21733   */\n      0x00\n        /* \"#utility.yul\":21723:21729   */\n      dup5\n        /* \"#utility.yul\":21718:21721   */\n      dup5\n        /* \"#utility.yul\":21714:21730   */\n      add\n        /* \"#utility.yul\":21707:21734   */\n      mstore\n        /* \"#utility.yul\":21643:21645   */\n    tag_565:\n        /* \"#utility.yul\":21492:21750   */\n      pop\n      pop\n      pop\n      pop\n      jump\t// out\n        /* \"#utility.yul\":21756:21856   */\n    tag_419:\n      0x00\n        /* \"#utility.yul\":21824:21850   */\n      tag_567\n        /* \"#utility.yul\":21844:21849   */\n      dup3\n        /* \"#utility.yul\":21824:21850   */\n      tag_568\n      jump\t// in\n    tag_567:\n        /* \"#utility.yul\":21813:21850   */\n      swap1\n      pop\n        /* \"#utility.yul\":21803:21856   */\n      swap2\n      swap1\n      pop\n      jump\t// out\n        /* \"#utility.yul\":21862:21956   */\n    tag_568:\n      0x00\n        /* \"#utility.yul\":21930:21950   */\n      tag_570\n        /* \"#utility.yul\":21944:21949   */\n      dup3\n        /* \"#utility.yul\":21930:21950   */\n      tag_571\n      jump\t// in\n    tag_570:\n        /* \"#utility.yul\":21919:21950   */\n      swap1\n      pop\n        /* \"#utility.yul\":21909:21956   */\n      swap2\n      swap1\n      pop\n      jump\t// out\n        /* \"#utility.yul\":21962:22056   */\n    tag_487:\n      0x00\n        /* \"#utility.yul\":22029:22050   */\n      tag_573\n        /* \"#utility.yul\":22044:22049   */\n      dup3\n        /* \"#utility.yul\":22029:22050   */\n      tag_574\n      jump\t// in\n    tag_573:\n        /* \"#utility.yul\":22018:22050   */\n      swap1\n      pop\n        /* \"#utility.yul\":22008:22056   */\n      swap2\n      swap1\n      pop\n      jump\t// out\n        /* \"#utility.yul\":22062:22110   */\n    tag_527:\n        /* \"#utility.yul\":22095:22104   */\n      invalid\n        /* \"#utility.yul\":22116:22218   */\n    tag_460:\n      0x00\n        /* \"#utility.yul\":22208:22210   */\n      0x1f\n        /* \"#utility.yul\":22204:22211   */\n      not\n        /* \"#utility.yul\":22199:22201   */\n      0x1f\n        /* \"#utility.yul\":22192:22197   */\n      dup4\n        /* \"#utility.yul\":22188:22202   */\n      add\n        /* \"#utility.yul\":22184:22212   */\n      and\n        /* \"#utility.yul\":22174:22212   */\n      swap1\n      pop\n        /* \"#utility.yul\":22164:22218   */\n      swap2\n      swap1\n      pop\n      jump\t// out\n        /* \"#utility.yul\":22224:22320   */\n    tag_574:\n      0x00\n        /* \"#utility.yul\":22307:22312   */\n      dup2\n        /* \"#utility.yul\":22302:22305   */\n      0xe8\n        /* \"#utility.yul\":22298:22313   */\n      shl\n        /* \"#utility.yul\":22277:22313   */\n      swap1\n      pop\n        /* \"#utility.yul\":22267:22320   */\n      swap2\n      swap1\n      pop\n      jump\t// out\n        /* \"#utility.yul\":22326:22420   */\n    tag_571:\n      0x00\n        /* \"#utility.yul\":22407:22412   */\n      dup2\n        /* \"#utility.yul\":22403:22405   */\n      0x60\n        /* \"#utility.yul\":22399:22413   */\n      shl\n        /* \"#utility.yul\":22378:22413   */\n      swap1\n      pop\n        /* \"#utility.yul\":22368:22420   */\n      swap2\n      swap1\n      pop\n      jump\t// out\n        /* \"#utility.yul\":22426:22548   */\n    tag_296:\n        /* \"#utility.yul\":22499:22523   */\n      tag_580\n        /* \"#utility.yul\":22517:22522   */\n      dup2\n        /* \"#utility.yul\":22499:22523   */\n      tag_414\n      jump\t// in\n    tag_580:\n        /* \"#utility.yul\":22492:22497   */\n      dup2\n        /* \"#utility.yul\":22489:22524   */\n      eq\n        /* \"#utility.yul\":22479:22481   */\n      tag_581\n      jumpi\n        /* \"#utility.yul\":22538:22539   */\n      0x00\n        /* \"#utility.yul\":22535:22536   */\n      dup1\n        /* \"#utility.yul\":22528:22540   */\n      revert\n        /* \"#utility.yul\":22479:22481   */\n    tag_581:\n        /* \"#utility.yul\":22469:22548   */\n      pop\n      jump\t// out\n        /* \"#utility.yul\":22554:22670   */\n    tag_300:\n        /* \"#utility.yul\":22624:22645   */\n      tag_583\n        /* \"#utility.yul\":22639:22644   */\n      dup2\n        /* \"#utility.yul\":22624:22645   */\n      tag_451\n      jump\t// in\n    tag_583:\n        /* \"#utility.yul\":22617:22622   */\n      dup2\n        /* \"#utility.yul\":22614:22646   */\n      eq\n        /* \"#utility.yul\":22604:22606   */\n      tag_584\n      jumpi\n        /* \"#utility.yul\":22660:22661   */\n      0x00\n        /* \"#utility.yul\":22657:22658   */\n      dup1\n        /* \"#utility.yul\":22650:22662   */\n      revert\n        /* \"#utility.yul\":22604:22606   */\n    tag_584:\n        /* \"#utility.yul\":22594:22670   */\n      pop\n      jump\t// out\n        /* \"#utility.yul\":22676:22794   */\n    tag_308:\n        /* \"#utility.yul\":22747:22769   */\n      tag_586\n        /* \"#utility.yul\":22763:22768   */\n      dup2\n        /* \"#utility.yul\":22747:22769   */\n      tag_549\n      jump\t// in\n    tag_586:\n        /* \"#utility.yul\":22740:22745   */\n      dup2\n        /* \"#utility.yul\":22737:22770   */\n      eq\n        /* \"#utility.yul\":22727:22729   */\n      tag_587\n      jumpi\n        /* \"#utility.yul\":22784:22785   */\n      0x00\n        /* \"#utility.yul\":22781:22782   */\n      dup1\n        /* \"#utility.yul\":22774:22786   */\n      revert\n        /* \"#utility.yul\":22727:22729   */\n    tag_587:\n        /* \"#utility.yul\":22717:22794   */\n      pop\n      jump\t// out\n        /* \"#utility.yul\":22800:22920   */\n    tag_312:\n        /* \"#utility.yul\":22872:22895   */\n      tag_589\n        /* \"#utility.yul\":22889:22894   */\n      dup2\n        /* \"#utility.yul\":22872:22895   */\n      tag_464\n      jump\t// in\n    tag_589:\n        /* \"#utility.yul\":22865:22870   */\n      dup2\n        /* \"#utility.yul\":22862:22896   */\n      eq\n        /* \"#utility.yul\":22852:22854   */\n      tag_590\n      jumpi\n        /* \"#utility.yul\":22910:22911   */\n      0x00\n        /* \"#utility.yul\":22907:22908   */\n      dup1\n        /* \"#utility.yul\":22900:22912   */\n      revert\n        /* \"#utility.yul\":22852:22854   */\n    tag_590:\n        /* \"#utility.yul\":22842:22920   */\n      pop\n      jump\t// out\n        /* \"#utility.yul\":22926:23046   */\n    tag_350:\n        /* \"#utility.yul\":22998:23021   */\n      tag_592\n        /* \"#utility.yul\":23015:23020   */\n      dup2\n        /* \"#utility.yul\":22998:23021   */\n      tag_552\n      jump\t// in\n    tag_592:\n        /* \"#utility.yul\":22991:22996   */\n      dup2\n        /* \"#utility.yul\":22988:23022   */\n      eq\n        /* \"#utility.yul\":22978:22980   */\n      tag_593\n      jumpi\n        /* \"#utility.yul\":23036:23037   */\n      0x00\n        /* \"#utility.yul\":23033:23034   */\n      dup1\n        /* \"#utility.yul\":23026:23038   */\n      revert\n        /* \"#utility.yul\":22978:22980   */\n    tag_593:\n        /* \"#utility.yul\":22968:23046   */\n      pop\n      jump\t// out\n        /* \"#utility.yul\":23052:23174   */\n    tag_343:\n        /* \"#utility.yul\":23125:23149   */\n      tag_595\n        /* \"#utility.yul\":23143:23148   */\n      dup2\n        /* \"#utility.yul\":23125:23149   */\n      tag_478\n      jump\t// in\n    tag_595:\n        /* \"#utility.yul\":23118:23123   */\n      dup2\n        /* \"#utility.yul\":23115:23150   */\n      eq\n        /* \"#utility.yul\":23105:23107   */\n      tag_596\n      jumpi\n        /* \"#utility.yul\":23164:23165   */\n      0x00\n        /* \"#utility.yul\":23161:23162   */\n      dup1\n        /* \"#utility.yul\":23154:23166   */\n      revert\n        /* \"#utility.yul\":23105:23107   */\n    tag_596:\n        /* \"#utility.yul\":23095:23174   */\n      pop\n      jump\t// out\n        /* \"#utility.yul\":23180:23300   */\n    tag_353:\n        /* \"#utility.yul\":23252:23275   */\n      tag_598\n        /* \"#utility.yul\":23269:23274   */\n      dup2\n        /* \"#utility.yul\":23252:23275   */\n      tag_486\n      jump\t// in\n    tag_598:\n        /* \"#utility.yul\":23245:23250   */\n      dup2\n        /* \"#utility.yul\":23242:23276   */\n      eq\n        /* \"#utility.yul\":23232:23234   */\n      tag_599\n      jumpi\n        /* \"#utility.yul\":23290:23291   */\n      0x00\n        /* \"#utility.yul\":23287:23288   */\n      dup1\n        /* \"#utility.yul\":23280:23292   */\n      revert\n        /* \"#utility.yul\":23232:23234   */\n    tag_599:\n        /* \"#utility.yul\":23222:23300   */\n      pop\n      jump\t// out\n        /* \"#utility.yul\":23306:23428   */\n    tag_356:\n        /* \"#utility.yul\":23379:23403   */\n      tag_601\n        /* \"#utility.yul\":23397:23402   */\n      dup2\n        /* \"#utility.yul\":23379:23403   */\n      tag_491\n      jump\t// in\n    tag_601:\n        /* \"#utility.yul\":23372:23377   */\n      dup2\n        /* \"#utility.yul\":23369:23404   */\n      eq\n        /* \"#utility.yul\":23359:23361   */\n      tag_602\n      jumpi\n        /* \"#utility.yul\":23418:23419   */\n      0x00\n        /* \"#utility.yul\":23415:23416   */\n      dup1\n        /* \"#utility.yul\":23408:23420   */\n      revert\n        /* \"#utility.yul\":23359:23361   */\n    tag_602:\n        /* \"#utility.yul\":23349:23428   */\n      pop\n      jump\t// out\n        /* \"#utility.yul\":23434:23552   */\n    tag_363:\n        /* \"#utility.yul\":23505:23527   */\n      tag_604\n        /* \"#utility.yul\":23521:23526   */\n      dup2\n        /* \"#utility.yul\":23505:23527   */\n      tag_558\n      jump\t// in\n    tag_604:\n        /* \"#utility.yul\":23498:23503   */\n      dup2\n        /* \"#utility.yul\":23495:23528   */\n      eq\n        /* \"#utility.yul\":23485:23487   */\n      tag_605\n      jumpi\n        /* \"#utility.yul\":23542:23543   */\n      0x00\n        /* \"#utility.yul\":23539:23540   */\n      dup1\n        /* \"#utility.yul\":23532:23544   */\n      revert\n        /* \"#utility.yul\":23485:23487   */\n    tag_605:\n        /* \"#utility.yul\":23475:23552   */\n      pop\n      jump\t// out\n\n    auxdata: 0xa2646970667358221220fe4409c77535903b92bab013cbc24cc06a05d608cccda9e76cdd9de4772c353764736f6c63430007060033\n}\n",
				"bytecode": {
					"linkReferences": {},
					"object": "60c06040523480156200001157600080fd5b5060405162002ad238038062002ad28339818101604052810190620000379190620000c8565b81818173ffffffffffffffffffffffffffffffffffffffff1660808173ffffffffffffffffffffffffffffffffffffffff1660601b815250508073ffffffffffffffffffffffffffffffffffffffff1660a08173ffffffffffffffffffffffffffffffffffffffff1660601b815250505050505062000157565b600081519050620000c2816200013d565b92915050565b60008060408385031215620000dc57600080fd5b6000620000ec85828601620000b1565b9250506020620000ff85828601620000b1565b9150509250929050565b600062000116826200011d565b9050919050565b600073ffffffffffffffffffffffffffffffffffffffff82169050919050565b620001488162000109565b81146200015457600080fd5b50565b60805160601c60a05160601c6129476200018b600039806103b75250806106185280610a5d5280610ca152506129476000f3fe608060405234801561001057600080fd5b506004361061007d5760003560e01c8063c45a01551161005b578063c45a015514610106578063c6a5026a14610124578063cdca175314610157578063fa461e331461018a5761007d565b80632f80bb1d146100825780634aa4a4fc146100b5578063bd21704a146100d3575b600080fd5b61009c60048036038101906100979190611f82565b6101a6565b6040516100ac9493929190612531565b60405180910390f35b6100bd6103b5565b6040516100ca919061247a565b60405180910390f35b6100ed60048036038101906100e891906120e3565b6103d9565b6040516100fd9493929190612584565b60405180910390f35b61010e610616565b60405161011b919061247a565b60405180910390f35b61013e600480360381019061013991906120ba565b61063a565b60405161014e9493929190612584565b60405180910390f35b610171600480360381019061016c9190611f82565b61081d565b6040516101819493929190612531565b60405180910390f35b6101a4600480360381019061019f9190612012565b610a2c565b005b600060608060006101b686610bea565b67ffffffffffffffff811180156101cc57600080fd5b506040519080825280602002602001820160405280156101fb5781602001602082028036833780820191505090505b50925061020786610bea565b67ffffffffffffffff8111801561021d57600080fd5b5060405190808252806020026020018201604052801561024c5781602001602082028036833780820191505090505b50915060005b6001156103aa5760008060006102678a610c05565b9250925092506000806000806102ea6040518060a001604052808873ffffffffffffffffffffffffffffffffffffffff1681526020018973ffffffffffffffffffffffffffffffffffffffff1681526020018f81526020018762ffffff168152602001600073ffffffffffffffffffffffffffffffffffffffff168152506103d9565b9350935093509350828b89815181106102ff57fe5b602002602001019073ffffffffffffffffffffffffffffffffffffffff16908173ffffffffffffffffffffffffffffffffffffffff1681525050818a898151811061034657fe5b602002602001019063ffffffff16908163ffffffff1681525050839c50808901985087806001019850506103798e610c56565b1561038e576103878e610c71565b9d5061039e565b8c9b5050505050505050506103ac565b50505050505050610252565b505b92959194509250565b7f000000000000000000000000000000000000000000000000000000000000000081565b6000806000806000856020015173ffffffffffffffffffffffffffffffffffffffff16866000015173ffffffffffffffffffffffffffffffffffffffff161090506000610433876000015188602001518960600151610c9a565b90506000876080015173ffffffffffffffffffffffffffffffffffffffff1614156104645786604001516000819055505b60005a90508173ffffffffffffffffffffffffffffffffffffffff1663128acb0830856104948c60400151610cd9565b60000360008d6080015173ffffffffffffffffffffffffffffffffffffffff16146104c3578c608001516104f0565b876104e557600173fffd8963efd1fc6a506488495d951d5263988d26036104ef565b60016401000276a3015b5b8d602001518e606001518f600001516040516020016105119392919061243d565b6040516020818303038152906040526040518663ffffffff1660e01b8152600401610540959493929190612495565b6040805180830381600087803b15801561055957600080fd5b505af192505050801561058a57506040513d601f19601f820116820180604052508101906105879190611fd6565b60015b610609573d80600081146105ba576040519150601f19603f3d011682016040523d82523d6000602084013e6105bf565b606091505b505a820394506000896080015173ffffffffffffffffffffffffffffffffffffffff1614156105ed57600080555b6105f8818487610d0f565b97509750975097505050505061060f565b50505050505b9193509193565b7f000000000000000000000000000000000000000000000000000000000000000081565b6000806000806000856020015173ffffffffffffffffffffffffffffffffffffffff16866000015173ffffffffffffffffffffffffffffffffffffffff161090506000610694876000015188602001518960600151610c9a565b905060005a90508173ffffffffffffffffffffffffffffffffffffffff1663128acb0830856106c68c60400151610cd9565b60008d6080015173ffffffffffffffffffffffffffffffffffffffff16146106f2578c6080015161071f565b8761071457600173fffd8963efd1fc6a506488495d951d5263988d260361071e565b60016401000276a3015b5b8d600001518e606001518f602001516040516020016107409392919061243d565b6040516020818303038152906040526040518663ffffffff1660e01b815260040161076f959493929190612495565b6040805180830381600087803b15801561078857600080fd5b505af19250505080156107b957506040513d601f19601f820116820180604052508101906107b69190611fd6565b60015b610810573d80600081146107e9576040519150601f19603f3d011682016040523d82523d6000602084013e6107ee565b606091505b505a820394506107ff818487610d0f565b975097509750975050505050610816565b50505050505b9193509193565b6000606080600061082d86610bea565b67ffffffffffffffff8111801561084357600080fd5b506040519080825280602002602001820160405280156108725781602001602082028036833780820191505090505b50925061087e86610bea565b67ffffffffffffffff8111801561089457600080fd5b506040519080825280602002602001820160405280156108c35781602001602082028036833780820191505090505b50915060005b600115610a215760008060006108de8a610c05565b9250925092506000806000806109616040518060a001604052808973ffffffffffffffffffffffffffffffffffffffff1681526020018873ffffffffffffffffffffffffffffffffffffffff1681526020018f81526020018762ffffff168152602001600073ffffffffffffffffffffffffffffffffffffffff1681525061063a565b9350935093509350828b898151811061097657fe5b602002602001019073ffffffffffffffffffffffffffffffffffffffff16908173ffffffffffffffffffffffffffffffffffffffff1681525050818a89815181106109bd57fe5b602002602001019063ffffffff16908163ffffffff1681525050839c50808901985087806001019850506109f08e610c56565b15610a05576109fe8e610c71565b9d50610a15565b8c9b505050505050505050610a23565b505050505050506108c9565b505b92959194509250565b6000831380610a3b5750600082135b610a4457600080fd5b6000806000610a5284610c05565b925092509250610a847f0000000000000000000000000000000000000000000000000000000000000000848484610e09565b506000806000808913610aca578573ffffffffffffffffffffffffffffffffffffffff168573ffffffffffffffffffffffffffffffffffffffff1610888a600003610aff565b8473ffffffffffffffffffffffffffffffffffffffff168673ffffffffffffffffffffffffffffffffffffffff161089896000035b9250925092506000610b12878787610c9a565b90506000808273ffffffffffffffffffffffffffffffffffffffff16633850c7bd6040518163ffffffff1660e01b815260040160e06040518083038186803b158015610b5d57600080fd5b505afa158015610b71573d6000803e3d6000fd5b505050506040513d601f19601f82011682018060405250810190610b95919061210c565b5050505050915091508515610bbb57604051848152826020820152816040820152606081fd5b6000805414610bd3576000548414610bd257600080fd5b5b604051858152826020820152816040820152606081fd5b60006003601401601483510381610bfd57fe5b049050919050565b6000806000610c1e600085610e2990919063ffffffff16565b9250610c34601485610f4290919063ffffffff16565b9050610c4d600360140185610e2990919063ffffffff16565b91509193909250565b60006003601401601460036014010101825110159050919050565b6060610c93600360140160036014018451038461104c9092919063ffffffff16565b9050919050565b6000610cd07f0000000000000000000000000000000000000000000000000000000000000000610ccb868686611236565b6112d2565b90509392505050565b60007f80000000000000000000000000000000000000000000000000000000000000008210610d0757600080fd5b819050919050565b6000806000806000808773ffffffffffffffffffffffffffffffffffffffff16633850c7bd6040518163ffffffff1660e01b815260040160e06040518083038186803b158015610d5e57600080fd5b505afa158015610d72573d6000803e3d6000fd5b505050506040513d601f19601f82011682018060405250810190610d96919061210c565b9091929394955090919293509091925090915090505080925050610db98961142d565b809350819750829850505050610df082828a73ffffffffffffffffffffffffffffffffffffffff166114f79092919063ffffffff16565b9350858585899550955095509550505093509350935093565b6000610e1f85610e1a868686611236565b611bda565b9050949350505050565b600081601483011015610ea4576040517f08c379a00000000000000000000000000000000000000000000000000000000081526004018080602001828103825260128152602001807f746f416464726573735f6f766572666c6f77000000000000000000000000000081525060200191505060405180910390fd5b6014820183511015610f1e576040517f08c379a00000000000000000000000000000000000000000000000000000000081526004018080602001828103825260158152602001807f746f416464726573735f6f75744f66426f756e6473000000000000000000000081525060200191505060405180910390fd5b60006c01000000000000000000000000836020860101510490508091505092915050565b600081600383011015610fbd576040517f08c379a00000000000000000000000000000000000000000000000000000000081526004018080602001828103825260118152602001807f746f55696e7432345f6f766572666c6f7700000000000000000000000000000081525060200191505060405180910390fd5b6003820183511015611037576040517f08c379a00000000000000000000000000000000000000000000000000000000081526004018080602001828103825260148152602001807f746f55696e7432345f6f75744f66426f756e647300000000000000000000000081525060200191505060405180910390fd5b60008260038501015190508091505092915050565b606081601f830110156110c7576040517f08c379a000000000000000000000000000000000000000000000000000000000815260040180806020018281038252600e8152602001807f736c6963655f6f766572666c6f7700000000000000000000000000000000000081525060200191505060405180910390fd5b82828401101561113f576040517f08c379a000000000000000000000000000000000000000000000000000000000815260040180806020018281038252600e8152602001807f736c6963655f6f766572666c6f7700000000000000000000000000000000000081525060200191505060405180910390fd5b818301845110156111b8576040517f08c379a00000000000000000000000000000000000000000000000000000000081526004018080602001828103825260118152602001807f736c6963655f6f75744f66426f756e647300000000000000000000000000000081525060200191505060405180910390fd5b60608215600081146111d9576040519150600082526020820160405261122a565b6040519150601f8416801560200281840101858101878315602002848b0101015b8183101561121757805183526020830192506020810190506111fa565b50868552601f19601f8301166040525050505b50809150509392505050565b61123e611c54565b8273ffffffffffffffffffffffffffffffffffffffff168473ffffffffffffffffffffffffffffffffffffffff16111561127d57828480945081955050505b60405180606001604052808573ffffffffffffffffffffffffffffffffffffffff1681526020018473ffffffffffffffffffffffffffffffffffffffff1681526020018362ffffff1681525090509392505050565b6000816020015173ffffffffffffffffffffffffffffffffffffffff16826000015173ffffffffffffffffffffffffffffffffffffffff161061131457600080fd5b82826000015183602001518460400151604051602001808473ffffffffffffffffffffffffffffffffffffffff1681526020018373ffffffffffffffffffffffffffffffffffffffff1681526020018262ffffff1681526020019350505050604051602081830303815290604052805190602001207fe34f199b19b2b4f47f68442619d555527d244f78a3297ea89325f843f87b8b5460001b60405160200180807fff000000000000000000000000000000000000000000000000000000000000008152506001018473ffffffffffffffffffffffffffffffffffffffff1660601b815260140183815260200182815260200193505050506040516020818303038152906040528051906020012060001c905092915050565b600080600060608451146114d657604484511015611480576040517f08c379a000000000000000000000000000000000000000000000000000000000815260040161147790612511565b60405180910390fd5b6004840193508380602001905181019061149a9190612079565b6040517f08c379a00000000000000000000000000000000000000000000000000000000081526004016114cd91906124ef565b60405180910390fd5b838060200190518101906114ea91906121aa565b9250925092509193909250565b60008060008060008060008060088b73ffffffffffffffffffffffffffffffffffffffff1663d0c93a7c6040518163ffffffff1660e01b815260040160206040518083038186803b15801561154b57600080fd5b505afa15801561155f573d6000803e3d6000fd5b505050506040513d602081101561157557600080fd5b810190808051906020019092919050505060020b8b60020b8161159457fe5b0560020b901d905060006101008c73ffffffffffffffffffffffffffffffffffffffff1663d0c93a7c6040518163ffffffff1660e01b815260040160206040518083038186803b1580156115e757600080fd5b505afa1580156115fb573d6000803e3d6000fd5b505050506040513d602081101561161157600080fd5b810190808051906020019092919050505060020b8c60020b8161163057fe5b0560020b8161163b57fe5b079050600060088d73ffffffffffffffffffffffffffffffffffffffff1663d0c93a7c6040518163ffffffff1660e01b815260040160206040518083038186803b15801561168857600080fd5b505afa15801561169c573d6000803e3d6000fd5b505050506040513d60208110156116b257600080fd5b810190808051906020019092919050505060020b8c60020b816116d157fe5b0560020b901d905060006101008e73ffffffffffffffffffffffffffffffffffffffff1663d0c93a7c6040518163ffffffff1660e01b815260040160206040518083038186803b15801561172457600080fd5b505afa158015611738573d6000803e3d6000fd5b505050506040513d602081101561174e57600080fd5b810190808051906020019092919050505060020b8d60020b8161176d57fe5b0560020b8161177857fe5b07905060008160ff166001901b8f73ffffffffffffffffffffffffffffffffffffffff16635339c296856040518263ffffffff1660e01b8152600401808260010b815260200191505060206040518083038186803b1580156117d957600080fd5b505afa1580156117ed573d6000803e3d6000fd5b505050506040513d602081101561180357600080fd5b8101908080519060200190929190505050161180156118b4575060008e73ffffffffffffffffffffffffffffffffffffffff1663d0c93a7c6040518163ffffffff1660e01b815260040160206040518083038186803b15801561186557600080fd5b505afa158015611879573d6000803e3d6000fd5b505050506040513d602081101561188f57600080fd5b810190808051906020019092919050505060020b8d60020b816118ae57fe5b0760020b145b80156118c557508b60020b8d60020b135b945060008360ff166001901b8f73ffffffffffffffffffffffffffffffffffffffff16635339c296876040518263ffffffff1660e01b8152600401808260010b815260200191505060206040518083038186803b15801561192557600080fd5b505afa158015611939573d6000803e3d6000fd5b505050506040513d602081101561194f57600080fd5b810190808051906020019092919050505016118015611a00575060008e73ffffffffffffffffffffffffffffffffffffffff1663d0c93a7c6040518163ffffffff1660e01b815260040160206040518083038186803b1580156119b157600080fd5b505afa1580156119c5573d6000803e3d6000fd5b505050506040513d60208110156119db57600080fd5b810190808051906020019092919050505060020b8e60020b816119fa57fe5b0760020b145b8015611a1157508b60020b8d60020b125b95508160010b8460010b1280611a3e57508160010b8460010b148015611a3d57508060ff168360ff1611155b5b15611a5457839950829750819850809650611a61565b8199508097508398508296505b5050505060008460ff167fffffffffffffffffffffffffffffffffffffffffffffffffffffffffffffffff901b90505b8560010b8760010b13611bb2578560010b8760010b1415611adb578360ff0360ff167fffffffffffffffffffffffffffffffffffffffffffffffffffffffffffffffff901c811690505b6000818c73ffffffffffffffffffffffffffffffffffffffff16635339c2968a6040518263ffffffff1660e01b8152600401808260010b815260200191505060206040518083038186803b158015611b3257600080fd5b505afa158015611b46573d6000803e3d6000fd5b505050506040513d6020811015611b5c57600080fd5b8101908080519060200190929190505050169050611b7981611c26565b61ffff168901985087806001019850507fffffffffffffffffffffffffffffffffffffffffffffffffffffffffffffffff915050611a91565b8115611bbf576001880397505b8215611bcc576001880397505b505050505050509392505050565b6000611be683836112d2565b90508073ffffffffffffffffffffffffffffffffffffffff163373ffffffffffffffffffffffffffffffffffffffff1614611c2057600080fd5b92915050565b600080600090505b60008314611c4b5780806001019150506001830383169250611c2e565b80915050919050565b6040518060600160405280600073ffffffffffffffffffffffffffffffffffffffff168152602001600073ffffffffffffffffffffffffffffffffffffffff168152602001600062ffffff1681525090565b6000611cb9611cb4846125fa565b6125c9565b905082815260208101848484011115611cd157600080fd5b611cdc84828561279d565b509392505050565b6000611cf7611cf28461262a565b6125c9565b905082815260208101848484011115611d0f57600080fd5b611d1a8482856127ac565b509392505050565b600081359050611d3181612842565b92915050565b600081519050611d4681612859565b92915050565b600082601f830112611d5d57600080fd5b8135611d6d848260208601611ca6565b91505092915050565b600081519050611d8581612870565b92915050565b600081359050611d9a81612887565b92915050565b600081519050611daf81612887565b92915050565b600082601f830112611dc657600080fd5b8151611dd6848260208601611ce4565b91505092915050565b600060a08284031215611df157600080fd5b611dfb60a06125c9565b90506000611e0b84828501611d22565b6000830152506020611e1f84828501611d22565b6020830152506040611e3384828501611f43565b6040830152506060611e4784828501611f2e565b6060830152506080611e5b84828501611eef565b60808301525092915050565b600060a08284031215611e7957600080fd5b611e8360a06125c9565b90506000611e9384828501611d22565b6000830152506020611ea784828501611d22565b6020830152506040611ebb84828501611f43565b6040830152506060611ecf84828501611f2e565b6060830152506080611ee384828501611eef565b60808301525092915050565b600081359050611efe816128b5565b92915050565b600081519050611f13816128b5565b92915050565b600081519050611f288161289e565b92915050565b600081359050611f3d816128cc565b92915050565b600081359050611f52816128e3565b92915050565b600081519050611f67816128e3565b92915050565b600081519050611f7c816128fa565b92915050565b60008060408385031215611f9557600080fd5b600083013567ffffffffffffffff811115611faf57600080fd5b611fbb85828601611d4c565b9250506020611fcc85828601611f43565b9150509250929050565b60008060408385031215611fe957600080fd5b6000611ff785828601611da0565b925050602061200885828601611da0565b9150509250929050565b60008060006060848603121561202757600080fd5b600061203586828701611d8b565b935050602061204686828701611d8b565b925050604084013567ffffffffffffffff81111561206357600080fd5b61206f86828701611d4c565b9150509250925092565b60006020828403121561208b57600080fd5b600082015167ffffffffffffffff8111156120a557600080fd5b6120b184828501611db5565b91505092915050565b600060a082840312156120cc57600080fd5b60006120da84828501611ddf565b91505092915050565b600060a082840312156120f557600080fd5b600061210384828501611e67565b91505092915050565b600080600080600080600060e0888a03121561212757600080fd5b60006121358a828b01611f04565b97505060206121468a828b01611d76565b96505060406121578a828b01611f19565b95505060606121688a828b01611f19565b94505060806121798a828b01611f19565b93505060a061218a8a828b01611f6d565b92505060c061219b8a828b01611d37565b91505092959891949750929550565b6000806000606084860312156121bf57600080fd5b60006121cd86828701611f58565b93505060206121de86828701611f04565b92505060406121ef86828701611d76565b9150509250925092565b600061220583836123db565b60208301905092915050565b600061221d838361241f565b60208301905092915050565b61223281612704565b82525050565b61224961224482612704565b6127df565b82525050565b600061225a8261267a565b61226481856126c0565b935061226f8361265a565b8060005b838110156122a057815161228788826121f9565b9750612292836126a6565b925050600181019050612273565b5085935050505092915050565b60006122b882612685565b6122c281856126d1565b93506122cd8361266a565b8060005b838110156122fe5781516122e58882612211565b97506122f0836126b3565b9250506001810190506122d1565b5085935050505092915050565b61231481612716565b82525050565b600061232582612690565b61232f81856126e2565b935061233f8185602086016127ac565b61234881612817565b840191505092915050565b61235c8161272f565b82525050565b600061236d8261269b565b61237781856126f3565b93506123878185602086016127ac565b61239081612817565b840191505092915050565b60006123a86010836126f3565b91507f556e6578706563746564206572726f72000000000000000000000000000000006000830152602082019050919050565b6123e481612747565b82525050565b6123f381612747565b82525050565b61240a61240582612767565b612803565b82525050565b61241981612776565b82525050565b61242881612780565b82525050565b61243781612780565b82525050565b60006124498286612238565b60148201915061245982856123f9565b6003820191506124698284612238565b601482019150819050949350505050565b600060208201905061248f6000830184612229565b92915050565b600060a0820190506124aa6000830188612229565b6124b7602083018761230b565b6124c46040830186612353565b6124d160608301856123ea565b81810360808301526124e3818461231a565b90509695505050505050565b600060208201905081810360008301526125098184612362565b905092915050565b6000602082019050818103600083015261252a8161239b565b9050919050565b60006080820190506125466000830187612410565b8181036020830152612558818661224f565b9050818103604083015261256c81856122ad565b905061257b6060830184612410565b95945050505050565b60006080820190506125996000830187612410565b6125a660208301866123ea565b6125b3604083018561242e565b6125c06060830184612410565b95945050505050565b6000604051905081810181811067ffffffffffffffff821117156125f0576125ef612815565b5b8060405250919050565b600067ffffffffffffffff82111561261557612614612815565b5b601f19601f8301169050602081019050919050565b600067ffffffffffffffff82111561264557612644612815565b5b601f19601f8301169050602081019050919050565b6000819050602082019050919050565b6000819050602082019050919050565b600081519050919050565b600081519050919050565b600081519050919050565b600081519050919050565b6000602082019050919050565b6000602082019050919050565b600082825260208201905092915050565b600082825260208201905092915050565b600082825260208201905092915050565b600082825260208201905092915050565b600061270f82612747565b9050919050565b60008115159050919050565b60008160020b9050919050565b6000819050919050565b600061ffff82169050919050565b600073ffffffffffffffffffffffffffffffffffffffff82169050919050565b600062ffffff82169050919050565b6000819050919050565b600063ffffffff82169050919050565b600060ff82169050919050565b82818337600083830152505050565b60005b838110156127ca5780820151818401526020810190506127af565b838111156127d9576000848401525b50505050565b60006127ea826127f1565b9050919050565b60006127fc82612835565b9050919050565b600061280e82612828565b9050919050565bfe5b6000601f19601f8301169050919050565b60008160e81b9050919050565b60008160601b9050919050565b61284b81612704565b811461285657600080fd5b50565b61286281612716565b811461286d57600080fd5b50565b61287981612722565b811461288457600080fd5b50565b6128908161272f565b811461289b57600080fd5b50565b6128a781612739565b81146128b257600080fd5b50565b6128be81612747565b81146128c957600080fd5b50565b6128d581612767565b81146128e057600080fd5b50565b6128ec81612776565b81146128f757600080fd5b50565b61290381612790565b811461290e57600080fd5b5056fea2646970667358221220fe4409c77535903b92bab013cbc24cc06a05d608cccda9e76cdd9de4772c353764736f6c63430007060033",
					"opcodes": "PUSH1 0xC0 PUSH1 0x40 MSTORE CALLVALUE DUP1 ISZERO PUSH3 0x11 JUMPI PUSH1 0x0 DUP1 REVERT JUMPDEST POP PUSH1 0x40 MLOAD PUSH3 0x2AD2 CODESIZE SUB DUP1 PUSH3 0x2AD2 DUP4 CODECOPY DUP2 DUP2 ADD PUSH1 0x40 MSTORE DUP2 ADD SWAP1 PUSH3 0x37 SWAP2 SWAP1 PUSH3 0xC8 JUMP JUMPDEST DUP2 DUP2 DUP2 PUSH20 0xFFFFFFFFFFFFFFFFFFFFFFFFFFFFFFFFFFFFFFFF AND PUSH1 0x80 DUP2 PUSH20 0xFFFFFFFFFFFFFFFFFFFFFFFFFFFFFFFFFFFFFFFF AND PUSH1 0x60 SHL DUP2 MSTORE POP POP DUP1 PUSH20 0xFFFFFFFFFFFFFFFFFFFFFFFFFFFFFFFFFFFFFFFF AND PUSH1 0xA0 DUP2 PUSH20 0xFFFFFFFFFFFFFFFFFFFFFFFFFFFFFFFFFFFFFFFF AND PUSH1 0x60 SHL DUP2 MSTORE POP POP POP POP POP POP PUSH3 0x157 JUMP JUMPDEST PUSH1 0x0 DUP2 MLOAD SWAP1 POP PUSH3 0xC2 DUP2 PUSH3 0x13D JUMP JUMPDEST SWAP3 SWAP2 POP POP JUMP JUMPDEST PUSH1 0x0 DUP1 PUSH1 0x40 DUP4 DUP6 SUB SLT ISZERO PUSH3 0xDC JUMPI PUSH1 0x0 DUP1 REVERT JUMPDEST PUSH1 0x0 PUSH3 0xEC DUP6 DUP3 DUP7 ADD PUSH3 0xB1 JUMP JUMPDEST SWAP3 POP POP PUSH1 0x20 PUSH3 0xFF DUP6 DUP3 DUP7 ADD PUSH3 0xB1 JUMP JUMPDEST SWAP2 POP POP SWAP3 POP SWAP3 SWAP1 POP JUMP JUMPDEST PUSH1 0x0 PUSH3 0x116 DUP3 PUSH3 0x11D JUMP JUMPDEST SWAP1 POP SWAP2 SWAP1 POP JUMP JUMPDEST PUSH1 0x0 PUSH20 0xFFFFFFFFFFFFFFFFFFFFFFFFFFFFFFFFFFFFFFFF DUP3 AND SWAP1 POP SWAP2 SWAP1 POP JUMP JUMPDEST PUSH3 0x148 DUP2 PUSH3 0x109 JUMP JUMPDEST DUP2 EQ PUSH3 0x154 JUMPI PUSH1 0x0 DUP1 REVERT JUMPDEST POP JUMP JUMPDEST PUSH1 0x80 MLOAD PUSH1 0x60 SHR PUSH1 0xA0 MLOAD PUSH1 0x60 SHR PUSH2 0x2947 PUSH3 0x18B PUSH1 0x0 CODECOPY DUP1 PUSH2 0x3B7 MSTORE POP DUP1 PUSH2 0x618 MSTORE DUP1 PUSH2 0xA5D MSTORE DUP1 PUSH2 0xCA1 MSTORE POP PUSH2 0x2947 PUSH1 0x0 RETURN INVALID PUSH1 0x80 PUSH1 0x40 MSTORE CALLVALUE DUP1 ISZERO PUSH2 0x10 JUMPI PUSH1 0x0 DUP1 REVERT JUMPDEST POP PUSH1 0x4 CALLDATASIZE LT PUSH2 0x7D JUMPI PUSH1 0x0 CALLDATALOAD PUSH1 0xE0 SHR DUP1 PUSH4 0xC45A0155 GT PUSH2 0x5B JUMPI DUP1 PUSH4 0xC45A0155 EQ PUSH2 0x106 JUMPI DUP1 PUSH4 0xC6A5026A EQ PUSH2 0x124 JUMPI DUP1 PUSH4 0xCDCA1753 EQ PUSH2 0x157 JUMPI DUP1 PUSH4 0xFA461E33 EQ PUSH2 0x18A JUMPI PUSH2 0x7D JUMP JUMPDEST DUP1 PUSH4 0x2F80BB1D EQ PUSH2 0x82 JUMPI DUP1 PUSH4 0x4AA4A4FC EQ PUSH2 0xB5 JUMPI DUP1 PUSH4 0xBD21704A EQ PUSH2 0xD3 JUMPI JUMPDEST PUSH1 0x0 DUP1 REVERT JUMPDEST PUSH2 0x9C PUSH1 0x4 DUP1 CALLDATASIZE SUB DUP2 ADD SWAP1 PUSH2 0x97 SWAP2 SWAP1 PUSH2 0x1F82 JUMP JUMPDEST PUSH2 0x1A6 JUMP JUMPDEST PUSH1 0x40 MLOAD PUSH2 0xAC SWAP5 SWAP4 SWAP3 SWAP2 SWAP1 PUSH2 0x2531 JUMP JUMPDEST PUSH1 0x40 MLOAD DUP1 SWAP2 SUB SWAP1 RETURN JUMPDEST PUSH2 0xBD PUSH2 0x3B5 JUMP JUMPDEST PUSH1 0x40 MLOAD PUSH2 0xCA SWAP2 SWAP1 PUSH2 0x247A JUMP JUMPDEST PUSH1 0x40 MLOAD DUP1 SWAP2 SUB SWAP1 RETURN JUMPDEST PUSH2 0xED PUSH1 0x4 DUP1 CALLDATASIZE SUB DUP2 ADD SWAP1 PUSH2 0xE8 SWAP2 SWAP1 PUSH2 0x20E3 JUMP JUMPDEST PUSH2 0x3D9 JUMP JUMPDEST PUSH1 0x40 MLOAD PUSH2 0xFD SWAP5 SWAP4 SWAP3 SWAP2 SWAP1 PUSH2 0x2584 JUMP JUMPDEST PUSH1 0x40 MLOAD DUP1 SWAP2 SUB SWAP1 RETURN JUMPDEST PUSH2 0x10E PUSH2 0x616 JUMP JUMPDEST PUSH1 0x40 MLOAD PUSH2 0x11B SWAP2 SWAP1 PUSH2 0x247A JUMP JUMPDEST PUSH1 0x40 MLOAD DUP1 SWAP2 SUB SWAP1 RETURN JUMPDEST PUSH2 0x13E PUSH1 0x4 DUP1 CALLDATASIZE SUB DUP2 ADD SWAP1 PUSH2 0x139 SWAP2 SWAP1 PUSH2 0x20BA JUMP JUMPDEST PUSH2 0x63A JUMP JUMPDEST PUSH1 0x40 MLOAD PUSH2 0x14E SWAP5 SWAP4 SWAP3 SWAP2 SWAP1 PUSH2 0x2584 JUMP JUMPDEST PUSH1 0x40 MLOAD DUP1 SWAP2 SUB SWAP1 RETURN JUMPDEST PUSH2 0x171 PUSH1 0x4 DUP1 CALLDATASIZE SUB DUP2 ADD SWAP1 PUSH2 0x16C SWAP2 SWAP1 PUSH2 0x1F82 JUMP JUMPDEST PUSH2 0x81D JUMP JUMPDEST PUSH1 0x40 MLOAD PUSH2 0x181 SWAP5 SWAP4 SWAP3 SWAP2 SWAP1 PUSH2 0x2531 JUMP JUMPDEST PUSH1 0x40 MLOAD DUP1 SWAP2 SUB SWAP1 RETURN JUMPDEST PUSH2 0x1A4 PUSH1 0x4 DUP1 CALLDATASIZE SUB DUP2 ADD SWAP1 PUSH2 0x19F SWAP2 SWAP1 PUSH2 0x2012 JUMP JUMPDEST PUSH2 0xA2C JUMP JUMPDEST STOP JUMPDEST PUSH1 0x0 PUSH1 0x60 DUP1 PUSH1 0x0 PUSH2 0x1B6 DUP7 PUSH2 0xBEA JUMP JUMPDEST PUSH8 0xFFFFFFFFFFFFFFFF DUP2 GT DUP1 ISZERO PUSH2 0x1CC JUMPI PUSH1 0x0 DUP1 REVERT JUMPDEST POP PUSH1 0x40 MLOAD SWAP1 DUP1 DUP3 MSTORE DUP1 PUSH1 0x20 MUL PUSH1 0x20 ADD DUP3 ADD PUSH1 0x40 MSTORE DUP1 ISZERO PUSH2 0x1FB JUMPI DUP2 PUSH1 0x20 ADD PUSH1 0x20 DUP3 MUL DUP1 CALLDATASIZE DUP4 CALLDATACOPY DUP1 DUP3 ADD SWAP2 POP POP SWAP1 POP JUMPDEST POP SWAP3 POP PUSH2 0x207 DUP7 PUSH2 0xBEA JUMP JUMPDEST PUSH8 0xFFFFFFFFFFFFFFFF DUP2 GT DUP1 ISZERO PUSH2 0x21D JUMPI PUSH1 0x0 DUP1 REVERT JUMPDEST POP PUSH1 0x40 MLOAD SWAP1 DUP1 DUP3 MSTORE DUP1 PUSH1 0x20 MUL PUSH1 0x20 ADD DUP3 ADD PUSH1 0x40 MSTORE DUP1 ISZERO PUSH2 0x24C JUMPI DUP2 PUSH1 0x20 ADD PUSH1 0x20 DUP3 MUL DUP1 CALLDATASIZE DUP4 CALLDATACOPY DUP1 DUP3 ADD SWAP2 POP POP SWAP1 POP JUMPDEST POP SWAP2 POP PUSH1 0x0 JUMPDEST PUSH1 0x1 ISZERO PUSH2 0x3AA JUMPI PUSH1 0x0 DUP1 PUSH1 0x0 PUSH2 0x267 DUP11 PUSH2 0xC05 JUMP JUMPDEST SWAP3 POP SWAP3 POP SWAP3 POP PUSH1 0x0 DUP1 PUSH1 0x0 DUP1 PUSH2 0x2EA PUSH1 0x40 MLOAD DUP1 PUSH1 0xA0 ADD PUSH1 0x40 MSTORE DUP1 DUP9 PUSH20 0xFFFFFFFFFFFFFFFFFFFFFFFFFFFFFFFFFFFFFFFF AND DUP2 MSTORE PUSH1 0x20 ADD DUP10 PUSH20 0xFFFFFFFFFFFFFFFFFFFFFFFFFFFFFFFFFFFFFFFF AND DUP2 MSTORE PUSH1 0x20 ADD DUP16 DUP2 MSTORE PUSH1 0x20 ADD DUP8 PUSH3 0xFFFFFF AND DUP2 MSTORE PUSH1 0x20 ADD PUSH1 0x0 PUSH20 0xFFFFFFFFFFFFFFFFFFFFFFFFFFFFFFFFFFFFFFFF AND DUP2 MSTORE POP PUSH2 0x3D9 JUMP JUMPDEST SWAP4 POP SWAP4 POP SWAP4 POP SWAP4 POP DUP3 DUP12 DUP10 DUP2 MLOAD DUP2 LT PUSH2 0x2FF JUMPI INVALID JUMPDEST PUSH1 0x20 MUL PUSH1 0x20 ADD ADD SWAP1 PUSH20 0xFFFFFFFFFFFFFFFFFFFFFFFFFFFFFFFFFFFFFFFF AND SWAP1 DUP2 PUSH20 0xFFFFFFFFFFFFFFFFFFFFFFFFFFFFFFFFFFFFFFFF AND DUP2 MSTORE POP POP DUP2 DUP11 DUP10 DUP2 MLOAD DUP2 LT PUSH2 0x346 JUMPI INVALID JUMPDEST PUSH1 0x20 MUL PUSH1 0x20 ADD ADD SWAP1 PUSH4 0xFFFFFFFF AND SWAP1 DUP2 PUSH4 0xFFFFFFFF AND DUP2 MSTORE POP POP DUP4 SWAP13 POP DUP1 DUP10 ADD SWAP9 POP DUP8 DUP1 PUSH1 0x1 ADD SWAP9 POP POP PUSH2 0x379 DUP15 PUSH2 0xC56 JUMP JUMPDEST ISZERO PUSH2 0x38E JUMPI PUSH2 0x387 DUP15 PUSH2 0xC71 JUMP JUMPDEST SWAP14 POP PUSH2 0x39E JUMP JUMPDEST DUP13 SWAP12 POP POP POP POP POP POP POP POP POP PUSH2 0x3AC JUMP JUMPDEST POP POP POP POP POP POP POP PUSH2 0x252 JUMP JUMPDEST POP JUMPDEST SWAP3 SWAP6 SWAP2 SWAP5 POP SWAP3 POP JUMP JUMPDEST PUSH32 0x0 DUP2 JUMP JUMPDEST PUSH1 0x0 DUP1 PUSH1 0x0 DUP1 PUSH1 0x0 DUP6 PUSH1 0x20 ADD MLOAD PUSH20 0xFFFFFFFFFFFFFFFFFFFFFFFFFFFFFFFFFFFFFFFF AND DUP7 PUSH1 0x0 ADD MLOAD PUSH20 0xFFFFFFFFFFFFFFFFFFFFFFFFFFFFFFFFFFFFFFFF AND LT SWAP1 POP PUSH1 0x0 PUSH2 0x433 DUP8 PUSH1 0x0 ADD MLOAD DUP9 PUSH1 0x20 ADD MLOAD DUP10 PUSH1 0x60 ADD MLOAD PUSH2 0xC9A JUMP JUMPDEST SWAP1 POP PUSH1 0x0 DUP8 PUSH1 0x80 ADD MLOAD PUSH20 0xFFFFFFFFFFFFFFFFFFFFFFFFFFFFFFFFFFFFFFFF AND EQ ISZERO PUSH2 0x464 JUMPI DUP7 PUSH1 0x40 ADD MLOAD PUSH1 0x0 DUP2 SWAP1 SSTORE POP JUMPDEST PUSH1 0x0 GAS SWAP1 POP DUP2 PUSH20 0xFFFFFFFFFFFFFFFFFFFFFFFFFFFFFFFFFFFFFFFF AND PUSH4 0x128ACB08 ADDRESS DUP6 PUSH2 0x494 DUP13 PUSH1 0x40 ADD MLOAD PUSH2 0xCD9 JUMP JUMPDEST PUSH1 0x0 SUB PUSH1 0x0 DUP14 PUSH1 0x80 ADD MLOAD PUSH20 0xFFFFFFFFFFFFFFFFFFFFFFFFFFFFFFFFFFFFFFFF AND EQ PUSH2 0x4C3 JUMPI DUP13 PUSH1 0x80 ADD MLOAD PUSH2 0x4F0 JUMP JUMPDEST DUP8 PUSH2 0x4E5 JUMPI PUSH1 0x1 PUSH20 0xFFFD8963EFD1FC6A506488495D951D5263988D26 SUB PUSH2 0x4EF JUMP JUMPDEST PUSH1 0x1 PUSH5 0x1000276A3 ADD JUMPDEST JUMPDEST DUP14 PUSH1 0x20 ADD MLOAD DUP15 PUSH1 0x60 ADD MLOAD DUP16 PUSH1 0x0 ADD MLOAD PUSH1 0x40 MLOAD PUSH1 0x20 ADD PUSH2 0x511 SWAP4 SWAP3 SWAP2 SWAP1 PUSH2 0x243D JUMP JUMPDEST PUSH1 0x40 MLOAD PUSH1 0x20 DUP2 DUP4 SUB SUB DUP2 MSTORE SWAP1 PUSH1 0x40 MSTORE PUSH1 0x40 MLOAD DUP7 PUSH4 0xFFFFFFFF AND PUSH1 0xE0 SHL DUP2 MSTORE PUSH1 0x4 ADD PUSH2 0x540 SWAP6 SWAP5 SWAP4 SWAP3 SWAP2 SWAP1 PUSH2 0x2495 JUMP JUMPDEST PUSH1 0x40 DUP1 MLOAD DUP1 DUP4 SUB DUP2 PUSH1 0x0 DUP8 DUP1 EXTCODESIZE ISZERO DUP1 ISZERO PUSH2 0x559 JUMPI PUSH1 0x0 DUP1 REVERT JUMPDEST POP GAS CALL SWAP3 POP POP POP DUP1 ISZERO PUSH2 0x58A JUMPI POP PUSH1 0x40 MLOAD RETURNDATASIZE PUSH1 0x1F NOT PUSH1 0x1F DUP3 ADD AND DUP3 ADD DUP1 PUSH1 0x40 MSTORE POP DUP2 ADD SWAP1 PUSH2 0x587 SWAP2 SWAP1 PUSH2 0x1FD6 JUMP JUMPDEST PUSH1 0x1 JUMPDEST PUSH2 0x609 JUMPI RETURNDATASIZE DUP1 PUSH1 0x0 DUP2 EQ PUSH2 0x5BA JUMPI PUSH1 0x40 MLOAD SWAP2 POP PUSH1 0x1F NOT PUSH1 0x3F RETURNDATASIZE ADD AND DUP3 ADD PUSH1 0x40 MSTORE RETURNDATASIZE DUP3 MSTORE RETURNDATASIZE PUSH1 0x0 PUSH1 0x20 DUP5 ADD RETURNDATACOPY PUSH2 0x5BF JUMP JUMPDEST PUSH1 0x60 SWAP2 POP JUMPDEST POP GAS DUP3 SUB SWAP5 POP PUSH1 0x0 DUP10 PUSH1 0x80 ADD MLOAD PUSH20 0xFFFFFFFFFFFFFFFFFFFFFFFFFFFFFFFFFFFFFFFF AND EQ ISZERO PUSH2 0x5ED JUMPI PUSH1 0x0 DUP1 SSTORE JUMPDEST PUSH2 0x5F8 DUP2 DUP5 DUP8 PUSH2 0xD0F JUMP JUMPDEST SWAP8 POP SWAP8 POP SWAP8 POP SWAP8 POP POP POP POP POP PUSH2 0x60F JUMP JUMPDEST POP POP POP POP POP JUMPDEST SWAP2 SWAP4 POP SWAP2 SWAP4 JUMP JUMPDEST PUSH32 0x0 DUP2 JUMP JUMPDEST PUSH1 0x0 DUP1 PUSH1 0x0 DUP1 PUSH1 0x0 DUP6 PUSH1 0x20 ADD MLOAD PUSH20 0xFFFFFFFFFFFFFFFFFFFFFFFFFFFFFFFFFFFFFFFF AND DUP7 PUSH1 0x0 ADD MLOAD PUSH20 0xFFFFFFFFFFFFFFFFFFFFFFFFFFFFFFFFFFFFFFFF AND LT SWAP1 POP PUSH1 0x0 PUSH2 0x694 DUP8 PUSH1 0x0 ADD MLOAD DUP9 PUSH1 0x20 ADD MLOAD DUP10 PUSH1 0x60 ADD MLOAD PUSH2 0xC9A JUMP JUMPDEST SWAP1 POP PUSH1 0x0 GAS SWAP1 POP DUP2 PUSH20 0xFFFFFFFFFFFFFFFFFFFFFFFFFFFFFFFFFFFFFFFF AND PUSH4 0x128ACB08 ADDRESS DUP6 PUSH2 0x6C6 DUP13 PUSH1 0x40 ADD MLOAD PUSH2 0xCD9 JUMP JUMPDEST PUSH1 0x0 DUP14 PUSH1 0x80 ADD MLOAD PUSH20 0xFFFFFFFFFFFFFFFFFFFFFFFFFFFFFFFFFFFFFFFF AND EQ PUSH2 0x6F2 JUMPI DUP13 PUSH1 0x80 ADD MLOAD PUSH2 0x71F JUMP JUMPDEST DUP8 PUSH2 0x714 JUMPI PUSH1 0x1 PUSH20 0xFFFD8963EFD1FC6A506488495D951D5263988D26 SUB PUSH2 0x71E JUMP JUMPDEST PUSH1 0x1 PUSH5 0x1000276A3 ADD JUMPDEST JUMPDEST DUP14 PUSH1 0x0 ADD MLOAD DUP15 PUSH1 0x60 ADD MLOAD DUP16 PUSH1 0x20 ADD MLOAD PUSH1 0x40 MLOAD PUSH1 0x20 ADD PUSH2 0x740 SWAP4 SWAP3 SWAP2 SWAP1 PUSH2 0x243D JUMP JUMPDEST PUSH1 0x40 MLOAD PUSH1 0x20 DUP2 DUP4 SUB SUB DUP2 MSTORE SWAP1 PUSH1 0x40 MSTORE PUSH1 0x40 MLOAD DUP7 PUSH4 0xFFFFFFFF AND PUSH1 0xE0 SHL DUP2 MSTORE PUSH1 0x4 ADD PUSH2 0x76F SWAP6 SWAP5 SWAP4 SWAP3 SWAP2 SWAP1 PUSH2 0x2495 JUMP JUMPDEST PUSH1 0x40 DUP1 MLOAD DUP1 DUP4 SUB DUP2 PUSH1 0x0 DUP8 DUP1 EXTCODESIZE ISZERO DUP1 ISZERO PUSH2 0x788 JUMPI PUSH1 0x0 DUP1 REVERT JUMPDEST POP GAS CALL SWAP3 POP POP POP DUP1 ISZERO PUSH2 0x7B9 JUMPI POP PUSH1 0x40 MLOAD RETURNDATASIZE PUSH1 0x1F NOT PUSH1 0x1F DUP3 ADD AND DUP3 ADD DUP1 PUSH1 0x40 MSTORE POP DUP2 ADD SWAP1 PUSH2 0x7B6 SWAP2 SWAP1 PUSH2 0x1FD6 JUMP JUMPDEST PUSH1 0x1 JUMPDEST PUSH2 0x810 JUMPI RETURNDATASIZE DUP1 PUSH1 0x0 DUP2 EQ PUSH2 0x7E9 JUMPI PUSH1 0x40 MLOAD SWAP2 POP PUSH1 0x1F NOT PUSH1 0x3F RETURNDATASIZE ADD AND DUP3 ADD PUSH1 0x40 MSTORE RETURNDATASIZE DUP3 MSTORE RETURNDATASIZE PUSH1 0x0 PUSH1 0x20 DUP5 ADD RETURNDATACOPY PUSH2 0x7EE JUMP JUMPDEST PUSH1 0x60 SWAP2 POP JUMPDEST POP GAS DUP3 SUB SWAP5 POP PUSH2 0x7FF DUP2 DUP5 DUP8 PUSH2 0xD0F JUMP JUMPDEST SWAP8 POP SWAP8 POP SWAP8 POP SWAP8 POP POP POP POP POP PUSH2 0x816 JUMP JUMPDEST POP POP POP POP POP JUMPDEST SWAP2 SWAP4 POP SWAP2 SWAP4 JUMP JUMPDEST PUSH1 0x0 PUSH1 0x60 DUP1 PUSH1 0x0 PUSH2 0x82D DUP7 PUSH2 0xBEA JUMP JUMPDEST PUSH8 0xFFFFFFFFFFFFFFFF DUP2 GT DUP1 ISZERO PUSH2 0x843 JUMPI PUSH1 0x0 DUP1 REVERT JUMPDEST POP PUSH1 0x40 MLOAD SWAP1 DUP1 DUP3 MSTORE DUP1 PUSH1 0x20 MUL PUSH1 0x20 ADD DUP3 ADD PUSH1 0x40 MSTORE DUP1 ISZERO PUSH2 0x872 JUMPI DUP2 PUSH1 0x20 ADD PUSH1 0x20 DUP3 MUL DUP1 CALLDATASIZE DUP4 CALLDATACOPY DUP1 DUP3 ADD SWAP2 POP POP SWAP1 POP JUMPDEST POP SWAP3 POP PUSH2 0x87E DUP7 PUSH2 0xBEA JUMP JUMPDEST PUSH8 0xFFFFFFFFFFFFFFFF DUP2 GT DUP1 ISZERO PUSH2 0x894 JUMPI PUSH1 0x0 DUP1 REVERT JUMPDEST POP PUSH1 0x40 MLOAD SWAP1 DUP1 DUP3 MSTORE DUP1 PUSH1 0x20 MUL PUSH1 0x20 ADD DUP3 ADD PUSH1 0x40 MSTORE DUP1 ISZERO PUSH2 0x8C3 JUMPI DUP2 PUSH1 0x20 ADD PUSH1 0x20 DUP3 MUL DUP1 CALLDATASIZE DUP4 CALLDATACOPY DUP1 DUP3 ADD SWAP2 POP POP SWAP1 POP JUMPDEST POP SWAP2 POP PUSH1 0x0 JUMPDEST PUSH1 0x1 ISZERO PUSH2 0xA21 JUMPI PUSH1 0x0 DUP1 PUSH1 0x0 PUSH2 0x8DE DUP11 PUSH2 0xC05 JUMP JUMPDEST SWAP3 POP SWAP3 POP SWAP3 POP PUSH1 0x0 DUP1 PUSH1 0x0 DUP1 PUSH2 0x961 PUSH1 0x40 MLOAD DUP1 PUSH1 0xA0 ADD PUSH1 0x40 MSTORE DUP1 DUP10 PUSH20 0xFFFFFFFFFFFFFFFFFFFFFFFFFFFFFFFFFFFFFFFF AND DUP2 MSTORE PUSH1 0x20 ADD DUP9 PUSH20 0xFFFFFFFFFFFFFFFFFFFFFFFFFFFFFFFFFFFFFFFF AND DUP2 MSTORE PUSH1 0x20 ADD DUP16 DUP2 MSTORE PUSH1 0x20 ADD DUP8 PUSH3 0xFFFFFF AND DUP2 MSTORE PUSH1 0x20 ADD PUSH1 0x0 PUSH20 0xFFFFFFFFFFFFFFFFFFFFFFFFFFFFFFFFFFFFFFFF AND DUP2 MSTORE POP PUSH2 0x63A JUMP JUMPDEST SWAP4 POP SWAP4 POP SWAP4 POP SWAP4 POP DUP3 DUP12 DUP10 DUP2 MLOAD DUP2 LT PUSH2 0x976 JUMPI INVALID JUMPDEST PUSH1 0x20 MUL PUSH1 0x20 ADD ADD SWAP1 PUSH20 0xFFFFFFFFFFFFFFFFFFFFFFFFFFFFFFFFFFFFFFFF AND SWAP1 DUP2 PUSH20 0xFFFFFFFFFFFFFFFFFFFFFFFFFFFFFFFFFFFFFFFF AND DUP2 MSTORE POP POP DUP2 DUP11 DUP10 DUP2 MLOAD DUP2 LT PUSH2 0x9BD JUMPI INVALID JUMPDEST PUSH1 0x20 MUL PUSH1 0x20 ADD ADD SWAP1 PUSH4 0xFFFFFFFF AND SWAP1 DUP2 PUSH4 0xFFFFFFFF AND DUP2 MSTORE POP POP DUP4 SWAP13 POP DUP1 DUP10 ADD SWAP9 POP DUP8 DUP1 PUSH1 0x1 ADD SWAP9 POP POP PUSH2 0x9F0 DUP15 PUSH2 0xC56 JUMP JUMPDEST ISZERO PUSH2 0xA05 JUMPI PUSH2 0x9FE DUP15 PUSH2 0xC71 JUMP JUMPDEST SWAP14 POP PUSH2 0xA15 JUMP JUMPDEST DUP13 SWAP12 POP POP POP POP POP POP POP POP POP PUSH2 0xA23 JUMP JUMPDEST POP POP POP POP POP POP POP PUSH2 0x8C9 JUMP JUMPDEST POP JUMPDEST SWAP3 SWAP6 SWAP2 SWAP5 POP SWAP3 POP JUMP JUMPDEST PUSH1 0x0 DUP4 SGT DUP1 PUSH2 0xA3B JUMPI POP PUSH1 0x0 DUP3 SGT JUMPDEST PUSH2 0xA44 JUMPI PUSH1 0x0 DUP1 REVERT JUMPDEST PUSH1 0x0 DUP1 PUSH1 0x0 PUSH2 0xA52 DUP5 PUSH2 0xC05 JUMP JUMPDEST SWAP3 POP SWAP3 POP SWAP3 POP PUSH2 0xA84 PUSH32 0x0 DUP5 DUP5 DUP5 PUSH2 0xE09 JUMP JUMPDEST POP PUSH1 0x0 DUP1 PUSH1 0x0 DUP1 DUP10 SGT PUSH2 0xACA JUMPI DUP6 PUSH20 0xFFFFFFFFFFFFFFFFFFFFFFFFFFFFFFFFFFFFFFFF AND DUP6 PUSH20 0xFFFFFFFFFFFFFFFFFFFFFFFFFFFFFFFFFFFFFFFF AND LT DUP9 DUP11 PUSH1 0x0 SUB PUSH2 0xAFF JUMP JUMPDEST DUP5 PUSH20 0xFFFFFFFFFFFFFFFFFFFFFFFFFFFFFFFFFFFFFFFF AND DUP7 PUSH20 0xFFFFFFFFFFFFFFFFFFFFFFFFFFFFFFFFFFFFFFFF AND LT DUP10 DUP10 PUSH1 0x0 SUB JUMPDEST SWAP3 POP SWAP3 POP SWAP3 POP PUSH1 0x0 PUSH2 0xB12 DUP8 DUP8 DUP8 PUSH2 0xC9A JUMP JUMPDEST SWAP1 POP PUSH1 0x0 DUP1 DUP3 PUSH20 0xFFFFFFFFFFFFFFFFFFFFFFFFFFFFFFFFFFFFFFFF AND PUSH4 0x3850C7BD PUSH1 0x40 MLOAD DUP2 PUSH4 0xFFFFFFFF AND PUSH1 0xE0 SHL DUP2 MSTORE PUSH1 0x4 ADD PUSH1 0xE0 PUSH1 0x40 MLOAD DUP1 DUP4 SUB DUP2 DUP7 DUP1 EXTCODESIZE ISZERO DUP1 ISZERO PUSH2 0xB5D JUMPI PUSH1 0x0 DUP1 REVERT JUMPDEST POP GAS STATICCALL ISZERO DUP1 ISZERO PUSH2 0xB71 JUMPI RETURNDATASIZE PUSH1 0x0 DUP1 RETURNDATACOPY RETURNDATASIZE PUSH1 0x0 REVERT JUMPDEST POP POP POP POP PUSH1 0x40 MLOAD RETURNDATASIZE PUSH1 0x1F NOT PUSH1 0x1F DUP3 ADD AND DUP3 ADD DUP1 PUSH1 0x40 MSTORE POP DUP2 ADD SWAP1 PUSH2 0xB95 SWAP2 SWAP1 PUSH2 0x210C JUMP JUMPDEST POP POP POP POP POP SWAP2 POP SWAP2 POP DUP6 ISZERO PUSH2 0xBBB JUMPI PUSH1 0x40 MLOAD DUP5 DUP2 MSTORE DUP3 PUSH1 0x20 DUP3 ADD MSTORE DUP2 PUSH1 0x40 DUP3 ADD MSTORE PUSH1 0x60 DUP2 REVERT JUMPDEST PUSH1 0x0 DUP1 SLOAD EQ PUSH2 0xBD3 JUMPI PUSH1 0x0 SLOAD DUP5 EQ PUSH2 0xBD2 JUMPI PUSH1 0x0 DUP1 REVERT JUMPDEST JUMPDEST PUSH1 0x40 MLOAD DUP6 DUP2 MSTORE DUP3 PUSH1 0x20 DUP3 ADD MSTORE DUP2 PUSH1 0x40 DUP3 ADD MSTORE PUSH1 0x60 DUP2 REVERT JUMPDEST PUSH1 0x0 PUSH1 0x3 PUSH1 0x14 ADD PUSH1 0x14 DUP4 MLOAD SUB DUP2 PUSH2 0xBFD JUMPI INVALID JUMPDEST DIV SWAP1 POP SWAP2 SWAP1 POP JUMP JUMPDEST PUSH1 0x0 DUP1 PUSH1 0x0 PUSH2 0xC1E PUSH1 0x0 DUP6 PUSH2 0xE29 SWAP1 SWAP2 SWAP1 PUSH4 0xFFFFFFFF AND JUMP JUMPDEST SWAP3 POP PUSH2 0xC34 PUSH1 0x14 DUP6 PUSH2 0xF42 SWAP1 SWAP2 SWAP1 PUSH4 0xFFFFFFFF AND JUMP JUMPDEST SWAP1 POP PUSH2 0xC4D PUSH1 0x3 PUSH1 0x14 ADD DUP6 PUSH2 0xE29 SWAP1 SWAP2 SWAP1 PUSH4 0xFFFFFFFF AND JUMP JUMPDEST SWAP2 POP SWAP2 SWAP4 SWAP1 SWAP3 POP JUMP JUMPDEST PUSH1 0x0 PUSH1 0x3 PUSH1 0x14 ADD PUSH1 0x14 PUSH1 0x3 PUSH1 0x14 ADD ADD ADD DUP3 MLOAD LT ISZERO SWAP1 POP SWAP2 SWAP1 POP JUMP JUMPDEST PUSH1 0x60 PUSH2 0xC93 PUSH1 0x3 PUSH1 0x14 ADD PUSH1 0x3 PUSH1 0x14 ADD DUP5 MLOAD SUB DUP5 PUSH2 0x104C SWAP1 SWAP3 SWAP2 SWAP1 PUSH4 0xFFFFFFFF AND JUMP JUMPDEST SWAP1 POP SWAP2 SWAP1 POP JUMP JUMPDEST PUSH1 0x0 PUSH2 0xCD0 PUSH32 0x0 PUSH2 0xCCB DUP7 DUP7 DUP7 PUSH2 0x1236 JUMP JUMPDEST PUSH2 0x12D2 JUMP JUMPDEST SWAP1 POP SWAP4 SWAP3 POP POP POP JUMP JUMPDEST PUSH1 0x0 PUSH32 0x8000000000000000000000000000000000000000000000000000000000000000 DUP3 LT PUSH2 0xD07 JUMPI PUSH1 0x0 DUP1 REVERT JUMPDEST DUP2 SWAP1 POP SWAP2 SWAP1 POP JUMP JUMPDEST PUSH1 0x0 DUP1 PUSH1 0x0 DUP1 PUSH1 0x0 DUP1 DUP8 PUSH20 0xFFFFFFFFFFFFFFFFFFFFFFFFFFFFFFFFFFFFFFFF AND PUSH4 0x3850C7BD PUSH1 0x40 MLOAD DUP2 PUSH4 0xFFFFFFFF AND PUSH1 0xE0 SHL DUP2 MSTORE PUSH1 0x4 ADD PUSH1 0xE0 PUSH1 0x40 MLOAD DUP1 DUP4 SUB DUP2 DUP7 DUP1 EXTCODESIZE ISZERO DUP1 ISZERO PUSH2 0xD5E JUMPI PUSH1 0x0 DUP1 REVERT JUMPDEST POP GAS STATICCALL ISZERO DUP1 ISZERO PUSH2 0xD72 JUMPI RETURNDATASIZE PUSH1 0x0 DUP1 RETURNDATACOPY RETURNDATASIZE PUSH1 0x0 REVERT JUMPDEST POP POP POP POP PUSH1 0x40 MLOAD RETURNDATASIZE PUSH1 0x1F NOT PUSH1 0x1F DUP3 ADD AND DUP3 ADD DUP1 PUSH1 0x40 MSTORE POP DUP2 ADD SWAP1 PUSH2 0xD96 SWAP2 SWAP1 PUSH2 0x210C JUMP JUMPDEST SWAP1 SWAP2 SWAP3 SWAP4 SWAP5 SWAP6 POP SWAP1 SWAP2 SWAP3 SWAP4 POP SWAP1 SWAP2 SWAP3 POP SWAP1 SWAP2 POP SWAP1 POP POP DUP1 SWAP3 POP POP PUSH2 0xDB9 DUP10 PUSH2 0x142D JUMP JUMPDEST DUP1 SWAP4 POP DUP2 SWAP8 POP DUP3 SWAP9 POP POP POP POP PUSH2 0xDF0 DUP3 DUP3 DUP11 PUSH20 0xFFFFFFFFFFFFFFFFFFFFFFFFFFFFFFFFFFFFFFFF AND PUSH2 0x14F7 SWAP1 SWAP3 SWAP2 SWAP1 PUSH4 0xFFFFFFFF AND JUMP JUMPDEST SWAP4 POP DUP6 DUP6 DUP6 DUP10 SWAP6 POP SWAP6 POP SWAP6 POP SWAP6 POP POP POP SWAP4 POP SWAP4 POP SWAP4 POP SWAP4 JUMP JUMPDEST PUSH1 0x0 PUSH2 0xE1F DUP6 PUSH2 0xE1A DUP7 DUP7 DUP7 PUSH2 0x1236 JUMP JUMPDEST PUSH2 0x1BDA JUMP JUMPDEST SWAP1 POP SWAP5 SWAP4 POP POP POP POP JUMP JUMPDEST PUSH1 0x0 DUP2 PUSH1 0x14 DUP4 ADD LT ISZERO PUSH2 0xEA4 JUMPI PUSH1 0x40 MLOAD PUSH32 0x8C379A000000000000000000000000000000000000000000000000000000000 DUP2 MSTORE PUSH1 0x4 ADD DUP1 DUP1 PUSH1 0x20 ADD DUP3 DUP2 SUB DUP3 MSTORE PUSH1 0x12 DUP2 MSTORE PUSH1 0x20 ADD DUP1 PUSH32 0x746F416464726573735F6F766572666C6F770000000000000000000000000000 DUP2 MSTORE POP PUSH1 0x20 ADD SWAP2 POP POP PUSH1 0x40 MLOAD DUP1 SWAP2 SUB SWAP1 REVERT JUMPDEST PUSH1 0x14 DUP3 ADD DUP4 MLOAD LT ISZERO PUSH2 0xF1E JUMPI PUSH1 0x40 MLOAD PUSH32 0x8C379A000000000000000000000000000000000000000000000000000000000 DUP2 MSTORE PUSH1 0x4 ADD DUP1 DUP1 PUSH1 0x20 ADD DUP3 DUP2 SUB DUP3 MSTORE PUSH1 0x15 DUP2 MSTORE PUSH1 0x20 ADD DUP1 PUSH32 0x746F416464726573735F6F75744F66426F756E64730000000000000000000000 DUP2 MSTORE POP PUSH1 0x20 ADD SWAP2 POP POP PUSH1 0x40 MLOAD DUP1 SWAP2 SUB SWAP1 REVERT JUMPDEST PUSH1 0x0 PUSH13 0x1000000000000000000000000 DUP4 PUSH1 0x20 DUP7 ADD ADD MLOAD DIV SWAP1 POP DUP1 SWAP2 POP POP SWAP3 SWAP2 POP POP JUMP JUMPDEST PUSH1 0x0 DUP2 PUSH1 0x3 DUP4 ADD LT ISZERO PUSH2 0xFBD JUMPI PUSH1 0x40 MLOAD PUSH32 0x8C379A000000000000000000000000000000000000000000000000000000000 DUP2 MSTORE PUSH1 0x4 ADD DUP1 DUP1 PUSH1 0x20 ADD DUP3 DUP2 SUB DUP3 MSTORE PUSH1 0x11 DUP2 MSTORE PUSH1 0x20 ADD DUP1 PUSH32 0x746F55696E7432345F6F766572666C6F77000000000000000000000000000000 DUP2 MSTORE POP PUSH1 0x20 ADD SWAP2 POP POP PUSH1 0x40 MLOAD DUP1 SWAP2 SUB SWAP1 REVERT JUMPDEST PUSH1 0x3 DUP3 ADD DUP4 MLOAD LT ISZERO PUSH2 0x1037 JUMPI PUSH1 0x40 MLOAD PUSH32 0x8C379A000000000000000000000000000000000000000000000000000000000 DUP2 MSTORE PUSH1 0x4 ADD DUP1 DUP1 PUSH1 0x20 ADD DUP3 DUP2 SUB DUP3 MSTORE PUSH1 0x14 DUP2 MSTORE PUSH1 0x20 ADD DUP1 PUSH32 0x746F55696E7432345F6F75744F66426F756E6473000000000000000000000000 DUP2 MSTORE POP PUSH1 0x20 ADD SWAP2 POP POP PUSH1 0x40 MLOAD DUP1 SWAP2 SUB SWAP1 REVERT JUMPDEST PUSH1 0x0 DUP3 PUSH1 0x3 DUP6 ADD ADD MLOAD SWAP1 POP DUP1 SWAP2 POP POP SWAP3 SWAP2 POP POP JUMP JUMPDEST PUSH1 0x60 DUP2 PUSH1 0x1F DUP4 ADD LT ISZERO PUSH2 0x10C7 JUMPI PUSH1 0x40 MLOAD PUSH32 0x8C379A000000000000000000000000000000000000000000000000000000000 DUP2 MSTORE PUSH1 0x4 ADD DUP1 DUP1 PUSH1 0x20 ADD DUP3 DUP2 SUB DUP3 MSTORE PUSH1 0xE DUP2 MSTORE PUSH1 0x20 ADD DUP1 PUSH32 0x736C6963655F6F766572666C6F77000000000000000000000000000000000000 DUP2 MSTORE POP PUSH1 0x20 ADD SWAP2 POP POP PUSH1 0x40 MLOAD DUP1 SWAP2 SUB SWAP1 REVERT JUMPDEST DUP3 DUP3 DUP5 ADD LT ISZERO PUSH2 0x113F JUMPI PUSH1 0x40 MLOAD PUSH32 0x8C379A000000000000000000000000000000000000000000000000000000000 DUP2 MSTORE PUSH1 0x4 ADD DUP1 DUP1 PUSH1 0x20 ADD DUP3 DUP2 SUB DUP3 MSTORE PUSH1 0xE DUP2 MSTORE PUSH1 0x20 ADD DUP1 PUSH32 0x736C6963655F6F766572666C6F77000000000000000000000000000000000000 DUP2 MSTORE POP PUSH1 0x20 ADD SWAP2 POP POP PUSH1 0x40 MLOAD DUP1 SWAP2 SUB SWAP1 REVERT JUMPDEST DUP2 DUP4 ADD DUP5 MLOAD LT ISZERO PUSH2 0x11B8 JUMPI PUSH1 0x40 MLOAD PUSH32 0x8C379A000000000000000000000000000000000000000000000000000000000 DUP2 MSTORE PUSH1 0x4 ADD DUP1 DUP1 PUSH1 0x20 ADD DUP3 DUP2 SUB DUP3 MSTORE PUSH1 0x11 DUP2 MSTORE PUSH1 0x20 ADD DUP1 PUSH32 0x736C6963655F6F75744F66426F756E6473000000000000000000000000000000 DUP2 MSTORE POP PUSH1 0x20 ADD SWAP2 POP POP PUSH1 0x40 MLOAD DUP1 SWAP2 SUB SWAP1 REVERT JUMPDEST PUSH1 0x60 DUP3 ISZERO PUSH1 0x0 DUP2 EQ PUSH2 0x11D9 JUMPI PUSH1 0x40 MLOAD SWAP2 POP PUSH1 0x0 DUP3 MSTORE PUSH1 0x20 DUP3 ADD PUSH1 0x40 MSTORE PUSH2 0x122A JUMP JUMPDEST PUSH1 0x40 MLOAD SWAP2 POP PUSH1 0x1F DUP5 AND DUP1 ISZERO PUSH1 0x20 MUL DUP2 DUP5 ADD ADD DUP6 DUP2 ADD DUP8 DUP4 ISZERO PUSH1 0x20 MUL DUP5 DUP12 ADD ADD ADD JUMPDEST DUP2 DUP4 LT ISZERO PUSH2 0x1217 JUMPI DUP1 MLOAD DUP4 MSTORE PUSH1 0x20 DUP4 ADD SWAP3 POP PUSH1 0x20 DUP2 ADD SWAP1 POP PUSH2 0x11FA JUMP JUMPDEST POP DUP7 DUP6 MSTORE PUSH1 0x1F NOT PUSH1 0x1F DUP4 ADD AND PUSH1 0x40 MSTORE POP POP POP JUMPDEST POP DUP1 SWAP2 POP POP SWAP4 SWAP3 POP POP POP JUMP JUMPDEST PUSH2 0x123E PUSH2 0x1C54 JUMP JUMPDEST DUP3 PUSH20 0xFFFFFFFFFFFFFFFFFFFFFFFFFFFFFFFFFFFFFFFF AND DUP5 PUSH20 0xFFFFFFFFFFFFFFFFFFFFFFFFFFFFFFFFFFFFFFFF AND GT ISZERO PUSH2 0x127D JUMPI DUP3 DUP5 DUP1 SWAP5 POP DUP2 SWAP6 POP POP POP JUMPDEST PUSH1 0x40 MLOAD DUP1 PUSH1 0x60 ADD PUSH1 0x40 MSTORE DUP1 DUP6 PUSH20 0xFFFFFFFFFFFFFFFFFFFFFFFFFFFFFFFFFFFFFFFF AND DUP2 MSTORE PUSH1 0x20 ADD DUP5 PUSH20 0xFFFFFFFFFFFFFFFFFFFFFFFFFFFFFFFFFFFFFFFF AND DUP2 MSTORE PUSH1 0x20 ADD DUP4 PUSH3 0xFFFFFF AND DUP2 MSTORE POP SWAP1 POP SWAP4 SWAP3 POP POP POP JUMP JUMPDEST PUSH1 0x0 DUP2 PUSH1 0x20 ADD MLOAD PUSH20 0xFFFFFFFFFFFFFFFFFFFFFFFFFFFFFFFFFFFFFFFF AND DUP3 PUSH1 0x0 ADD MLOAD PUSH20 0xFFFFFFFFFFFFFFFFFFFFFFFFFFFFFFFFFFFFFFFF AND LT PUSH2 0x1314 JUMPI PUSH1 0x0 DUP1 REVERT JUMPDEST DUP3 DUP3 PUSH1 0x0 ADD MLOAD DUP4 PUSH1 0x20 ADD MLOAD DUP5 PUSH1 0x40 ADD MLOAD PUSH1 0x40 MLOAD PUSH1 0x20 ADD DUP1 DUP5 PUSH20 0xFFFFFFFFFFFFFFFFFFFFFFFFFFFFFFFFFFFFFFFF AND DUP2 MSTORE PUSH1 0x20 ADD DUP4 PUSH20 0xFFFFFFFFFFFFFFFFFFFFFFFFFFFFFFFFFFFFFFFF AND DUP2 MSTORE PUSH1 0x20 ADD DUP3 PUSH3 0xFFFFFF AND DUP2 MSTORE PUSH1 0x20 ADD SWAP4 POP POP POP POP PUSH1 0x40 MLOAD PUSH1 0x20 DUP2 DUP4 SUB SUB DUP2 MSTORE SWAP1 PUSH1 0x40 MSTORE DUP1 MLOAD SWAP1 PUSH1 0x20 ADD KECCAK256 PUSH32 0xE34F199B19B2B4F47F68442619D555527D244F78A3297EA89325F843F87B8B54 PUSH1 0x0 SHL PUSH1 0x40 MLOAD PUSH1 0x20 ADD DUP1 DUP1 PUSH32 0xFF00000000000000000000000000000000000000000000000000000000000000 DUP2 MSTORE POP PUSH1 0x1 ADD DUP5 PUSH20 0xFFFFFFFFFFFFFFFFFFFFFFFFFFFFFFFFFFFFFFFF AND PUSH1 0x60 SHL DUP2 MSTORE PUSH1 0x14 ADD DUP4 DUP2 MSTORE PUSH1 0x20 ADD DUP3 DUP2 MSTORE PUSH1 0x20 ADD SWAP4 POP POP POP POP PUSH1 0x40 MLOAD PUSH1 0x20 DUP2 DUP4 SUB SUB DUP2 MSTORE SWAP1 PUSH1 0x40 MSTORE DUP1 MLOAD SWAP1 PUSH1 0x20 ADD KECCAK256 PUSH1 0x0 SHR SWAP1 POP SWAP3 SWAP2 POP POP JUMP JUMPDEST PUSH1 0x0 DUP1 PUSH1 0x0 PUSH1 0x60 DUP5 MLOAD EQ PUSH2 0x14D6 JUMPI PUSH1 0x44 DUP5 MLOAD LT ISZERO PUSH2 0x1480 JUMPI PUSH1 0x40 MLOAD PUSH32 0x8C379A000000000000000000000000000000000000000000000000000000000 DUP2 MSTORE PUSH1 0x4 ADD PUSH2 0x1477 SWAP1 PUSH2 0x2511 JUMP JUMPDEST PUSH1 0x40 MLOAD DUP1 SWAP2 SUB SWAP1 REVERT JUMPDEST PUSH1 0x4 DUP5 ADD SWAP4 POP DUP4 DUP1 PUSH1 0x20 ADD SWAP1 MLOAD DUP2 ADD SWAP1 PUSH2 0x149A SWAP2 SWAP1 PUSH2 0x2079 JUMP JUMPDEST PUSH1 0x40 MLOAD PUSH32 0x8C379A000000000000000000000000000000000000000000000000000000000 DUP2 MSTORE PUSH1 0x4 ADD PUSH2 0x14CD SWAP2 SWAP1 PUSH2 0x24EF JUMP JUMPDEST PUSH1 0x40 MLOAD DUP1 SWAP2 SUB SWAP1 REVERT JUMPDEST DUP4 DUP1 PUSH1 0x20 ADD SWAP1 MLOAD DUP2 ADD SWAP1 PUSH2 0x14EA SWAP2 SWAP1 PUSH2 0x21AA JUMP JUMPDEST SWAP3 POP SWAP3 POP SWAP3 POP SWAP2 SWAP4 SWAP1 SWAP3 POP JUMP JUMPDEST PUSH1 0x0 DUP1 PUSH1 0x0 DUP1 PUSH1 0x0 DUP1 PUSH1 0x0 DUP1 PUSH1 0x8 DUP12 PUSH20 0xFFFFFFFFFFFFFFFFFFFFFFFFFFFFFFFFFFFFFFFF AND PUSH4 0xD0C93A7C PUSH1 0x40 MLOAD DUP2 PUSH4 0xFFFFFFFF AND PUSH1 0xE0 SHL DUP2 MSTORE PUSH1 0x4 ADD PUSH1 0x20 PUSH1 0x40 MLOAD DUP1 DUP4 SUB DUP2 DUP7 DUP1 EXTCODESIZE ISZERO DUP1 ISZERO PUSH2 0x154B JUMPI PUSH1 0x0 DUP1 REVERT JUMPDEST POP GAS STATICCALL ISZERO DUP1 ISZERO PUSH2 0x155F JUMPI RETURNDATASIZE PUSH1 0x0 DUP1 RETURNDATACOPY RETURNDATASIZE PUSH1 0x0 REVERT JUMPDEST POP POP POP POP PUSH1 0x40 MLOAD RETURNDATASIZE PUSH1 0x20 DUP2 LT ISZERO PUSH2 0x1575 JUMPI PUSH1 0x0 DUP1 REVERT JUMPDEST DUP2 ADD SWAP1 DUP1 DUP1 MLOAD SWAP1 PUSH1 0x20 ADD SWAP1 SWAP3 SWAP2 SWAP1 POP POP POP PUSH1 0x2 SIGNEXTEND DUP12 PUSH1 0x2 SIGNEXTEND DUP2 PUSH2 0x1594 JUMPI INVALID JUMPDEST SDIV PUSH1 0x2 SIGNEXTEND SWAP1 SAR SWAP1 POP PUSH1 0x0 PUSH2 0x100 DUP13 PUSH20 0xFFFFFFFFFFFFFFFFFFFFFFFFFFFFFFFFFFFFFFFF AND PUSH4 0xD0C93A7C PUSH1 0x40 MLOAD DUP2 PUSH4 0xFFFFFFFF AND PUSH1 0xE0 SHL DUP2 MSTORE PUSH1 0x4 ADD PUSH1 0x20 PUSH1 0x40 MLOAD DUP1 DUP4 SUB DUP2 DUP7 DUP1 EXTCODESIZE ISZERO DUP1 ISZERO PUSH2 0x15E7 JUMPI PUSH1 0x0 DUP1 REVERT JUMPDEST POP GAS STATICCALL ISZERO DUP1 ISZERO PUSH2 0x15FB JUMPI RETURNDATASIZE PUSH1 0x0 DUP1 RETURNDATACOPY RETURNDATASIZE PUSH1 0x0 REVERT JUMPDEST POP POP POP POP PUSH1 0x40 MLOAD RETURNDATASIZE PUSH1 0x20 DUP2 LT ISZERO PUSH2 0x1611 JUMPI PUSH1 0x0 DUP1 REVERT JUMPDEST DUP2 ADD SWAP1 DUP1 DUP1 MLOAD SWAP1 PUSH1 0x20 ADD SWAP1 SWAP3 SWAP2 SWAP1 POP POP POP PUSH1 0x2 SIGNEXTEND DUP13 PUSH1 0x2 SIGNEXTEND DUP2 PUSH2 0x1630 JUMPI INVALID JUMPDEST SDIV PUSH1 0x2 SIGNEXTEND DUP2 PUSH2 0x163B JUMPI INVALID JUMPDEST SMOD SWAP1 POP PUSH1 0x0 PUSH1 0x8 DUP14 PUSH20 0xFFFFFFFFFFFFFFFFFFFFFFFFFFFFFFFFFFFFFFFF AND PUSH4 0xD0C93A7C PUSH1 0x40 MLOAD DUP2 PUSH4 0xFFFFFFFF AND PUSH1 0xE0 SHL DUP2 MSTORE PUSH1 0x4 ADD PUSH1 0x20 PUSH1 0x40 MLOAD DUP1 DUP4 SUB DUP2 DUP7 DUP1 EXTCODESIZE ISZERO DUP1 ISZERO PUSH2 0x1688 JUMPI PUSH1 0x0 DUP1 REVERT JUMPDEST POP GAS STATICCALL ISZERO DUP1 ISZERO PUSH2 0x169C JUMPI RETURNDATASIZE PUSH1 0x0 DUP1 RETURNDATACOPY RETURNDATASIZE PUSH1 0x0 REVERT JUMPDEST POP POP POP POP PUSH1 0x40 MLOAD RETURNDATASIZE PUSH1 0x20 DUP2 LT ISZERO PUSH2 0x16B2 JUMPI PUSH1 0x0 DUP1 REVERT JUMPDEST DUP2 ADD SWAP1 DUP1 DUP1 MLOAD SWAP1 PUSH1 0x20 ADD SWAP1 SWAP3 SWAP2 SWAP1 POP POP POP PUSH1 0x2 SIGNEXTEND DUP13 PUSH1 0x2 SIGNEXTEND DUP2 PUSH2 0x16D1 JUMPI INVALID JUMPDEST SDIV PUSH1 0x2 SIGNEXTEND SWAP1 SAR SWAP1 POP PUSH1 0x0 PUSH2 0x100 DUP15 PUSH20 0xFFFFFFFFFFFFFFFFFFFFFFFFFFFFFFFFFFFFFFFF AND PUSH4 0xD0C93A7C PUSH1 0x40 MLOAD DUP2 PUSH4 0xFFFFFFFF AND PUSH1 0xE0 SHL DUP2 MSTORE PUSH1 0x4 ADD PUSH1 0x20 PUSH1 0x40 MLOAD DUP1 DUP4 SUB DUP2 DUP7 DUP1 EXTCODESIZE ISZERO DUP1 ISZERO PUSH2 0x1724 JUMPI PUSH1 0x0 DUP1 REVERT JUMPDEST POP GAS STATICCALL ISZERO DUP1 ISZERO PUSH2 0x1738 JUMPI RETURNDATASIZE PUSH1 0x0 DUP1 RETURNDATACOPY RETURNDATASIZE PUSH1 0x0 REVERT JUMPDEST POP POP POP POP PUSH1 0x40 MLOAD RETURNDATASIZE PUSH1 0x20 DUP2 LT ISZERO PUSH2 0x174E JUMPI PUSH1 0x0 DUP1 REVERT JUMPDEST DUP2 ADD SWAP1 DUP1 DUP1 MLOAD SWAP1 PUSH1 0x20 ADD SWAP1 SWAP3 SWAP2 SWAP1 POP POP POP PUSH1 0x2 SIGNEXTEND DUP14 PUSH1 0x2 SIGNEXTEND DUP2 PUSH2 0x176D JUMPI INVALID JUMPDEST SDIV PUSH1 0x2 SIGNEXTEND DUP2 PUSH2 0x1778 JUMPI INVALID JUMPDEST SMOD SWAP1 POP PUSH1 0x0 DUP2 PUSH1 0xFF AND PUSH1 0x1 SWAP1 SHL DUP16 PUSH20 0xFFFFFFFFFFFFFFFFFFFFFFFFFFFFFFFFFFFFFFFF AND PUSH4 0x5339C296 DUP6 PUSH1 0x40 MLOAD DUP3 PUSH4 0xFFFFFFFF AND PUSH1 0xE0 SHL DUP2 MSTORE PUSH1 0x4 ADD DUP1 DUP3 PUSH1 0x1 SIGNEXTEND DUP2 MSTORE PUSH1 0x20 ADD SWAP2 POP POP PUSH1 0x20 PUSH1 0x40 MLOAD DUP1 DUP4 SUB DUP2 DUP7 DUP1 EXTCODESIZE ISZERO DUP1 ISZERO PUSH2 0x17D9 JUMPI PUSH1 0x0 DUP1 REVERT JUMPDEST POP GAS STATICCALL ISZERO DUP1 ISZERO PUSH2 0x17ED JUMPI RETURNDATASIZE PUSH1 0x0 DUP1 RETURNDATACOPY RETURNDATASIZE PUSH1 0x0 REVERT JUMPDEST POP POP POP POP PUSH1 0x40 MLOAD RETURNDATASIZE PUSH1 0x20 DUP2 LT ISZERO PUSH2 0x1803 JUMPI PUSH1 0x0 DUP1 REVERT JUMPDEST DUP2 ADD SWAP1 DUP1 DUP1 MLOAD SWAP1 PUSH1 0x20 ADD SWAP1 SWAP3 SWAP2 SWAP1 POP POP POP AND GT DUP1 ISZERO PUSH2 0x18B4 JUMPI POP PUSH1 0x0 DUP15 PUSH20 0xFFFFFFFFFFFFFFFFFFFFFFFFFFFFFFFFFFFFFFFF AND PUSH4 0xD0C93A7C PUSH1 0x40 MLOAD DUP2 PUSH4 0xFFFFFFFF AND PUSH1 0xE0 SHL DUP2 MSTORE PUSH1 0x4 ADD PUSH1 0x20 PUSH1 0x40 MLOAD DUP1 DUP4 SUB DUP2 DUP7 DUP1 EXTCODESIZE ISZERO DUP1 ISZERO PUSH2 0x1865 JUMPI PUSH1 0x0 DUP1 REVERT JUMPDEST POP GAS STATICCALL ISZERO DUP1 ISZERO PUSH2 0x1879 JUMPI RETURNDATASIZE PUSH1 0x0 DUP1 RETURNDATACOPY RETURNDATASIZE PUSH1 0x0 REVERT JUMPDEST POP POP POP POP PUSH1 0x40 MLOAD RETURNDATASIZE PUSH1 0x20 DUP2 LT ISZERO PUSH2 0x188F JUMPI PUSH1 0x0 DUP1 REVERT JUMPDEST DUP2 ADD SWAP1 DUP1 DUP1 MLOAD SWAP1 PUSH1 0x20 ADD SWAP1 SWAP3 SWAP2 SWAP1 POP POP POP PUSH1 0x2 SIGNEXTEND DUP14 PUSH1 0x2 SIGNEXTEND DUP2 PUSH2 0x18AE JUMPI INVALID JUMPDEST SMOD PUSH1 0x2 SIGNEXTEND EQ JUMPDEST DUP1 ISZERO PUSH2 0x18C5 JUMPI POP DUP12 PUSH1 0x2 SIGNEXTEND DUP14 PUSH1 0x2 SIGNEXTEND SGT JUMPDEST SWAP5 POP PUSH1 0x0 DUP4 PUSH1 0xFF AND PUSH1 0x1 SWAP1 SHL DUP16 PUSH20 0xFFFFFFFFFFFFFFFFFFFFFFFFFFFFFFFFFFFFFFFF AND PUSH4 0x5339C296 DUP8 PUSH1 0x40 MLOAD DUP3 PUSH4 0xFFFFFFFF AND PUSH1 0xE0 SHL DUP2 MSTORE PUSH1 0x4 ADD DUP1 DUP3 PUSH1 0x1 SIGNEXTEND DUP2 MSTORE PUSH1 0x20 ADD SWAP2 POP POP PUSH1 0x20 PUSH1 0x40 MLOAD DUP1 DUP4 SUB DUP2 DUP7 DUP1 EXTCODESIZE ISZERO DUP1 ISZERO PUSH2 0x1925 JUMPI PUSH1 0x0 DUP1 REVERT JUMPDEST POP GAS STATICCALL ISZERO DUP1 ISZERO PUSH2 0x1939 JUMPI RETURNDATASIZE PUSH1 0x0 DUP1 RETURNDATACOPY RETURNDATASIZE PUSH1 0x0 REVERT JUMPDEST POP POP POP POP PUSH1 0x40 MLOAD RETURNDATASIZE PUSH1 0x20 DUP2 LT ISZERO PUSH2 0x194F JUMPI PUSH1 0x0 DUP1 REVERT JUMPDEST DUP2 ADD SWAP1 DUP1 DUP1 MLOAD SWAP1 PUSH1 0x20 ADD SWAP1 SWAP3 SWAP2 SWAP1 POP POP POP AND GT DUP1 ISZERO PUSH2 0x1A00 JUMPI POP PUSH1 0x0 DUP15 PUSH20 0xFFFFFFFFFFFFFFFFFFFFFFFFFFFFFFFFFFFFFFFF AND PUSH4 0xD0C93A7C PUSH1 0x40 MLOAD DUP2 PUSH4 0xFFFFFFFF AND PUSH1 0xE0 SHL DUP2 MSTORE PUSH1 0x4 ADD PUSH1 0x20 PUSH1 0x40 MLOAD DUP1 DUP4 SUB DUP2 DUP7 DUP1 EXTCODESIZE ISZERO DUP1 ISZERO PUSH2 0x19B1 JUMPI PUSH1 0x0 DUP1 REVERT JUMPDEST POP GAS STATICCALL ISZERO DUP1 ISZERO PUSH2 0x19C5 JUMPI RETURNDATASIZE PUSH1 0x0 DUP1 RETURNDATACOPY RETURNDATASIZE PUSH1 0x0 REVERT JUMPDEST POP POP POP POP PUSH1 0x40 MLOAD RETURNDATASIZE PUSH1 0x20 DUP2 LT ISZERO PUSH2 0x19DB JUMPI PUSH1 0x0 DUP1 REVERT JUMPDEST DUP2 ADD SWAP1 DUP1 DUP1 MLOAD SWAP1 PUSH1 0x20 ADD SWAP1 SWAP3 SWAP2 SWAP1 POP POP POP PUSH1 0x2 SIGNEXTEND DUP15 PUSH1 0x2 SIGNEXTEND DUP2 PUSH2 0x19FA JUMPI INVALID JUMPDEST SMOD PUSH1 0x2 SIGNEXTEND EQ JUMPDEST DUP1 ISZERO PUSH2 0x1A11 JUMPI POP DUP12 PUSH1 0x2 SIGNEXTEND DUP14 PUSH1 0x2 SIGNEXTEND SLT JUMPDEST SWAP6 POP DUP2 PUSH1 0x1 SIGNEXTEND DUP5 PUSH1 0x1 SIGNEXTEND SLT DUP1 PUSH2 0x1A3E JUMPI POP DUP2 PUSH1 0x1 SIGNEXTEND DUP5 PUSH1 0x1 SIGNEXTEND EQ DUP1 ISZERO PUSH2 0x1A3D JUMPI POP DUP1 PUSH1 0xFF AND DUP4 PUSH1 0xFF AND GT ISZERO JUMPDEST JUMPDEST ISZERO PUSH2 0x1A54 JUMPI DUP4 SWAP10 POP DUP3 SWAP8 POP DUP2 SWAP9 POP DUP1 SWAP7 POP PUSH2 0x1A61 JUMP JUMPDEST DUP2 SWAP10 POP DUP1 SWAP8 POP DUP4 SWAP9 POP DUP3 SWAP7 POP JUMPDEST POP POP POP POP PUSH1 0x0 DUP5 PUSH1 0xFF AND PUSH32 0xFFFFFFFFFFFFFFFFFFFFFFFFFFFFFFFFFFFFFFFFFFFFFFFFFFFFFFFFFFFFFFFF SWAP1 SHL SWAP1 POP JUMPDEST DUP6 PUSH1 0x1 SIGNEXTEND DUP8 PUSH1 0x1 SIGNEXTEND SGT PUSH2 0x1BB2 JUMPI DUP6 PUSH1 0x1 SIGNEXTEND DUP8 PUSH1 0x1 SIGNEXTEND EQ ISZERO PUSH2 0x1ADB JUMPI DUP4 PUSH1 0xFF SUB PUSH1 0xFF AND PUSH32 0xFFFFFFFFFFFFFFFFFFFFFFFFFFFFFFFFFFFFFFFFFFFFFFFFFFFFFFFFFFFFFFFF SWAP1 SHR DUP2 AND SWAP1 POP JUMPDEST PUSH1 0x0 DUP2 DUP13 PUSH20 0xFFFFFFFFFFFFFFFFFFFFFFFFFFFFFFFFFFFFFFFF AND PUSH4 0x5339C296 DUP11 PUSH1 0x40 MLOAD DUP3 PUSH4 0xFFFFFFFF AND PUSH1 0xE0 SHL DUP2 MSTORE PUSH1 0x4 ADD DUP1 DUP3 PUSH1 0x1 SIGNEXTEND DUP2 MSTORE PUSH1 0x20 ADD SWAP2 POP POP PUSH1 0x20 PUSH1 0x40 MLOAD DUP1 DUP4 SUB DUP2 DUP7 DUP1 EXTCODESIZE ISZERO DUP1 ISZERO PUSH2 0x1B32 JUMPI PUSH1 0x0 DUP1 REVERT JUMPDEST POP GAS STATICCALL ISZERO DUP1 ISZERO PUSH2 0x1B46 JUMPI RETURNDATASIZE PUSH1 0x0 DUP1 RETURNDATACOPY RETURNDATASIZE PUSH1 0x0 REVERT JUMPDEST POP POP POP POP PUSH1 0x40 MLOAD RETURNDATASIZE PUSH1 0x20 DUP2 LT ISZERO PUSH2 0x1B5C JUMPI PUSH1 0x0 DUP1 REVERT JUMPDEST DUP2 ADD SWAP1 DUP1 DUP1 MLOAD SWAP1 PUSH1 0x20 ADD SWAP1 SWAP3 SWAP2 SWAP1 POP POP POP AND SWAP1 POP PUSH2 0x1B79 DUP2 PUSH2 0x1C26 JUMP JUMPDEST PUSH2 0xFFFF AND DUP10 ADD SWAP9 POP DUP8 DUP1 PUSH1 0x1 ADD SWAP9 POP POP PUSH32 0xFFFFFFFFFFFFFFFFFFFFFFFFFFFFFFFFFFFFFFFFFFFFFFFFFFFFFFFFFFFFFFFF SWAP2 POP POP PUSH2 0x1A91 JUMP JUMPDEST DUP2 ISZERO PUSH2 0x1BBF JUMPI PUSH1 0x1 DUP9 SUB SWAP8 POP JUMPDEST DUP3 ISZERO PUSH2 0x1BCC JUMPI PUSH1 0x1 DUP9 SUB SWAP8 POP JUMPDEST POP POP POP POP POP POP POP SWAP4 SWAP3 POP POP POP JUMP JUMPDEST PUSH1 0x0 PUSH2 0x1BE6 DUP4 DUP4 PUSH2 0x12D2 JUMP JUMPDEST SWAP1 POP DUP1 PUSH20 0xFFFFFFFFFFFFFFFFFFFFFFFFFFFFFFFFFFFFFFFF AND CALLER PUSH20 0xFFFFFFFFFFFFFFFFFFFFFFFFFFFFFFFFFFFFFFFF AND EQ PUSH2 0x1C20 JUMPI PUSH1 0x0 DUP1 REVERT JUMPDEST SWAP3 SWAP2 POP POP JUMP JUMPDEST PUSH1 0x0 DUP1 PUSH1 0x0 SWAP1 POP JUMPDEST PUSH1 0x0 DUP4 EQ PUSH2 0x1C4B JUMPI DUP1 DUP1 PUSH1 0x1 ADD SWAP2 POP POP PUSH1 0x1 DUP4 SUB DUP4 AND SWAP3 POP PUSH2 0x1C2E JUMP JUMPDEST DUP1 SWAP2 POP POP SWAP2 SWAP1 POP JUMP JUMPDEST PUSH1 0x40 MLOAD DUP1 PUSH1 0x60 ADD PUSH1 0x40 MSTORE DUP1 PUSH1 0x0 PUSH20 0xFFFFFFFFFFFFFFFFFFFFFFFFFFFFFFFFFFFFFFFF AND DUP2 MSTORE PUSH1 0x20 ADD PUSH1 0x0 PUSH20 0xFFFFFFFFFFFFFFFFFFFFFFFFFFFFFFFFFFFFFFFF AND DUP2 MSTORE PUSH1 0x20 ADD PUSH1 0x0 PUSH3 0xFFFFFF AND DUP2 MSTORE POP SWAP1 JUMP JUMPDEST PUSH1 0x0 PUSH2 0x1CB9 PUSH2 0x1CB4 DUP5 PUSH2 0x25FA JUMP JUMPDEST PUSH2 0x25C9 JUMP JUMPDEST SWAP1 POP DUP3 DUP2 MSTORE PUSH1 0x20 DUP2 ADD DUP5 DUP5 DUP5 ADD GT ISZERO PUSH2 0x1CD1 JUMPI PUSH1 0x0 DUP1 REVERT JUMPDEST PUSH2 0x1CDC DUP5 DUP3 DUP6 PUSH2 0x279D JUMP JUMPDEST POP SWAP4 SWAP3 POP POP POP JUMP JUMPDEST PUSH1 0x0 PUSH2 0x1CF7 PUSH2 0x1CF2 DUP5 PUSH2 0x262A JUMP JUMPDEST PUSH2 0x25C9 JUMP JUMPDEST SWAP1 POP DUP3 DUP2 MSTORE PUSH1 0x20 DUP2 ADD DUP5 DUP5 DUP5 ADD GT ISZERO PUSH2 0x1D0F JUMPI PUSH1 0x0 DUP1 REVERT JUMPDEST PUSH2 0x1D1A DUP5 DUP3 DUP6 PUSH2 0x27AC JUMP JUMPDEST POP SWAP4 SWAP3 POP POP POP JUMP JUMPDEST PUSH1 0x0 DUP2 CALLDATALOAD SWAP1 POP PUSH2 0x1D31 DUP2 PUSH2 0x2842 JUMP JUMPDEST SWAP3 SWAP2 POP POP JUMP JUMPDEST PUSH1 0x0 DUP2 MLOAD SWAP1 POP PUSH2 0x1D46 DUP2 PUSH2 0x2859 JUMP JUMPDEST SWAP3 SWAP2 POP POP JUMP JUMPDEST PUSH1 0x0 DUP3 PUSH1 0x1F DUP4 ADD SLT PUSH2 0x1D5D JUMPI PUSH1 0x0 DUP1 REVERT JUMPDEST DUP2 CALLDATALOAD PUSH2 0x1D6D DUP5 DUP3 PUSH1 0x20 DUP7 ADD PUSH2 0x1CA6 JUMP JUMPDEST SWAP2 POP POP SWAP3 SWAP2 POP POP JUMP JUMPDEST PUSH1 0x0 DUP2 MLOAD SWAP1 POP PUSH2 0x1D85 DUP2 PUSH2 0x2870 JUMP JUMPDEST SWAP3 SWAP2 POP POP JUMP JUMPDEST PUSH1 0x0 DUP2 CALLDATALOAD SWAP1 POP PUSH2 0x1D9A DUP2 PUSH2 0x2887 JUMP JUMPDEST SWAP3 SWAP2 POP POP JUMP JUMPDEST PUSH1 0x0 DUP2 MLOAD SWAP1 POP PUSH2 0x1DAF DUP2 PUSH2 0x2887 JUMP JUMPDEST SWAP3 SWAP2 POP POP JUMP JUMPDEST PUSH1 0x0 DUP3 PUSH1 0x1F DUP4 ADD SLT PUSH2 0x1DC6 JUMPI PUSH1 0x0 DUP1 REVERT JUMPDEST DUP2 MLOAD PUSH2 0x1DD6 DUP5 DUP3 PUSH1 0x20 DUP7 ADD PUSH2 0x1CE4 JUMP JUMPDEST SWAP2 POP POP SWAP3 SWAP2 POP POP JUMP JUMPDEST PUSH1 0x0 PUSH1 0xA0 DUP3 DUP5 SUB SLT ISZERO PUSH2 0x1DF1 JUMPI PUSH1 0x0 DUP1 REVERT JUMPDEST PUSH2 0x1DFB PUSH1 0xA0 PUSH2 0x25C9 JUMP JUMPDEST SWAP1 POP PUSH1 0x0 PUSH2 0x1E0B DUP5 DUP3 DUP6 ADD PUSH2 0x1D22 JUMP JUMPDEST PUSH1 0x0 DUP4 ADD MSTORE POP PUSH1 0x20 PUSH2 0x1E1F DUP5 DUP3 DUP6 ADD PUSH2 0x1D22 JUMP JUMPDEST PUSH1 0x20 DUP4 ADD MSTORE POP PUSH1 0x40 PUSH2 0x1E33 DUP5 DUP3 DUP6 ADD PUSH2 0x1F43 JUMP JUMPDEST PUSH1 0x40 DUP4 ADD MSTORE POP PUSH1 0x60 PUSH2 0x1E47 DUP5 DUP3 DUP6 ADD PUSH2 0x1F2E JUMP JUMPDEST PUSH1 0x60 DUP4 ADD MSTORE POP PUSH1 0x80 PUSH2 0x1E5B DUP5 DUP3 DUP6 ADD PUSH2 0x1EEF JUMP JUMPDEST PUSH1 0x80 DUP4 ADD MSTORE POP SWAP3 SWAP2 POP POP JUMP JUMPDEST PUSH1 0x0 PUSH1 0xA0 DUP3 DUP5 SUB SLT ISZERO PUSH2 0x1E79 JUMPI PUSH1 0x0 DUP1 REVERT JUMPDEST PUSH2 0x1E83 PUSH1 0xA0 PUSH2 0x25C9 JUMP JUMPDEST SWAP1 POP PUSH1 0x0 PUSH2 0x1E93 DUP5 DUP3 DUP6 ADD PUSH2 0x1D22 JUMP JUMPDEST PUSH1 0x0 DUP4 ADD MSTORE POP PUSH1 0x20 PUSH2 0x1EA7 DUP5 DUP3 DUP6 ADD PUSH2 0x1D22 JUMP JUMPDEST PUSH1 0x20 DUP4 ADD MSTORE POP PUSH1 0x40 PUSH2 0x1EBB DUP5 DUP3 DUP6 ADD PUSH2 0x1F43 JUMP JUMPDEST PUSH1 0x40 DUP4 ADD MSTORE POP PUSH1 0x60 PUSH2 0x1ECF DUP5 DUP3 DUP6 ADD PUSH2 0x1F2E JUMP JUMPDEST PUSH1 0x60 DUP4 ADD MSTORE POP PUSH1 0x80 PUSH2 0x1EE3 DUP5 DUP3 DUP6 ADD PUSH2 0x1EEF JUMP JUMPDEST PUSH1 0x80 DUP4 ADD MSTORE POP SWAP3 SWAP2 POP POP JUMP JUMPDEST PUSH1 0x0 DUP2 CALLDATALOAD SWAP1 POP PUSH2 0x1EFE DUP2 PUSH2 0x28B5 JUMP JUMPDEST SWAP3 SWAP2 POP POP JUMP JUMPDEST PUSH1 0x0 DUP2 MLOAD SWAP1 POP PUSH2 0x1F13 DUP2 PUSH2 0x28B5 JUMP JUMPDEST SWAP3 SWAP2 POP POP JUMP JUMPDEST PUSH1 0x0 DUP2 MLOAD SWAP1 POP PUSH2 0x1F28 DUP2 PUSH2 0x289E JUMP JUMPDEST SWAP3 SWAP2 POP POP JUMP JUMPDEST PUSH1 0x0 DUP2 CALLDATALOAD SWAP1 POP PUSH2 0x1F3D DUP2 PUSH2 0x28CC JUMP JUMPDEST SWAP3 SWAP2 POP POP JUMP JUMPDEST PUSH1 0x0 DUP2 CALLDATALOAD SWAP1 POP PUSH2 0x1F52 DUP2 PUSH2 0x28E3 JUMP JUMPDEST SWAP3 SWAP2 POP POP JUMP JUMPDEST PUSH1 0x0 DUP2 MLOAD SWAP1 POP PUSH2 0x1F67 DUP2 PUSH2 0x28E3 JUMP JUMPDEST SWAP3 SWAP2 POP POP JUMP JUMPDEST PUSH1 0x0 DUP2 MLOAD SWAP1 POP PUSH2 0x1F7C DUP2 PUSH2 0x28FA JUMP JUMPDEST SWAP3 SWAP2 POP POP JUMP JUMPDEST PUSH1 0x0 DUP1 PUSH1 0x40 DUP4 DUP6 SUB SLT ISZERO PUSH2 0x1F95 JUMPI PUSH1 0x0 DUP1 REVERT JUMPDEST PUSH1 0x0 DUP4 ADD CALLDATALOAD PUSH8 0xFFFFFFFFFFFFFFFF DUP2 GT ISZERO PUSH2 0x1FAF JUMPI PUSH1 0x0 DUP1 REVERT JUMPDEST PUSH2 0x1FBB DUP6 DUP3 DUP7 ADD PUSH2 0x1D4C JUMP JUMPDEST SWAP3 POP POP PUSH1 0x20 PUSH2 0x1FCC DUP6 DUP3 DUP7 ADD PUSH2 0x1F43 JUMP JUMPDEST SWAP2 POP POP SWAP3 POP SWAP3 SWAP1 POP JUMP JUMPDEST PUSH1 0x0 DUP1 PUSH1 0x40 DUP4 DUP6 SUB SLT ISZERO PUSH2 0x1FE9 JUMPI PUSH1 0x0 DUP1 REVERT JUMPDEST PUSH1 0x0 PUSH2 0x1FF7 DUP6 DUP3 DUP7 ADD PUSH2 0x1DA0 JUMP JUMPDEST SWAP3 POP POP PUSH1 0x20 PUSH2 0x2008 DUP6 DUP3 DUP7 ADD PUSH2 0x1DA0 JUMP JUMPDEST SWAP2 POP POP SWAP3 POP SWAP3 SWAP1 POP JUMP JUMPDEST PUSH1 0x0 DUP1 PUSH1 0x0 PUSH1 0x60 DUP5 DUP7 SUB SLT ISZERO PUSH2 0x2027 JUMPI PUSH1 0x0 DUP1 REVERT JUMPDEST PUSH1 0x0 PUSH2 0x2035 DUP7 DUP3 DUP8 ADD PUSH2 0x1D8B JUMP JUMPDEST SWAP4 POP POP PUSH1 0x20 PUSH2 0x2046 DUP7 DUP3 DUP8 ADD PUSH2 0x1D8B JUMP JUMPDEST SWAP3 POP POP PUSH1 0x40 DUP5 ADD CALLDATALOAD PUSH8 0xFFFFFFFFFFFFFFFF DUP2 GT ISZERO PUSH2 0x2063 JUMPI PUSH1 0x0 DUP1 REVERT JUMPDEST PUSH2 0x206F DUP7 DUP3 DUP8 ADD PUSH2 0x1D4C JUMP JUMPDEST SWAP2 POP POP SWAP3 POP SWAP3 POP SWAP3 JUMP JUMPDEST PUSH1 0x0 PUSH1 0x20 DUP3 DUP5 SUB SLT ISZERO PUSH2 0x208B JUMPI PUSH1 0x0 DUP1 REVERT JUMPDEST PUSH1 0x0 DUP3 ADD MLOAD PUSH8 0xFFFFFFFFFFFFFFFF DUP2 GT ISZERO PUSH2 0x20A5 JUMPI PUSH1 0x0 DUP1 REVERT JUMPDEST PUSH2 0x20B1 DUP5 DUP3 DUP6 ADD PUSH2 0x1DB5 JUMP JUMPDEST SWAP2 POP POP SWAP3 SWAP2 POP POP JUMP JUMPDEST PUSH1 0x0 PUSH1 0xA0 DUP3 DUP5 SUB SLT ISZERO PUSH2 0x20CC JUMPI PUSH1 0x0 DUP1 REVERT JUMPDEST PUSH1 0x0 PUSH2 0x20DA DUP5 DUP3 DUP6 ADD PUSH2 0x1DDF JUMP JUMPDEST SWAP2 POP POP SWAP3 SWAP2 POP POP JUMP JUMPDEST PUSH1 0x0 PUSH1 0xA0 DUP3 DUP5 SUB SLT ISZERO PUSH2 0x20F5 JUMPI PUSH1 0x0 DUP1 REVERT JUMPDEST PUSH1 0x0 PUSH2 0x2103 DUP5 DUP3 DUP6 ADD PUSH2 0x1E67 JUMP JUMPDEST SWAP2 POP POP SWAP3 SWAP2 POP POP JUMP JUMPDEST PUSH1 0x0 DUP1 PUSH1 0x0 DUP1 PUSH1 0x0 DUP1 PUSH1 0x0 PUSH1 0xE0 DUP9 DUP11 SUB SLT ISZERO PUSH2 0x2127 JUMPI PUSH1 0x0 DUP1 REVERT JUMPDEST PUSH1 0x0 PUSH2 0x2135 DUP11 DUP3 DUP12 ADD PUSH2 0x1F04 JUMP JUMPDEST SWAP8 POP POP PUSH1 0x20 PUSH2 0x2146 DUP11 DUP3 DUP12 ADD PUSH2 0x1D76 JUMP JUMPDEST SWAP7 POP POP PUSH1 0x40 PUSH2 0x2157 DUP11 DUP3 DUP12 ADD PUSH2 0x1F19 JUMP JUMPDEST SWAP6 POP POP PUSH1 0x60 PUSH2 0x2168 DUP11 DUP3 DUP12 ADD PUSH2 0x1F19 JUMP JUMPDEST SWAP5 POP POP PUSH1 0x80 PUSH2 0x2179 DUP11 DUP3 DUP12 ADD PUSH2 0x1F19 JUMP JUMPDEST SWAP4 POP POP PUSH1 0xA0 PUSH2 0x218A DUP11 DUP3 DUP12 ADD PUSH2 0x1F6D JUMP JUMPDEST SWAP3 POP POP PUSH1 0xC0 PUSH2 0x219B DUP11 DUP3 DUP12 ADD PUSH2 0x1D37 JUMP JUMPDEST SWAP2 POP POP SWAP3 SWAP6 SWAP9 SWAP2 SWAP5 SWAP8 POP SWAP3 SWAP6 POP JUMP JUMPDEST PUSH1 0x0 DUP1 PUSH1 0x0 PUSH1 0x60 DUP5 DUP7 SUB SLT ISZERO PUSH2 0x21BF JUMPI PUSH1 0x0 DUP1 REVERT JUMPDEST PUSH1 0x0 PUSH2 0x21CD DUP7 DUP3 DUP8 ADD PUSH2 0x1F58 JUMP JUMPDEST SWAP4 POP POP PUSH1 0x20 PUSH2 0x21DE DUP7 DUP3 DUP8 ADD PUSH2 0x1F04 JUMP JUMPDEST SWAP3 POP POP PUSH1 0x40 PUSH2 0x21EF DUP7 DUP3 DUP8 ADD PUSH2 0x1D76 JUMP JUMPDEST SWAP2 POP POP SWAP3 POP SWAP3 POP SWAP3 JUMP JUMPDEST PUSH1 0x0 PUSH2 0x2205 DUP4 DUP4 PUSH2 0x23DB JUMP JUMPDEST PUSH1 0x20 DUP4 ADD SWAP1 POP SWAP3 SWAP2 POP POP JUMP JUMPDEST PUSH1 0x0 PUSH2 0x221D DUP4 DUP4 PUSH2 0x241F JUMP JUMPDEST PUSH1 0x20 DUP4 ADD SWAP1 POP SWAP3 SWAP2 POP POP JUMP JUMPDEST PUSH2 0x2232 DUP2 PUSH2 0x2704 JUMP JUMPDEST DUP3 MSTORE POP POP JUMP JUMPDEST PUSH2 0x2249 PUSH2 0x2244 DUP3 PUSH2 0x2704 JUMP JUMPDEST PUSH2 0x27DF JUMP JUMPDEST DUP3 MSTORE POP POP JUMP JUMPDEST PUSH1 0x0 PUSH2 0x225A DUP3 PUSH2 0x267A JUMP JUMPDEST PUSH2 0x2264 DUP2 DUP6 PUSH2 0x26C0 JUMP JUMPDEST SWAP4 POP PUSH2 0x226F DUP4 PUSH2 0x265A JUMP JUMPDEST DUP1 PUSH1 0x0 JUMPDEST DUP4 DUP2 LT ISZERO PUSH2 0x22A0 JUMPI DUP2 MLOAD PUSH2 0x2287 DUP9 DUP3 PUSH2 0x21F9 JUMP JUMPDEST SWAP8 POP PUSH2 0x2292 DUP4 PUSH2 0x26A6 JUMP JUMPDEST SWAP3 POP POP PUSH1 0x1 DUP2 ADD SWAP1 POP PUSH2 0x2273 JUMP JUMPDEST POP DUP6 SWAP4 POP POP POP POP SWAP3 SWAP2 POP POP JUMP JUMPDEST PUSH1 0x0 PUSH2 0x22B8 DUP3 PUSH2 0x2685 JUMP JUMPDEST PUSH2 0x22C2 DUP2 DUP6 PUSH2 0x26D1 JUMP JUMPDEST SWAP4 POP PUSH2 0x22CD DUP4 PUSH2 0x266A JUMP JUMPDEST DUP1 PUSH1 0x0 JUMPDEST DUP4 DUP2 LT ISZERO PUSH2 0x22FE JUMPI DUP2 MLOAD PUSH2 0x22E5 DUP9 DUP3 PUSH2 0x2211 JUMP JUMPDEST SWAP8 POP PUSH2 0x22F0 DUP4 PUSH2 0x26B3 JUMP JUMPDEST SWAP3 POP POP PUSH1 0x1 DUP2 ADD SWAP1 POP PUSH2 0x22D1 JUMP JUMPDEST POP DUP6 SWAP4 POP POP POP POP SWAP3 SWAP2 POP POP JUMP JUMPDEST PUSH2 0x2314 DUP2 PUSH2 0x2716 JUMP JUMPDEST DUP3 MSTORE POP POP JUMP JUMPDEST PUSH1 0x0 PUSH2 0x2325 DUP3 PUSH2 0x2690 JUMP JUMPDEST PUSH2 0x232F DUP2 DUP6 PUSH2 0x26E2 JUMP JUMPDEST SWAP4 POP PUSH2 0x233F DUP2 DUP6 PUSH1 0x20 DUP7 ADD PUSH2 0x27AC JUMP JUMPDEST PUSH2 0x2348 DUP2 PUSH2 0x2817 JUMP JUMPDEST DUP5 ADD SWAP2 POP POP SWAP3 SWAP2 POP POP JUMP JUMPDEST PUSH2 0x235C DUP2 PUSH2 0x272F JUMP JUMPDEST DUP3 MSTORE POP POP JUMP JUMPDEST PUSH1 0x0 PUSH2 0x236D DUP3 PUSH2 0x269B JUMP JUMPDEST PUSH2 0x2377 DUP2 DUP6 PUSH2 0x26F3 JUMP JUMPDEST SWAP4 POP PUSH2 0x2387 DUP2 DUP6 PUSH1 0x20 DUP7 ADD PUSH2 0x27AC JUMP JUMPDEST PUSH2 0x2390 DUP2 PUSH2 0x2817 JUMP JUMPDEST DUP5 ADD SWAP2 POP POP SWAP3 SWAP2 POP POP JUMP JUMPDEST PUSH1 0x0 PUSH2 0x23A8 PUSH1 0x10 DUP4 PUSH2 0x26F3 JUMP JUMPDEST SWAP2 POP PUSH32 0x556E6578706563746564206572726F7200000000000000000000000000000000 PUSH1 0x0 DUP4 ADD MSTORE PUSH1 0x20 DUP3 ADD SWAP1 POP SWAP2 SWAP1 POP JUMP JUMPDEST PUSH2 0x23E4 DUP2 PUSH2 0x2747 JUMP JUMPDEST DUP3 MSTORE POP POP JUMP JUMPDEST PUSH2 0x23F3 DUP2 PUSH2 0x2747 JUMP JUMPDEST DUP3 MSTORE POP POP JUMP JUMPDEST PUSH2 0x240A PUSH2 0x2405 DUP3 PUSH2 0x2767 JUMP JUMPDEST PUSH2 0x2803 JUMP JUMPDEST DUP3 MSTORE POP POP JUMP JUMPDEST PUSH2 0x2419 DUP2 PUSH2 0x2776 JUMP JUMPDEST DUP3 MSTORE POP POP JUMP JUMPDEST PUSH2 0x2428 DUP2 PUSH2 0x2780 JUMP JUMPDEST DUP3 MSTORE POP POP JUMP JUMPDEST PUSH2 0x2437 DUP2 PUSH2 0x2780 JUMP JUMPDEST DUP3 MSTORE POP POP JUMP JUMPDEST PUSH1 0x0 PUSH2 0x2449 DUP3 DUP7 PUSH2 0x2238 JUMP JUMPDEST PUSH1 0x14 DUP3 ADD SWAP2 POP PUSH2 0x2459 DUP3 DUP6 PUSH2 0x23F9 JUMP JUMPDEST PUSH1 0x3 DUP3 ADD SWAP2 POP PUSH2 0x2469 DUP3 DUP5 PUSH2 0x2238 JUMP JUMPDEST PUSH1 0x14 DUP3 ADD SWAP2 POP DUP2 SWAP1 POP SWAP5 SWAP4 POP POP POP POP JUMP JUMPDEST PUSH1 0x0 PUSH1 0x20 DUP3 ADD SWAP1 POP PUSH2 0x248F PUSH1 0x0 DUP4 ADD DUP5 PUSH2 0x2229 JUMP JUMPDEST SWAP3 SWAP2 POP POP JUMP JUMPDEST PUSH1 0x0 PUSH1 0xA0 DUP3 ADD SWAP1 POP PUSH2 0x24AA PUSH1 0x0 DUP4 ADD DUP9 PUSH2 0x2229 JUMP JUMPDEST PUSH2 0x24B7 PUSH1 0x20 DUP4 ADD DUP8 PUSH2 0x230B JUMP JUMPDEST PUSH2 0x24C4 PUSH1 0x40 DUP4 ADD DUP7 PUSH2 0x2353 JUMP JUMPDEST PUSH2 0x24D1 PUSH1 0x60 DUP4 ADD DUP6 PUSH2 0x23EA JUMP JUMPDEST DUP2 DUP2 SUB PUSH1 0x80 DUP4 ADD MSTORE PUSH2 0x24E3 DUP2 DUP5 PUSH2 0x231A JUMP JUMPDEST SWAP1 POP SWAP7 SWAP6 POP POP POP POP POP POP JUMP JUMPDEST PUSH1 0x0 PUSH1 0x20 DUP3 ADD SWAP1 POP DUP2 DUP2 SUB PUSH1 0x0 DUP4 ADD MSTORE PUSH2 0x2509 DUP2 DUP5 PUSH2 0x2362 JUMP JUMPDEST SWAP1 POP SWAP3 SWAP2 POP POP JUMP JUMPDEST PUSH1 0x0 PUSH1 0x20 DUP3 ADD SWAP1 POP DUP2 DUP2 SUB PUSH1 0x0 DUP4 ADD MSTORE PUSH2 0x252A DUP2 PUSH2 0x239B JUMP JUMPDEST SWAP1 POP SWAP2 SWAP1 POP JUMP JUMPDEST PUSH1 0x0 PUSH1 0x80 DUP3 ADD SWAP1 POP PUSH2 0x2546 PUSH1 0x0 DUP4 ADD DUP8 PUSH2 0x2410 JUMP JUMPDEST DUP2 DUP2 SUB PUSH1 0x20 DUP4 ADD MSTORE PUSH2 0x2558 DUP2 DUP7 PUSH2 0x224F JUMP JUMPDEST SWAP1 POP DUP2 DUP2 SUB PUSH1 0x40 DUP4 ADD MSTORE PUSH2 0x256C DUP2 DUP6 PUSH2 0x22AD JUMP JUMPDEST SWAP1 POP PUSH2 0x257B PUSH1 0x60 DUP4 ADD DUP5 PUSH2 0x2410 JUMP JUMPDEST SWAP6 SWAP5 POP POP POP POP POP JUMP JUMPDEST PUSH1 0x0 PUSH1 0x80 DUP3 ADD SWAP1 POP PUSH2 0x2599 PUSH1 0x0 DUP4 ADD DUP8 PUSH2 0x2410 JUMP JUMPDEST PUSH2 0x25A6 PUSH1 0x20 DUP4 ADD DUP7 PUSH2 0x23EA JUMP JUMPDEST PUSH2 0x25B3 PUSH1 0x40 DUP4 ADD DUP6 PUSH2 0x242E JUMP JUMPDEST PUSH2 0x25C0 PUSH1 0x60 DUP4 ADD DUP5 PUSH2 0x2410 JUMP JUMPDEST SWAP6 SWAP5 POP POP POP POP POP JUMP JUMPDEST PUSH1 0x0 PUSH1 0x40 MLOAD SWAP1 POP DUP2 DUP2 ADD DUP2 DUP2 LT PUSH8 0xFFFFFFFFFFFFFFFF DUP3 GT OR ISZERO PUSH2 0x25F0 JUMPI PUSH2 0x25EF PUSH2 0x2815 JUMP JUMPDEST JUMPDEST DUP1 PUSH1 0x40 MSTORE POP SWAP2 SWAP1 POP JUMP JUMPDEST PUSH1 0x0 PUSH8 0xFFFFFFFFFFFFFFFF DUP3 GT ISZERO PUSH2 0x2615 JUMPI PUSH2 0x2614 PUSH2 0x2815 JUMP JUMPDEST JUMPDEST PUSH1 0x1F NOT PUSH1 0x1F DUP4 ADD AND SWAP1 POP PUSH1 0x20 DUP2 ADD SWAP1 POP SWAP2 SWAP1 POP JUMP JUMPDEST PUSH1 0x0 PUSH8 0xFFFFFFFFFFFFFFFF DUP3 GT ISZERO PUSH2 0x2645 JUMPI PUSH2 0x2644 PUSH2 0x2815 JUMP JUMPDEST JUMPDEST PUSH1 0x1F NOT PUSH1 0x1F DUP4 ADD AND SWAP1 POP PUSH1 0x20 DUP2 ADD SWAP1 POP SWAP2 SWAP1 POP JUMP JUMPDEST PUSH1 0x0 DUP2 SWAP1 POP PUSH1 0x20 DUP3 ADD SWAP1 POP SWAP2 SWAP1 POP JUMP JUMPDEST PUSH1 0x0 DUP2 SWAP1 POP PUSH1 0x20 DUP3 ADD SWAP1 POP SWAP2 SWAP1 POP JUMP JUMPDEST PUSH1 0x0 DUP2 MLOAD SWAP1 POP SWAP2 SWAP1 POP JUMP JUMPDEST PUSH1 0x0 DUP2 MLOAD SWAP1 POP SWAP2 SWAP1 POP JUMP JUMPDEST PUSH1 0x0 DUP2 MLOAD SWAP1 POP SWAP2 SWAP1 POP JUMP JUMPDEST PUSH1 0x0 DUP2 MLOAD SWAP1 POP SWAP2 SWAP1 POP JUMP JUMPDEST PUSH1 0x0 PUSH1 0x20 DUP3 ADD SWAP1 POP SWAP2 SWAP1 POP JUMP JUMPDEST PUSH1 0x0 PUSH1 0x20 DUP3 ADD SWAP1 POP SWAP2 SWAP1 POP JUMP JUMPDEST PUSH1 0x0 DUP3 DUP3 MSTORE PUSH1 0x20 DUP3 ADD SWAP1 POP SWAP3 SWAP2 POP POP JUMP JUMPDEST PUSH1 0x0 DUP3 DUP3 MSTORE PUSH1 0x20 DUP3 ADD SWAP1 POP SWAP3 SWAP2 POP POP JUMP JUMPDEST PUSH1 0x0 DUP3 DUP3 MSTORE PUSH1 0x20 DUP3 ADD SWAP1 POP SWAP3 SWAP2 POP POP JUMP JUMPDEST PUSH1 0x0 DUP3 DUP3 MSTORE PUSH1 0x20 DUP3 ADD SWAP1 POP SWAP3 SWAP2 POP POP JUMP JUMPDEST PUSH1 0x0 PUSH2 0x270F DUP3 PUSH2 0x2747 JUMP JUMPDEST SWAP1 POP SWAP2 SWAP1 POP JUMP JUMPDEST PUSH1 0x0 DUP2 ISZERO ISZERO SWAP1 POP SWAP2 SWAP1 POP JUMP JUMPDEST PUSH1 0x0 DUP2 PUSH1 0x2 SIGNEXTEND SWAP1 POP SWAP2 SWAP1 POP JUMP JUMPDEST PUSH1 0x0 DUP2 SWAP1 POP SWAP2 SWAP1 POP JUMP JUMPDEST PUSH1 0x0 PUSH2 0xFFFF DUP3 AND SWAP1 POP SWAP2 SWAP1 POP JUMP JUMPDEST PUSH1 0x0 PUSH20 0xFFFFFFFFFFFFFFFFFFFFFFFFFFFFFFFFFFFFFFFF DUP3 AND SWAP1 POP SWAP2 SWAP1 POP JUMP JUMPDEST PUSH1 0x0 PUSH3 0xFFFFFF DUP3 AND SWAP1 POP SWAP2 SWAP1 POP JUMP JUMPDEST PUSH1 0x0 DUP2 SWAP1 POP SWAP2 SWAP1 POP JUMP JUMPDEST PUSH1 0x0 PUSH4 0xFFFFFFFF DUP3 AND SWAP1 POP SWAP2 SWAP1 POP JUMP JUMPDEST PUSH1 0x0 PUSH1 0xFF DUP3 AND SWAP1 POP SWAP2 SWAP1 POP JUMP JUMPDEST DUP3 DUP2 DUP4 CALLDATACOPY PUSH1 0x0 DUP4 DUP4 ADD MSTORE POP POP POP JUMP JUMPDEST PUSH1 0x0 JUMPDEST DUP4 DUP2 LT ISZERO PUSH2 0x27CA JUMPI DUP1 DUP3 ADD MLOAD DUP2 DUP5 ADD MSTORE PUSH1 0x20 DUP2 ADD SWAP1 POP PUSH2 0x27AF JUMP JUMPDEST DUP4 DUP2 GT ISZERO PUSH2 0x27D9 JUMPI PUSH1 0x0 DUP5 DUP5 ADD MSTORE JUMPDEST POP POP POP POP JUMP JUMPDEST PUSH1 0x0 PUSH2 0x27EA DUP3 PUSH2 0x27F1 JUMP JUMPDEST SWAP1 POP SWAP2 SWAP1 POP JUMP JUMPDEST PUSH1 0x0 PUSH2 0x27FC DUP3 PUSH2 0x2835 JUMP JUMPDEST SWAP1 POP SWAP2 SWAP1 POP JUMP JUMPDEST PUSH1 0x0 PUSH2 0x280E DUP3 PUSH2 0x2828 JUMP JUMPDEST SWAP1 POP SWAP2 SWAP1 POP JUMP JUMPDEST INVALID JUMPDEST PUSH1 0x0 PUSH1 0x1F NOT PUSH1 0x1F DUP4 ADD AND SWAP1 POP SWAP2 SWAP1 POP JUMP JUMPDEST PUSH1 0x0 DUP2 PUSH1 0xE8 SHL SWAP1 POP SWAP2 SWAP1 POP JUMP JUMPDEST PUSH1 0x0 DUP2 PUSH1 0x60 SHL SWAP1 POP SWAP2 SWAP1 POP JUMP JUMPDEST PUSH2 0x284B DUP2 PUSH2 0x2704 JUMP JUMPDEST DUP2 EQ PUSH2 0x2856 JUMPI PUSH1 0x0 DUP1 REVERT JUMPDEST POP JUMP JUMPDEST PUSH2 0x2862 DUP2 PUSH2 0x2716 JUMP JUMPDEST DUP2 EQ PUSH2 0x286D JUMPI PUSH1 0x0 DUP1 REVERT JUMPDEST POP JUMP JUMPDEST PUSH2 0x2879 DUP2 PUSH2 0x2722 JUMP JUMPDEST DUP2 EQ PUSH2 0x2884 JUMPI PUSH1 0x0 DUP1 REVERT JUMPDEST POP JUMP JUMPDEST PUSH2 0x2890 DUP2 PUSH2 0x272F JUMP JUMPDEST DUP2 EQ PUSH2 0x289B JUMPI PUSH1 0x0 DUP1 REVERT JUMPDEST POP JUMP JUMPDEST PUSH2 0x28A7 DUP2 PUSH2 0x2739 JUMP JUMPDEST DUP2 EQ PUSH2 0x28B2 JUMPI PUSH1 0x0 DUP1 REVERT JUMPDEST POP JUMP JUMPDEST PUSH2 0x28BE DUP2 PUSH2 0x2747 JUMP JUMPDEST DUP2 EQ PUSH2 0x28C9 JUMPI PUSH1 0x0 DUP1 REVERT JUMPDEST POP JUMP JUMPDEST PUSH2 0x28D5 DUP2 PUSH2 0x2767 JUMP JUMPDEST DUP2 EQ PUSH2 0x28E0 JUMPI PUSH1 0x0 DUP1 REVERT JUMPDEST POP JUMP JUMPDEST PUSH2 0x28EC DUP2 PUSH2 0x2776 JUMP JUMPDEST DUP2 EQ PUSH2 0x28F7 JUMPI PUSH1 0x0 DUP1 REVERT JUMPDEST POP JUMP JUMPDEST PUSH2 0x2903 DUP2 PUSH2 0x2790 JUMP JUMPDEST DUP2 EQ PUSH2 0x290E JUMPI PUSH1 0x0 DUP1 REVERT JUMPDEST POP JUMP INVALID LOG2 PUSH5 0x6970667358 0x22 SLT KECCAK256 INVALID DIFFICULTY MULMOD 0xC7 PUSH22 0x35903B92BAB013CBC24CC06A05D608CCCDA9E76CDD9D 0xE4 PUSH24 0x2C353764736F6C6343000706003300000000000000000000 "
				},
				"gasEstimates": {
					"creation": {
						"codeDepositCost": "2113400",
						"executionCost": "infinite",
						"totalCost": "infinite"
					},
					"external": {
						"WETH9()": "infinite",
						"factory()": "infinite",
						"quoteExactInput(bytes,uint256)": "infinite",
						"quoteExactInputSingle((address,address,uint256,uint24,uint160))": "infinite",
						"quoteExactOutput(bytes,uint256)": "infinite",
						"quoteExactOutputSingle((address,address,uint256,uint24,uint160))": "infinite",
						"uniswapV3SwapCallback(int256,int256,bytes)": "infinite"
					},
					"internal": {
						"getPool(address,address,uint24)": "infinite",
						"handleRevert(bytes memory,contract IUniswapV3Pool,uint256)": "infinite",
						"parseRevertReason(bytes memory)": "infinite"
					}
				},
				"methodIdentifiers": {
					"WETH9()": "4aa4a4fc",
					"factory()": "c45a0155",
					"quoteExactInput(bytes,uint256)": "cdca1753",
					"quoteExactInputSingle((address,address,uint256,uint24,uint160))": "c6a5026a",
					"quoteExactOutput(bytes,uint256)": "2f80bb1d",
					"quoteExactOutputSingle((address,address,uint256,uint24,uint160))": "bd21704a",
					"uniswapV3SwapCallback(int256,int256,bytes)": "fa461e33"
				}
			},
			"storageLayout": {
				"storage": [
					{
						"astId": 170,
						"contract": ".deps/github/Uniswap/v3-periphery/contracts/lens/QuoterV2.sol:QuoterV2",
						"label": "amountOutCached",
						"offset": 0,
						"slot": "0",
						"type": "t_uint256"
					}
				],
				"types": {
					"t_uint256": {
						"encoding": "inplace",
						"label": "uint256",
						"numberOfBytes": "32"
					}
				}
			},
			"userdoc": {
				"kind": "user",
				"methods": {
					"quoteExactInput(bytes,uint256)": {
						"notice": "Returns the amount out received for a given exact input swap without executing the swap"
					},
					"quoteExactInputSingle((address,address,uint256,uint24,uint160))": {
						"notice": "Returns the amount out received for a given exact input but for a swap of a single pool"
					},
					"quoteExactOutput(bytes,uint256)": {
						"notice": "Returns the amount in required for a given exact output swap without executing the swap"
					},
					"quoteExactOutputSingle((address,address,uint256,uint24,uint160))": {
						"notice": "Returns the amount in required to receive the given exact output amount but for a swap of a single pool"
					},
					"uniswapV3SwapCallback(int256,int256,bytes)": {
						"notice": "Called to `msg.sender` after executing a swap via IUniswapV3Pool#swap."
					}
				},
				"notice": "Allows getting the expected amount out or amount in for a given swap without executing the swap",
				"version": 1
			}
		}
	}
}