{
	"data": {
		"bytecode": {
			"linkReferences": {},
			"object": "60c06040523480156200001157600080fd5b5060405162002ad238038062002ad28339818101604052810190620000379190620000c8565b81818173ffffffffffffffffffffffffffffffffffffffff1660808173ffffffffffffffffffffffffffffffffffffffff1660601b815250508073ffffffffffffffffffffffffffffffffffffffff1660a08173ffffffffffffffffffffffffffffffffffffffff1660601b815250505050505062000157565b600081519050620000c2816200013d565b92915050565b60008060408385031215620000dc57600080fd5b6000620000ec85828601620000b1565b9250506020620000ff85828601620000b1565b9150509250929050565b600062000116826200011d565b9050919050565b600073ffffffffffffffffffffffffffffffffffffffff82169050919050565b620001488162000109565b81146200015457600080fd5b50565b60805160601c60a05160601c6129476200018b600039806103b75250806106185280610a5d5280610ca152506129476000f3fe608060405234801561001057600080fd5b506004361061007d5760003560e01c8063c45a01551161005b578063c45a015514610106578063c6a5026a14610124578063cdca175314610157578063fa461e331461018a5761007d565b80632f80bb1d146100825780634aa4a4fc146100b5578063bd21704a146100d3575b600080fd5b61009c60048036038101906100979190611f82565b6101a6565b6040516100ac9493929190612531565b60405180910390f35b6100bd6103b5565b6040516100ca919061247a565b60405180910390f35b6100ed60048036038101906100e891906120e3565b6103d9565b6040516100fd9493929190612584565b60405180910390f35b61010e610616565b60405161011b919061247a565b60405180910390f35b61013e600480360381019061013991906120ba565b61063a565b60405161014e9493929190612584565b60405180910390f35b610171600480360381019061016c9190611f82565b61081d565b6040516101819493929190612531565b60405180910390f35b6101a4600480360381019061019f9190612012565b610a2c565b005b600060608060006101b686610bea565b67ffffffffffffffff811180156101cc57600080fd5b506040519080825280602002602001820160405280156101fb5781602001602082028036833780820191505090505b50925061020786610bea565b67ffffffffffffffff8111801561021d57600080fd5b5060405190808252806020026020018201604052801561024c5781602001602082028036833780820191505090505b50915060005b6001156103aa5760008060006102678a610c05565b9250925092506000806000806102ea6040518060a001604052808873ffffffffffffffffffffffffffffffffffffffff1681526020018973ffffffffffffffffffffffffffffffffffffffff1681526020018f81526020018762ffffff168152602001600073ffffffffffffffffffffffffffffffffffffffff168152506103d9565b9350935093509350828b89815181106102ff57fe5b602002602001019073ffffffffffffffffffffffffffffffffffffffff16908173ffffffffffffffffffffffffffffffffffffffff1681525050818a898151811061034657fe5b602002602001019063ffffffff16908163ffffffff1681525050839c50808901985087806001019850506103798e610c56565b1561038e576103878e610c71565b9d5061039e565b8c9b5050505050505050506103ac565b50505050505050610252565b505b92959194509250565b7f000000000000000000000000000000000000000000000000000000000000000081565b6000806000806000856020015173ffffffffffffffffffffffffffffffffffffffff16866000015173ffffffffffffffffffffffffffffffffffffffff161090506000610433876000015188602001518960600151610c9a565b90506000876080015173ffffffffffffffffffffffffffffffffffffffff1614156104645786604001516000819055505b60005a90508173ffffffffffffffffffffffffffffffffffffffff1663128acb0830856104948c60400151610cd9565b60000360008d6080015173ffffffffffffffffffffffffffffffffffffffff16146104c3578c608001516104f0565b876104e557600173fffd8963efd1fc6a506488495d951d5263988d26036104ef565b60016401000276a3015b5b8d602001518e606001518f600001516040516020016105119392919061243d565b6040516020818303038152906040526040518663ffffffff1660e01b8152600401610540959493929190612495565b6040805180830381600087803b15801561055957600080fd5b505af192505050801561058a57506040513d601f19601f820116820180604052508101906105879190611fd6565b60015b610609573d80600081146105ba576040519150601f19603f3d011682016040523d82523d6000602084013e6105bf565b606091505b505a820394506000896080015173ffffffffffffffffffffffffffffffffffffffff1614156105ed57600080555b6105f8818487610d0f565b97509750975097505050505061060f565b50505050505b9193509193565b7f000000000000000000000000000000000000000000000000000000000000000081565b6000806000806000856020015173ffffffffffffffffffffffffffffffffffffffff16866000015173ffffffffffffffffffffffffffffffffffffffff161090506000610694876000015188602001518960600151610c9a565b905060005a90508173ffffffffffffffffffffffffffffffffffffffff1663128acb0830856106c68c60400151610cd9565b60008d6080015173ffffffffffffffffffffffffffffffffffffffff16146106f2578c6080015161071f565b8761071457600173fffd8963efd1fc6a506488495d951d5263988d260361071e565b60016401000276a3015b5b8d600001518e606001518f602001516040516020016107409392919061243d565b6040516020818303038152906040526040518663ffffffff1660e01b815260040161076f959493929190612495565b6040805180830381600087803b15801561078857600080fd5b505af19250505080156107b957506040513d601f19601f820116820180604052508101906107b69190611fd6565b60015b610810573d80600081146107e9576040519150601f19603f3d011682016040523d82523d6000602084013e6107ee565b606091505b505a820394506107ff818487610d0f565b975097509750975050505050610816565b50505050505b9193509193565b6000606080600061082d86610bea565b67ffffffffffffffff8111801561084357600080fd5b506040519080825280602002602001820160405280156108725781602001602082028036833780820191505090505b50925061087e86610bea565b67ffffffffffffffff8111801561089457600080fd5b506040519080825280602002602001820160405280156108c35781602001602082028036833780820191505090505b50915060005b600115610a215760008060006108de8a610c05565b9250925092506000806000806109616040518060a001604052808973ffffffffffffffffffffffffffffffffffffffff1681526020018873ffffffffffffffffffffffffffffffffffffffff1681526020018f81526020018762ffffff168152602001600073ffffffffffffffffffffffffffffffffffffffff1681525061063a565b9350935093509350828b898151811061097657fe5b602002602001019073ffffffffffffffffffffffffffffffffffffffff16908173ffffffffffffffffffffffffffffffffffffffff1681525050818a89815181106109bd57fe5b602002602001019063ffffffff16908163ffffffff1681525050839c50808901985087806001019850506109f08e610c56565b15610a05576109fe8e610c71565b9d50610a15565b8c9b505050505050505050610a23565b505050505050506108c9565b505b92959194509250565b6000831380610a3b5750600082135b610a4457600080fd5b6000806000610a5284610c05565b925092509250610a847f0000000000000000000000000000000000000000000000000000000000000000848484610e09565b506000806000808913610aca578573ffffffffffffffffffffffffffffffffffffffff168573ffffffffffffffffffffffffffffffffffffffff1610888a600003610aff565b8473ffffffffffffffffffffffffffffffffffffffff168673ffffffffffffffffffffffffffffffffffffffff161089896000035b9250925092506000610b12878787610c9a565b90506000808273ffffffffffffffffffffffffffffffffffffffff16633850c7bd6040518163ffffffff1660e01b815260040160e06040518083038186803b158015610b5d57600080fd5b505afa158015610b71573d6000803e3d6000fd5b505050506040513d601f19601f82011682018060405250810190610b95919061210c565b5050505050915091508515610bbb57604051848152826020820152816040820152606081fd5b6000805414610bd3576000548414610bd257600080fd5b5b604051858152826020820152816040820152606081fd5b60006003601401601483510381610bfd57fe5b049050919050565b6000806000610c1e600085610e2990919063ffffffff16565b9250610c34601485610f4290919063ffffffff16565b9050610c4d600360140185610e2990919063ffffffff16565b91509193909250565b60006003601401601460036014010101825110159050919050565b6060610c93600360140160036014018451038461104c9092919063ffffffff16565b9050919050565b6000610cd07f0000000000000000000000000000000000000000000000000000000000000000610ccb868686611236565b6112d2565b90509392505050565b60007f80000000000000000000000000000000000000000000000000000000000000008210610d0757600080fd5b819050919050565b6000806000806000808773ffffffffffffffffffffffffffffffffffffffff16633850c7bd6040518163ffffffff1660e01b815260040160e06040518083038186803b158015610d5e57600080fd5b505afa158015610d72573d6000803e3d6000fd5b505050506040513d601f19601f82011682018060405250810190610d96919061210c565b9091929394955090919293509091925090915090505080925050610db98961142d565b809350819750829850505050610df082828a73ffffffffffffffffffffffffffffffffffffffff166114f79092919063ffffffff16565b9350858585899550955095509550505093509350935093565b6000610e1f85610e1a868686611236565b611bda565b9050949350505050565b600081601483011015610ea4576040517f08c379a00000000000000000000000000000000000000000000000000000000081526004018080602001828103825260128152602001807f746f416464726573735f6f766572666c6f77000000000000000000000000000081525060200191505060405180910390fd5b6014820183511015610f1e576040517f08c379a00000000000000000000000000000000000000000000000000000000081526004018080602001828103825260158152602001807f746f416464726573735f6f75744f66426f756e6473000000000000000000000081525060200191505060405180910390fd5b60006c01000000000000000000000000836020860101510490508091505092915050565b600081600383011015610fbd576040517f08c379a00000000000000000000000000000000000000000000000000000000081526004018080602001828103825260118152602001807f746f55696e7432345f6f766572666c6f7700000000000000000000000000000081525060200191505060405180910390fd5b6003820183511015611037576040517f08c379a00000000000000000000000000000000000000000000000000000000081526004018080602001828103825260148152602001807f746f55696e7432345f6f75744f66426f756e647300000000000000000000000081525060200191505060405180910390fd5b60008260038501015190508091505092915050565b606081601f830110156110c7576040517f08c379a000000000000000000000000000000000000000000000000000000000815260040180806020018281038252600e8152602001807f736c6963655f6f766572666c6f7700000000000000000000000000000000000081525060200191505060405180910390fd5b82828401101561113f576040517f08c379a000000000000000000000000000000000000000000000000000000000815260040180806020018281038252600e8152602001807f736c6963655f6f766572666c6f7700000000000000000000000000000000000081525060200191505060405180910390fd5b818301845110156111b8576040517f08c379a00000000000000000000000000000000000000000000000000000000081526004018080602001828103825260118152602001807f736c6963655f6f75744f66426f756e647300000000000000000000000000000081525060200191505060405180910390fd5b60608215600081146111d9576040519150600082526020820160405261122a565b6040519150601f8416801560200281840101858101878315602002848b0101015b8183101561121757805183526020830192506020810190506111fa565b50868552601f19601f8301166040525050505b50809150509392505050565b61123e611c54565b8273ffffffffffffffffffffffffffffffffffffffff168473ffffffffffffffffffffffffffffffffffffffff16111561127d57828480945081955050505b60405180606001604052808573ffffffffffffffffffffffffffffffffffffffff1681526020018473ffffffffffffffffffffffffffffffffffffffff1681526020018362ffffff1681525090509392505050565b6000816020015173ffffffffffffffffffffffffffffffffffffffff16826000015173ffffffffffffffffffffffffffffffffffffffff161061131457600080fd5b82826000015183602001518460400151604051602001808473ffffffffffffffffffffffffffffffffffffffff1681526020018373ffffffffffffffffffffffffffffffffffffffff1681526020018262ffffff1681526020019350505050604051602081830303815290604052805190602001207fe34f199b19b2b4f47f68442619d555527d244f78a3297ea89325f843f87b8b5460001b60405160200180807fff000000000000000000000000000000000000000000000000000000000000008152506001018473ffffffffffffffffffffffffffffffffffffffff1660601b815260140183815260200182815260200193505050506040516020818303038152906040528051906020012060001c905092915050565b600080600060608451146114d657604484511015611480576040517f08c379a000000000000000000000000000000000000000000000000000000000815260040161147790612511565b60405180910390fd5b6004840193508380602001905181019061149a9190612079565b6040517f08c379a00000000000000000000000000000000000000000000000000000000081526004016114cd91906124ef565b60405180910390fd5b838060200190518101906114ea91906121aa565b9250925092509193909250565b60008060008060008060008060088b73ffffffffffffffffffffffffffffffffffffffff1663d0c93a7c6040518163ffffffff1660e01b815260040160206040518083038186803b15801561154b57600080fd5b505afa15801561155f573d6000803e3d6000fd5b505050506040513d602081101561157557600080fd5b810190808051906020019092919050505060020b8b60020b8161159457fe5b0560020b901d905060006101008c73ffffffffffffffffffffffffffffffffffffffff1663d0c93a7c6040518163ffffffff1660e01b815260040160206040518083038186803b1580156115e757600080fd5b505afa1580156115fb573d6000803e3d6000fd5b505050506040513d602081101561161157600080fd5b810190808051906020019092919050505060020b8c60020b8161163057fe5b0560020b8161163b57fe5b079050600060088d73ffffffffffffffffffffffffffffffffffffffff1663d0c93a7c6040518163ffffffff1660e01b815260040160206040518083038186803b15801561168857600080fd5b505afa15801561169c573d6000803e3d6000fd5b505050506040513d60208110156116b257600080fd5b810190808051906020019092919050505060020b8c60020b816116d157fe5b0560020b901d905060006101008e73ffffffffffffffffffffffffffffffffffffffff1663d0c93a7c6040518163ffffffff1660e01b815260040160206040518083038186803b15801561172457600080fd5b505afa158015611738573d6000803e3d6000fd5b505050506040513d602081101561174e57600080fd5b810190808051906020019092919050505060020b8d60020b8161176d57fe5b0560020b8161177857fe5b07905060008160ff166001901b8f73ffffffffffffffffffffffffffffffffffffffff16635339c296856040518263ffffffff1660e01b8152600401808260010b815260200191505060206040518083038186803b1580156117d957600080fd5b505afa1580156117ed573d6000803e3d6000fd5b505050506040513d602081101561180357600080fd5b8101908080519060200190929190505050161180156118b4575060008e73ffffffffffffffffffffffffffffffffffffffff1663d0c93a7c6040518163ffffffff1660e01b815260040160206040518083038186803b15801561186557600080fd5b505afa158015611879573d6000803e3d6000fd5b505050506040513d602081101561188f57600080fd5b810190808051906020019092919050505060020b8d60020b816118ae57fe5b0760020b145b80156118c557508b60020b8d60020b135b945060008360ff166001901b8f73ffffffffffffffffffffffffffffffffffffffff16635339c296876040518263ffffffff1660e01b8152600401808260010b815260200191505060206040518083038186803b15801561192557600080fd5b505afa158015611939573d6000803e3d6000fd5b505050506040513d602081101561194f57600080fd5b810190808051906020019092919050505016118015611a00575060008e73ffffffffffffffffffffffffffffffffffffffff1663d0c93a7c6040518163ffffffff1660e01b815260040160206040518083038186803b1580156119b157600080fd5b505afa1580156119c5573d6000803e3d6000fd5b505050506040513d60208110156119db57600080fd5b810190808051906020019092919050505060020b8e60020b816119fa57fe5b0760020b145b8015611a1157508b60020b8d60020b125b95508160010b8460010b1280611a3e57508160010b8460010b148015611a3d57508060ff168360ff1611155b5b15611a5457839950829750819850809650611a61565b8199508097508398508296505b5050505060008460ff167fffffffffffffffffffffffffffffffffffffffffffffffffffffffffffffffff901b90505b8560010b8760010b13611bb2578560010b8760010b1415611adb578360ff0360ff167fffffffffffffffffffffffffffffffffffffffffffffffffffffffffffffffff901c811690505b6000818c73ffffffffffffffffffffffffffffffffffffffff16635339c2968a6040518263ffffffff1660e01b8152600401808260010b815260200191505060206040518083038186803b158015611b3257600080fd5b505afa158015611b46573d6000803e3d6000fd5b505050506040513d6020811015611b5c57600080fd5b8101908080519060200190929190505050169050611b7981611c26565b61ffff168901985087806001019850507fffffffffffffffffffffffffffffffffffffffffffffffffffffffffffffffff915050611a91565b8115611bbf576001880397505b8215611bcc576001880397505b505050505050509392505050565b6000611be683836112d2565b90508073ffffffffffffffffffffffffffffffffffffffff163373ffffffffffffffffffffffffffffffffffffffff1614611c2057600080fd5b92915050565b600080600090505b60008314611c4b5780806001019150506001830383169250611c2e565b80915050919050565b6040518060600160405280600073ffffffffffffffffffffffffffffffffffffffff168152602001600073ffffffffffffffffffffffffffffffffffffffff168152602001600062ffffff1681525090565b6000611cb9611cb4846125fa565b6125c9565b905082815260208101848484011115611cd157600080fd5b611cdc84828561279d565b509392505050565b6000611cf7611cf28461262a565b6125c9565b905082815260208101848484011115611d0f57600080fd5b611d1a8482856127ac565b509392505050565b600081359050611d3181612842565b92915050565b600081519050611d4681612859565b92915050565b600082601f830112611d5d57600080fd5b8135611d6d848260208601611ca6565b91505092915050565b600081519050611d8581612870565b92915050565b600081359050611d9a81612887565b92915050565b600081519050611daf81612887565b92915050565b600082601f830112611dc657600080fd5b8151611dd6848260208601611ce4565b91505092915050565b600060a08284031215611df157600080fd5b611dfb60a06125c9565b90506000611e0b84828501611d22565b6000830152506020611e1f84828501611d22565b6020830152506040611e3384828501611f43565b6040830152506060611e4784828501611f2e565b6060830152506080611e5b84828501611eef565b60808301525092915050565b600060a08284031215611e7957600080fd5b611e8360a06125c9565b90506000611e9384828501611d22565b6000830152506020611ea784828501611d22565b6020830152506040611ebb84828501611f43565b6040830152506060611ecf84828501611f2e565b6060830152506080611ee384828501611eef565b60808301525092915050565b600081359050611efe816128b5565b92915050565b600081519050611f13816128b5565b92915050565b600081519050611f288161289e565b92915050565b600081359050611f3d816128cc565b92915050565b600081359050611f52816128e3565b92915050565b600081519050611f67816128e3565b92915050565b600081519050611f7c816128fa565b92915050565b60008060408385031215611f9557600080fd5b600083013567ffffffffffffffff811115611faf57600080fd5b611fbb85828601611d4c565b9250506020611fcc85828601611f43565b9150509250929050565b60008060408385031215611fe957600080fd5b6000611ff785828601611da0565b925050602061200885828601611da0565b9150509250929050565b60008060006060848603121561202757600080fd5b600061203586828701611d8b565b935050602061204686828701611d8b565b925050604084013567ffffffffffffffff81111561206357600080fd5b61206f86828701611d4c565b9150509250925092565b60006020828403121561208b57600080fd5b600082015167ffffffffffffffff8111156120a557600080fd5b6120b184828501611db5565b91505092915050565b600060a082840312156120cc57600080fd5b60006120da84828501611ddf565b91505092915050565b600060a082840312156120f557600080fd5b600061210384828501611e67565b91505092915050565b600080600080600080600060e0888a03121561212757600080fd5b60006121358a828b01611f04565b97505060206121468a828b01611d76565b96505060406121578a828b01611f19565b95505060606121688a828b01611f19565b94505060806121798a828b01611f19565b93505060a061218a8a828b01611f6d565b92505060c061219b8a828b01611d37565b91505092959891949750929550565b6000806000606084860312156121bf57600080fd5b60006121cd86828701611f58565b93505060206121de86828701611f04565b92505060406121ef86828701611d76565b9150509250925092565b600061220583836123db565b60208301905092915050565b600061221d838361241f565b60208301905092915050565b61223281612704565b82525050565b61224961224482612704565b6127df565b82525050565b600061225a8261267a565b61226481856126c0565b935061226f8361265a565b8060005b838110156122a057815161228788826121f9565b9750612292836126a6565b925050600181019050612273565b5085935050505092915050565b60006122b882612685565b6122c281856126d1565b93506122cd8361266a565b8060005b838110156122fe5781516122e58882612211565b97506122f0836126b3565b9250506001810190506122d1565b5085935050505092915050565b61231481612716565b82525050565b600061232582612690565b61232f81856126e2565b935061233f8185602086016127ac565b61234881612817565b840191505092915050565b61235c8161272f565b82525050565b600061236d8261269b565b61237781856126f3565b93506123878185602086016127ac565b61239081612817565b840191505092915050565b60006123a86010836126f3565b91507f556e6578706563746564206572726f72000000000000000000000000000000006000830152602082019050919050565b6123e481612747565b82525050565b6123f381612747565b82525050565b61240a61240582612767565b612803565b82525050565b61241981612776565b82525050565b61242881612780565b82525050565b61243781612780565b82525050565b60006124498286612238565b60148201915061245982856123f9565b6003820191506124698284612238565b601482019150819050949350505050565b600060208201905061248f6000830184612229565b92915050565b600060a0820190506124aa6000830188612229565b6124b7602083018761230b565b6124c46040830186612353565b6124d160608301856123ea565b81810360808301526124e3818461231a565b90509695505050505050565b600060208201905081810360008301526125098184612362565b905092915050565b6000602082019050818103600083015261252a8161239b565b9050919050565b60006080820190506125466000830187612410565b8181036020830152612558818661224f565b9050818103604083015261256c81856122ad565b905061257b6060830184612410565b95945050505050565b60006080820190506125996000830187612410565b6125a660208301866123ea565b6125b3604083018561242e565b6125c06060830184612410565b95945050505050565b6000604051905081810181811067ffffffffffffffff821117156125f0576125ef612815565b5b8060405250919050565b600067ffffffffffffffff82111561261557612614612815565b5b601f19601f8301169050602081019050919050565b600067ffffffffffffffff82111561264557612644612815565b5b601f19601f8301169050602081019050919050565b6000819050602082019050919050565b6000819050602082019050919050565b600081519050919050565b600081519050919050565b600081519050919050565b600081519050919050565b6000602082019050919050565b6000602082019050919050565b600082825260208201905092915050565b600082825260208201905092915050565b600082825260208201905092915050565b600082825260208201905092915050565b600061270f82612747565b9050919050565b60008115159050919050565b60008160020b9050919050565b6000819050919050565b600061ffff82169050919050565b600073ffffffffffffffffffffffffffffffffffffffff82169050919050565b600062ffffff82169050919050565b6000819050919050565b600063ffffffff82169050919050565b600060ff82169050919050565b82818337600083830152505050565b60005b838110156127ca5780820151818401526020810190506127af565b838111156127d9576000848401525b50505050565b60006127ea826127f1565b9050919050565b60006127fc82612835565b9050919050565b600061280e82612828565b9050919050565bfe5b6000601f19601f8301169050919050565b60008160e81b9050919050565b60008160601b9050919050565b61284b81612704565b811461285657600080fd5b50565b61286281612716565b811461286d57600080fd5b50565b61287981612722565b811461288457600080fd5b50565b6128908161272f565b811461289b57600080fd5b50565b6128a781612739565b81146128b257600080fd5b50565b6128be81612747565b81146128c957600080fd5b50565b6128d581612767565b81146128e057600080fd5b50565b6128ec81612776565b81146128f757600080fd5b50565b61290381612790565b811461290e57600080fd5b5056fea2646970667358221220fe4409c77535903b92bab013cbc24cc06a05d608cccda9e76cdd9de4772c353764736f6c63430007060033",
			"opcodes": "PUSH1 0xC0 PUSH1 0x40 MSTORE CALLVALUE DUP1 ISZERO PUSH3 0x11 JUMPI PUSH1 0x0 DUP1 REVERT JUMPDEST POP PUSH1 0x40 MLOAD PUSH3 0x2AD2 CODESIZE SUB DUP1 PUSH3 0x2AD2 DUP4 CODECOPY DUP2 DUP2 ADD PUSH1 0x40 MSTORE DUP2 ADD SWAP1 PUSH3 0x37 SWAP2 SWAP1 PUSH3 0xC8 JUMP JUMPDEST DUP2 DUP2 DUP2 PUSH20 0xFFFFFFFFFFFFFFFFFFFFFFFFFFFFFFFFFFFFFFFF AND PUSH1 0x80 DUP2 PUSH20 0xFFFFFFFFFFFFFFFFFFFFFFFFFFFFFFFFFFFFFFFF AND PUSH1 0x60 SHL DUP2 MSTORE POP POP DUP1 PUSH20 0xFFFFFFFFFFFFFFFFFFFFFFFFFFFFFFFFFFFFFFFF AND PUSH1 0xA0 DUP2 PUSH20 0xFFFFFFFFFFFFFFFFFFFFFFFFFFFFFFFFFFFFFFFF AND PUSH1 0x60 SHL DUP2 MSTORE POP POP POP POP POP POP PUSH3 0x157 JUMP JUMPDEST PUSH1 0x0 DUP2 MLOAD SWAP1 POP PUSH3 0xC2 DUP2 PUSH3 0x13D JUMP JUMPDEST SWAP3 SWAP2 POP POP JUMP JUMPDEST PUSH1 0x0 DUP1 PUSH1 0x40 DUP4 DUP6 SUB SLT ISZERO PUSH3 0xDC JUMPI PUSH1 0x0 DUP1 REVERT JUMPDEST PUSH1 0x0 PUSH3 0xEC DUP6 DUP3 DUP7 ADD PUSH3 0xB1 JUMP JUMPDEST SWAP3 POP POP PUSH1 0x20 PUSH3 0xFF DUP6 DUP3 DUP7 ADD PUSH3 0xB1 JUMP JUMPDEST SWAP2 POP POP SWAP3 POP SWAP3 SWAP1 POP JUMP JUMPDEST PUSH1 0x0 PUSH3 0x116 DUP3 PUSH3 0x11D JUMP JUMPDEST SWAP1 POP SWAP2 SWAP1 POP JUMP JUMPDEST PUSH1 0x0 PUSH20 0xFFFFFFFFFFFFFFFFFFFFFFFFFFFFFFFFFFFFFFFF DUP3 AND SWAP1 POP SWAP2 SWAP1 POP JUMP JUMPDEST PUSH3 0x148 DUP2 PUSH3 0x109 JUMP JUMPDEST DUP2 EQ PUSH3 0x154 JUMPI PUSH1 0x0 DUP1 REVERT JUMPDEST POP JUMP JUMPDEST PUSH1 0x80 MLOAD PUSH1 0x60 SHR PUSH1 0xA0 MLOAD PUSH1 0x60 SHR PUSH2 0x2947 PUSH3 0x18B PUSH1 0x0 CODECOPY DUP1 PUSH2 0x3B7 MSTORE POP DUP1 PUSH2 0x618 MSTORE DUP1 PUSH2 0xA5D MSTORE DUP1 PUSH2 0xCA1 MSTORE POP PUSH2 0x2947 PUSH1 0x0 RETURN INVALID PUSH1 0x80 PUSH1 0x40 MSTORE CALLVALUE DUP1 ISZERO PUSH2 0x10 JUMPI PUSH1 0x0 DUP1 REVERT JUMPDEST POP PUSH1 0x4 CALLDATASIZE LT PUSH2 0x7D JUMPI PUSH1 0x0 CALLDATALOAD PUSH1 0xE0 SHR DUP1 PUSH4 0xC45A0155 GT PUSH2 0x5B JUMPI DUP1 PUSH4 0xC45A0155 EQ PUSH2 0x106 JUMPI DUP1 PUSH4 0xC6A5026A EQ PUSH2 0x124 JUMPI DUP1 PUSH4 0xCDCA1753 EQ PUSH2 0x157 JUMPI DUP1 PUSH4 0xFA461E33 EQ PUSH2 0x18A JUMPI PUSH2 0x7D JUMP JUMPDEST DUP1 PUSH4 0x2F80BB1D EQ PUSH2 0x82 JUMPI DUP1 PUSH4 0x4AA4A4FC EQ PUSH2 0xB5 JUMPI DUP1 PUSH4 0xBD21704A EQ PUSH2 0xD3 JUMPI JUMPDEST PUSH1 0x0 DUP1 REVERT JUMPDEST PUSH2 0x9C PUSH1 0x4 DUP1 CALLDATASIZE SUB DUP2 ADD SWAP1 PUSH2 0x97 SWAP2 SWAP1 PUSH2 0x1F82 JUMP JUMPDEST PUSH2 0x1A6 JUMP JUMPDEST PUSH1 0x40 MLOAD PUSH2 0xAC SWAP5 SWAP4 SWAP3 SWAP2 SWAP1 PUSH2 0x2531 JUMP JUMPDEST PUSH1 0x40 MLOAD DUP1 SWAP2 SUB SWAP1 RETURN JUMPDEST PUSH2 0xBD PUSH2 0x3B5 JUMP JUMPDEST PUSH1 0x40 MLOAD PUSH2 0xCA SWAP2 SWAP1 PUSH2 0x247A JUMP JUMPDEST PUSH1 0x40 MLOAD DUP1 SWAP2 SUB SWAP1 RETURN JUMPDEST PUSH2 0xED PUSH1 0x4 DUP1 CALLDATASIZE SUB DUP2 ADD SWAP1 PUSH2 0xE8 SWAP2 SWAP1 PUSH2 0x20E3 JUMP JUMPDEST PUSH2 0x3D9 JUMP JUMPDEST PUSH1 0x40 MLOAD PUSH2 0xFD SWAP5 SWAP4 SWAP3 SWAP2 SWAP1 PUSH2 0x2584 JUMP JUMPDEST PUSH1 0x40 MLOAD DUP1 SWAP2 SUB SWAP1 RETURN JUMPDEST PUSH2 0x10E PUSH2 0x616 JUMP JUMPDEST PUSH1 0x40 MLOAD PUSH2 0x11B SWAP2 SWAP1 PUSH2 0x247A JUMP JUMPDEST PUSH1 0x40 MLOAD DUP1 SWAP2 SUB SWAP1 RETURN JUMPDEST PUSH2 0x13E PUSH1 0x4 DUP1 CALLDATASIZE SUB DUP2 ADD SWAP1 PUSH2 0x139 SWAP2 SWAP1 PUSH2 0x20BA JUMP JUMPDEST PUSH2 0x63A JUMP JUMPDEST PUSH1 0x40 MLOAD PUSH2 0x14E SWAP5 SWAP4 SWAP3 SWAP2 SWAP1 PUSH2 0x2584 JUMP JUMPDEST PUSH1 0x40 MLOAD DUP1 SWAP2 SUB SWAP1 RETURN JUMPDEST PUSH2 0x171 PUSH1 0x4 DUP1 CALLDATASIZE SUB DUP2 ADD SWAP1 PUSH2 0x16C SWAP2 SWAP1 PUSH2 0x1F82 JUMP JUMPDEST PUSH2 0x81D JUMP JUMPDEST PUSH1 0x40 MLOAD PUSH2 0x181 SWAP5 SWAP4 SWAP3 SWAP2 SWAP1 PUSH2 0x2531 JUMP JUMPDEST PUSH1 0x40 MLOAD DUP1 SWAP2 SUB SWAP1 RETURN JUMPDEST PUSH2 0x1A4 PUSH1 0x4 DUP1 CALLDATASIZE SUB DUP2 ADD SWAP1 PUSH2 0x19F SWAP2 SWAP1 PUSH2 0x2012 JUMP JUMPDEST PUSH2 0xA2C JUMP JUMPDEST STOP JUMPDEST PUSH1 0x0 PUSH1 0x60 DUP1 PUSH1 0x0 PUSH2 0x1B6 DUP7 PUSH2 0xBEA JUMP JUMPDEST PUSH8 0xFFFFFFFFFFFFFFFF DUP2 GT DUP1 ISZERO PUSH2 0x1CC JUMPI PUSH1 0x0 DUP1 REVERT JUMPDEST POP PUSH1 0x40 MLOAD SWAP1 DUP1 DUP3 MSTORE DUP1 PUSH1 0x20 MUL PUSH1 0x20 ADD DUP3 ADD PUSH1 0x40 MSTORE DUP1 ISZERO PUSH2 0x1FB JUMPI DUP2 PUSH1 0x20 ADD PUSH1 0x20 DUP3 MUL DUP1 CALLDATASIZE DUP4 CALLDATACOPY DUP1 DUP3 ADD SWAP2 POP POP SWAP1 POP JUMPDEST POP SWAP3 POP PUSH2 0x207 DUP7 PUSH2 0xBEA JUMP JUMPDEST PUSH8 0xFFFFFFFFFFFFFFFF DUP2 GT DUP1 ISZERO PUSH2 0x21D JUMPI PUSH1 0x0 DUP1 REVERT JUMPDEST POP PUSH1 0x40 MLOAD SWAP1 DUP1 DUP3 MSTORE DUP1 PUSH1 0x20 MUL PUSH1 0x20 ADD DUP3 ADD PUSH1 0x40 MSTORE DUP1 ISZERO PUSH2 0x24C JUMPI DUP2 PUSH1 0x20 ADD PUSH1 0x20 DUP3 MUL DUP1 CALLDATASIZE DUP4 CALLDATACOPY DUP1 DUP3 ADD SWAP2 POP POP SWAP1 POP JUMPDEST POP SWAP2 POP PUSH1 0x0 JUMPDEST PUSH1 0x1 ISZERO PUSH2 0x3AA JUMPI PUSH1 0x0 DUP1 PUSH1 0x0 PUSH2 0x267 DUP11 PUSH2 0xC05 JUMP JUMPDEST SWAP3 POP SWAP3 POP SWAP3 POP PUSH1 0x0 DUP1 PUSH1 0x0 DUP1 PUSH2 0x2EA PUSH1 0x40 MLOAD DUP1 PUSH1 0xA0 ADD PUSH1 0x40 MSTORE DUP1 DUP9 PUSH20 0xFFFFFFFFFFFFFFFFFFFFFFFFFFFFFFFFFFFFFFFF AND DUP2 MSTORE PUSH1 0x20 ADD DUP10 PUSH20 0xFFFFFFFFFFFFFFFFFFFFFFFFFFFFFFFFFFFFFFFF AND DUP2 MSTORE PUSH1 0x20 ADD DUP16 DUP2 MSTORE PUSH1 0x20 ADD DUP8 PUSH3 0xFFFFFF AND DUP2 MSTORE PUSH1 0x20 ADD PUSH1 0x0 PUSH20 0xFFFFFFFFFFFFFFFFFFFFFFFFFFFFFFFFFFFFFFFF AND DUP2 MSTORE POP PUSH2 0x3D9 JUMP JUMPDEST SWAP4 POP SWAP4 POP SWAP4 POP SWAP4 POP DUP3 DUP12 DUP10 DUP2 MLOAD DUP2 LT PUSH2 0x2FF JUMPI INVALID JUMPDEST PUSH1 0x20 MUL PUSH1 0x20 ADD ADD SWAP1 PUSH20 0xFFFFFFFFFFFFFFFFFFFFFFFFFFFFFFFFFFFFFFFF AND SWAP1 DUP2 PUSH20 0xFFFFFFFFFFFFFFFFFFFFFFFFFFFFFFFFFFFFFFFF AND DUP2 MSTORE POP POP DUP2 DUP11 DUP10 DUP2 MLOAD DUP2 LT PUSH2 0x346 JUMPI INVALID JUMPDEST PUSH1 0x20 MUL PUSH1 0x20 ADD ADD SWAP1 PUSH4 0xFFFFFFFF AND SWAP1 DUP2 PUSH4 0xFFFFFFFF AND DUP2 MSTORE POP POP DUP4 SWAP13 POP DUP1 DUP10 ADD SWAP9 POP DUP8 DUP1 PUSH1 0x1 ADD SWAP9 POP POP PUSH2 0x379 DUP15 PUSH2 0xC56 JUMP JUMPDEST ISZERO PUSH2 0x38E JUMPI PUSH2 0x387 DUP15 PUSH2 0xC71 JUMP JUMPDEST SWAP14 POP PUSH2 0x39E JUMP JUMPDEST DUP13 SWAP12 POP POP POP POP POP POP POP POP POP PUSH2 0x3AC JUMP JUMPDEST POP POP POP POP POP POP POP PUSH2 0x252 JUMP JUMPDEST POP JUMPDEST SWAP3 SWAP6 SWAP2 SWAP5 POP SWAP3 POP JUMP JUMPDEST PUSH32 0x0 DUP2 JUMP JUMPDEST PUSH1 0x0 DUP1 PUSH1 0x0 DUP1 PUSH1 0x0 DUP6 PUSH1 0x20 ADD MLOAD PUSH20 0xFFFFFFFFFFFFFFFFFFFFFFFFFFFFFFFFFFFFFFFF AND DUP7 PUSH1 0x0 ADD MLOAD PUSH20 0xFFFFFFFFFFFFFFFFFFFFFFFFFFFFFFFFFFFFFFFF AND LT SWAP1 POP PUSH1 0x0 PUSH2 0x433 DUP8 PUSH1 0x0 ADD MLOAD DUP9 PUSH1 0x20 ADD MLOAD DUP10 PUSH1 0x60 ADD MLOAD PUSH2 0xC9A JUMP JUMPDEST SWAP1 POP PUSH1 0x0 DUP8 PUSH1 0x80 ADD MLOAD PUSH20 0xFFFFFFFFFFFFFFFFFFFFFFFFFFFFFFFFFFFFFFFF AND EQ ISZERO PUSH2 0x464 JUMPI DUP7 PUSH1 0x40 ADD MLOAD PUSH1 0x0 DUP2 SWAP1 SSTORE POP JUMPDEST PUSH1 0x0 GAS SWAP1 POP DUP2 PUSH20 0xFFFFFFFFFFFFFFFFFFFFFFFFFFFFFFFFFFFFFFFF AND PUSH4 0x128ACB08 ADDRESS DUP6 PUSH2 0x494 DUP13 PUSH1 0x40 ADD MLOAD PUSH2 0xCD9 JUMP JUMPDEST PUSH1 0x0 SUB PUSH1 0x0 DUP14 PUSH1 0x80 ADD MLOAD PUSH20 0xFFFFFFFFFFFFFFFFFFFFFFFFFFFFFFFFFFFFFFFF AND EQ PUSH2 0x4C3 JUMPI DUP13 PUSH1 0x80 ADD MLOAD PUSH2 0x4F0 JUMP JUMPDEST DUP8 PUSH2 0x4E5 JUMPI PUSH1 0x1 PUSH20 0xFFFD8963EFD1FC6A506488495D951D5263988D26 SUB PUSH2 0x4EF JUMP JUMPDEST PUSH1 0x1 PUSH5 0x1000276A3 ADD JUMPDEST JUMPDEST DUP14 PUSH1 0x20 ADD MLOAD DUP15 PUSH1 0x60 ADD MLOAD DUP16 PUSH1 0x0 ADD MLOAD PUSH1 0x40 MLOAD PUSH1 0x20 ADD PUSH2 0x511 SWAP4 SWAP3 SWAP2 SWAP1 PUSH2 0x243D JUMP JUMPDEST PUSH1 0x40 MLOAD PUSH1 0x20 DUP2 DUP4 SUB SUB DUP2 MSTORE SWAP1 PUSH1 0x40 MSTORE PUSH1 0x40 MLOAD DUP7 PUSH4 0xFFFFFFFF AND PUSH1 0xE0 SHL DUP2 MSTORE PUSH1 0x4 ADD PUSH2 0x540 SWAP6 SWAP5 SWAP4 SWAP3 SWAP2 SWAP1 PUSH2 0x2495 JUMP JUMPDEST PUSH1 0x40 DUP1 MLOAD DUP1 DUP4 SUB DUP2 PUSH1 0x0 DUP8 DUP1 EXTCODESIZE ISZERO DUP1 ISZERO PUSH2 0x559 JUMPI PUSH1 0x0 DUP1 REVERT JUMPDEST POP GAS CALL SWAP3 POP POP POP DUP1 ISZERO PUSH2 0x58A JUMPI POP PUSH1 0x40 MLOAD RETURNDATASIZE PUSH1 0x1F NOT PUSH1 0x1F DUP3 ADD AND DUP3 ADD DUP1 PUSH1 0x40 MSTORE POP DUP2 ADD SWAP1 PUSH2 0x587 SWAP2 SWAP1 PUSH2 0x1FD6 JUMP JUMPDEST PUSH1 0x1 JUMPDEST PUSH2 0x609 JUMPI RETURNDATASIZE DUP1 PUSH1 0x0 DUP2 EQ PUSH2 0x5BA JUMPI PUSH1 0x40 MLOAD SWAP2 POP PUSH1 0x1F NOT PUSH1 0x3F RETURNDATASIZE ADD AND DUP3 ADD PUSH1 0x40 MSTORE RETURNDATASIZE DUP3 MSTORE RETURNDATASIZE PUSH1 0x0 PUSH1 0x20 DUP5 ADD RETURNDATACOPY PUSH2 0x5BF JUMP JUMPDEST PUSH1 0x60 SWAP2 POP JUMPDEST POP GAS DUP3 SUB SWAP5 POP PUSH1 0x0 DUP10 PUSH1 0x80 ADD MLOAD PUSH20 0xFFFFFFFFFFFFFFFFFFFFFFFFFFFFFFFFFFFFFFFF AND EQ ISZERO PUSH2 0x5ED JUMPI PUSH1 0x0 DUP1 SSTORE JUMPDEST PUSH2 0x5F8 DUP2 DUP5 DUP8 PUSH2 0xD0F JUMP JUMPDEST SWAP8 POP SWAP8 POP SWAP8 POP SWAP8 POP POP POP POP POP PUSH2 0x60F JUMP JUMPDEST POP POP POP POP POP JUMPDEST SWAP2 SWAP4 POP SWAP2 SWAP4 JUMP JUMPDEST PUSH32 0x0 DUP2 JUMP JUMPDEST PUSH1 0x0 DUP1 PUSH1 0x0 DUP1 PUSH1 0x0 DUP6 PUSH1 0x20 ADD MLOAD PUSH20 0xFFFFFFFFFFFFFFFFFFFFFFFFFFFFFFFFFFFFFFFF AND DUP7 PUSH1 0x0 ADD MLOAD PUSH20 0xFFFFFFFFFFFFFFFFFFFFFFFFFFFFFFFFFFFFFFFF AND LT SWAP1 POP PUSH1 0x0 PUSH2 0x694 DUP8 PUSH1 0x0 ADD MLOAD DUP9 PUSH1 0x20 ADD MLOAD DUP10 PUSH1 0x60 ADD MLOAD PUSH2 0xC9A JUMP JUMPDEST SWAP1 POP PUSH1 0x0 GAS SWAP1 POP DUP2 PUSH20 0xFFFFFFFFFFFFFFFFFFFFFFFFFFFFFFFFFFFFFFFF AND PUSH4 0x128ACB08 ADDRESS DUP6 PUSH2 0x6C6 DUP13 PUSH1 0x40 ADD MLOAD PUSH2 0xCD9 JUMP JUMPDEST PUSH1 0x0 DUP14 PUSH1 0x80 ADD MLOAD PUSH20 0xFFFFFFFFFFFFFFFFFFFFFFFFFFFFFFFFFFFFFFFF AND EQ PUSH2 0x6F2 JUMPI DUP13 PUSH1 0x80 ADD MLOAD PUSH2 0x71F JUMP JUMPDEST DUP8 PUSH2 0x714 JUMPI PUSH1 0x1 PUSH20 0xFFFD8963EFD1FC6A506488495D951D5263988D26 SUB PUSH2 0x71E JUMP JUMPDEST PUSH1 0x1 PUSH5 0x1000276A3 ADD JUMPDEST JUMPDEST DUP14 PUSH1 0x0 ADD MLOAD DUP15 PUSH1 0x60 ADD MLOAD DUP16 PUSH1 0x20 ADD MLOAD PUSH1 0x40 MLOAD PUSH1 0x20 ADD PUSH2 0x740 SWAP4 SWAP3 SWAP2 SWAP1 PUSH2 0x243D JUMP JUMPDEST PUSH1 0x40 MLOAD PUSH1 0x20 DUP2 DUP4 SUB SUB DUP2 MSTORE SWAP1 PUSH1 0x40 MSTORE PUSH1 0x40 MLOAD DUP7 PUSH4 0xFFFFFFFF AND PUSH1 0xE0 SHL DUP2 MSTORE PUSH1 0x4 ADD PUSH2 0x76F SWAP6 SWAP5 SWAP4 SWAP3 SWAP2 SWAP1 PUSH2 0x2495 JUMP JUMPDEST PUSH1 0x40 DUP1 MLOAD DUP1 DUP4 SUB DUP2 PUSH1 0x0 DUP8 DUP1 EXTCODESIZE ISZERO DUP1 ISZERO PUSH2 0x788 JUMPI PUSH1 0x0 DUP1 REVERT JUMPDEST POP GAS CALL SWAP3 POP POP POP DUP1 ISZERO PUSH2 0x7B9 JUMPI POP PUSH1 0x40 MLOAD RETURNDATASIZE PUSH1 0x1F NOT PUSH1 0x1F DUP3 ADD AND DUP3 ADD DUP1 PUSH1 0x40 MSTORE POP DUP2 ADD SWAP1 PUSH2 0x7B6 SWAP2 SWAP1 PUSH2 0x1FD6 JUMP JUMPDEST PUSH1 0x1 JUMPDEST PUSH2 0x810 JUMPI RETURNDATASIZE DUP1 PUSH1 0x0 DUP2 EQ PUSH2 0x7E9 JUMPI PUSH1 0x40 MLOAD SWAP2 POP PUSH1 0x1F NOT PUSH1 0x3F RETURNDATASIZE ADD AND DUP3 ADD PUSH1 0x40 MSTORE RETURNDATASIZE DUP3 MSTORE RETURNDATASIZE PUSH1 0x0 PUSH1 0x20 DUP5 ADD RETURNDATACOPY PUSH2 0x7EE JUMP JUMPDEST PUSH1 0x60 SWAP2 POP JUMPDEST POP GAS DUP3 SUB SWAP5 POP PUSH2 0x7FF DUP2 DUP5 DUP8 PUSH2 0xD0F JUMP JUMPDEST SWAP8 POP SWAP8 POP SWAP8 POP SWAP8 POP POP POP POP POP PUSH2 0x816 JUMP JUMPDEST POP POP POP POP POP JUMPDEST SWAP2 SWAP4 POP SWAP2 SWAP4 JUMP JUMPDEST PUSH1 0x0 PUSH1 0x60 DUP1 PUSH1 0x0 PUSH2 0x82D DUP7 PUSH2 0xBEA JUMP JUMPDEST PUSH8 0xFFFFFFFFFFFFFFFF DUP2 GT DUP1 ISZERO PUSH2 0x843 JUMPI PUSH1 0x0 DUP1 REVERT JUMPDEST POP PUSH1 0x40 MLOAD SWAP1 DUP1 DUP3 MSTORE DUP1 PUSH1 0x20 MUL PUSH1 0x20 ADD DUP3 ADD PUSH1 0x40 MSTORE DUP1 ISZERO PUSH2 0x872 JUMPI DUP2 PUSH1 0x20 ADD PUSH1 0x20 DUP3 MUL DUP1 CALLDATASIZE DUP4 CALLDATACOPY DUP1 DUP3 ADD SWAP2 POP POP SWAP1 POP JUMPDEST POP SWAP3 POP PUSH2 0x87E DUP7 PUSH2 0xBEA JUMP JUMPDEST PUSH8 0xFFFFFFFFFFFFFFFF DUP2 GT DUP1 ISZERO PUSH2 0x894 JUMPI PUSH1 0x0 DUP1 REVERT JUMPDEST POP PUSH1 0x40 MLOAD SWAP1 DUP1 DUP3 MSTORE DUP1 PUSH1 0x20 MUL PUSH1 0x20 ADD DUP3 ADD PUSH1 0x40 MSTORE DUP1 ISZERO PUSH2 0x8C3 JUMPI DUP2 PUSH1 0x20 ADD PUSH1 0x20 DUP3 MUL DUP1 CALLDATASIZE DUP4 CALLDATACOPY DUP1 DUP3 ADD SWAP2 POP POP SWAP1 POP JUMPDEST POP SWAP2 POP PUSH1 0x0 JUMPDEST PUSH1 0x1 ISZERO PUSH2 0xA21 JUMPI PUSH1 0x0 DUP1 PUSH1 0x0 PUSH2 0x8DE DUP11 PUSH2 0xC05 JUMP JUMPDEST SWAP3 POP SWAP3 POP SWAP3 POP PUSH1 0x0 DUP1 PUSH1 0x0 DUP1 PUSH2 0x961 PUSH1 0x40 MLOAD DUP1 PUSH1 0xA0 ADD PUSH1 0x40 MSTORE DUP1 DUP10 PUSH20 0xFFFFFFFFFFFFFFFFFFFFFFFFFFFFFFFFFFFFFFFF AND DUP2 MSTORE PUSH1 0x20 ADD DUP9 PUSH20 0xFFFFFFFFFFFFFFFFFFFFFFFFFFFFFFFFFFFFFFFF AND DUP2 MSTORE PUSH1 0x20 ADD DUP16 DUP2 MSTORE PUSH1 0x20 ADD DUP8 PUSH3 0xFFFFFF AND DUP2 MSTORE PUSH1 0x20 ADD PUSH1 0x0 PUSH20 0xFFFFFFFFFFFFFFFFFFFFFFFFFFFFFFFFFFFFFFFF AND DUP2 MSTORE POP PUSH2 0x63A JUMP JUMPDEST SWAP4 POP SWAP4 POP SWAP4 POP SWAP4 POP DUP3 DUP12 DUP10 DUP2 MLOAD DUP2 LT PUSH2 0x976 JUMPI INVALID JUMPDEST PUSH1 0x20 MUL PUSH1 0x20 ADD ADD SWAP1 PUSH20 0xFFFFFFFFFFFFFFFFFFFFFFFFFFFFFFFFFFFFFFFF AND SWAP1 DUP2 PUSH20 0xFFFFFFFFFFFFFFFFFFFFFFFFFFFFFFFFFFFFFFFF AND DUP2 MSTORE POP POP DUP2 DUP11 DUP10 DUP2 MLOAD DUP2 LT PUSH2 0x9BD JUMPI INVALID JUMPDEST PUSH1 0x20 MUL PUSH1 0x20 ADD ADD SWAP1 PUSH4 0xFFFFFFFF AND SWAP1 DUP2 PUSH4 0xFFFFFFFF AND DUP2 MSTORE POP POP DUP4 SWAP13 POP DUP1 DUP10 ADD SWAP9 POP DUP8 DUP1 PUSH1 0x1 ADD SWAP9 POP POP PUSH2 0x9F0 DUP15 PUSH2 0xC56 JUMP JUMPDEST ISZERO PUSH2 0xA05 JUMPI PUSH2 0x9FE DUP15 PUSH2 0xC71 JUMP JUMPDEST SWAP14 POP PUSH2 0xA15 JUMP JUMPDEST DUP13 SWAP12 POP POP POP POP POP POP POP POP POP PUSH2 0xA23 JUMP JUMPDEST POP POP POP POP POP POP POP PUSH2 0x8C9 JUMP JUMPDEST POP JUMPDEST SWAP3 SWAP6 SWAP2 SWAP5 POP SWAP3 POP JUMP JUMPDEST PUSH1 0x0 DUP4 SGT DUP1 PUSH2 0xA3B JUMPI POP PUSH1 0x0 DUP3 SGT JUMPDEST PUSH2 0xA44 JUMPI PUSH1 0x0 DUP1 REVERT JUMPDEST PUSH1 0x0 DUP1 PUSH1 0x0 PUSH2 0xA52 DUP5 PUSH2 0xC05 JUMP JUMPDEST SWAP3 POP SWAP3 POP SWAP3 POP PUSH2 0xA84 PUSH32 0x0 DUP5 DUP5 DUP5 PUSH2 0xE09 JUMP JUMPDEST POP PUSH1 0x0 DUP1 PUSH1 0x0 DUP1 DUP10 SGT PUSH2 0xACA JUMPI DUP6 PUSH20 0xFFFFFFFFFFFFFFFFFFFFFFFFFFFFFFFFFFFFFFFF AND DUP6 PUSH20 0xFFFFFFFFFFFFFFFFFFFFFFFFFFFFFFFFFFFFFFFF AND LT DUP9 DUP11 PUSH1 0x0 SUB PUSH2 0xAFF JUMP JUMPDEST DUP5 PUSH20 0xFFFFFFFFFFFFFFFFFFFFFFFFFFFFFFFFFFFFFFFF AND DUP7 PUSH20 0xFFFFFFFFFFFFFFFFFFFFFFFFFFFFFFFFFFFFFFFF AND LT DUP10 DUP10 PUSH1 0x0 SUB JUMPDEST SWAP3 POP SWAP3 POP SWAP3 POP PUSH1 0x0 PUSH2 0xB12 DUP8 DUP8 DUP8 PUSH2 0xC9A JUMP JUMPDEST SWAP1 POP PUSH1 0x0 DUP1 DUP3 PUSH20 0xFFFFFFFFFFFFFFFFFFFFFFFFFFFFFFFFFFFFFFFF AND PUSH4 0x3850C7BD PUSH1 0x40 MLOAD DUP2 PUSH4 0xFFFFFFFF AND PUSH1 0xE0 SHL DUP2 MSTORE PUSH1 0x4 ADD PUSH1 0xE0 PUSH1 0x40 MLOAD DUP1 DUP4 SUB DUP2 DUP7 DUP1 EXTCODESIZE ISZERO DUP1 ISZERO PUSH2 0xB5D JUMPI PUSH1 0x0 DUP1 REVERT JUMPDEST POP GAS STATICCALL ISZERO DUP1 ISZERO PUSH2 0xB71 JUMPI RETURNDATASIZE PUSH1 0x0 DUP1 RETURNDATACOPY RETURNDATASIZE PUSH1 0x0 REVERT JUMPDEST POP POP POP POP PUSH1 0x40 MLOAD RETURNDATASIZE PUSH1 0x1F NOT PUSH1 0x1F DUP3 ADD AND DUP3 ADD DUP1 PUSH1 0x40 MSTORE POP DUP2 ADD SWAP1 PUSH2 0xB95 SWAP2 SWAP1 PUSH2 0x210C JUMP JUMPDEST POP POP POP POP POP SWAP2 POP SWAP2 POP DUP6 ISZERO PUSH2 0xBBB JUMPI PUSH1 0x40 MLOAD DUP5 DUP2 MSTORE DUP3 PUSH1 0x20 DUP3 ADD MSTORE DUP2 PUSH1 0x40 DUP3 ADD MSTORE PUSH1 0x60 DUP2 REVERT JUMPDEST PUSH1 0x0 DUP1 SLOAD EQ PUSH2 0xBD3 JUMPI PUSH1 0x0 SLOAD DUP5 EQ PUSH2 0xBD2 JUMPI PUSH1 0x0 DUP1 REVERT JUMPDEST JUMPDEST PUSH1 0x40 MLOAD DUP6 DUP2 MSTORE DUP3 PUSH1 0x20 DUP3 ADD MSTORE DUP2 PUSH1 0x40 DUP3 ADD MSTORE PUSH1 0x60 DUP2 REVERT JUMPDEST PUSH1 0x0 PUSH1 0x3 PUSH1 0x14 ADD PUSH1 0x14 DUP4 MLOAD SUB DUP2 PUSH2 0xBFD JUMPI INVALID JUMPDEST DIV SWAP1 POP SWAP2 SWAP1 POP JUMP JUMPDEST PUSH1 0x0 DUP1 PUSH1 0x0 PUSH2 0xC1E PUSH1 0x0 DUP6 PUSH2 0xE29 SWAP1 SWAP2 SWAP1 PUSH4 0xFFFFFFFF AND JUMP JUMPDEST SWAP3 POP PUSH2 0xC34 PUSH1 0x14 DUP6 PUSH2 0xF42 SWAP1 SWAP2 SWAP1 PUSH4 0xFFFFFFFF AND JUMP JUMPDEST SWAP1 POP PUSH2 0xC4D PUSH1 0x3 PUSH1 0x14 ADD DUP6 PUSH2 0xE29 SWAP1 SWAP2 SWAP1 PUSH4 0xFFFFFFFF AND JUMP JUMPDEST SWAP2 POP SWAP2 SWAP4 SWAP1 SWAP3 POP JUMP JUMPDEST PUSH1 0x0 PUSH1 0x3 PUSH1 0x14 ADD PUSH1 0x14 PUSH1 0x3 PUSH1 0x14 ADD ADD ADD DUP3 MLOAD LT ISZERO SWAP1 POP SWAP2 SWAP1 POP JUMP JUMPDEST PUSH1 0x60 PUSH2 0xC93 PUSH1 0x3 PUSH1 0x14 ADD PUSH1 0x3 PUSH1 0x14 ADD DUP5 MLOAD SUB DUP5 PUSH2 0x104C SWAP1 SWAP3 SWAP2 SWAP1 PUSH4 0xFFFFFFFF AND JUMP JUMPDEST SWAP1 POP SWAP2 SWAP1 POP JUMP JUMPDEST PUSH1 0x0 PUSH2 0xCD0 PUSH32 0x0 PUSH2 0xCCB DUP7 DUP7 DUP7 PUSH2 0x1236 JUMP JUMPDEST PUSH2 0x12D2 JUMP JUMPDEST SWAP1 POP SWAP4 SWAP3 POP POP POP JUMP JUMPDEST PUSH1 0x0 PUSH32 0x8000000000000000000000000000000000000000000000000000000000000000 DUP3 LT PUSH2 0xD07 JUMPI PUSH1 0x0 DUP1 REVERT JUMPDEST DUP2 SWAP1 POP SWAP2 SWAP1 POP JUMP JUMPDEST PUSH1 0x0 DUP1 PUSH1 0x0 DUP1 PUSH1 0x0 DUP1 DUP8 PUSH20 0xFFFFFFFFFFFFFFFFFFFFFFFFFFFFFFFFFFFFFFFF AND PUSH4 0x3850C7BD PUSH1 0x40 MLOAD DUP2 PUSH4 0xFFFFFFFF AND PUSH1 0xE0 SHL DUP2 MSTORE PUSH1 0x4 ADD PUSH1 0xE0 PUSH1 0x40 MLOAD DUP1 DUP4 SUB DUP2 DUP7 DUP1 EXTCODESIZE ISZERO DUP1 ISZERO PUSH2 0xD5E JUMPI PUSH1 0x0 DUP1 REVERT JUMPDEST POP GAS STATICCALL ISZERO DUP1 ISZERO PUSH2 0xD72 JUMPI RETURNDATASIZE PUSH1 0x0 DUP1 RETURNDATACOPY RETURNDATASIZE PUSH1 0x0 REVERT JUMPDEST POP POP POP POP PUSH1 0x40 MLOAD RETURNDATASIZE PUSH1 0x1F NOT PUSH1 0x1F DUP3 ADD AND DUP3 ADD DUP1 PUSH1 0x40 MSTORE POP DUP2 ADD SWAP1 PUSH2 0xD96 SWAP2 SWAP1 PUSH2 0x210C JUMP JUMPDEST SWAP1 SWAP2 SWAP3 SWAP4 SWAP5 SWAP6 POP SWAP1 SWAP2 SWAP3 SWAP4 POP SWAP1 SWAP2 SWAP3 POP SWAP1 SWAP2 POP SWAP1 POP POP DUP1 SWAP3 POP POP PUSH2 0xDB9 DUP10 PUSH2 0x142D JUMP JUMPDEST DUP1 SWAP4 POP DUP2 SWAP8 POP DUP3 SWAP9 POP POP POP POP PUSH2 0xDF0 DUP3 DUP3 DUP11 PUSH20 0xFFFFFFFFFFFFFFFFFFFFFFFFFFFFFFFFFFFFFFFF AND PUSH2 0x14F7 SWAP1 SWAP3 SWAP2 SWAP1 PUSH4 0xFFFFFFFF AND JUMP JUMPDEST SWAP4 POP DUP6 DUP6 DUP6 DUP10 SWAP6 POP SWAP6 POP SWAP6 POP SWAP6 POP POP POP SWAP4 POP SWAP4 POP SWAP4 POP SWAP4 JUMP JUMPDEST PUSH1 0x0 PUSH2 0xE1F DUP6 PUSH2 0xE1A DUP7 DUP7 DUP7 PUSH2 0x1236 JUMP JUMPDEST PUSH2 0x1BDA JUMP JUMPDEST SWAP1 POP SWAP5 SWAP4 POP POP POP POP JUMP JUMPDEST PUSH1 0x0 DUP2 PUSH1 0x14 DUP4 ADD LT ISZERO PUSH2 0xEA4 JUMPI PUSH1 0x40 MLOAD PUSH32 0x8C379A000000000000000000000000000000000000000000000000000000000 DUP2 MSTORE PUSH1 0x4 ADD DUP1 DUP1 PUSH1 0x20 ADD DUP3 DUP2 SUB DUP3 MSTORE PUSH1 0x12 DUP2 MSTORE PUSH1 0x20 ADD DUP1 PUSH32 0x746F416464726573735F6F766572666C6F770000000000000000000000000000 DUP2 MSTORE POP PUSH1 0x20 ADD SWAP2 POP POP PUSH1 0x40 MLOAD DUP1 SWAP2 SUB SWAP1 REVERT JUMPDEST PUSH1 0x14 DUP3 ADD DUP4 MLOAD LT ISZERO PUSH2 0xF1E JUMPI PUSH1 0x40 MLOAD PUSH32 0x8C379A000000000000000000000000000000000000000000000000000000000 DUP2 MSTORE PUSH1 0x4 ADD DUP1 DUP1 PUSH1 0x20 ADD DUP3 DUP2 SUB DUP3 MSTORE PUSH1 0x15 DUP2 MSTORE PUSH1 0x20 ADD DUP1 PUSH32 0x746F416464726573735F6F75744F66426F756E64730000000000000000000000 DUP2 MSTORE POP PUSH1 0x20 ADD SWAP2 POP POP PUSH1 0x40 MLOAD DUP1 SWAP2 SUB SWAP1 REVERT JUMPDEST PUSH1 0x0 PUSH13 0x1000000000000000000000000 DUP4 PUSH1 0x20 DUP7 ADD ADD MLOAD DIV SWAP1 POP DUP1 SWAP2 POP POP SWAP3 SWAP2 POP POP JUMP JUMPDEST PUSH1 0x0 DUP2 PUSH1 0x3 DUP4 ADD LT ISZERO PUSH2 0xFBD JUMPI PUSH1 0x40 MLOAD PUSH32 0x8C379A000000000000000000000000000000000000000000000000000000000 DUP2 MSTORE PUSH1 0x4 ADD DUP1 DUP1 PUSH1 0x20 ADD DUP3 DUP2 SUB DUP3 MSTORE PUSH1 0x11 DUP2 MSTORE PUSH1 0x20 ADD DUP1 PUSH32 0x746F55696E7432345F6F766572666C6F77000000000000000000000000000000 DUP2 MSTORE POP PUSH1 0x20 ADD SWAP2 POP POP PUSH1 0x40 MLOAD DUP1 SWAP2 SUB SWAP1 REVERT JUMPDEST PUSH1 0x3 DUP3 ADD DUP4 MLOAD LT ISZERO PUSH2 0x1037 JUMPI PUSH1 0x40 MLOAD PUSH32 0x8C379A000000000000000000000000000000000000000000000000000000000 DUP2 MSTORE PUSH1 0x4 ADD DUP1 DUP1 PUSH1 0x20 ADD DUP3 DUP2 SUB DUP3 MSTORE PUSH1 0x14 DUP2 MSTORE PUSH1 0x20 ADD DUP1 PUSH32 0x746F55696E7432345F6F75744F66426F756E6473000000000000000000000000 DUP2 MSTORE POP PUSH1 0x20 ADD SWAP2 POP POP PUSH1 0x40 MLOAD DUP1 SWAP2 SUB SWAP1 REVERT JUMPDEST PUSH1 0x0 DUP3 PUSH1 0x3 DUP6 ADD ADD MLOAD SWAP1 POP DUP1 SWAP2 POP POP SWAP3 SWAP2 POP POP JUMP JUMPDEST PUSH1 0x60 DUP2 PUSH1 0x1F DUP4 ADD LT ISZERO PUSH2 0x10C7 JUMPI PUSH1 0x40 MLOAD PUSH32 0x8C379A000000000000000000000000000000000000000000000000000000000 DUP2 MSTORE PUSH1 0x4 ADD DUP1 DUP1 PUSH1 0x20 ADD DUP3 DUP2 SUB DUP3 MSTORE PUSH1 0xE DUP2 MSTORE PUSH1 0x20 ADD DUP1 PUSH32 0x736C6963655F6F766572666C6F77000000000000000000000000000000000000 DUP2 MSTORE POP PUSH1 0x20 ADD SWAP2 POP POP PUSH1 0x40 MLOAD DUP1 SWAP2 SUB SWAP1 REVERT JUMPDEST DUP3 DUP3 DUP5 ADD LT ISZERO PUSH2 0x113F JUMPI PUSH1 0x40 MLOAD PUSH32 0x8C379A000000000000000000000000000000000000000000000000000000000 DUP2 MSTORE PUSH1 0x4 ADD DUP1 DUP1 PUSH1 0x20 ADD DUP3 DUP2 SUB DUP3 MSTORE PUSH1 0xE DUP2 MSTORE PUSH1 0x20 ADD DUP1 PUSH32 0x736C6963655F6F766572666C6F77000000000000000000000000000000000000 DUP2 MSTORE POP PUSH1 0x20 ADD SWAP2 POP POP PUSH1 0x40 MLOAD DUP1 SWAP2 SUB SWAP1 REVERT JUMPDEST DUP2 DUP4 ADD DUP5 MLOAD LT ISZERO PUSH2 0x11B8 JUMPI PUSH1 0x40 MLOAD PUSH32 0x8C379A000000000000000000000000000000000000000000000000000000000 DUP2 MSTORE PUSH1 0x4 ADD DUP1 DUP1 PUSH1 0x20 ADD DUP3 DUP2 SUB DUP3 MSTORE PUSH1 0x11 DUP2 MSTORE PUSH1 0x20 ADD DUP1 PUSH32 0x736C6963655F6F75744F66426F756E6473000000000000000000000000000000 DUP2 MSTORE POP PUSH1 0x20 ADD SWAP2 POP POP PUSH1 0x40 MLOAD DUP1 SWAP2 SUB SWAP1 REVERT JUMPDEST PUSH1 0x60 DUP3 ISZERO PUSH1 0x0 DUP2 EQ PUSH2 0x11D9 JUMPI PUSH1 0x40 MLOAD SWAP2 POP PUSH1 0x0 DUP3 MSTORE PUSH1 0x20 DUP3 ADD PUSH1 0x40 MSTORE PUSH2 0x122A JUMP JUMPDEST PUSH1 0x40 MLOAD SWAP2 POP PUSH1 0x1F DUP5 AND DUP1 ISZERO PUSH1 0x20 MUL DUP2 DUP5 ADD ADD DUP6 DUP2 ADD DUP8 DUP4 ISZERO PUSH1 0x20 MUL DUP5 DUP12 ADD ADD ADD JUMPDEST DUP2 DUP4 LT ISZERO PUSH2 0x1217 JUMPI DUP1 MLOAD DUP4 MSTORE PUSH1 0x20 DUP4 ADD SWAP3 POP PUSH1 0x20 DUP2 ADD SWAP1 POP PUSH2 0x11FA JUMP JUMPDEST POP DUP7 DUP6 MSTORE PUSH1 0x1F NOT PUSH1 0x1F DUP4 ADD AND PUSH1 0x40 MSTORE POP POP POP JUMPDEST POP DUP1 SWAP2 POP POP SWAP4 SWAP3 POP POP POP JUMP JUMPDEST PUSH2 0x123E PUSH2 0x1C54 JUMP JUMPDEST DUP3 PUSH20 0xFFFFFFFFFFFFFFFFFFFFFFFFFFFFFFFFFFFFFFFF AND DUP5 PUSH20 0xFFFFFFFFFFFFFFFFFFFFFFFFFFFFFFFFFFFFFFFF AND GT ISZERO PUSH2 0x127D JUMPI DUP3 DUP5 DUP1 SWAP5 POP DUP2 SWAP6 POP POP POP JUMPDEST PUSH1 0x40 MLOAD DUP1 PUSH1 0x60 ADD PUSH1 0x40 MSTORE DUP1 DUP6 PUSH20 0xFFFFFFFFFFFFFFFFFFFFFFFFFFFFFFFFFFFFFFFF AND DUP2 MSTORE PUSH1 0x20 ADD DUP5 PUSH20 0xFFFFFFFFFFFFFFFFFFFFFFFFFFFFFFFFFFFFFFFF AND DUP2 MSTORE PUSH1 0x20 ADD DUP4 PUSH3 0xFFFFFF AND DUP2 MSTORE POP SWAP1 POP SWAP4 SWAP3 POP POP POP JUMP JUMPDEST PUSH1 0x0 DUP2 PUSH1 0x20 ADD MLOAD PUSH20 0xFFFFFFFFFFFFFFFFFFFFFFFFFFFFFFFFFFFFFFFF AND DUP3 PUSH1 0x0 ADD MLOAD PUSH20 0xFFFFFFFFFFFFFFFFFFFFFFFFFFFFFFFFFFFFFFFF AND LT PUSH2 0x1314 JUMPI PUSH1 0x0 DUP1 REVERT JUMPDEST DUP3 DUP3 PUSH1 0x0 ADD MLOAD DUP4 PUSH1 0x20 ADD MLOAD DUP5 PUSH1 0x40 ADD MLOAD PUSH1 0x40 MLOAD PUSH1 0x20 ADD DUP1 DUP5 PUSH20 0xFFFFFFFFFFFFFFFFFFFFFFFFFFFFFFFFFFFFFFFF AND DUP2 MSTORE PUSH1 0x20 ADD DUP4 PUSH20 0xFFFFFFFFFFFFFFFFFFFFFFFFFFFFFFFFFFFFFFFF AND DUP2 MSTORE PUSH1 0x20 ADD DUP3 PUSH3 0xFFFFFF AND DUP2 MSTORE PUSH1 0x20 ADD SWAP4 POP POP POP POP PUSH1 0x40 MLOAD PUSH1 0x20 DUP2 DUP4 SUB SUB DUP2 MSTORE SWAP1 PUSH1 0x40 MSTORE DUP1 MLOAD SWAP1 PUSH1 0x20 ADD KECCAK256 PUSH32 0xE34F199B19B2B4F47F68442619D555527D244F78A3297EA89325F843F87B8B54 PUSH1 0x0 SHL PUSH1 0x40 MLOAD PUSH1 0x20 ADD DUP1 DUP1 PUSH32 0xFF00000000000000000000000000000000000000000000000000000000000000 DUP2 MSTORE POP PUSH1 0x1 ADD DUP5 PUSH20 0xFFFFFFFFFFFFFFFFFFFFFFFFFFFFFFFFFFFFFFFF AND PUSH1 0x60 SHL DUP2 MSTORE PUSH1 0x14 ADD DUP4 DUP2 MSTORE PUSH1 0x20 ADD DUP3 DUP2 MSTORE PUSH1 0x20 ADD SWAP4 POP POP POP POP PUSH1 0x40 MLOAD PUSH1 0x20 DUP2 DUP4 SUB SUB DUP2 MSTORE SWAP1 PUSH1 0x40 MSTORE DUP1 MLOAD SWAP1 PUSH1 0x20 ADD KECCAK256 PUSH1 0x0 SHR SWAP1 POP SWAP3 SWAP2 POP POP JUMP JUMPDEST PUSH1 0x0 DUP1 PUSH1 0x0 PUSH1 0x60 DUP5 MLOAD EQ PUSH2 0x14D6 JUMPI PUSH1 0x44 DUP5 MLOAD LT ISZERO PUSH2 0x1480 JUMPI PUSH1 0x40 MLOAD PUSH32 0x8C379A000000000000000000000000000000000000000000000000000000000 DUP2 MSTORE PUSH1 0x4 ADD PUSH2 0x1477 SWAP1 PUSH2 0x2511 JUMP JUMPDEST PUSH1 0x40 MLOAD DUP1 SWAP2 SUB SWAP1 REVERT JUMPDEST PUSH1 0x4 DUP5 ADD SWAP4 POP DUP4 DUP1 PUSH1 0x20 ADD SWAP1 MLOAD DUP2 ADD SWAP1 PUSH2 0x149A SWAP2 SWAP1 PUSH2 0x2079 JUMP JUMPDEST PUSH1 0x40 MLOAD PUSH32 0x8C379A000000000000000000000000000000000000000000000000000000000 DUP2 MSTORE PUSH1 0x4 ADD PUSH2 0x14CD SWAP2 SWAP1 PUSH2 0x24EF JUMP JUMPDEST PUSH1 0x40 MLOAD DUP1 SWAP2 SUB SWAP1 REVERT JUMPDEST DUP4 DUP1 PUSH1 0x20 ADD SWAP1 MLOAD DUP2 ADD SWAP1 PUSH2 0x14EA SWAP2 SWAP1 PUSH2 0x21AA JUMP JUMPDEST SWAP3 POP SWAP3 POP SWAP3 POP SWAP2 SWAP4 SWAP1 SWAP3 POP JUMP JUMPDEST PUSH1 0x0 DUP1 PUSH1 0x0 DUP1 PUSH1 0x0 DUP1 PUSH1 0x0 DUP1 PUSH1 0x8 DUP12 PUSH20 0xFFFFFFFFFFFFFFFFFFFFFFFFFFFFFFFFFFFFFFFF AND PUSH4 0xD0C93A7C PUSH1 0x40 MLOAD DUP2 PUSH4 0xFFFFFFFF AND PUSH1 0xE0 SHL DUP2 MSTORE PUSH1 0x4 ADD PUSH1 0x20 PUSH1 0x40 MLOAD DUP1 DUP4 SUB DUP2 DUP7 DUP1 EXTCODESIZE ISZERO DUP1 ISZERO PUSH2 0x154B JUMPI PUSH1 0x0 DUP1 REVERT JUMPDEST POP GAS STATICCALL ISZERO DUP1 ISZERO PUSH2 0x155F JUMPI RETURNDATASIZE PUSH1 0x0 DUP1 RETURNDATACOPY RETURNDATASIZE PUSH1 0x0 REVERT JUMPDEST POP POP POP POP PUSH1 0x40 MLOAD RETURNDATASIZE PUSH1 0x20 DUP2 LT ISZERO PUSH2 0x1575 JUMPI PUSH1 0x0 DUP1 REVERT JUMPDEST DUP2 ADD SWAP1 DUP1 DUP1 MLOAD SWAP1 PUSH1 0x20 ADD SWAP1 SWAP3 SWAP2 SWAP1 POP POP POP PUSH1 0x2 SIGNEXTEND DUP12 PUSH1 0x2 SIGNEXTEND DUP2 PUSH2 0x1594 JUMPI INVALID JUMPDEST SDIV PUSH1 0x2 SIGNEXTEND SWAP1 SAR SWAP1 POP PUSH1 0x0 PUSH2 0x100 DUP13 PUSH20 0xFFFFFFFFFFFFFFFFFFFFFFFFFFFFFFFFFFFFFFFF AND PUSH4 0xD0C93A7C PUSH1 0x40 MLOAD DUP2 PUSH4 0xFFFFFFFF AND PUSH1 0xE0 SHL DUP2 MSTORE PUSH1 0x4 ADD PUSH1 0x20 PUSH1 0x40 MLOAD DUP1 DUP4 SUB DUP2 DUP7 DUP1 EXTCODESIZE ISZERO DUP1 ISZERO PUSH2 0x15E7 JUMPI PUSH1 0x0 DUP1 REVERT JUMPDEST POP GAS STATICCALL ISZERO DUP1 ISZERO PUSH2 0x15FB JUMPI RETURNDATASIZE PUSH1 0x0 DUP1 RETURNDATACOPY RETURNDATASIZE PUSH1 0x0 REVERT JUMPDEST POP POP POP POP PUSH1 0x40 MLOAD RETURNDATASIZE PUSH1 0x20 DUP2 LT ISZERO PUSH2 0x1611 JUMPI PUSH1 0x0 DUP1 REVERT JUMPDEST DUP2 ADD SWAP1 DUP1 DUP1 MLOAD SWAP1 PUSH1 0x20 ADD SWAP1 SWAP3 SWAP2 SWAP1 POP POP POP PUSH1 0x2 SIGNEXTEND DUP13 PUSH1 0x2 SIGNEXTEND DUP2 PUSH2 0x1630 JUMPI INVALID JUMPDEST SDIV PUSH1 0x2 SIGNEXTEND DUP2 PUSH2 0x163B JUMPI INVALID JUMPDEST SMOD SWAP1 POP PUSH1 0x0 PUSH1 0x8 DUP14 PUSH20 0xFFFFFFFFFFFFFFFFFFFFFFFFFFFFFFFFFFFFFFFF AND PUSH4 0xD0C93A7C PUSH1 0x40 MLOAD DUP2 PUSH4 0xFFFFFFFF AND PUSH1 0xE0 SHL DUP2 MSTORE PUSH1 0x4 ADD PUSH1 0x20 PUSH1 0x40 MLOAD DUP1 DUP4 SUB DUP2 DUP7 DUP1 EXTCODESIZE ISZERO DUP1 ISZERO PUSH2 0x1688 JUMPI PUSH1 0x0 DUP1 REVERT JUMPDEST POP GAS STATICCALL ISZERO DUP1 ISZERO PUSH2 0x169C JUMPI RETURNDATASIZE PUSH1 0x0 DUP1 RETURNDATACOPY RETURNDATASIZE PUSH1 0x0 REVERT JUMPDEST POP POP POP POP PUSH1 0x40 MLOAD RETURNDATASIZE PUSH1 0x20 DUP2 LT ISZERO PUSH2 0x16B2 JUMPI PUSH1 0x0 DUP1 REVERT JUMPDEST DUP2 ADD SWAP1 DUP1 DUP1 MLOAD SWAP1 PUSH1 0x20 ADD SWAP1 SWAP3 SWAP2 SWAP1 POP POP POP PUSH1 0x2 SIGNEXTEND DUP13 PUSH1 0x2 SIGNEXTEND DUP2 PUSH2 0x16D1 JUMPI INVALID JUMPDEST SDIV PUSH1 0x2 SIGNEXTEND SWAP1 SAR SWAP1 POP PUSH1 0x0 PUSH2 0x100 DUP15 PUSH20 0xFFFFFFFFFFFFFFFFFFFFFFFFFFFFFFFFFFFFFFFF AND PUSH4 0xD0C93A7C PUSH1 0x40 MLOAD DUP2 PUSH4 0xFFFFFFFF AND PUSH1 0xE0 SHL DUP2 MSTORE PUSH1 0x4 ADD PUSH1 0x20 PUSH1 0x40 MLOAD DUP1 DUP4 SUB DUP2 DUP7 DUP1 EXTCODESIZE ISZERO DUP1 ISZERO PUSH2 0x1724 JUMPI PUSH1 0x0 DUP1 REVERT JUMPDEST POP GAS STATICCALL ISZERO DUP1 ISZERO PUSH2 0x1738 JUMPI RETURNDATASIZE PUSH1 0x0 DUP1 RETURNDATACOPY RETURNDATASIZE PUSH1 0x0 REVERT JUMPDEST POP POP POP POP PUSH1 0x40 MLOAD RETURNDATASIZE PUSH1 0x20 DUP2 LT ISZERO PUSH2 0x174E JUMPI PUSH1 0x0 DUP1 REVERT JUMPDEST DUP2 ADD SWAP1 DUP1 DUP1 MLOAD SWAP1 PUSH1 0x20 ADD SWAP1 SWAP3 SWAP2 SWAP1 POP POP POP PUSH1 0x2 SIGNEXTEND DUP14 PUSH1 0x2 SIGNEXTEND DUP2 PUSH2 0x176D JUMPI INVALID JUMPDEST SDIV PUSH1 0x2 SIGNEXTEND DUP2 PUSH2 0x1778 JUMPI INVALID JUMPDEST SMOD SWAP1 POP PUSH1 0x0 DUP2 PUSH1 0xFF AND PUSH1 0x1 SWAP1 SHL DUP16 PUSH20 0xFFFFFFFFFFFFFFFFFFFFFFFFFFFFFFFFFFFFFFFF AND PUSH4 0x5339C296 DUP6 PUSH1 0x40 MLOAD DUP3 PUSH4 0xFFFFFFFF AND PUSH1 0xE0 SHL DUP2 MSTORE PUSH1 0x4 ADD DUP1 DUP3 PUSH1 0x1 SIGNEXTEND DUP2 MSTORE PUSH1 0x20 ADD SWAP2 POP POP PUSH1 0x20 PUSH1 0x40 MLOAD DUP1 DUP4 SUB DUP2 DUP7 DUP1 EXTCODESIZE ISZERO DUP1 ISZERO PUSH2 0x17D9 JUMPI PUSH1 0x0 DUP1 REVERT JUMPDEST POP GAS STATICCALL ISZERO DUP1 ISZERO PUSH2 0x17ED JUMPI RETURNDATASIZE PUSH1 0x0 DUP1 RETURNDATACOPY RETURNDATASIZE PUSH1 0x0 REVERT JUMPDEST POP POP POP POP PUSH1 0x40 MLOAD RETURNDATASIZE PUSH1 0x20 DUP2 LT ISZERO PUSH2 0x1803 JUMPI PUSH1 0x0 DUP1 REVERT JUMPDEST DUP2 ADD SWAP1 DUP1 DUP1 MLOAD SWAP1 PUSH1 0x20 ADD SWAP1 SWAP3 SWAP2 SWAP1 POP POP POP AND GT DUP1 ISZERO PUSH2 0x18B4 JUMPI POP PUSH1 0x0 DUP15 PUSH20 0xFFFFFFFFFFFFFFFFFFFFFFFFFFFFFFFFFFFFFFFF AND PUSH4 0xD0C93A7C PUSH1 0x40 MLOAD DUP2 PUSH4 0xFFFFFFFF AND PUSH1 0xE0 SHL DUP2 MSTORE PUSH1 0x4 ADD PUSH1 0x20 PUSH1 0x40 MLOAD DUP1 DUP4 SUB DUP2 DUP7 DUP1 EXTCODESIZE ISZERO DUP1 ISZERO PUSH2 0x1865 JUMPI PUSH1 0x0 DUP1 REVERT JUMPDEST POP GAS STATICCALL ISZERO DUP1 ISZERO PUSH2 0x1879 JUMPI RETURNDATASIZE PUSH1 0x0 DUP1 RETURNDATACOPY RETURNDATASIZE PUSH1 0x0 REVERT JUMPDEST POP POP POP POP PUSH1 0x40 MLOAD RETURNDATASIZE PUSH1 0x20 DUP2 LT ISZERO PUSH2 0x188F JUMPI PUSH1 0x0 DUP1 REVERT JUMPDEST DUP2 ADD SWAP1 DUP1 DUP1 MLOAD SWAP1 PUSH1 0x20 ADD SWAP1 SWAP3 SWAP2 SWAP1 POP POP POP PUSH1 0x2 SIGNEXTEND DUP14 PUSH1 0x2 SIGNEXTEND DUP2 PUSH2 0x18AE JUMPI INVALID JUMPDEST SMOD PUSH1 0x2 SIGNEXTEND EQ JUMPDEST DUP1 ISZERO PUSH2 0x18C5 JUMPI POP DUP12 PUSH1 0x2 SIGNEXTEND DUP14 PUSH1 0x2 SIGNEXTEND SGT JUMPDEST SWAP5 POP PUSH1 0x0 DUP4 PUSH1 0xFF AND PUSH1 0x1 SWAP1 SHL DUP16 PUSH20 0xFFFFFFFFFFFFFFFFFFFFFFFFFFFFFFFFFFFFFFFF AND PUSH4 0x5339C296 DUP8 PUSH1 0x40 MLOAD DUP3 PUSH4 0xFFFFFFFF AND PUSH1 0xE0 SHL DUP2 MSTORE PUSH1 0x4 ADD DUP1 DUP3 PUSH1 0x1 SIGNEXTEND DUP2 MSTORE PUSH1 0x20 ADD SWAP2 POP POP PUSH1 0x20 PUSH1 0x40 MLOAD DUP1 DUP4 SUB DUP2 DUP7 DUP1 EXTCODESIZE ISZERO DUP1 ISZERO PUSH2 0x1925 JUMPI PUSH1 0x0 DUP1 REVERT JUMPDEST POP GAS STATICCALL ISZERO DUP1 ISZERO PUSH2 0x1939 JUMPI RETURNDATASIZE PUSH1 0x0 DUP1 RETURNDATACOPY RETURNDATASIZE PUSH1 0x0 REVERT JUMPDEST POP POP POP POP PUSH1 0x40 MLOAD RETURNDATASIZE PUSH1 0x20 DUP2 LT ISZERO PUSH2 0x194F JUMPI PUSH1 0x0 DUP1 REVERT JUMPDEST DUP2 ADD SWAP1 DUP1 DUP1 MLOAD SWAP1 PUSH1 0x20 ADD SWAP1 SWAP3 SWAP2 SWAP1 POP POP POP AND GT DUP1 ISZERO PUSH2 0x1A00 JUMPI POP PUSH1 0x0 DUP15 PUSH20 0xFFFFFFFFFFFFFFFFFFFFFFFFFFFFFFFFFFFFFFFF AND PUSH4 0xD0C93A7C PUSH1 0x40 MLOAD DUP2 PUSH4 0xFFFFFFFF AND PUSH1 0xE0 SHL DUP2 MSTORE PUSH1 0x4 ADD PUSH1 0x20 PUSH1 0x40 MLOAD DUP1 DUP4 SUB DUP2 DUP7 DUP1 EXTCODESIZE ISZERO DUP1 ISZERO PUSH2 0x19B1 JUMPI PUSH1 0x0 DUP1 REVERT JUMPDEST POP GAS STATICCALL ISZERO DUP1 ISZERO PUSH2 0x19C5 JUMPI RETURNDATASIZE PUSH1 0x0 DUP1 RETURNDATACOPY RETURNDATASIZE PUSH1 0x0 REVERT JUMPDEST POP POP POP POP PUSH1 0x40 MLOAD RETURNDATASIZE PUSH1 0x20 DUP2 LT ISZERO PUSH2 0x19DB JUMPI PUSH1 0x0 DUP1 REVERT JUMPDEST DUP2 ADD SWAP1 DUP1 DUP1 MLOAD SWAP1 PUSH1 0x20 ADD SWAP1 SWAP3 SWAP2 SWAP1 POP POP POP PUSH1 0x2 SIGNEXTEND DUP15 PUSH1 0x2 SIGNEXTEND DUP2 PUSH2 0x19FA JUMPI INVALID JUMPDEST SMOD PUSH1 0x2 SIGNEXTEND EQ JUMPDEST DUP1 ISZERO PUSH2 0x1A11 JUMPI POP DUP12 PUSH1 0x2 SIGNEXTEND DUP14 PUSH1 0x2 SIGNEXTEND SLT JUMPDEST SWAP6 POP DUP2 PUSH1 0x1 SIGNEXTEND DUP5 PUSH1 0x1 SIGNEXTEND SLT DUP1 PUSH2 0x1A3E JUMPI POP DUP2 PUSH1 0x1 SIGNEXTEND DUP5 PUSH1 0x1 SIGNEXTEND EQ DUP1 ISZERO PUSH2 0x1A3D JUMPI POP DUP1 PUSH1 0xFF AND DUP4 PUSH1 0xFF AND GT ISZERO JUMPDEST JUMPDEST ISZERO PUSH2 0x1A54 JUMPI DUP4 SWAP10 POP DUP3 SWAP8 POP DUP2 SWAP9 POP DUP1 SWAP7 POP PUSH2 0x1A61 JUMP JUMPDEST DUP2 SWAP10 POP DUP1 SWAP8 POP DUP4 SWAP9 POP DUP3 SWAP7 POP JUMPDEST POP POP POP POP PUSH1 0x0 DUP5 PUSH1 0xFF AND PUSH32 0xFFFFFFFFFFFFFFFFFFFFFFFFFFFFFFFFFFFFFFFFFFFFFFFFFFFFFFFFFFFFFFFF SWAP1 SHL SWAP1 POP JUMPDEST DUP6 PUSH1 0x1 SIGNEXTEND DUP8 PUSH1 0x1 SIGNEXTEND SGT PUSH2 0x1BB2 JUMPI DUP6 PUSH1 0x1 SIGNEXTEND DUP8 PUSH1 0x1 SIGNEXTEND EQ ISZERO PUSH2 0x1ADB JUMPI DUP4 PUSH1 0xFF SUB PUSH1 0xFF AND PUSH32 0xFFFFFFFFFFFFFFFFFFFFFFFFFFFFFFFFFFFFFFFFFFFFFFFFFFFFFFFFFFFFFFFF SWAP1 SHR DUP2 AND SWAP1 POP JUMPDEST PUSH1 0x0 DUP2 DUP13 PUSH20 0xFFFFFFFFFFFFFFFFFFFFFFFFFFFFFFFFFFFFFFFF AND PUSH4 0x5339C296 DUP11 PUSH1 0x40 MLOAD DUP3 PUSH4 0xFFFFFFFF AND PUSH1 0xE0 SHL DUP2 MSTORE PUSH1 0x4 ADD DUP1 DUP3 PUSH1 0x1 SIGNEXTEND DUP2 MSTORE PUSH1 0x20 ADD SWAP2 POP POP PUSH1 0x20 PUSH1 0x40 MLOAD DUP1 DUP4 SUB DUP2 DUP7 DUP1 EXTCODESIZE ISZERO DUP1 ISZERO PUSH2 0x1B32 JUMPI PUSH1 0x0 DUP1 REVERT JUMPDEST POP GAS STATICCALL ISZERO DUP1 ISZERO PUSH2 0x1B46 JUMPI RETURNDATASIZE PUSH1 0x0 DUP1 RETURNDATACOPY RETURNDATASIZE PUSH1 0x0 REVERT JUMPDEST POP POP POP POP PUSH1 0x40 MLOAD RETURNDATASIZE PUSH1 0x20 DUP2 LT ISZERO PUSH2 0x1B5C JUMPI PUSH1 0x0 DUP1 REVERT JUMPDEST DUP2 ADD SWAP1 DUP1 DUP1 MLOAD SWAP1 PUSH1 0x20 ADD SWAP1 SWAP3 SWAP2 SWAP1 POP POP POP AND SWAP1 POP PUSH2 0x1B79 DUP2 PUSH2 0x1C26 JUMP JUMPDEST PUSH2 0xFFFF AND DUP10 ADD SWAP9 POP DUP8 DUP1 PUSH1 0x1 ADD SWAP9 POP POP PUSH32 0xFFFFFFFFFFFFFFFFFFFFFFFFFFFFFFFFFFFFFFFFFFFFFFFFFFFFFFFFFFFFFFFF SWAP2 POP POP PUSH2 0x1A91 JUMP JUMPDEST DUP2 ISZERO PUSH2 0x1BBF JUMPI PUSH1 0x1 DUP9 SUB SWAP8 POP JUMPDEST DUP3 ISZERO PUSH2 0x1BCC JUMPI PUSH1 0x1 DUP9 SUB SWAP8 POP JUMPDEST POP POP POP POP POP POP POP SWAP4 SWAP3 POP POP POP JUMP JUMPDEST PUSH1 0x0 PUSH2 0x1BE6 DUP4 DUP4 PUSH2 0x12D2 JUMP JUMPDEST SWAP1 POP DUP1 PUSH20 0xFFFFFFFFFFFFFFFFFFFFFFFFFFFFFFFFFFFFFFFF AND CALLER PUSH20 0xFFFFFFFFFFFFFFFFFFFFFFFFFFFFFFFFFFFFFFFF AND EQ PUSH2 0x1C20 JUMPI PUSH1 0x0 DUP1 REVERT JUMPDEST SWAP3 SWAP2 POP POP JUMP JUMPDEST PUSH1 0x0 DUP1 PUSH1 0x0 SWAP1 POP JUMPDEST PUSH1 0x0 DUP4 EQ PUSH2 0x1C4B JUMPI DUP1 DUP1 PUSH1 0x1 ADD SWAP2 POP POP PUSH1 0x1 DUP4 SUB DUP4 AND SWAP3 POP PUSH2 0x1C2E JUMP JUMPDEST DUP1 SWAP2 POP POP SWAP2 SWAP1 POP JUMP JUMPDEST PUSH1 0x40 MLOAD DUP1 PUSH1 0x60 ADD PUSH1 0x40 MSTORE DUP1 PUSH1 0x0 PUSH20 0xFFFFFFFFFFFFFFFFFFFFFFFFFFFFFFFFFFFFFFFF AND DUP2 MSTORE PUSH1 0x20 ADD PUSH1 0x0 PUSH20 0xFFFFFFFFFFFFFFFFFFFFFFFFFFFFFFFFFFFFFFFF AND DUP2 MSTORE PUSH1 0x20 ADD PUSH1 0x0 PUSH3 0xFFFFFF AND DUP2 MSTORE POP SWAP1 JUMP JUMPDEST PUSH1 0x0 PUSH2 0x1CB9 PUSH2 0x1CB4 DUP5 PUSH2 0x25FA JUMP JUMPDEST PUSH2 0x25C9 JUMP JUMPDEST SWAP1 POP DUP3 DUP2 MSTORE PUSH1 0x20 DUP2 ADD DUP5 DUP5 DUP5 ADD GT ISZERO PUSH2 0x1CD1 JUMPI PUSH1 0x0 DUP1 REVERT JUMPDEST PUSH2 0x1CDC DUP5 DUP3 DUP6 PUSH2 0x279D JUMP JUMPDEST POP SWAP4 SWAP3 POP POP POP JUMP JUMPDEST PUSH1 0x0 PUSH2 0x1CF7 PUSH2 0x1CF2 DUP5 PUSH2 0x262A JUMP JUMPDEST PUSH2 0x25C9 JUMP JUMPDEST SWAP1 POP DUP3 DUP2 MSTORE PUSH1 0x20 DUP2 ADD DUP5 DUP5 DUP5 ADD GT ISZERO PUSH2 0x1D0F JUMPI PUSH1 0x0 DUP1 REVERT JUMPDEST PUSH2 0x1D1A DUP5 DUP3 DUP6 PUSH2 0x27AC JUMP JUMPDEST POP SWAP4 SWAP3 POP POP POP JUMP JUMPDEST PUSH1 0x0 DUP2 CALLDATALOAD SWAP1 POP PUSH2 0x1D31 DUP2 PUSH2 0x2842 JUMP JUMPDEST SWAP3 SWAP2 POP POP JUMP JUMPDEST PUSH1 0x0 DUP2 MLOAD SWAP1 POP PUSH2 0x1D46 DUP2 PUSH2 0x2859 JUMP JUMPDEST SWAP3 SWAP2 POP POP JUMP JUMPDEST PUSH1 0x0 DUP3 PUSH1 0x1F DUP4 ADD SLT PUSH2 0x1D5D JUMPI PUSH1 0x0 DUP1 REVERT JUMPDEST DUP2 CALLDATALOAD PUSH2 0x1D6D DUP5 DUP3 PUSH1 0x20 DUP7 ADD PUSH2 0x1CA6 JUMP JUMPDEST SWAP2 POP POP SWAP3 SWAP2 POP POP JUMP JUMPDEST PUSH1 0x0 DUP2 MLOAD SWAP1 POP PUSH2 0x1D85 DUP2 PUSH2 0x2870 JUMP JUMPDEST SWAP3 SWAP2 POP POP JUMP JUMPDEST PUSH1 0x0 DUP2 CALLDATALOAD SWAP1 POP PUSH2 0x1D9A DUP2 PUSH2 0x2887 JUMP JUMPDEST SWAP3 SWAP2 POP POP JUMP JUMPDEST PUSH1 0x0 DUP2 MLOAD SWAP1 POP PUSH2 0x1DAF DUP2 PUSH2 0x2887 JUMP JUMPDEST SWAP3 SWAP2 POP POP JUMP JUMPDEST PUSH1 0x0 DUP3 PUSH1 0x1F DUP4 ADD SLT PUSH2 0x1DC6 JUMPI PUSH1 0x0 DUP1 REVERT JUMPDEST DUP2 MLOAD PUSH2 0x1DD6 DUP5 DUP3 PUSH1 0x20 DUP7 ADD PUSH2 0x1CE4 JUMP JUMPDEST SWAP2 POP POP SWAP3 SWAP2 POP POP JUMP JUMPDEST PUSH1 0x0 PUSH1 0xA0 DUP3 DUP5 SUB SLT ISZERO PUSH2 0x1DF1 JUMPI PUSH1 0x0 DUP1 REVERT JUMPDEST PUSH2 0x1DFB PUSH1 0xA0 PUSH2 0x25C9 JUMP JUMPDEST SWAP1 POP PUSH1 0x0 PUSH2 0x1E0B DUP5 DUP3 DUP6 ADD PUSH2 0x1D22 JUMP JUMPDEST PUSH1 0x0 DUP4 ADD MSTORE POP PUSH1 0x20 PUSH2 0x1E1F DUP5 DUP3 DUP6 ADD PUSH2 0x1D22 JUMP JUMPDEST PUSH1 0x20 DUP4 ADD MSTORE POP PUSH1 0x40 PUSH2 0x1E33 DUP5 DUP3 DUP6 ADD PUSH2 0x1F43 JUMP JUMPDEST PUSH1 0x40 DUP4 ADD MSTORE POP PUSH1 0x60 PUSH2 0x1E47 DUP5 DUP3 DUP6 ADD PUSH2 0x1F2E JUMP JUMPDEST PUSH1 0x60 DUP4 ADD MSTORE POP PUSH1 0x80 PUSH2 0x1E5B DUP5 DUP3 DUP6 ADD PUSH2 0x1EEF JUMP JUMPDEST PUSH1 0x80 DUP4 ADD MSTORE POP SWAP3 SWAP2 POP POP JUMP JUMPDEST PUSH1 0x0 PUSH1 0xA0 DUP3 DUP5 SUB SLT ISZERO PUSH2 0x1E79 JUMPI PUSH1 0x0 DUP1 REVERT JUMPDEST PUSH2 0x1E83 PUSH1 0xA0 PUSH2 0x25C9 JUMP JUMPDEST SWAP1 POP PUSH1 0x0 PUSH2 0x1E93 DUP5 DUP3 DUP6 ADD PUSH2 0x1D22 JUMP JUMPDEST PUSH1 0x0 DUP4 ADD MSTORE POP PUSH1 0x20 PUSH2 0x1EA7 DUP5 DUP3 DUP6 ADD PUSH2 0x1D22 JUMP JUMPDEST PUSH1 0x20 DUP4 ADD MSTORE POP PUSH1 0x40 PUSH2 0x1EBB DUP5 DUP3 DUP6 ADD PUSH2 0x1F43 JUMP JUMPDEST PUSH1 0x40 DUP4 ADD MSTORE POP PUSH1 0x60 PUSH2 0x1ECF DUP5 DUP3 DUP6 ADD PUSH2 0x1F2E JUMP JUMPDEST PUSH1 0x60 DUP4 ADD MSTORE POP PUSH1 0x80 PUSH2 0x1EE3 DUP5 DUP3 DUP6 ADD PUSH2 0x1EEF JUMP JUMPDEST PUSH1 0x80 DUP4 ADD MSTORE POP SWAP3 SWAP2 POP POP JUMP JUMPDEST PUSH1 0x0 DUP2 CALLDATALOAD SWAP1 POP PUSH2 0x1EFE DUP2 PUSH2 0x28B5 JUMP JUMPDEST SWAP3 SWAP2 POP POP JUMP JUMPDEST PUSH1 0x0 DUP2 MLOAD SWAP1 POP PUSH2 0x1F13 DUP2 PUSH2 0x28B5 JUMP JUMPDEST SWAP3 SWAP2 POP POP JUMP JUMPDEST PUSH1 0x0 DUP2 MLOAD SWAP1 POP PUSH2 0x1F28 DUP2 PUSH2 0x289E JUMP JUMPDEST SWAP3 SWAP2 POP POP JUMP JUMPDEST PUSH1 0x0 DUP2 CALLDATALOAD SWAP1 POP PUSH2 0x1F3D DUP2 PUSH2 0x28CC JUMP JUMPDEST SWAP3 SWAP2 POP POP JUMP JUMPDEST PUSH1 0x0 DUP2 CALLDATALOAD SWAP1 POP PUSH2 0x1F52 DUP2 PUSH2 0x28E3 JUMP JUMPDEST SWAP3 SWAP2 POP POP JUMP JUMPDEST PUSH1 0x0 DUP2 MLOAD SWAP1 POP PUSH2 0x1F67 DUP2 PUSH2 0x28E3 JUMP JUMPDEST SWAP3 SWAP2 POP POP JUMP JUMPDEST PUSH1 0x0 DUP2 MLOAD SWAP1 POP PUSH2 0x1F7C DUP2 PUSH2 0x28FA JUMP JUMPDEST SWAP3 SWAP2 POP POP JUMP JUMPDEST PUSH1 0x0 DUP1 PUSH1 0x40 DUP4 DUP6 SUB SLT ISZERO PUSH2 0x1F95 JUMPI PUSH1 0x0 DUP1 REVERT JUMPDEST PUSH1 0x0 DUP4 ADD CALLDATALOAD PUSH8 0xFFFFFFFFFFFFFFFF DUP2 GT ISZERO PUSH2 0x1FAF JUMPI PUSH1 0x0 DUP1 REVERT JUMPDEST PUSH2 0x1FBB DUP6 DUP3 DUP7 ADD PUSH2 0x1D4C JUMP JUMPDEST SWAP3 POP POP PUSH1 0x20 PUSH2 0x1FCC DUP6 DUP3 DUP7 ADD PUSH2 0x1F43 JUMP JUMPDEST SWAP2 POP POP SWAP3 POP SWAP3 SWAP1 POP JUMP JUMPDEST PUSH1 0x0 DUP1 PUSH1 0x40 DUP4 DUP6 SUB SLT ISZERO PUSH2 0x1FE9 JUMPI PUSH1 0x0 DUP1 REVERT JUMPDEST PUSH1 0x0 PUSH2 0x1FF7 DUP6 DUP3 DUP7 ADD PUSH2 0x1DA0 JUMP JUMPDEST SWAP3 POP POP PUSH1 0x20 PUSH2 0x2008 DUP6 DUP3 DUP7 ADD PUSH2 0x1DA0 JUMP JUMPDEST SWAP2 POP POP SWAP3 POP SWAP3 SWAP1 POP JUMP JUMPDEST PUSH1 0x0 DUP1 PUSH1 0x0 PUSH1 0x60 DUP5 DUP7 SUB SLT ISZERO PUSH2 0x2027 JUMPI PUSH1 0x0 DUP1 REVERT JUMPDEST PUSH1 0x0 PUSH2 0x2035 DUP7 DUP3 DUP8 ADD PUSH2 0x1D8B JUMP JUMPDEST SWAP4 POP POP PUSH1 0x20 PUSH2 0x2046 DUP7 DUP3 DUP8 ADD PUSH2 0x1D8B JUMP JUMPDEST SWAP3 POP POP PUSH1 0x40 DUP5 ADD CALLDATALOAD PUSH8 0xFFFFFFFFFFFFFFFF DUP2 GT ISZERO PUSH2 0x2063 JUMPI PUSH1 0x0 DUP1 REVERT JUMPDEST PUSH2 0x206F DUP7 DUP3 DUP8 ADD PUSH2 0x1D4C JUMP JUMPDEST SWAP2 POP POP SWAP3 POP SWAP3 POP SWAP3 JUMP JUMPDEST PUSH1 0x0 PUSH1 0x20 DUP3 DUP5 SUB SLT ISZERO PUSH2 0x208B JUMPI PUSH1 0x0 DUP1 REVERT JUMPDEST PUSH1 0x0 DUP3 ADD MLOAD PUSH8 0xFFFFFFFFFFFFFFFF DUP2 GT ISZERO PUSH2 0x20A5 JUMPI PUSH1 0x0 DUP1 REVERT JUMPDEST PUSH2 0x20B1 DUP5 DUP3 DUP6 ADD PUSH2 0x1DB5 JUMP JUMPDEST SWAP2 POP POP SWAP3 SWAP2 POP POP JUMP JUMPDEST PUSH1 0x0 PUSH1 0xA0 DUP3 DUP5 SUB SLT ISZERO PUSH2 0x20CC JUMPI PUSH1 0x0 DUP1 REVERT JUMPDEST PUSH1 0x0 PUSH2 0x20DA DUP5 DUP3 DUP6 ADD PUSH2 0x1DDF JUMP JUMPDEST SWAP2 POP POP SWAP3 SWAP2 POP POP JUMP JUMPDEST PUSH1 0x0 PUSH1 0xA0 DUP3 DUP5 SUB SLT ISZERO PUSH2 0x20F5 JUMPI PUSH1 0x0 DUP1 REVERT JUMPDEST PUSH1 0x0 PUSH2 0x2103 DUP5 DUP3 DUP6 ADD PUSH2 0x1E67 JUMP JUMPDEST SWAP2 POP POP SWAP3 SWAP2 POP POP JUMP JUMPDEST PUSH1 0x0 DUP1 PUSH1 0x0 DUP1 PUSH1 0x0 DUP1 PUSH1 0x0 PUSH1 0xE0 DUP9 DUP11 SUB SLT ISZERO PUSH2 0x2127 JUMPI PUSH1 0x0 DUP1 REVERT JUMPDEST PUSH1 0x0 PUSH2 0x2135 DUP11 DUP3 DUP12 ADD PUSH2 0x1F04 JUMP JUMPDEST SWAP8 POP POP PUSH1 0x20 PUSH2 0x2146 DUP11 DUP3 DUP12 ADD PUSH2 0x1D76 JUMP JUMPDEST SWAP7 POP POP PUSH1 0x40 PUSH2 0x2157 DUP11 DUP3 DUP12 ADD PUSH2 0x1F19 JUMP JUMPDEST SWAP6 POP POP PUSH1 0x60 PUSH2 0x2168 DUP11 DUP3 DUP12 ADD PUSH2 0x1F19 JUMP JUMPDEST SWAP5 POP POP PUSH1 0x80 PUSH2 0x2179 DUP11 DUP3 DUP12 ADD PUSH2 0x1F19 JUMP JUMPDEST SWAP4 POP POP PUSH1 0xA0 PUSH2 0x218A DUP11 DUP3 DUP12 ADD PUSH2 0x1F6D JUMP JUMPDEST SWAP3 POP POP PUSH1 0xC0 PUSH2 0x219B DUP11 DUP3 DUP12 ADD PUSH2 0x1D37 JUMP JUMPDEST SWAP2 POP POP SWAP3 SWAP6 SWAP9 SWAP2 SWAP5 SWAP8 POP SWAP3 SWAP6 POP JUMP JUMPDEST PUSH1 0x0 DUP1 PUSH1 0x0 PUSH1 0x60 DUP5 DUP7 SUB SLT ISZERO PUSH2 0x21BF JUMPI PUSH1 0x0 DUP1 REVERT JUMPDEST PUSH1 0x0 PUSH2 0x21CD DUP7 DUP3 DUP8 ADD PUSH2 0x1F58 JUMP JUMPDEST SWAP4 POP POP PUSH1 0x20 PUSH2 0x21DE DUP7 DUP3 DUP8 ADD PUSH2 0x1F04 JUMP JUMPDEST SWAP3 POP POP PUSH1 0x40 PUSH2 0x21EF DUP7 DUP3 DUP8 ADD PUSH2 0x1D76 JUMP JUMPDEST SWAP2 POP POP SWAP3 POP SWAP3 POP SWAP3 JUMP JUMPDEST PUSH1 0x0 PUSH2 0x2205 DUP4 DUP4 PUSH2 0x23DB JUMP JUMPDEST PUSH1 0x20 DUP4 ADD SWAP1 POP SWAP3 SWAP2 POP POP JUMP JUMPDEST PUSH1 0x0 PUSH2 0x221D DUP4 DUP4 PUSH2 0x241F JUMP JUMPDEST PUSH1 0x20 DUP4 ADD SWAP1 POP SWAP3 SWAP2 POP POP JUMP JUMPDEST PUSH2 0x2232 DUP2 PUSH2 0x2704 JUMP JUMPDEST DUP3 MSTORE POP POP JUMP JUMPDEST PUSH2 0x2249 PUSH2 0x2244 DUP3 PUSH2 0x2704 JUMP JUMPDEST PUSH2 0x27DF JUMP JUMPDEST DUP3 MSTORE POP POP JUMP JUMPDEST PUSH1 0x0 PUSH2 0x225A DUP3 PUSH2 0x267A JUMP JUMPDEST PUSH2 0x2264 DUP2 DUP6 PUSH2 0x26C0 JUMP JUMPDEST SWAP4 POP PUSH2 0x226F DUP4 PUSH2 0x265A JUMP JUMPDEST DUP1 PUSH1 0x0 JUMPDEST DUP4 DUP2 LT ISZERO PUSH2 0x22A0 JUMPI DUP2 MLOAD PUSH2 0x2287 DUP9 DUP3 PUSH2 0x21F9 JUMP JUMPDEST SWAP8 POP PUSH2 0x2292 DUP4 PUSH2 0x26A6 JUMP JUMPDEST SWAP3 POP POP PUSH1 0x1 DUP2 ADD SWAP1 POP PUSH2 0x2273 JUMP JUMPDEST POP DUP6 SWAP4 POP POP POP POP SWAP3 SWAP2 POP POP JUMP JUMPDEST PUSH1 0x0 PUSH2 0x22B8 DUP3 PUSH2 0x2685 JUMP JUMPDEST PUSH2 0x22C2 DUP2 DUP6 PUSH2 0x26D1 JUMP JUMPDEST SWAP4 POP PUSH2 0x22CD DUP4 PUSH2 0x266A JUMP JUMPDEST DUP1 PUSH1 0x0 JUMPDEST DUP4 DUP2 LT ISZERO PUSH2 0x22FE JUMPI DUP2 MLOAD PUSH2 0x22E5 DUP9 DUP3 PUSH2 0x2211 JUMP JUMPDEST SWAP8 POP PUSH2 0x22F0 DUP4 PUSH2 0x26B3 JUMP JUMPDEST SWAP3 POP POP PUSH1 0x1 DUP2 ADD SWAP1 POP PUSH2 0x22D1 JUMP JUMPDEST POP DUP6 SWAP4 POP POP POP POP SWAP3 SWAP2 POP POP JUMP JUMPDEST PUSH2 0x2314 DUP2 PUSH2 0x2716 JUMP JUMPDEST DUP3 MSTORE POP POP JUMP JUMPDEST PUSH1 0x0 PUSH2 0x2325 DUP3 PUSH2 0x2690 JUMP JUMPDEST PUSH2 0x232F DUP2 DUP6 PUSH2 0x26E2 JUMP JUMPDEST SWAP4 POP PUSH2 0x233F DUP2 DUP6 PUSH1 0x20 DUP7 ADD PUSH2 0x27AC JUMP JUMPDEST PUSH2 0x2348 DUP2 PUSH2 0x2817 JUMP JUMPDEST DUP5 ADD SWAP2 POP POP SWAP3 SWAP2 POP POP JUMP JUMPDEST PUSH2 0x235C DUP2 PUSH2 0x272F JUMP JUMPDEST DUP3 MSTORE POP POP JUMP JUMPDEST PUSH1 0x0 PUSH2 0x236D DUP3 PUSH2 0x269B JUMP JUMPDEST PUSH2 0x2377 DUP2 DUP6 PUSH2 0x26F3 JUMP JUMPDEST SWAP4 POP PUSH2 0x2387 DUP2 DUP6 PUSH1 0x20 DUP7 ADD PUSH2 0x27AC JUMP JUMPDEST PUSH2 0x2390 DUP2 PUSH2 0x2817 JUMP JUMPDEST DUP5 ADD SWAP2 POP POP SWAP3 SWAP2 POP POP JUMP JUMPDEST PUSH1 0x0 PUSH2 0x23A8 PUSH1 0x10 DUP4 PUSH2 0x26F3 JUMP JUMPDEST SWAP2 POP PUSH32 0x556E6578706563746564206572726F7200000000000000000000000000000000 PUSH1 0x0 DUP4 ADD MSTORE PUSH1 0x20 DUP3 ADD SWAP1 POP SWAP2 SWAP1 POP JUMP JUMPDEST PUSH2 0x23E4 DUP2 PUSH2 0x2747 JUMP JUMPDEST DUP3 MSTORE POP POP JUMP JUMPDEST PUSH2 0x23F3 DUP2 PUSH2 0x2747 JUMP JUMPDEST DUP3 MSTORE POP POP JUMP JUMPDEST PUSH2 0x240A PUSH2 0x2405 DUP3 PUSH2 0x2767 JUMP JUMPDEST PUSH2 0x2803 JUMP JUMPDEST DUP3 MSTORE POP POP JUMP JUMPDEST PUSH2 0x2419 DUP2 PUSH2 0x2776 JUMP JUMPDEST DUP3 MSTORE POP POP JUMP JUMPDEST PUSH2 0x2428 DUP2 PUSH2 0x2780 JUMP JUMPDEST DUP3 MSTORE POP POP JUMP JUMPDEST PUSH2 0x2437 DUP2 PUSH2 0x2780 JUMP JUMPDEST DUP3 MSTORE POP POP JUMP JUMPDEST PUSH1 0x0 PUSH2 0x2449 DUP3 DUP7 PUSH2 0x2238 JUMP JUMPDEST PUSH1 0x14 DUP3 ADD SWAP2 POP PUSH2 0x2459 DUP3 DUP6 PUSH2 0x23F9 JUMP JUMPDEST PUSH1 0x3 DUP3 ADD SWAP2 POP PUSH2 0x2469 DUP3 DUP5 PUSH2 0x2238 JUMP JUMPDEST PUSH1 0x14 DUP3 ADD SWAP2 POP DUP2 SWAP1 POP SWAP5 SWAP4 POP POP POP POP JUMP JUMPDEST PUSH1 0x0 PUSH1 0x20 DUP3 ADD SWAP1 POP PUSH2 0x248F PUSH1 0x0 DUP4 ADD DUP5 PUSH2 0x2229 JUMP JUMPDEST SWAP3 SWAP2 POP POP JUMP JUMPDEST PUSH1 0x0 PUSH1 0xA0 DUP3 ADD SWAP1 POP PUSH2 0x24AA PUSH1 0x0 DUP4 ADD DUP9 PUSH2 0x2229 JUMP JUMPDEST PUSH2 0x24B7 PUSH1 0x20 DUP4 ADD DUP8 PUSH2 0x230B JUMP JUMPDEST PUSH2 0x24C4 PUSH1 0x40 DUP4 ADD DUP7 PUSH2 0x2353 JUMP JUMPDEST PUSH2 0x24D1 PUSH1 0x60 DUP4 ADD DUP6 PUSH2 0x23EA JUMP JUMPDEST DUP2 DUP2 SUB PUSH1 0x80 DUP4 ADD MSTORE PUSH2 0x24E3 DUP2 DUP5 PUSH2 0x231A JUMP JUMPDEST SWAP1 POP SWAP7 SWAP6 POP POP POP POP POP POP JUMP JUMPDEST PUSH1 0x0 PUSH1 0x20 DUP3 ADD SWAP1 POP DUP2 DUP2 SUB PUSH1 0x0 DUP4 ADD MSTORE PUSH2 0x2509 DUP2 DUP5 PUSH2 0x2362 JUMP JUMPDEST SWAP1 POP SWAP3 SWAP2 POP POP JUMP JUMPDEST PUSH1 0x0 PUSH1 0x20 DUP3 ADD SWAP1 POP DUP2 DUP2 SUB PUSH1 0x0 DUP4 ADD MSTORE PUSH2 0x252A DUP2 PUSH2 0x239B JUMP JUMPDEST SWAP1 POP SWAP2 SWAP1 POP JUMP JUMPDEST PUSH1 0x0 PUSH1 0x80 DUP3 ADD SWAP1 POP PUSH2 0x2546 PUSH1 0x0 DUP4 ADD DUP8 PUSH2 0x2410 JUMP JUMPDEST DUP2 DUP2 SUB PUSH1 0x20 DUP4 ADD MSTORE PUSH2 0x2558 DUP2 DUP7 PUSH2 0x224F JUMP JUMPDEST SWAP1 POP DUP2 DUP2 SUB PUSH1 0x40 DUP4 ADD MSTORE PUSH2 0x256C DUP2 DUP6 PUSH2 0x22AD JUMP JUMPDEST SWAP1 POP PUSH2 0x257B PUSH1 0x60 DUP4 ADD DUP5 PUSH2 0x2410 JUMP JUMPDEST SWAP6 SWAP5 POP POP POP POP POP JUMP JUMPDEST PUSH1 0x0 PUSH1 0x80 DUP3 ADD SWAP1 POP PUSH2 0x2599 PUSH1 0x0 DUP4 ADD DUP8 PUSH2 0x2410 JUMP JUMPDEST PUSH2 0x25A6 PUSH1 0x20 DUP4 ADD DUP7 PUSH2 0x23EA JUMP JUMPDEST PUSH2 0x25B3 PUSH1 0x40 DUP4 ADD DUP6 PUSH2 0x242E JUMP JUMPDEST PUSH2 0x25C0 PUSH1 0x60 DUP4 ADD DUP5 PUSH2 0x2410 JUMP JUMPDEST SWAP6 SWAP5 POP POP POP POP POP JUMP JUMPDEST PUSH1 0x0 PUSH1 0x40 MLOAD SWAP1 POP DUP2 DUP2 ADD DUP2 DUP2 LT PUSH8 0xFFFFFFFFFFFFFFFF DUP3 GT OR ISZERO PUSH2 0x25F0 JUMPI PUSH2 0x25EF PUSH2 0x2815 JUMP JUMPDEST JUMPDEST DUP1 PUSH1 0x40 MSTORE POP SWAP2 SWAP1 POP JUMP JUMPDEST PUSH1 0x0 PUSH8 0xFFFFFFFFFFFFFFFF DUP3 GT ISZERO PUSH2 0x2615 JUMPI PUSH2 0x2614 PUSH2 0x2815 JUMP JUMPDEST JUMPDEST PUSH1 0x1F NOT PUSH1 0x1F DUP4 ADD AND SWAP1 POP PUSH1 0x20 DUP2 ADD SWAP1 POP SWAP2 SWAP1 POP JUMP JUMPDEST PUSH1 0x0 PUSH8 0xFFFFFFFFFFFFFFFF DUP3 GT ISZERO PUSH2 0x2645 JUMPI PUSH2 0x2644 PUSH2 0x2815 JUMP JUMPDEST JUMPDEST PUSH1 0x1F NOT PUSH1 0x1F DUP4 ADD AND SWAP1 POP PUSH1 0x20 DUP2 ADD SWAP1 POP SWAP2 SWAP1 POP JUMP JUMPDEST PUSH1 0x0 DUP2 SWAP1 POP PUSH1 0x20 DUP3 ADD SWAP1 POP SWAP2 SWAP1 POP JUMP JUMPDEST PUSH1 0x0 DUP2 SWAP1 POP PUSH1 0x20 DUP3 ADD SWAP1 POP SWAP2 SWAP1 POP JUMP JUMPDEST PUSH1 0x0 DUP2 MLOAD SWAP1 POP SWAP2 SWAP1 POP JUMP JUMPDEST PUSH1 0x0 DUP2 MLOAD SWAP1 POP SWAP2 SWAP1 POP JUMP JUMPDEST PUSH1 0x0 DUP2 MLOAD SWAP1 POP SWAP2 SWAP1 POP JUMP JUMPDEST PUSH1 0x0 DUP2 MLOAD SWAP1 POP SWAP2 SWAP1 POP JUMP JUMPDEST PUSH1 0x0 PUSH1 0x20 DUP3 ADD SWAP1 POP SWAP2 SWAP1 POP JUMP JUMPDEST PUSH1 0x0 PUSH1 0x20 DUP3 ADD SWAP1 POP SWAP2 SWAP1 POP JUMP JUMPDEST PUSH1 0x0 DUP3 DUP3 MSTORE PUSH1 0x20 DUP3 ADD SWAP1 POP SWAP3 SWAP2 POP POP JUMP JUMPDEST PUSH1 0x0 DUP3 DUP3 MSTORE PUSH1 0x20 DUP3 ADD SWAP1 POP SWAP3 SWAP2 POP POP JUMP JUMPDEST PUSH1 0x0 DUP3 DUP3 MSTORE PUSH1 0x20 DUP3 ADD SWAP1 POP SWAP3 SWAP2 POP POP JUMP JUMPDEST PUSH1 0x0 DUP3 DUP3 MSTORE PUSH1 0x20 DUP3 ADD SWAP1 POP SWAP3 SWAP2 POP POP JUMP JUMPDEST PUSH1 0x0 PUSH2 0x270F DUP3 PUSH2 0x2747 JUMP JUMPDEST SWAP1 POP SWAP2 SWAP1 POP JUMP JUMPDEST PUSH1 0x0 DUP2 ISZERO ISZERO SWAP1 POP SWAP2 SWAP1 POP JUMP JUMPDEST PUSH1 0x0 DUP2 PUSH1 0x2 SIGNEXTEND SWAP1 POP SWAP2 SWAP1 POP JUMP JUMPDEST PUSH1 0x0 DUP2 SWAP1 POP SWAP2 SWAP1 POP JUMP JUMPDEST PUSH1 0x0 PUSH2 0xFFFF DUP3 AND SWAP1 POP SWAP2 SWAP1 POP JUMP JUMPDEST PUSH1 0x0 PUSH20 0xFFFFFFFFFFFFFFFFFFFFFFFFFFFFFFFFFFFFFFFF DUP3 AND SWAP1 POP SWAP2 SWAP1 POP JUMP JUMPDEST PUSH1 0x0 PUSH3 0xFFFFFF DUP3 AND SWAP1 POP SWAP2 SWAP1 POP JUMP JUMPDEST PUSH1 0x0 DUP2 SWAP1 POP SWAP2 SWAP1 POP JUMP JUMPDEST PUSH1 0x0 PUSH4 0xFFFFFFFF DUP3 AND SWAP1 POP SWAP2 SWAP1 POP JUMP JUMPDEST PUSH1 0x0 PUSH1 0xFF DUP3 AND SWAP1 POP SWAP2 SWAP1 POP JUMP JUMPDEST DUP3 DUP2 DUP4 CALLDATACOPY PUSH1 0x0 DUP4 DUP4 ADD MSTORE POP POP POP JUMP JUMPDEST PUSH1 0x0 JUMPDEST DUP4 DUP2 LT ISZERO PUSH2 0x27CA JUMPI DUP1 DUP3 ADD MLOAD DUP2 DUP5 ADD MSTORE PUSH1 0x20 DUP2 ADD SWAP1 POP PUSH2 0x27AF JUMP JUMPDEST DUP4 DUP2 GT ISZERO PUSH2 0x27D9 JUMPI PUSH1 0x0 DUP5 DUP5 ADD MSTORE JUMPDEST POP POP POP POP JUMP JUMPDEST PUSH1 0x0 PUSH2 0x27EA DUP3 PUSH2 0x27F1 JUMP JUMPDEST SWAP1 POP SWAP2 SWAP1 POP JUMP JUMPDEST PUSH1 0x0 PUSH2 0x27FC DUP3 PUSH2 0x2835 JUMP JUMPDEST SWAP1 POP SWAP2 SWAP1 POP JUMP JUMPDEST PUSH1 0x0 PUSH2 0x280E DUP3 PUSH2 0x2828 JUMP JUMPDEST SWAP1 POP SWAP2 SWAP1 POP JUMP JUMPDEST INVALID JUMPDEST PUSH1 0x0 PUSH1 0x1F NOT PUSH1 0x1F DUP4 ADD AND SWAP1 POP SWAP2 SWAP1 POP JUMP JUMPDEST PUSH1 0x0 DUP2 PUSH1 0xE8 SHL SWAP1 POP SWAP2 SWAP1 POP JUMP JUMPDEST PUSH1 0x0 DUP2 PUSH1 0x60 SHL SWAP1 POP SWAP2 SWAP1 POP JUMP JUMPDEST PUSH2 0x284B DUP2 PUSH2 0x2704 JUMP JUMPDEST DUP2 EQ PUSH2 0x2856 JUMPI PUSH1 0x0 DUP1 REVERT JUMPDEST POP JUMP JUMPDEST PUSH2 0x2862 DUP2 PUSH2 0x2716 JUMP JUMPDEST DUP2 EQ PUSH2 0x286D JUMPI PUSH1 0x0 DUP1 REVERT JUMPDEST POP JUMP JUMPDEST PUSH2 0x2879 DUP2 PUSH2 0x2722 JUMP JUMPDEST DUP2 EQ PUSH2 0x2884 JUMPI PUSH1 0x0 DUP1 REVERT JUMPDEST POP JUMP JUMPDEST PUSH2 0x2890 DUP2 PUSH2 0x272F JUMP JUMPDEST DUP2 EQ PUSH2 0x289B JUMPI PUSH1 0x0 DUP1 REVERT JUMPDEST POP JUMP JUMPDEST PUSH2 0x28A7 DUP2 PUSH2 0x2739 JUMP JUMPDEST DUP2 EQ PUSH2 0x28B2 JUMPI PUSH1 0x0 DUP1 REVERT JUMPDEST POP JUMP JUMPDEST PUSH2 0x28BE DUP2 PUSH2 0x2747 JUMP JUMPDEST DUP2 EQ PUSH2 0x28C9 JUMPI PUSH1 0x0 DUP1 REVERT JUMPDEST POP JUMP JUMPDEST PUSH2 0x28D5 DUP2 PUSH2 0x2767 JUMP JUMPDEST DUP2 EQ PUSH2 0x28E0 JUMPI PUSH1 0x0 DUP1 REVERT JUMPDEST POP JUMP JUMPDEST PUSH2 0x28EC DUP2 PUSH2 0x2776 JUMP JUMPDEST DUP2 EQ PUSH2 0x28F7 JUMPI PUSH1 0x0 DUP1 REVERT JUMPDEST POP JUMP JUMPDEST PUSH2 0x2903 DUP2 PUSH2 0x2790 JUMP JUMPDEST DUP2 EQ PUSH2 0x290E JUMPI PUSH1 0x0 DUP1 REVERT JUMPDEST POP JUMP INVALID LOG2 PUSH5 0x6970667358 0x22 SLT KECCAK256 INVALID DIFFICULTY MULMOD 0xC7 PUSH22 0x35903B92BAB013CBC24CC06A05D608CCCDA9E76CDD9D 0xE4 PUSH24 0x2C353764736F6C6343000706003300000000000000000000 "
		},
		"gasEstimates": {
			"creation": {
				"codeDepositCost": "2113400",
				"executionCost": "infinite",
				"totalCost": "infinite"
			},
			"external": {
				"WETH9()": "infinite",
				"factory()": "infinite",
				"quoteExactInput(bytes,uint256)": "infinite",
				"quoteExactInputSingle((address,address,uint256,uint24,uint160))": "infinite",
				"quoteExactOutput(bytes,uint256)": "infinite",
				"quoteExactOutputSingle((address,address,uint256,uint24,uint160))": "infinite",
				"uniswapV3SwapCallback(int256,int256,bytes)": "infinite"
			},
			"internal": {
				"getPool(address,address,uint24)": "infinite",
				"handleRevert(bytes memory,contract IUniswapV3Pool,uint256)": "infinite",
				"parseRevertReason(bytes memory)": "infinite"
			}
		},
		"methodIdentifiers": {
			"WETH9()": "4aa4a4fc",
			"factory()": "c45a0155",
			"quoteExactInput(bytes,uint256)": "cdca1753",
			"quoteExactInputSingle((address,address,uint256,uint24,uint160))": "c6a5026a",
			"quoteExactOutput(bytes,uint256)": "2f80bb1d",
			"quoteExactOutputSingle((address,address,uint256,uint24,uint160))": "bd21704a",
			"uniswapV3SwapCallback(int256,int256,bytes)": "fa461e33"
		}
	},
	"abi": [
		{
			"inputs": [
				{
					"internalType": "address",
					"name": "_factory",
					"type": "address"
				},
				{
					"internalType": "address",
					"name": "_WETH9",
					"type": "address"
				}
			],
			"stateMutability": "nonpayable",
			"type": "constructor"
		},
		{
			"inputs": [],
			"name": "WETH9",
			"outputs": [
				{
					"internalType": "address",
					"name": "",
					"type": "address"
				}
			],
			"stateMutability": "view",
			"type": "function"
		},
		{
			"inputs": [],
			"name": "factory",
			"outputs": [
				{
					"internalType": "address",
					"name": "",
					"type": "address"
				}
			],
			"stateMutability": "view",
			"type": "function"
		},
		{
			"inputs": [
				{
					"internalType": "bytes",
					"name": "path",
					"type": "bytes"
				},
				{
					"internalType": "uint256",
					"name": "amountIn",
					"type": "uint256"
				}
			],
			"name": "quoteExactInput",
			"outputs": [
				{
					"internalType": "uint256",
					"name": "amountOut",
					"type": "uint256"
				},
				{
					"internalType": "uint160[]",
					"name": "sqrtPriceX96AfterList",
					"type": "uint160[]"
				},
				{
					"internalType": "uint32[]",
					"name": "initializedTicksCrossedList",
					"type": "uint32[]"
				},
				{
					"internalType": "uint256",
					"name": "gasEstimate",
					"type": "uint256"
				}
			],
			"stateMutability": "nonpayable",
			"type": "function"
		},
		{
			"inputs": [
				{
					"components": [
						{
							"internalType": "address",
							"name": "tokenIn",
							"type": "address"
						},
						{
							"internalType": "address",
							"name": "tokenOut",
							"type": "address"
						},
						{
							"internalType": "uint256",
							"name": "amountIn",
							"type": "uint256"
						},
						{
							"internalType": "uint24",
							"name": "fee",
							"type": "uint24"
						},
						{
							"internalType": "uint160",
							"name": "sqrtPriceLimitX96",
							"type": "uint160"
						}
					],
					"internalType": "struct IQuoterV2.QuoteExactInputSingleParams",
					"name": "params",
					"type": "tuple"
				}
			],
			"name": "quoteExactInputSingle",
			"outputs": [
				{
					"internalType": "uint256",
					"name": "amountOut",
					"type": "uint256"
				},
				{
					"internalType": "uint160",
					"name": "sqrtPriceX96After",
					"type": "uint160"
				},
				{
					"internalType": "uint32",
					"name": "initializedTicksCrossed",
					"type": "uint32"
				},
				{
					"internalType": "uint256",
					"name": "gasEstimate",
					"type": "uint256"
				}
			],
			"stateMutability": "nonpayable",
			"type": "function"
		},
		{
			"inputs": [
				{
					"internalType": "bytes",
					"name": "path",
					"type": "bytes"
				},
				{
					"internalType": "uint256",
					"name": "amountOut",
					"type": "uint256"
				}
			],
			"name": "quoteExactOutput",
			"outputs": [
				{
					"internalType": "uint256",
					"name": "amountIn",
					"type": "uint256"
				},
				{
					"internalType": "uint160[]",
					"name": "sqrtPriceX96AfterList",
					"type": "uint160[]"
				},
				{
					"internalType": "uint32[]",
					"name": "initializedTicksCrossedList",
					"type": "uint32[]"
				},
				{
					"internalType": "uint256",
					"name": "gasEstimate",
					"type": "uint256"
				}
			],
			"stateMutability": "nonpayable",
			"type": "function"
		},
		{
			"inputs": [
				{
					"components": [
						{
							"internalType": "address",
							"name": "tokenIn",
							"type": "address"
						},
						{
							"internalType": "address",
							"name": "tokenOut",
							"type": "address"
						},
						{
							"internalType": "uint256",
							"name": "amount",
							"type": "uint256"
						},
						{
							"internalType": "uint24",
							"name": "fee",
							"type": "uint24"
						},
						{
							"internalType": "uint160",
							"name": "sqrtPriceLimitX96",
							"type": "uint160"
						}
					],
					"internalType": "struct IQuoterV2.QuoteExactOutputSingleParams",
					"name": "params",
					"type": "tuple"
				}
			],
			"name": "quoteExactOutputSingle",
			"outputs": [
				{
					"internalType": "uint256",
					"name": "amountIn",
					"type": "uint256"
				},
				{
					"internalType": "uint160",
					"name": "sqrtPriceX96After",
					"type": "uint160"
				},
				{
					"internalType": "uint32",
					"name": "initializedTicksCrossed",
					"type": "uint32"
				},
				{
					"internalType": "uint256",
					"name": "gasEstimate",
					"type": "uint256"
				}
			],
			"stateMutability": "nonpayable",
			"type": "function"
		},
		{
			"inputs": [
				{
					"internalType": "int256",
					"name": "amount0Delta",
					"type": "int256"
				},
				{
					"internalType": "int256",
					"name": "amount1Delta",
					"type": "int256"
				},
				{
					"internalType": "bytes",
					"name": "path",
					"type": "bytes"
				}
			],
			"name": "uniswapV3SwapCallback",
			"outputs": [],
			"stateMutability": "view",
			"type": "function"
		}
	]
}